{"contracts/ParentChildRelationship.sol":{"ParentChildRelationship":{"abi":[{"inputs":[{"internalType":"address","name":"_healthInformationContractAddress","type":"address"},{"internalType":"address","name":"_medicalHistoryContractAddress","type":"address"},{"internalType":"address","name":"_vaccinationManagementContractAddress","type":"address"}],"stateMutability":"nonpayable","type":"constructor"},{"anonymous":false,"inputs":[{"indexed":true,"internalType":"address","name":"parentAddress","type":"address"},{"indexed":true,"internalType":"address","name":"childAddress","type":"address"}],"name":"ConnectChild","type":"event"},{"anonymous":false,"inputs":[{"indexed":true,"internalType":"address","name":"parentAddress","type":"address"},{"indexed":false,"internalType":"address","name":"childAddress","type":"address"}],"name":"CreateChild","type":"event"},{"inputs":[{"internalType":"address","name":"_childAddress","type":"address"},{"internalType":"enum MedicalHistory.MedicalType","name":"_medicalType","type":"uint8"},{"internalType":"string","name":"_visitedName","type":"string"},{"internalType":"string","name":"_timestamp","type":"string"},{"internalType":"string","name":"_doctorName","type":"string"},{"internalType":"string","name":"_symptoms","type":"string"},{"internalType":"string","name":"_diagnosisDetails","type":"string"}],"name":"addMedicalHistoryForChild","outputs":[],"stateMutability":"nonpayable","type":"function"},{"inputs":[{"internalType":"address","name":"_childAddress","type":"address"}],"name":"connectChild","outputs":[],"stateMutability":"nonpayable","type":"function"},{"inputs":[{"internalType":"string","name":"_name","type":"string"},{"internalType":"uint256","name":"_birthDate","type":"uint256"},{"internalType":"uint16","name":"_height","type":"uint16"},{"internalType":"uint16","name":"_weight","type":"uint16"},{"internalType":"string[]","name":"vaxs","type":"string[]"}],"name":"createChild","outputs":[{"internalType":"address","name":"","type":"address"}],"stateMutability":"nonpayable","type":"function"},{"inputs":[{"internalType":"address","name":"_childAddress","type":"address"}],"name":"getHealthInformation","outputs":[{"components":[{"internalType":"uint16","name":"height","type":"uint16"},{"internalType":"uint16","name":"weight","type":"uint16"}],"internalType":"struct HealthInformation.Information","name":"","type":"tuple"}],"stateMutability":"view","type":"function"},{"inputs":[{"internalType":"address","name":"_childAddress","type":"address"}],"name":"getMedicalHistoriesForChild","outputs":[{"components":[{"internalType":"enum MedicalHistory.MedicalType","name":"medicaltype","type":"uint8"},{"internalType":"string","name":"visitedName","type":"string"},{"internalType":"string","name":"timestamp","type":"string"},{"internalType":"string","name":"doctorName","type":"string"},{"internalType":"string","name":"symptoms","type":"string"},{"internalType":"string","name":"diagnosisDetails","type":"string"}],"internalType":"struct MedicalHistory.History[]","name":"","type":"tuple[]"}],"stateMutability":"view","type":"function"},{"inputs":[{"internalType":"address","name":"_childAddress","type":"address"},{"internalType":"uint256","name":"_childBirthDate","type":"uint256"}],"name":"getVaccinationDDay","outputs":[{"components":[{"components":[{"internalType":"uint8","name":"index","type":"uint8"},{"internalType":"string","name":"vaccineName","type":"string"},{"internalType":"string","name":"targetDisease","type":"string"},{"internalType":"uint8","name":"vaccineChapter","type":"uint8"},{"internalType":"uint16","name":"recommendedDays","type":"uint16"},{"internalType":"uint16","name":"recommendedEndDays","type":"uint16"},{"internalType":"uint256","name":"startVaccinationDate","type":"uint256"},{"internalType":"uint256","name":"endVaccinationDate","type":"uint256"},{"internalType":"enum VaccinationManagement.VaccinationStatus","name":"status","type":"uint8"},{"internalType":"uint256","name":"administeredDate","type":"uint256"}],"internalType":"struct VaccinationManagement.Vaccination","name":"vax","type":"tuple"},{"internalType":"int256","name":"dDay","type":"int256"}],"internalType":"struct VaccinationManagement.VaccinationWithDDay[]","name":"","type":"tuple[]"}],"stateMutability":"view","type":"function"},{"inputs":[],"name":"healthInformationContract","outputs":[{"internalType":"contract HealthInformation","name":"","type":"address"}],"stateMutability":"view","type":"function"},{"inputs":[],"name":"medicalHistoryContract","outputs":[{"internalType":"contract MedicalHistory","name":"","type":"address"}],"stateMutability":"view","type":"function"},{"inputs":[{"internalType":"string","name":"_name","type":"string"}],"name":"returnChildAddress","outputs":[{"internalType":"address","name":"","type":"address"}],"stateMutability":"view","type":"function"},{"inputs":[],"name":"returnChildInformation","outputs":[{"components":[{"internalType":"address","name":"childAddress","type":"address"},{"internalType":"string","name":"name","type":"string"},{"internalType":"uint256","name":"birthDate","type":"uint256"}],"internalType":"struct ParentChildRelationship.Child[]","name":"","type":"tuple[]"}],"stateMutability":"view","type":"function"},{"inputs":[{"internalType":"address","name":"_childAddress","type":"address"}],"name":"returnChildVaccinationStatus","outputs":[{"components":[{"components":[{"internalType":"uint8","name":"index","type":"uint8"},{"internalType":"string","name":"vaccineName","type":"string"},{"internalType":"string","name":"targetDisease","type":"string"},{"internalType":"uint8","name":"vaccineChapter","type":"uint8"},{"internalType":"uint16","name":"recommendedDays","type":"uint16"},{"internalType":"uint16","name":"recommendedEndDays","type":"uint16"},{"internalType":"uint256","name":"startVaccinationDate","type":"uint256"},{"internalType":"uint256","name":"endVaccinationDate","type":"uint256"},{"internalType":"enum VaccinationManagement.VaccinationStatus","name":"status","type":"uint8"},{"internalType":"uint256","name":"administeredDate","type":"uint256"}],"internalType":"struct VaccinationManagement.Vaccination[]","name":"completed","type":"tuple[]"},{"components":[{"internalType":"uint8","name":"index","type":"uint8"},{"internalType":"string","name":"vaccineName","type":"string"},{"internalType":"string","name":"targetDisease","type":"string"},{"internalType":"uint8","name":"vaccineChapter","type":"uint8"},{"internalType":"uint16","name":"recommendedDays","type":"uint16"},{"internalType":"uint16","name":"recommendedEndDays","type":"uint16"},{"internalType":"uint256","name":"startVaccinationDate","type":"uint256"},{"internalType":"uint256","name":"endVaccinationDate","type":"uint256"},{"internalType":"enum VaccinationManagement.VaccinationStatus","name":"status","type":"uint8"},{"internalType":"uint256","name":"administeredDate","type":"uint256"}],"internalType":"struct VaccinationManagement.Vaccination[]","name":"pending","type":"tuple[]"}],"internalType":"struct VaccinationManagement.VaccinationInfomation","name":"","type":"tuple"}],"stateMutability":"view","type":"function"},{"inputs":[{"internalType":"address","name":"_childAddress","type":"address"},{"internalType":"uint16","name":"_height","type":"uint16"},{"internalType":"uint16","name":"_weight","type":"uint16"}],"name":"setHealthInformation","outputs":[],"stateMutability":"nonpayable","type":"function"},{"inputs":[{"internalType":"address","name":"_childAddress","type":"address"},{"internalType":"string","name":"_vaccineName","type":"string"}],"name":"updateChildVaccination","outputs":[],"stateMutability":"nonpayable","type":"function"},{"inputs":[{"internalType":"address","name":"_childAddress","type":"address"},{"internalType":"string[]","name":"_vaccinNames","type":"string[]"}],"name":"updateMultipleChildVaccination","outputs":[],"stateMutability":"nonpayable","type":"function"},{"inputs":[],"name":"vaccinationManagementContract","outputs":[{"internalType":"contract VaccinationManagement","name":"","type":"address"}],"stateMutability":"view","type":"function"}],"evm":{"bytecode":{"linkReferences":{},"object":"6080604052346100305761001a610014610117565b9161024f565b610022610035565b61343a61028b823961343a90f35b61003b565b60405190565b600080fd5b601f801991011690565b634e487b7160e01b600052604160045260246000fd5b9061006a90610040565b810190811060018060401b0382111761008257604052565b61004a565b9061009a610093610035565b9283610060565b565b600080fd5b60018060a01b031690565b6100b5906100a1565b90565b6100c1816100ac565b036100c857565b600080fd5b905051906100da826100b8565b565b90916060828403126101125761010f6100f884600085016100cd565b9361010681602086016100cd565b936040016100cd565b90565b61009c565b6101356136c58038038061012a81610087565b9283398101906100dc565b909192565b90565b61015161014c610156926100a1565b61013a565b6100a1565b90565b6101629061013d565b90565b61016e90610159565b90565b60001b90565b9061018860018060a01b0391610171565b9181191691161790565b61019b90610159565b90565b90565b906101b66101b16101bd92610192565b61019e565b8254610177565b9055565b6101ca9061013d565b90565b6101d6906101c1565b90565b6101e2906101c1565b90565b90565b906101fd6101f8610204926101d9565b6101e5565b8254610177565b9055565b6102119061013d565b90565b61021d90610208565b90565b61022990610208565b90565b90565b9061024461023f61024b92610220565b61022c565b8254610177565b9055565b9161027c6102756102819361027061026961028897610165565b60006101a1565b6101cd565b60016101e8565b610214565b600261022f565b56fe60806040526004361015610013575b6110f9565b61001e60003561010c565b8062bcec27146101075780630bd17b47146101025780631d58a59b146100fd578063375ffc73146100f85780633cfedb84146100f35780633e030d06146100ee578063431e79c4146100e9578063647a6682146100e457806364d8300c146100df5780637ccf76c0146100da57806397ed8c09146100d5578063aa65a43e146100d0578063c9d461c5146100cb578063e50cde76146100c65763eb607db10361000e576110c4565b610fb5565b610f4a565b610ea5565b610e36565b610e01565b610cd3565b610bf4565b610ac4565b610911565b61086e565b610789565b61047a565b6103da565b61029e565b60e01c90565b60405190565b600080fd5b600080fd5b600080fd5b60018060a01b031690565b61013b90610127565b90565b61014781610132565b0361014e57565b600080fd5b905035906101608261013e565b565b600080fd5b600080fd5b601f801991011690565b634e487b7160e01b600052604160045260246000fd5b906101969061016c565b810190811067ffffffffffffffff8211176101b057604052565b610176565b906101c86101c1610112565b928361018c565b565b67ffffffffffffffff81116101e8576101e460209161016c565b0190565b610176565b90826000939282370152565b9092919261020e610209826101ca565b6101b5565b9381855260208501908284011161022a57610228926101ed565b565b610167565b9080601f8301121561024d5781602061024a933591016101f9565b90565b610162565b9190916040818403126102935761026c8360008301610153565b92602082013567ffffffffffffffff811161028e5761028b920161022f565b90565b610122565b61011d565b60000190565b346102cd576102b76102b1366004610252565b906111b2565b6102bf610112565b806102c981610298565b0390f35b610118565b600211156102dc57565b600080fd5b905035906102ee826102d2565b565b9060e0828203126103d5576103088160008401610153565b9261031682602085016102e1565b92604081013567ffffffffffffffff81116103d0578361033791830161022f565b92606082013567ffffffffffffffff81116103cb578161035891840161022f565b92608083013567ffffffffffffffff81116103c6578261037991850161022f565b9260a081013567ffffffffffffffff81116103c1578361039a91830161022f565b9260c082013567ffffffffffffffff81116103bc576103b9920161022f565b90565b610122565b610122565b610122565b610122565b610122565b61011d565b3461040f576103f96103ed3660046102f0565b959490949391936112f1565b610401610112565b8061040b81610298565b0390f35b610118565b61ffff1690565b61042481610414565b0361042b57565b600080fd5b9050359061043d8261041b565b565b90916060828403126104755761047261045b8460008501610153565b936104698160208601610430565b93604001610430565b90565b61011d565b346104a95761049361048d36600461043f565b916113f3565b61049b610112565b806104a581610298565b0390f35b610118565b90565b6104ba816104ae565b036104c157565b600080fd5b905035906104d3826104b1565b565b91906040838203126104fe57806104f26104fb9260008601610153565b936020016104c6565b90565b61011d565b5190565b60209181520190565b60200190565b60ff1690565b61052590610516565b9052565b5190565b60209181520190565b60005b83811061054a575050906000910152565b806020918301518185015201610539565b61057a6105836020936105889361057181610529565b9384809361052d565b95869101610536565b61016c565b0190565b61059590610414565b9052565b6105a2906104ae565b9052565b634e487b7160e01b600052602160045260246000fd5b600211156105c657565b6105a6565b906105d5826105bc565b565b6105e0906105cb565b90565b6105ec906105d7565b9052565b906106b3906101208061063a61062861014085016106166000890151600088019061051c565b6020880151868203602088015261055b565b6040870151858203604087015261055b565b9461064d6060820151606086019061051c565b61065f6080820151608086019061058c565b61067160a082015160a086019061058c565b61068360c082015160c0860190610599565b61069560e082015160e0860190610599565b6106a96101008201516101008601906105e3565b0151910190610599565b90565b90565b6106c2906106b6565b9052565b906106f2906020806106e760408401600087015185820360008701526105f0565b9401519101906106b9565b90565b906106ff916106c6565b90565b60200190565b9061071c61071583610503565b8092610507565b908161072d60208302840194610510565b926000915b83831061074157505050505090565b9091929394602061076361075d838560019503875289516106f5565b97610702565b9301930191939290610732565b6107869160208201916000818403910152610708565b90565b346107ba576107b66107a561079f3660046104d5565b90611812565b6107ad610112565b91829182610770565b0390f35b610118565b60009103126107ca57565b61011d565b1c90565b60018060a01b031690565b6107ee9060086107f393026107cf565b6107d3565b90565b9061080191546107de565b90565b61081160026000906107f6565b90565b90565b61082b61082661083092610127565b610814565b610127565b90565b61083c90610817565b90565b61084890610833565b90565b6108549061083f565b9052565b919061086c9060006020850194019061084b565b565b3461089e5761087e3660046107bf565b61089a610889610804565b610891610112565b91829182610858565b0390f35b610118565b60018060a01b031690565b6108be9060086108c393026107cf565b6108a3565b90565b906108d191546108ae565b90565b6108df6000806108c6565b90565b6108eb90610833565b90565b6108f7906108e2565b9052565b919061090f906000602085019401906108ee565b565b34610941576109213660046107bf565b61093d61092c6108d4565b610934610112565b918291826108fb565b0390f35b610118565b906020828203126109605761095d91600001610153565b90565b61011d565b5190565b60209181520190565b60200190565b6002111561098257565b6105a6565b9061099182610978565b565b61099c90610987565b90565b6109a890610993565b9052565b610a2d9160a0610a1c610a0a6109f86109e660c086016109d46000890151600089019061099f565b6020880151878203602089015261055b565b6040870151868203604088015261055b565b6060860151858203606087015261055b565b6080850151848203608086015261055b565b9201519060a081840391015261055b565b90565b90610a3a916109ac565b90565b60200190565b90610a57610a5083610965565b8092610969565b9081610a6860208302840194610972565b926000915b838310610a7c57505050505090565b90919293946020610a9e610a9883856001950387528951610a30565b97610a3d565b9301930191939290610a6d565b610ac19160208201916000818403910152610a43565b90565b34610af457610af0610adf610ada366004610946565b611a98565b610ae7610112565b91829182610aab565b0390f35b610118565b67ffffffffffffffff8111610b115760208091020190565b610176565b600080fd5b929190610b2f610b2a82610af9565b6101b5565b9381855260208086019202810191838311610b865781905b838210610b55575050505050565b813567ffffffffffffffff8111610b8157602091610b76878493870161022f565b815201910190610b47565b610162565b610b16565b9080601f83011215610ba957816020610ba693359101610b1b565b90565b610162565b919091604081840312610bef57610bc88360008301610153565b92602082013567ffffffffffffffff8111610bea57610be79201610b8b565b90565b610122565b61011d565b34610c2357610c0d610c07366004610bae565b90611bd4565b610c15610112565b80610c1f81610298565b0390f35b610118565b91909160a081840312610cab57600081013567ffffffffffffffff8111610ca65783610c5591830161022f565b92610c6381602084016104c6565b92610c718260408501610430565b92610c7f8360608301610430565b92608082013567ffffffffffffffff8111610ca157610c9e9201610b8b565b90565b610122565b610122565b61011d565b610cb990610132565b9052565b9190610cd190600060208501940190610cb0565b565b34610d0757610d03610cf2610ce9366004610c28565b9392909261225c565b610cfa610112565b91829182610cbd565b0390f35b610118565b5190565b60209181520190565b60200190565b610d2890610132565b9052565b90610d6a90604080610d5f60608401610d4d60008801516000870190610d1f565b6020870151858203602087015261055b565b940151910190610599565b90565b90610d7791610d2c565b90565b60200190565b90610d94610d8d83610d0c565b8092610d10565b9081610da560208302840194610d19565b926000915b838310610db957505050505090565b90919293946020610ddb610dd583856001950387528951610d6d565b97610d7a565b9301930191939290610daa565b610dfe9160208201916000818403910152610d80565b90565b34610e3157610e113660046107bf565b610e2d610e1c6127af565b610e24610112565b91829182610de8565b0390f35b610118565b34610e6457610e4e610e49366004610946565b612b29565b610e56610112565b80610e6081610298565b0390f35b610118565b90602080610e8d93610e836000820151600086019061058c565b015191019061058c565b565b9190610ea390600060408501940190610e69565b565b34610ed557610ed1610ec0610ebb366004610946565b612d4e565b610ec8610112565b91829182610e8f565b0390f35b610118565b60018060a01b031690565b610ef5906008610efa93026107cf565b610eda565b90565b90610f089154610ee5565b90565b610f186001600090610efd565b90565b610f2490610833565b90565b610f3090610f1b565b9052565b9190610f4890600060208501940190610f27565b565b34610f7a57610f5a3660046107bf565b610f76610f65610f0b565b610f6d610112565b91829182610f34565b0390f35b610118565b90602082820312610fb057600082013567ffffffffffffffff8111610fab57610fa8920161022f565b90565b610122565b61011d565b34610fe557610fe1610fd0610fcb366004610f7f565b612f89565b610fd8610112565b91829182610cbd565b0390f35b610118565b5190565b60209181520190565b60200190565b90611007916105f0565b90565b60200190565b9061102461101d83610fea565b8092610fee565b908161103560208302840194610ff7565b926000915b83831061104957505050505090565b9091929394602061106b61106583856001950387528951610ffd565b9761100a565b930193019193929061103a565b6110a89160206110976040830160008501518482036000860152611010565b920151906020818403910152611010565b90565b6110c19160208201916000818403910152611078565b90565b346110f4576110f06110df6110da366004610946565b613275565b6110e7610112565b918291826110ab565b0390f35b610118565b600080fd5b60001c90565b611110611115916110fe565b6107d3565b90565b6111229054611104565b90565b600080fd5b60e01b90565b600091031261113b57565b61011d565b60209181520190565b6111686111716020936111769361115f81610529565b93848093611140565b95869101610536565b61016c565b0190565b9161119e9261119160408201936000830190610cb0565b6020818403910152611149565b90565b6111a9610112565b3d6000823e3d90fd5b6111c46111bf6002611118565b61083f565b9162bcec27919092803b15611240576111f1600080946111fc6111e5610112565b9788968795869461112a565b84526004840161117a565b03925af1801561123b5761120e575b50565b61122e9060003d8111611234575b611226818361018c565b810190611130565b3861120b565b503d61121c565b6111a1565b611125565b611251611256916110fe565b610eda565b90565b6112639054611245565b90565b61126f90610993565b9052565b95926112e0946112b6886112c4936112a96112d29761129f6112ee9e9c98600060e08701960190610cb0565b60208d0190611266565b8a820360408c0152611149565b9088820360608a0152611149565b908682036080880152611149565b9084820360a0860152611149565b9160c0818403910152611149565b90565b9594919593909361130a6113056001611259565b610f1b565b93633b27f4e291959790929396853b1561138e5760009761133f95899561134a94611333610112565b9c8d9b8c9a8b9961112a565b895260048901611273565b03925af180156113895761135c575b50565b61137c9060003d8111611382575b611374818361018c565b810190611130565b38611359565b503d61136a565b6111a1565b611125565b61139d60406101b5565b90565b906113aa90610414565b9052565b6113ba6113bf916110fe565b6108a3565b90565b6113cc90546113ae565b90565b9160206113f19294936113ea60608201966000830190610cb0565b0190610e69565b565b9190611418909161140f611405611393565b93600085016113a0565b602083016113a0565b9061142b61142660006113c2565b6108e2565b9163fef28772919092803b156114a8576114596000809461146461144d610112565b9788968795869461112a565b8452600484016113cf565b03925af180156114a357611476575b50565b6114969060003d811161149c575b61148e818361018c565b810190611130565b38611473565b503d611484565b6111a1565b611125565b606090565b67ffffffffffffffff81116114ca5760208091020190565b610176565b600080fd5b600080fd5b6114e281610516565b036114e957565b600080fd5b905051906114fb826114d9565b565b9092919261151261150d826101ca565b6101b5565b9381855260208501908284011161152e5761152c92610536565b565b610167565b9080601f830112156115515781602061154e935191016114fd565b90565b610162565b905051906115638261041b565b565b90505190611572826104b1565b565b6002111561157e57565b600080fd5b9050519061159082611574565b565b91909161014081840312611695576115ab6101406101b5565b926115b981600084016114ee565b6000850152602082015167ffffffffffffffff811161169057816115de918401611533565b602085015260408201519167ffffffffffffffff831161168b5761160782611683948301611533565b604086015261161982606083016114ee565b606086015261162b8260808301611556565b608086015261163d8260a08301611556565b60a086015261164f8260c08301611565565b60c08601526116618260e08301611565565b60e0860152611674826101008301611583565b61010086015261012001611565565b610120830152565b6114d4565b6114d4565b6114cf565b6116a3816106b6565b036116aa57565b600080fd5b905051906116bc8261169a565b565b919091604081840312611713576116d560406101b5565b9260008201519167ffffffffffffffff831161170e576116fa82611707948301611592565b60008601526020016116af565b6020830152565b6114d4565b6114cf565b92919061172c611727826114b2565b6101b5565b93818552602080860192028101918383116117835781905b838210611752575050505050565b815167ffffffffffffffff811161177e5760209161177387849387016116be565b815201910190611744565b610162565b610b16565b9080601f830112156117a6578160206117a393519101611718565b90565b610162565b906020828203126117dc57600082015167ffffffffffffffff81116117d7576117d49201611788565b90565b610122565b61011d565b6117ea906104ae565b9052565b91602061181092949361180960408201966000830190610cb0565b01906117e1565b565b9060009061181e6114ad565b5061183161182c6002611118565b61083f565b61185363375ffc7394929461185e611847610112565b9687958694859461112a565b8452600484016117ee565b03915afa90811561189857600091611875575b5090565b61189291503d806000833e61188a818361018c565b8101906117ab565b38611871565b6111a1565b606090565b67ffffffffffffffff81116118ba5760208091020190565b610176565b905051906118cc826102d2565b565b91909160c0818403126119ca576118e560c06101b5565b926118f381600084016118bf565b6000850152602082015167ffffffffffffffff81116119c55781611918918401611533565b6020850152604082015167ffffffffffffffff81116119c0578161193d918401611533565b6040850152606082015167ffffffffffffffff81116119bb5781611962918401611533565b6060850152608082015167ffffffffffffffff81116119b65781611987918401611533565b608085015260a082015167ffffffffffffffff81116119b1576119aa9201611533565b60a0830152565b6114d4565b6114d4565b6114d4565b6114d4565b6114d4565b6114cf565b9291906119e36119de826118a2565b6101b5565b9381855260208086019202810191838311611a3a5781905b838210611a09575050505050565b815167ffffffffffffffff8111611a3557602091611a2a87849387016118ce565b8152019101906119fb565b610162565b610b16565b9080601f83011215611a5d57816020611a5a935191016119cf565b90565b610162565b90602082820312611a9357600082015167ffffffffffffffff8111611a8e57611a8b9201611a3f565b90565b610122565b61011d565b6000611ae091611aa661189d565b50611ab9611ab46001611259565b610f1b565b611ad563b226187c611ac9610112565b9586948593849361112a565b835260048301610cbd565b03915afa908115611b1a57600091611af7575b5090565b611b1491503d806000833e611b0c818361018c565b810190611a62565b38611af3565b6111a1565b5190565b60209181520190565b60200190565b90611b3c9161055b565b90565b60200190565b90611b59611b5283611b1f565b8092611b23565b9081611b6a60208302840194611b2c565b926000915b838310611b7e57505050505090565b90919293946020611ba0611b9a83856001950387528951611b32565b97611b3f565b9301930191939290611b6f565b91611bd192611bc460408201936000830190610cb0565b6020818403910152611b45565b90565b611be6611be16002611118565b61083f565b9163647a6682919092803b15611c6357611c1460008094611c1f611c08610112565b9788968795869461112a565b845260048401611bad565b03925af18015611c5e57611c31575b50565b611c519060003d8111611c57575b611c49818361018c565b810190611130565b38611c2e565b503d611c3f565b6111a1565b611125565b600090565b90565b611c84611c7f611c8992611c6d565b610814565b610127565b90565b611c9590611c70565b90565b60007f706172656e74206e6f7420666f756e6400000000000000000000000000000000910152565b611ccd6010602092611140565b611cd681611c98565b0190565b611cf09060208101906000818303910152611cc0565b90565b15611cfa57565b611d02610112565b62461bcd60e51b815280611d1860048201611cda565b0390fd5b60601b90565b611d2b90611d1c565b90565b611d3790611d22565b90565b611d46611d4b91610132565b611d2e565b9052565b905090565b611d79611d7092602092611d6781610529565b94858093611d4f565b93849101610536565b0190565b90565b611d8c611d91916104ae565b611d7d565b9052565b60209392601482611dac611db394611dba96611d3a565b0190611d54565b8092611d80565b0190565b60200190565b5190565b611ddc611dd7611de1926104ae565b610814565b6104ae565b90565b611df0611df5916110fe565b611dc8565b90565b611e0c611e07611e11926104ae565b610814565b610127565b90565b611e1d90610833565b90565b90611e2a90611e14565b600052602052604060002090565b90565b5490565b634e487b7160e01b600052603260045260246000fd5b600052602060002090565b611e6981611e3b565b821015611e8457611e7b600391611e55565b91020190600090565b611e3f565b611e9281611e3b565b68010000000000000000811015611eb657611eb291600182018155611e60565b9091565b610176565b90565b60001b90565b90611ed560018060a01b0391611ebe565b9181191691161790565b90565b90611ef7611ef2611efe92611e14565b611edf565b8254611ec4565b9055565b634e487b7160e01b600052600060045260246000fd5b634e487b7160e01b600052602260045260246000fd5b9060016002830492168015611f4e575b6020831014611f4957565b611f18565b91607f1691611f3e565b600052602060002090565b601f602091010490565b1b90565b91906008611f8d910291611f8760001984611f6d565b92611f6d565b9181191691161790565b90565b9190611fb0611fab611fb893611dc8565b611f97565b908354611f71565b9055565b600090565b611fd391611fcd611fbc565b91611f9a565b565b5b818110611fe1575050565b80611fef6000600193611fc1565b01611fd6565b9190601f8111612005575b505050565b61201161203693611f58565b90602061201d84611f63565b8301931061203e575b61202f90611f63565b0190611fd5565b388080612000565b915061202f81929050612026565b9061205d90600019906008026107cf565b191690565b8161206c9161204c565b906002021790565b9061207e81610529565b9067ffffffffffffffff8211612140576120a28261209c8554611f2e565b85611ff5565b602090601f83116001146120d7579180916120c6936000926120cb575b5050612062565b90555b565b909150015138806120bf565b601f198316916120e685611f58565b9260005b8181106121285750916002939185600196941061210e575b505050020190556120c9565b61211e910151601f84169061204c565b9055388080612102565b919360206001819287870151815501950192016120ea565b610176565b9061214f91612074565b565b9061215e60001991611ebe565b9181191691161790565b9061217d61217861218492611dc8565b611f97565b8254612151565b9055565b9061219290611e14565b600052602052604060002090565b90565b600052602060002090565b5490565b6121bb816121ae565b8210156121d6576121cd6001916121a3565b91020190600090565b611e3f565b919060086121fb9102916121f560018060a01b0384611f6d565b92611f6d565b9181191691161790565b919061221b61221661222393611e14565b611edf565b9083546121db565b9055565b9081549168010000000000000000831015612257578261224f916001612255950181556121b2565b90612205565b565b610176565b916123376123749295949361226f611c68565b506122963361228f6122896122846000611c8c565b610132565b91610132565b1415611cf3565b60026122f06122eb6122e68a6122ce336122bf88936122b3610112565b94859360208501611d95565b6020820181038252038261018c565b6122e06122da82611dc4565b91611dbe565b20611de4565b611df8565b610833565b9761233061231961231361230e61230960033390611e20565b611e38565b611e89565b50611ebb565b936123278b60008701611ee2565b60018501612145565b9101612168565b61235561234e61234960048890612188565b6121a0565b3390612227565b9161236b612361611393565b93600085016113a0565b602083016113a0565b61238661238160006113c2565b6108e2565b9063fef2877290849092803b1561256d576123b5600080946123c06123a9610112565b9788968795869461112a565b8452600484016113cf565b03925af180156125685761253b575b506123e26123dd6002611118565b61083f565b6359c3309e83823b15612536576124199261240e60008094612402610112565b9687958694859361112a565b835260048301610cbd565b03925af1801561253157612504575b5061243b6124366002611118565b61083f565b9063647a668290839092803b156124ff5761246a6000809461247561245e610112565b9788968795869461112a565b845260048401611bad565b03925af180156124fa576124cd575b503381906124c76124b57fca9cd3d407e1929a81a936f2d713a37a799f8e396184ea2af249a3ec3bad920792611e14565b926124be610112565b91829182610cbd565b0390a290565b6124ed9060003d81116124f3575b6124e5818361018c565b810190611130565b38612484565b503d6124db565b6111a1565b611125565b6125249060003d811161252a575b61251c818361018c565b810190611130565b38612428565b503d612512565b6111a1565b611125565b61255b9060003d8111612561575b612553818361018c565b810190611130565b386123cf565b503d612549565b6111a1565b611125565b606090565b5490565b67ffffffffffffffff81116125935760208091020190565b610176565b906125aa6125a58361257b565b6101b5565b918252565b600052602060002090565b60018060a01b031690565b6125d16125d6916110fe565b6125ba565b90565b6125e390546125c5565b90565b906125f090610132565b9052565b906000929180549061260f61260883611f2e565b809461052d565b91600181169081600014612668575060011461262b575b505050565b6126389192939450611f58565b916000925b8184106126505750500190388080612626565b6001816020929593955484860152019101929061263d565b92949550505060ff1916825215156020020190388080612626565b9061268d916125f4565b90565b906126b06126a9926126a0610112565b93848092612683565b038361018c565b565b52565b90565b6126c46126c9916110fe565b6126b5565b90565b6126d690546126b8565b90565b906126e3906104ae565b9052565b6126f160606101b5565b90565b9061274561273c60026127056126e7565b9461271e612715600083016125d9565b600088016125e6565b61273661272d60018301612690565b602088016126b2565b016126cc565b604084016126d9565b565b612750906126f4565b90565b9061275d82612577565b61276681612598565b9261277460208501916125af565b6000915b8383106127855750505050565b6003602060019261279585612747565b815201920192019190612778565b6127ac90612753565b90565b6127b7612572565b506127cc6127c760033390611e20565b6127a3565b90565b5490565b6127e76127e26127ec92611c6d565b610814565b6104ae565b90565b60007f6368696c64206e6f7420666f756e640000000000000000000000000000000000910152565b612824600f602092611140565b61282d816127ef565b0190565b6128479060208101906000818303910152612817565b90565b1561285157565b612859610112565b62461bcd60e51b81528061286f60048201612831565b0390fd5b600161287f91016104ae565b90565b60007f416c7265616479206c696e6b656420746f2074686973206368696c6400000000910152565b6128b7601c602092611140565b6128c081612882565b0190565b6128da90602081019060008183039101526128aa565b90565b156128e457565b6128ec610112565b62461bcd60e51b815280612902600482016128c4565b0390fd5b600052602060002090565b61291a816127cf565b8210156129355761292c600191612906565b91020190600090565b611e3f565b61294a90600861294f93026107cf565b6125ba565b90565b9061295d915461293a565b90565b61296981612577565b8210156129845761297b6003916125af565b91020190600090565b611e3f565b6129939054611f2e565b90565b90808214612a78576129a781612989565b9067ffffffffffffffff8211612a73576129cb826129c58554611f2e565b85611ff5565b600090601f8311600114612a00579180916129ef936000926129f4575b5050612062565b90555b565b909150015438806129e8565b90612a0f601f19841692611f58565b90612a1985611f58565b9260005b818110612a5b57509160029391856001969410612a41575b505050020190556129f2565b612a51910154601f84169061204c565b9055388080612a35565b91936001806020928787015481550195019201612a1d565b610176565b5050565b90612a8691612996565b565b90808203612a95575b5050565b612ad160028084612ab86000612ad79701612ab2600088016125d9565b90611ee2565b612ac9600182016001870190612a7c565b0192016126cc565b90612168565b3880612a91565b9190612aef57612aed91612a88565b565b611f02565b9081549168010000000000000000831015612b245782612b1c916001612b2295018155611e60565b90612ade565b565b610176565b612b5a612b40612b3b60048490612188565b6127cf565b612b53612b4d60006127d3565b916104ae565b141561284a565b612b6e612b6960033390611e20565b611e38565b612b7860006127d3565b5b80612b94612b8e612b8985611e3b565b6104ae565b916104ae565b1015612bdb57612bd690612bd1612bb86000612bb1868590611e60565b50016125d9565b612bca612bc487610132565b91610132565b14156128dd565b612873565b612b79565b5050612c40612c27612c21612c06612c00612bf860048790612188565b600090612911565b90612952565b612c1c612c14828790613357565b916003611e20565b612960565b50611ebb565b612c3b612c3660033390611e20565b611e38565b612af4565b612c5e612c57612c5260048490612188565b6121a0565b3390612227565b3390612c93612c8d7f67a834331ce532b16f83bfc8251d8eb0eb155ba5e222fa98d74d93c9907fedac93611e14565b91611e14565b91612c9c610112565b80612ca681610298565b0390a3565b612cb560406101b5565b90565b600090565b612cc5612cab565b9060208083612cd2612cb8565b815201612cdd612cb8565b81525050565b612ceb612cbd565b90565b9190604083820312612d2a57612d2390612d0860406101b5565b93612d168260008301611556565b6000860152602001611556565b6020830152565b6114cf565b90604082820312612d4957612d4691600001612cee565b90565b61011d565b6040612d9691612d5c612ce3565b50612d6f612d6a60006113c2565b6108e2565b612d8b63aa65a43e612d7f610112565b9586948593849361112a565b835260048301610cbd565b03915afa908115612ddb57600091612dad575b5090565b612dce915060403d8111612dd4575b612dc6818361018c565b810190612d2f565b38612da9565b503d612dbc565b6111a1565b60007f4e6f206368696c6420666f756e64000000000000000000000000000000000000910152565b612e15600e602092611140565b612e1e81612de0565b0190565b612e389060208101906000818303910152612e08565b90565b15612e4257565b612e4a610112565b62461bcd60e51b815280612e6060048201612e22565b0390fd5b9060009291805490612e7f612e7883611f2e565b8094611d4f565b91600181169081600014612ed35750600114612e9b575b505050565b612ea89192939450611f58565b6000905b838210612ebf5750500190388080612e96565b600181602092548486015201910190612eac565b92949550505060ff19168252801515020190388080612e96565b612ef691612e64565b90565b612f0291611d54565b90565b90565b60207f6e64000000000000000000000000000000000000000000000000000000000000917f6368696c642077697468207468652067697665206e616d65206e6f7420666f7560008201520152565b612f636022604092611140565b612f6c81612f08565b0190565b612f869060208101906000818303910152612f56565b90565b612f91611c68565b50612fa6612fa160033390611e20565b611e38565b612faf81611e3b565b91612fcd83612fc7612fc160006127d3565b916104ae565b11612e3b565b612fd760006127d3565b5b80612feb612fe5866104ae565b916104ae565b10156130b95761301a6130296001613004868590611e60565b500161300e610112565b92839160208301612eed565b6020820181038252038261018c565b61303b61303582611dc4565b91611dbe565b2061308a61308461305d61306c86613051610112565b92839160208301612ef9565b6020820181038252038261018c565b61307e61307882611dc4565b91611dbe565b20612f05565b91612f05565b1461309d5761309890612873565b612fd8565b6130b693506130af9150600092611e60565b50016125d9565b90565b6130c1610112565b62461bcd60e51b8152806130d760048201612f70565b0390fd5b6130e560406101b5565b90565b606090565b6130f56130db565b90602080836131026130e8565b81520161310d6130e8565b81525050565b61311b6130ed565b90565b67ffffffffffffffff81116131365760208091020190565b610176565b92919061314f61314a8261311e565b6101b5565b93818552602080860192028101918383116131a65781905b838210613175575050505050565b815167ffffffffffffffff81116131a1576020916131968784938701611592565b815201910190613167565b610162565b610b16565b9080601f830112156131c9578160206131c69351910161313b565b90565b610162565b91909160408184031261323a576131e560406101b5565b92600082015167ffffffffffffffff811161323557816132069184016131ab565b6000850152602082015167ffffffffffffffff81116132305761322992016131ab565b6020830152565b6114d4565b6114d4565b6114cf565b9060208282031261327057600082015167ffffffffffffffff811161326b5761326892016131ce565b90565b610122565b61011d565b60006132bd91613283613113565b506132966132916002611118565b61083f565b6132b263eb607db16132a6610112565b9586948593849361112a565b835260048301610cbd565b03915afa9081156132f7576000916132d4575b5090565b6132f191503d806000833e6132e9818361018c565b81019061323f565b386132d0565b6111a1565b60007f4368696c64206e6f7420666f756e640000000000000000000000000000000000910152565b613331600f602092611140565b61333a816132fc565b0190565b6133549060208101906000818303910152613324565b90565b61336e61337391613366611fbc565b506003611e20565b611e38565b9061337e60006127d3565b5b8061339a61339461338f86611e3b565b6104ae565b916104ae565b10156133e2576133b760006133b0858490611e60565b50016125d9565b6133c96133c384610132565b91610132565b146133dc576133d790612873565b61337f565b91505090565b6133ea610112565b62461bcd60e51b8152806134006004820161333e565b0390fdfea2646970667358221220b69a0c094b3675205983bdc5738e1b64fb01f40b52f3984e9334a38e65a1608b64736f6c634300081b0033","opcodes":"PUSH1 0x80 PUSH1 0x40 MSTORE CALLVALUE PUSH2 0x30 JUMPI PUSH2 0x1A PUSH2 0x14 PUSH2 0x117 JUMP JUMPDEST SWAP2 PUSH2 0x24F JUMP JUMPDEST PUSH2 0x22 PUSH2 0x35 JUMP JUMPDEST PUSH2 0x343A PUSH2 0x28B DUP3 CODECOPY PUSH2 0x343A SWAP1 RETURN JUMPDEST PUSH2 0x3B JUMP JUMPDEST PUSH1 0x40 MLOAD SWAP1 JUMP JUMPDEST PUSH1 0x0 DUP1 REVERT JUMPDEST PUSH1 0x1F DUP1 NOT SWAP2 ADD AND SWAP1 JUMP JUMPDEST PUSH4 0x4E487B71 PUSH1 0xE0 SHL PUSH1 0x0 MSTORE PUSH1 0x41 PUSH1 0x4 MSTORE PUSH1 0x24 PUSH1 0x0 REVERT JUMPDEST SWAP1 PUSH2 0x6A SWAP1 PUSH2 0x40 JUMP JUMPDEST DUP2 ADD SWAP1 DUP2 LT PUSH1 0x1 DUP1 PUSH1 0x40 SHL SUB DUP3 GT OR PUSH2 0x82 JUMPI PUSH1 0x40 MSTORE JUMP JUMPDEST PUSH2 0x4A JUMP JUMPDEST SWAP1 PUSH2 0x9A PUSH2 0x93 PUSH2 0x35 JUMP JUMPDEST SWAP3 DUP4 PUSH2 0x60 JUMP JUMPDEST JUMP JUMPDEST PUSH1 0x0 DUP1 REVERT JUMPDEST PUSH1 0x1 DUP1 PUSH1 0xA0 SHL SUB AND SWAP1 JUMP JUMPDEST PUSH2 0xB5 SWAP1 PUSH2 0xA1 JUMP JUMPDEST SWAP1 JUMP JUMPDEST PUSH2 0xC1 DUP2 PUSH2 0xAC JUMP JUMPDEST SUB PUSH2 0xC8 JUMPI JUMP JUMPDEST PUSH1 0x0 DUP1 REVERT JUMPDEST SWAP1 POP MLOAD SWAP1 PUSH2 0xDA DUP3 PUSH2 0xB8 JUMP JUMPDEST JUMP JUMPDEST SWAP1 SWAP2 PUSH1 0x60 DUP3 DUP5 SUB SLT PUSH2 0x112 JUMPI PUSH2 0x10F PUSH2 0xF8 DUP5 PUSH1 0x0 DUP6 ADD PUSH2 0xCD JUMP JUMPDEST SWAP4 PUSH2 0x106 DUP2 PUSH1 0x20 DUP7 ADD PUSH2 0xCD JUMP JUMPDEST SWAP4 PUSH1 0x40 ADD PUSH2 0xCD JUMP JUMPDEST SWAP1 JUMP JUMPDEST PUSH2 0x9C JUMP JUMPDEST PUSH2 0x135 PUSH2 0x36C5 DUP1 CODESIZE SUB DUP1 PUSH2 0x12A DUP2 PUSH2 0x87 JUMP JUMPDEST SWAP3 DUP4 CODECOPY DUP2 ADD SWAP1 PUSH2 0xDC JUMP JUMPDEST SWAP1 SWAP2 SWAP3 JUMP JUMPDEST SWAP1 JUMP JUMPDEST PUSH2 0x151 PUSH2 0x14C PUSH2 0x156 SWAP3 PUSH2 0xA1 JUMP JUMPDEST PUSH2 0x13A JUMP JUMPDEST PUSH2 0xA1 JUMP JUMPDEST SWAP1 JUMP JUMPDEST PUSH2 0x162 SWAP1 PUSH2 0x13D JUMP JUMPDEST SWAP1 JUMP JUMPDEST PUSH2 0x16E SWAP1 PUSH2 0x159 JUMP JUMPDEST SWAP1 JUMP JUMPDEST PUSH1 0x0 SHL SWAP1 JUMP JUMPDEST SWAP1 PUSH2 0x188 PUSH1 0x1 DUP1 PUSH1 0xA0 SHL SUB SWAP2 PUSH2 0x171 JUMP JUMPDEST SWAP2 DUP2 NOT AND SWAP2 AND OR SWAP1 JUMP JUMPDEST PUSH2 0x19B SWAP1 PUSH2 0x159 JUMP JUMPDEST SWAP1 JUMP JUMPDEST SWAP1 JUMP JUMPDEST SWAP1 PUSH2 0x1B6 PUSH2 0x1B1 PUSH2 0x1BD SWAP3 PUSH2 0x192 JUMP JUMPDEST PUSH2 0x19E JUMP JUMPDEST DUP3 SLOAD PUSH2 0x177 JUMP JUMPDEST SWAP1 SSTORE JUMP JUMPDEST PUSH2 0x1CA SWAP1 PUSH2 0x13D JUMP JUMPDEST SWAP1 JUMP JUMPDEST PUSH2 0x1D6 SWAP1 PUSH2 0x1C1 JUMP JUMPDEST SWAP1 JUMP JUMPDEST PUSH2 0x1E2 SWAP1 PUSH2 0x1C1 JUMP JUMPDEST SWAP1 JUMP JUMPDEST SWAP1 JUMP JUMPDEST SWAP1 PUSH2 0x1FD PUSH2 0x1F8 PUSH2 0x204 SWAP3 PUSH2 0x1D9 JUMP JUMPDEST PUSH2 0x1E5 JUMP JUMPDEST DUP3 SLOAD PUSH2 0x177 JUMP JUMPDEST SWAP1 SSTORE JUMP JUMPDEST PUSH2 0x211 SWAP1 PUSH2 0x13D JUMP JUMPDEST SWAP1 JUMP JUMPDEST PUSH2 0x21D SWAP1 PUSH2 0x208 JUMP JUMPDEST SWAP1 JUMP JUMPDEST PUSH2 0x229 SWAP1 PUSH2 0x208 JUMP JUMPDEST SWAP1 JUMP JUMPDEST SWAP1 JUMP JUMPDEST SWAP1 PUSH2 0x244 PUSH2 0x23F PUSH2 0x24B SWAP3 PUSH2 0x220 JUMP JUMPDEST PUSH2 0x22C JUMP JUMPDEST DUP3 SLOAD PUSH2 0x177 JUMP JUMPDEST SWAP1 SSTORE JUMP JUMPDEST SWAP2 PUSH2 0x27C PUSH2 0x275 PUSH2 0x281 SWAP4 PUSH2 0x270 PUSH2 0x269 PUSH2 0x288 SWAP8 PUSH2 0x165 JUMP JUMPDEST PUSH1 0x0 PUSH2 0x1A1 JUMP JUMPDEST PUSH2 0x1CD JUMP JUMPDEST PUSH1 0x1 PUSH2 0x1E8 JUMP JUMPDEST PUSH2 0x214 JUMP JUMPDEST PUSH1 0x2 PUSH2 0x22F JUMP JUMPDEST JUMP INVALID PUSH1 0x80 PUSH1 0x40 MSTORE PUSH1 0x4 CALLDATASIZE LT ISZERO PUSH2 0x13 JUMPI JUMPDEST PUSH2 0x10F9 JUMP JUMPDEST PUSH2 0x1E PUSH1 0x0 CALLDATALOAD PUSH2 0x10C JUMP JUMPDEST DUP1 PUSH3 0xBCEC27 EQ PUSH2 0x107 JUMPI DUP1 PUSH4 0xBD17B47 EQ PUSH2 0x102 JUMPI DUP1 PUSH4 0x1D58A59B EQ PUSH2 0xFD JUMPI DUP1 PUSH4 0x375FFC73 EQ PUSH2 0xF8 JUMPI DUP1 PUSH4 0x3CFEDB84 EQ PUSH2 0xF3 JUMPI DUP1 PUSH4 0x3E030D06 EQ PUSH2 0xEE JUMPI DUP1 PUSH4 0x431E79C4 EQ PUSH2 0xE9 JUMPI DUP1 PUSH4 0x647A6682 EQ PUSH2 0xE4 JUMPI DUP1 PUSH4 0x64D8300C EQ PUSH2 0xDF JUMPI DUP1 PUSH4 0x7CCF76C0 EQ PUSH2 0xDA JUMPI DUP1 PUSH4 0x97ED8C09 EQ PUSH2 0xD5 JUMPI DUP1 PUSH4 0xAA65A43E EQ PUSH2 0xD0 JUMPI DUP1 PUSH4 0xC9D461C5 EQ PUSH2 0xCB JUMPI DUP1 PUSH4 0xE50CDE76 EQ PUSH2 0xC6 JUMPI PUSH4 0xEB607DB1 SUB PUSH2 0xE JUMPI PUSH2 0x10C4 JUMP JUMPDEST PUSH2 0xFB5 JUMP JUMPDEST PUSH2 0xF4A JUMP JUMPDEST PUSH2 0xEA5 JUMP JUMPDEST PUSH2 0xE36 JUMP JUMPDEST PUSH2 0xE01 JUMP JUMPDEST PUSH2 0xCD3 JUMP JUMPDEST PUSH2 0xBF4 JUMP JUMPDEST PUSH2 0xAC4 JUMP JUMPDEST PUSH2 0x911 JUMP JUMPDEST PUSH2 0x86E JUMP JUMPDEST PUSH2 0x789 JUMP JUMPDEST PUSH2 0x47A JUMP JUMPDEST PUSH2 0x3DA JUMP JUMPDEST PUSH2 0x29E JUMP JUMPDEST PUSH1 0xE0 SHR SWAP1 JUMP JUMPDEST PUSH1 0x40 MLOAD SWAP1 JUMP JUMPDEST PUSH1 0x0 DUP1 REVERT JUMPDEST PUSH1 0x0 DUP1 REVERT JUMPDEST PUSH1 0x0 DUP1 REVERT JUMPDEST PUSH1 0x1 DUP1 PUSH1 0xA0 SHL SUB AND SWAP1 JUMP JUMPDEST PUSH2 0x13B SWAP1 PUSH2 0x127 JUMP JUMPDEST SWAP1 JUMP JUMPDEST PUSH2 0x147 DUP2 PUSH2 0x132 JUMP JUMPDEST SUB PUSH2 0x14E JUMPI JUMP JUMPDEST PUSH1 0x0 DUP1 REVERT JUMPDEST SWAP1 POP CALLDATALOAD SWAP1 PUSH2 0x160 DUP3 PUSH2 0x13E JUMP JUMPDEST JUMP JUMPDEST PUSH1 0x0 DUP1 REVERT JUMPDEST PUSH1 0x0 DUP1 REVERT JUMPDEST PUSH1 0x1F DUP1 NOT SWAP2 ADD AND SWAP1 JUMP JUMPDEST PUSH4 0x4E487B71 PUSH1 0xE0 SHL PUSH1 0x0 MSTORE PUSH1 0x41 PUSH1 0x4 MSTORE PUSH1 0x24 PUSH1 0x0 REVERT JUMPDEST SWAP1 PUSH2 0x196 SWAP1 PUSH2 0x16C JUMP JUMPDEST DUP2 ADD SWAP1 DUP2 LT PUSH8 0xFFFFFFFFFFFFFFFF DUP3 GT OR PUSH2 0x1B0 JUMPI PUSH1 0x40 MSTORE JUMP JUMPDEST PUSH2 0x176 JUMP JUMPDEST SWAP1 PUSH2 0x1C8 PUSH2 0x1C1 PUSH2 0x112 JUMP JUMPDEST SWAP3 DUP4 PUSH2 0x18C JUMP JUMPDEST JUMP JUMPDEST PUSH8 0xFFFFFFFFFFFFFFFF DUP2 GT PUSH2 0x1E8 JUMPI PUSH2 0x1E4 PUSH1 0x20 SWAP2 PUSH2 0x16C JUMP JUMPDEST ADD SWAP1 JUMP JUMPDEST PUSH2 0x176 JUMP JUMPDEST SWAP1 DUP3 PUSH1 0x0 SWAP4 SWAP3 DUP3 CALLDATACOPY ADD MSTORE JUMP JUMPDEST SWAP1 SWAP3 SWAP2 SWAP3 PUSH2 0x20E PUSH2 0x209 DUP3 PUSH2 0x1CA JUMP JUMPDEST PUSH2 0x1B5 JUMP JUMPDEST SWAP4 DUP2 DUP6 MSTORE PUSH1 0x20 DUP6 ADD SWAP1 DUP3 DUP5 ADD GT PUSH2 0x22A JUMPI PUSH2 0x228 SWAP3 PUSH2 0x1ED JUMP JUMPDEST JUMP JUMPDEST PUSH2 0x167 JUMP JUMPDEST SWAP1 DUP1 PUSH1 0x1F DUP4 ADD SLT ISZERO PUSH2 0x24D JUMPI DUP2 PUSH1 0x20 PUSH2 0x24A SWAP4 CALLDATALOAD SWAP2 ADD PUSH2 0x1F9 JUMP JUMPDEST SWAP1 JUMP JUMPDEST PUSH2 0x162 JUMP JUMPDEST SWAP2 SWAP1 SWAP2 PUSH1 0x40 DUP2 DUP5 SUB SLT PUSH2 0x293 JUMPI PUSH2 0x26C DUP4 PUSH1 0x0 DUP4 ADD PUSH2 0x153 JUMP JUMPDEST SWAP3 PUSH1 0x20 DUP3 ADD CALLDATALOAD PUSH8 0xFFFFFFFFFFFFFFFF DUP2 GT PUSH2 0x28E JUMPI PUSH2 0x28B SWAP3 ADD PUSH2 0x22F JUMP JUMPDEST SWAP1 JUMP JUMPDEST PUSH2 0x122 JUMP JUMPDEST PUSH2 0x11D JUMP JUMPDEST PUSH1 0x0 ADD SWAP1 JUMP JUMPDEST CALLVALUE PUSH2 0x2CD JUMPI PUSH2 0x2B7 PUSH2 0x2B1 CALLDATASIZE PUSH1 0x4 PUSH2 0x252 JUMP JUMPDEST SWAP1 PUSH2 0x11B2 JUMP JUMPDEST PUSH2 0x2BF PUSH2 0x112 JUMP JUMPDEST DUP1 PUSH2 0x2C9 DUP2 PUSH2 0x298 JUMP JUMPDEST SUB SWAP1 RETURN JUMPDEST PUSH2 0x118 JUMP JUMPDEST PUSH1 0x2 GT ISZERO PUSH2 0x2DC JUMPI JUMP JUMPDEST PUSH1 0x0 DUP1 REVERT JUMPDEST SWAP1 POP CALLDATALOAD SWAP1 PUSH2 0x2EE DUP3 PUSH2 0x2D2 JUMP JUMPDEST JUMP JUMPDEST SWAP1 PUSH1 0xE0 DUP3 DUP3 SUB SLT PUSH2 0x3D5 JUMPI PUSH2 0x308 DUP2 PUSH1 0x0 DUP5 ADD PUSH2 0x153 JUMP JUMPDEST SWAP3 PUSH2 0x316 DUP3 PUSH1 0x20 DUP6 ADD PUSH2 0x2E1 JUMP JUMPDEST SWAP3 PUSH1 0x40 DUP2 ADD CALLDATALOAD PUSH8 0xFFFFFFFFFFFFFFFF DUP2 GT PUSH2 0x3D0 JUMPI DUP4 PUSH2 0x337 SWAP2 DUP4 ADD PUSH2 0x22F JUMP JUMPDEST SWAP3 PUSH1 0x60 DUP3 ADD CALLDATALOAD PUSH8 0xFFFFFFFFFFFFFFFF DUP2 GT PUSH2 0x3CB JUMPI DUP2 PUSH2 0x358 SWAP2 DUP5 ADD PUSH2 0x22F JUMP JUMPDEST SWAP3 PUSH1 0x80 DUP4 ADD CALLDATALOAD PUSH8 0xFFFFFFFFFFFFFFFF DUP2 GT PUSH2 0x3C6 JUMPI DUP3 PUSH2 0x379 SWAP2 DUP6 ADD PUSH2 0x22F JUMP JUMPDEST SWAP3 PUSH1 0xA0 DUP2 ADD CALLDATALOAD PUSH8 0xFFFFFFFFFFFFFFFF DUP2 GT PUSH2 0x3C1 JUMPI DUP4 PUSH2 0x39A SWAP2 DUP4 ADD PUSH2 0x22F JUMP JUMPDEST SWAP3 PUSH1 0xC0 DUP3 ADD CALLDATALOAD PUSH8 0xFFFFFFFFFFFFFFFF DUP2 GT PUSH2 0x3BC JUMPI PUSH2 0x3B9 SWAP3 ADD PUSH2 0x22F JUMP JUMPDEST SWAP1 JUMP JUMPDEST PUSH2 0x122 JUMP JUMPDEST PUSH2 0x122 JUMP JUMPDEST PUSH2 0x122 JUMP JUMPDEST PUSH2 0x122 JUMP JUMPDEST PUSH2 0x122 JUMP JUMPDEST PUSH2 0x11D JUMP JUMPDEST CALLVALUE PUSH2 0x40F JUMPI PUSH2 0x3F9 PUSH2 0x3ED CALLDATASIZE PUSH1 0x4 PUSH2 0x2F0 JUMP JUMPDEST SWAP6 SWAP5 SWAP1 SWAP5 SWAP4 SWAP2 SWAP4 PUSH2 0x12F1 JUMP JUMPDEST PUSH2 0x401 PUSH2 0x112 JUMP JUMPDEST DUP1 PUSH2 0x40B DUP2 PUSH2 0x298 JUMP JUMPDEST SUB SWAP1 RETURN JUMPDEST PUSH2 0x118 JUMP JUMPDEST PUSH2 0xFFFF AND SWAP1 JUMP JUMPDEST PUSH2 0x424 DUP2 PUSH2 0x414 JUMP JUMPDEST SUB PUSH2 0x42B JUMPI JUMP JUMPDEST PUSH1 0x0 DUP1 REVERT JUMPDEST SWAP1 POP CALLDATALOAD SWAP1 PUSH2 0x43D DUP3 PUSH2 0x41B JUMP JUMPDEST JUMP JUMPDEST SWAP1 SWAP2 PUSH1 0x60 DUP3 DUP5 SUB SLT PUSH2 0x475 JUMPI PUSH2 0x472 PUSH2 0x45B DUP5 PUSH1 0x0 DUP6 ADD PUSH2 0x153 JUMP JUMPDEST SWAP4 PUSH2 0x469 DUP2 PUSH1 0x20 DUP7 ADD PUSH2 0x430 JUMP JUMPDEST SWAP4 PUSH1 0x40 ADD PUSH2 0x430 JUMP JUMPDEST SWAP1 JUMP JUMPDEST PUSH2 0x11D JUMP JUMPDEST CALLVALUE PUSH2 0x4A9 JUMPI PUSH2 0x493 PUSH2 0x48D CALLDATASIZE PUSH1 0x4 PUSH2 0x43F JUMP JUMPDEST SWAP2 PUSH2 0x13F3 JUMP JUMPDEST PUSH2 0x49B PUSH2 0x112 JUMP JUMPDEST DUP1 PUSH2 0x4A5 DUP2 PUSH2 0x298 JUMP JUMPDEST SUB SWAP1 RETURN JUMPDEST PUSH2 0x118 JUMP JUMPDEST SWAP1 JUMP JUMPDEST PUSH2 0x4BA DUP2 PUSH2 0x4AE JUMP JUMPDEST SUB PUSH2 0x4C1 JUMPI JUMP JUMPDEST PUSH1 0x0 DUP1 REVERT JUMPDEST SWAP1 POP CALLDATALOAD SWAP1 PUSH2 0x4D3 DUP3 PUSH2 0x4B1 JUMP JUMPDEST JUMP JUMPDEST SWAP2 SWAP1 PUSH1 0x40 DUP4 DUP3 SUB SLT PUSH2 0x4FE JUMPI DUP1 PUSH2 0x4F2 PUSH2 0x4FB SWAP3 PUSH1 0x0 DUP7 ADD PUSH2 0x153 JUMP JUMPDEST SWAP4 PUSH1 0x20 ADD PUSH2 0x4C6 JUMP JUMPDEST SWAP1 JUMP JUMPDEST PUSH2 0x11D JUMP JUMPDEST MLOAD SWAP1 JUMP JUMPDEST PUSH1 0x20 SWAP2 DUP2 MSTORE ADD SWAP1 JUMP JUMPDEST PUSH1 0x20 ADD SWAP1 JUMP JUMPDEST PUSH1 0xFF AND SWAP1 JUMP JUMPDEST PUSH2 0x525 SWAP1 PUSH2 0x516 JUMP JUMPDEST SWAP1 MSTORE JUMP JUMPDEST MLOAD SWAP1 JUMP JUMPDEST PUSH1 0x20 SWAP2 DUP2 MSTORE ADD SWAP1 JUMP JUMPDEST PUSH1 0x0 JUMPDEST DUP4 DUP2 LT PUSH2 0x54A JUMPI POP POP SWAP1 PUSH1 0x0 SWAP2 ADD MSTORE JUMP JUMPDEST DUP1 PUSH1 0x20 SWAP2 DUP4 ADD MLOAD DUP2 DUP6 ADD MSTORE ADD PUSH2 0x539 JUMP JUMPDEST PUSH2 0x57A PUSH2 0x583 PUSH1 0x20 SWAP4 PUSH2 0x588 SWAP4 PUSH2 0x571 DUP2 PUSH2 0x529 JUMP JUMPDEST SWAP4 DUP5 DUP1 SWAP4 PUSH2 0x52D JUMP JUMPDEST SWAP6 DUP7 SWAP2 ADD PUSH2 0x536 JUMP JUMPDEST PUSH2 0x16C JUMP JUMPDEST ADD SWAP1 JUMP JUMPDEST PUSH2 0x595 SWAP1 PUSH2 0x414 JUMP JUMPDEST SWAP1 MSTORE JUMP JUMPDEST PUSH2 0x5A2 SWAP1 PUSH2 0x4AE JUMP JUMPDEST SWAP1 MSTORE JUMP JUMPDEST PUSH4 0x4E487B71 PUSH1 0xE0 SHL PUSH1 0x0 MSTORE PUSH1 0x21 PUSH1 0x4 MSTORE PUSH1 0x24 PUSH1 0x0 REVERT JUMPDEST PUSH1 0x2 GT ISZERO PUSH2 0x5C6 JUMPI JUMP JUMPDEST PUSH2 0x5A6 JUMP JUMPDEST SWAP1 PUSH2 0x5D5 DUP3 PUSH2 0x5BC JUMP JUMPDEST JUMP JUMPDEST PUSH2 0x5E0 SWAP1 PUSH2 0x5CB JUMP JUMPDEST SWAP1 JUMP JUMPDEST PUSH2 0x5EC SWAP1 PUSH2 0x5D7 JUMP JUMPDEST SWAP1 MSTORE JUMP JUMPDEST SWAP1 PUSH2 0x6B3 SWAP1 PUSH2 0x120 DUP1 PUSH2 0x63A PUSH2 0x628 PUSH2 0x140 DUP6 ADD PUSH2 0x616 PUSH1 0x0 DUP10 ADD MLOAD PUSH1 0x0 DUP9 ADD SWAP1 PUSH2 0x51C JUMP JUMPDEST PUSH1 0x20 DUP9 ADD MLOAD DUP7 DUP3 SUB PUSH1 0x20 DUP9 ADD MSTORE PUSH2 0x55B JUMP JUMPDEST PUSH1 0x40 DUP8 ADD MLOAD DUP6 DUP3 SUB PUSH1 0x40 DUP8 ADD MSTORE PUSH2 0x55B JUMP JUMPDEST SWAP5 PUSH2 0x64D PUSH1 0x60 DUP3 ADD MLOAD PUSH1 0x60 DUP7 ADD SWAP1 PUSH2 0x51C JUMP JUMPDEST PUSH2 0x65F PUSH1 0x80 DUP3 ADD MLOAD PUSH1 0x80 DUP7 ADD SWAP1 PUSH2 0x58C JUMP JUMPDEST PUSH2 0x671 PUSH1 0xA0 DUP3 ADD MLOAD PUSH1 0xA0 DUP7 ADD SWAP1 PUSH2 0x58C JUMP JUMPDEST PUSH2 0x683 PUSH1 0xC0 DUP3 ADD MLOAD PUSH1 0xC0 DUP7 ADD SWAP1 PUSH2 0x599 JUMP JUMPDEST PUSH2 0x695 PUSH1 0xE0 DUP3 ADD MLOAD PUSH1 0xE0 DUP7 ADD SWAP1 PUSH2 0x599 JUMP JUMPDEST PUSH2 0x6A9 PUSH2 0x100 DUP3 ADD MLOAD PUSH2 0x100 DUP7 ADD SWAP1 PUSH2 0x5E3 JUMP JUMPDEST ADD MLOAD SWAP2 ADD SWAP1 PUSH2 0x599 JUMP JUMPDEST SWAP1 JUMP JUMPDEST SWAP1 JUMP JUMPDEST PUSH2 0x6C2 SWAP1 PUSH2 0x6B6 JUMP JUMPDEST SWAP1 MSTORE JUMP JUMPDEST SWAP1 PUSH2 0x6F2 SWAP1 PUSH1 0x20 DUP1 PUSH2 0x6E7 PUSH1 0x40 DUP5 ADD PUSH1 0x0 DUP8 ADD MLOAD DUP6 DUP3 SUB PUSH1 0x0 DUP8 ADD MSTORE PUSH2 0x5F0 JUMP JUMPDEST SWAP5 ADD MLOAD SWAP2 ADD SWAP1 PUSH2 0x6B9 JUMP JUMPDEST SWAP1 JUMP JUMPDEST SWAP1 PUSH2 0x6FF SWAP2 PUSH2 0x6C6 JUMP JUMPDEST SWAP1 JUMP JUMPDEST PUSH1 0x20 ADD SWAP1 JUMP JUMPDEST SWAP1 PUSH2 0x71C PUSH2 0x715 DUP4 PUSH2 0x503 JUMP JUMPDEST DUP1 SWAP3 PUSH2 0x507 JUMP JUMPDEST SWAP1 DUP2 PUSH2 0x72D PUSH1 0x20 DUP4 MUL DUP5 ADD SWAP5 PUSH2 0x510 JUMP JUMPDEST SWAP3 PUSH1 0x0 SWAP2 JUMPDEST DUP4 DUP4 LT PUSH2 0x741 JUMPI POP POP POP POP POP SWAP1 JUMP JUMPDEST SWAP1 SWAP2 SWAP3 SWAP4 SWAP5 PUSH1 0x20 PUSH2 0x763 PUSH2 0x75D DUP4 DUP6 PUSH1 0x1 SWAP6 SUB DUP8 MSTORE DUP10 MLOAD PUSH2 0x6F5 JUMP JUMPDEST SWAP8 PUSH2 0x702 JUMP JUMPDEST SWAP4 ADD SWAP4 ADD SWAP2 SWAP4 SWAP3 SWAP1 PUSH2 0x732 JUMP JUMPDEST PUSH2 0x786 SWAP2 PUSH1 0x20 DUP3 ADD SWAP2 PUSH1 0x0 DUP2 DUP5 SUB SWAP2 ADD MSTORE PUSH2 0x708 JUMP JUMPDEST SWAP1 JUMP JUMPDEST CALLVALUE PUSH2 0x7BA JUMPI PUSH2 0x7B6 PUSH2 0x7A5 PUSH2 0x79F CALLDATASIZE PUSH1 0x4 PUSH2 0x4D5 JUMP JUMPDEST SWAP1 PUSH2 0x1812 JUMP JUMPDEST PUSH2 0x7AD PUSH2 0x112 JUMP JUMPDEST SWAP2 DUP3 SWAP2 DUP3 PUSH2 0x770 JUMP JUMPDEST SUB SWAP1 RETURN JUMPDEST PUSH2 0x118 JUMP JUMPDEST PUSH1 0x0 SWAP2 SUB SLT PUSH2 0x7CA JUMPI JUMP JUMPDEST PUSH2 0x11D JUMP JUMPDEST SHR SWAP1 JUMP JUMPDEST PUSH1 0x1 DUP1 PUSH1 0xA0 SHL SUB AND SWAP1 JUMP JUMPDEST PUSH2 0x7EE SWAP1 PUSH1 0x8 PUSH2 0x7F3 SWAP4 MUL PUSH2 0x7CF JUMP JUMPDEST PUSH2 0x7D3 JUMP JUMPDEST SWAP1 JUMP JUMPDEST SWAP1 PUSH2 0x801 SWAP2 SLOAD PUSH2 0x7DE JUMP JUMPDEST SWAP1 JUMP JUMPDEST PUSH2 0x811 PUSH1 0x2 PUSH1 0x0 SWAP1 PUSH2 0x7F6 JUMP JUMPDEST SWAP1 JUMP JUMPDEST SWAP1 JUMP JUMPDEST PUSH2 0x82B PUSH2 0x826 PUSH2 0x830 SWAP3 PUSH2 0x127 JUMP JUMPDEST PUSH2 0x814 JUMP JUMPDEST PUSH2 0x127 JUMP JUMPDEST SWAP1 JUMP JUMPDEST PUSH2 0x83C SWAP1 PUSH2 0x817 JUMP JUMPDEST SWAP1 JUMP JUMPDEST PUSH2 0x848 SWAP1 PUSH2 0x833 JUMP JUMPDEST SWAP1 JUMP JUMPDEST PUSH2 0x854 SWAP1 PUSH2 0x83F JUMP JUMPDEST SWAP1 MSTORE JUMP JUMPDEST SWAP2 SWAP1 PUSH2 0x86C SWAP1 PUSH1 0x0 PUSH1 0x20 DUP6 ADD SWAP5 ADD SWAP1 PUSH2 0x84B JUMP JUMPDEST JUMP JUMPDEST CALLVALUE PUSH2 0x89E JUMPI PUSH2 0x87E CALLDATASIZE PUSH1 0x4 PUSH2 0x7BF JUMP JUMPDEST PUSH2 0x89A PUSH2 0x889 PUSH2 0x804 JUMP JUMPDEST PUSH2 0x891 PUSH2 0x112 JUMP JUMPDEST SWAP2 DUP3 SWAP2 DUP3 PUSH2 0x858 JUMP JUMPDEST SUB SWAP1 RETURN JUMPDEST PUSH2 0x118 JUMP JUMPDEST PUSH1 0x1 DUP1 PUSH1 0xA0 SHL SUB AND SWAP1 JUMP JUMPDEST PUSH2 0x8BE SWAP1 PUSH1 0x8 PUSH2 0x8C3 SWAP4 MUL PUSH2 0x7CF JUMP JUMPDEST PUSH2 0x8A3 JUMP JUMPDEST SWAP1 JUMP JUMPDEST SWAP1 PUSH2 0x8D1 SWAP2 SLOAD PUSH2 0x8AE JUMP JUMPDEST SWAP1 JUMP JUMPDEST PUSH2 0x8DF PUSH1 0x0 DUP1 PUSH2 0x8C6 JUMP JUMPDEST SWAP1 JUMP JUMPDEST PUSH2 0x8EB SWAP1 PUSH2 0x833 JUMP JUMPDEST SWAP1 JUMP JUMPDEST PUSH2 0x8F7 SWAP1 PUSH2 0x8E2 JUMP JUMPDEST SWAP1 MSTORE JUMP JUMPDEST SWAP2 SWAP1 PUSH2 0x90F SWAP1 PUSH1 0x0 PUSH1 0x20 DUP6 ADD SWAP5 ADD SWAP1 PUSH2 0x8EE JUMP JUMPDEST JUMP JUMPDEST CALLVALUE PUSH2 0x941 JUMPI PUSH2 0x921 CALLDATASIZE PUSH1 0x4 PUSH2 0x7BF JUMP JUMPDEST PUSH2 0x93D PUSH2 0x92C PUSH2 0x8D4 JUMP JUMPDEST PUSH2 0x934 PUSH2 0x112 JUMP JUMPDEST SWAP2 DUP3 SWAP2 DUP3 PUSH2 0x8FB JUMP JUMPDEST SUB SWAP1 RETURN JUMPDEST PUSH2 0x118 JUMP JUMPDEST SWAP1 PUSH1 0x20 DUP3 DUP3 SUB SLT PUSH2 0x960 JUMPI PUSH2 0x95D SWAP2 PUSH1 0x0 ADD PUSH2 0x153 JUMP JUMPDEST SWAP1 JUMP JUMPDEST PUSH2 0x11D JUMP JUMPDEST MLOAD SWAP1 JUMP JUMPDEST PUSH1 0x20 SWAP2 DUP2 MSTORE ADD SWAP1 JUMP JUMPDEST PUSH1 0x20 ADD SWAP1 JUMP JUMPDEST PUSH1 0x2 GT ISZERO PUSH2 0x982 JUMPI JUMP JUMPDEST PUSH2 0x5A6 JUMP JUMPDEST SWAP1 PUSH2 0x991 DUP3 PUSH2 0x978 JUMP JUMPDEST JUMP JUMPDEST PUSH2 0x99C SWAP1 PUSH2 0x987 JUMP JUMPDEST SWAP1 JUMP JUMPDEST PUSH2 0x9A8 SWAP1 PUSH2 0x993 JUMP JUMPDEST SWAP1 MSTORE JUMP JUMPDEST PUSH2 0xA2D SWAP2 PUSH1 0xA0 PUSH2 0xA1C PUSH2 0xA0A PUSH2 0x9F8 PUSH2 0x9E6 PUSH1 0xC0 DUP7 ADD PUSH2 0x9D4 PUSH1 0x0 DUP10 ADD MLOAD PUSH1 0x0 DUP10 ADD SWAP1 PUSH2 0x99F JUMP JUMPDEST PUSH1 0x20 DUP9 ADD MLOAD DUP8 DUP3 SUB PUSH1 0x20 DUP10 ADD MSTORE PUSH2 0x55B JUMP JUMPDEST PUSH1 0x40 DUP8 ADD MLOAD DUP7 DUP3 SUB PUSH1 0x40 DUP9 ADD MSTORE PUSH2 0x55B JUMP JUMPDEST PUSH1 0x60 DUP7 ADD MLOAD DUP6 DUP3 SUB PUSH1 0x60 DUP8 ADD MSTORE PUSH2 0x55B JUMP JUMPDEST PUSH1 0x80 DUP6 ADD MLOAD DUP5 DUP3 SUB PUSH1 0x80 DUP7 ADD MSTORE PUSH2 0x55B JUMP JUMPDEST SWAP3 ADD MLOAD SWAP1 PUSH1 0xA0 DUP2 DUP5 SUB SWAP2 ADD MSTORE PUSH2 0x55B JUMP JUMPDEST SWAP1 JUMP JUMPDEST SWAP1 PUSH2 0xA3A SWAP2 PUSH2 0x9AC JUMP JUMPDEST SWAP1 JUMP JUMPDEST PUSH1 0x20 ADD SWAP1 JUMP JUMPDEST SWAP1 PUSH2 0xA57 PUSH2 0xA50 DUP4 PUSH2 0x965 JUMP JUMPDEST DUP1 SWAP3 PUSH2 0x969 JUMP JUMPDEST SWAP1 DUP2 PUSH2 0xA68 PUSH1 0x20 DUP4 MUL DUP5 ADD SWAP5 PUSH2 0x972 JUMP JUMPDEST SWAP3 PUSH1 0x0 SWAP2 JUMPDEST DUP4 DUP4 LT PUSH2 0xA7C JUMPI POP POP POP POP POP SWAP1 JUMP JUMPDEST SWAP1 SWAP2 SWAP3 SWAP4 SWAP5 PUSH1 0x20 PUSH2 0xA9E PUSH2 0xA98 DUP4 DUP6 PUSH1 0x1 SWAP6 SUB DUP8 MSTORE DUP10 MLOAD PUSH2 0xA30 JUMP JUMPDEST SWAP8 PUSH2 0xA3D JUMP JUMPDEST SWAP4 ADD SWAP4 ADD SWAP2 SWAP4 SWAP3 SWAP1 PUSH2 0xA6D JUMP JUMPDEST PUSH2 0xAC1 SWAP2 PUSH1 0x20 DUP3 ADD SWAP2 PUSH1 0x0 DUP2 DUP5 SUB SWAP2 ADD MSTORE PUSH2 0xA43 JUMP JUMPDEST SWAP1 JUMP JUMPDEST CALLVALUE PUSH2 0xAF4 JUMPI PUSH2 0xAF0 PUSH2 0xADF PUSH2 0xADA CALLDATASIZE PUSH1 0x4 PUSH2 0x946 JUMP JUMPDEST PUSH2 0x1A98 JUMP JUMPDEST PUSH2 0xAE7 PUSH2 0x112 JUMP JUMPDEST SWAP2 DUP3 SWAP2 DUP3 PUSH2 0xAAB JUMP JUMPDEST SUB SWAP1 RETURN JUMPDEST PUSH2 0x118 JUMP JUMPDEST PUSH8 0xFFFFFFFFFFFFFFFF DUP2 GT PUSH2 0xB11 JUMPI PUSH1 0x20 DUP1 SWAP2 MUL ADD SWAP1 JUMP JUMPDEST PUSH2 0x176 JUMP JUMPDEST PUSH1 0x0 DUP1 REVERT JUMPDEST SWAP3 SWAP2 SWAP1 PUSH2 0xB2F PUSH2 0xB2A DUP3 PUSH2 0xAF9 JUMP JUMPDEST PUSH2 0x1B5 JUMP JUMPDEST SWAP4 DUP2 DUP6 MSTORE PUSH1 0x20 DUP1 DUP7 ADD SWAP3 MUL DUP2 ADD SWAP2 DUP4 DUP4 GT PUSH2 0xB86 JUMPI DUP2 SWAP1 JUMPDEST DUP4 DUP3 LT PUSH2 0xB55 JUMPI POP POP POP POP POP JUMP JUMPDEST DUP2 CALLDATALOAD PUSH8 0xFFFFFFFFFFFFFFFF DUP2 GT PUSH2 0xB81 JUMPI PUSH1 0x20 SWAP2 PUSH2 0xB76 DUP8 DUP5 SWAP4 DUP8 ADD PUSH2 0x22F JUMP JUMPDEST DUP2 MSTORE ADD SWAP2 ADD SWAP1 PUSH2 0xB47 JUMP JUMPDEST PUSH2 0x162 JUMP JUMPDEST PUSH2 0xB16 JUMP JUMPDEST SWAP1 DUP1 PUSH1 0x1F DUP4 ADD SLT ISZERO PUSH2 0xBA9 JUMPI DUP2 PUSH1 0x20 PUSH2 0xBA6 SWAP4 CALLDATALOAD SWAP2 ADD PUSH2 0xB1B JUMP JUMPDEST SWAP1 JUMP JUMPDEST PUSH2 0x162 JUMP JUMPDEST SWAP2 SWAP1 SWAP2 PUSH1 0x40 DUP2 DUP5 SUB SLT PUSH2 0xBEF JUMPI PUSH2 0xBC8 DUP4 PUSH1 0x0 DUP4 ADD PUSH2 0x153 JUMP JUMPDEST SWAP3 PUSH1 0x20 DUP3 ADD CALLDATALOAD PUSH8 0xFFFFFFFFFFFFFFFF DUP2 GT PUSH2 0xBEA JUMPI PUSH2 0xBE7 SWAP3 ADD PUSH2 0xB8B JUMP JUMPDEST SWAP1 JUMP JUMPDEST PUSH2 0x122 JUMP JUMPDEST PUSH2 0x11D JUMP JUMPDEST CALLVALUE PUSH2 0xC23 JUMPI PUSH2 0xC0D PUSH2 0xC07 CALLDATASIZE PUSH1 0x4 PUSH2 0xBAE JUMP JUMPDEST SWAP1 PUSH2 0x1BD4 JUMP JUMPDEST PUSH2 0xC15 PUSH2 0x112 JUMP JUMPDEST DUP1 PUSH2 0xC1F DUP2 PUSH2 0x298 JUMP JUMPDEST SUB SWAP1 RETURN JUMPDEST PUSH2 0x118 JUMP JUMPDEST SWAP2 SWAP1 SWAP2 PUSH1 0xA0 DUP2 DUP5 SUB SLT PUSH2 0xCAB JUMPI PUSH1 0x0 DUP2 ADD CALLDATALOAD PUSH8 0xFFFFFFFFFFFFFFFF DUP2 GT PUSH2 0xCA6 JUMPI DUP4 PUSH2 0xC55 SWAP2 DUP4 ADD PUSH2 0x22F JUMP JUMPDEST SWAP3 PUSH2 0xC63 DUP2 PUSH1 0x20 DUP5 ADD PUSH2 0x4C6 JUMP JUMPDEST SWAP3 PUSH2 0xC71 DUP3 PUSH1 0x40 DUP6 ADD PUSH2 0x430 JUMP JUMPDEST SWAP3 PUSH2 0xC7F DUP4 PUSH1 0x60 DUP4 ADD PUSH2 0x430 JUMP JUMPDEST SWAP3 PUSH1 0x80 DUP3 ADD CALLDATALOAD PUSH8 0xFFFFFFFFFFFFFFFF DUP2 GT PUSH2 0xCA1 JUMPI PUSH2 0xC9E SWAP3 ADD PUSH2 0xB8B JUMP JUMPDEST SWAP1 JUMP JUMPDEST PUSH2 0x122 JUMP JUMPDEST PUSH2 0x122 JUMP JUMPDEST PUSH2 0x11D JUMP JUMPDEST PUSH2 0xCB9 SWAP1 PUSH2 0x132 JUMP JUMPDEST SWAP1 MSTORE JUMP JUMPDEST SWAP2 SWAP1 PUSH2 0xCD1 SWAP1 PUSH1 0x0 PUSH1 0x20 DUP6 ADD SWAP5 ADD SWAP1 PUSH2 0xCB0 JUMP JUMPDEST JUMP JUMPDEST CALLVALUE PUSH2 0xD07 JUMPI PUSH2 0xD03 PUSH2 0xCF2 PUSH2 0xCE9 CALLDATASIZE PUSH1 0x4 PUSH2 0xC28 JUMP JUMPDEST SWAP4 SWAP3 SWAP1 SWAP3 PUSH2 0x225C JUMP JUMPDEST PUSH2 0xCFA PUSH2 0x112 JUMP JUMPDEST SWAP2 DUP3 SWAP2 DUP3 PUSH2 0xCBD JUMP JUMPDEST SUB SWAP1 RETURN JUMPDEST PUSH2 0x118 JUMP JUMPDEST MLOAD SWAP1 JUMP JUMPDEST PUSH1 0x20 SWAP2 DUP2 MSTORE ADD SWAP1 JUMP JUMPDEST PUSH1 0x20 ADD SWAP1 JUMP JUMPDEST PUSH2 0xD28 SWAP1 PUSH2 0x132 JUMP JUMPDEST SWAP1 MSTORE JUMP JUMPDEST SWAP1 PUSH2 0xD6A SWAP1 PUSH1 0x40 DUP1 PUSH2 0xD5F PUSH1 0x60 DUP5 ADD PUSH2 0xD4D PUSH1 0x0 DUP9 ADD MLOAD PUSH1 0x0 DUP8 ADD SWAP1 PUSH2 0xD1F JUMP JUMPDEST PUSH1 0x20 DUP8 ADD MLOAD DUP6 DUP3 SUB PUSH1 0x20 DUP8 ADD MSTORE PUSH2 0x55B JUMP JUMPDEST SWAP5 ADD MLOAD SWAP2 ADD SWAP1 PUSH2 0x599 JUMP JUMPDEST SWAP1 JUMP JUMPDEST SWAP1 PUSH2 0xD77 SWAP2 PUSH2 0xD2C JUMP JUMPDEST SWAP1 JUMP JUMPDEST PUSH1 0x20 ADD SWAP1 JUMP JUMPDEST SWAP1 PUSH2 0xD94 PUSH2 0xD8D DUP4 PUSH2 0xD0C JUMP JUMPDEST DUP1 SWAP3 PUSH2 0xD10 JUMP JUMPDEST SWAP1 DUP2 PUSH2 0xDA5 PUSH1 0x20 DUP4 MUL DUP5 ADD SWAP5 PUSH2 0xD19 JUMP JUMPDEST SWAP3 PUSH1 0x0 SWAP2 JUMPDEST DUP4 DUP4 LT PUSH2 0xDB9 JUMPI POP POP POP POP POP SWAP1 JUMP JUMPDEST SWAP1 SWAP2 SWAP3 SWAP4 SWAP5 PUSH1 0x20 PUSH2 0xDDB PUSH2 0xDD5 DUP4 DUP6 PUSH1 0x1 SWAP6 SUB DUP8 MSTORE DUP10 MLOAD PUSH2 0xD6D JUMP JUMPDEST SWAP8 PUSH2 0xD7A JUMP JUMPDEST SWAP4 ADD SWAP4 ADD SWAP2 SWAP4 SWAP3 SWAP1 PUSH2 0xDAA JUMP JUMPDEST PUSH2 0xDFE SWAP2 PUSH1 0x20 DUP3 ADD SWAP2 PUSH1 0x0 DUP2 DUP5 SUB SWAP2 ADD MSTORE PUSH2 0xD80 JUMP JUMPDEST SWAP1 JUMP JUMPDEST CALLVALUE PUSH2 0xE31 JUMPI PUSH2 0xE11 CALLDATASIZE PUSH1 0x4 PUSH2 0x7BF JUMP JUMPDEST PUSH2 0xE2D PUSH2 0xE1C PUSH2 0x27AF JUMP JUMPDEST PUSH2 0xE24 PUSH2 0x112 JUMP JUMPDEST SWAP2 DUP3 SWAP2 DUP3 PUSH2 0xDE8 JUMP JUMPDEST SUB SWAP1 RETURN JUMPDEST PUSH2 0x118 JUMP JUMPDEST CALLVALUE PUSH2 0xE64 JUMPI PUSH2 0xE4E PUSH2 0xE49 CALLDATASIZE PUSH1 0x4 PUSH2 0x946 JUMP JUMPDEST PUSH2 0x2B29 JUMP JUMPDEST PUSH2 0xE56 PUSH2 0x112 JUMP JUMPDEST DUP1 PUSH2 0xE60 DUP2 PUSH2 0x298 JUMP JUMPDEST SUB SWAP1 RETURN JUMPDEST PUSH2 0x118 JUMP JUMPDEST SWAP1 PUSH1 0x20 DUP1 PUSH2 0xE8D SWAP4 PUSH2 0xE83 PUSH1 0x0 DUP3 ADD MLOAD PUSH1 0x0 DUP7 ADD SWAP1 PUSH2 0x58C JUMP JUMPDEST ADD MLOAD SWAP2 ADD SWAP1 PUSH2 0x58C JUMP JUMPDEST JUMP JUMPDEST SWAP2 SWAP1 PUSH2 0xEA3 SWAP1 PUSH1 0x0 PUSH1 0x40 DUP6 ADD SWAP5 ADD SWAP1 PUSH2 0xE69 JUMP JUMPDEST JUMP JUMPDEST CALLVALUE PUSH2 0xED5 JUMPI PUSH2 0xED1 PUSH2 0xEC0 PUSH2 0xEBB CALLDATASIZE PUSH1 0x4 PUSH2 0x946 JUMP JUMPDEST PUSH2 0x2D4E JUMP JUMPDEST PUSH2 0xEC8 PUSH2 0x112 JUMP JUMPDEST SWAP2 DUP3 SWAP2 DUP3 PUSH2 0xE8F JUMP JUMPDEST SUB SWAP1 RETURN JUMPDEST PUSH2 0x118 JUMP JUMPDEST PUSH1 0x1 DUP1 PUSH1 0xA0 SHL SUB AND SWAP1 JUMP JUMPDEST PUSH2 0xEF5 SWAP1 PUSH1 0x8 PUSH2 0xEFA SWAP4 MUL PUSH2 0x7CF JUMP JUMPDEST PUSH2 0xEDA JUMP JUMPDEST SWAP1 JUMP JUMPDEST SWAP1 PUSH2 0xF08 SWAP2 SLOAD PUSH2 0xEE5 JUMP JUMPDEST SWAP1 JUMP JUMPDEST PUSH2 0xF18 PUSH1 0x1 PUSH1 0x0 SWAP1 PUSH2 0xEFD JUMP JUMPDEST SWAP1 JUMP JUMPDEST PUSH2 0xF24 SWAP1 PUSH2 0x833 JUMP JUMPDEST SWAP1 JUMP JUMPDEST PUSH2 0xF30 SWAP1 PUSH2 0xF1B JUMP JUMPDEST SWAP1 MSTORE JUMP JUMPDEST SWAP2 SWAP1 PUSH2 0xF48 SWAP1 PUSH1 0x0 PUSH1 0x20 DUP6 ADD SWAP5 ADD SWAP1 PUSH2 0xF27 JUMP JUMPDEST JUMP JUMPDEST CALLVALUE PUSH2 0xF7A JUMPI PUSH2 0xF5A CALLDATASIZE PUSH1 0x4 PUSH2 0x7BF JUMP JUMPDEST PUSH2 0xF76 PUSH2 0xF65 PUSH2 0xF0B JUMP JUMPDEST PUSH2 0xF6D PUSH2 0x112 JUMP JUMPDEST SWAP2 DUP3 SWAP2 DUP3 PUSH2 0xF34 JUMP JUMPDEST SUB SWAP1 RETURN JUMPDEST PUSH2 0x118 JUMP JUMPDEST SWAP1 PUSH1 0x20 DUP3 DUP3 SUB SLT PUSH2 0xFB0 JUMPI PUSH1 0x0 DUP3 ADD CALLDATALOAD PUSH8 0xFFFFFFFFFFFFFFFF DUP2 GT PUSH2 0xFAB JUMPI PUSH2 0xFA8 SWAP3 ADD PUSH2 0x22F JUMP JUMPDEST SWAP1 JUMP JUMPDEST PUSH2 0x122 JUMP JUMPDEST PUSH2 0x11D JUMP JUMPDEST CALLVALUE PUSH2 0xFE5 JUMPI PUSH2 0xFE1 PUSH2 0xFD0 PUSH2 0xFCB CALLDATASIZE PUSH1 0x4 PUSH2 0xF7F JUMP JUMPDEST PUSH2 0x2F89 JUMP JUMPDEST PUSH2 0xFD8 PUSH2 0x112 JUMP JUMPDEST SWAP2 DUP3 SWAP2 DUP3 PUSH2 0xCBD JUMP JUMPDEST SUB SWAP1 RETURN JUMPDEST PUSH2 0x118 JUMP JUMPDEST MLOAD SWAP1 JUMP JUMPDEST PUSH1 0x20 SWAP2 DUP2 MSTORE ADD SWAP1 JUMP JUMPDEST PUSH1 0x20 ADD SWAP1 JUMP JUMPDEST SWAP1 PUSH2 0x1007 SWAP2 PUSH2 0x5F0 JUMP JUMPDEST SWAP1 JUMP JUMPDEST PUSH1 0x20 ADD SWAP1 JUMP JUMPDEST SWAP1 PUSH2 0x1024 PUSH2 0x101D DUP4 PUSH2 0xFEA JUMP JUMPDEST DUP1 SWAP3 PUSH2 0xFEE JUMP JUMPDEST SWAP1 DUP2 PUSH2 0x1035 PUSH1 0x20 DUP4 MUL DUP5 ADD SWAP5 PUSH2 0xFF7 JUMP JUMPDEST SWAP3 PUSH1 0x0 SWAP2 JUMPDEST DUP4 DUP4 LT PUSH2 0x1049 JUMPI POP POP POP POP POP SWAP1 JUMP JUMPDEST SWAP1 SWAP2 SWAP3 SWAP4 SWAP5 PUSH1 0x20 PUSH2 0x106B PUSH2 0x1065 DUP4 DUP6 PUSH1 0x1 SWAP6 SUB DUP8 MSTORE DUP10 MLOAD PUSH2 0xFFD JUMP JUMPDEST SWAP8 PUSH2 0x100A JUMP JUMPDEST SWAP4 ADD SWAP4 ADD SWAP2 SWAP4 SWAP3 SWAP1 PUSH2 0x103A JUMP JUMPDEST PUSH2 0x10A8 SWAP2 PUSH1 0x20 PUSH2 0x1097 PUSH1 0x40 DUP4 ADD PUSH1 0x0 DUP6 ADD MLOAD DUP5 DUP3 SUB PUSH1 0x0 DUP7 ADD MSTORE PUSH2 0x1010 JUMP JUMPDEST SWAP3 ADD MLOAD SWAP1 PUSH1 0x20 DUP2 DUP5 SUB SWAP2 ADD MSTORE PUSH2 0x1010 JUMP JUMPDEST SWAP1 JUMP JUMPDEST PUSH2 0x10C1 SWAP2 PUSH1 0x20 DUP3 ADD SWAP2 PUSH1 0x0 DUP2 DUP5 SUB SWAP2 ADD MSTORE PUSH2 0x1078 JUMP JUMPDEST SWAP1 JUMP JUMPDEST CALLVALUE PUSH2 0x10F4 JUMPI PUSH2 0x10F0 PUSH2 0x10DF PUSH2 0x10DA CALLDATASIZE PUSH1 0x4 PUSH2 0x946 JUMP JUMPDEST PUSH2 0x3275 JUMP JUMPDEST PUSH2 0x10E7 PUSH2 0x112 JUMP JUMPDEST SWAP2 DUP3 SWAP2 DUP3 PUSH2 0x10AB JUMP JUMPDEST SUB SWAP1 RETURN JUMPDEST PUSH2 0x118 JUMP JUMPDEST PUSH1 0x0 DUP1 REVERT JUMPDEST PUSH1 0x0 SHR SWAP1 JUMP JUMPDEST PUSH2 0x1110 PUSH2 0x1115 SWAP2 PUSH2 0x10FE JUMP JUMPDEST PUSH2 0x7D3 JUMP JUMPDEST SWAP1 JUMP JUMPDEST PUSH2 0x1122 SWAP1 SLOAD PUSH2 0x1104 JUMP JUMPDEST SWAP1 JUMP JUMPDEST PUSH1 0x0 DUP1 REVERT JUMPDEST PUSH1 0xE0 SHL SWAP1 JUMP JUMPDEST PUSH1 0x0 SWAP2 SUB SLT PUSH2 0x113B JUMPI JUMP JUMPDEST PUSH2 0x11D JUMP JUMPDEST PUSH1 0x20 SWAP2 DUP2 MSTORE ADD SWAP1 JUMP JUMPDEST PUSH2 0x1168 PUSH2 0x1171 PUSH1 0x20 SWAP4 PUSH2 0x1176 SWAP4 PUSH2 0x115F DUP2 PUSH2 0x529 JUMP JUMPDEST SWAP4 DUP5 DUP1 SWAP4 PUSH2 0x1140 JUMP JUMPDEST SWAP6 DUP7 SWAP2 ADD PUSH2 0x536 JUMP JUMPDEST PUSH2 0x16C JUMP JUMPDEST ADD SWAP1 JUMP JUMPDEST SWAP2 PUSH2 0x119E SWAP3 PUSH2 0x1191 PUSH1 0x40 DUP3 ADD SWAP4 PUSH1 0x0 DUP4 ADD SWAP1 PUSH2 0xCB0 JUMP JUMPDEST PUSH1 0x20 DUP2 DUP5 SUB SWAP2 ADD MSTORE PUSH2 0x1149 JUMP JUMPDEST SWAP1 JUMP JUMPDEST PUSH2 0x11A9 PUSH2 0x112 JUMP JUMPDEST RETURNDATASIZE PUSH1 0x0 DUP3 RETURNDATACOPY RETURNDATASIZE SWAP1 REVERT JUMPDEST PUSH2 0x11C4 PUSH2 0x11BF PUSH1 0x2 PUSH2 0x1118 JUMP JUMPDEST PUSH2 0x83F JUMP JUMPDEST SWAP2 PUSH3 0xBCEC27 SWAP2 SWAP1 SWAP3 DUP1 EXTCODESIZE ISZERO PUSH2 0x1240 JUMPI PUSH2 0x11F1 PUSH1 0x0 DUP1 SWAP5 PUSH2 0x11FC PUSH2 0x11E5 PUSH2 0x112 JUMP JUMPDEST SWAP8 DUP9 SWAP7 DUP8 SWAP6 DUP7 SWAP5 PUSH2 0x112A JUMP JUMPDEST DUP5 MSTORE PUSH1 0x4 DUP5 ADD PUSH2 0x117A JUMP JUMPDEST SUB SWAP3 GAS CALL DUP1 ISZERO PUSH2 0x123B JUMPI PUSH2 0x120E JUMPI JUMPDEST POP JUMP JUMPDEST PUSH2 0x122E SWAP1 PUSH1 0x0 RETURNDATASIZE DUP2 GT PUSH2 0x1234 JUMPI JUMPDEST PUSH2 0x1226 DUP2 DUP4 PUSH2 0x18C JUMP JUMPDEST DUP2 ADD SWAP1 PUSH2 0x1130 JUMP JUMPDEST CODESIZE PUSH2 0x120B JUMP JUMPDEST POP RETURNDATASIZE PUSH2 0x121C JUMP JUMPDEST PUSH2 0x11A1 JUMP JUMPDEST PUSH2 0x1125 JUMP JUMPDEST PUSH2 0x1251 PUSH2 0x1256 SWAP2 PUSH2 0x10FE JUMP JUMPDEST PUSH2 0xEDA JUMP JUMPDEST SWAP1 JUMP JUMPDEST PUSH2 0x1263 SWAP1 SLOAD PUSH2 0x1245 JUMP JUMPDEST SWAP1 JUMP JUMPDEST PUSH2 0x126F SWAP1 PUSH2 0x993 JUMP JUMPDEST SWAP1 MSTORE JUMP JUMPDEST SWAP6 SWAP3 PUSH2 0x12E0 SWAP5 PUSH2 0x12B6 DUP9 PUSH2 0x12C4 SWAP4 PUSH2 0x12A9 PUSH2 0x12D2 SWAP8 PUSH2 0x129F PUSH2 0x12EE SWAP15 SWAP13 SWAP9 PUSH1 0x0 PUSH1 0xE0 DUP8 ADD SWAP7 ADD SWAP1 PUSH2 0xCB0 JUMP JUMPDEST PUSH1 0x20 DUP14 ADD SWAP1 PUSH2 0x1266 JUMP JUMPDEST DUP11 DUP3 SUB PUSH1 0x40 DUP13 ADD MSTORE PUSH2 0x1149 JUMP JUMPDEST SWAP1 DUP9 DUP3 SUB PUSH1 0x60 DUP11 ADD MSTORE PUSH2 0x1149 JUMP JUMPDEST SWAP1 DUP7 DUP3 SUB PUSH1 0x80 DUP9 ADD MSTORE PUSH2 0x1149 JUMP JUMPDEST SWAP1 DUP5 DUP3 SUB PUSH1 0xA0 DUP7 ADD MSTORE PUSH2 0x1149 JUMP JUMPDEST SWAP2 PUSH1 0xC0 DUP2 DUP5 SUB SWAP2 ADD MSTORE PUSH2 0x1149 JUMP JUMPDEST SWAP1 JUMP JUMPDEST SWAP6 SWAP5 SWAP2 SWAP6 SWAP4 SWAP1 SWAP4 PUSH2 0x130A PUSH2 0x1305 PUSH1 0x1 PUSH2 0x1259 JUMP JUMPDEST PUSH2 0xF1B JUMP JUMPDEST SWAP4 PUSH4 0x3B27F4E2 SWAP2 SWAP6 SWAP8 SWAP1 SWAP3 SWAP4 SWAP7 DUP6 EXTCODESIZE ISZERO PUSH2 0x138E JUMPI PUSH1 0x0 SWAP8 PUSH2 0x133F SWAP6 DUP10 SWAP6 PUSH2 0x134A SWAP5 PUSH2 0x1333 PUSH2 0x112 JUMP JUMPDEST SWAP13 DUP14 SWAP12 DUP13 SWAP11 DUP12 SWAP10 PUSH2 0x112A JUMP JUMPDEST DUP10 MSTORE PUSH1 0x4 DUP10 ADD PUSH2 0x1273 JUMP JUMPDEST SUB SWAP3 GAS CALL DUP1 ISZERO PUSH2 0x1389 JUMPI PUSH2 0x135C JUMPI JUMPDEST POP JUMP JUMPDEST PUSH2 0x137C SWAP1 PUSH1 0x0 RETURNDATASIZE DUP2 GT PUSH2 0x1382 JUMPI JUMPDEST PUSH2 0x1374 DUP2 DUP4 PUSH2 0x18C JUMP JUMPDEST DUP2 ADD SWAP1 PUSH2 0x1130 JUMP JUMPDEST CODESIZE PUSH2 0x1359 JUMP JUMPDEST POP RETURNDATASIZE PUSH2 0x136A JUMP JUMPDEST PUSH2 0x11A1 JUMP JUMPDEST PUSH2 0x1125 JUMP JUMPDEST PUSH2 0x139D PUSH1 0x40 PUSH2 0x1B5 JUMP JUMPDEST SWAP1 JUMP JUMPDEST SWAP1 PUSH2 0x13AA SWAP1 PUSH2 0x414 JUMP JUMPDEST SWAP1 MSTORE JUMP JUMPDEST PUSH2 0x13BA PUSH2 0x13BF SWAP2 PUSH2 0x10FE JUMP JUMPDEST PUSH2 0x8A3 JUMP JUMPDEST SWAP1 JUMP JUMPDEST PUSH2 0x13CC SWAP1 SLOAD PUSH2 0x13AE JUMP JUMPDEST SWAP1 JUMP JUMPDEST SWAP2 PUSH1 0x20 PUSH2 0x13F1 SWAP3 SWAP5 SWAP4 PUSH2 0x13EA PUSH1 0x60 DUP3 ADD SWAP7 PUSH1 0x0 DUP4 ADD SWAP1 PUSH2 0xCB0 JUMP JUMPDEST ADD SWAP1 PUSH2 0xE69 JUMP JUMPDEST JUMP JUMPDEST SWAP2 SWAP1 PUSH2 0x1418 SWAP1 SWAP2 PUSH2 0x140F PUSH2 0x1405 PUSH2 0x1393 JUMP JUMPDEST SWAP4 PUSH1 0x0 DUP6 ADD PUSH2 0x13A0 JUMP JUMPDEST PUSH1 0x20 DUP4 ADD PUSH2 0x13A0 JUMP JUMPDEST SWAP1 PUSH2 0x142B PUSH2 0x1426 PUSH1 0x0 PUSH2 0x13C2 JUMP JUMPDEST PUSH2 0x8E2 JUMP JUMPDEST SWAP2 PUSH4 0xFEF28772 SWAP2 SWAP1 SWAP3 DUP1 EXTCODESIZE ISZERO PUSH2 0x14A8 JUMPI PUSH2 0x1459 PUSH1 0x0 DUP1 SWAP5 PUSH2 0x1464 PUSH2 0x144D PUSH2 0x112 JUMP JUMPDEST SWAP8 DUP9 SWAP7 DUP8 SWAP6 DUP7 SWAP5 PUSH2 0x112A JUMP JUMPDEST DUP5 MSTORE PUSH1 0x4 DUP5 ADD PUSH2 0x13CF JUMP JUMPDEST SUB SWAP3 GAS CALL DUP1 ISZERO PUSH2 0x14A3 JUMPI PUSH2 0x1476 JUMPI JUMPDEST POP JUMP JUMPDEST PUSH2 0x1496 SWAP1 PUSH1 0x0 RETURNDATASIZE DUP2 GT PUSH2 0x149C JUMPI JUMPDEST PUSH2 0x148E DUP2 DUP4 PUSH2 0x18C JUMP JUMPDEST DUP2 ADD SWAP1 PUSH2 0x1130 JUMP JUMPDEST CODESIZE PUSH2 0x1473 JUMP JUMPDEST POP RETURNDATASIZE PUSH2 0x1484 JUMP JUMPDEST PUSH2 0x11A1 JUMP JUMPDEST PUSH2 0x1125 JUMP JUMPDEST PUSH1 0x60 SWAP1 JUMP JUMPDEST PUSH8 0xFFFFFFFFFFFFFFFF DUP2 GT PUSH2 0x14CA JUMPI PUSH1 0x20 DUP1 SWAP2 MUL ADD SWAP1 JUMP JUMPDEST PUSH2 0x176 JUMP JUMPDEST PUSH1 0x0 DUP1 REVERT JUMPDEST PUSH1 0x0 DUP1 REVERT JUMPDEST PUSH2 0x14E2 DUP2 PUSH2 0x516 JUMP JUMPDEST SUB PUSH2 0x14E9 JUMPI JUMP JUMPDEST PUSH1 0x0 DUP1 REVERT JUMPDEST SWAP1 POP MLOAD SWAP1 PUSH2 0x14FB DUP3 PUSH2 0x14D9 JUMP JUMPDEST JUMP JUMPDEST SWAP1 SWAP3 SWAP2 SWAP3 PUSH2 0x1512 PUSH2 0x150D DUP3 PUSH2 0x1CA JUMP JUMPDEST PUSH2 0x1B5 JUMP JUMPDEST SWAP4 DUP2 DUP6 MSTORE PUSH1 0x20 DUP6 ADD SWAP1 DUP3 DUP5 ADD GT PUSH2 0x152E JUMPI PUSH2 0x152C SWAP3 PUSH2 0x536 JUMP JUMPDEST JUMP JUMPDEST PUSH2 0x167 JUMP JUMPDEST SWAP1 DUP1 PUSH1 0x1F DUP4 ADD SLT ISZERO PUSH2 0x1551 JUMPI DUP2 PUSH1 0x20 PUSH2 0x154E SWAP4 MLOAD SWAP2 ADD PUSH2 0x14FD JUMP JUMPDEST SWAP1 JUMP JUMPDEST PUSH2 0x162 JUMP JUMPDEST SWAP1 POP MLOAD SWAP1 PUSH2 0x1563 DUP3 PUSH2 0x41B JUMP JUMPDEST JUMP JUMPDEST SWAP1 POP MLOAD SWAP1 PUSH2 0x1572 DUP3 PUSH2 0x4B1 JUMP JUMPDEST JUMP JUMPDEST PUSH1 0x2 GT ISZERO PUSH2 0x157E JUMPI JUMP JUMPDEST PUSH1 0x0 DUP1 REVERT JUMPDEST SWAP1 POP MLOAD SWAP1 PUSH2 0x1590 DUP3 PUSH2 0x1574 JUMP JUMPDEST JUMP JUMPDEST SWAP2 SWAP1 SWAP2 PUSH2 0x140 DUP2 DUP5 SUB SLT PUSH2 0x1695 JUMPI PUSH2 0x15AB PUSH2 0x140 PUSH2 0x1B5 JUMP JUMPDEST SWAP3 PUSH2 0x15B9 DUP2 PUSH1 0x0 DUP5 ADD PUSH2 0x14EE JUMP JUMPDEST PUSH1 0x0 DUP6 ADD MSTORE PUSH1 0x20 DUP3 ADD MLOAD PUSH8 0xFFFFFFFFFFFFFFFF DUP2 GT PUSH2 0x1690 JUMPI DUP2 PUSH2 0x15DE SWAP2 DUP5 ADD PUSH2 0x1533 JUMP JUMPDEST PUSH1 0x20 DUP6 ADD MSTORE PUSH1 0x40 DUP3 ADD MLOAD SWAP2 PUSH8 0xFFFFFFFFFFFFFFFF DUP4 GT PUSH2 0x168B JUMPI PUSH2 0x1607 DUP3 PUSH2 0x1683 SWAP5 DUP4 ADD PUSH2 0x1533 JUMP JUMPDEST PUSH1 0x40 DUP7 ADD MSTORE PUSH2 0x1619 DUP3 PUSH1 0x60 DUP4 ADD PUSH2 0x14EE JUMP JUMPDEST PUSH1 0x60 DUP7 ADD MSTORE PUSH2 0x162B DUP3 PUSH1 0x80 DUP4 ADD PUSH2 0x1556 JUMP JUMPDEST PUSH1 0x80 DUP7 ADD MSTORE PUSH2 0x163D DUP3 PUSH1 0xA0 DUP4 ADD PUSH2 0x1556 JUMP JUMPDEST PUSH1 0xA0 DUP7 ADD MSTORE PUSH2 0x164F DUP3 PUSH1 0xC0 DUP4 ADD PUSH2 0x1565 JUMP JUMPDEST PUSH1 0xC0 DUP7 ADD MSTORE PUSH2 0x1661 DUP3 PUSH1 0xE0 DUP4 ADD PUSH2 0x1565 JUMP JUMPDEST PUSH1 0xE0 DUP7 ADD MSTORE PUSH2 0x1674 DUP3 PUSH2 0x100 DUP4 ADD PUSH2 0x1583 JUMP JUMPDEST PUSH2 0x100 DUP7 ADD MSTORE PUSH2 0x120 ADD PUSH2 0x1565 JUMP JUMPDEST PUSH2 0x120 DUP4 ADD MSTORE JUMP JUMPDEST PUSH2 0x14D4 JUMP JUMPDEST PUSH2 0x14D4 JUMP JUMPDEST PUSH2 0x14CF JUMP JUMPDEST PUSH2 0x16A3 DUP2 PUSH2 0x6B6 JUMP JUMPDEST SUB PUSH2 0x16AA JUMPI JUMP JUMPDEST PUSH1 0x0 DUP1 REVERT JUMPDEST SWAP1 POP MLOAD SWAP1 PUSH2 0x16BC DUP3 PUSH2 0x169A JUMP JUMPDEST JUMP JUMPDEST SWAP2 SWAP1 SWAP2 PUSH1 0x40 DUP2 DUP5 SUB SLT PUSH2 0x1713 JUMPI PUSH2 0x16D5 PUSH1 0x40 PUSH2 0x1B5 JUMP JUMPDEST SWAP3 PUSH1 0x0 DUP3 ADD MLOAD SWAP2 PUSH8 0xFFFFFFFFFFFFFFFF DUP4 GT PUSH2 0x170E JUMPI PUSH2 0x16FA DUP3 PUSH2 0x1707 SWAP5 DUP4 ADD PUSH2 0x1592 JUMP JUMPDEST PUSH1 0x0 DUP7 ADD MSTORE PUSH1 0x20 ADD PUSH2 0x16AF JUMP JUMPDEST PUSH1 0x20 DUP4 ADD MSTORE JUMP JUMPDEST PUSH2 0x14D4 JUMP JUMPDEST PUSH2 0x14CF JUMP JUMPDEST SWAP3 SWAP2 SWAP1 PUSH2 0x172C PUSH2 0x1727 DUP3 PUSH2 0x14B2 JUMP JUMPDEST PUSH2 0x1B5 JUMP JUMPDEST SWAP4 DUP2 DUP6 MSTORE PUSH1 0x20 DUP1 DUP7 ADD SWAP3 MUL DUP2 ADD SWAP2 DUP4 DUP4 GT PUSH2 0x1783 JUMPI DUP2 SWAP1 JUMPDEST DUP4 DUP3 LT PUSH2 0x1752 JUMPI POP POP POP POP POP JUMP JUMPDEST DUP2 MLOAD PUSH8 0xFFFFFFFFFFFFFFFF DUP2 GT PUSH2 0x177E JUMPI PUSH1 0x20 SWAP2 PUSH2 0x1773 DUP8 DUP5 SWAP4 DUP8 ADD PUSH2 0x16BE JUMP JUMPDEST DUP2 MSTORE ADD SWAP2 ADD SWAP1 PUSH2 0x1744 JUMP JUMPDEST PUSH2 0x162 JUMP JUMPDEST PUSH2 0xB16 JUMP JUMPDEST SWAP1 DUP1 PUSH1 0x1F DUP4 ADD SLT ISZERO PUSH2 0x17A6 JUMPI DUP2 PUSH1 0x20 PUSH2 0x17A3 SWAP4 MLOAD SWAP2 ADD PUSH2 0x1718 JUMP JUMPDEST SWAP1 JUMP JUMPDEST PUSH2 0x162 JUMP JUMPDEST SWAP1 PUSH1 0x20 DUP3 DUP3 SUB SLT PUSH2 0x17DC JUMPI PUSH1 0x0 DUP3 ADD MLOAD PUSH8 0xFFFFFFFFFFFFFFFF DUP2 GT PUSH2 0x17D7 JUMPI PUSH2 0x17D4 SWAP3 ADD PUSH2 0x1788 JUMP JUMPDEST SWAP1 JUMP JUMPDEST PUSH2 0x122 JUMP JUMPDEST PUSH2 0x11D JUMP JUMPDEST PUSH2 0x17EA SWAP1 PUSH2 0x4AE JUMP JUMPDEST SWAP1 MSTORE JUMP JUMPDEST SWAP2 PUSH1 0x20 PUSH2 0x1810 SWAP3 SWAP5 SWAP4 PUSH2 0x1809 PUSH1 0x40 DUP3 ADD SWAP7 PUSH1 0x0 DUP4 ADD SWAP1 PUSH2 0xCB0 JUMP JUMPDEST ADD SWAP1 PUSH2 0x17E1 JUMP JUMPDEST JUMP JUMPDEST SWAP1 PUSH1 0x0 SWAP1 PUSH2 0x181E PUSH2 0x14AD JUMP JUMPDEST POP PUSH2 0x1831 PUSH2 0x182C PUSH1 0x2 PUSH2 0x1118 JUMP JUMPDEST PUSH2 0x83F JUMP JUMPDEST PUSH2 0x1853 PUSH4 0x375FFC73 SWAP5 SWAP3 SWAP5 PUSH2 0x185E PUSH2 0x1847 PUSH2 0x112 JUMP JUMPDEST SWAP7 DUP8 SWAP6 DUP7 SWAP5 DUP6 SWAP5 PUSH2 0x112A JUMP JUMPDEST DUP5 MSTORE PUSH1 0x4 DUP5 ADD PUSH2 0x17EE JUMP JUMPDEST SUB SWAP2 GAS STATICCALL SWAP1 DUP2 ISZERO PUSH2 0x1898 JUMPI PUSH1 0x0 SWAP2 PUSH2 0x1875 JUMPI JUMPDEST POP SWAP1 JUMP JUMPDEST PUSH2 0x1892 SWAP2 POP RETURNDATASIZE DUP1 PUSH1 0x0 DUP4 RETURNDATACOPY PUSH2 0x188A DUP2 DUP4 PUSH2 0x18C JUMP JUMPDEST DUP2 ADD SWAP1 PUSH2 0x17AB JUMP JUMPDEST CODESIZE PUSH2 0x1871 JUMP JUMPDEST PUSH2 0x11A1 JUMP JUMPDEST PUSH1 0x60 SWAP1 JUMP JUMPDEST PUSH8 0xFFFFFFFFFFFFFFFF DUP2 GT PUSH2 0x18BA JUMPI PUSH1 0x20 DUP1 SWAP2 MUL ADD SWAP1 JUMP JUMPDEST PUSH2 0x176 JUMP JUMPDEST SWAP1 POP MLOAD SWAP1 PUSH2 0x18CC DUP3 PUSH2 0x2D2 JUMP JUMPDEST JUMP JUMPDEST SWAP2 SWAP1 SWAP2 PUSH1 0xC0 DUP2 DUP5 SUB SLT PUSH2 0x19CA JUMPI PUSH2 0x18E5 PUSH1 0xC0 PUSH2 0x1B5 JUMP JUMPDEST SWAP3 PUSH2 0x18F3 DUP2 PUSH1 0x0 DUP5 ADD PUSH2 0x18BF JUMP JUMPDEST PUSH1 0x0 DUP6 ADD MSTORE PUSH1 0x20 DUP3 ADD MLOAD PUSH8 0xFFFFFFFFFFFFFFFF DUP2 GT PUSH2 0x19C5 JUMPI DUP2 PUSH2 0x1918 SWAP2 DUP5 ADD PUSH2 0x1533 JUMP JUMPDEST PUSH1 0x20 DUP6 ADD MSTORE PUSH1 0x40 DUP3 ADD MLOAD PUSH8 0xFFFFFFFFFFFFFFFF DUP2 GT PUSH2 0x19C0 JUMPI DUP2 PUSH2 0x193D SWAP2 DUP5 ADD PUSH2 0x1533 JUMP JUMPDEST PUSH1 0x40 DUP6 ADD MSTORE PUSH1 0x60 DUP3 ADD MLOAD PUSH8 0xFFFFFFFFFFFFFFFF DUP2 GT PUSH2 0x19BB JUMPI DUP2 PUSH2 0x1962 SWAP2 DUP5 ADD PUSH2 0x1533 JUMP JUMPDEST PUSH1 0x60 DUP6 ADD MSTORE PUSH1 0x80 DUP3 ADD MLOAD PUSH8 0xFFFFFFFFFFFFFFFF DUP2 GT PUSH2 0x19B6 JUMPI DUP2 PUSH2 0x1987 SWAP2 DUP5 ADD PUSH2 0x1533 JUMP JUMPDEST PUSH1 0x80 DUP6 ADD MSTORE PUSH1 0xA0 DUP3 ADD MLOAD PUSH8 0xFFFFFFFFFFFFFFFF DUP2 GT PUSH2 0x19B1 JUMPI PUSH2 0x19AA SWAP3 ADD PUSH2 0x1533 JUMP JUMPDEST PUSH1 0xA0 DUP4 ADD MSTORE JUMP JUMPDEST PUSH2 0x14D4 JUMP JUMPDEST PUSH2 0x14D4 JUMP JUMPDEST PUSH2 0x14D4 JUMP JUMPDEST PUSH2 0x14D4 JUMP JUMPDEST PUSH2 0x14D4 JUMP JUMPDEST PUSH2 0x14CF JUMP JUMPDEST SWAP3 SWAP2 SWAP1 PUSH2 0x19E3 PUSH2 0x19DE DUP3 PUSH2 0x18A2 JUMP JUMPDEST PUSH2 0x1B5 JUMP JUMPDEST SWAP4 DUP2 DUP6 MSTORE PUSH1 0x20 DUP1 DUP7 ADD SWAP3 MUL DUP2 ADD SWAP2 DUP4 DUP4 GT PUSH2 0x1A3A JUMPI DUP2 SWAP1 JUMPDEST DUP4 DUP3 LT PUSH2 0x1A09 JUMPI POP POP POP POP POP JUMP JUMPDEST DUP2 MLOAD PUSH8 0xFFFFFFFFFFFFFFFF DUP2 GT PUSH2 0x1A35 JUMPI PUSH1 0x20 SWAP2 PUSH2 0x1A2A DUP8 DUP5 SWAP4 DUP8 ADD PUSH2 0x18CE JUMP JUMPDEST DUP2 MSTORE ADD SWAP2 ADD SWAP1 PUSH2 0x19FB JUMP JUMPDEST PUSH2 0x162 JUMP JUMPDEST PUSH2 0xB16 JUMP JUMPDEST SWAP1 DUP1 PUSH1 0x1F DUP4 ADD SLT ISZERO PUSH2 0x1A5D JUMPI DUP2 PUSH1 0x20 PUSH2 0x1A5A SWAP4 MLOAD SWAP2 ADD PUSH2 0x19CF JUMP JUMPDEST SWAP1 JUMP JUMPDEST PUSH2 0x162 JUMP JUMPDEST SWAP1 PUSH1 0x20 DUP3 DUP3 SUB SLT PUSH2 0x1A93 JUMPI PUSH1 0x0 DUP3 ADD MLOAD PUSH8 0xFFFFFFFFFFFFFFFF DUP2 GT PUSH2 0x1A8E JUMPI PUSH2 0x1A8B SWAP3 ADD PUSH2 0x1A3F JUMP JUMPDEST SWAP1 JUMP JUMPDEST PUSH2 0x122 JUMP JUMPDEST PUSH2 0x11D JUMP JUMPDEST PUSH1 0x0 PUSH2 0x1AE0 SWAP2 PUSH2 0x1AA6 PUSH2 0x189D JUMP JUMPDEST POP PUSH2 0x1AB9 PUSH2 0x1AB4 PUSH1 0x1 PUSH2 0x1259 JUMP JUMPDEST PUSH2 0xF1B JUMP JUMPDEST PUSH2 0x1AD5 PUSH4 0xB226187C PUSH2 0x1AC9 PUSH2 0x112 JUMP JUMPDEST SWAP6 DUP7 SWAP5 DUP6 SWAP4 DUP5 SWAP4 PUSH2 0x112A JUMP JUMPDEST DUP4 MSTORE PUSH1 0x4 DUP4 ADD PUSH2 0xCBD JUMP JUMPDEST SUB SWAP2 GAS STATICCALL SWAP1 DUP2 ISZERO PUSH2 0x1B1A JUMPI PUSH1 0x0 SWAP2 PUSH2 0x1AF7 JUMPI JUMPDEST POP SWAP1 JUMP JUMPDEST PUSH2 0x1B14 SWAP2 POP RETURNDATASIZE DUP1 PUSH1 0x0 DUP4 RETURNDATACOPY PUSH2 0x1B0C DUP2 DUP4 PUSH2 0x18C JUMP JUMPDEST DUP2 ADD SWAP1 PUSH2 0x1A62 JUMP JUMPDEST CODESIZE PUSH2 0x1AF3 JUMP JUMPDEST PUSH2 0x11A1 JUMP JUMPDEST MLOAD SWAP1 JUMP JUMPDEST PUSH1 0x20 SWAP2 DUP2 MSTORE ADD SWAP1 JUMP JUMPDEST PUSH1 0x20 ADD SWAP1 JUMP JUMPDEST SWAP1 PUSH2 0x1B3C SWAP2 PUSH2 0x55B JUMP JUMPDEST SWAP1 JUMP JUMPDEST PUSH1 0x20 ADD SWAP1 JUMP JUMPDEST SWAP1 PUSH2 0x1B59 PUSH2 0x1B52 DUP4 PUSH2 0x1B1F JUMP JUMPDEST DUP1 SWAP3 PUSH2 0x1B23 JUMP JUMPDEST SWAP1 DUP2 PUSH2 0x1B6A PUSH1 0x20 DUP4 MUL DUP5 ADD SWAP5 PUSH2 0x1B2C JUMP JUMPDEST SWAP3 PUSH1 0x0 SWAP2 JUMPDEST DUP4 DUP4 LT PUSH2 0x1B7E JUMPI POP POP POP POP POP SWAP1 JUMP JUMPDEST SWAP1 SWAP2 SWAP3 SWAP4 SWAP5 PUSH1 0x20 PUSH2 0x1BA0 PUSH2 0x1B9A DUP4 DUP6 PUSH1 0x1 SWAP6 SUB DUP8 MSTORE DUP10 MLOAD PUSH2 0x1B32 JUMP JUMPDEST SWAP8 PUSH2 0x1B3F JUMP JUMPDEST SWAP4 ADD SWAP4 ADD SWAP2 SWAP4 SWAP3 SWAP1 PUSH2 0x1B6F JUMP JUMPDEST SWAP2 PUSH2 0x1BD1 SWAP3 PUSH2 0x1BC4 PUSH1 0x40 DUP3 ADD SWAP4 PUSH1 0x0 DUP4 ADD SWAP1 PUSH2 0xCB0 JUMP JUMPDEST PUSH1 0x20 DUP2 DUP5 SUB SWAP2 ADD MSTORE PUSH2 0x1B45 JUMP JUMPDEST SWAP1 JUMP JUMPDEST PUSH2 0x1BE6 PUSH2 0x1BE1 PUSH1 0x2 PUSH2 0x1118 JUMP JUMPDEST PUSH2 0x83F JUMP JUMPDEST SWAP2 PUSH4 0x647A6682 SWAP2 SWAP1 SWAP3 DUP1 EXTCODESIZE ISZERO PUSH2 0x1C63 JUMPI PUSH2 0x1C14 PUSH1 0x0 DUP1 SWAP5 PUSH2 0x1C1F PUSH2 0x1C08 PUSH2 0x112 JUMP JUMPDEST SWAP8 DUP9 SWAP7 DUP8 SWAP6 DUP7 SWAP5 PUSH2 0x112A JUMP JUMPDEST DUP5 MSTORE PUSH1 0x4 DUP5 ADD PUSH2 0x1BAD JUMP JUMPDEST SUB SWAP3 GAS CALL DUP1 ISZERO PUSH2 0x1C5E JUMPI PUSH2 0x1C31 JUMPI JUMPDEST POP JUMP JUMPDEST PUSH2 0x1C51 SWAP1 PUSH1 0x0 RETURNDATASIZE DUP2 GT PUSH2 0x1C57 JUMPI JUMPDEST PUSH2 0x1C49 DUP2 DUP4 PUSH2 0x18C JUMP JUMPDEST DUP2 ADD SWAP1 PUSH2 0x1130 JUMP JUMPDEST CODESIZE PUSH2 0x1C2E JUMP JUMPDEST POP RETURNDATASIZE PUSH2 0x1C3F JUMP JUMPDEST PUSH2 0x11A1 JUMP JUMPDEST PUSH2 0x1125 JUMP JUMPDEST PUSH1 0x0 SWAP1 JUMP JUMPDEST SWAP1 JUMP JUMPDEST PUSH2 0x1C84 PUSH2 0x1C7F PUSH2 0x1C89 SWAP3 PUSH2 0x1C6D JUMP JUMPDEST PUSH2 0x814 JUMP JUMPDEST PUSH2 0x127 JUMP JUMPDEST SWAP1 JUMP JUMPDEST PUSH2 0x1C95 SWAP1 PUSH2 0x1C70 JUMP JUMPDEST SWAP1 JUMP JUMPDEST PUSH1 0x0 PUSH32 0x706172656E74206E6F7420666F756E6400000000000000000000000000000000 SWAP2 ADD MSTORE JUMP JUMPDEST PUSH2 0x1CCD PUSH1 0x10 PUSH1 0x20 SWAP3 PUSH2 0x1140 JUMP JUMPDEST PUSH2 0x1CD6 DUP2 PUSH2 0x1C98 JUMP JUMPDEST ADD SWAP1 JUMP JUMPDEST PUSH2 0x1CF0 SWAP1 PUSH1 0x20 DUP2 ADD SWAP1 PUSH1 0x0 DUP2 DUP4 SUB SWAP2 ADD MSTORE PUSH2 0x1CC0 JUMP JUMPDEST SWAP1 JUMP JUMPDEST ISZERO PUSH2 0x1CFA JUMPI JUMP JUMPDEST PUSH2 0x1D02 PUSH2 0x112 JUMP JUMPDEST PUSH3 0x461BCD PUSH1 0xE5 SHL DUP2 MSTORE DUP1 PUSH2 0x1D18 PUSH1 0x4 DUP3 ADD PUSH2 0x1CDA JUMP JUMPDEST SUB SWAP1 REVERT JUMPDEST PUSH1 0x60 SHL SWAP1 JUMP JUMPDEST PUSH2 0x1D2B SWAP1 PUSH2 0x1D1C JUMP JUMPDEST SWAP1 JUMP JUMPDEST PUSH2 0x1D37 SWAP1 PUSH2 0x1D22 JUMP JUMPDEST SWAP1 JUMP JUMPDEST PUSH2 0x1D46 PUSH2 0x1D4B SWAP2 PUSH2 0x132 JUMP JUMPDEST PUSH2 0x1D2E JUMP JUMPDEST SWAP1 MSTORE JUMP JUMPDEST SWAP1 POP SWAP1 JUMP JUMPDEST PUSH2 0x1D79 PUSH2 0x1D70 SWAP3 PUSH1 0x20 SWAP3 PUSH2 0x1D67 DUP2 PUSH2 0x529 JUMP JUMPDEST SWAP5 DUP6 DUP1 SWAP4 PUSH2 0x1D4F JUMP JUMPDEST SWAP4 DUP5 SWAP2 ADD PUSH2 0x536 JUMP JUMPDEST ADD SWAP1 JUMP JUMPDEST SWAP1 JUMP JUMPDEST PUSH2 0x1D8C PUSH2 0x1D91 SWAP2 PUSH2 0x4AE JUMP JUMPDEST PUSH2 0x1D7D JUMP JUMPDEST SWAP1 MSTORE JUMP JUMPDEST PUSH1 0x20 SWAP4 SWAP3 PUSH1 0x14 DUP3 PUSH2 0x1DAC PUSH2 0x1DB3 SWAP5 PUSH2 0x1DBA SWAP7 PUSH2 0x1D3A JUMP JUMPDEST ADD SWAP1 PUSH2 0x1D54 JUMP JUMPDEST DUP1 SWAP3 PUSH2 0x1D80 JUMP JUMPDEST ADD SWAP1 JUMP JUMPDEST PUSH1 0x20 ADD SWAP1 JUMP JUMPDEST MLOAD SWAP1 JUMP JUMPDEST PUSH2 0x1DDC PUSH2 0x1DD7 PUSH2 0x1DE1 SWAP3 PUSH2 0x4AE JUMP JUMPDEST PUSH2 0x814 JUMP JUMPDEST PUSH2 0x4AE JUMP JUMPDEST SWAP1 JUMP JUMPDEST PUSH2 0x1DF0 PUSH2 0x1DF5 SWAP2 PUSH2 0x10FE JUMP JUMPDEST PUSH2 0x1DC8 JUMP JUMPDEST SWAP1 JUMP JUMPDEST PUSH2 0x1E0C PUSH2 0x1E07 PUSH2 0x1E11 SWAP3 PUSH2 0x4AE JUMP JUMPDEST PUSH2 0x814 JUMP JUMPDEST PUSH2 0x127 JUMP JUMPDEST SWAP1 JUMP JUMPDEST PUSH2 0x1E1D SWAP1 PUSH2 0x833 JUMP JUMPDEST SWAP1 JUMP JUMPDEST SWAP1 PUSH2 0x1E2A SWAP1 PUSH2 0x1E14 JUMP JUMPDEST PUSH1 0x0 MSTORE PUSH1 0x20 MSTORE PUSH1 0x40 PUSH1 0x0 KECCAK256 SWAP1 JUMP JUMPDEST SWAP1 JUMP JUMPDEST SLOAD SWAP1 JUMP JUMPDEST PUSH4 0x4E487B71 PUSH1 0xE0 SHL PUSH1 0x0 MSTORE PUSH1 0x32 PUSH1 0x4 MSTORE PUSH1 0x24 PUSH1 0x0 REVERT JUMPDEST PUSH1 0x0 MSTORE PUSH1 0x20 PUSH1 0x0 KECCAK256 SWAP1 JUMP JUMPDEST PUSH2 0x1E69 DUP2 PUSH2 0x1E3B JUMP JUMPDEST DUP3 LT ISZERO PUSH2 0x1E84 JUMPI PUSH2 0x1E7B PUSH1 0x3 SWAP2 PUSH2 0x1E55 JUMP JUMPDEST SWAP2 MUL ADD SWAP1 PUSH1 0x0 SWAP1 JUMP JUMPDEST PUSH2 0x1E3F JUMP JUMPDEST PUSH2 0x1E92 DUP2 PUSH2 0x1E3B JUMP JUMPDEST PUSH9 0x10000000000000000 DUP2 LT ISZERO PUSH2 0x1EB6 JUMPI PUSH2 0x1EB2 SWAP2 PUSH1 0x1 DUP3 ADD DUP2 SSTORE PUSH2 0x1E60 JUMP JUMPDEST SWAP1 SWAP2 JUMP JUMPDEST PUSH2 0x176 JUMP JUMPDEST SWAP1 JUMP JUMPDEST PUSH1 0x0 SHL SWAP1 JUMP JUMPDEST SWAP1 PUSH2 0x1ED5 PUSH1 0x1 DUP1 PUSH1 0xA0 SHL SUB SWAP2 PUSH2 0x1EBE JUMP JUMPDEST SWAP2 DUP2 NOT AND SWAP2 AND OR SWAP1 JUMP JUMPDEST SWAP1 JUMP JUMPDEST SWAP1 PUSH2 0x1EF7 PUSH2 0x1EF2 PUSH2 0x1EFE SWAP3 PUSH2 0x1E14 JUMP JUMPDEST PUSH2 0x1EDF JUMP JUMPDEST DUP3 SLOAD PUSH2 0x1EC4 JUMP JUMPDEST SWAP1 SSTORE JUMP JUMPDEST PUSH4 0x4E487B71 PUSH1 0xE0 SHL PUSH1 0x0 MSTORE PUSH1 0x0 PUSH1 0x4 MSTORE PUSH1 0x24 PUSH1 0x0 REVERT JUMPDEST PUSH4 0x4E487B71 PUSH1 0xE0 SHL PUSH1 0x0 MSTORE PUSH1 0x22 PUSH1 0x4 MSTORE PUSH1 0x24 PUSH1 0x0 REVERT JUMPDEST SWAP1 PUSH1 0x1 PUSH1 0x2 DUP4 DIV SWAP3 AND DUP1 ISZERO PUSH2 0x1F4E JUMPI JUMPDEST PUSH1 0x20 DUP4 LT EQ PUSH2 0x1F49 JUMPI JUMP JUMPDEST PUSH2 0x1F18 JUMP JUMPDEST SWAP2 PUSH1 0x7F AND SWAP2 PUSH2 0x1F3E JUMP JUMPDEST PUSH1 0x0 MSTORE PUSH1 0x20 PUSH1 0x0 KECCAK256 SWAP1 JUMP JUMPDEST PUSH1 0x1F PUSH1 0x20 SWAP2 ADD DIV SWAP1 JUMP JUMPDEST SHL SWAP1 JUMP JUMPDEST SWAP2 SWAP1 PUSH1 0x8 PUSH2 0x1F8D SWAP2 MUL SWAP2 PUSH2 0x1F87 PUSH1 0x0 NOT DUP5 PUSH2 0x1F6D JUMP JUMPDEST SWAP3 PUSH2 0x1F6D JUMP JUMPDEST SWAP2 DUP2 NOT AND SWAP2 AND OR SWAP1 JUMP JUMPDEST SWAP1 JUMP JUMPDEST SWAP2 SWAP1 PUSH2 0x1FB0 PUSH2 0x1FAB PUSH2 0x1FB8 SWAP4 PUSH2 0x1DC8 JUMP JUMPDEST PUSH2 0x1F97 JUMP JUMPDEST SWAP1 DUP4 SLOAD PUSH2 0x1F71 JUMP JUMPDEST SWAP1 SSTORE JUMP JUMPDEST PUSH1 0x0 SWAP1 JUMP JUMPDEST PUSH2 0x1FD3 SWAP2 PUSH2 0x1FCD PUSH2 0x1FBC JUMP JUMPDEST SWAP2 PUSH2 0x1F9A JUMP JUMPDEST JUMP JUMPDEST JUMPDEST DUP2 DUP2 LT PUSH2 0x1FE1 JUMPI POP POP JUMP JUMPDEST DUP1 PUSH2 0x1FEF PUSH1 0x0 PUSH1 0x1 SWAP4 PUSH2 0x1FC1 JUMP JUMPDEST ADD PUSH2 0x1FD6 JUMP JUMPDEST SWAP2 SWAP1 PUSH1 0x1F DUP2 GT PUSH2 0x2005 JUMPI JUMPDEST POP POP POP JUMP JUMPDEST PUSH2 0x2011 PUSH2 0x2036 SWAP4 PUSH2 0x1F58 JUMP JUMPDEST SWAP1 PUSH1 0x20 PUSH2 0x201D DUP5 PUSH2 0x1F63 JUMP JUMPDEST DUP4 ADD SWAP4 LT PUSH2 0x203E JUMPI JUMPDEST PUSH2 0x202F SWAP1 PUSH2 0x1F63 JUMP JUMPDEST ADD SWAP1 PUSH2 0x1FD5 JUMP JUMPDEST CODESIZE DUP1 DUP1 PUSH2 0x2000 JUMP JUMPDEST SWAP2 POP PUSH2 0x202F DUP2 SWAP3 SWAP1 POP PUSH2 0x2026 JUMP JUMPDEST SWAP1 PUSH2 0x205D SWAP1 PUSH1 0x0 NOT SWAP1 PUSH1 0x8 MUL PUSH2 0x7CF JUMP JUMPDEST NOT AND SWAP1 JUMP JUMPDEST DUP2 PUSH2 0x206C SWAP2 PUSH2 0x204C JUMP JUMPDEST SWAP1 PUSH1 0x2 MUL OR SWAP1 JUMP JUMPDEST SWAP1 PUSH2 0x207E DUP2 PUSH2 0x529 JUMP JUMPDEST SWAP1 PUSH8 0xFFFFFFFFFFFFFFFF DUP3 GT PUSH2 0x2140 JUMPI PUSH2 0x20A2 DUP3 PUSH2 0x209C DUP6 SLOAD PUSH2 0x1F2E JUMP JUMPDEST DUP6 PUSH2 0x1FF5 JUMP JUMPDEST PUSH1 0x20 SWAP1 PUSH1 0x1F DUP4 GT PUSH1 0x1 EQ PUSH2 0x20D7 JUMPI SWAP2 DUP1 SWAP2 PUSH2 0x20C6 SWAP4 PUSH1 0x0 SWAP3 PUSH2 0x20CB JUMPI JUMPDEST POP POP PUSH2 0x2062 JUMP JUMPDEST SWAP1 SSTORE JUMPDEST JUMP JUMPDEST SWAP1 SWAP2 POP ADD MLOAD CODESIZE DUP1 PUSH2 0x20BF JUMP JUMPDEST PUSH1 0x1F NOT DUP4 AND SWAP2 PUSH2 0x20E6 DUP6 PUSH2 0x1F58 JUMP JUMPDEST SWAP3 PUSH1 0x0 JUMPDEST DUP2 DUP2 LT PUSH2 0x2128 JUMPI POP SWAP2 PUSH1 0x2 SWAP4 SWAP2 DUP6 PUSH1 0x1 SWAP7 SWAP5 LT PUSH2 0x210E JUMPI JUMPDEST POP POP POP MUL ADD SWAP1 SSTORE PUSH2 0x20C9 JUMP JUMPDEST PUSH2 0x211E SWAP2 ADD MLOAD PUSH1 0x1F DUP5 AND SWAP1 PUSH2 0x204C JUMP JUMPDEST SWAP1 SSTORE CODESIZE DUP1 DUP1 PUSH2 0x2102 JUMP JUMPDEST SWAP2 SWAP4 PUSH1 0x20 PUSH1 0x1 DUP2 SWAP3 DUP8 DUP8 ADD MLOAD DUP2 SSTORE ADD SWAP6 ADD SWAP3 ADD PUSH2 0x20EA JUMP JUMPDEST PUSH2 0x176 JUMP JUMPDEST SWAP1 PUSH2 0x214F SWAP2 PUSH2 0x2074 JUMP JUMPDEST JUMP JUMPDEST SWAP1 PUSH2 0x215E PUSH1 0x0 NOT SWAP2 PUSH2 0x1EBE JUMP JUMPDEST SWAP2 DUP2 NOT AND SWAP2 AND OR SWAP1 JUMP JUMPDEST SWAP1 PUSH2 0x217D PUSH2 0x2178 PUSH2 0x2184 SWAP3 PUSH2 0x1DC8 JUMP JUMPDEST PUSH2 0x1F97 JUMP JUMPDEST DUP3 SLOAD PUSH2 0x2151 JUMP JUMPDEST SWAP1 SSTORE JUMP JUMPDEST SWAP1 PUSH2 0x2192 SWAP1 PUSH2 0x1E14 JUMP JUMPDEST PUSH1 0x0 MSTORE PUSH1 0x20 MSTORE PUSH1 0x40 PUSH1 0x0 KECCAK256 SWAP1 JUMP JUMPDEST SWAP1 JUMP JUMPDEST PUSH1 0x0 MSTORE PUSH1 0x20 PUSH1 0x0 KECCAK256 SWAP1 JUMP JUMPDEST SLOAD SWAP1 JUMP JUMPDEST PUSH2 0x21BB DUP2 PUSH2 0x21AE JUMP JUMPDEST DUP3 LT ISZERO PUSH2 0x21D6 JUMPI PUSH2 0x21CD PUSH1 0x1 SWAP2 PUSH2 0x21A3 JUMP JUMPDEST SWAP2 MUL ADD SWAP1 PUSH1 0x0 SWAP1 JUMP JUMPDEST PUSH2 0x1E3F JUMP JUMPDEST SWAP2 SWAP1 PUSH1 0x8 PUSH2 0x21FB SWAP2 MUL SWAP2 PUSH2 0x21F5 PUSH1 0x1 DUP1 PUSH1 0xA0 SHL SUB DUP5 PUSH2 0x1F6D JUMP JUMPDEST SWAP3 PUSH2 0x1F6D JUMP JUMPDEST SWAP2 DUP2 NOT AND SWAP2 AND OR SWAP1 JUMP JUMPDEST SWAP2 SWAP1 PUSH2 0x221B PUSH2 0x2216 PUSH2 0x2223 SWAP4 PUSH2 0x1E14 JUMP JUMPDEST PUSH2 0x1EDF JUMP JUMPDEST SWAP1 DUP4 SLOAD PUSH2 0x21DB JUMP JUMPDEST SWAP1 SSTORE JUMP JUMPDEST SWAP1 DUP2 SLOAD SWAP2 PUSH9 0x10000000000000000 DUP4 LT ISZERO PUSH2 0x2257 JUMPI DUP3 PUSH2 0x224F SWAP2 PUSH1 0x1 PUSH2 0x2255 SWAP6 ADD DUP2 SSTORE PUSH2 0x21B2 JUMP JUMPDEST SWAP1 PUSH2 0x2205 JUMP JUMPDEST JUMP JUMPDEST PUSH2 0x176 JUMP JUMPDEST SWAP2 PUSH2 0x2337 PUSH2 0x2374 SWAP3 SWAP6 SWAP5 SWAP4 PUSH2 0x226F PUSH2 0x1C68 JUMP JUMPDEST POP PUSH2 0x2296 CALLER PUSH2 0x228F PUSH2 0x2289 PUSH2 0x2284 PUSH1 0x0 PUSH2 0x1C8C JUMP JUMPDEST PUSH2 0x132 JUMP JUMPDEST SWAP2 PUSH2 0x132 JUMP JUMPDEST EQ ISZERO PUSH2 0x1CF3 JUMP JUMPDEST PUSH1 0x2 PUSH2 0x22F0 PUSH2 0x22EB PUSH2 0x22E6 DUP11 PUSH2 0x22CE CALLER PUSH2 0x22BF DUP9 SWAP4 PUSH2 0x22B3 PUSH2 0x112 JUMP JUMPDEST SWAP5 DUP6 SWAP4 PUSH1 0x20 DUP6 ADD PUSH2 0x1D95 JUMP JUMPDEST PUSH1 0x20 DUP3 ADD DUP2 SUB DUP3 MSTORE SUB DUP3 PUSH2 0x18C JUMP JUMPDEST PUSH2 0x22E0 PUSH2 0x22DA DUP3 PUSH2 0x1DC4 JUMP JUMPDEST SWAP2 PUSH2 0x1DBE JUMP JUMPDEST KECCAK256 PUSH2 0x1DE4 JUMP JUMPDEST PUSH2 0x1DF8 JUMP JUMPDEST PUSH2 0x833 JUMP JUMPDEST SWAP8 PUSH2 0x2330 PUSH2 0x2319 PUSH2 0x2313 PUSH2 0x230E PUSH2 0x2309 PUSH1 0x3 CALLER SWAP1 PUSH2 0x1E20 JUMP JUMPDEST PUSH2 0x1E38 JUMP JUMPDEST PUSH2 0x1E89 JUMP JUMPDEST POP PUSH2 0x1EBB JUMP JUMPDEST SWAP4 PUSH2 0x2327 DUP12 PUSH1 0x0 DUP8 ADD PUSH2 0x1EE2 JUMP JUMPDEST PUSH1 0x1 DUP6 ADD PUSH2 0x2145 JUMP JUMPDEST SWAP2 ADD PUSH2 0x2168 JUMP JUMPDEST PUSH2 0x2355 PUSH2 0x234E PUSH2 0x2349 PUSH1 0x4 DUP9 SWAP1 PUSH2 0x2188 JUMP JUMPDEST PUSH2 0x21A0 JUMP JUMPDEST CALLER SWAP1 PUSH2 0x2227 JUMP JUMPDEST SWAP2 PUSH2 0x236B PUSH2 0x2361 PUSH2 0x1393 JUMP JUMPDEST SWAP4 PUSH1 0x0 DUP6 ADD PUSH2 0x13A0 JUMP JUMPDEST PUSH1 0x20 DUP4 ADD PUSH2 0x13A0 JUMP JUMPDEST PUSH2 0x2386 PUSH2 0x2381 PUSH1 0x0 PUSH2 0x13C2 JUMP JUMPDEST PUSH2 0x8E2 JUMP JUMPDEST SWAP1 PUSH4 0xFEF28772 SWAP1 DUP5 SWAP1 SWAP3 DUP1 EXTCODESIZE ISZERO PUSH2 0x256D JUMPI PUSH2 0x23B5 PUSH1 0x0 DUP1 SWAP5 PUSH2 0x23C0 PUSH2 0x23A9 PUSH2 0x112 JUMP JUMPDEST SWAP8 DUP9 SWAP7 DUP8 SWAP6 DUP7 SWAP5 PUSH2 0x112A JUMP JUMPDEST DUP5 MSTORE PUSH1 0x4 DUP5 ADD PUSH2 0x13CF JUMP JUMPDEST SUB SWAP3 GAS CALL DUP1 ISZERO PUSH2 0x2568 JUMPI PUSH2 0x253B JUMPI JUMPDEST POP PUSH2 0x23E2 PUSH2 0x23DD PUSH1 0x2 PUSH2 0x1118 JUMP JUMPDEST PUSH2 0x83F JUMP JUMPDEST PUSH4 0x59C3309E DUP4 DUP3 EXTCODESIZE ISZERO PUSH2 0x2536 JUMPI PUSH2 0x2419 SWAP3 PUSH2 0x240E PUSH1 0x0 DUP1 SWAP5 PUSH2 0x2402 PUSH2 0x112 JUMP JUMPDEST SWAP7 DUP8 SWAP6 DUP7 SWAP5 DUP6 SWAP4 PUSH2 0x112A JUMP JUMPDEST DUP4 MSTORE PUSH1 0x4 DUP4 ADD PUSH2 0xCBD JUMP JUMPDEST SUB SWAP3 GAS CALL DUP1 ISZERO PUSH2 0x2531 JUMPI PUSH2 0x2504 JUMPI JUMPDEST POP PUSH2 0x243B PUSH2 0x2436 PUSH1 0x2 PUSH2 0x1118 JUMP JUMPDEST PUSH2 0x83F JUMP JUMPDEST SWAP1 PUSH4 0x647A6682 SWAP1 DUP4 SWAP1 SWAP3 DUP1 EXTCODESIZE ISZERO PUSH2 0x24FF JUMPI PUSH2 0x246A PUSH1 0x0 DUP1 SWAP5 PUSH2 0x2475 PUSH2 0x245E PUSH2 0x112 JUMP JUMPDEST SWAP8 DUP9 SWAP7 DUP8 SWAP6 DUP7 SWAP5 PUSH2 0x112A JUMP JUMPDEST DUP5 MSTORE PUSH1 0x4 DUP5 ADD PUSH2 0x1BAD JUMP JUMPDEST SUB SWAP3 GAS CALL DUP1 ISZERO PUSH2 0x24FA JUMPI PUSH2 0x24CD JUMPI JUMPDEST POP CALLER DUP2 SWAP1 PUSH2 0x24C7 PUSH2 0x24B5 PUSH32 0xCA9CD3D407E1929A81A936F2D713A37A799F8E396184EA2AF249A3EC3BAD9207 SWAP3 PUSH2 0x1E14 JUMP JUMPDEST SWAP3 PUSH2 0x24BE PUSH2 0x112 JUMP JUMPDEST SWAP2 DUP3 SWAP2 DUP3 PUSH2 0xCBD JUMP JUMPDEST SUB SWAP1 LOG2 SWAP1 JUMP JUMPDEST PUSH2 0x24ED SWAP1 PUSH1 0x0 RETURNDATASIZE DUP2 GT PUSH2 0x24F3 JUMPI JUMPDEST PUSH2 0x24E5 DUP2 DUP4 PUSH2 0x18C JUMP JUMPDEST DUP2 ADD SWAP1 PUSH2 0x1130 JUMP JUMPDEST CODESIZE PUSH2 0x2484 JUMP JUMPDEST POP RETURNDATASIZE PUSH2 0x24DB JUMP JUMPDEST PUSH2 0x11A1 JUMP JUMPDEST PUSH2 0x1125 JUMP JUMPDEST PUSH2 0x2524 SWAP1 PUSH1 0x0 RETURNDATASIZE DUP2 GT PUSH2 0x252A JUMPI JUMPDEST PUSH2 0x251C DUP2 DUP4 PUSH2 0x18C JUMP JUMPDEST DUP2 ADD SWAP1 PUSH2 0x1130 JUMP JUMPDEST CODESIZE PUSH2 0x2428 JUMP JUMPDEST POP RETURNDATASIZE PUSH2 0x2512 JUMP JUMPDEST PUSH2 0x11A1 JUMP JUMPDEST PUSH2 0x1125 JUMP JUMPDEST PUSH2 0x255B SWAP1 PUSH1 0x0 RETURNDATASIZE DUP2 GT PUSH2 0x2561 JUMPI JUMPDEST PUSH2 0x2553 DUP2 DUP4 PUSH2 0x18C JUMP JUMPDEST DUP2 ADD SWAP1 PUSH2 0x1130 JUMP JUMPDEST CODESIZE PUSH2 0x23CF JUMP JUMPDEST POP RETURNDATASIZE PUSH2 0x2549 JUMP JUMPDEST PUSH2 0x11A1 JUMP JUMPDEST PUSH2 0x1125 JUMP JUMPDEST PUSH1 0x60 SWAP1 JUMP JUMPDEST SLOAD SWAP1 JUMP JUMPDEST PUSH8 0xFFFFFFFFFFFFFFFF DUP2 GT PUSH2 0x2593 JUMPI PUSH1 0x20 DUP1 SWAP2 MUL ADD SWAP1 JUMP JUMPDEST PUSH2 0x176 JUMP JUMPDEST SWAP1 PUSH2 0x25AA PUSH2 0x25A5 DUP4 PUSH2 0x257B JUMP JUMPDEST PUSH2 0x1B5 JUMP JUMPDEST SWAP2 DUP3 MSTORE JUMP JUMPDEST PUSH1 0x0 MSTORE PUSH1 0x20 PUSH1 0x0 KECCAK256 SWAP1 JUMP JUMPDEST PUSH1 0x1 DUP1 PUSH1 0xA0 SHL SUB AND SWAP1 JUMP JUMPDEST PUSH2 0x25D1 PUSH2 0x25D6 SWAP2 PUSH2 0x10FE JUMP JUMPDEST PUSH2 0x25BA JUMP JUMPDEST SWAP1 JUMP JUMPDEST PUSH2 0x25E3 SWAP1 SLOAD PUSH2 0x25C5 JUMP JUMPDEST SWAP1 JUMP JUMPDEST SWAP1 PUSH2 0x25F0 SWAP1 PUSH2 0x132 JUMP JUMPDEST SWAP1 MSTORE JUMP JUMPDEST SWAP1 PUSH1 0x0 SWAP3 SWAP2 DUP1 SLOAD SWAP1 PUSH2 0x260F PUSH2 0x2608 DUP4 PUSH2 0x1F2E JUMP JUMPDEST DUP1 SWAP5 PUSH2 0x52D JUMP JUMPDEST SWAP2 PUSH1 0x1 DUP2 AND SWAP1 DUP2 PUSH1 0x0 EQ PUSH2 0x2668 JUMPI POP PUSH1 0x1 EQ PUSH2 0x262B JUMPI JUMPDEST POP POP POP JUMP JUMPDEST PUSH2 0x2638 SWAP2 SWAP3 SWAP4 SWAP5 POP PUSH2 0x1F58 JUMP JUMPDEST SWAP2 PUSH1 0x0 SWAP3 JUMPDEST DUP2 DUP5 LT PUSH2 0x2650 JUMPI POP POP ADD SWAP1 CODESIZE DUP1 DUP1 PUSH2 0x2626 JUMP JUMPDEST PUSH1 0x1 DUP2 PUSH1 0x20 SWAP3 SWAP6 SWAP4 SWAP6 SLOAD DUP5 DUP7 ADD MSTORE ADD SWAP2 ADD SWAP3 SWAP1 PUSH2 0x263D JUMP JUMPDEST SWAP3 SWAP5 SWAP6 POP POP POP PUSH1 0xFF NOT AND DUP3 MSTORE ISZERO ISZERO PUSH1 0x20 MUL ADD SWAP1 CODESIZE DUP1 DUP1 PUSH2 0x2626 JUMP JUMPDEST SWAP1 PUSH2 0x268D SWAP2 PUSH2 0x25F4 JUMP JUMPDEST SWAP1 JUMP JUMPDEST SWAP1 PUSH2 0x26B0 PUSH2 0x26A9 SWAP3 PUSH2 0x26A0 PUSH2 0x112 JUMP JUMPDEST SWAP4 DUP5 DUP1 SWAP3 PUSH2 0x2683 JUMP JUMPDEST SUB DUP4 PUSH2 0x18C JUMP JUMPDEST JUMP JUMPDEST MSTORE JUMP JUMPDEST SWAP1 JUMP JUMPDEST PUSH2 0x26C4 PUSH2 0x26C9 SWAP2 PUSH2 0x10FE JUMP JUMPDEST PUSH2 0x26B5 JUMP JUMPDEST SWAP1 JUMP JUMPDEST PUSH2 0x26D6 SWAP1 SLOAD PUSH2 0x26B8 JUMP JUMPDEST SWAP1 JUMP JUMPDEST SWAP1 PUSH2 0x26E3 SWAP1 PUSH2 0x4AE JUMP JUMPDEST SWAP1 MSTORE JUMP JUMPDEST PUSH2 0x26F1 PUSH1 0x60 PUSH2 0x1B5 JUMP JUMPDEST SWAP1 JUMP JUMPDEST SWAP1 PUSH2 0x2745 PUSH2 0x273C PUSH1 0x2 PUSH2 0x2705 PUSH2 0x26E7 JUMP JUMPDEST SWAP5 PUSH2 0x271E PUSH2 0x2715 PUSH1 0x0 DUP4 ADD PUSH2 0x25D9 JUMP JUMPDEST PUSH1 0x0 DUP9 ADD PUSH2 0x25E6 JUMP JUMPDEST PUSH2 0x2736 PUSH2 0x272D PUSH1 0x1 DUP4 ADD PUSH2 0x2690 JUMP JUMPDEST PUSH1 0x20 DUP9 ADD PUSH2 0x26B2 JUMP JUMPDEST ADD PUSH2 0x26CC JUMP JUMPDEST PUSH1 0x40 DUP5 ADD PUSH2 0x26D9 JUMP JUMPDEST JUMP JUMPDEST PUSH2 0x2750 SWAP1 PUSH2 0x26F4 JUMP JUMPDEST SWAP1 JUMP JUMPDEST SWAP1 PUSH2 0x275D DUP3 PUSH2 0x2577 JUMP JUMPDEST PUSH2 0x2766 DUP2 PUSH2 0x2598 JUMP JUMPDEST SWAP3 PUSH2 0x2774 PUSH1 0x20 DUP6 ADD SWAP2 PUSH2 0x25AF JUMP JUMPDEST PUSH1 0x0 SWAP2 JUMPDEST DUP4 DUP4 LT PUSH2 0x2785 JUMPI POP POP POP POP JUMP JUMPDEST PUSH1 0x3 PUSH1 0x20 PUSH1 0x1 SWAP3 PUSH2 0x2795 DUP6 PUSH2 0x2747 JUMP JUMPDEST DUP2 MSTORE ADD SWAP3 ADD SWAP3 ADD SWAP2 SWAP1 PUSH2 0x2778 JUMP JUMPDEST PUSH2 0x27AC SWAP1 PUSH2 0x2753 JUMP JUMPDEST SWAP1 JUMP JUMPDEST PUSH2 0x27B7 PUSH2 0x2572 JUMP JUMPDEST POP PUSH2 0x27CC PUSH2 0x27C7 PUSH1 0x3 CALLER SWAP1 PUSH2 0x1E20 JUMP JUMPDEST PUSH2 0x27A3 JUMP JUMPDEST SWAP1 JUMP JUMPDEST SLOAD SWAP1 JUMP JUMPDEST PUSH2 0x27E7 PUSH2 0x27E2 PUSH2 0x27EC SWAP3 PUSH2 0x1C6D JUMP JUMPDEST PUSH2 0x814 JUMP JUMPDEST PUSH2 0x4AE JUMP JUMPDEST SWAP1 JUMP JUMPDEST PUSH1 0x0 PUSH32 0x6368696C64206E6F7420666F756E640000000000000000000000000000000000 SWAP2 ADD MSTORE JUMP JUMPDEST PUSH2 0x2824 PUSH1 0xF PUSH1 0x20 SWAP3 PUSH2 0x1140 JUMP JUMPDEST PUSH2 0x282D DUP2 PUSH2 0x27EF JUMP JUMPDEST ADD SWAP1 JUMP JUMPDEST PUSH2 0x2847 SWAP1 PUSH1 0x20 DUP2 ADD SWAP1 PUSH1 0x0 DUP2 DUP4 SUB SWAP2 ADD MSTORE PUSH2 0x2817 JUMP JUMPDEST SWAP1 JUMP JUMPDEST ISZERO PUSH2 0x2851 JUMPI JUMP JUMPDEST PUSH2 0x2859 PUSH2 0x112 JUMP JUMPDEST PUSH3 0x461BCD PUSH1 0xE5 SHL DUP2 MSTORE DUP1 PUSH2 0x286F PUSH1 0x4 DUP3 ADD PUSH2 0x2831 JUMP JUMPDEST SUB SWAP1 REVERT JUMPDEST PUSH1 0x1 PUSH2 0x287F SWAP2 ADD PUSH2 0x4AE JUMP JUMPDEST SWAP1 JUMP JUMPDEST PUSH1 0x0 PUSH32 0x416C7265616479206C696E6B656420746F2074686973206368696C6400000000 SWAP2 ADD MSTORE JUMP JUMPDEST PUSH2 0x28B7 PUSH1 0x1C PUSH1 0x20 SWAP3 PUSH2 0x1140 JUMP JUMPDEST PUSH2 0x28C0 DUP2 PUSH2 0x2882 JUMP JUMPDEST ADD SWAP1 JUMP JUMPDEST PUSH2 0x28DA SWAP1 PUSH1 0x20 DUP2 ADD SWAP1 PUSH1 0x0 DUP2 DUP4 SUB SWAP2 ADD MSTORE PUSH2 0x28AA JUMP JUMPDEST SWAP1 JUMP JUMPDEST ISZERO PUSH2 0x28E4 JUMPI JUMP JUMPDEST PUSH2 0x28EC PUSH2 0x112 JUMP JUMPDEST PUSH3 0x461BCD PUSH1 0xE5 SHL DUP2 MSTORE DUP1 PUSH2 0x2902 PUSH1 0x4 DUP3 ADD PUSH2 0x28C4 JUMP JUMPDEST SUB SWAP1 REVERT JUMPDEST PUSH1 0x0 MSTORE PUSH1 0x20 PUSH1 0x0 KECCAK256 SWAP1 JUMP JUMPDEST PUSH2 0x291A DUP2 PUSH2 0x27CF JUMP JUMPDEST DUP3 LT ISZERO PUSH2 0x2935 JUMPI PUSH2 0x292C PUSH1 0x1 SWAP2 PUSH2 0x2906 JUMP JUMPDEST SWAP2 MUL ADD SWAP1 PUSH1 0x0 SWAP1 JUMP JUMPDEST PUSH2 0x1E3F JUMP JUMPDEST PUSH2 0x294A SWAP1 PUSH1 0x8 PUSH2 0x294F SWAP4 MUL PUSH2 0x7CF JUMP JUMPDEST PUSH2 0x25BA JUMP JUMPDEST SWAP1 JUMP JUMPDEST SWAP1 PUSH2 0x295D SWAP2 SLOAD PUSH2 0x293A JUMP JUMPDEST SWAP1 JUMP JUMPDEST PUSH2 0x2969 DUP2 PUSH2 0x2577 JUMP JUMPDEST DUP3 LT ISZERO PUSH2 0x2984 JUMPI PUSH2 0x297B PUSH1 0x3 SWAP2 PUSH2 0x25AF JUMP JUMPDEST SWAP2 MUL ADD SWAP1 PUSH1 0x0 SWAP1 JUMP JUMPDEST PUSH2 0x1E3F JUMP JUMPDEST PUSH2 0x2993 SWAP1 SLOAD PUSH2 0x1F2E JUMP JUMPDEST SWAP1 JUMP JUMPDEST SWAP1 DUP1 DUP3 EQ PUSH2 0x2A78 JUMPI PUSH2 0x29A7 DUP2 PUSH2 0x2989 JUMP JUMPDEST SWAP1 PUSH8 0xFFFFFFFFFFFFFFFF DUP3 GT PUSH2 0x2A73 JUMPI PUSH2 0x29CB DUP3 PUSH2 0x29C5 DUP6 SLOAD PUSH2 0x1F2E JUMP JUMPDEST DUP6 PUSH2 0x1FF5 JUMP JUMPDEST PUSH1 0x0 SWAP1 PUSH1 0x1F DUP4 GT PUSH1 0x1 EQ PUSH2 0x2A00 JUMPI SWAP2 DUP1 SWAP2 PUSH2 0x29EF SWAP4 PUSH1 0x0 SWAP3 PUSH2 0x29F4 JUMPI JUMPDEST POP POP PUSH2 0x2062 JUMP JUMPDEST SWAP1 SSTORE JUMPDEST JUMP JUMPDEST SWAP1 SWAP2 POP ADD SLOAD CODESIZE DUP1 PUSH2 0x29E8 JUMP JUMPDEST SWAP1 PUSH2 0x2A0F PUSH1 0x1F NOT DUP5 AND SWAP3 PUSH2 0x1F58 JUMP JUMPDEST SWAP1 PUSH2 0x2A19 DUP6 PUSH2 0x1F58 JUMP JUMPDEST SWAP3 PUSH1 0x0 JUMPDEST DUP2 DUP2 LT PUSH2 0x2A5B JUMPI POP SWAP2 PUSH1 0x2 SWAP4 SWAP2 DUP6 PUSH1 0x1 SWAP7 SWAP5 LT PUSH2 0x2A41 JUMPI JUMPDEST POP POP POP MUL ADD SWAP1 SSTORE PUSH2 0x29F2 JUMP JUMPDEST PUSH2 0x2A51 SWAP2 ADD SLOAD PUSH1 0x1F DUP5 AND SWAP1 PUSH2 0x204C JUMP JUMPDEST SWAP1 SSTORE CODESIZE DUP1 DUP1 PUSH2 0x2A35 JUMP JUMPDEST SWAP2 SWAP4 PUSH1 0x1 DUP1 PUSH1 0x20 SWAP3 DUP8 DUP8 ADD SLOAD DUP2 SSTORE ADD SWAP6 ADD SWAP3 ADD PUSH2 0x2A1D JUMP JUMPDEST PUSH2 0x176 JUMP JUMPDEST POP POP JUMP JUMPDEST SWAP1 PUSH2 0x2A86 SWAP2 PUSH2 0x2996 JUMP JUMPDEST JUMP JUMPDEST SWAP1 DUP1 DUP3 SUB PUSH2 0x2A95 JUMPI JUMPDEST POP POP JUMP JUMPDEST PUSH2 0x2AD1 PUSH1 0x2 DUP1 DUP5 PUSH2 0x2AB8 PUSH1 0x0 PUSH2 0x2AD7 SWAP8 ADD PUSH2 0x2AB2 PUSH1 0x0 DUP9 ADD PUSH2 0x25D9 JUMP JUMPDEST SWAP1 PUSH2 0x1EE2 JUMP JUMPDEST PUSH2 0x2AC9 PUSH1 0x1 DUP3 ADD PUSH1 0x1 DUP8 ADD SWAP1 PUSH2 0x2A7C JUMP JUMPDEST ADD SWAP3 ADD PUSH2 0x26CC JUMP JUMPDEST SWAP1 PUSH2 0x2168 JUMP JUMPDEST CODESIZE DUP1 PUSH2 0x2A91 JUMP JUMPDEST SWAP2 SWAP1 PUSH2 0x2AEF JUMPI PUSH2 0x2AED SWAP2 PUSH2 0x2A88 JUMP JUMPDEST JUMP JUMPDEST PUSH2 0x1F02 JUMP JUMPDEST SWAP1 DUP2 SLOAD SWAP2 PUSH9 0x10000000000000000 DUP4 LT ISZERO PUSH2 0x2B24 JUMPI DUP3 PUSH2 0x2B1C SWAP2 PUSH1 0x1 PUSH2 0x2B22 SWAP6 ADD DUP2 SSTORE PUSH2 0x1E60 JUMP JUMPDEST SWAP1 PUSH2 0x2ADE JUMP JUMPDEST JUMP JUMPDEST PUSH2 0x176 JUMP JUMPDEST PUSH2 0x2B5A PUSH2 0x2B40 PUSH2 0x2B3B PUSH1 0x4 DUP5 SWAP1 PUSH2 0x2188 JUMP JUMPDEST PUSH2 0x27CF JUMP JUMPDEST PUSH2 0x2B53 PUSH2 0x2B4D PUSH1 0x0 PUSH2 0x27D3 JUMP JUMPDEST SWAP2 PUSH2 0x4AE JUMP JUMPDEST EQ ISZERO PUSH2 0x284A JUMP JUMPDEST PUSH2 0x2B6E PUSH2 0x2B69 PUSH1 0x3 CALLER SWAP1 PUSH2 0x1E20 JUMP JUMPDEST PUSH2 0x1E38 JUMP JUMPDEST PUSH2 0x2B78 PUSH1 0x0 PUSH2 0x27D3 JUMP JUMPDEST JUMPDEST DUP1 PUSH2 0x2B94 PUSH2 0x2B8E PUSH2 0x2B89 DUP6 PUSH2 0x1E3B JUMP JUMPDEST PUSH2 0x4AE JUMP JUMPDEST SWAP2 PUSH2 0x4AE JUMP JUMPDEST LT ISZERO PUSH2 0x2BDB JUMPI PUSH2 0x2BD6 SWAP1 PUSH2 0x2BD1 PUSH2 0x2BB8 PUSH1 0x0 PUSH2 0x2BB1 DUP7 DUP6 SWAP1 PUSH2 0x1E60 JUMP JUMPDEST POP ADD PUSH2 0x25D9 JUMP JUMPDEST PUSH2 0x2BCA PUSH2 0x2BC4 DUP8 PUSH2 0x132 JUMP JUMPDEST SWAP2 PUSH2 0x132 JUMP JUMPDEST EQ ISZERO PUSH2 0x28DD JUMP JUMPDEST PUSH2 0x2873 JUMP JUMPDEST PUSH2 0x2B79 JUMP JUMPDEST POP POP PUSH2 0x2C40 PUSH2 0x2C27 PUSH2 0x2C21 PUSH2 0x2C06 PUSH2 0x2C00 PUSH2 0x2BF8 PUSH1 0x4 DUP8 SWAP1 PUSH2 0x2188 JUMP JUMPDEST PUSH1 0x0 SWAP1 PUSH2 0x2911 JUMP JUMPDEST SWAP1 PUSH2 0x2952 JUMP JUMPDEST PUSH2 0x2C1C PUSH2 0x2C14 DUP3 DUP8 SWAP1 PUSH2 0x3357 JUMP JUMPDEST SWAP2 PUSH1 0x3 PUSH2 0x1E20 JUMP JUMPDEST PUSH2 0x2960 JUMP JUMPDEST POP PUSH2 0x1EBB JUMP JUMPDEST PUSH2 0x2C3B PUSH2 0x2C36 PUSH1 0x3 CALLER SWAP1 PUSH2 0x1E20 JUMP JUMPDEST PUSH2 0x1E38 JUMP JUMPDEST PUSH2 0x2AF4 JUMP JUMPDEST PUSH2 0x2C5E PUSH2 0x2C57 PUSH2 0x2C52 PUSH1 0x4 DUP5 SWAP1 PUSH2 0x2188 JUMP JUMPDEST PUSH2 0x21A0 JUMP JUMPDEST CALLER SWAP1 PUSH2 0x2227 JUMP JUMPDEST CALLER SWAP1 PUSH2 0x2C93 PUSH2 0x2C8D PUSH32 0x67A834331CE532B16F83BFC8251D8EB0EB155BA5E222FA98D74D93C9907FEDAC SWAP4 PUSH2 0x1E14 JUMP JUMPDEST SWAP2 PUSH2 0x1E14 JUMP JUMPDEST SWAP2 PUSH2 0x2C9C PUSH2 0x112 JUMP JUMPDEST DUP1 PUSH2 0x2CA6 DUP2 PUSH2 0x298 JUMP JUMPDEST SUB SWAP1 LOG3 JUMP JUMPDEST PUSH2 0x2CB5 PUSH1 0x40 PUSH2 0x1B5 JUMP JUMPDEST SWAP1 JUMP JUMPDEST PUSH1 0x0 SWAP1 JUMP JUMPDEST PUSH2 0x2CC5 PUSH2 0x2CAB JUMP JUMPDEST SWAP1 PUSH1 0x20 DUP1 DUP4 PUSH2 0x2CD2 PUSH2 0x2CB8 JUMP JUMPDEST DUP2 MSTORE ADD PUSH2 0x2CDD PUSH2 0x2CB8 JUMP JUMPDEST DUP2 MSTORE POP POP JUMP JUMPDEST PUSH2 0x2CEB PUSH2 0x2CBD JUMP JUMPDEST SWAP1 JUMP JUMPDEST SWAP2 SWAP1 PUSH1 0x40 DUP4 DUP3 SUB SLT PUSH2 0x2D2A JUMPI PUSH2 0x2D23 SWAP1 PUSH2 0x2D08 PUSH1 0x40 PUSH2 0x1B5 JUMP JUMPDEST SWAP4 PUSH2 0x2D16 DUP3 PUSH1 0x0 DUP4 ADD PUSH2 0x1556 JUMP JUMPDEST PUSH1 0x0 DUP7 ADD MSTORE PUSH1 0x20 ADD PUSH2 0x1556 JUMP JUMPDEST PUSH1 0x20 DUP4 ADD MSTORE JUMP JUMPDEST PUSH2 0x14CF JUMP JUMPDEST SWAP1 PUSH1 0x40 DUP3 DUP3 SUB SLT PUSH2 0x2D49 JUMPI PUSH2 0x2D46 SWAP2 PUSH1 0x0 ADD PUSH2 0x2CEE JUMP JUMPDEST SWAP1 JUMP JUMPDEST PUSH2 0x11D JUMP JUMPDEST PUSH1 0x40 PUSH2 0x2D96 SWAP2 PUSH2 0x2D5C PUSH2 0x2CE3 JUMP JUMPDEST POP PUSH2 0x2D6F PUSH2 0x2D6A PUSH1 0x0 PUSH2 0x13C2 JUMP JUMPDEST PUSH2 0x8E2 JUMP JUMPDEST PUSH2 0x2D8B PUSH4 0xAA65A43E PUSH2 0x2D7F PUSH2 0x112 JUMP JUMPDEST SWAP6 DUP7 SWAP5 DUP6 SWAP4 DUP5 SWAP4 PUSH2 0x112A JUMP JUMPDEST DUP4 MSTORE PUSH1 0x4 DUP4 ADD PUSH2 0xCBD JUMP JUMPDEST SUB SWAP2 GAS STATICCALL SWAP1 DUP2 ISZERO PUSH2 0x2DDB JUMPI PUSH1 0x0 SWAP2 PUSH2 0x2DAD JUMPI JUMPDEST POP SWAP1 JUMP JUMPDEST PUSH2 0x2DCE SWAP2 POP PUSH1 0x40 RETURNDATASIZE DUP2 GT PUSH2 0x2DD4 JUMPI JUMPDEST PUSH2 0x2DC6 DUP2 DUP4 PUSH2 0x18C JUMP JUMPDEST DUP2 ADD SWAP1 PUSH2 0x2D2F JUMP JUMPDEST CODESIZE PUSH2 0x2DA9 JUMP JUMPDEST POP RETURNDATASIZE PUSH2 0x2DBC JUMP JUMPDEST PUSH2 0x11A1 JUMP JUMPDEST PUSH1 0x0 PUSH32 0x4E6F206368696C6420666F756E64000000000000000000000000000000000000 SWAP2 ADD MSTORE JUMP JUMPDEST PUSH2 0x2E15 PUSH1 0xE PUSH1 0x20 SWAP3 PUSH2 0x1140 JUMP JUMPDEST PUSH2 0x2E1E DUP2 PUSH2 0x2DE0 JUMP JUMPDEST ADD SWAP1 JUMP JUMPDEST PUSH2 0x2E38 SWAP1 PUSH1 0x20 DUP2 ADD SWAP1 PUSH1 0x0 DUP2 DUP4 SUB SWAP2 ADD MSTORE PUSH2 0x2E08 JUMP JUMPDEST SWAP1 JUMP JUMPDEST ISZERO PUSH2 0x2E42 JUMPI JUMP JUMPDEST PUSH2 0x2E4A PUSH2 0x112 JUMP JUMPDEST PUSH3 0x461BCD PUSH1 0xE5 SHL DUP2 MSTORE DUP1 PUSH2 0x2E60 PUSH1 0x4 DUP3 ADD PUSH2 0x2E22 JUMP JUMPDEST SUB SWAP1 REVERT JUMPDEST SWAP1 PUSH1 0x0 SWAP3 SWAP2 DUP1 SLOAD SWAP1 PUSH2 0x2E7F PUSH2 0x2E78 DUP4 PUSH2 0x1F2E JUMP JUMPDEST DUP1 SWAP5 PUSH2 0x1D4F JUMP JUMPDEST SWAP2 PUSH1 0x1 DUP2 AND SWAP1 DUP2 PUSH1 0x0 EQ PUSH2 0x2ED3 JUMPI POP PUSH1 0x1 EQ PUSH2 0x2E9B JUMPI JUMPDEST POP POP POP JUMP JUMPDEST PUSH2 0x2EA8 SWAP2 SWAP3 SWAP4 SWAP5 POP PUSH2 0x1F58 JUMP JUMPDEST PUSH1 0x0 SWAP1 JUMPDEST DUP4 DUP3 LT PUSH2 0x2EBF JUMPI POP POP ADD SWAP1 CODESIZE DUP1 DUP1 PUSH2 0x2E96 JUMP JUMPDEST PUSH1 0x1 DUP2 PUSH1 0x20 SWAP3 SLOAD DUP5 DUP7 ADD MSTORE ADD SWAP2 ADD SWAP1 PUSH2 0x2EAC JUMP JUMPDEST SWAP3 SWAP5 SWAP6 POP POP POP PUSH1 0xFF NOT AND DUP3 MSTORE DUP1 ISZERO ISZERO MUL ADD SWAP1 CODESIZE DUP1 DUP1 PUSH2 0x2E96 JUMP JUMPDEST PUSH2 0x2EF6 SWAP2 PUSH2 0x2E64 JUMP JUMPDEST SWAP1 JUMP JUMPDEST PUSH2 0x2F02 SWAP2 PUSH2 0x1D54 JUMP JUMPDEST SWAP1 JUMP JUMPDEST SWAP1 JUMP JUMPDEST PUSH1 0x20 PUSH32 0x6E64000000000000000000000000000000000000000000000000000000000000 SWAP2 PUSH32 0x6368696C642077697468207468652067697665206E616D65206E6F7420666F75 PUSH1 0x0 DUP3 ADD MSTORE ADD MSTORE JUMP JUMPDEST PUSH2 0x2F63 PUSH1 0x22 PUSH1 0x40 SWAP3 PUSH2 0x1140 JUMP JUMPDEST PUSH2 0x2F6C DUP2 PUSH2 0x2F08 JUMP JUMPDEST ADD SWAP1 JUMP JUMPDEST PUSH2 0x2F86 SWAP1 PUSH1 0x20 DUP2 ADD SWAP1 PUSH1 0x0 DUP2 DUP4 SUB SWAP2 ADD MSTORE PUSH2 0x2F56 JUMP JUMPDEST SWAP1 JUMP JUMPDEST PUSH2 0x2F91 PUSH2 0x1C68 JUMP JUMPDEST POP PUSH2 0x2FA6 PUSH2 0x2FA1 PUSH1 0x3 CALLER SWAP1 PUSH2 0x1E20 JUMP JUMPDEST PUSH2 0x1E38 JUMP JUMPDEST PUSH2 0x2FAF DUP2 PUSH2 0x1E3B JUMP JUMPDEST SWAP2 PUSH2 0x2FCD DUP4 PUSH2 0x2FC7 PUSH2 0x2FC1 PUSH1 0x0 PUSH2 0x27D3 JUMP JUMPDEST SWAP2 PUSH2 0x4AE JUMP JUMPDEST GT PUSH2 0x2E3B JUMP JUMPDEST PUSH2 0x2FD7 PUSH1 0x0 PUSH2 0x27D3 JUMP JUMPDEST JUMPDEST DUP1 PUSH2 0x2FEB PUSH2 0x2FE5 DUP7 PUSH2 0x4AE JUMP JUMPDEST SWAP2 PUSH2 0x4AE JUMP JUMPDEST LT ISZERO PUSH2 0x30B9 JUMPI PUSH2 0x301A PUSH2 0x3029 PUSH1 0x1 PUSH2 0x3004 DUP7 DUP6 SWAP1 PUSH2 0x1E60 JUMP JUMPDEST POP ADD PUSH2 0x300E PUSH2 0x112 JUMP JUMPDEST SWAP3 DUP4 SWAP2 PUSH1 0x20 DUP4 ADD PUSH2 0x2EED JUMP JUMPDEST PUSH1 0x20 DUP3 ADD DUP2 SUB DUP3 MSTORE SUB DUP3 PUSH2 0x18C JUMP JUMPDEST PUSH2 0x303B PUSH2 0x3035 DUP3 PUSH2 0x1DC4 JUMP JUMPDEST SWAP2 PUSH2 0x1DBE JUMP JUMPDEST KECCAK256 PUSH2 0x308A PUSH2 0x3084 PUSH2 0x305D PUSH2 0x306C DUP7 PUSH2 0x3051 PUSH2 0x112 JUMP JUMPDEST SWAP3 DUP4 SWAP2 PUSH1 0x20 DUP4 ADD PUSH2 0x2EF9 JUMP JUMPDEST PUSH1 0x20 DUP3 ADD DUP2 SUB DUP3 MSTORE SUB DUP3 PUSH2 0x18C JUMP JUMPDEST PUSH2 0x307E PUSH2 0x3078 DUP3 PUSH2 0x1DC4 JUMP JUMPDEST SWAP2 PUSH2 0x1DBE JUMP JUMPDEST KECCAK256 PUSH2 0x2F05 JUMP JUMPDEST SWAP2 PUSH2 0x2F05 JUMP JUMPDEST EQ PUSH2 0x309D JUMPI PUSH2 0x3098 SWAP1 PUSH2 0x2873 JUMP JUMPDEST PUSH2 0x2FD8 JUMP JUMPDEST PUSH2 0x30B6 SWAP4 POP PUSH2 0x30AF SWAP2 POP PUSH1 0x0 SWAP3 PUSH2 0x1E60 JUMP JUMPDEST POP ADD PUSH2 0x25D9 JUMP JUMPDEST SWAP1 JUMP JUMPDEST PUSH2 0x30C1 PUSH2 0x112 JUMP JUMPDEST PUSH3 0x461BCD PUSH1 0xE5 SHL DUP2 MSTORE DUP1 PUSH2 0x30D7 PUSH1 0x4 DUP3 ADD PUSH2 0x2F70 JUMP JUMPDEST SUB SWAP1 REVERT JUMPDEST PUSH2 0x30E5 PUSH1 0x40 PUSH2 0x1B5 JUMP JUMPDEST SWAP1 JUMP JUMPDEST PUSH1 0x60 SWAP1 JUMP JUMPDEST PUSH2 0x30F5 PUSH2 0x30DB JUMP JUMPDEST SWAP1 PUSH1 0x20 DUP1 DUP4 PUSH2 0x3102 PUSH2 0x30E8 JUMP JUMPDEST DUP2 MSTORE ADD PUSH2 0x310D PUSH2 0x30E8 JUMP JUMPDEST DUP2 MSTORE POP POP JUMP JUMPDEST PUSH2 0x311B PUSH2 0x30ED JUMP JUMPDEST SWAP1 JUMP JUMPDEST PUSH8 0xFFFFFFFFFFFFFFFF DUP2 GT PUSH2 0x3136 JUMPI PUSH1 0x20 DUP1 SWAP2 MUL ADD SWAP1 JUMP JUMPDEST PUSH2 0x176 JUMP JUMPDEST SWAP3 SWAP2 SWAP1 PUSH2 0x314F PUSH2 0x314A DUP3 PUSH2 0x311E JUMP JUMPDEST PUSH2 0x1B5 JUMP JUMPDEST SWAP4 DUP2 DUP6 MSTORE PUSH1 0x20 DUP1 DUP7 ADD SWAP3 MUL DUP2 ADD SWAP2 DUP4 DUP4 GT PUSH2 0x31A6 JUMPI DUP2 SWAP1 JUMPDEST DUP4 DUP3 LT PUSH2 0x3175 JUMPI POP POP POP POP POP JUMP JUMPDEST DUP2 MLOAD PUSH8 0xFFFFFFFFFFFFFFFF DUP2 GT PUSH2 0x31A1 JUMPI PUSH1 0x20 SWAP2 PUSH2 0x3196 DUP8 DUP5 SWAP4 DUP8 ADD PUSH2 0x1592 JUMP JUMPDEST DUP2 MSTORE ADD SWAP2 ADD SWAP1 PUSH2 0x3167 JUMP JUMPDEST PUSH2 0x162 JUMP JUMPDEST PUSH2 0xB16 JUMP JUMPDEST SWAP1 DUP1 PUSH1 0x1F DUP4 ADD SLT ISZERO PUSH2 0x31C9 JUMPI DUP2 PUSH1 0x20 PUSH2 0x31C6 SWAP4 MLOAD SWAP2 ADD PUSH2 0x313B JUMP JUMPDEST SWAP1 JUMP JUMPDEST PUSH2 0x162 JUMP JUMPDEST SWAP2 SWAP1 SWAP2 PUSH1 0x40 DUP2 DUP5 SUB SLT PUSH2 0x323A JUMPI PUSH2 0x31E5 PUSH1 0x40 PUSH2 0x1B5 JUMP JUMPDEST SWAP3 PUSH1 0x0 DUP3 ADD MLOAD PUSH8 0xFFFFFFFFFFFFFFFF DUP2 GT PUSH2 0x3235 JUMPI DUP2 PUSH2 0x3206 SWAP2 DUP5 ADD PUSH2 0x31AB JUMP JUMPDEST PUSH1 0x0 DUP6 ADD MSTORE PUSH1 0x20 DUP3 ADD MLOAD PUSH8 0xFFFFFFFFFFFFFFFF DUP2 GT PUSH2 0x3230 JUMPI PUSH2 0x3229 SWAP3 ADD PUSH2 0x31AB JUMP JUMPDEST PUSH1 0x20 DUP4 ADD MSTORE JUMP JUMPDEST PUSH2 0x14D4 JUMP JUMPDEST PUSH2 0x14D4 JUMP JUMPDEST PUSH2 0x14CF JUMP JUMPDEST SWAP1 PUSH1 0x20 DUP3 DUP3 SUB SLT PUSH2 0x3270 JUMPI PUSH1 0x0 DUP3 ADD MLOAD PUSH8 0xFFFFFFFFFFFFFFFF DUP2 GT PUSH2 0x326B JUMPI PUSH2 0x3268 SWAP3 ADD PUSH2 0x31CE JUMP JUMPDEST SWAP1 JUMP JUMPDEST PUSH2 0x122 JUMP JUMPDEST PUSH2 0x11D JUMP JUMPDEST PUSH1 0x0 PUSH2 0x32BD SWAP2 PUSH2 0x3283 PUSH2 0x3113 JUMP JUMPDEST POP PUSH2 0x3296 PUSH2 0x3291 PUSH1 0x2 PUSH2 0x1118 JUMP JUMPDEST PUSH2 0x83F JUMP JUMPDEST PUSH2 0x32B2 PUSH4 0xEB607DB1 PUSH2 0x32A6 PUSH2 0x112 JUMP JUMPDEST SWAP6 DUP7 SWAP5 DUP6 SWAP4 DUP5 SWAP4 PUSH2 0x112A JUMP JUMPDEST DUP4 MSTORE PUSH1 0x4 DUP4 ADD PUSH2 0xCBD JUMP JUMPDEST SUB SWAP2 GAS STATICCALL SWAP1 DUP2 ISZERO PUSH2 0x32F7 JUMPI PUSH1 0x0 SWAP2 PUSH2 0x32D4 JUMPI JUMPDEST POP SWAP1 JUMP JUMPDEST PUSH2 0x32F1 SWAP2 POP RETURNDATASIZE DUP1 PUSH1 0x0 DUP4 RETURNDATACOPY PUSH2 0x32E9 DUP2 DUP4 PUSH2 0x18C JUMP JUMPDEST DUP2 ADD SWAP1 PUSH2 0x323F JUMP JUMPDEST CODESIZE PUSH2 0x32D0 JUMP JUMPDEST PUSH2 0x11A1 JUMP JUMPDEST PUSH1 0x0 PUSH32 0x4368696C64206E6F7420666F756E640000000000000000000000000000000000 SWAP2 ADD MSTORE JUMP JUMPDEST PUSH2 0x3331 PUSH1 0xF PUSH1 0x20 SWAP3 PUSH2 0x1140 JUMP JUMPDEST PUSH2 0x333A DUP2 PUSH2 0x32FC JUMP JUMPDEST ADD SWAP1 JUMP JUMPDEST PUSH2 0x3354 SWAP1 PUSH1 0x20 DUP2 ADD SWAP1 PUSH1 0x0 DUP2 DUP4 SUB SWAP2 ADD MSTORE PUSH2 0x3324 JUMP JUMPDEST SWAP1 JUMP JUMPDEST PUSH2 0x336E PUSH2 0x3373 SWAP2 PUSH2 0x3366 PUSH2 0x1FBC JUMP JUMPDEST POP PUSH1 0x3 PUSH2 0x1E20 JUMP JUMPDEST PUSH2 0x1E38 JUMP JUMPDEST SWAP1 PUSH2 0x337E PUSH1 0x0 PUSH2 0x27D3 JUMP JUMPDEST JUMPDEST DUP1 PUSH2 0x339A PUSH2 0x3394 PUSH2 0x338F DUP7 PUSH2 0x1E3B JUMP JUMPDEST PUSH2 0x4AE JUMP JUMPDEST SWAP2 PUSH2 0x4AE JUMP JUMPDEST LT ISZERO PUSH2 0x33E2 JUMPI PUSH2 0x33B7 PUSH1 0x0 PUSH2 0x33B0 DUP6 DUP5 SWAP1 PUSH2 0x1E60 JUMP JUMPDEST POP ADD PUSH2 0x25D9 JUMP JUMPDEST PUSH2 0x33C9 PUSH2 0x33C3 DUP5 PUSH2 0x132 JUMP JUMPDEST SWAP2 PUSH2 0x132 JUMP JUMPDEST EQ PUSH2 0x33DC JUMPI PUSH2 0x33D7 SWAP1 PUSH2 0x2873 JUMP JUMPDEST PUSH2 0x337F JUMP JUMPDEST SWAP2 POP POP SWAP1 JUMP JUMPDEST PUSH2 0x33EA PUSH2 0x112 JUMP JUMPDEST PUSH3 0x461BCD PUSH1 0xE5 SHL DUP2 MSTORE DUP1 PUSH2 0x3400 PUSH1 0x4 DUP3 ADD PUSH2 0x333E JUMP JUMPDEST SUB SWAP1 REVERT INVALID LOG2 PUSH5 0x6970667358 0x22 SLT KECCAK256 0xB6 SWAP11 0xC MULMOD 0x4B CALLDATASIZE PUSH22 0x205983BDC5738E1B64FB01F40B52F3984E9334A38E65 LOG1 PUSH1 0x8B PUSH5 0x736F6C6343 STOP ADDMOD SHL STOP CALLER "},"methodIdentifiers":{"addMedicalHistoryForChild(address,uint8,string,string,string,string,string)":"0bd17b47","connectChild(address)":"97ed8c09","createChild(string,uint256,uint16,uint16,string[])":"64d8300c","getHealthInformation(address)":"aa65a43e","getMedicalHistoriesForChild(address)":"431e79c4","getVaccinationDDay(address,uint256)":"375ffc73","healthInformationContract()":"3e030d06","medicalHistoryContract()":"c9d461c5","returnChildAddress(string)":"e50cde76","returnChildInformation()":"7ccf76c0","returnChildVaccinationStatus(address)":"eb607db1","setHealthInformation(address,uint16,uint16)":"1d58a59b","updateChildVaccination(address,string)":"00bcec27","updateMultipleChildVaccination(address,string[])":"647a6682","vaccinationManagementContract()":"3cfedb84"}}}}}