{"contracts/HealthInformation.sol":{"HealthInformation":{"abi":[{"inputs":[{"internalType":"address","name":"_childAddress","type":"address"}],"name":"getHealthInformation","outputs":[{"components":[{"internalType":"uint16","name":"height","type":"uint16"},{"internalType":"uint16","name":"weight","type":"uint16"}],"internalType":"struct HealthInformation.Information","name":"","type":"tuple"}],"stateMutability":"view","type":"function"},{"inputs":[{"internalType":"address","name":"_childAddress","type":"address"},{"components":[{"internalType":"uint16","name":"height","type":"uint16"},{"internalType":"uint16","name":"weight","type":"uint16"}],"internalType":"struct HealthInformation.Information","name":"_healthInfo","type":"tuple"}],"name":"setHealthInformation","outputs":[],"stateMutability":"nonpayable","type":"function"}],"evm":{"bytecode":{"linkReferences":{},"object":"608060405234601c57600e6020565b6104f361002c82396104f390f35b6026565b60405190565b600080fdfe60806040526004361015610013575b610262565b61001e60003561003d565b8063aa65a43e146100385763fef287720361000e5761022e565b6100fd565b60e01c90565b60405190565b600080fd5b600080fd5b60018060a01b031690565b61006790610053565b90565b6100738161005e565b0361007a57565b600080fd5b9050359061008c8261006a565b565b906020828203126100a8576100a59160000161007f565b90565b61004e565b61ffff1690565b6100bd906100ad565b9052565b906020806100e5936100db600082015160008601906100b4565b01519101906100b4565b565b91906100fb906000604085019401906100c1565b565b3461012d5761012961011861011336600461008e565b6103a1565b610120610043565b918291826100e7565b0390f35b610049565b600080fd5b601f801991011690565b634e487b7160e01b600052604160045260246000fd5b9061016190610137565b810190811067ffffffffffffffff82111761017b57604052565b610141565b9061019361018c610043565b9283610157565b565b61019e816100ad565b036101a557565b600080fd5b905035906101b782610195565b565b91906040838203126101f5576101ee906101d36040610180565b936101e182600083016101aa565b60008601526020016101aa565b6020830152565b610132565b91906060838203126102235780610217610220926000860161007f565b936020016101b9565b90565b61004e565b60000190565b3461025d576102476102413660046101fa565b906104a7565b61024f610043565b8061025981610228565b0390f35b610049565b600080fd5b6102716040610180565b90565b600090565b610281610267565b906020808361028e610274565b815201610299610274565b81525050565b6102a7610279565b90565b90565b6102c16102bc6102c692610053565b6102aa565b610053565b90565b6102d2906102ad565b90565b6102de906102c9565b90565b906102eb906102d5565b600052602052604060002090565b60001c90565b61ffff1690565b610312610317916102f9565b6102ff565b90565b6103249054610306565b90565b90610331906100ad565b9052565b60101c90565b61034761034c91610335565b6102ff565b90565b610359905461033b565b90565b9061039361038a600061036d610267565b9461038461037c83830161031a565b838801610327565b0161034f565b60208401610327565b565b61039e9061035c565b90565b6103b86103bd916103b061029f565b5060006102e1565b610395565b90565b6103ca90516100ad565b90565b60001b90565b906103e061ffff916103cd565b9181191691161790565b6103fe6103f9610403926100ad565b6102aa565b6100ad565b90565b90565b9061041e610419610425926103ea565b610406565b82546103d3565b9055565b60101b90565b9061043e63ffff000091610429565b9181191691161790565b9061045d610458610464926103ea565b610406565b825461042f565b9055565b90610493602060006104999461048b8282016104858488016103c0565b90610409565b0192016103c0565b90610448565b565b906104a591610468565b565b6104b66104bb929160006102e1565b61049b565b56fea26469706673582212205bb5fdbe65749e9b2105c00bf793b642a5db70422372038f8765fee56422fe1264736f6c634300081b0033","opcodes":"PUSH1 0x80 PUSH1 0x40 MSTORE CALLVALUE PUSH1 0x1C JUMPI PUSH1 0xE PUSH1 0x20 JUMP JUMPDEST PUSH2 0x4F3 PUSH2 0x2C DUP3 CODECOPY PUSH2 0x4F3 SWAP1 RETURN JUMPDEST PUSH1 0x26 JUMP JUMPDEST PUSH1 0x40 MLOAD SWAP1 JUMP JUMPDEST PUSH1 0x0 DUP1 REVERT INVALID PUSH1 0x80 PUSH1 0x40 MSTORE PUSH1 0x4 CALLDATASIZE LT ISZERO PUSH2 0x13 JUMPI JUMPDEST PUSH2 0x262 JUMP JUMPDEST PUSH2 0x1E PUSH1 0x0 CALLDATALOAD PUSH2 0x3D JUMP JUMPDEST DUP1 PUSH4 0xAA65A43E EQ PUSH2 0x38 JUMPI PUSH4 0xFEF28772 SUB PUSH2 0xE JUMPI PUSH2 0x22E JUMP JUMPDEST PUSH2 0xFD JUMP JUMPDEST PUSH1 0xE0 SHR SWAP1 JUMP JUMPDEST PUSH1 0x40 MLOAD SWAP1 JUMP JUMPDEST PUSH1 0x0 DUP1 REVERT JUMPDEST PUSH1 0x0 DUP1 REVERT JUMPDEST PUSH1 0x1 DUP1 PUSH1 0xA0 SHL SUB AND SWAP1 JUMP JUMPDEST PUSH2 0x67 SWAP1 PUSH2 0x53 JUMP JUMPDEST SWAP1 JUMP JUMPDEST PUSH2 0x73 DUP2 PUSH2 0x5E JUMP JUMPDEST SUB PUSH2 0x7A JUMPI JUMP JUMPDEST PUSH1 0x0 DUP1 REVERT JUMPDEST SWAP1 POP CALLDATALOAD SWAP1 PUSH2 0x8C DUP3 PUSH2 0x6A JUMP JUMPDEST JUMP JUMPDEST SWAP1 PUSH1 0x20 DUP3 DUP3 SUB SLT PUSH2 0xA8 JUMPI PUSH2 0xA5 SWAP2 PUSH1 0x0 ADD PUSH2 0x7F JUMP JUMPDEST SWAP1 JUMP JUMPDEST PUSH2 0x4E JUMP JUMPDEST PUSH2 0xFFFF AND SWAP1 JUMP JUMPDEST PUSH2 0xBD SWAP1 PUSH2 0xAD JUMP JUMPDEST SWAP1 MSTORE JUMP JUMPDEST SWAP1 PUSH1 0x20 DUP1 PUSH2 0xE5 SWAP4 PUSH2 0xDB PUSH1 0x0 DUP3 ADD MLOAD PUSH1 0x0 DUP7 ADD SWAP1 PUSH2 0xB4 JUMP JUMPDEST ADD MLOAD SWAP2 ADD SWAP1 PUSH2 0xB4 JUMP JUMPDEST JUMP JUMPDEST SWAP2 SWAP1 PUSH2 0xFB SWAP1 PUSH1 0x0 PUSH1 0x40 DUP6 ADD SWAP5 ADD SWAP1 PUSH2 0xC1 JUMP JUMPDEST JUMP JUMPDEST CALLVALUE PUSH2 0x12D JUMPI PUSH2 0x129 PUSH2 0x118 PUSH2 0x113 CALLDATASIZE PUSH1 0x4 PUSH2 0x8E JUMP JUMPDEST PUSH2 0x3A1 JUMP JUMPDEST PUSH2 0x120 PUSH2 0x43 JUMP JUMPDEST SWAP2 DUP3 SWAP2 DUP3 PUSH2 0xE7 JUMP JUMPDEST SUB SWAP1 RETURN JUMPDEST PUSH2 0x49 JUMP JUMPDEST PUSH1 0x0 DUP1 REVERT JUMPDEST PUSH1 0x1F DUP1 NOT SWAP2 ADD AND SWAP1 JUMP JUMPDEST PUSH4 0x4E487B71 PUSH1 0xE0 SHL PUSH1 0x0 MSTORE PUSH1 0x41 PUSH1 0x4 MSTORE PUSH1 0x24 PUSH1 0x0 REVERT JUMPDEST SWAP1 PUSH2 0x161 SWAP1 PUSH2 0x137 JUMP JUMPDEST DUP2 ADD SWAP1 DUP2 LT PUSH8 0xFFFFFFFFFFFFFFFF DUP3 GT OR PUSH2 0x17B JUMPI PUSH1 0x40 MSTORE JUMP JUMPDEST PUSH2 0x141 JUMP JUMPDEST SWAP1 PUSH2 0x193 PUSH2 0x18C PUSH2 0x43 JUMP JUMPDEST SWAP3 DUP4 PUSH2 0x157 JUMP JUMPDEST JUMP JUMPDEST PUSH2 0x19E DUP2 PUSH2 0xAD JUMP JUMPDEST SUB PUSH2 0x1A5 JUMPI JUMP JUMPDEST PUSH1 0x0 DUP1 REVERT JUMPDEST SWAP1 POP CALLDATALOAD SWAP1 PUSH2 0x1B7 DUP3 PUSH2 0x195 JUMP JUMPDEST JUMP JUMPDEST SWAP2 SWAP1 PUSH1 0x40 DUP4 DUP3 SUB SLT PUSH2 0x1F5 JUMPI PUSH2 0x1EE SWAP1 PUSH2 0x1D3 PUSH1 0x40 PUSH2 0x180 JUMP JUMPDEST SWAP4 PUSH2 0x1E1 DUP3 PUSH1 0x0 DUP4 ADD PUSH2 0x1AA JUMP JUMPDEST PUSH1 0x0 DUP7 ADD MSTORE PUSH1 0x20 ADD PUSH2 0x1AA JUMP JUMPDEST PUSH1 0x20 DUP4 ADD MSTORE JUMP JUMPDEST PUSH2 0x132 JUMP JUMPDEST SWAP2 SWAP1 PUSH1 0x60 DUP4 DUP3 SUB SLT PUSH2 0x223 JUMPI DUP1 PUSH2 0x217 PUSH2 0x220 SWAP3 PUSH1 0x0 DUP7 ADD PUSH2 0x7F JUMP JUMPDEST SWAP4 PUSH1 0x20 ADD PUSH2 0x1B9 JUMP JUMPDEST SWAP1 JUMP JUMPDEST PUSH2 0x4E JUMP JUMPDEST PUSH1 0x0 ADD SWAP1 JUMP JUMPDEST CALLVALUE PUSH2 0x25D JUMPI PUSH2 0x247 PUSH2 0x241 CALLDATASIZE PUSH1 0x4 PUSH2 0x1FA JUMP JUMPDEST SWAP1 PUSH2 0x4A7 JUMP JUMPDEST PUSH2 0x24F PUSH2 0x43 JUMP JUMPDEST DUP1 PUSH2 0x259 DUP2 PUSH2 0x228 JUMP JUMPDEST SUB SWAP1 RETURN JUMPDEST PUSH2 0x49 JUMP JUMPDEST PUSH1 0x0 DUP1 REVERT JUMPDEST PUSH2 0x271 PUSH1 0x40 PUSH2 0x180 JUMP JUMPDEST SWAP1 JUMP JUMPDEST PUSH1 0x0 SWAP1 JUMP JUMPDEST PUSH2 0x281 PUSH2 0x267 JUMP JUMPDEST SWAP1 PUSH1 0x20 DUP1 DUP4 PUSH2 0x28E PUSH2 0x274 JUMP JUMPDEST DUP2 MSTORE ADD PUSH2 0x299 PUSH2 0x274 JUMP JUMPDEST DUP2 MSTORE POP POP JUMP JUMPDEST PUSH2 0x2A7 PUSH2 0x279 JUMP JUMPDEST SWAP1 JUMP JUMPDEST SWAP1 JUMP JUMPDEST PUSH2 0x2C1 PUSH2 0x2BC PUSH2 0x2C6 SWAP3 PUSH2 0x53 JUMP JUMPDEST PUSH2 0x2AA JUMP JUMPDEST PUSH2 0x53 JUMP JUMPDEST SWAP1 JUMP JUMPDEST PUSH2 0x2D2 SWAP1 PUSH2 0x2AD JUMP JUMPDEST SWAP1 JUMP JUMPDEST PUSH2 0x2DE SWAP1 PUSH2 0x2C9 JUMP JUMPDEST SWAP1 JUMP JUMPDEST SWAP1 PUSH2 0x2EB SWAP1 PUSH2 0x2D5 JUMP JUMPDEST PUSH1 0x0 MSTORE PUSH1 0x20 MSTORE PUSH1 0x40 PUSH1 0x0 KECCAK256 SWAP1 JUMP JUMPDEST PUSH1 0x0 SHR SWAP1 JUMP JUMPDEST PUSH2 0xFFFF AND SWAP1 JUMP JUMPDEST PUSH2 0x312 PUSH2 0x317 SWAP2 PUSH2 0x2F9 JUMP JUMPDEST PUSH2 0x2FF JUMP JUMPDEST SWAP1 JUMP JUMPDEST PUSH2 0x324 SWAP1 SLOAD PUSH2 0x306 JUMP JUMPDEST SWAP1 JUMP JUMPDEST SWAP1 PUSH2 0x331 SWAP1 PUSH2 0xAD JUMP JUMPDEST SWAP1 MSTORE JUMP JUMPDEST PUSH1 0x10 SHR SWAP1 JUMP JUMPDEST PUSH2 0x347 PUSH2 0x34C SWAP2 PUSH2 0x335 JUMP JUMPDEST PUSH2 0x2FF JUMP JUMPDEST SWAP1 JUMP JUMPDEST PUSH2 0x359 SWAP1 SLOAD PUSH2 0x33B JUMP JUMPDEST SWAP1 JUMP JUMPDEST SWAP1 PUSH2 0x393 PUSH2 0x38A PUSH1 0x0 PUSH2 0x36D PUSH2 0x267 JUMP JUMPDEST SWAP5 PUSH2 0x384 PUSH2 0x37C DUP4 DUP4 ADD PUSH2 0x31A JUMP JUMPDEST DUP4 DUP9 ADD PUSH2 0x327 JUMP JUMPDEST ADD PUSH2 0x34F JUMP JUMPDEST PUSH1 0x20 DUP5 ADD PUSH2 0x327 JUMP JUMPDEST JUMP JUMPDEST PUSH2 0x39E SWAP1 PUSH2 0x35C JUMP JUMPDEST SWAP1 JUMP JUMPDEST PUSH2 0x3B8 PUSH2 0x3BD SWAP2 PUSH2 0x3B0 PUSH2 0x29F JUMP JUMPDEST POP PUSH1 0x0 PUSH2 0x2E1 JUMP JUMPDEST PUSH2 0x395 JUMP JUMPDEST SWAP1 JUMP JUMPDEST PUSH2 0x3CA SWAP1 MLOAD PUSH2 0xAD JUMP JUMPDEST SWAP1 JUMP JUMPDEST PUSH1 0x0 SHL SWAP1 JUMP JUMPDEST SWAP1 PUSH2 0x3E0 PUSH2 0xFFFF SWAP2 PUSH2 0x3CD JUMP JUMPDEST SWAP2 DUP2 NOT AND SWAP2 AND OR SWAP1 JUMP JUMPDEST PUSH2 0x3FE PUSH2 0x3F9 PUSH2 0x403 SWAP3 PUSH2 0xAD JUMP JUMPDEST PUSH2 0x2AA JUMP JUMPDEST PUSH2 0xAD JUMP JUMPDEST SWAP1 JUMP JUMPDEST SWAP1 JUMP JUMPDEST SWAP1 PUSH2 0x41E PUSH2 0x419 PUSH2 0x425 SWAP3 PUSH2 0x3EA JUMP JUMPDEST PUSH2 0x406 JUMP JUMPDEST DUP3 SLOAD PUSH2 0x3D3 JUMP JUMPDEST SWAP1 SSTORE JUMP JUMPDEST PUSH1 0x10 SHL SWAP1 JUMP JUMPDEST SWAP1 PUSH2 0x43E PUSH4 0xFFFF0000 SWAP2 PUSH2 0x429 JUMP JUMPDEST SWAP2 DUP2 NOT AND SWAP2 AND OR SWAP1 JUMP JUMPDEST SWAP1 PUSH2 0x45D PUSH2 0x458 PUSH2 0x464 SWAP3 PUSH2 0x3EA JUMP JUMPDEST PUSH2 0x406 JUMP JUMPDEST DUP3 SLOAD PUSH2 0x42F JUMP JUMPDEST SWAP1 SSTORE JUMP JUMPDEST SWAP1 PUSH2 0x493 PUSH1 0x20 PUSH1 0x0 PUSH2 0x499 SWAP5 PUSH2 0x48B DUP3 DUP3 ADD PUSH2 0x485 DUP5 DUP9 ADD PUSH2 0x3C0 JUMP JUMPDEST SWAP1 PUSH2 0x409 JUMP JUMPDEST ADD SWAP3 ADD PUSH2 0x3C0 JUMP JUMPDEST SWAP1 PUSH2 0x448 JUMP JUMPDEST JUMP JUMPDEST SWAP1 PUSH2 0x4A5 SWAP2 PUSH2 0x468 JUMP JUMPDEST JUMP JUMPDEST PUSH2 0x4B6 PUSH2 0x4BB SWAP3 SWAP2 PUSH1 0x0 PUSH2 0x2E1 JUMP JUMPDEST PUSH2 0x49B JUMP JUMPDEST JUMP INVALID LOG2 PUSH5 0x6970667358 0x22 SLT KECCAK256 JUMPDEST 0xB5 REVERT 0xBE PUSH6 0x749E9B2105C0 SIGNEXTEND 0xF7 SWAP4 0xB6 TIMESTAMP 0xA5 0xDB PUSH17 0x422372038F8765FEE56422FE1264736F6C PUSH4 0x4300081B STOP CALLER "},"methodIdentifiers":{"getHealthInformation(address)":"aa65a43e","setHealthInformation(address,(uint16,uint16))":"fef28772"}}}}}