{"contracts/VaccinationManagement.sol":{"VaccinationManagement":{"abi":[{"inputs":[],"stateMutability":"nonpayable","type":"constructor"},{"anonymous":false,"inputs":[{"indexed":true,"internalType":"address","name":"childAddress","type":"address"},{"indexed":false,"internalType":"string","name":"vaccineName","type":"string"},{"indexed":false,"internalType":"uint256","name":"date","type":"uint256"}],"name":"VaccinationUpdated","type":"event"},{"inputs":[{"internalType":"address","name":"_childAddress","type":"address"},{"internalType":"uint256","name":"_childBirthDate","type":"uint256"}],"name":"getVaccinationDDay","outputs":[{"components":[{"components":[{"internalType":"uint8","name":"index","type":"uint8"},{"internalType":"string","name":"vaccineName","type":"string"},{"internalType":"string","name":"targetDisease","type":"string"},{"internalType":"uint8","name":"vaccineChapter","type":"uint8"},{"internalType":"uint16","name":"recommendedDays","type":"uint16"},{"internalType":"uint16","name":"recommendedEndDays","type":"uint16"},{"internalType":"uint256","name":"startVaccinationDate","type":"uint256"},{"internalType":"uint256","name":"endVaccinationDate","type":"uint256"},{"internalType":"enum VaccinationManagement.VaccinationStatus","name":"status","type":"uint8"},{"internalType":"uint256","name":"administeredDate","type":"uint256"}],"internalType":"struct VaccinationManagement.Vaccination","name":"vax","type":"tuple"},{"internalType":"int256","name":"dDay","type":"int256"}],"internalType":"struct VaccinationManagement.VaccinationWithDDay[]","name":"","type":"tuple[]"}],"stateMutability":"view","type":"function"},{"inputs":[{"internalType":"address","name":"_childAddress","type":"address"}],"name":"initializeVaccinationRecords","outputs":[],"stateMutability":"nonpayable","type":"function"},{"inputs":[{"internalType":"uint256","name":"","type":"uint256"}],"name":"recommendedVaccinations","outputs":[{"internalType":"uint8","name":"index","type":"uint8"},{"internalType":"string","name":"vaccineName","type":"string"},{"internalType":"string","name":"targetDisease","type":"string"},{"internalType":"uint8","name":"vaccineChapter","type":"uint8"},{"internalType":"uint16","name":"recommendedDays","type":"uint16"},{"internalType":"uint16","name":"recommendedEndDays","type":"uint16"},{"internalType":"uint256","name":"startVaccinationDate","type":"uint256"},{"internalType":"uint256","name":"endVaccinationDate","type":"uint256"},{"internalType":"enum VaccinationManagement.VaccinationStatus","name":"status","type":"uint8"},{"internalType":"uint256","name":"administeredDate","type":"uint256"}],"stateMutability":"view","type":"function"},{"inputs":[{"internalType":"address","name":"_childAddress","type":"address"}],"name":"returnChildVaccinationStatus","outputs":[{"components":[{"components":[{"internalType":"uint8","name":"index","type":"uint8"},{"internalType":"string","name":"vaccineName","type":"string"},{"internalType":"string","name":"targetDisease","type":"string"},{"internalType":"uint8","name":"vaccineChapter","type":"uint8"},{"internalType":"uint16","name":"recommendedDays","type":"uint16"},{"internalType":"uint16","name":"recommendedEndDays","type":"uint16"},{"internalType":"uint256","name":"startVaccinationDate","type":"uint256"},{"internalType":"uint256","name":"endVaccinationDate","type":"uint256"},{"internalType":"enum VaccinationManagement.VaccinationStatus","name":"status","type":"uint8"},{"internalType":"uint256","name":"administeredDate","type":"uint256"}],"internalType":"struct VaccinationManagement.Vaccination[]","name":"completed","type":"tuple[]"},{"components":[{"internalType":"uint8","name":"index","type":"uint8"},{"internalType":"string","name":"vaccineName","type":"string"},{"internalType":"string","name":"targetDisease","type":"string"},{"internalType":"uint8","name":"vaccineChapter","type":"uint8"},{"internalType":"uint16","name":"recommendedDays","type":"uint16"},{"internalType":"uint16","name":"recommendedEndDays","type":"uint16"},{"internalType":"uint256","name":"startVaccinationDate","type":"uint256"},{"internalType":"uint256","name":"endVaccinationDate","type":"uint256"},{"internalType":"enum VaccinationManagement.VaccinationStatus","name":"status","type":"uint8"},{"internalType":"uint256","name":"administeredDate","type":"uint256"}],"internalType":"struct VaccinationManagement.Vaccination[]","name":"pending","type":"tuple[]"}],"internalType":"struct VaccinationManagement.VaccinationInfomation","name":"","type":"tuple"}],"stateMutability":"view","type":"function"},{"inputs":[{"internalType":"address","name":"_childAddress","type":"address"},{"internalType":"string","name":"_vaccineName","type":"string"}],"name":"updateChildVaccination","outputs":[],"stateMutability":"nonpayable","type":"function"},{"inputs":[{"internalType":"address","name":"_childAddress","type":"address"},{"internalType":"string[]","name":"_vaccinNames","type":"string[]"}],"name":"updateMultipleChildVaccination","outputs":[],"stateMutability":"nonpayable","type":"function"}],"evm":{"bytecode":{"linkReferences":{},"object":"6080604052346100275761001161087b565b61001961002c565b61252a611524823961252a90f35b610032565b60405190565b600080fd5b90565b60ff1690565b90565b61005761005261005c92610037565b610040565b61003a565b90565b601f801991011690565b634e487b7160e01b600052604160045260246000fd5b906100899061005f565b810190811060018060401b038211176100a157604052565b610069565b906100b96100b261002c565b928361007f565b565b60018060401b0381116100d7576100d360209161005f565b0190565b610069565b906100ee6100e9836100bb565b6100a6565b918252565b60007f4243470000000000000000000000000000000000000000000000000000000000910152565b61012560036100dc565b90610132602083016100f3565b565b61013c61011b565b90565b600065eab2b0ed95b560d01b910152565b61015a60066100dc565b906101676020830161013f565b565b610171610150565b90565b90565b61ffff1690565b61019261018d61019792610174565b610040565b610177565b90565b90565b6101b16101ac6101b69261019a565b610040565b610177565b90565b90565b6101d06101cb6101d5926101b9565b610040565b61003a565b90565b60007f4865704200000000000000000000000000000000000000000000000000000000910152565b61020a60046100dc565b90610217602083016101d8565b565b610221610200565b90565b60006910bb66257aac213b25ef60b21b910152565b610243600a6100dc565b9061025060208301610224565b565b61025a610239565b90565b90565b61027461026f6102799261025d565b610040565b61003a565b90565b90565b61029361028e6102989261027c565b610040565b610177565b90565b90565b6102b26102ad6102b79261029b565b610040565b61003a565b90565b60007f4454617000000000000000000000000000000000000000000000000000000000910152565b6102ec60046100dc565b906102f9602083016102ba565b565b6103036102e2565b90565b7feb9494ed9484ed858ceba6acec958420ed8c8cec8381ed928d20ebb0b1ec9dbc60008201526020623b656d60ea1b910152565b61034460236100dc565b9061035160208301610306565b565b61035b61033a565b90565b90565b61037561037061037a9261035e565b610040565b610177565b90565b90565b61039461038f6103999261037d565b610040565b61003a565b90565b60007f4950560000000000000000000000000000000000000000000000000000000000910152565b6103ce60036100dc565b906103db6020830161039c565b565b6103e56103c4565b90565b6000683b63ed3ae9ab3b262960ba1b910152565b61040660096100dc565b90610413602083016103e8565b565b61041d6103fc565b90565b90565b61043761043261043c92610420565b610040565b61003a565b90565b60007f4869620000000000000000000000000000000000000000000000000000000000910152565b61047160036100dc565b9061047e6020830161043f565b565b610488610467565b90565b7f62ed9895ed97a4ebaaa8ed9584eba3a8ec8aa4ec9db8ed948ceba3a8ec9794ec600082015260206109e960f41b910152565b6104c860226100dc565b906104d56020830161048b565b565b6104df6104be565b90565b90565b6104f96104f46104fe926104e2565b610040565b61003a565b90565b60007f5043560000000000000000000000000000000000000000000000000000000000910152565b61053360036100dc565b9061054060208301610501565b565b61054a610529565b90565b60006b076c7c875d05a755ad6755bd60a51b910152565b61056e600c6100dc565b9061057b6020830161054d565b565b610585610564565b90565b90565b61059f61059a6105a492610588565b610040565b61003a565b90565b60007f5256310000000000000000000000000000000000000000000000000000000000910152565b6105d960036100dc565b906105e6602083016105a7565b565b6105f06105cf565b90565b60007feba19ced8380ebb094ec9db4eb9facec8aa420eab090ec97bceca69d00000000910152565b610625601c6100dc565b90610632602083016105f3565b565b61063c61061b565b90565b90565b61065661065161065b9261063f565b610040565b61003a565b90565b60007f5256350000000000000000000000000000000000000000000000000000000000910152565b61069060036100dc565b9061069d6020830161065e565b565b6106a7610686565b90565b90565b6106c16106bc6106c6926106aa565b610040565b61003a565b90565b90565b6106e06106db6106e5926106c9565b610040565b610177565b90565b90565b6106ff6106fa610704926106e8565b610040565b610177565b90565b90565b61071e61071961072392610707565b610040565b61003a565b90565b90565b61073d61073861074292610726565b610040565b61003a565b90565b90565b61075c61075761076192610745565b610040565b61003a565b90565b90565b61077b61077661078092610764565b610040565b61003a565b90565b90565b61079a61079561079f92610783565b610040565b61003a565b90565b90565b6107b96107b46107be926107a2565b610040565b61003a565b90565b90565b6107d86107d36107dd926107c1565b610040565b610177565b90565b90565b6107f76107f26107fc926107e0565b610040565b610177565b90565b90565b61081661081161081b926107ff565b610040565b61003a565b90565b90565b61083561083061083a9261081e565b610040565b61003a565b90565b90565b61085461084f6108599261083d565b610040565b61003a565b90565b90565b61087361086e6108789261085c565b610040565b61003a565b90565b6108c0600180600061088e601e92610043565b92610897610134565b6108ba6108b46108ae6108a8610169565b94610043565b9461017e565b9461019d565b94611442565b610907600260019060006108d5601e926101bc565b926108de610219565b6109016108fb6108f56108ef610252565b94610043565b9461017e565b9461019d565b94611442565b61094e6003600290601e61091c603c92610260565b92610925610219565b61094861094261093c610936610252565b946101bc565b9461019d565b9461027f565b94611442565b6109956004600190603c610963605a9261029e565b9261096c6102fb565b61098f61098961098361097d610353565b94610043565b9461027f565b94610361565b94611442565b6109dc6005600190603c6109aa605a92610380565b926109b36103dd565b6109d66109d06109ca6109c4610415565b94610043565b9461027f565b94610361565b94611442565b610a236006600190603c6109f1605a92610423565b926109fa610480565b610a1d610a17610a11610a0b6104d7565b94610043565b9461027f565b94610361565b94611442565b610a6a6007600190603c610a38605a926104e5565b92610a41610542565b610a64610a5e610a58610a5261057d565b94610043565b9461027f565b94610361565b94611442565b610ab16008600190603c610a7f605a9261058b565b92610a886105e8565b610aab610aa5610a9f610a99610634565b94610043565b9461027f565b94610361565b94611442565b610af86009600190603c610ac6605a92610642565b92610acf61069f565b610af2610aec610ae6610ae0610634565b94610043565b9461027f565b94610361565b94611442565b610b3f600a6002906078610b0d6096926106ad565b92610b166102fb565b610b39610b33610b2d610b27610353565b946101bc565b946106cc565b946106eb565b94611442565b610b86600b6002906078610b5460969261070a565b92610b5d6103dd565b610b80610b7a610b74610b6e610415565b946101bc565b946106cc565b946106eb565b94611442565b610bcd600c6002906078610b9b609692610729565b92610ba4610480565b610bc7610bc1610bbb610bb56104d7565b946101bc565b946106cc565b946106eb565b94611442565b610c14600d6002906078610be2609692610748565b92610beb610542565b610c0e610c08610c02610bfc61057d565b946101bc565b946106cc565b946106eb565b94611442565b610c5b600e6002906078610c29609692610767565b92610c326105e8565b610c55610c4f610c49610c43610634565b946101bc565b946106cc565b946106eb565b94611442565b610ca260126002906078610c70609692610786565b92610c7961069f565b610c9c610c96610c90610c8a610634565b946101bc565b946106cc565b946106eb565b94611442565b610ce9601360039060b4610cb760d2926107a5565b92610cc0610219565b610ce3610cdd610cd7610cd1610252565b94610260565b946107c4565b946107e3565b94611442565b610d30601460039060b4610cfe60d292610802565b92610d076102fb565b610d2a610d24610d1e610d18610353565b94610260565b946107c4565b946107e3565b94611442565b610d77601660039060b4610d4560d292610821565b92610d4e610480565b610d71610d6b610d65610d5f6104d7565b94610260565b946107c4565b946107e3565b94611442565b610dbe601760029060b4610d8c60d292610840565b92610d95610542565b610db8610db2610dac610da661057d565b946101bc565b946107c4565b946107e3565b94611442565b610e05601860039060b4610dd360d29261085f565b92610ddc61069f565b610dff610df9610df3610ded610634565b94610260565b946107c4565b946107e3565b94611442565b565b90565b610e156101406100a6565b90565b90610e229061003a565b9052565b52565b90610e3390610177565b9052565b90565b610e4e610e49610e5392610174565b610040565b610e37565b90565b90610e6090610e37565b9052565b634e487b7160e01b600052602160045260246000fd5b60021115610e8457565b610e64565b90610e9382610e7a565b565b90610e9f90610e89565b9052565b600052602060002090565b634e487b7160e01b600052603260045260246000fd5b5490565b610ed181610ec4565b821015610eec57610ee3600891610ea3565b91020190600090565b610eae565b634e487b7160e01b600052600060045260246000fd5b610f11905161003a565b90565b60001b90565b90610f2660ff91610f14565b9181191691161790565b610f44610f3f610f499261003a565b610040565b61003a565b90565b90565b90610f64610f5f610f6b92610f30565b610f4c565b8254610f1a565b9055565b5190565b5190565b634e487b7160e01b600052602260045260246000fd5b9060016002830492168015610fad575b6020831014610fa857565b610f77565b91607f1691610f9d565b600052602060002090565b601f602091010490565b1b90565b91906008610fec910291610fe660001984610fcc565b92610fcc565b9181191691161790565b61100a61100561100f92610e37565b610040565b610e37565b90565b90565b919061102b61102661103393610ff6565b611012565b908354610fd0565b9055565b600090565b61104e91611048611037565b91611015565b565b5b81811061105c575050565b8061106a600060019361103c565b01611051565b9190601f8111611080575b505050565b61108c6110b193610fb7565b90602061109884610fc2565b830193106110b9575b6110aa90610fc2565b0190611050565b38808061107b565b91506110aa819290506110a1565b1c90565b906110dc90600019906008026110c7565b191690565b816110eb916110cb565b906002021790565b906110fd81610f73565b9060018060401b0382116111bd5761111f826111198554610f8d565b85611070565b602090601f83116001146111545791809161114393600092611148575b50506110e1565b90555b565b9091500151388061113c565b601f1983169161116385610fb7565b9260005b8181106111a55750916002939185600196941061118b575b50505002019055611146565b61119b910151601f8416906110cb565b905538808061117f565b91936020600181928787015181550195019201611167565b610069565b906111cc916110f3565b565b6111d89051610177565b90565b60081b90565b906111ef62ffff00916111db565b9181191691161790565b61120d61120861121292610177565b610040565b610177565b90565b90565b9061122d611228611234926111f9565b611215565b82546111e1565b9055565b60181b90565b9061124e64ffff00000091611238565b9181191691161790565b9061126d611268611274926111f9565b611215565b825461123e565b9055565b6112829051610e37565b90565b9061129260001991610f14565b9181191691161790565b906112b16112ac6112b892610ff6565b611012565b8254611285565b9055565b6112c69051610e89565b90565b6112d290610e89565b90565b90565b906112ed6112e86112f4926112c9565b6112d5565b8254610f1a565b9055565b906113ef61012060076113f59461131e6000820161131860008801610f07565b90610f4f565b6113376001820161133160208801610f6f565b906111c2565b6113506002820161134a60408801610f6f565b906111c2565b6113696003820161136360608801610f07565b90610f4f565b6113826003820161137c608088016111ce565b90611218565b61139b6003820161139560a088016111ce565b90611258565b6113b4600482016113ae60c08801611278565b9061129c565b6113cd600582016113c760e08801611278565b9061129c565b6113e7600682016113e161010088016112bc565b906112d8565b019201611278565b9061129c565b565b919061140857611406916112f8565b565b610ef1565b908154916801000000000000000083101561143d578261143591600161143b95018155610ec8565b906113f7565b565b610069565b94939093929192600061145490610e07565b95949392919060009160009360009560009761146e610e0a565b9960008b019061147d91610e18565b60208a019061148b91610e26565b604089019061149991610e26565b60608801906114a791610e18565b60808701906114b591610e29565b60a08601906114c391610e29565b6114cc90610e3a565b60c08501906114da91610e56565b6114e390610e3a565b60e08401906114f191610e56565b61010083019061150091610e95565b61150990610e3a565b61012082019061151891610e56565b6115219161140d565b56fe60806040526004361015610013575b610c22565b61001e60003561007c565b8062bcec2714610077578063375ffc731461007257806359c3309e1461006d578063647a668214610068578063e10b406c146100635763eb607db10361000e57610bed565b610ad1565b6106a7565b610579565b610524565b61020e565b60e01c90565b60405190565b600080fd5b600080fd5b600080fd5b60018060a01b031690565b6100ab90610097565b90565b6100b7816100a2565b036100be57565b600080fd5b905035906100d0826100ae565b565b600080fd5b600080fd5b601f801991011690565b634e487b7160e01b600052604160045260246000fd5b90610106906100dc565b810190811067ffffffffffffffff82111761012057604052565b6100e6565b90610138610131610082565b92836100fc565b565b67ffffffffffffffff8111610158576101546020916100dc565b0190565b6100e6565b90826000939282370152565b9092919261017e6101798261013a565b610125565b9381855260208501908284011161019a576101989261015d565b565b6100d7565b9080601f830112156101bd578160206101ba93359101610169565b90565b6100d2565b919091604081840312610203576101dc83600083016100c3565b92602082013567ffffffffffffffff81116101fe576101fb920161019f565b90565b610092565b61008d565b60000190565b3461023d576102276102213660046101c2565b90611011565b61022f610082565b8061023981610208565b0390f35b610088565b90565b61024e81610242565b0361025557565b600080fd5b9050359061026782610245565b565b9190604083820312610292578061028661028f92600086016100c3565b9360200161025a565b90565b61008d565b5190565b60209181520190565b60200190565b60ff1690565b6102b9906102aa565b9052565b5190565b60209181520190565b60005b8381106102de575050906000910152565b8060209183015181850152016102cd565b61030e61031760209361031c93610305816102bd565b938480936102c1565b958691016102ca565b6100dc565b0190565b61ffff1690565b61033090610320565b9052565b61033d90610242565b9052565b634e487b7160e01b600052602160045260246000fd5b6002111561036157565b610341565b9061037082610357565b565b61037b90610366565b90565b61038790610372565b9052565b9061044e90610120806103d56103c361014085016103b1600089015160008801906102b0565b602088015186820360208801526102ef565b604087015185820360408701526102ef565b946103e8606082015160608601906102b0565b6103fa60808201516080860190610327565b61040c60a082015160a0860190610327565b61041e60c082015160c0860190610334565b61043060e082015160e0860190610334565b61044461010082015161010086019061037e565b0151910190610334565b90565b90565b61045d90610451565b9052565b9061048d90602080610482604084016000870151858203600087015261038b565b940151910190610454565b90565b9061049a91610461565b90565b60200190565b906104b76104b083610297565b809261029b565b90816104c8602083028401946102a4565b926000915b8383106104dc57505050505090565b909192939460206104fe6104f883856001950387528951610490565b9761049d565b93019301919392906104cd565b61052191602082019160008184039101526104a3565b90565b346105555761055161054061053a366004610269565b906116fc565b610548610082565b9182918261050b565b0390f35b610088565b9060208282031261057457610571916000016100c3565b90565b61008d565b346105a75761059161058c36600461055a565b611da8565b610599610082565b806105a381610208565b0390f35b610088565b67ffffffffffffffff81116105c45760208091020190565b6100e6565b600080fd5b9291906105e26105dd826105ac565b610125565b93818552602080860192028101918383116106395781905b838210610608575050505050565b813567ffffffffffffffff811161063457602091610629878493870161019f565b8152019101906105fa565b6100d2565b6105c9565b9080601f8301121561065c57816020610659933591016105ce565b90565b6100d2565b9190916040818403126106a25761067b83600083016100c3565b92602082013567ffffffffffffffff811161069d5761069a920161063e565b90565b610092565b61008d565b346106d6576106c06106ba366004610661565b90611f65565b6106c8610082565b806106d281610208565b0390f35b610088565b906020828203126106f5576106f29160000161025a565b90565b61008d565b634e487b7160e01b600052603260045260246000fd5b5490565b600052602060002090565b61072881610710565b8210156107435761073a600891610714565b91020190600090565b6106fa565b60001c90565b60ff1690565b61076061076591610748565b61074e565b90565b6107729054610754565b90565b634e487b7160e01b600052602260045260246000fd5b90600160028304921680156107ab575b60208310146107a657565b610775565b91607f169161079b565b600052602060002090565b90600092918054906107db6107d48361078b565b80946102c1565b9160018116908160001461083457506001146107f7575b505050565b61080491929394506107b5565b916000925b81841061081c57505001903880806107f2565b60018160209295939554848601520191019290610809565b92949550505060ff19168252151560200201903880806107f2565b90610859916107c0565b90565b9061087c6108759261086c610082565b9384809261084f565b03836100fc565b565b60081c90565b61ffff1690565b61089761089c9161087e565b610884565b90565b6108a9905461088b565b90565b60181c90565b6108be6108c3916108ac565b610884565b90565b6108d090546108b2565b90565b90565b6108e26108e791610748565b6108d3565b90565b6108f490546108d6565b90565b60ff1690565b61090961090e91610748565b6108f7565b90565b61091b90546108fd565b90565b60009061092a82610710565b8110156109bf5761093a9161071f565b509061094860008301610768565b916109556001820161085c565b916109626002830161085c565b9161096f60038201610768565b9161097c6003830161089f565b91610989600382016108c6565b91610996600483016108ea565b916109a3600582016108ea565b916109bc60076109b560068501610911565b93016108ea565b90565b600080fd5b6109cd906102aa565b9052565b60209181520190565b6109f9610a02602093610a07936109f0816102bd565b938480936109d1565b958691016102ca565b6100dc565b0190565b610a1490610320565b9052565b610a2190610242565b9052565b610a2e90610372565b9052565b9795939a9998969492919061014089019060008a01610a50916109c4565b88810360208a0152610a61916109da565b8781036040890152610a72916109da565b9860608701610a80916109c4565b60808601610a8d91610a0b565b60a08501610a9a91610a0b565b60c08401610aa791610a18565b60e08301610ab491610a18565b6101008201610ac291610a25565b61012001610acf91610a18565b565b34610b0e57610b0a610aec610ae73660046106db565b61091e565b96610b019a989a969196959295949394610082565b9a8b9a8b610a32565b0390f35b610088565b5190565b60209181520190565b60200190565b90610b309161038b565b90565b60200190565b90610b4d610b4683610b13565b8092610b17565b9081610b5e60208302840194610b20565b926000915b838310610b7257505050505090565b90919293946020610b94610b8e83856001950387528951610b26565b97610b33565b9301930191939290610b63565b610bd1916020610bc06040830160008501518482036000860152610b39565b920151906020818403910152610b39565b90565b610bea9160208201916000818403910152610ba1565b90565b34610c1d57610c19610c08610c0336600461055a565b61226c565b610c10610082565b91829182610bd4565b0390f35b610088565b600080fd5b90565b90565b610c41610c3c610c4692610c27565b610c2a565b610097565b90565b610c5290610c2d565b90565b60007f496e76616c696420616464726573730000000000000000000000000000000000910152565b610c8a600f6020926109d1565b610c9381610c55565b0190565b610cad9060208101906000818303910152610c7d565b90565b15610cb757565b610cbf610082565b62461bcd60e51b815280610cd560048201610c97565b0390fd5b610ced610ce8610cf292610097565b610c2a565b610097565b90565b610cfe90610cd9565b90565b610d0a90610cf5565b90565b90610d1790610d01565b600052602052604060002090565b90565b610d3c610d37610d4192610c27565b610c2a565b610242565b90565b6001610d509101610242565b90565b5490565b600052602060002090565b610d6b81610d53565b821015610d8657610d7d600891610d57565b91020190600090565b6106fa565b90565b905090565b9060009291805490610dae610da78361078b565b8094610d8e565b91600181169081600014610e025750600114610dca575b505050565b610dd791929394506107b5565b6000905b838210610dee5750500190388080610dc5565b600181602092548486015201910190610ddb565b92949550505060ff19168252801515020190388080610dc5565b610e2591610d93565b90565b60200190565b5190565b610e57610e4e92602092610e45816102bd565b94858093610d8e565b938491016102ca565b0190565b610e6491610e32565b90565b90565b60007f56616363696e6174696f6e20616c726561647920636f6d706c65746564000000910152565b610e9f601d6020926109d1565b610ea881610e6a565b0190565b610ec29060208101906000818303910152610e92565b90565b15610ecc57565b610ed4610082565b62461bcd60e51b815280610eea60048201610eac565b0390fd5b60001b90565b90610f0060ff91610eee565b9181191691161790565b610f1390610366565b90565b90565b90610f2e610f29610f3592610f0a565b610f16565b8254610ef4565b9055565b90610f4660001991610eee565b9181191691161790565b610f64610f5f610f6992610242565b610c2a565b610242565b90565b90565b90610f84610f7f610f8b92610f50565b610f6c565b8254610f39565b9055565b92916020610fac610fb493604087019087820360008901526109da565b940190610a18565b565b60007f56616363696e65206e6f7420666f756e6420666f7220746865206368696c6400910152565b610feb601f6020926109d1565b610ff481610fb6565b0190565b61100e9060208101906000818303910152610fde565b90565b906110388261103161102b6110266000610c49565b6100a2565b916100a2565b1415610cb0565b61104c61104760018490610d0d565b610d25565b916110576000610d28565b5b8061107361106d61106887610d53565b610242565b91610242565b10156111bd5761108d611087858390610d62565b50610d8b565b6110ab6110ba6001830161109f610082565b92839160208301610e1c565b602082018103825203826100fc565b6110cc6110c682610e2e565b91610e28565b2061111b6111156110ee6110fd886110e2610082565b92839160208301610e5b565b602082018103825203826100fc565b61110f61110982610e2e565b91610e28565b20610e67565b91610e67565b1461112f575061112a90610d44565b611058565b90506111789192935061116061114760068301610911565b61115a6111546000610366565b91610366565b14610ec5565b61116e600160068301610f19565b6007429101610f6f565b426111a37f7d36aed3c4b4fc4d666a996881d92a844afb31c3af47a6211964a4c79e0a726e92610d01565b926111b86111af610082565b92839283610f8f565b0390a2565b6111c5610082565b62461bcd60e51b8152806111db60048201610ff8565b0390fd5b606090565b60007f496e76616c6964206368696c6420616464726573730000000000000000000000910152565b61121960156020926109d1565b611222816111e4565b0190565b61123c906020810190600081830391015261120c565b90565b1561124657565b61124e610082565b62461bcd60e51b81528061126460048201611226565b0390fd5b634e487b7160e01b600052601160045260246000fd5b61128790610242565b60001981146112965760010190565b611268565b67ffffffffffffffff81116112b35760208091020190565b6100e6565b906112ca6112c58361129b565b610125565b918252565b6112d96040610125565b90565b6112e7610140610125565b90565b600090565b606090565b600090565b600090565b600090565b61130b6112dc565b9060208080808080808080808b6113206112ea565b81520161132b6112ef565b8152016113366112ef565b8152016113416112ea565b81520161134c6112f4565b8152016113576112f4565b8152016113626112f9565b81520161136d6112f9565b8152016113786112fe565b8152016113836112f9565b81525050565b611391611303565b90565b600090565b6113a16112cf565b90602080836113ae611389565b8152016113b9611394565b81525050565b6113c7611399565b90565b60005b8281106113d957505050565b6020906113e46113bf565b81840152016113cd565b906114136113fb836112b8565b92602080611409869361129b565b92019103906113ca565b565b62ffffff1690565b61143161142c61143692610320565b610c2a565b611415565b90565b90565b61145061144b61145592611439565b610c2a565b611415565b90565b61146461146a91611415565b91611415565b029061147582611415565b91820361147e57565b611268565b61149761149261149c92611415565b610c2a565b610242565b90565b6114ae6114b491939293610242565b92610242565b82018092116114bf57565b611268565b600090565b6114dd6114d86114e292610c27565b610c2a565b610451565b90565b6114f46114fa91939293610242565b92610242565b820391821161150557565b611268565b61151e61151961152392611439565b610c2a565b610242565b90565b634e487b7160e01b600052601260045260246000fd5b61154861154e91610242565b91610242565b908115611559570490565b611526565b61157261156d61157792610242565b610c2a565b610451565b90565b6115846040610125565b90565b90611591906102aa565b9052565b52565b906115a290610320565b9052565b906115b090610242565b9052565b906115be90610366565b9052565b906116bd6116b360076115d36112dc565b946115ec6115e360008301610768565b60008801611587565b6116046115fb6001830161085c565b60208801611595565b61161c6116136002830161085c565b60408801611595565b61163461162b60038301610768565b60608801611587565b61164c6116436003830161089f565b60808801611598565b61166461165b600383016108c6565b60a08801611598565b61167c611673600483016108ea565b60c088016115a6565b61169461168b600583016108ea565b60e088016115a6565b6116ad6116a360068301610911565b61010088016115b4565b016108ea565b61012084016115a6565b565b6116c8906115c2565b90565b52565b906116d890610451565b9052565b906116e682610297565b8110156116f7576020809102010190565b6106fa565b61173961173e9161170b6111df565b506117328161172b6117256117206000610c49565b6100a2565b916100a2565b141561123f565b6001610d0d565b610d25565b916117496000610d28565b906117546000610d28565b5b8061177061176a61176588610d53565b610242565b91610242565b10156117c95761178d6006611786878490610d62565b5001610911565b6117a061179a6000610366565b91610366565b146117b4575b6117af90610d44565b611755565b916117c16117af9161127e565b9290506117a6565b509291906117d6906113ee565b906117e16000610d28565b906117ec6000610d28565b5b806118086118026117fd88610d53565b610242565b91610242565b101561195557611825600661181e878490610d62565b5001610911565b6118386118326000610366565b91610366565b1461184c575b61184790610d44565b6117ed565b9161193a6118479161189a8461189461188f611875600361186e8d8c90610d62565b500161089f565b61188a6118846201518061143c565b9161141d565b611458565b611483565b9061149f565b6118a26114c4565b50806118b66118b042610242565b91610242565b11600014611942576118e96118e46118d26119339342906114e5565b6118de6201518061150a565b9061153c565b61155e565b5b6119206118f88a8990610d62565b509161191761190e61190861157a565b946116bf565b600085016116cb565b602083016116ce565b87839161192d83836116dc565b526116dc565b515061127e565b92905061183e565b5061193361195060006114c9565b6118ea565b505050905090565b634e487b7160e01b600052600060045260246000fd5b61198761198261198c926102aa565b610c2a565b6102aa565b90565b90565b906119a76119a26119ae92611973565b61198f565b8254610ef4565b9055565b6119bc905461078b565b90565b601f602091010490565b1b90565b919060086119e99102916119e3600019846119c9565b926119c9565b9181191691161790565b9190611a09611a04611a1193610f50565b610f6c565b9083546119cd565b9055565b600090565b611a2c91611a26611a15565b916119f3565b565b5b818110611a3a575050565b80611a486000600193611a1a565b01611a2f565b9190601f8111611a5e575b505050565b611a6a611a8f936107b5565b906020611a76846119bf565b83019310611a97575b611a88906119bf565b0190611a2e565b388080611a59565b9150611a8881929050611a7f565b1c90565b90611aba9060001990600802611aa5565b191690565b81611ac991611aa9565b906002021790565b90808214611bb357611ae2816119b2565b9067ffffffffffffffff8211611bae57611b0682611b00855461078b565b85611a4e565b600090601f8311600114611b3b57918091611b2a93600092611b2f575b5050611abf565b90555b565b90915001543880611b23565b90611b4a601f198416926107b5565b90611b54856107b5565b9260005b818110611b9657509160029391856001969410611b7c575b50505002019055611b2d565b611b8c910154601f841690611aa9565b9055388080611b70565b91936001806020928787015481550195019201611b58565b6100e6565b5050565b90611bc191611ad1565b565b60081b90565b90611bd762ffff0091611bc3565b9181191691161790565b611bf5611bf0611bfa92610320565b610c2a565b610320565b90565b90565b90611c15611c10611c1c92611be1565b611bfd565b8254611bc9565b9055565b60181b90565b90611c3664ffff00000091611c20565b9181191691161790565b90611c55611c50611c5c92611be1565b611bfd565b8254611c26565b9055565b90808203611c6d575b5050565b611d5060078084611c906000611d569701611c8a60008801610768565b90611992565b611ca1600182016001870190611bb7565b611cb2600282016002870190611bb7565b611ccb60038201611cc560038801610768565b90611992565b611ce460038201611cde6003880161089f565b90611c00565b611cfd60038201611cf7600388016108c6565b90611c40565b611d1660048201611d10600488016108ea565b90610f6f565b611d2f60058201611d29600588016108ea565b90610f6f565b611d4860068201611d4260068801610911565b90610f19565b0192016108ea565b90610f6f565b3880611c69565b9190611d6e57611d6c91611c60565b565b61195d565b9081549168010000000000000000831015611da35782611d9b916001611da195018155610d62565b90611d5d565b565b6100e6565b90611dcf82611dc8611dc2611dbd6000610c49565b6100a2565b916100a2565b1415610cb0565b611dd96000610d28565b5b80611df6611df0611deb6000610710565b610242565b91610242565b1015611e3457611e2f90611e2a611e17611e1260018790610d0d565b610d25565b611e236000849061071f565b5090611d73565b610d44565b611dda565b509050565b5190565b60007f76616363696e65206e616d657320726571756972656400000000000000000000910152565b611e7260166020926109d1565b611e7b81611e3d565b0190565b611e959060208101906000818303910152611e65565b90565b15611e9f57565b611ea7610082565b62461bcd60e51b815280611ebd60048201611e7f565b0390fd5b90611ecb82611e39565b811015611edc576020809102010190565b6106fa565b60007f4e6f2076616363696e6174696f6e732075706461746564000000000000000000910152565b611f1660176020926109d1565b611f1f81611ee1565b0190565b611f399060208101906000818303910152611f09565b90565b15611f4357565b611f4b610082565b62461bcd60e51b815280611f6160048201611f23565b0390fd5b611fc1611fc691939293611f9581611f8e611f88611f836000610c49565b6100a2565b916100a2565b141561123f565b611fba611fa186611e39565b611fb4611fae6000610d28565b91610242565b11611e98565b6001610d0d565b610d25565b91600091611fd46000610d28565b925b83611ff1611feb611fe686611e39565b610242565b91610242565b101561214e57612002838590611ec1565b519261200e6000610d28565b5b8061202a61202461201f8a610d53565b610242565b91610242565b101561213b5761204461203e888390610d62565b50610d8b565b61206261207160018301612056610082565b92839160208301610e1c565b602082018103825203826100fc565b61208361207d82610e2e565b91610e28565b206120d26120cc6120a56120b48a612099610082565b92839160208301610e5b565b602082018103825203826100fc565b6120c66120c082610e2e565b91610e28565b20610e67565b91610e67565b146120e7575b506120e290610d44565b61200f565b6120f360068201610911565b6121066121006000610366565b91610366565b14612111575b6120d8565b61212f919350612125600160068301610f19565b6007429101610f6f565b6120e26001929061210c565b5092509261214890610d44565b92611fd6565b9093506121649250908115612166575b50611f3c565b565b6121709150611e39565b61218361217d6000610d28565b91610242565b143861215e565b6121946040610125565b90565b606090565b6121a461218a565b90602080836121b1612197565b8152016121bc612197565b81525050565b6121ca61219c565b90565b67ffffffffffffffff81116121e55760208091020190565b6100e6565b906121fc6121f7836121cd565b610125565b918252565b60005b82811061221057505050565b60209061221b611389565b8184015201612204565b9061224a612232836121ea565b9260208061224086936121cd565b9201910390612201565b565b9061225682610b13565b811015612267576020809102010190565b6106fa565b6122a96122ae9161227b6121c2565b506122a28161229b6122956122906000610c49565b6100a2565b916100a2565b1415610cb0565b6001610d0d565b610d25565b6122b86000610d28565b6122c26000610d28565b906122cd6000610d28565b905b816122ea6122e46122df87610d53565b610242565b91610242565b101561238a576123076006612300868590610d62565b5001610911565b61231a6123146001610366565b91610366565b1460001461233b5761232e6123359161127e565b915b610d44565b906122cf565b90612353600661234c868490610d62565b5001610911565b6123666123606000610366565b91610366565b14612375575b61233590612330565b916123826123359161127e565b92905061236c565b916123ab91506123a161239b6121c2565b93612225565b6000840152612225565b60208201526123ba6000610d28565b6123c46000610d28565b926123cf6000610d28565b915b826123ec6123e66123e185610d53565b610242565b91610242565b10156124ec576124096006612402848690610d62565b5001610911565b61241c6124166001610366565b91610366565b1460001461246d5761246061246791612459612439858790610d62565b50600088015161244984926116bf565b612453838361224c565b5261224c565b515061127e565b925b610d44565b916123d1565b91612485600661247e848490610d62565b5001610911565b6124986124926000610366565b91610366565b146124a7575b61246790612462565b936124e4612467916124dd6124bd858990610d62565b5060208801516124cd84926116bf565b6124d7838361224c565b5261224c565b515061127e565b94905061249e565b50505090509056fea2646970667358221220a43c045d33970679b0862bd9323234bc84630fcfbfbe9879062c3e332ee42cd664736f6c634300081b0033","opcodes":"PUSH1 0x80 PUSH1 0x40 MSTORE CALLVALUE PUSH2 0x27 JUMPI PUSH2 0x11 PUSH2 0x87B JUMP JUMPDEST PUSH2 0x19 PUSH2 0x2C JUMP JUMPDEST PUSH2 0x252A PUSH2 0x1524 DUP3 CODECOPY PUSH2 0x252A SWAP1 RETURN JUMPDEST PUSH2 0x32 JUMP JUMPDEST PUSH1 0x40 MLOAD SWAP1 JUMP JUMPDEST PUSH1 0x0 DUP1 REVERT JUMPDEST SWAP1 JUMP JUMPDEST PUSH1 0xFF AND SWAP1 JUMP JUMPDEST SWAP1 JUMP JUMPDEST PUSH2 0x57 PUSH2 0x52 PUSH2 0x5C SWAP3 PUSH2 0x37 JUMP JUMPDEST PUSH2 0x40 JUMP JUMPDEST PUSH2 0x3A JUMP JUMPDEST SWAP1 JUMP JUMPDEST PUSH1 0x1F DUP1 NOT SWAP2 ADD AND SWAP1 JUMP JUMPDEST PUSH4 0x4E487B71 PUSH1 0xE0 SHL PUSH1 0x0 MSTORE PUSH1 0x41 PUSH1 0x4 MSTORE PUSH1 0x24 PUSH1 0x0 REVERT JUMPDEST SWAP1 PUSH2 0x89 SWAP1 PUSH2 0x5F JUMP JUMPDEST DUP2 ADD SWAP1 DUP2 LT PUSH1 0x1 DUP1 PUSH1 0x40 SHL SUB DUP3 GT OR PUSH2 0xA1 JUMPI PUSH1 0x40 MSTORE JUMP JUMPDEST PUSH2 0x69 JUMP JUMPDEST SWAP1 PUSH2 0xB9 PUSH2 0xB2 PUSH2 0x2C JUMP JUMPDEST SWAP3 DUP4 PUSH2 0x7F JUMP JUMPDEST JUMP JUMPDEST PUSH1 0x1 DUP1 PUSH1 0x40 SHL SUB DUP2 GT PUSH2 0xD7 JUMPI PUSH2 0xD3 PUSH1 0x20 SWAP2 PUSH2 0x5F JUMP JUMPDEST ADD SWAP1 JUMP JUMPDEST PUSH2 0x69 JUMP JUMPDEST SWAP1 PUSH2 0xEE PUSH2 0xE9 DUP4 PUSH2 0xBB JUMP JUMPDEST PUSH2 0xA6 JUMP JUMPDEST SWAP2 DUP3 MSTORE JUMP JUMPDEST PUSH1 0x0 PUSH32 0x4243470000000000000000000000000000000000000000000000000000000000 SWAP2 ADD MSTORE JUMP JUMPDEST PUSH2 0x125 PUSH1 0x3 PUSH2 0xDC JUMP JUMPDEST SWAP1 PUSH2 0x132 PUSH1 0x20 DUP4 ADD PUSH2 0xF3 JUMP JUMPDEST JUMP JUMPDEST PUSH2 0x13C PUSH2 0x11B JUMP JUMPDEST SWAP1 JUMP JUMPDEST PUSH1 0x0 PUSH6 0xEAB2B0ED95B5 PUSH1 0xD0 SHL SWAP2 ADD MSTORE JUMP JUMPDEST PUSH2 0x15A PUSH1 0x6 PUSH2 0xDC JUMP JUMPDEST SWAP1 PUSH2 0x167 PUSH1 0x20 DUP4 ADD PUSH2 0x13F JUMP JUMPDEST JUMP JUMPDEST PUSH2 0x171 PUSH2 0x150 JUMP JUMPDEST SWAP1 JUMP JUMPDEST SWAP1 JUMP JUMPDEST PUSH2 0xFFFF AND SWAP1 JUMP JUMPDEST PUSH2 0x192 PUSH2 0x18D PUSH2 0x197 SWAP3 PUSH2 0x174 JUMP JUMPDEST PUSH2 0x40 JUMP JUMPDEST PUSH2 0x177 JUMP JUMPDEST SWAP1 JUMP JUMPDEST SWAP1 JUMP JUMPDEST PUSH2 0x1B1 PUSH2 0x1AC PUSH2 0x1B6 SWAP3 PUSH2 0x19A JUMP JUMPDEST PUSH2 0x40 JUMP JUMPDEST PUSH2 0x177 JUMP JUMPDEST SWAP1 JUMP JUMPDEST SWAP1 JUMP JUMPDEST PUSH2 0x1D0 PUSH2 0x1CB PUSH2 0x1D5 SWAP3 PUSH2 0x1B9 JUMP JUMPDEST PUSH2 0x40 JUMP JUMPDEST PUSH2 0x3A JUMP JUMPDEST SWAP1 JUMP JUMPDEST PUSH1 0x0 PUSH32 0x4865704200000000000000000000000000000000000000000000000000000000 SWAP2 ADD MSTORE JUMP JUMPDEST PUSH2 0x20A PUSH1 0x4 PUSH2 0xDC JUMP JUMPDEST SWAP1 PUSH2 0x217 PUSH1 0x20 DUP4 ADD PUSH2 0x1D8 JUMP JUMPDEST JUMP JUMPDEST PUSH2 0x221 PUSH2 0x200 JUMP JUMPDEST SWAP1 JUMP JUMPDEST PUSH1 0x0 PUSH10 0x10BB66257AAC213B25EF PUSH1 0xB2 SHL SWAP2 ADD MSTORE JUMP JUMPDEST PUSH2 0x243 PUSH1 0xA PUSH2 0xDC JUMP JUMPDEST SWAP1 PUSH2 0x250 PUSH1 0x20 DUP4 ADD PUSH2 0x224 JUMP JUMPDEST JUMP JUMPDEST PUSH2 0x25A PUSH2 0x239 JUMP JUMPDEST SWAP1 JUMP JUMPDEST SWAP1 JUMP JUMPDEST PUSH2 0x274 PUSH2 0x26F PUSH2 0x279 SWAP3 PUSH2 0x25D JUMP JUMPDEST PUSH2 0x40 JUMP JUMPDEST PUSH2 0x3A JUMP JUMPDEST SWAP1 JUMP JUMPDEST SWAP1 JUMP JUMPDEST PUSH2 0x293 PUSH2 0x28E PUSH2 0x298 SWAP3 PUSH2 0x27C JUMP JUMPDEST PUSH2 0x40 JUMP JUMPDEST PUSH2 0x177 JUMP JUMPDEST SWAP1 JUMP JUMPDEST SWAP1 JUMP JUMPDEST PUSH2 0x2B2 PUSH2 0x2AD PUSH2 0x2B7 SWAP3 PUSH2 0x29B JUMP JUMPDEST PUSH2 0x40 JUMP JUMPDEST PUSH2 0x3A JUMP JUMPDEST SWAP1 JUMP JUMPDEST PUSH1 0x0 PUSH32 0x4454617000000000000000000000000000000000000000000000000000000000 SWAP2 ADD MSTORE JUMP JUMPDEST PUSH2 0x2EC PUSH1 0x4 PUSH2 0xDC JUMP JUMPDEST SWAP1 PUSH2 0x2F9 PUSH1 0x20 DUP4 ADD PUSH2 0x2BA JUMP JUMPDEST JUMP JUMPDEST PUSH2 0x303 PUSH2 0x2E2 JUMP JUMPDEST SWAP1 JUMP JUMPDEST PUSH32 0xEB9494ED9484ED858CEBA6ACEC958420ED8C8CEC8381ED928D20EBB0B1EC9DBC PUSH1 0x0 DUP3 ADD MSTORE PUSH1 0x20 PUSH3 0x3B656D PUSH1 0xEA SHL SWAP2 ADD MSTORE JUMP JUMPDEST PUSH2 0x344 PUSH1 0x23 PUSH2 0xDC JUMP JUMPDEST SWAP1 PUSH2 0x351 PUSH1 0x20 DUP4 ADD PUSH2 0x306 JUMP JUMPDEST JUMP JUMPDEST PUSH2 0x35B PUSH2 0x33A JUMP JUMPDEST SWAP1 JUMP JUMPDEST SWAP1 JUMP JUMPDEST PUSH2 0x375 PUSH2 0x370 PUSH2 0x37A SWAP3 PUSH2 0x35E JUMP JUMPDEST PUSH2 0x40 JUMP JUMPDEST PUSH2 0x177 JUMP JUMPDEST SWAP1 JUMP JUMPDEST SWAP1 JUMP JUMPDEST PUSH2 0x394 PUSH2 0x38F PUSH2 0x399 SWAP3 PUSH2 0x37D JUMP JUMPDEST PUSH2 0x40 JUMP JUMPDEST PUSH2 0x3A JUMP JUMPDEST SWAP1 JUMP JUMPDEST PUSH1 0x0 PUSH32 0x4950560000000000000000000000000000000000000000000000000000000000 SWAP2 ADD MSTORE JUMP JUMPDEST PUSH2 0x3CE PUSH1 0x3 PUSH2 0xDC JUMP JUMPDEST SWAP1 PUSH2 0x3DB PUSH1 0x20 DUP4 ADD PUSH2 0x39C JUMP JUMPDEST JUMP JUMPDEST PUSH2 0x3E5 PUSH2 0x3C4 JUMP JUMPDEST SWAP1 JUMP JUMPDEST PUSH1 0x0 PUSH9 0x3B63ED3AE9AB3B2629 PUSH1 0xBA SHL SWAP2 ADD MSTORE JUMP JUMPDEST PUSH2 0x406 PUSH1 0x9 PUSH2 0xDC JUMP JUMPDEST SWAP1 PUSH2 0x413 PUSH1 0x20 DUP4 ADD PUSH2 0x3E8 JUMP JUMPDEST JUMP JUMPDEST PUSH2 0x41D PUSH2 0x3FC JUMP JUMPDEST SWAP1 JUMP JUMPDEST SWAP1 JUMP JUMPDEST PUSH2 0x437 PUSH2 0x432 PUSH2 0x43C SWAP3 PUSH2 0x420 JUMP JUMPDEST PUSH2 0x40 JUMP JUMPDEST PUSH2 0x3A JUMP JUMPDEST SWAP1 JUMP JUMPDEST PUSH1 0x0 PUSH32 0x4869620000000000000000000000000000000000000000000000000000000000 SWAP2 ADD MSTORE JUMP JUMPDEST PUSH2 0x471 PUSH1 0x3 PUSH2 0xDC JUMP JUMPDEST SWAP1 PUSH2 0x47E PUSH1 0x20 DUP4 ADD PUSH2 0x43F JUMP JUMPDEST JUMP JUMPDEST PUSH2 0x488 PUSH2 0x467 JUMP JUMPDEST SWAP1 JUMP JUMPDEST PUSH32 0x62ED9895ED97A4EBAAA8ED9584EBA3A8EC8AA4EC9DB8ED948CEBA3A8EC9794EC PUSH1 0x0 DUP3 ADD MSTORE PUSH1 0x20 PUSH2 0x9E9 PUSH1 0xF4 SHL SWAP2 ADD MSTORE JUMP JUMPDEST PUSH2 0x4C8 PUSH1 0x22 PUSH2 0xDC JUMP JUMPDEST SWAP1 PUSH2 0x4D5 PUSH1 0x20 DUP4 ADD PUSH2 0x48B JUMP JUMPDEST JUMP JUMPDEST PUSH2 0x4DF PUSH2 0x4BE JUMP JUMPDEST SWAP1 JUMP JUMPDEST SWAP1 JUMP JUMPDEST PUSH2 0x4F9 PUSH2 0x4F4 PUSH2 0x4FE SWAP3 PUSH2 0x4E2 JUMP JUMPDEST PUSH2 0x40 JUMP JUMPDEST PUSH2 0x3A JUMP JUMPDEST SWAP1 JUMP JUMPDEST PUSH1 0x0 PUSH32 0x5043560000000000000000000000000000000000000000000000000000000000 SWAP2 ADD MSTORE JUMP JUMPDEST PUSH2 0x533 PUSH1 0x3 PUSH2 0xDC JUMP JUMPDEST SWAP1 PUSH2 0x540 PUSH1 0x20 DUP4 ADD PUSH2 0x501 JUMP JUMPDEST JUMP JUMPDEST PUSH2 0x54A PUSH2 0x529 JUMP JUMPDEST SWAP1 JUMP JUMPDEST PUSH1 0x0 PUSH12 0x76C7C875D05A755AD6755BD PUSH1 0xA5 SHL SWAP2 ADD MSTORE JUMP JUMPDEST PUSH2 0x56E PUSH1 0xC PUSH2 0xDC JUMP JUMPDEST SWAP1 PUSH2 0x57B PUSH1 0x20 DUP4 ADD PUSH2 0x54D JUMP JUMPDEST JUMP JUMPDEST PUSH2 0x585 PUSH2 0x564 JUMP JUMPDEST SWAP1 JUMP JUMPDEST SWAP1 JUMP JUMPDEST PUSH2 0x59F PUSH2 0x59A PUSH2 0x5A4 SWAP3 PUSH2 0x588 JUMP JUMPDEST PUSH2 0x40 JUMP JUMPDEST PUSH2 0x3A JUMP JUMPDEST SWAP1 JUMP JUMPDEST PUSH1 0x0 PUSH32 0x5256310000000000000000000000000000000000000000000000000000000000 SWAP2 ADD MSTORE JUMP JUMPDEST PUSH2 0x5D9 PUSH1 0x3 PUSH2 0xDC JUMP JUMPDEST SWAP1 PUSH2 0x5E6 PUSH1 0x20 DUP4 ADD PUSH2 0x5A7 JUMP JUMPDEST JUMP JUMPDEST PUSH2 0x5F0 PUSH2 0x5CF JUMP JUMPDEST SWAP1 JUMP JUMPDEST PUSH1 0x0 PUSH32 0xEBA19CED8380EBB094EC9DB4EB9FACEC8AA420EAB090EC97BCECA69D00000000 SWAP2 ADD MSTORE JUMP JUMPDEST PUSH2 0x625 PUSH1 0x1C PUSH2 0xDC JUMP JUMPDEST SWAP1 PUSH2 0x632 PUSH1 0x20 DUP4 ADD PUSH2 0x5F3 JUMP JUMPDEST JUMP JUMPDEST PUSH2 0x63C PUSH2 0x61B JUMP JUMPDEST SWAP1 JUMP JUMPDEST SWAP1 JUMP JUMPDEST PUSH2 0x656 PUSH2 0x651 PUSH2 0x65B SWAP3 PUSH2 0x63F JUMP JUMPDEST PUSH2 0x40 JUMP JUMPDEST PUSH2 0x3A JUMP JUMPDEST SWAP1 JUMP JUMPDEST PUSH1 0x0 PUSH32 0x5256350000000000000000000000000000000000000000000000000000000000 SWAP2 ADD MSTORE JUMP JUMPDEST PUSH2 0x690 PUSH1 0x3 PUSH2 0xDC JUMP JUMPDEST SWAP1 PUSH2 0x69D PUSH1 0x20 DUP4 ADD PUSH2 0x65E JUMP JUMPDEST JUMP JUMPDEST PUSH2 0x6A7 PUSH2 0x686 JUMP JUMPDEST SWAP1 JUMP JUMPDEST SWAP1 JUMP JUMPDEST PUSH2 0x6C1 PUSH2 0x6BC PUSH2 0x6C6 SWAP3 PUSH2 0x6AA JUMP JUMPDEST PUSH2 0x40 JUMP JUMPDEST PUSH2 0x3A JUMP JUMPDEST SWAP1 JUMP JUMPDEST SWAP1 JUMP JUMPDEST PUSH2 0x6E0 PUSH2 0x6DB PUSH2 0x6E5 SWAP3 PUSH2 0x6C9 JUMP JUMPDEST PUSH2 0x40 JUMP JUMPDEST PUSH2 0x177 JUMP JUMPDEST SWAP1 JUMP JUMPDEST SWAP1 JUMP JUMPDEST PUSH2 0x6FF PUSH2 0x6FA PUSH2 0x704 SWAP3 PUSH2 0x6E8 JUMP JUMPDEST PUSH2 0x40 JUMP JUMPDEST PUSH2 0x177 JUMP JUMPDEST SWAP1 JUMP JUMPDEST SWAP1 JUMP JUMPDEST PUSH2 0x71E PUSH2 0x719 PUSH2 0x723 SWAP3 PUSH2 0x707 JUMP JUMPDEST PUSH2 0x40 JUMP JUMPDEST PUSH2 0x3A JUMP JUMPDEST SWAP1 JUMP JUMPDEST SWAP1 JUMP JUMPDEST PUSH2 0x73D PUSH2 0x738 PUSH2 0x742 SWAP3 PUSH2 0x726 JUMP JUMPDEST PUSH2 0x40 JUMP JUMPDEST PUSH2 0x3A JUMP JUMPDEST SWAP1 JUMP JUMPDEST SWAP1 JUMP JUMPDEST PUSH2 0x75C PUSH2 0x757 PUSH2 0x761 SWAP3 PUSH2 0x745 JUMP JUMPDEST PUSH2 0x40 JUMP JUMPDEST PUSH2 0x3A JUMP JUMPDEST SWAP1 JUMP JUMPDEST SWAP1 JUMP JUMPDEST PUSH2 0x77B PUSH2 0x776 PUSH2 0x780 SWAP3 PUSH2 0x764 JUMP JUMPDEST PUSH2 0x40 JUMP JUMPDEST PUSH2 0x3A JUMP JUMPDEST SWAP1 JUMP JUMPDEST SWAP1 JUMP JUMPDEST PUSH2 0x79A PUSH2 0x795 PUSH2 0x79F SWAP3 PUSH2 0x783 JUMP JUMPDEST PUSH2 0x40 JUMP JUMPDEST PUSH2 0x3A JUMP JUMPDEST SWAP1 JUMP JUMPDEST SWAP1 JUMP JUMPDEST PUSH2 0x7B9 PUSH2 0x7B4 PUSH2 0x7BE SWAP3 PUSH2 0x7A2 JUMP JUMPDEST PUSH2 0x40 JUMP JUMPDEST PUSH2 0x3A JUMP JUMPDEST SWAP1 JUMP JUMPDEST SWAP1 JUMP JUMPDEST PUSH2 0x7D8 PUSH2 0x7D3 PUSH2 0x7DD SWAP3 PUSH2 0x7C1 JUMP JUMPDEST PUSH2 0x40 JUMP JUMPDEST PUSH2 0x177 JUMP JUMPDEST SWAP1 JUMP JUMPDEST SWAP1 JUMP JUMPDEST PUSH2 0x7F7 PUSH2 0x7F2 PUSH2 0x7FC SWAP3 PUSH2 0x7E0 JUMP JUMPDEST PUSH2 0x40 JUMP JUMPDEST PUSH2 0x177 JUMP JUMPDEST SWAP1 JUMP JUMPDEST SWAP1 JUMP JUMPDEST PUSH2 0x816 PUSH2 0x811 PUSH2 0x81B SWAP3 PUSH2 0x7FF JUMP JUMPDEST PUSH2 0x40 JUMP JUMPDEST PUSH2 0x3A JUMP JUMPDEST SWAP1 JUMP JUMPDEST SWAP1 JUMP JUMPDEST PUSH2 0x835 PUSH2 0x830 PUSH2 0x83A SWAP3 PUSH2 0x81E JUMP JUMPDEST PUSH2 0x40 JUMP JUMPDEST PUSH2 0x3A JUMP JUMPDEST SWAP1 JUMP JUMPDEST SWAP1 JUMP JUMPDEST PUSH2 0x854 PUSH2 0x84F PUSH2 0x859 SWAP3 PUSH2 0x83D JUMP JUMPDEST PUSH2 0x40 JUMP JUMPDEST PUSH2 0x3A JUMP JUMPDEST SWAP1 JUMP JUMPDEST SWAP1 JUMP JUMPDEST PUSH2 0x873 PUSH2 0x86E PUSH2 0x878 SWAP3 PUSH2 0x85C JUMP JUMPDEST PUSH2 0x40 JUMP JUMPDEST PUSH2 0x3A JUMP JUMPDEST SWAP1 JUMP JUMPDEST PUSH2 0x8C0 PUSH1 0x1 DUP1 PUSH1 0x0 PUSH2 0x88E PUSH1 0x1E SWAP3 PUSH2 0x43 JUMP JUMPDEST SWAP3 PUSH2 0x897 PUSH2 0x134 JUMP JUMPDEST PUSH2 0x8BA PUSH2 0x8B4 PUSH2 0x8AE PUSH2 0x8A8 PUSH2 0x169 JUMP JUMPDEST SWAP5 PUSH2 0x43 JUMP JUMPDEST SWAP5 PUSH2 0x17E JUMP JUMPDEST SWAP5 PUSH2 0x19D JUMP JUMPDEST SWAP5 PUSH2 0x1442 JUMP JUMPDEST PUSH2 0x907 PUSH1 0x2 PUSH1 0x1 SWAP1 PUSH1 0x0 PUSH2 0x8D5 PUSH1 0x1E SWAP3 PUSH2 0x1BC JUMP JUMPDEST SWAP3 PUSH2 0x8DE PUSH2 0x219 JUMP JUMPDEST PUSH2 0x901 PUSH2 0x8FB PUSH2 0x8F5 PUSH2 0x8EF PUSH2 0x252 JUMP JUMPDEST SWAP5 PUSH2 0x43 JUMP JUMPDEST SWAP5 PUSH2 0x17E JUMP JUMPDEST SWAP5 PUSH2 0x19D JUMP JUMPDEST SWAP5 PUSH2 0x1442 JUMP JUMPDEST PUSH2 0x94E PUSH1 0x3 PUSH1 0x2 SWAP1 PUSH1 0x1E PUSH2 0x91C PUSH1 0x3C SWAP3 PUSH2 0x260 JUMP JUMPDEST SWAP3 PUSH2 0x925 PUSH2 0x219 JUMP JUMPDEST PUSH2 0x948 PUSH2 0x942 PUSH2 0x93C PUSH2 0x936 PUSH2 0x252 JUMP JUMPDEST SWAP5 PUSH2 0x1BC JUMP JUMPDEST SWAP5 PUSH2 0x19D JUMP JUMPDEST SWAP5 PUSH2 0x27F JUMP JUMPDEST SWAP5 PUSH2 0x1442 JUMP JUMPDEST PUSH2 0x995 PUSH1 0x4 PUSH1 0x1 SWAP1 PUSH1 0x3C PUSH2 0x963 PUSH1 0x5A SWAP3 PUSH2 0x29E JUMP JUMPDEST SWAP3 PUSH2 0x96C PUSH2 0x2FB JUMP JUMPDEST PUSH2 0x98F PUSH2 0x989 PUSH2 0x983 PUSH2 0x97D PUSH2 0x353 JUMP JUMPDEST SWAP5 PUSH2 0x43 JUMP JUMPDEST SWAP5 PUSH2 0x27F JUMP JUMPDEST SWAP5 PUSH2 0x361 JUMP JUMPDEST SWAP5 PUSH2 0x1442 JUMP JUMPDEST PUSH2 0x9DC PUSH1 0x5 PUSH1 0x1 SWAP1 PUSH1 0x3C PUSH2 0x9AA PUSH1 0x5A SWAP3 PUSH2 0x380 JUMP JUMPDEST SWAP3 PUSH2 0x9B3 PUSH2 0x3DD JUMP JUMPDEST PUSH2 0x9D6 PUSH2 0x9D0 PUSH2 0x9CA PUSH2 0x9C4 PUSH2 0x415 JUMP JUMPDEST SWAP5 PUSH2 0x43 JUMP JUMPDEST SWAP5 PUSH2 0x27F JUMP JUMPDEST SWAP5 PUSH2 0x361 JUMP JUMPDEST SWAP5 PUSH2 0x1442 JUMP JUMPDEST PUSH2 0xA23 PUSH1 0x6 PUSH1 0x1 SWAP1 PUSH1 0x3C PUSH2 0x9F1 PUSH1 0x5A SWAP3 PUSH2 0x423 JUMP JUMPDEST SWAP3 PUSH2 0x9FA PUSH2 0x480 JUMP JUMPDEST PUSH2 0xA1D PUSH2 0xA17 PUSH2 0xA11 PUSH2 0xA0B PUSH2 0x4D7 JUMP JUMPDEST SWAP5 PUSH2 0x43 JUMP JUMPDEST SWAP5 PUSH2 0x27F JUMP JUMPDEST SWAP5 PUSH2 0x361 JUMP JUMPDEST SWAP5 PUSH2 0x1442 JUMP JUMPDEST PUSH2 0xA6A PUSH1 0x7 PUSH1 0x1 SWAP1 PUSH1 0x3C PUSH2 0xA38 PUSH1 0x5A SWAP3 PUSH2 0x4E5 JUMP JUMPDEST SWAP3 PUSH2 0xA41 PUSH2 0x542 JUMP JUMPDEST PUSH2 0xA64 PUSH2 0xA5E PUSH2 0xA58 PUSH2 0xA52 PUSH2 0x57D JUMP JUMPDEST SWAP5 PUSH2 0x43 JUMP JUMPDEST SWAP5 PUSH2 0x27F JUMP JUMPDEST SWAP5 PUSH2 0x361 JUMP JUMPDEST SWAP5 PUSH2 0x1442 JUMP JUMPDEST PUSH2 0xAB1 PUSH1 0x8 PUSH1 0x1 SWAP1 PUSH1 0x3C PUSH2 0xA7F PUSH1 0x5A SWAP3 PUSH2 0x58B JUMP JUMPDEST SWAP3 PUSH2 0xA88 PUSH2 0x5E8 JUMP JUMPDEST PUSH2 0xAAB PUSH2 0xAA5 PUSH2 0xA9F PUSH2 0xA99 PUSH2 0x634 JUMP JUMPDEST SWAP5 PUSH2 0x43 JUMP JUMPDEST SWAP5 PUSH2 0x27F JUMP JUMPDEST SWAP5 PUSH2 0x361 JUMP JUMPDEST SWAP5 PUSH2 0x1442 JUMP JUMPDEST PUSH2 0xAF8 PUSH1 0x9 PUSH1 0x1 SWAP1 PUSH1 0x3C PUSH2 0xAC6 PUSH1 0x5A SWAP3 PUSH2 0x642 JUMP JUMPDEST SWAP3 PUSH2 0xACF PUSH2 0x69F JUMP JUMPDEST PUSH2 0xAF2 PUSH2 0xAEC PUSH2 0xAE6 PUSH2 0xAE0 PUSH2 0x634 JUMP JUMPDEST SWAP5 PUSH2 0x43 JUMP JUMPDEST SWAP5 PUSH2 0x27F JUMP JUMPDEST SWAP5 PUSH2 0x361 JUMP JUMPDEST SWAP5 PUSH2 0x1442 JUMP JUMPDEST PUSH2 0xB3F PUSH1 0xA PUSH1 0x2 SWAP1 PUSH1 0x78 PUSH2 0xB0D PUSH1 0x96 SWAP3 PUSH2 0x6AD JUMP JUMPDEST SWAP3 PUSH2 0xB16 PUSH2 0x2FB JUMP JUMPDEST PUSH2 0xB39 PUSH2 0xB33 PUSH2 0xB2D PUSH2 0xB27 PUSH2 0x353 JUMP JUMPDEST SWAP5 PUSH2 0x1BC JUMP JUMPDEST SWAP5 PUSH2 0x6CC JUMP JUMPDEST SWAP5 PUSH2 0x6EB JUMP JUMPDEST SWAP5 PUSH2 0x1442 JUMP JUMPDEST PUSH2 0xB86 PUSH1 0xB PUSH1 0x2 SWAP1 PUSH1 0x78 PUSH2 0xB54 PUSH1 0x96 SWAP3 PUSH2 0x70A JUMP JUMPDEST SWAP3 PUSH2 0xB5D PUSH2 0x3DD JUMP JUMPDEST PUSH2 0xB80 PUSH2 0xB7A PUSH2 0xB74 PUSH2 0xB6E PUSH2 0x415 JUMP JUMPDEST SWAP5 PUSH2 0x1BC JUMP JUMPDEST SWAP5 PUSH2 0x6CC JUMP JUMPDEST SWAP5 PUSH2 0x6EB JUMP JUMPDEST SWAP5 PUSH2 0x1442 JUMP JUMPDEST PUSH2 0xBCD PUSH1 0xC PUSH1 0x2 SWAP1 PUSH1 0x78 PUSH2 0xB9B PUSH1 0x96 SWAP3 PUSH2 0x729 JUMP JUMPDEST SWAP3 PUSH2 0xBA4 PUSH2 0x480 JUMP JUMPDEST PUSH2 0xBC7 PUSH2 0xBC1 PUSH2 0xBBB PUSH2 0xBB5 PUSH2 0x4D7 JUMP JUMPDEST SWAP5 PUSH2 0x1BC JUMP JUMPDEST SWAP5 PUSH2 0x6CC JUMP JUMPDEST SWAP5 PUSH2 0x6EB JUMP JUMPDEST SWAP5 PUSH2 0x1442 JUMP JUMPDEST PUSH2 0xC14 PUSH1 0xD PUSH1 0x2 SWAP1 PUSH1 0x78 PUSH2 0xBE2 PUSH1 0x96 SWAP3 PUSH2 0x748 JUMP JUMPDEST SWAP3 PUSH2 0xBEB PUSH2 0x542 JUMP JUMPDEST PUSH2 0xC0E PUSH2 0xC08 PUSH2 0xC02 PUSH2 0xBFC PUSH2 0x57D JUMP JUMPDEST SWAP5 PUSH2 0x1BC JUMP JUMPDEST SWAP5 PUSH2 0x6CC JUMP JUMPDEST SWAP5 PUSH2 0x6EB JUMP JUMPDEST SWAP5 PUSH2 0x1442 JUMP JUMPDEST PUSH2 0xC5B PUSH1 0xE PUSH1 0x2 SWAP1 PUSH1 0x78 PUSH2 0xC29 PUSH1 0x96 SWAP3 PUSH2 0x767 JUMP JUMPDEST SWAP3 PUSH2 0xC32 PUSH2 0x5E8 JUMP JUMPDEST PUSH2 0xC55 PUSH2 0xC4F PUSH2 0xC49 PUSH2 0xC43 PUSH2 0x634 JUMP JUMPDEST SWAP5 PUSH2 0x1BC JUMP JUMPDEST SWAP5 PUSH2 0x6CC JUMP JUMPDEST SWAP5 PUSH2 0x6EB JUMP JUMPDEST SWAP5 PUSH2 0x1442 JUMP JUMPDEST PUSH2 0xCA2 PUSH1 0x12 PUSH1 0x2 SWAP1 PUSH1 0x78 PUSH2 0xC70 PUSH1 0x96 SWAP3 PUSH2 0x786 JUMP JUMPDEST SWAP3 PUSH2 0xC79 PUSH2 0x69F JUMP JUMPDEST PUSH2 0xC9C PUSH2 0xC96 PUSH2 0xC90 PUSH2 0xC8A PUSH2 0x634 JUMP JUMPDEST SWAP5 PUSH2 0x1BC JUMP JUMPDEST SWAP5 PUSH2 0x6CC JUMP JUMPDEST SWAP5 PUSH2 0x6EB JUMP JUMPDEST SWAP5 PUSH2 0x1442 JUMP JUMPDEST PUSH2 0xCE9 PUSH1 0x13 PUSH1 0x3 SWAP1 PUSH1 0xB4 PUSH2 0xCB7 PUSH1 0xD2 SWAP3 PUSH2 0x7A5 JUMP JUMPDEST SWAP3 PUSH2 0xCC0 PUSH2 0x219 JUMP JUMPDEST PUSH2 0xCE3 PUSH2 0xCDD PUSH2 0xCD7 PUSH2 0xCD1 PUSH2 0x252 JUMP JUMPDEST SWAP5 PUSH2 0x260 JUMP JUMPDEST SWAP5 PUSH2 0x7C4 JUMP JUMPDEST SWAP5 PUSH2 0x7E3 JUMP JUMPDEST SWAP5 PUSH2 0x1442 JUMP JUMPDEST PUSH2 0xD30 PUSH1 0x14 PUSH1 0x3 SWAP1 PUSH1 0xB4 PUSH2 0xCFE PUSH1 0xD2 SWAP3 PUSH2 0x802 JUMP JUMPDEST SWAP3 PUSH2 0xD07 PUSH2 0x2FB JUMP JUMPDEST PUSH2 0xD2A PUSH2 0xD24 PUSH2 0xD1E PUSH2 0xD18 PUSH2 0x353 JUMP JUMPDEST SWAP5 PUSH2 0x260 JUMP JUMPDEST SWAP5 PUSH2 0x7C4 JUMP JUMPDEST SWAP5 PUSH2 0x7E3 JUMP JUMPDEST SWAP5 PUSH2 0x1442 JUMP JUMPDEST PUSH2 0xD77 PUSH1 0x16 PUSH1 0x3 SWAP1 PUSH1 0xB4 PUSH2 0xD45 PUSH1 0xD2 SWAP3 PUSH2 0x821 JUMP JUMPDEST SWAP3 PUSH2 0xD4E PUSH2 0x480 JUMP JUMPDEST PUSH2 0xD71 PUSH2 0xD6B PUSH2 0xD65 PUSH2 0xD5F PUSH2 0x4D7 JUMP JUMPDEST SWAP5 PUSH2 0x260 JUMP JUMPDEST SWAP5 PUSH2 0x7C4 JUMP JUMPDEST SWAP5 PUSH2 0x7E3 JUMP JUMPDEST SWAP5 PUSH2 0x1442 JUMP JUMPDEST PUSH2 0xDBE PUSH1 0x17 PUSH1 0x2 SWAP1 PUSH1 0xB4 PUSH2 0xD8C PUSH1 0xD2 SWAP3 PUSH2 0x840 JUMP JUMPDEST SWAP3 PUSH2 0xD95 PUSH2 0x542 JUMP JUMPDEST PUSH2 0xDB8 PUSH2 0xDB2 PUSH2 0xDAC PUSH2 0xDA6 PUSH2 0x57D JUMP JUMPDEST SWAP5 PUSH2 0x1BC JUMP JUMPDEST SWAP5 PUSH2 0x7C4 JUMP JUMPDEST SWAP5 PUSH2 0x7E3 JUMP JUMPDEST SWAP5 PUSH2 0x1442 JUMP JUMPDEST PUSH2 0xE05 PUSH1 0x18 PUSH1 0x3 SWAP1 PUSH1 0xB4 PUSH2 0xDD3 PUSH1 0xD2 SWAP3 PUSH2 0x85F JUMP JUMPDEST SWAP3 PUSH2 0xDDC PUSH2 0x69F JUMP JUMPDEST PUSH2 0xDFF PUSH2 0xDF9 PUSH2 0xDF3 PUSH2 0xDED PUSH2 0x634 JUMP JUMPDEST SWAP5 PUSH2 0x260 JUMP JUMPDEST SWAP5 PUSH2 0x7C4 JUMP JUMPDEST SWAP5 PUSH2 0x7E3 JUMP JUMPDEST SWAP5 PUSH2 0x1442 JUMP JUMPDEST JUMP JUMPDEST SWAP1 JUMP JUMPDEST PUSH2 0xE15 PUSH2 0x140 PUSH2 0xA6 JUMP JUMPDEST SWAP1 JUMP JUMPDEST SWAP1 PUSH2 0xE22 SWAP1 PUSH2 0x3A JUMP JUMPDEST SWAP1 MSTORE JUMP JUMPDEST MSTORE JUMP JUMPDEST SWAP1 PUSH2 0xE33 SWAP1 PUSH2 0x177 JUMP JUMPDEST SWAP1 MSTORE JUMP JUMPDEST SWAP1 JUMP JUMPDEST PUSH2 0xE4E PUSH2 0xE49 PUSH2 0xE53 SWAP3 PUSH2 0x174 JUMP JUMPDEST PUSH2 0x40 JUMP JUMPDEST PUSH2 0xE37 JUMP JUMPDEST SWAP1 JUMP JUMPDEST SWAP1 PUSH2 0xE60 SWAP1 PUSH2 0xE37 JUMP JUMPDEST SWAP1 MSTORE JUMP JUMPDEST PUSH4 0x4E487B71 PUSH1 0xE0 SHL PUSH1 0x0 MSTORE PUSH1 0x21 PUSH1 0x4 MSTORE PUSH1 0x24 PUSH1 0x0 REVERT JUMPDEST PUSH1 0x2 GT ISZERO PUSH2 0xE84 JUMPI JUMP JUMPDEST PUSH2 0xE64 JUMP JUMPDEST SWAP1 PUSH2 0xE93 DUP3 PUSH2 0xE7A JUMP JUMPDEST JUMP JUMPDEST SWAP1 PUSH2 0xE9F SWAP1 PUSH2 0xE89 JUMP JUMPDEST SWAP1 MSTORE JUMP JUMPDEST PUSH1 0x0 MSTORE PUSH1 0x20 PUSH1 0x0 KECCAK256 SWAP1 JUMP JUMPDEST PUSH4 0x4E487B71 PUSH1 0xE0 SHL PUSH1 0x0 MSTORE PUSH1 0x32 PUSH1 0x4 MSTORE PUSH1 0x24 PUSH1 0x0 REVERT JUMPDEST SLOAD SWAP1 JUMP JUMPDEST PUSH2 0xED1 DUP2 PUSH2 0xEC4 JUMP JUMPDEST DUP3 LT ISZERO PUSH2 0xEEC JUMPI PUSH2 0xEE3 PUSH1 0x8 SWAP2 PUSH2 0xEA3 JUMP JUMPDEST SWAP2 MUL ADD SWAP1 PUSH1 0x0 SWAP1 JUMP JUMPDEST PUSH2 0xEAE JUMP JUMPDEST PUSH4 0x4E487B71 PUSH1 0xE0 SHL PUSH1 0x0 MSTORE PUSH1 0x0 PUSH1 0x4 MSTORE PUSH1 0x24 PUSH1 0x0 REVERT JUMPDEST PUSH2 0xF11 SWAP1 MLOAD PUSH2 0x3A JUMP JUMPDEST SWAP1 JUMP JUMPDEST PUSH1 0x0 SHL SWAP1 JUMP JUMPDEST SWAP1 PUSH2 0xF26 PUSH1 0xFF SWAP2 PUSH2 0xF14 JUMP JUMPDEST SWAP2 DUP2 NOT AND SWAP2 AND OR SWAP1 JUMP JUMPDEST PUSH2 0xF44 PUSH2 0xF3F PUSH2 0xF49 SWAP3 PUSH2 0x3A JUMP JUMPDEST PUSH2 0x40 JUMP JUMPDEST PUSH2 0x3A JUMP JUMPDEST SWAP1 JUMP JUMPDEST SWAP1 JUMP JUMPDEST SWAP1 PUSH2 0xF64 PUSH2 0xF5F PUSH2 0xF6B SWAP3 PUSH2 0xF30 JUMP JUMPDEST PUSH2 0xF4C JUMP JUMPDEST DUP3 SLOAD PUSH2 0xF1A JUMP JUMPDEST SWAP1 SSTORE JUMP JUMPDEST MLOAD SWAP1 JUMP JUMPDEST MLOAD SWAP1 JUMP JUMPDEST PUSH4 0x4E487B71 PUSH1 0xE0 SHL PUSH1 0x0 MSTORE PUSH1 0x22 PUSH1 0x4 MSTORE PUSH1 0x24 PUSH1 0x0 REVERT JUMPDEST SWAP1 PUSH1 0x1 PUSH1 0x2 DUP4 DIV SWAP3 AND DUP1 ISZERO PUSH2 0xFAD JUMPI JUMPDEST PUSH1 0x20 DUP4 LT EQ PUSH2 0xFA8 JUMPI JUMP JUMPDEST PUSH2 0xF77 JUMP JUMPDEST SWAP2 PUSH1 0x7F AND SWAP2 PUSH2 0xF9D JUMP JUMPDEST PUSH1 0x0 MSTORE PUSH1 0x20 PUSH1 0x0 KECCAK256 SWAP1 JUMP JUMPDEST PUSH1 0x1F PUSH1 0x20 SWAP2 ADD DIV SWAP1 JUMP JUMPDEST SHL SWAP1 JUMP JUMPDEST SWAP2 SWAP1 PUSH1 0x8 PUSH2 0xFEC SWAP2 MUL SWAP2 PUSH2 0xFE6 PUSH1 0x0 NOT DUP5 PUSH2 0xFCC JUMP JUMPDEST SWAP3 PUSH2 0xFCC JUMP JUMPDEST SWAP2 DUP2 NOT AND SWAP2 AND OR SWAP1 JUMP JUMPDEST PUSH2 0x100A PUSH2 0x1005 PUSH2 0x100F SWAP3 PUSH2 0xE37 JUMP JUMPDEST PUSH2 0x40 JUMP JUMPDEST PUSH2 0xE37 JUMP JUMPDEST SWAP1 JUMP JUMPDEST SWAP1 JUMP JUMPDEST SWAP2 SWAP1 PUSH2 0x102B PUSH2 0x1026 PUSH2 0x1033 SWAP4 PUSH2 0xFF6 JUMP JUMPDEST PUSH2 0x1012 JUMP JUMPDEST SWAP1 DUP4 SLOAD PUSH2 0xFD0 JUMP JUMPDEST SWAP1 SSTORE JUMP JUMPDEST PUSH1 0x0 SWAP1 JUMP JUMPDEST PUSH2 0x104E SWAP2 PUSH2 0x1048 PUSH2 0x1037 JUMP JUMPDEST SWAP2 PUSH2 0x1015 JUMP JUMPDEST JUMP JUMPDEST JUMPDEST DUP2 DUP2 LT PUSH2 0x105C JUMPI POP POP JUMP JUMPDEST DUP1 PUSH2 0x106A PUSH1 0x0 PUSH1 0x1 SWAP4 PUSH2 0x103C JUMP JUMPDEST ADD PUSH2 0x1051 JUMP JUMPDEST SWAP2 SWAP1 PUSH1 0x1F DUP2 GT PUSH2 0x1080 JUMPI JUMPDEST POP POP POP JUMP JUMPDEST PUSH2 0x108C PUSH2 0x10B1 SWAP4 PUSH2 0xFB7 JUMP JUMPDEST SWAP1 PUSH1 0x20 PUSH2 0x1098 DUP5 PUSH2 0xFC2 JUMP JUMPDEST DUP4 ADD SWAP4 LT PUSH2 0x10B9 JUMPI JUMPDEST PUSH2 0x10AA SWAP1 PUSH2 0xFC2 JUMP JUMPDEST ADD SWAP1 PUSH2 0x1050 JUMP JUMPDEST CODESIZE DUP1 DUP1 PUSH2 0x107B JUMP JUMPDEST SWAP2 POP PUSH2 0x10AA DUP2 SWAP3 SWAP1 POP PUSH2 0x10A1 JUMP JUMPDEST SHR SWAP1 JUMP JUMPDEST SWAP1 PUSH2 0x10DC SWAP1 PUSH1 0x0 NOT SWAP1 PUSH1 0x8 MUL PUSH2 0x10C7 JUMP JUMPDEST NOT AND SWAP1 JUMP JUMPDEST DUP2 PUSH2 0x10EB SWAP2 PUSH2 0x10CB JUMP JUMPDEST SWAP1 PUSH1 0x2 MUL OR SWAP1 JUMP JUMPDEST SWAP1 PUSH2 0x10FD DUP2 PUSH2 0xF73 JUMP JUMPDEST SWAP1 PUSH1 0x1 DUP1 PUSH1 0x40 SHL SUB DUP3 GT PUSH2 0x11BD JUMPI PUSH2 0x111F DUP3 PUSH2 0x1119 DUP6 SLOAD PUSH2 0xF8D JUMP JUMPDEST DUP6 PUSH2 0x1070 JUMP JUMPDEST PUSH1 0x20 SWAP1 PUSH1 0x1F DUP4 GT PUSH1 0x1 EQ PUSH2 0x1154 JUMPI SWAP2 DUP1 SWAP2 PUSH2 0x1143 SWAP4 PUSH1 0x0 SWAP3 PUSH2 0x1148 JUMPI JUMPDEST POP POP PUSH2 0x10E1 JUMP JUMPDEST SWAP1 SSTORE JUMPDEST JUMP JUMPDEST SWAP1 SWAP2 POP ADD MLOAD CODESIZE DUP1 PUSH2 0x113C JUMP JUMPDEST PUSH1 0x1F NOT DUP4 AND SWAP2 PUSH2 0x1163 DUP6 PUSH2 0xFB7 JUMP JUMPDEST SWAP3 PUSH1 0x0 JUMPDEST DUP2 DUP2 LT PUSH2 0x11A5 JUMPI POP SWAP2 PUSH1 0x2 SWAP4 SWAP2 DUP6 PUSH1 0x1 SWAP7 SWAP5 LT PUSH2 0x118B JUMPI JUMPDEST POP POP POP MUL ADD SWAP1 SSTORE PUSH2 0x1146 JUMP JUMPDEST PUSH2 0x119B SWAP2 ADD MLOAD PUSH1 0x1F DUP5 AND SWAP1 PUSH2 0x10CB JUMP JUMPDEST SWAP1 SSTORE CODESIZE DUP1 DUP1 PUSH2 0x117F JUMP JUMPDEST SWAP2 SWAP4 PUSH1 0x20 PUSH1 0x1 DUP2 SWAP3 DUP8 DUP8 ADD MLOAD DUP2 SSTORE ADD SWAP6 ADD SWAP3 ADD PUSH2 0x1167 JUMP JUMPDEST PUSH2 0x69 JUMP JUMPDEST SWAP1 PUSH2 0x11CC SWAP2 PUSH2 0x10F3 JUMP JUMPDEST JUMP JUMPDEST PUSH2 0x11D8 SWAP1 MLOAD PUSH2 0x177 JUMP JUMPDEST SWAP1 JUMP JUMPDEST PUSH1 0x8 SHL SWAP1 JUMP JUMPDEST SWAP1 PUSH2 0x11EF PUSH3 0xFFFF00 SWAP2 PUSH2 0x11DB JUMP JUMPDEST SWAP2 DUP2 NOT AND SWAP2 AND OR SWAP1 JUMP JUMPDEST PUSH2 0x120D PUSH2 0x1208 PUSH2 0x1212 SWAP3 PUSH2 0x177 JUMP JUMPDEST PUSH2 0x40 JUMP JUMPDEST PUSH2 0x177 JUMP JUMPDEST SWAP1 JUMP JUMPDEST SWAP1 JUMP JUMPDEST SWAP1 PUSH2 0x122D PUSH2 0x1228 PUSH2 0x1234 SWAP3 PUSH2 0x11F9 JUMP JUMPDEST PUSH2 0x1215 JUMP JUMPDEST DUP3 SLOAD PUSH2 0x11E1 JUMP JUMPDEST SWAP1 SSTORE JUMP JUMPDEST PUSH1 0x18 SHL SWAP1 JUMP JUMPDEST SWAP1 PUSH2 0x124E PUSH5 0xFFFF000000 SWAP2 PUSH2 0x1238 JUMP JUMPDEST SWAP2 DUP2 NOT AND SWAP2 AND OR SWAP1 JUMP JUMPDEST SWAP1 PUSH2 0x126D PUSH2 0x1268 PUSH2 0x1274 SWAP3 PUSH2 0x11F9 JUMP JUMPDEST PUSH2 0x1215 JUMP JUMPDEST DUP3 SLOAD PUSH2 0x123E JUMP JUMPDEST SWAP1 SSTORE JUMP JUMPDEST PUSH2 0x1282 SWAP1 MLOAD PUSH2 0xE37 JUMP JUMPDEST SWAP1 JUMP JUMPDEST SWAP1 PUSH2 0x1292 PUSH1 0x0 NOT SWAP2 PUSH2 0xF14 JUMP JUMPDEST SWAP2 DUP2 NOT AND SWAP2 AND OR SWAP1 JUMP JUMPDEST SWAP1 PUSH2 0x12B1 PUSH2 0x12AC PUSH2 0x12B8 SWAP3 PUSH2 0xFF6 JUMP JUMPDEST PUSH2 0x1012 JUMP JUMPDEST DUP3 SLOAD PUSH2 0x1285 JUMP JUMPDEST SWAP1 SSTORE JUMP JUMPDEST PUSH2 0x12C6 SWAP1 MLOAD PUSH2 0xE89 JUMP JUMPDEST SWAP1 JUMP JUMPDEST PUSH2 0x12D2 SWAP1 PUSH2 0xE89 JUMP JUMPDEST SWAP1 JUMP JUMPDEST SWAP1 JUMP JUMPDEST SWAP1 PUSH2 0x12ED PUSH2 0x12E8 PUSH2 0x12F4 SWAP3 PUSH2 0x12C9 JUMP JUMPDEST PUSH2 0x12D5 JUMP JUMPDEST DUP3 SLOAD PUSH2 0xF1A JUMP JUMPDEST SWAP1 SSTORE JUMP JUMPDEST SWAP1 PUSH2 0x13EF PUSH2 0x120 PUSH1 0x7 PUSH2 0x13F5 SWAP5 PUSH2 0x131E PUSH1 0x0 DUP3 ADD PUSH2 0x1318 PUSH1 0x0 DUP9 ADD PUSH2 0xF07 JUMP JUMPDEST SWAP1 PUSH2 0xF4F JUMP JUMPDEST PUSH2 0x1337 PUSH1 0x1 DUP3 ADD PUSH2 0x1331 PUSH1 0x20 DUP9 ADD PUSH2 0xF6F JUMP JUMPDEST SWAP1 PUSH2 0x11C2 JUMP JUMPDEST PUSH2 0x1350 PUSH1 0x2 DUP3 ADD PUSH2 0x134A PUSH1 0x40 DUP9 ADD PUSH2 0xF6F JUMP JUMPDEST SWAP1 PUSH2 0x11C2 JUMP JUMPDEST PUSH2 0x1369 PUSH1 0x3 DUP3 ADD PUSH2 0x1363 PUSH1 0x60 DUP9 ADD PUSH2 0xF07 JUMP JUMPDEST SWAP1 PUSH2 0xF4F JUMP JUMPDEST PUSH2 0x1382 PUSH1 0x3 DUP3 ADD PUSH2 0x137C PUSH1 0x80 DUP9 ADD PUSH2 0x11CE JUMP JUMPDEST SWAP1 PUSH2 0x1218 JUMP JUMPDEST PUSH2 0x139B PUSH1 0x3 DUP3 ADD PUSH2 0x1395 PUSH1 0xA0 DUP9 ADD PUSH2 0x11CE JUMP JUMPDEST SWAP1 PUSH2 0x1258 JUMP JUMPDEST PUSH2 0x13B4 PUSH1 0x4 DUP3 ADD PUSH2 0x13AE PUSH1 0xC0 DUP9 ADD PUSH2 0x1278 JUMP JUMPDEST SWAP1 PUSH2 0x129C JUMP JUMPDEST PUSH2 0x13CD PUSH1 0x5 DUP3 ADD PUSH2 0x13C7 PUSH1 0xE0 DUP9 ADD PUSH2 0x1278 JUMP JUMPDEST SWAP1 PUSH2 0x129C JUMP JUMPDEST PUSH2 0x13E7 PUSH1 0x6 DUP3 ADD PUSH2 0x13E1 PUSH2 0x100 DUP9 ADD PUSH2 0x12BC JUMP JUMPDEST SWAP1 PUSH2 0x12D8 JUMP JUMPDEST ADD SWAP3 ADD PUSH2 0x1278 JUMP JUMPDEST SWAP1 PUSH2 0x129C JUMP JUMPDEST JUMP JUMPDEST SWAP2 SWAP1 PUSH2 0x1408 JUMPI PUSH2 0x1406 SWAP2 PUSH2 0x12F8 JUMP JUMPDEST JUMP JUMPDEST PUSH2 0xEF1 JUMP JUMPDEST SWAP1 DUP2 SLOAD SWAP2 PUSH9 0x10000000000000000 DUP4 LT ISZERO PUSH2 0x143D JUMPI DUP3 PUSH2 0x1435 SWAP2 PUSH1 0x1 PUSH2 0x143B SWAP6 ADD DUP2 SSTORE PUSH2 0xEC8 JUMP JUMPDEST SWAP1 PUSH2 0x13F7 JUMP JUMPDEST JUMP JUMPDEST PUSH2 0x69 JUMP JUMPDEST SWAP5 SWAP4 SWAP1 SWAP4 SWAP3 SWAP2 SWAP3 PUSH1 0x0 PUSH2 0x1454 SWAP1 PUSH2 0xE07 JUMP JUMPDEST SWAP6 SWAP5 SWAP4 SWAP3 SWAP2 SWAP1 PUSH1 0x0 SWAP2 PUSH1 0x0 SWAP4 PUSH1 0x0 SWAP6 PUSH1 0x0 SWAP8 PUSH2 0x146E PUSH2 0xE0A JUMP JUMPDEST SWAP10 PUSH1 0x0 DUP12 ADD SWAP1 PUSH2 0x147D SWAP2 PUSH2 0xE18 JUMP JUMPDEST PUSH1 0x20 DUP11 ADD SWAP1 PUSH2 0x148B SWAP2 PUSH2 0xE26 JUMP JUMPDEST PUSH1 0x40 DUP10 ADD SWAP1 PUSH2 0x1499 SWAP2 PUSH2 0xE26 JUMP JUMPDEST PUSH1 0x60 DUP9 ADD SWAP1 PUSH2 0x14A7 SWAP2 PUSH2 0xE18 JUMP JUMPDEST PUSH1 0x80 DUP8 ADD SWAP1 PUSH2 0x14B5 SWAP2 PUSH2 0xE29 JUMP JUMPDEST PUSH1 0xA0 DUP7 ADD SWAP1 PUSH2 0x14C3 SWAP2 PUSH2 0xE29 JUMP JUMPDEST PUSH2 0x14CC SWAP1 PUSH2 0xE3A JUMP JUMPDEST PUSH1 0xC0 DUP6 ADD SWAP1 PUSH2 0x14DA SWAP2 PUSH2 0xE56 JUMP JUMPDEST PUSH2 0x14E3 SWAP1 PUSH2 0xE3A JUMP JUMPDEST PUSH1 0xE0 DUP5 ADD SWAP1 PUSH2 0x14F1 SWAP2 PUSH2 0xE56 JUMP JUMPDEST PUSH2 0x100 DUP4 ADD SWAP1 PUSH2 0x1500 SWAP2 PUSH2 0xE95 JUMP JUMPDEST PUSH2 0x1509 SWAP1 PUSH2 0xE3A JUMP JUMPDEST PUSH2 0x120 DUP3 ADD SWAP1 PUSH2 0x1518 SWAP2 PUSH2 0xE56 JUMP JUMPDEST PUSH2 0x1521 SWAP2 PUSH2 0x140D JUMP JUMPDEST JUMP INVALID PUSH1 0x80 PUSH1 0x40 MSTORE PUSH1 0x4 CALLDATASIZE LT ISZERO PUSH2 0x13 JUMPI JUMPDEST PUSH2 0xC22 JUMP JUMPDEST PUSH2 0x1E PUSH1 0x0 CALLDATALOAD PUSH2 0x7C JUMP JUMPDEST DUP1 PUSH3 0xBCEC27 EQ PUSH2 0x77 JUMPI DUP1 PUSH4 0x375FFC73 EQ PUSH2 0x72 JUMPI DUP1 PUSH4 0x59C3309E EQ PUSH2 0x6D JUMPI DUP1 PUSH4 0x647A6682 EQ PUSH2 0x68 JUMPI DUP1 PUSH4 0xE10B406C EQ PUSH2 0x63 JUMPI PUSH4 0xEB607DB1 SUB PUSH2 0xE JUMPI PUSH2 0xBED JUMP JUMPDEST PUSH2 0xAD1 JUMP JUMPDEST PUSH2 0x6A7 JUMP JUMPDEST PUSH2 0x579 JUMP JUMPDEST PUSH2 0x524 JUMP JUMPDEST PUSH2 0x20E JUMP JUMPDEST PUSH1 0xE0 SHR SWAP1 JUMP JUMPDEST PUSH1 0x40 MLOAD SWAP1 JUMP JUMPDEST PUSH1 0x0 DUP1 REVERT JUMPDEST PUSH1 0x0 DUP1 REVERT JUMPDEST PUSH1 0x0 DUP1 REVERT JUMPDEST PUSH1 0x1 DUP1 PUSH1 0xA0 SHL SUB AND SWAP1 JUMP JUMPDEST PUSH2 0xAB SWAP1 PUSH2 0x97 JUMP JUMPDEST SWAP1 JUMP JUMPDEST PUSH2 0xB7 DUP2 PUSH2 0xA2 JUMP JUMPDEST SUB PUSH2 0xBE JUMPI JUMP JUMPDEST PUSH1 0x0 DUP1 REVERT JUMPDEST SWAP1 POP CALLDATALOAD SWAP1 PUSH2 0xD0 DUP3 PUSH2 0xAE JUMP JUMPDEST JUMP JUMPDEST PUSH1 0x0 DUP1 REVERT JUMPDEST PUSH1 0x0 DUP1 REVERT JUMPDEST PUSH1 0x1F DUP1 NOT SWAP2 ADD AND SWAP1 JUMP JUMPDEST PUSH4 0x4E487B71 PUSH1 0xE0 SHL PUSH1 0x0 MSTORE PUSH1 0x41 PUSH1 0x4 MSTORE PUSH1 0x24 PUSH1 0x0 REVERT JUMPDEST SWAP1 PUSH2 0x106 SWAP1 PUSH2 0xDC JUMP JUMPDEST DUP2 ADD SWAP1 DUP2 LT PUSH8 0xFFFFFFFFFFFFFFFF DUP3 GT OR PUSH2 0x120 JUMPI PUSH1 0x40 MSTORE JUMP JUMPDEST PUSH2 0xE6 JUMP JUMPDEST SWAP1 PUSH2 0x138 PUSH2 0x131 PUSH2 0x82 JUMP JUMPDEST SWAP3 DUP4 PUSH2 0xFC JUMP JUMPDEST JUMP JUMPDEST PUSH8 0xFFFFFFFFFFFFFFFF DUP2 GT PUSH2 0x158 JUMPI PUSH2 0x154 PUSH1 0x20 SWAP2 PUSH2 0xDC JUMP JUMPDEST ADD SWAP1 JUMP JUMPDEST PUSH2 0xE6 JUMP JUMPDEST SWAP1 DUP3 PUSH1 0x0 SWAP4 SWAP3 DUP3 CALLDATACOPY ADD MSTORE JUMP JUMPDEST SWAP1 SWAP3 SWAP2 SWAP3 PUSH2 0x17E PUSH2 0x179 DUP3 PUSH2 0x13A JUMP JUMPDEST PUSH2 0x125 JUMP JUMPDEST SWAP4 DUP2 DUP6 MSTORE PUSH1 0x20 DUP6 ADD SWAP1 DUP3 DUP5 ADD GT PUSH2 0x19A JUMPI PUSH2 0x198 SWAP3 PUSH2 0x15D JUMP JUMPDEST JUMP JUMPDEST PUSH2 0xD7 JUMP JUMPDEST SWAP1 DUP1 PUSH1 0x1F DUP4 ADD SLT ISZERO PUSH2 0x1BD JUMPI DUP2 PUSH1 0x20 PUSH2 0x1BA SWAP4 CALLDATALOAD SWAP2 ADD PUSH2 0x169 JUMP JUMPDEST SWAP1 JUMP JUMPDEST PUSH2 0xD2 JUMP JUMPDEST SWAP2 SWAP1 SWAP2 PUSH1 0x40 DUP2 DUP5 SUB SLT PUSH2 0x203 JUMPI PUSH2 0x1DC DUP4 PUSH1 0x0 DUP4 ADD PUSH2 0xC3 JUMP JUMPDEST SWAP3 PUSH1 0x20 DUP3 ADD CALLDATALOAD PUSH8 0xFFFFFFFFFFFFFFFF DUP2 GT PUSH2 0x1FE JUMPI PUSH2 0x1FB SWAP3 ADD PUSH2 0x19F JUMP JUMPDEST SWAP1 JUMP JUMPDEST PUSH2 0x92 JUMP JUMPDEST PUSH2 0x8D JUMP JUMPDEST PUSH1 0x0 ADD SWAP1 JUMP JUMPDEST CALLVALUE PUSH2 0x23D JUMPI PUSH2 0x227 PUSH2 0x221 CALLDATASIZE PUSH1 0x4 PUSH2 0x1C2 JUMP JUMPDEST SWAP1 PUSH2 0x1011 JUMP JUMPDEST PUSH2 0x22F PUSH2 0x82 JUMP JUMPDEST DUP1 PUSH2 0x239 DUP2 PUSH2 0x208 JUMP JUMPDEST SUB SWAP1 RETURN JUMPDEST PUSH2 0x88 JUMP JUMPDEST SWAP1 JUMP JUMPDEST PUSH2 0x24E DUP2 PUSH2 0x242 JUMP JUMPDEST SUB PUSH2 0x255 JUMPI JUMP JUMPDEST PUSH1 0x0 DUP1 REVERT JUMPDEST SWAP1 POP CALLDATALOAD SWAP1 PUSH2 0x267 DUP3 PUSH2 0x245 JUMP JUMPDEST JUMP JUMPDEST SWAP2 SWAP1 PUSH1 0x40 DUP4 DUP3 SUB SLT PUSH2 0x292 JUMPI DUP1 PUSH2 0x286 PUSH2 0x28F SWAP3 PUSH1 0x0 DUP7 ADD PUSH2 0xC3 JUMP JUMPDEST SWAP4 PUSH1 0x20 ADD PUSH2 0x25A JUMP JUMPDEST SWAP1 JUMP JUMPDEST PUSH2 0x8D JUMP JUMPDEST MLOAD SWAP1 JUMP JUMPDEST PUSH1 0x20 SWAP2 DUP2 MSTORE ADD SWAP1 JUMP JUMPDEST PUSH1 0x20 ADD SWAP1 JUMP JUMPDEST PUSH1 0xFF AND SWAP1 JUMP JUMPDEST PUSH2 0x2B9 SWAP1 PUSH2 0x2AA JUMP JUMPDEST SWAP1 MSTORE JUMP JUMPDEST MLOAD SWAP1 JUMP JUMPDEST PUSH1 0x20 SWAP2 DUP2 MSTORE ADD SWAP1 JUMP JUMPDEST PUSH1 0x0 JUMPDEST DUP4 DUP2 LT PUSH2 0x2DE JUMPI POP POP SWAP1 PUSH1 0x0 SWAP2 ADD MSTORE JUMP JUMPDEST DUP1 PUSH1 0x20 SWAP2 DUP4 ADD MLOAD DUP2 DUP6 ADD MSTORE ADD PUSH2 0x2CD JUMP JUMPDEST PUSH2 0x30E PUSH2 0x317 PUSH1 0x20 SWAP4 PUSH2 0x31C SWAP4 PUSH2 0x305 DUP2 PUSH2 0x2BD JUMP JUMPDEST SWAP4 DUP5 DUP1 SWAP4 PUSH2 0x2C1 JUMP JUMPDEST SWAP6 DUP7 SWAP2 ADD PUSH2 0x2CA JUMP JUMPDEST PUSH2 0xDC JUMP JUMPDEST ADD SWAP1 JUMP JUMPDEST PUSH2 0xFFFF AND SWAP1 JUMP JUMPDEST PUSH2 0x330 SWAP1 PUSH2 0x320 JUMP JUMPDEST SWAP1 MSTORE JUMP JUMPDEST PUSH2 0x33D SWAP1 PUSH2 0x242 JUMP JUMPDEST SWAP1 MSTORE JUMP JUMPDEST PUSH4 0x4E487B71 PUSH1 0xE0 SHL PUSH1 0x0 MSTORE PUSH1 0x21 PUSH1 0x4 MSTORE PUSH1 0x24 PUSH1 0x0 REVERT JUMPDEST PUSH1 0x2 GT ISZERO PUSH2 0x361 JUMPI JUMP JUMPDEST PUSH2 0x341 JUMP JUMPDEST SWAP1 PUSH2 0x370 DUP3 PUSH2 0x357 JUMP JUMPDEST JUMP JUMPDEST PUSH2 0x37B SWAP1 PUSH2 0x366 JUMP JUMPDEST SWAP1 JUMP JUMPDEST PUSH2 0x387 SWAP1 PUSH2 0x372 JUMP JUMPDEST SWAP1 MSTORE JUMP JUMPDEST SWAP1 PUSH2 0x44E SWAP1 PUSH2 0x120 DUP1 PUSH2 0x3D5 PUSH2 0x3C3 PUSH2 0x140 DUP6 ADD PUSH2 0x3B1 PUSH1 0x0 DUP10 ADD MLOAD PUSH1 0x0 DUP9 ADD SWAP1 PUSH2 0x2B0 JUMP JUMPDEST PUSH1 0x20 DUP9 ADD MLOAD DUP7 DUP3 SUB PUSH1 0x20 DUP9 ADD MSTORE PUSH2 0x2EF JUMP JUMPDEST PUSH1 0x40 DUP8 ADD MLOAD DUP6 DUP3 SUB PUSH1 0x40 DUP8 ADD MSTORE PUSH2 0x2EF JUMP JUMPDEST SWAP5 PUSH2 0x3E8 PUSH1 0x60 DUP3 ADD MLOAD PUSH1 0x60 DUP7 ADD SWAP1 PUSH2 0x2B0 JUMP JUMPDEST PUSH2 0x3FA PUSH1 0x80 DUP3 ADD MLOAD PUSH1 0x80 DUP7 ADD SWAP1 PUSH2 0x327 JUMP JUMPDEST PUSH2 0x40C PUSH1 0xA0 DUP3 ADD MLOAD PUSH1 0xA0 DUP7 ADD SWAP1 PUSH2 0x327 JUMP JUMPDEST PUSH2 0x41E PUSH1 0xC0 DUP3 ADD MLOAD PUSH1 0xC0 DUP7 ADD SWAP1 PUSH2 0x334 JUMP JUMPDEST PUSH2 0x430 PUSH1 0xE0 DUP3 ADD MLOAD PUSH1 0xE0 DUP7 ADD SWAP1 PUSH2 0x334 JUMP JUMPDEST PUSH2 0x444 PUSH2 0x100 DUP3 ADD MLOAD PUSH2 0x100 DUP7 ADD SWAP1 PUSH2 0x37E JUMP JUMPDEST ADD MLOAD SWAP2 ADD SWAP1 PUSH2 0x334 JUMP JUMPDEST SWAP1 JUMP JUMPDEST SWAP1 JUMP JUMPDEST PUSH2 0x45D SWAP1 PUSH2 0x451 JUMP JUMPDEST SWAP1 MSTORE JUMP JUMPDEST SWAP1 PUSH2 0x48D SWAP1 PUSH1 0x20 DUP1 PUSH2 0x482 PUSH1 0x40 DUP5 ADD PUSH1 0x0 DUP8 ADD MLOAD DUP6 DUP3 SUB PUSH1 0x0 DUP8 ADD MSTORE PUSH2 0x38B JUMP JUMPDEST SWAP5 ADD MLOAD SWAP2 ADD SWAP1 PUSH2 0x454 JUMP JUMPDEST SWAP1 JUMP JUMPDEST SWAP1 PUSH2 0x49A SWAP2 PUSH2 0x461 JUMP JUMPDEST SWAP1 JUMP JUMPDEST PUSH1 0x20 ADD SWAP1 JUMP JUMPDEST SWAP1 PUSH2 0x4B7 PUSH2 0x4B0 DUP4 PUSH2 0x297 JUMP JUMPDEST DUP1 SWAP3 PUSH2 0x29B JUMP JUMPDEST SWAP1 DUP2 PUSH2 0x4C8 PUSH1 0x20 DUP4 MUL DUP5 ADD SWAP5 PUSH2 0x2A4 JUMP JUMPDEST SWAP3 PUSH1 0x0 SWAP2 JUMPDEST DUP4 DUP4 LT PUSH2 0x4DC JUMPI POP POP POP POP POP SWAP1 JUMP JUMPDEST SWAP1 SWAP2 SWAP3 SWAP4 SWAP5 PUSH1 0x20 PUSH2 0x4FE PUSH2 0x4F8 DUP4 DUP6 PUSH1 0x1 SWAP6 SUB DUP8 MSTORE DUP10 MLOAD PUSH2 0x490 JUMP JUMPDEST SWAP8 PUSH2 0x49D JUMP JUMPDEST SWAP4 ADD SWAP4 ADD SWAP2 SWAP4 SWAP3 SWAP1 PUSH2 0x4CD JUMP JUMPDEST PUSH2 0x521 SWAP2 PUSH1 0x20 DUP3 ADD SWAP2 PUSH1 0x0 DUP2 DUP5 SUB SWAP2 ADD MSTORE PUSH2 0x4A3 JUMP JUMPDEST SWAP1 JUMP JUMPDEST CALLVALUE PUSH2 0x555 JUMPI PUSH2 0x551 PUSH2 0x540 PUSH2 0x53A CALLDATASIZE PUSH1 0x4 PUSH2 0x269 JUMP JUMPDEST SWAP1 PUSH2 0x16FC JUMP JUMPDEST PUSH2 0x548 PUSH2 0x82 JUMP JUMPDEST SWAP2 DUP3 SWAP2 DUP3 PUSH2 0x50B JUMP JUMPDEST SUB SWAP1 RETURN JUMPDEST PUSH2 0x88 JUMP JUMPDEST SWAP1 PUSH1 0x20 DUP3 DUP3 SUB SLT PUSH2 0x574 JUMPI PUSH2 0x571 SWAP2 PUSH1 0x0 ADD PUSH2 0xC3 JUMP JUMPDEST SWAP1 JUMP JUMPDEST PUSH2 0x8D JUMP JUMPDEST CALLVALUE PUSH2 0x5A7 JUMPI PUSH2 0x591 PUSH2 0x58C CALLDATASIZE PUSH1 0x4 PUSH2 0x55A JUMP JUMPDEST PUSH2 0x1DA8 JUMP JUMPDEST PUSH2 0x599 PUSH2 0x82 JUMP JUMPDEST DUP1 PUSH2 0x5A3 DUP2 PUSH2 0x208 JUMP JUMPDEST SUB SWAP1 RETURN JUMPDEST PUSH2 0x88 JUMP JUMPDEST PUSH8 0xFFFFFFFFFFFFFFFF DUP2 GT PUSH2 0x5C4 JUMPI PUSH1 0x20 DUP1 SWAP2 MUL ADD SWAP1 JUMP JUMPDEST PUSH2 0xE6 JUMP JUMPDEST PUSH1 0x0 DUP1 REVERT JUMPDEST SWAP3 SWAP2 SWAP1 PUSH2 0x5E2 PUSH2 0x5DD DUP3 PUSH2 0x5AC JUMP JUMPDEST PUSH2 0x125 JUMP JUMPDEST SWAP4 DUP2 DUP6 MSTORE PUSH1 0x20 DUP1 DUP7 ADD SWAP3 MUL DUP2 ADD SWAP2 DUP4 DUP4 GT PUSH2 0x639 JUMPI DUP2 SWAP1 JUMPDEST DUP4 DUP3 LT PUSH2 0x608 JUMPI POP POP POP POP POP JUMP JUMPDEST DUP2 CALLDATALOAD PUSH8 0xFFFFFFFFFFFFFFFF DUP2 GT PUSH2 0x634 JUMPI PUSH1 0x20 SWAP2 PUSH2 0x629 DUP8 DUP5 SWAP4 DUP8 ADD PUSH2 0x19F JUMP JUMPDEST DUP2 MSTORE ADD SWAP2 ADD SWAP1 PUSH2 0x5FA JUMP JUMPDEST PUSH2 0xD2 JUMP JUMPDEST PUSH2 0x5C9 JUMP JUMPDEST SWAP1 DUP1 PUSH1 0x1F DUP4 ADD SLT ISZERO PUSH2 0x65C JUMPI DUP2 PUSH1 0x20 PUSH2 0x659 SWAP4 CALLDATALOAD SWAP2 ADD PUSH2 0x5CE JUMP JUMPDEST SWAP1 JUMP JUMPDEST PUSH2 0xD2 JUMP JUMPDEST SWAP2 SWAP1 SWAP2 PUSH1 0x40 DUP2 DUP5 SUB SLT PUSH2 0x6A2 JUMPI PUSH2 0x67B DUP4 PUSH1 0x0 DUP4 ADD PUSH2 0xC3 JUMP JUMPDEST SWAP3 PUSH1 0x20 DUP3 ADD CALLDATALOAD PUSH8 0xFFFFFFFFFFFFFFFF DUP2 GT PUSH2 0x69D JUMPI PUSH2 0x69A SWAP3 ADD PUSH2 0x63E JUMP JUMPDEST SWAP1 JUMP JUMPDEST PUSH2 0x92 JUMP JUMPDEST PUSH2 0x8D JUMP JUMPDEST CALLVALUE PUSH2 0x6D6 JUMPI PUSH2 0x6C0 PUSH2 0x6BA CALLDATASIZE PUSH1 0x4 PUSH2 0x661 JUMP JUMPDEST SWAP1 PUSH2 0x1F65 JUMP JUMPDEST PUSH2 0x6C8 PUSH2 0x82 JUMP JUMPDEST DUP1 PUSH2 0x6D2 DUP2 PUSH2 0x208 JUMP JUMPDEST SUB SWAP1 RETURN JUMPDEST PUSH2 0x88 JUMP JUMPDEST SWAP1 PUSH1 0x20 DUP3 DUP3 SUB SLT PUSH2 0x6F5 JUMPI PUSH2 0x6F2 SWAP2 PUSH1 0x0 ADD PUSH2 0x25A JUMP JUMPDEST SWAP1 JUMP JUMPDEST PUSH2 0x8D JUMP JUMPDEST PUSH4 0x4E487B71 PUSH1 0xE0 SHL PUSH1 0x0 MSTORE PUSH1 0x32 PUSH1 0x4 MSTORE PUSH1 0x24 PUSH1 0x0 REVERT JUMPDEST SLOAD SWAP1 JUMP JUMPDEST PUSH1 0x0 MSTORE PUSH1 0x20 PUSH1 0x0 KECCAK256 SWAP1 JUMP JUMPDEST PUSH2 0x728 DUP2 PUSH2 0x710 JUMP JUMPDEST DUP3 LT ISZERO PUSH2 0x743 JUMPI PUSH2 0x73A PUSH1 0x8 SWAP2 PUSH2 0x714 JUMP JUMPDEST SWAP2 MUL ADD SWAP1 PUSH1 0x0 SWAP1 JUMP JUMPDEST PUSH2 0x6FA JUMP JUMPDEST PUSH1 0x0 SHR SWAP1 JUMP JUMPDEST PUSH1 0xFF AND SWAP1 JUMP JUMPDEST PUSH2 0x760 PUSH2 0x765 SWAP2 PUSH2 0x748 JUMP JUMPDEST PUSH2 0x74E JUMP JUMPDEST SWAP1 JUMP JUMPDEST PUSH2 0x772 SWAP1 SLOAD PUSH2 0x754 JUMP JUMPDEST SWAP1 JUMP JUMPDEST PUSH4 0x4E487B71 PUSH1 0xE0 SHL PUSH1 0x0 MSTORE PUSH1 0x22 PUSH1 0x4 MSTORE PUSH1 0x24 PUSH1 0x0 REVERT JUMPDEST SWAP1 PUSH1 0x1 PUSH1 0x2 DUP4 DIV SWAP3 AND DUP1 ISZERO PUSH2 0x7AB JUMPI JUMPDEST PUSH1 0x20 DUP4 LT EQ PUSH2 0x7A6 JUMPI JUMP JUMPDEST PUSH2 0x775 JUMP JUMPDEST SWAP2 PUSH1 0x7F AND SWAP2 PUSH2 0x79B JUMP JUMPDEST PUSH1 0x0 MSTORE PUSH1 0x20 PUSH1 0x0 KECCAK256 SWAP1 JUMP JUMPDEST SWAP1 PUSH1 0x0 SWAP3 SWAP2 DUP1 SLOAD SWAP1 PUSH2 0x7DB PUSH2 0x7D4 DUP4 PUSH2 0x78B JUMP JUMPDEST DUP1 SWAP5 PUSH2 0x2C1 JUMP JUMPDEST SWAP2 PUSH1 0x1 DUP2 AND SWAP1 DUP2 PUSH1 0x0 EQ PUSH2 0x834 JUMPI POP PUSH1 0x1 EQ PUSH2 0x7F7 JUMPI JUMPDEST POP POP POP JUMP JUMPDEST PUSH2 0x804 SWAP2 SWAP3 SWAP4 SWAP5 POP PUSH2 0x7B5 JUMP JUMPDEST SWAP2 PUSH1 0x0 SWAP3 JUMPDEST DUP2 DUP5 LT PUSH2 0x81C JUMPI POP POP ADD SWAP1 CODESIZE DUP1 DUP1 PUSH2 0x7F2 JUMP JUMPDEST PUSH1 0x1 DUP2 PUSH1 0x20 SWAP3 SWAP6 SWAP4 SWAP6 SLOAD DUP5 DUP7 ADD MSTORE ADD SWAP2 ADD SWAP3 SWAP1 PUSH2 0x809 JUMP JUMPDEST SWAP3 SWAP5 SWAP6 POP POP POP PUSH1 0xFF NOT AND DUP3 MSTORE ISZERO ISZERO PUSH1 0x20 MUL ADD SWAP1 CODESIZE DUP1 DUP1 PUSH2 0x7F2 JUMP JUMPDEST SWAP1 PUSH2 0x859 SWAP2 PUSH2 0x7C0 JUMP JUMPDEST SWAP1 JUMP JUMPDEST SWAP1 PUSH2 0x87C PUSH2 0x875 SWAP3 PUSH2 0x86C PUSH2 0x82 JUMP JUMPDEST SWAP4 DUP5 DUP1 SWAP3 PUSH2 0x84F JUMP JUMPDEST SUB DUP4 PUSH2 0xFC JUMP JUMPDEST JUMP JUMPDEST PUSH1 0x8 SHR SWAP1 JUMP JUMPDEST PUSH2 0xFFFF AND SWAP1 JUMP JUMPDEST PUSH2 0x897 PUSH2 0x89C SWAP2 PUSH2 0x87E JUMP JUMPDEST PUSH2 0x884 JUMP JUMPDEST SWAP1 JUMP JUMPDEST PUSH2 0x8A9 SWAP1 SLOAD PUSH2 0x88B JUMP JUMPDEST SWAP1 JUMP JUMPDEST PUSH1 0x18 SHR SWAP1 JUMP JUMPDEST PUSH2 0x8BE PUSH2 0x8C3 SWAP2 PUSH2 0x8AC JUMP JUMPDEST PUSH2 0x884 JUMP JUMPDEST SWAP1 JUMP JUMPDEST PUSH2 0x8D0 SWAP1 SLOAD PUSH2 0x8B2 JUMP JUMPDEST SWAP1 JUMP JUMPDEST SWAP1 JUMP JUMPDEST PUSH2 0x8E2 PUSH2 0x8E7 SWAP2 PUSH2 0x748 JUMP JUMPDEST PUSH2 0x8D3 JUMP JUMPDEST SWAP1 JUMP JUMPDEST PUSH2 0x8F4 SWAP1 SLOAD PUSH2 0x8D6 JUMP JUMPDEST SWAP1 JUMP JUMPDEST PUSH1 0xFF AND SWAP1 JUMP JUMPDEST PUSH2 0x909 PUSH2 0x90E SWAP2 PUSH2 0x748 JUMP JUMPDEST PUSH2 0x8F7 JUMP JUMPDEST SWAP1 JUMP JUMPDEST PUSH2 0x91B SWAP1 SLOAD PUSH2 0x8FD JUMP JUMPDEST SWAP1 JUMP JUMPDEST PUSH1 0x0 SWAP1 PUSH2 0x92A DUP3 PUSH2 0x710 JUMP JUMPDEST DUP2 LT ISZERO PUSH2 0x9BF JUMPI PUSH2 0x93A SWAP2 PUSH2 0x71F JUMP JUMPDEST POP SWAP1 PUSH2 0x948 PUSH1 0x0 DUP4 ADD PUSH2 0x768 JUMP JUMPDEST SWAP2 PUSH2 0x955 PUSH1 0x1 DUP3 ADD PUSH2 0x85C JUMP JUMPDEST SWAP2 PUSH2 0x962 PUSH1 0x2 DUP4 ADD PUSH2 0x85C JUMP JUMPDEST SWAP2 PUSH2 0x96F PUSH1 0x3 DUP3 ADD PUSH2 0x768 JUMP JUMPDEST SWAP2 PUSH2 0x97C PUSH1 0x3 DUP4 ADD PUSH2 0x89F JUMP JUMPDEST SWAP2 PUSH2 0x989 PUSH1 0x3 DUP3 ADD PUSH2 0x8C6 JUMP JUMPDEST SWAP2 PUSH2 0x996 PUSH1 0x4 DUP4 ADD PUSH2 0x8EA JUMP JUMPDEST SWAP2 PUSH2 0x9A3 PUSH1 0x5 DUP3 ADD PUSH2 0x8EA JUMP JUMPDEST SWAP2 PUSH2 0x9BC PUSH1 0x7 PUSH2 0x9B5 PUSH1 0x6 DUP6 ADD PUSH2 0x911 JUMP JUMPDEST SWAP4 ADD PUSH2 0x8EA JUMP JUMPDEST SWAP1 JUMP JUMPDEST PUSH1 0x0 DUP1 REVERT JUMPDEST PUSH2 0x9CD SWAP1 PUSH2 0x2AA JUMP JUMPDEST SWAP1 MSTORE JUMP JUMPDEST PUSH1 0x20 SWAP2 DUP2 MSTORE ADD SWAP1 JUMP JUMPDEST PUSH2 0x9F9 PUSH2 0xA02 PUSH1 0x20 SWAP4 PUSH2 0xA07 SWAP4 PUSH2 0x9F0 DUP2 PUSH2 0x2BD JUMP JUMPDEST SWAP4 DUP5 DUP1 SWAP4 PUSH2 0x9D1 JUMP JUMPDEST SWAP6 DUP7 SWAP2 ADD PUSH2 0x2CA JUMP JUMPDEST PUSH2 0xDC JUMP JUMPDEST ADD SWAP1 JUMP JUMPDEST PUSH2 0xA14 SWAP1 PUSH2 0x320 JUMP JUMPDEST SWAP1 MSTORE JUMP JUMPDEST PUSH2 0xA21 SWAP1 PUSH2 0x242 JUMP JUMPDEST SWAP1 MSTORE JUMP JUMPDEST PUSH2 0xA2E SWAP1 PUSH2 0x372 JUMP JUMPDEST SWAP1 MSTORE JUMP JUMPDEST SWAP8 SWAP6 SWAP4 SWAP11 SWAP10 SWAP9 SWAP7 SWAP5 SWAP3 SWAP2 SWAP1 PUSH2 0x140 DUP10 ADD SWAP1 PUSH1 0x0 DUP11 ADD PUSH2 0xA50 SWAP2 PUSH2 0x9C4 JUMP JUMPDEST DUP9 DUP2 SUB PUSH1 0x20 DUP11 ADD MSTORE PUSH2 0xA61 SWAP2 PUSH2 0x9DA JUMP JUMPDEST DUP8 DUP2 SUB PUSH1 0x40 DUP10 ADD MSTORE PUSH2 0xA72 SWAP2 PUSH2 0x9DA JUMP JUMPDEST SWAP9 PUSH1 0x60 DUP8 ADD PUSH2 0xA80 SWAP2 PUSH2 0x9C4 JUMP JUMPDEST PUSH1 0x80 DUP7 ADD PUSH2 0xA8D SWAP2 PUSH2 0xA0B JUMP JUMPDEST PUSH1 0xA0 DUP6 ADD PUSH2 0xA9A SWAP2 PUSH2 0xA0B JUMP JUMPDEST PUSH1 0xC0 DUP5 ADD PUSH2 0xAA7 SWAP2 PUSH2 0xA18 JUMP JUMPDEST PUSH1 0xE0 DUP4 ADD PUSH2 0xAB4 SWAP2 PUSH2 0xA18 JUMP JUMPDEST PUSH2 0x100 DUP3 ADD PUSH2 0xAC2 SWAP2 PUSH2 0xA25 JUMP JUMPDEST PUSH2 0x120 ADD PUSH2 0xACF SWAP2 PUSH2 0xA18 JUMP JUMPDEST JUMP JUMPDEST CALLVALUE PUSH2 0xB0E JUMPI PUSH2 0xB0A PUSH2 0xAEC PUSH2 0xAE7 CALLDATASIZE PUSH1 0x4 PUSH2 0x6DB JUMP JUMPDEST PUSH2 0x91E JUMP JUMPDEST SWAP7 PUSH2 0xB01 SWAP11 SWAP9 SWAP11 SWAP7 SWAP2 SWAP7 SWAP6 SWAP3 SWAP6 SWAP5 SWAP4 SWAP5 PUSH2 0x82 JUMP JUMPDEST SWAP11 DUP12 SWAP11 DUP12 PUSH2 0xA32 JUMP JUMPDEST SUB SWAP1 RETURN JUMPDEST PUSH2 0x88 JUMP JUMPDEST MLOAD SWAP1 JUMP JUMPDEST PUSH1 0x20 SWAP2 DUP2 MSTORE ADD SWAP1 JUMP JUMPDEST PUSH1 0x20 ADD SWAP1 JUMP JUMPDEST SWAP1 PUSH2 0xB30 SWAP2 PUSH2 0x38B JUMP JUMPDEST SWAP1 JUMP JUMPDEST PUSH1 0x20 ADD SWAP1 JUMP JUMPDEST SWAP1 PUSH2 0xB4D PUSH2 0xB46 DUP4 PUSH2 0xB13 JUMP JUMPDEST DUP1 SWAP3 PUSH2 0xB17 JUMP JUMPDEST SWAP1 DUP2 PUSH2 0xB5E PUSH1 0x20 DUP4 MUL DUP5 ADD SWAP5 PUSH2 0xB20 JUMP JUMPDEST SWAP3 PUSH1 0x0 SWAP2 JUMPDEST DUP4 DUP4 LT PUSH2 0xB72 JUMPI POP POP POP POP POP SWAP1 JUMP JUMPDEST SWAP1 SWAP2 SWAP3 SWAP4 SWAP5 PUSH1 0x20 PUSH2 0xB94 PUSH2 0xB8E DUP4 DUP6 PUSH1 0x1 SWAP6 SUB DUP8 MSTORE DUP10 MLOAD PUSH2 0xB26 JUMP JUMPDEST SWAP8 PUSH2 0xB33 JUMP JUMPDEST SWAP4 ADD SWAP4 ADD SWAP2 SWAP4 SWAP3 SWAP1 PUSH2 0xB63 JUMP JUMPDEST PUSH2 0xBD1 SWAP2 PUSH1 0x20 PUSH2 0xBC0 PUSH1 0x40 DUP4 ADD PUSH1 0x0 DUP6 ADD MLOAD DUP5 DUP3 SUB PUSH1 0x0 DUP7 ADD MSTORE PUSH2 0xB39 JUMP JUMPDEST SWAP3 ADD MLOAD SWAP1 PUSH1 0x20 DUP2 DUP5 SUB SWAP2 ADD MSTORE PUSH2 0xB39 JUMP JUMPDEST SWAP1 JUMP JUMPDEST PUSH2 0xBEA SWAP2 PUSH1 0x20 DUP3 ADD SWAP2 PUSH1 0x0 DUP2 DUP5 SUB SWAP2 ADD MSTORE PUSH2 0xBA1 JUMP JUMPDEST SWAP1 JUMP JUMPDEST CALLVALUE PUSH2 0xC1D JUMPI PUSH2 0xC19 PUSH2 0xC08 PUSH2 0xC03 CALLDATASIZE PUSH1 0x4 PUSH2 0x55A JUMP JUMPDEST PUSH2 0x226C JUMP JUMPDEST PUSH2 0xC10 PUSH2 0x82 JUMP JUMPDEST SWAP2 DUP3 SWAP2 DUP3 PUSH2 0xBD4 JUMP JUMPDEST SUB SWAP1 RETURN JUMPDEST PUSH2 0x88 JUMP JUMPDEST PUSH1 0x0 DUP1 REVERT JUMPDEST SWAP1 JUMP JUMPDEST SWAP1 JUMP JUMPDEST PUSH2 0xC41 PUSH2 0xC3C PUSH2 0xC46 SWAP3 PUSH2 0xC27 JUMP JUMPDEST PUSH2 0xC2A JUMP JUMPDEST PUSH2 0x97 JUMP JUMPDEST SWAP1 JUMP JUMPDEST PUSH2 0xC52 SWAP1 PUSH2 0xC2D JUMP JUMPDEST SWAP1 JUMP JUMPDEST PUSH1 0x0 PUSH32 0x496E76616C696420616464726573730000000000000000000000000000000000 SWAP2 ADD MSTORE JUMP JUMPDEST PUSH2 0xC8A PUSH1 0xF PUSH1 0x20 SWAP3 PUSH2 0x9D1 JUMP JUMPDEST PUSH2 0xC93 DUP2 PUSH2 0xC55 JUMP JUMPDEST ADD SWAP1 JUMP JUMPDEST PUSH2 0xCAD SWAP1 PUSH1 0x20 DUP2 ADD SWAP1 PUSH1 0x0 DUP2 DUP4 SUB SWAP2 ADD MSTORE PUSH2 0xC7D JUMP JUMPDEST SWAP1 JUMP JUMPDEST ISZERO PUSH2 0xCB7 JUMPI JUMP JUMPDEST PUSH2 0xCBF PUSH2 0x82 JUMP JUMPDEST PUSH3 0x461BCD PUSH1 0xE5 SHL DUP2 MSTORE DUP1 PUSH2 0xCD5 PUSH1 0x4 DUP3 ADD PUSH2 0xC97 JUMP JUMPDEST SUB SWAP1 REVERT JUMPDEST PUSH2 0xCED PUSH2 0xCE8 PUSH2 0xCF2 SWAP3 PUSH2 0x97 JUMP JUMPDEST PUSH2 0xC2A JUMP JUMPDEST PUSH2 0x97 JUMP JUMPDEST SWAP1 JUMP JUMPDEST PUSH2 0xCFE SWAP1 PUSH2 0xCD9 JUMP JUMPDEST SWAP1 JUMP JUMPDEST PUSH2 0xD0A SWAP1 PUSH2 0xCF5 JUMP JUMPDEST SWAP1 JUMP JUMPDEST SWAP1 PUSH2 0xD17 SWAP1 PUSH2 0xD01 JUMP JUMPDEST PUSH1 0x0 MSTORE PUSH1 0x20 MSTORE PUSH1 0x40 PUSH1 0x0 KECCAK256 SWAP1 JUMP JUMPDEST SWAP1 JUMP JUMPDEST PUSH2 0xD3C PUSH2 0xD37 PUSH2 0xD41 SWAP3 PUSH2 0xC27 JUMP JUMPDEST PUSH2 0xC2A JUMP JUMPDEST PUSH2 0x242 JUMP JUMPDEST SWAP1 JUMP JUMPDEST PUSH1 0x1 PUSH2 0xD50 SWAP2 ADD PUSH2 0x242 JUMP JUMPDEST SWAP1 JUMP JUMPDEST SLOAD SWAP1 JUMP JUMPDEST PUSH1 0x0 MSTORE PUSH1 0x20 PUSH1 0x0 KECCAK256 SWAP1 JUMP JUMPDEST PUSH2 0xD6B DUP2 PUSH2 0xD53 JUMP JUMPDEST DUP3 LT ISZERO PUSH2 0xD86 JUMPI PUSH2 0xD7D PUSH1 0x8 SWAP2 PUSH2 0xD57 JUMP JUMPDEST SWAP2 MUL ADD SWAP1 PUSH1 0x0 SWAP1 JUMP JUMPDEST PUSH2 0x6FA JUMP JUMPDEST SWAP1 JUMP JUMPDEST SWAP1 POP SWAP1 JUMP JUMPDEST SWAP1 PUSH1 0x0 SWAP3 SWAP2 DUP1 SLOAD SWAP1 PUSH2 0xDAE PUSH2 0xDA7 DUP4 PUSH2 0x78B JUMP JUMPDEST DUP1 SWAP5 PUSH2 0xD8E JUMP JUMPDEST SWAP2 PUSH1 0x1 DUP2 AND SWAP1 DUP2 PUSH1 0x0 EQ PUSH2 0xE02 JUMPI POP PUSH1 0x1 EQ PUSH2 0xDCA JUMPI JUMPDEST POP POP POP JUMP JUMPDEST PUSH2 0xDD7 SWAP2 SWAP3 SWAP4 SWAP5 POP PUSH2 0x7B5 JUMP JUMPDEST PUSH1 0x0 SWAP1 JUMPDEST DUP4 DUP3 LT PUSH2 0xDEE JUMPI POP POP ADD SWAP1 CODESIZE DUP1 DUP1 PUSH2 0xDC5 JUMP JUMPDEST PUSH1 0x1 DUP2 PUSH1 0x20 SWAP3 SLOAD DUP5 DUP7 ADD MSTORE ADD SWAP2 ADD SWAP1 PUSH2 0xDDB JUMP JUMPDEST SWAP3 SWAP5 SWAP6 POP POP POP PUSH1 0xFF NOT AND DUP3 MSTORE DUP1 ISZERO ISZERO MUL ADD SWAP1 CODESIZE DUP1 DUP1 PUSH2 0xDC5 JUMP JUMPDEST PUSH2 0xE25 SWAP2 PUSH2 0xD93 JUMP JUMPDEST SWAP1 JUMP JUMPDEST PUSH1 0x20 ADD SWAP1 JUMP JUMPDEST MLOAD SWAP1 JUMP JUMPDEST PUSH2 0xE57 PUSH2 0xE4E SWAP3 PUSH1 0x20 SWAP3 PUSH2 0xE45 DUP2 PUSH2 0x2BD JUMP JUMPDEST SWAP5 DUP6 DUP1 SWAP4 PUSH2 0xD8E JUMP JUMPDEST SWAP4 DUP5 SWAP2 ADD PUSH2 0x2CA JUMP JUMPDEST ADD SWAP1 JUMP JUMPDEST PUSH2 0xE64 SWAP2 PUSH2 0xE32 JUMP JUMPDEST SWAP1 JUMP JUMPDEST SWAP1 JUMP JUMPDEST PUSH1 0x0 PUSH32 0x56616363696E6174696F6E20616C726561647920636F6D706C65746564000000 SWAP2 ADD MSTORE JUMP JUMPDEST PUSH2 0xE9F PUSH1 0x1D PUSH1 0x20 SWAP3 PUSH2 0x9D1 JUMP JUMPDEST PUSH2 0xEA8 DUP2 PUSH2 0xE6A JUMP JUMPDEST ADD SWAP1 JUMP JUMPDEST PUSH2 0xEC2 SWAP1 PUSH1 0x20 DUP2 ADD SWAP1 PUSH1 0x0 DUP2 DUP4 SUB SWAP2 ADD MSTORE PUSH2 0xE92 JUMP JUMPDEST SWAP1 JUMP JUMPDEST ISZERO PUSH2 0xECC JUMPI JUMP JUMPDEST PUSH2 0xED4 PUSH2 0x82 JUMP JUMPDEST PUSH3 0x461BCD PUSH1 0xE5 SHL DUP2 MSTORE DUP1 PUSH2 0xEEA PUSH1 0x4 DUP3 ADD PUSH2 0xEAC JUMP JUMPDEST SUB SWAP1 REVERT JUMPDEST PUSH1 0x0 SHL SWAP1 JUMP JUMPDEST SWAP1 PUSH2 0xF00 PUSH1 0xFF SWAP2 PUSH2 0xEEE JUMP JUMPDEST SWAP2 DUP2 NOT AND SWAP2 AND OR SWAP1 JUMP JUMPDEST PUSH2 0xF13 SWAP1 PUSH2 0x366 JUMP JUMPDEST SWAP1 JUMP JUMPDEST SWAP1 JUMP JUMPDEST SWAP1 PUSH2 0xF2E PUSH2 0xF29 PUSH2 0xF35 SWAP3 PUSH2 0xF0A JUMP JUMPDEST PUSH2 0xF16 JUMP JUMPDEST DUP3 SLOAD PUSH2 0xEF4 JUMP JUMPDEST SWAP1 SSTORE JUMP JUMPDEST SWAP1 PUSH2 0xF46 PUSH1 0x0 NOT SWAP2 PUSH2 0xEEE JUMP JUMPDEST SWAP2 DUP2 NOT AND SWAP2 AND OR SWAP1 JUMP JUMPDEST PUSH2 0xF64 PUSH2 0xF5F PUSH2 0xF69 SWAP3 PUSH2 0x242 JUMP JUMPDEST PUSH2 0xC2A JUMP JUMPDEST PUSH2 0x242 JUMP JUMPDEST SWAP1 JUMP JUMPDEST SWAP1 JUMP JUMPDEST SWAP1 PUSH2 0xF84 PUSH2 0xF7F PUSH2 0xF8B SWAP3 PUSH2 0xF50 JUMP JUMPDEST PUSH2 0xF6C JUMP JUMPDEST DUP3 SLOAD PUSH2 0xF39 JUMP JUMPDEST SWAP1 SSTORE JUMP JUMPDEST SWAP3 SWAP2 PUSH1 0x20 PUSH2 0xFAC PUSH2 0xFB4 SWAP4 PUSH1 0x40 DUP8 ADD SWAP1 DUP8 DUP3 SUB PUSH1 0x0 DUP10 ADD MSTORE PUSH2 0x9DA JUMP JUMPDEST SWAP5 ADD SWAP1 PUSH2 0xA18 JUMP JUMPDEST JUMP JUMPDEST PUSH1 0x0 PUSH32 0x56616363696E65206E6F7420666F756E6420666F7220746865206368696C6400 SWAP2 ADD MSTORE JUMP JUMPDEST PUSH2 0xFEB PUSH1 0x1F PUSH1 0x20 SWAP3 PUSH2 0x9D1 JUMP JUMPDEST PUSH2 0xFF4 DUP2 PUSH2 0xFB6 JUMP JUMPDEST ADD SWAP1 JUMP JUMPDEST PUSH2 0x100E SWAP1 PUSH1 0x20 DUP2 ADD SWAP1 PUSH1 0x0 DUP2 DUP4 SUB SWAP2 ADD MSTORE PUSH2 0xFDE JUMP JUMPDEST SWAP1 JUMP JUMPDEST SWAP1 PUSH2 0x1038 DUP3 PUSH2 0x1031 PUSH2 0x102B PUSH2 0x1026 PUSH1 0x0 PUSH2 0xC49 JUMP JUMPDEST PUSH2 0xA2 JUMP JUMPDEST SWAP2 PUSH2 0xA2 JUMP JUMPDEST EQ ISZERO PUSH2 0xCB0 JUMP JUMPDEST PUSH2 0x104C PUSH2 0x1047 PUSH1 0x1 DUP5 SWAP1 PUSH2 0xD0D JUMP JUMPDEST PUSH2 0xD25 JUMP JUMPDEST SWAP2 PUSH2 0x1057 PUSH1 0x0 PUSH2 0xD28 JUMP JUMPDEST JUMPDEST DUP1 PUSH2 0x1073 PUSH2 0x106D PUSH2 0x1068 DUP8 PUSH2 0xD53 JUMP JUMPDEST PUSH2 0x242 JUMP JUMPDEST SWAP2 PUSH2 0x242 JUMP JUMPDEST LT ISZERO PUSH2 0x11BD JUMPI PUSH2 0x108D PUSH2 0x1087 DUP6 DUP4 SWAP1 PUSH2 0xD62 JUMP JUMPDEST POP PUSH2 0xD8B JUMP JUMPDEST PUSH2 0x10AB PUSH2 0x10BA PUSH1 0x1 DUP4 ADD PUSH2 0x109F PUSH2 0x82 JUMP JUMPDEST SWAP3 DUP4 SWAP2 PUSH1 0x20 DUP4 ADD PUSH2 0xE1C JUMP JUMPDEST PUSH1 0x20 DUP3 ADD DUP2 SUB DUP3 MSTORE SUB DUP3 PUSH2 0xFC JUMP JUMPDEST PUSH2 0x10CC PUSH2 0x10C6 DUP3 PUSH2 0xE2E JUMP JUMPDEST SWAP2 PUSH2 0xE28 JUMP JUMPDEST KECCAK256 PUSH2 0x111B PUSH2 0x1115 PUSH2 0x10EE PUSH2 0x10FD DUP9 PUSH2 0x10E2 PUSH2 0x82 JUMP JUMPDEST SWAP3 DUP4 SWAP2 PUSH1 0x20 DUP4 ADD PUSH2 0xE5B JUMP JUMPDEST PUSH1 0x20 DUP3 ADD DUP2 SUB DUP3 MSTORE SUB DUP3 PUSH2 0xFC JUMP JUMPDEST PUSH2 0x110F PUSH2 0x1109 DUP3 PUSH2 0xE2E JUMP JUMPDEST SWAP2 PUSH2 0xE28 JUMP JUMPDEST KECCAK256 PUSH2 0xE67 JUMP JUMPDEST SWAP2 PUSH2 0xE67 JUMP JUMPDEST EQ PUSH2 0x112F JUMPI POP PUSH2 0x112A SWAP1 PUSH2 0xD44 JUMP JUMPDEST PUSH2 0x1058 JUMP JUMPDEST SWAP1 POP PUSH2 0x1178 SWAP2 SWAP3 SWAP4 POP PUSH2 0x1160 PUSH2 0x1147 PUSH1 0x6 DUP4 ADD PUSH2 0x911 JUMP JUMPDEST PUSH2 0x115A PUSH2 0x1154 PUSH1 0x0 PUSH2 0x366 JUMP JUMPDEST SWAP2 PUSH2 0x366 JUMP JUMPDEST EQ PUSH2 0xEC5 JUMP JUMPDEST PUSH2 0x116E PUSH1 0x1 PUSH1 0x6 DUP4 ADD PUSH2 0xF19 JUMP JUMPDEST PUSH1 0x7 TIMESTAMP SWAP2 ADD PUSH2 0xF6F JUMP JUMPDEST TIMESTAMP PUSH2 0x11A3 PUSH32 0x7D36AED3C4B4FC4D666A996881D92A844AFB31C3AF47A6211964A4C79E0A726E SWAP3 PUSH2 0xD01 JUMP JUMPDEST SWAP3 PUSH2 0x11B8 PUSH2 0x11AF PUSH2 0x82 JUMP JUMPDEST SWAP3 DUP4 SWAP3 DUP4 PUSH2 0xF8F JUMP JUMPDEST SUB SWAP1 LOG2 JUMP JUMPDEST PUSH2 0x11C5 PUSH2 0x82 JUMP JUMPDEST PUSH3 0x461BCD PUSH1 0xE5 SHL DUP2 MSTORE DUP1 PUSH2 0x11DB PUSH1 0x4 DUP3 ADD PUSH2 0xFF8 JUMP JUMPDEST SUB SWAP1 REVERT JUMPDEST PUSH1 0x60 SWAP1 JUMP JUMPDEST PUSH1 0x0 PUSH32 0x496E76616C6964206368696C6420616464726573730000000000000000000000 SWAP2 ADD MSTORE JUMP JUMPDEST PUSH2 0x1219 PUSH1 0x15 PUSH1 0x20 SWAP3 PUSH2 0x9D1 JUMP JUMPDEST PUSH2 0x1222 DUP2 PUSH2 0x11E4 JUMP JUMPDEST ADD SWAP1 JUMP JUMPDEST PUSH2 0x123C SWAP1 PUSH1 0x20 DUP2 ADD SWAP1 PUSH1 0x0 DUP2 DUP4 SUB SWAP2 ADD MSTORE PUSH2 0x120C JUMP JUMPDEST SWAP1 JUMP JUMPDEST ISZERO PUSH2 0x1246 JUMPI JUMP JUMPDEST PUSH2 0x124E PUSH2 0x82 JUMP JUMPDEST PUSH3 0x461BCD PUSH1 0xE5 SHL DUP2 MSTORE DUP1 PUSH2 0x1264 PUSH1 0x4 DUP3 ADD PUSH2 0x1226 JUMP JUMPDEST SUB SWAP1 REVERT JUMPDEST PUSH4 0x4E487B71 PUSH1 0xE0 SHL PUSH1 0x0 MSTORE PUSH1 0x11 PUSH1 0x4 MSTORE PUSH1 0x24 PUSH1 0x0 REVERT JUMPDEST PUSH2 0x1287 SWAP1 PUSH2 0x242 JUMP JUMPDEST PUSH1 0x0 NOT DUP2 EQ PUSH2 0x1296 JUMPI PUSH1 0x1 ADD SWAP1 JUMP JUMPDEST PUSH2 0x1268 JUMP JUMPDEST PUSH8 0xFFFFFFFFFFFFFFFF DUP2 GT PUSH2 0x12B3 JUMPI PUSH1 0x20 DUP1 SWAP2 MUL ADD SWAP1 JUMP JUMPDEST PUSH2 0xE6 JUMP JUMPDEST SWAP1 PUSH2 0x12CA PUSH2 0x12C5 DUP4 PUSH2 0x129B JUMP JUMPDEST PUSH2 0x125 JUMP JUMPDEST SWAP2 DUP3 MSTORE JUMP JUMPDEST PUSH2 0x12D9 PUSH1 0x40 PUSH2 0x125 JUMP JUMPDEST SWAP1 JUMP JUMPDEST PUSH2 0x12E7 PUSH2 0x140 PUSH2 0x125 JUMP JUMPDEST SWAP1 JUMP JUMPDEST PUSH1 0x0 SWAP1 JUMP JUMPDEST PUSH1 0x60 SWAP1 JUMP JUMPDEST PUSH1 0x0 SWAP1 JUMP JUMPDEST PUSH1 0x0 SWAP1 JUMP JUMPDEST PUSH1 0x0 SWAP1 JUMP JUMPDEST PUSH2 0x130B PUSH2 0x12DC JUMP JUMPDEST SWAP1 PUSH1 0x20 DUP1 DUP1 DUP1 DUP1 DUP1 DUP1 DUP1 DUP1 DUP1 DUP12 PUSH2 0x1320 PUSH2 0x12EA JUMP JUMPDEST DUP2 MSTORE ADD PUSH2 0x132B PUSH2 0x12EF JUMP JUMPDEST DUP2 MSTORE ADD PUSH2 0x1336 PUSH2 0x12EF JUMP JUMPDEST DUP2 MSTORE ADD PUSH2 0x1341 PUSH2 0x12EA JUMP JUMPDEST DUP2 MSTORE ADD PUSH2 0x134C PUSH2 0x12F4 JUMP JUMPDEST DUP2 MSTORE ADD PUSH2 0x1357 PUSH2 0x12F4 JUMP JUMPDEST DUP2 MSTORE ADD PUSH2 0x1362 PUSH2 0x12F9 JUMP JUMPDEST DUP2 MSTORE ADD PUSH2 0x136D PUSH2 0x12F9 JUMP JUMPDEST DUP2 MSTORE ADD PUSH2 0x1378 PUSH2 0x12FE JUMP JUMPDEST DUP2 MSTORE ADD PUSH2 0x1383 PUSH2 0x12F9 JUMP JUMPDEST DUP2 MSTORE POP POP JUMP JUMPDEST PUSH2 0x1391 PUSH2 0x1303 JUMP JUMPDEST SWAP1 JUMP JUMPDEST PUSH1 0x0 SWAP1 JUMP JUMPDEST PUSH2 0x13A1 PUSH2 0x12CF JUMP JUMPDEST SWAP1 PUSH1 0x20 DUP1 DUP4 PUSH2 0x13AE PUSH2 0x1389 JUMP JUMPDEST DUP2 MSTORE ADD PUSH2 0x13B9 PUSH2 0x1394 JUMP JUMPDEST DUP2 MSTORE POP POP JUMP JUMPDEST PUSH2 0x13C7 PUSH2 0x1399 JUMP JUMPDEST SWAP1 JUMP JUMPDEST PUSH1 0x0 JUMPDEST DUP3 DUP2 LT PUSH2 0x13D9 JUMPI POP POP POP JUMP JUMPDEST PUSH1 0x20 SWAP1 PUSH2 0x13E4 PUSH2 0x13BF JUMP JUMPDEST DUP2 DUP5 ADD MSTORE ADD PUSH2 0x13CD JUMP JUMPDEST SWAP1 PUSH2 0x1413 PUSH2 0x13FB DUP4 PUSH2 0x12B8 JUMP JUMPDEST SWAP3 PUSH1 0x20 DUP1 PUSH2 0x1409 DUP7 SWAP4 PUSH2 0x129B JUMP JUMPDEST SWAP3 ADD SWAP2 SUB SWAP1 PUSH2 0x13CA JUMP JUMPDEST JUMP JUMPDEST PUSH3 0xFFFFFF AND SWAP1 JUMP JUMPDEST PUSH2 0x1431 PUSH2 0x142C PUSH2 0x1436 SWAP3 PUSH2 0x320 JUMP JUMPDEST PUSH2 0xC2A JUMP JUMPDEST PUSH2 0x1415 JUMP JUMPDEST SWAP1 JUMP JUMPDEST SWAP1 JUMP JUMPDEST PUSH2 0x1450 PUSH2 0x144B PUSH2 0x1455 SWAP3 PUSH2 0x1439 JUMP JUMPDEST PUSH2 0xC2A JUMP JUMPDEST PUSH2 0x1415 JUMP JUMPDEST SWAP1 JUMP JUMPDEST PUSH2 0x1464 PUSH2 0x146A SWAP2 PUSH2 0x1415 JUMP JUMPDEST SWAP2 PUSH2 0x1415 JUMP JUMPDEST MUL SWAP1 PUSH2 0x1475 DUP3 PUSH2 0x1415 JUMP JUMPDEST SWAP2 DUP3 SUB PUSH2 0x147E JUMPI JUMP JUMPDEST PUSH2 0x1268 JUMP JUMPDEST PUSH2 0x1497 PUSH2 0x1492 PUSH2 0x149C SWAP3 PUSH2 0x1415 JUMP JUMPDEST PUSH2 0xC2A JUMP JUMPDEST PUSH2 0x242 JUMP JUMPDEST SWAP1 JUMP JUMPDEST PUSH2 0x14AE PUSH2 0x14B4 SWAP2 SWAP4 SWAP3 SWAP4 PUSH2 0x242 JUMP JUMPDEST SWAP3 PUSH2 0x242 JUMP JUMPDEST DUP3 ADD DUP1 SWAP3 GT PUSH2 0x14BF JUMPI JUMP JUMPDEST PUSH2 0x1268 JUMP JUMPDEST PUSH1 0x0 SWAP1 JUMP JUMPDEST PUSH2 0x14DD PUSH2 0x14D8 PUSH2 0x14E2 SWAP3 PUSH2 0xC27 JUMP JUMPDEST PUSH2 0xC2A JUMP JUMPDEST PUSH2 0x451 JUMP JUMPDEST SWAP1 JUMP JUMPDEST PUSH2 0x14F4 PUSH2 0x14FA SWAP2 SWAP4 SWAP3 SWAP4 PUSH2 0x242 JUMP JUMPDEST SWAP3 PUSH2 0x242 JUMP JUMPDEST DUP3 SUB SWAP2 DUP3 GT PUSH2 0x1505 JUMPI JUMP JUMPDEST PUSH2 0x1268 JUMP JUMPDEST PUSH2 0x151E PUSH2 0x1519 PUSH2 0x1523 SWAP3 PUSH2 0x1439 JUMP JUMPDEST PUSH2 0xC2A JUMP JUMPDEST PUSH2 0x242 JUMP JUMPDEST SWAP1 JUMP JUMPDEST PUSH4 0x4E487B71 PUSH1 0xE0 SHL PUSH1 0x0 MSTORE PUSH1 0x12 PUSH1 0x4 MSTORE PUSH1 0x24 PUSH1 0x0 REVERT JUMPDEST PUSH2 0x1548 PUSH2 0x154E SWAP2 PUSH2 0x242 JUMP JUMPDEST SWAP2 PUSH2 0x242 JUMP JUMPDEST SWAP1 DUP2 ISZERO PUSH2 0x1559 JUMPI DIV SWAP1 JUMP JUMPDEST PUSH2 0x1526 JUMP JUMPDEST PUSH2 0x1572 PUSH2 0x156D PUSH2 0x1577 SWAP3 PUSH2 0x242 JUMP JUMPDEST PUSH2 0xC2A JUMP JUMPDEST PUSH2 0x451 JUMP JUMPDEST SWAP1 JUMP JUMPDEST PUSH2 0x1584 PUSH1 0x40 PUSH2 0x125 JUMP JUMPDEST SWAP1 JUMP JUMPDEST SWAP1 PUSH2 0x1591 SWAP1 PUSH2 0x2AA JUMP JUMPDEST SWAP1 MSTORE JUMP JUMPDEST MSTORE JUMP JUMPDEST SWAP1 PUSH2 0x15A2 SWAP1 PUSH2 0x320 JUMP JUMPDEST SWAP1 MSTORE JUMP JUMPDEST SWAP1 PUSH2 0x15B0 SWAP1 PUSH2 0x242 JUMP JUMPDEST SWAP1 MSTORE JUMP JUMPDEST SWAP1 PUSH2 0x15BE SWAP1 PUSH2 0x366 JUMP JUMPDEST SWAP1 MSTORE JUMP JUMPDEST SWAP1 PUSH2 0x16BD PUSH2 0x16B3 PUSH1 0x7 PUSH2 0x15D3 PUSH2 0x12DC JUMP JUMPDEST SWAP5 PUSH2 0x15EC PUSH2 0x15E3 PUSH1 0x0 DUP4 ADD PUSH2 0x768 JUMP JUMPDEST PUSH1 0x0 DUP9 ADD PUSH2 0x1587 JUMP JUMPDEST PUSH2 0x1604 PUSH2 0x15FB PUSH1 0x1 DUP4 ADD PUSH2 0x85C JUMP JUMPDEST PUSH1 0x20 DUP9 ADD PUSH2 0x1595 JUMP JUMPDEST PUSH2 0x161C PUSH2 0x1613 PUSH1 0x2 DUP4 ADD PUSH2 0x85C JUMP JUMPDEST PUSH1 0x40 DUP9 ADD PUSH2 0x1595 JUMP JUMPDEST PUSH2 0x1634 PUSH2 0x162B PUSH1 0x3 DUP4 ADD PUSH2 0x768 JUMP JUMPDEST PUSH1 0x60 DUP9 ADD PUSH2 0x1587 JUMP JUMPDEST PUSH2 0x164C PUSH2 0x1643 PUSH1 0x3 DUP4 ADD PUSH2 0x89F JUMP JUMPDEST PUSH1 0x80 DUP9 ADD PUSH2 0x1598 JUMP JUMPDEST PUSH2 0x1664 PUSH2 0x165B PUSH1 0x3 DUP4 ADD PUSH2 0x8C6 JUMP JUMPDEST PUSH1 0xA0 DUP9 ADD PUSH2 0x1598 JUMP JUMPDEST PUSH2 0x167C PUSH2 0x1673 PUSH1 0x4 DUP4 ADD PUSH2 0x8EA JUMP JUMPDEST PUSH1 0xC0 DUP9 ADD PUSH2 0x15A6 JUMP JUMPDEST PUSH2 0x1694 PUSH2 0x168B PUSH1 0x5 DUP4 ADD PUSH2 0x8EA JUMP JUMPDEST PUSH1 0xE0 DUP9 ADD PUSH2 0x15A6 JUMP JUMPDEST PUSH2 0x16AD PUSH2 0x16A3 PUSH1 0x6 DUP4 ADD PUSH2 0x911 JUMP JUMPDEST PUSH2 0x100 DUP9 ADD PUSH2 0x15B4 JUMP JUMPDEST ADD PUSH2 0x8EA JUMP JUMPDEST PUSH2 0x120 DUP5 ADD PUSH2 0x15A6 JUMP JUMPDEST JUMP JUMPDEST PUSH2 0x16C8 SWAP1 PUSH2 0x15C2 JUMP JUMPDEST SWAP1 JUMP JUMPDEST MSTORE JUMP JUMPDEST SWAP1 PUSH2 0x16D8 SWAP1 PUSH2 0x451 JUMP JUMPDEST SWAP1 MSTORE JUMP JUMPDEST SWAP1 PUSH2 0x16E6 DUP3 PUSH2 0x297 JUMP JUMPDEST DUP2 LT ISZERO PUSH2 0x16F7 JUMPI PUSH1 0x20 DUP1 SWAP2 MUL ADD ADD SWAP1 JUMP JUMPDEST PUSH2 0x6FA JUMP JUMPDEST PUSH2 0x1739 PUSH2 0x173E SWAP2 PUSH2 0x170B PUSH2 0x11DF JUMP JUMPDEST POP PUSH2 0x1732 DUP2 PUSH2 0x172B PUSH2 0x1725 PUSH2 0x1720 PUSH1 0x0 PUSH2 0xC49 JUMP JUMPDEST PUSH2 0xA2 JUMP JUMPDEST SWAP2 PUSH2 0xA2 JUMP JUMPDEST EQ ISZERO PUSH2 0x123F JUMP JUMPDEST PUSH1 0x1 PUSH2 0xD0D JUMP JUMPDEST PUSH2 0xD25 JUMP JUMPDEST SWAP2 PUSH2 0x1749 PUSH1 0x0 PUSH2 0xD28 JUMP JUMPDEST SWAP1 PUSH2 0x1754 PUSH1 0x0 PUSH2 0xD28 JUMP JUMPDEST JUMPDEST DUP1 PUSH2 0x1770 PUSH2 0x176A PUSH2 0x1765 DUP9 PUSH2 0xD53 JUMP JUMPDEST PUSH2 0x242 JUMP JUMPDEST SWAP2 PUSH2 0x242 JUMP JUMPDEST LT ISZERO PUSH2 0x17C9 JUMPI PUSH2 0x178D PUSH1 0x6 PUSH2 0x1786 DUP8 DUP5 SWAP1 PUSH2 0xD62 JUMP JUMPDEST POP ADD PUSH2 0x911 JUMP JUMPDEST PUSH2 0x17A0 PUSH2 0x179A PUSH1 0x0 PUSH2 0x366 JUMP JUMPDEST SWAP2 PUSH2 0x366 JUMP JUMPDEST EQ PUSH2 0x17B4 JUMPI JUMPDEST PUSH2 0x17AF SWAP1 PUSH2 0xD44 JUMP JUMPDEST PUSH2 0x1755 JUMP JUMPDEST SWAP2 PUSH2 0x17C1 PUSH2 0x17AF SWAP2 PUSH2 0x127E JUMP JUMPDEST SWAP3 SWAP1 POP PUSH2 0x17A6 JUMP JUMPDEST POP SWAP3 SWAP2 SWAP1 PUSH2 0x17D6 SWAP1 PUSH2 0x13EE JUMP JUMPDEST SWAP1 PUSH2 0x17E1 PUSH1 0x0 PUSH2 0xD28 JUMP JUMPDEST SWAP1 PUSH2 0x17EC PUSH1 0x0 PUSH2 0xD28 JUMP JUMPDEST JUMPDEST DUP1 PUSH2 0x1808 PUSH2 0x1802 PUSH2 0x17FD DUP9 PUSH2 0xD53 JUMP JUMPDEST PUSH2 0x242 JUMP JUMPDEST SWAP2 PUSH2 0x242 JUMP JUMPDEST LT ISZERO PUSH2 0x1955 JUMPI PUSH2 0x1825 PUSH1 0x6 PUSH2 0x181E DUP8 DUP5 SWAP1 PUSH2 0xD62 JUMP JUMPDEST POP ADD PUSH2 0x911 JUMP JUMPDEST PUSH2 0x1838 PUSH2 0x1832 PUSH1 0x0 PUSH2 0x366 JUMP JUMPDEST SWAP2 PUSH2 0x366 JUMP JUMPDEST EQ PUSH2 0x184C JUMPI JUMPDEST PUSH2 0x1847 SWAP1 PUSH2 0xD44 JUMP JUMPDEST PUSH2 0x17ED JUMP JUMPDEST SWAP2 PUSH2 0x193A PUSH2 0x1847 SWAP2 PUSH2 0x189A DUP5 PUSH2 0x1894 PUSH2 0x188F PUSH2 0x1875 PUSH1 0x3 PUSH2 0x186E DUP14 DUP13 SWAP1 PUSH2 0xD62 JUMP JUMPDEST POP ADD PUSH2 0x89F JUMP JUMPDEST PUSH2 0x188A PUSH2 0x1884 PUSH3 0x15180 PUSH2 0x143C JUMP JUMPDEST SWAP2 PUSH2 0x141D JUMP JUMPDEST PUSH2 0x1458 JUMP JUMPDEST PUSH2 0x1483 JUMP JUMPDEST SWAP1 PUSH2 0x149F JUMP JUMPDEST PUSH2 0x18A2 PUSH2 0x14C4 JUMP JUMPDEST POP DUP1 PUSH2 0x18B6 PUSH2 0x18B0 TIMESTAMP PUSH2 0x242 JUMP JUMPDEST SWAP2 PUSH2 0x242 JUMP JUMPDEST GT PUSH1 0x0 EQ PUSH2 0x1942 JUMPI PUSH2 0x18E9 PUSH2 0x18E4 PUSH2 0x18D2 PUSH2 0x1933 SWAP4 TIMESTAMP SWAP1 PUSH2 0x14E5 JUMP JUMPDEST PUSH2 0x18DE PUSH3 0x15180 PUSH2 0x150A JUMP JUMPDEST SWAP1 PUSH2 0x153C JUMP JUMPDEST PUSH2 0x155E JUMP JUMPDEST JUMPDEST PUSH2 0x1920 PUSH2 0x18F8 DUP11 DUP10 SWAP1 PUSH2 0xD62 JUMP JUMPDEST POP SWAP2 PUSH2 0x1917 PUSH2 0x190E PUSH2 0x1908 PUSH2 0x157A JUMP JUMPDEST SWAP5 PUSH2 0x16BF JUMP JUMPDEST PUSH1 0x0 DUP6 ADD PUSH2 0x16CB JUMP JUMPDEST PUSH1 0x20 DUP4 ADD PUSH2 0x16CE JUMP JUMPDEST DUP8 DUP4 SWAP2 PUSH2 0x192D DUP4 DUP4 PUSH2 0x16DC JUMP JUMPDEST MSTORE PUSH2 0x16DC JUMP JUMPDEST MLOAD POP PUSH2 0x127E JUMP JUMPDEST SWAP3 SWAP1 POP PUSH2 0x183E JUMP JUMPDEST POP PUSH2 0x1933 PUSH2 0x1950 PUSH1 0x0 PUSH2 0x14C9 JUMP JUMPDEST PUSH2 0x18EA JUMP JUMPDEST POP POP POP SWAP1 POP SWAP1 JUMP JUMPDEST PUSH4 0x4E487B71 PUSH1 0xE0 SHL PUSH1 0x0 MSTORE PUSH1 0x0 PUSH1 0x4 MSTORE PUSH1 0x24 PUSH1 0x0 REVERT JUMPDEST PUSH2 0x1987 PUSH2 0x1982 PUSH2 0x198C SWAP3 PUSH2 0x2AA JUMP JUMPDEST PUSH2 0xC2A JUMP JUMPDEST PUSH2 0x2AA JUMP JUMPDEST SWAP1 JUMP JUMPDEST SWAP1 JUMP JUMPDEST SWAP1 PUSH2 0x19A7 PUSH2 0x19A2 PUSH2 0x19AE SWAP3 PUSH2 0x1973 JUMP JUMPDEST PUSH2 0x198F JUMP JUMPDEST DUP3 SLOAD PUSH2 0xEF4 JUMP JUMPDEST SWAP1 SSTORE JUMP JUMPDEST PUSH2 0x19BC SWAP1 SLOAD PUSH2 0x78B JUMP JUMPDEST SWAP1 JUMP JUMPDEST PUSH1 0x1F PUSH1 0x20 SWAP2 ADD DIV SWAP1 JUMP JUMPDEST SHL SWAP1 JUMP JUMPDEST SWAP2 SWAP1 PUSH1 0x8 PUSH2 0x19E9 SWAP2 MUL SWAP2 PUSH2 0x19E3 PUSH1 0x0 NOT DUP5 PUSH2 0x19C9 JUMP JUMPDEST SWAP3 PUSH2 0x19C9 JUMP JUMPDEST SWAP2 DUP2 NOT AND SWAP2 AND OR SWAP1 JUMP JUMPDEST SWAP2 SWAP1 PUSH2 0x1A09 PUSH2 0x1A04 PUSH2 0x1A11 SWAP4 PUSH2 0xF50 JUMP JUMPDEST PUSH2 0xF6C JUMP JUMPDEST SWAP1 DUP4 SLOAD PUSH2 0x19CD JUMP JUMPDEST SWAP1 SSTORE JUMP JUMPDEST PUSH1 0x0 SWAP1 JUMP JUMPDEST PUSH2 0x1A2C SWAP2 PUSH2 0x1A26 PUSH2 0x1A15 JUMP JUMPDEST SWAP2 PUSH2 0x19F3 JUMP JUMPDEST JUMP JUMPDEST JUMPDEST DUP2 DUP2 LT PUSH2 0x1A3A JUMPI POP POP JUMP JUMPDEST DUP1 PUSH2 0x1A48 PUSH1 0x0 PUSH1 0x1 SWAP4 PUSH2 0x1A1A JUMP JUMPDEST ADD PUSH2 0x1A2F JUMP JUMPDEST SWAP2 SWAP1 PUSH1 0x1F DUP2 GT PUSH2 0x1A5E JUMPI JUMPDEST POP POP POP JUMP JUMPDEST PUSH2 0x1A6A PUSH2 0x1A8F SWAP4 PUSH2 0x7B5 JUMP JUMPDEST SWAP1 PUSH1 0x20 PUSH2 0x1A76 DUP5 PUSH2 0x19BF JUMP JUMPDEST DUP4 ADD SWAP4 LT PUSH2 0x1A97 JUMPI JUMPDEST PUSH2 0x1A88 SWAP1 PUSH2 0x19BF JUMP JUMPDEST ADD SWAP1 PUSH2 0x1A2E JUMP JUMPDEST CODESIZE DUP1 DUP1 PUSH2 0x1A59 JUMP JUMPDEST SWAP2 POP PUSH2 0x1A88 DUP2 SWAP3 SWAP1 POP PUSH2 0x1A7F JUMP JUMPDEST SHR SWAP1 JUMP JUMPDEST SWAP1 PUSH2 0x1ABA SWAP1 PUSH1 0x0 NOT SWAP1 PUSH1 0x8 MUL PUSH2 0x1AA5 JUMP JUMPDEST NOT AND SWAP1 JUMP JUMPDEST DUP2 PUSH2 0x1AC9 SWAP2 PUSH2 0x1AA9 JUMP JUMPDEST SWAP1 PUSH1 0x2 MUL OR SWAP1 JUMP JUMPDEST SWAP1 DUP1 DUP3 EQ PUSH2 0x1BB3 JUMPI PUSH2 0x1AE2 DUP2 PUSH2 0x19B2 JUMP JUMPDEST SWAP1 PUSH8 0xFFFFFFFFFFFFFFFF DUP3 GT PUSH2 0x1BAE JUMPI PUSH2 0x1B06 DUP3 PUSH2 0x1B00 DUP6 SLOAD PUSH2 0x78B JUMP JUMPDEST DUP6 PUSH2 0x1A4E JUMP JUMPDEST PUSH1 0x0 SWAP1 PUSH1 0x1F DUP4 GT PUSH1 0x1 EQ PUSH2 0x1B3B JUMPI SWAP2 DUP1 SWAP2 PUSH2 0x1B2A SWAP4 PUSH1 0x0 SWAP3 PUSH2 0x1B2F JUMPI JUMPDEST POP POP PUSH2 0x1ABF JUMP JUMPDEST SWAP1 SSTORE JUMPDEST JUMP JUMPDEST SWAP1 SWAP2 POP ADD SLOAD CODESIZE DUP1 PUSH2 0x1B23 JUMP JUMPDEST SWAP1 PUSH2 0x1B4A PUSH1 0x1F NOT DUP5 AND SWAP3 PUSH2 0x7B5 JUMP JUMPDEST SWAP1 PUSH2 0x1B54 DUP6 PUSH2 0x7B5 JUMP JUMPDEST SWAP3 PUSH1 0x0 JUMPDEST DUP2 DUP2 LT PUSH2 0x1B96 JUMPI POP SWAP2 PUSH1 0x2 SWAP4 SWAP2 DUP6 PUSH1 0x1 SWAP7 SWAP5 LT PUSH2 0x1B7C JUMPI JUMPDEST POP POP POP MUL ADD SWAP1 SSTORE PUSH2 0x1B2D JUMP JUMPDEST PUSH2 0x1B8C SWAP2 ADD SLOAD PUSH1 0x1F DUP5 AND SWAP1 PUSH2 0x1AA9 JUMP JUMPDEST SWAP1 SSTORE CODESIZE DUP1 DUP1 PUSH2 0x1B70 JUMP JUMPDEST SWAP2 SWAP4 PUSH1 0x1 DUP1 PUSH1 0x20 SWAP3 DUP8 DUP8 ADD SLOAD DUP2 SSTORE ADD SWAP6 ADD SWAP3 ADD PUSH2 0x1B58 JUMP JUMPDEST PUSH2 0xE6 JUMP JUMPDEST POP POP JUMP JUMPDEST SWAP1 PUSH2 0x1BC1 SWAP2 PUSH2 0x1AD1 JUMP JUMPDEST JUMP JUMPDEST PUSH1 0x8 SHL SWAP1 JUMP JUMPDEST SWAP1 PUSH2 0x1BD7 PUSH3 0xFFFF00 SWAP2 PUSH2 0x1BC3 JUMP JUMPDEST SWAP2 DUP2 NOT AND SWAP2 AND OR SWAP1 JUMP JUMPDEST PUSH2 0x1BF5 PUSH2 0x1BF0 PUSH2 0x1BFA SWAP3 PUSH2 0x320 JUMP JUMPDEST PUSH2 0xC2A JUMP JUMPDEST PUSH2 0x320 JUMP JUMPDEST SWAP1 JUMP JUMPDEST SWAP1 JUMP JUMPDEST SWAP1 PUSH2 0x1C15 PUSH2 0x1C10 PUSH2 0x1C1C SWAP3 PUSH2 0x1BE1 JUMP JUMPDEST PUSH2 0x1BFD JUMP JUMPDEST DUP3 SLOAD PUSH2 0x1BC9 JUMP JUMPDEST SWAP1 SSTORE JUMP JUMPDEST PUSH1 0x18 SHL SWAP1 JUMP JUMPDEST SWAP1 PUSH2 0x1C36 PUSH5 0xFFFF000000 SWAP2 PUSH2 0x1C20 JUMP JUMPDEST SWAP2 DUP2 NOT AND SWAP2 AND OR SWAP1 JUMP JUMPDEST SWAP1 PUSH2 0x1C55 PUSH2 0x1C50 PUSH2 0x1C5C SWAP3 PUSH2 0x1BE1 JUMP JUMPDEST PUSH2 0x1BFD JUMP JUMPDEST DUP3 SLOAD PUSH2 0x1C26 JUMP JUMPDEST SWAP1 SSTORE JUMP JUMPDEST SWAP1 DUP1 DUP3 SUB PUSH2 0x1C6D JUMPI JUMPDEST POP POP JUMP JUMPDEST PUSH2 0x1D50 PUSH1 0x7 DUP1 DUP5 PUSH2 0x1C90 PUSH1 0x0 PUSH2 0x1D56 SWAP8 ADD PUSH2 0x1C8A PUSH1 0x0 DUP9 ADD PUSH2 0x768 JUMP JUMPDEST SWAP1 PUSH2 0x1992 JUMP JUMPDEST PUSH2 0x1CA1 PUSH1 0x1 DUP3 ADD PUSH1 0x1 DUP8 ADD SWAP1 PUSH2 0x1BB7 JUMP JUMPDEST PUSH2 0x1CB2 PUSH1 0x2 DUP3 ADD PUSH1 0x2 DUP8 ADD SWAP1 PUSH2 0x1BB7 JUMP JUMPDEST PUSH2 0x1CCB PUSH1 0x3 DUP3 ADD PUSH2 0x1CC5 PUSH1 0x3 DUP9 ADD PUSH2 0x768 JUMP JUMPDEST SWAP1 PUSH2 0x1992 JUMP JUMPDEST PUSH2 0x1CE4 PUSH1 0x3 DUP3 ADD PUSH2 0x1CDE PUSH1 0x3 DUP9 ADD PUSH2 0x89F JUMP JUMPDEST SWAP1 PUSH2 0x1C00 JUMP JUMPDEST PUSH2 0x1CFD PUSH1 0x3 DUP3 ADD PUSH2 0x1CF7 PUSH1 0x3 DUP9 ADD PUSH2 0x8C6 JUMP JUMPDEST SWAP1 PUSH2 0x1C40 JUMP JUMPDEST PUSH2 0x1D16 PUSH1 0x4 DUP3 ADD PUSH2 0x1D10 PUSH1 0x4 DUP9 ADD PUSH2 0x8EA JUMP JUMPDEST SWAP1 PUSH2 0xF6F JUMP JUMPDEST PUSH2 0x1D2F PUSH1 0x5 DUP3 ADD PUSH2 0x1D29 PUSH1 0x5 DUP9 ADD PUSH2 0x8EA JUMP JUMPDEST SWAP1 PUSH2 0xF6F JUMP JUMPDEST PUSH2 0x1D48 PUSH1 0x6 DUP3 ADD PUSH2 0x1D42 PUSH1 0x6 DUP9 ADD PUSH2 0x911 JUMP JUMPDEST SWAP1 PUSH2 0xF19 JUMP JUMPDEST ADD SWAP3 ADD PUSH2 0x8EA JUMP JUMPDEST SWAP1 PUSH2 0xF6F JUMP JUMPDEST CODESIZE DUP1 PUSH2 0x1C69 JUMP JUMPDEST SWAP2 SWAP1 PUSH2 0x1D6E JUMPI PUSH2 0x1D6C SWAP2 PUSH2 0x1C60 JUMP JUMPDEST JUMP JUMPDEST PUSH2 0x195D JUMP JUMPDEST SWAP1 DUP2 SLOAD SWAP2 PUSH9 0x10000000000000000 DUP4 LT ISZERO PUSH2 0x1DA3 JUMPI DUP3 PUSH2 0x1D9B SWAP2 PUSH1 0x1 PUSH2 0x1DA1 SWAP6 ADD DUP2 SSTORE PUSH2 0xD62 JUMP JUMPDEST SWAP1 PUSH2 0x1D5D JUMP JUMPDEST JUMP JUMPDEST PUSH2 0xE6 JUMP JUMPDEST SWAP1 PUSH2 0x1DCF DUP3 PUSH2 0x1DC8 PUSH2 0x1DC2 PUSH2 0x1DBD PUSH1 0x0 PUSH2 0xC49 JUMP JUMPDEST PUSH2 0xA2 JUMP JUMPDEST SWAP2 PUSH2 0xA2 JUMP JUMPDEST EQ ISZERO PUSH2 0xCB0 JUMP JUMPDEST PUSH2 0x1DD9 PUSH1 0x0 PUSH2 0xD28 JUMP JUMPDEST JUMPDEST DUP1 PUSH2 0x1DF6 PUSH2 0x1DF0 PUSH2 0x1DEB PUSH1 0x0 PUSH2 0x710 JUMP JUMPDEST PUSH2 0x242 JUMP JUMPDEST SWAP2 PUSH2 0x242 JUMP JUMPDEST LT ISZERO PUSH2 0x1E34 JUMPI PUSH2 0x1E2F SWAP1 PUSH2 0x1E2A PUSH2 0x1E17 PUSH2 0x1E12 PUSH1 0x1 DUP8 SWAP1 PUSH2 0xD0D JUMP JUMPDEST PUSH2 0xD25 JUMP JUMPDEST PUSH2 0x1E23 PUSH1 0x0 DUP5 SWAP1 PUSH2 0x71F JUMP JUMPDEST POP SWAP1 PUSH2 0x1D73 JUMP JUMPDEST PUSH2 0xD44 JUMP JUMPDEST PUSH2 0x1DDA JUMP JUMPDEST POP SWAP1 POP JUMP JUMPDEST MLOAD SWAP1 JUMP JUMPDEST PUSH1 0x0 PUSH32 0x76616363696E65206E616D657320726571756972656400000000000000000000 SWAP2 ADD MSTORE JUMP JUMPDEST PUSH2 0x1E72 PUSH1 0x16 PUSH1 0x20 SWAP3 PUSH2 0x9D1 JUMP JUMPDEST PUSH2 0x1E7B DUP2 PUSH2 0x1E3D JUMP JUMPDEST ADD SWAP1 JUMP JUMPDEST PUSH2 0x1E95 SWAP1 PUSH1 0x20 DUP2 ADD SWAP1 PUSH1 0x0 DUP2 DUP4 SUB SWAP2 ADD MSTORE PUSH2 0x1E65 JUMP JUMPDEST SWAP1 JUMP JUMPDEST ISZERO PUSH2 0x1E9F JUMPI JUMP JUMPDEST PUSH2 0x1EA7 PUSH2 0x82 JUMP JUMPDEST PUSH3 0x461BCD PUSH1 0xE5 SHL DUP2 MSTORE DUP1 PUSH2 0x1EBD PUSH1 0x4 DUP3 ADD PUSH2 0x1E7F JUMP JUMPDEST SUB SWAP1 REVERT JUMPDEST SWAP1 PUSH2 0x1ECB DUP3 PUSH2 0x1E39 JUMP JUMPDEST DUP2 LT ISZERO PUSH2 0x1EDC JUMPI PUSH1 0x20 DUP1 SWAP2 MUL ADD ADD SWAP1 JUMP JUMPDEST PUSH2 0x6FA JUMP JUMPDEST PUSH1 0x0 PUSH32 0x4E6F2076616363696E6174696F6E732075706461746564000000000000000000 SWAP2 ADD MSTORE JUMP JUMPDEST PUSH2 0x1F16 PUSH1 0x17 PUSH1 0x20 SWAP3 PUSH2 0x9D1 JUMP JUMPDEST PUSH2 0x1F1F DUP2 PUSH2 0x1EE1 JUMP JUMPDEST ADD SWAP1 JUMP JUMPDEST PUSH2 0x1F39 SWAP1 PUSH1 0x20 DUP2 ADD SWAP1 PUSH1 0x0 DUP2 DUP4 SUB SWAP2 ADD MSTORE PUSH2 0x1F09 JUMP JUMPDEST SWAP1 JUMP JUMPDEST ISZERO PUSH2 0x1F43 JUMPI JUMP JUMPDEST PUSH2 0x1F4B PUSH2 0x82 JUMP JUMPDEST PUSH3 0x461BCD PUSH1 0xE5 SHL DUP2 MSTORE DUP1 PUSH2 0x1F61 PUSH1 0x4 DUP3 ADD PUSH2 0x1F23 JUMP JUMPDEST SUB SWAP1 REVERT JUMPDEST PUSH2 0x1FC1 PUSH2 0x1FC6 SWAP2 SWAP4 SWAP3 SWAP4 PUSH2 0x1F95 DUP2 PUSH2 0x1F8E PUSH2 0x1F88 PUSH2 0x1F83 PUSH1 0x0 PUSH2 0xC49 JUMP JUMPDEST PUSH2 0xA2 JUMP JUMPDEST SWAP2 PUSH2 0xA2 JUMP JUMPDEST EQ ISZERO PUSH2 0x123F JUMP JUMPDEST PUSH2 0x1FBA PUSH2 0x1FA1 DUP7 PUSH2 0x1E39 JUMP JUMPDEST PUSH2 0x1FB4 PUSH2 0x1FAE PUSH1 0x0 PUSH2 0xD28 JUMP JUMPDEST SWAP2 PUSH2 0x242 JUMP JUMPDEST GT PUSH2 0x1E98 JUMP JUMPDEST PUSH1 0x1 PUSH2 0xD0D JUMP JUMPDEST PUSH2 0xD25 JUMP JUMPDEST SWAP2 PUSH1 0x0 SWAP2 PUSH2 0x1FD4 PUSH1 0x0 PUSH2 0xD28 JUMP JUMPDEST SWAP3 JUMPDEST DUP4 PUSH2 0x1FF1 PUSH2 0x1FEB PUSH2 0x1FE6 DUP7 PUSH2 0x1E39 JUMP JUMPDEST PUSH2 0x242 JUMP JUMPDEST SWAP2 PUSH2 0x242 JUMP JUMPDEST LT ISZERO PUSH2 0x214E JUMPI PUSH2 0x2002 DUP4 DUP6 SWAP1 PUSH2 0x1EC1 JUMP JUMPDEST MLOAD SWAP3 PUSH2 0x200E PUSH1 0x0 PUSH2 0xD28 JUMP JUMPDEST JUMPDEST DUP1 PUSH2 0x202A PUSH2 0x2024 PUSH2 0x201F DUP11 PUSH2 0xD53 JUMP JUMPDEST PUSH2 0x242 JUMP JUMPDEST SWAP2 PUSH2 0x242 JUMP JUMPDEST LT ISZERO PUSH2 0x213B JUMPI PUSH2 0x2044 PUSH2 0x203E DUP9 DUP4 SWAP1 PUSH2 0xD62 JUMP JUMPDEST POP PUSH2 0xD8B JUMP JUMPDEST PUSH2 0x2062 PUSH2 0x2071 PUSH1 0x1 DUP4 ADD PUSH2 0x2056 PUSH2 0x82 JUMP JUMPDEST SWAP3 DUP4 SWAP2 PUSH1 0x20 DUP4 ADD PUSH2 0xE1C JUMP JUMPDEST PUSH1 0x20 DUP3 ADD DUP2 SUB DUP3 MSTORE SUB DUP3 PUSH2 0xFC JUMP JUMPDEST PUSH2 0x2083 PUSH2 0x207D DUP3 PUSH2 0xE2E JUMP JUMPDEST SWAP2 PUSH2 0xE28 JUMP JUMPDEST KECCAK256 PUSH2 0x20D2 PUSH2 0x20CC PUSH2 0x20A5 PUSH2 0x20B4 DUP11 PUSH2 0x2099 PUSH2 0x82 JUMP JUMPDEST SWAP3 DUP4 SWAP2 PUSH1 0x20 DUP4 ADD PUSH2 0xE5B JUMP JUMPDEST PUSH1 0x20 DUP3 ADD DUP2 SUB DUP3 MSTORE SUB DUP3 PUSH2 0xFC JUMP JUMPDEST PUSH2 0x20C6 PUSH2 0x20C0 DUP3 PUSH2 0xE2E JUMP JUMPDEST SWAP2 PUSH2 0xE28 JUMP JUMPDEST KECCAK256 PUSH2 0xE67 JUMP JUMPDEST SWAP2 PUSH2 0xE67 JUMP JUMPDEST EQ PUSH2 0x20E7 JUMPI JUMPDEST POP PUSH2 0x20E2 SWAP1 PUSH2 0xD44 JUMP JUMPDEST PUSH2 0x200F JUMP JUMPDEST PUSH2 0x20F3 PUSH1 0x6 DUP3 ADD PUSH2 0x911 JUMP JUMPDEST PUSH2 0x2106 PUSH2 0x2100 PUSH1 0x0 PUSH2 0x366 JUMP JUMPDEST SWAP2 PUSH2 0x366 JUMP JUMPDEST EQ PUSH2 0x2111 JUMPI JUMPDEST PUSH2 0x20D8 JUMP JUMPDEST PUSH2 0x212F SWAP2 SWAP4 POP PUSH2 0x2125 PUSH1 0x1 PUSH1 0x6 DUP4 ADD PUSH2 0xF19 JUMP JUMPDEST PUSH1 0x7 TIMESTAMP SWAP2 ADD PUSH2 0xF6F JUMP JUMPDEST PUSH2 0x20E2 PUSH1 0x1 SWAP3 SWAP1 PUSH2 0x210C JUMP JUMPDEST POP SWAP3 POP SWAP3 PUSH2 0x2148 SWAP1 PUSH2 0xD44 JUMP JUMPDEST SWAP3 PUSH2 0x1FD6 JUMP JUMPDEST SWAP1 SWAP4 POP PUSH2 0x2164 SWAP3 POP SWAP1 DUP2 ISZERO PUSH2 0x2166 JUMPI JUMPDEST POP PUSH2 0x1F3C JUMP JUMPDEST JUMP JUMPDEST PUSH2 0x2170 SWAP2 POP PUSH2 0x1E39 JUMP JUMPDEST PUSH2 0x2183 PUSH2 0x217D PUSH1 0x0 PUSH2 0xD28 JUMP JUMPDEST SWAP2 PUSH2 0x242 JUMP JUMPDEST EQ CODESIZE PUSH2 0x215E JUMP JUMPDEST PUSH2 0x2194 PUSH1 0x40 PUSH2 0x125 JUMP JUMPDEST SWAP1 JUMP JUMPDEST PUSH1 0x60 SWAP1 JUMP JUMPDEST PUSH2 0x21A4 PUSH2 0x218A JUMP JUMPDEST SWAP1 PUSH1 0x20 DUP1 DUP4 PUSH2 0x21B1 PUSH2 0x2197 JUMP JUMPDEST DUP2 MSTORE ADD PUSH2 0x21BC PUSH2 0x2197 JUMP JUMPDEST DUP2 MSTORE POP POP JUMP JUMPDEST PUSH2 0x21CA PUSH2 0x219C JUMP JUMPDEST SWAP1 JUMP JUMPDEST PUSH8 0xFFFFFFFFFFFFFFFF DUP2 GT PUSH2 0x21E5 JUMPI PUSH1 0x20 DUP1 SWAP2 MUL ADD SWAP1 JUMP JUMPDEST PUSH2 0xE6 JUMP JUMPDEST SWAP1 PUSH2 0x21FC PUSH2 0x21F7 DUP4 PUSH2 0x21CD JUMP JUMPDEST PUSH2 0x125 JUMP JUMPDEST SWAP2 DUP3 MSTORE JUMP JUMPDEST PUSH1 0x0 JUMPDEST DUP3 DUP2 LT PUSH2 0x2210 JUMPI POP POP POP JUMP JUMPDEST PUSH1 0x20 SWAP1 PUSH2 0x221B PUSH2 0x1389 JUMP JUMPDEST DUP2 DUP5 ADD MSTORE ADD PUSH2 0x2204 JUMP JUMPDEST SWAP1 PUSH2 0x224A PUSH2 0x2232 DUP4 PUSH2 0x21EA JUMP JUMPDEST SWAP3 PUSH1 0x20 DUP1 PUSH2 0x2240 DUP7 SWAP4 PUSH2 0x21CD JUMP JUMPDEST SWAP3 ADD SWAP2 SUB SWAP1 PUSH2 0x2201 JUMP JUMPDEST JUMP JUMPDEST SWAP1 PUSH2 0x2256 DUP3 PUSH2 0xB13 JUMP JUMPDEST DUP2 LT ISZERO PUSH2 0x2267 JUMPI PUSH1 0x20 DUP1 SWAP2 MUL ADD ADD SWAP1 JUMP JUMPDEST PUSH2 0x6FA JUMP JUMPDEST PUSH2 0x22A9 PUSH2 0x22AE SWAP2 PUSH2 0x227B PUSH2 0x21C2 JUMP JUMPDEST POP PUSH2 0x22A2 DUP2 PUSH2 0x229B PUSH2 0x2295 PUSH2 0x2290 PUSH1 0x0 PUSH2 0xC49 JUMP JUMPDEST PUSH2 0xA2 JUMP JUMPDEST SWAP2 PUSH2 0xA2 JUMP JUMPDEST EQ ISZERO PUSH2 0xCB0 JUMP JUMPDEST PUSH1 0x1 PUSH2 0xD0D JUMP JUMPDEST PUSH2 0xD25 JUMP JUMPDEST PUSH2 0x22B8 PUSH1 0x0 PUSH2 0xD28 JUMP JUMPDEST PUSH2 0x22C2 PUSH1 0x0 PUSH2 0xD28 JUMP JUMPDEST SWAP1 PUSH2 0x22CD PUSH1 0x0 PUSH2 0xD28 JUMP JUMPDEST SWAP1 JUMPDEST DUP2 PUSH2 0x22EA PUSH2 0x22E4 PUSH2 0x22DF DUP8 PUSH2 0xD53 JUMP JUMPDEST PUSH2 0x242 JUMP JUMPDEST SWAP2 PUSH2 0x242 JUMP JUMPDEST LT ISZERO PUSH2 0x238A JUMPI PUSH2 0x2307 PUSH1 0x6 PUSH2 0x2300 DUP7 DUP6 SWAP1 PUSH2 0xD62 JUMP JUMPDEST POP ADD PUSH2 0x911 JUMP JUMPDEST PUSH2 0x231A PUSH2 0x2314 PUSH1 0x1 PUSH2 0x366 JUMP JUMPDEST SWAP2 PUSH2 0x366 JUMP JUMPDEST EQ PUSH1 0x0 EQ PUSH2 0x233B JUMPI PUSH2 0x232E PUSH2 0x2335 SWAP2 PUSH2 0x127E JUMP JUMPDEST SWAP2 JUMPDEST PUSH2 0xD44 JUMP JUMPDEST SWAP1 PUSH2 0x22CF JUMP JUMPDEST SWAP1 PUSH2 0x2353 PUSH1 0x6 PUSH2 0x234C DUP7 DUP5 SWAP1 PUSH2 0xD62 JUMP JUMPDEST POP ADD PUSH2 0x911 JUMP JUMPDEST PUSH2 0x2366 PUSH2 0x2360 PUSH1 0x0 PUSH2 0x366 JUMP JUMPDEST SWAP2 PUSH2 0x366 JUMP JUMPDEST EQ PUSH2 0x2375 JUMPI JUMPDEST PUSH2 0x2335 SWAP1 PUSH2 0x2330 JUMP JUMPDEST SWAP2 PUSH2 0x2382 PUSH2 0x2335 SWAP2 PUSH2 0x127E JUMP JUMPDEST SWAP3 SWAP1 POP PUSH2 0x236C JUMP JUMPDEST SWAP2 PUSH2 0x23AB SWAP2 POP PUSH2 0x23A1 PUSH2 0x239B PUSH2 0x21C2 JUMP JUMPDEST SWAP4 PUSH2 0x2225 JUMP JUMPDEST PUSH1 0x0 DUP5 ADD MSTORE PUSH2 0x2225 JUMP JUMPDEST PUSH1 0x20 DUP3 ADD MSTORE PUSH2 0x23BA PUSH1 0x0 PUSH2 0xD28 JUMP JUMPDEST PUSH2 0x23C4 PUSH1 0x0 PUSH2 0xD28 JUMP JUMPDEST SWAP3 PUSH2 0x23CF PUSH1 0x0 PUSH2 0xD28 JUMP JUMPDEST SWAP2 JUMPDEST DUP3 PUSH2 0x23EC PUSH2 0x23E6 PUSH2 0x23E1 DUP6 PUSH2 0xD53 JUMP JUMPDEST PUSH2 0x242 JUMP JUMPDEST SWAP2 PUSH2 0x242 JUMP JUMPDEST LT ISZERO PUSH2 0x24EC JUMPI PUSH2 0x2409 PUSH1 0x6 PUSH2 0x2402 DUP5 DUP7 SWAP1 PUSH2 0xD62 JUMP JUMPDEST POP ADD PUSH2 0x911 JUMP JUMPDEST PUSH2 0x241C PUSH2 0x2416 PUSH1 0x1 PUSH2 0x366 JUMP JUMPDEST SWAP2 PUSH2 0x366 JUMP JUMPDEST EQ PUSH1 0x0 EQ PUSH2 0x246D JUMPI PUSH2 0x2460 PUSH2 0x2467 SWAP2 PUSH2 0x2459 PUSH2 0x2439 DUP6 DUP8 SWAP1 PUSH2 0xD62 JUMP JUMPDEST POP PUSH1 0x0 DUP9 ADD MLOAD PUSH2 0x2449 DUP5 SWAP3 PUSH2 0x16BF JUMP JUMPDEST PUSH2 0x2453 DUP4 DUP4 PUSH2 0x224C JUMP JUMPDEST MSTORE PUSH2 0x224C JUMP JUMPDEST MLOAD POP PUSH2 0x127E JUMP JUMPDEST SWAP3 JUMPDEST PUSH2 0xD44 JUMP JUMPDEST SWAP2 PUSH2 0x23D1 JUMP JUMPDEST SWAP2 PUSH2 0x2485 PUSH1 0x6 PUSH2 0x247E DUP5 DUP5 SWAP1 PUSH2 0xD62 JUMP JUMPDEST POP ADD PUSH2 0x911 JUMP JUMPDEST PUSH2 0x2498 PUSH2 0x2492 PUSH1 0x0 PUSH2 0x366 JUMP JUMPDEST SWAP2 PUSH2 0x366 JUMP JUMPDEST EQ PUSH2 0x24A7 JUMPI JUMPDEST PUSH2 0x2467 SWAP1 PUSH2 0x2462 JUMP JUMPDEST SWAP4 PUSH2 0x24E4 PUSH2 0x2467 SWAP2 PUSH2 0x24DD PUSH2 0x24BD DUP6 DUP10 SWAP1 PUSH2 0xD62 JUMP JUMPDEST POP PUSH1 0x20 DUP9 ADD MLOAD PUSH2 0x24CD DUP5 SWAP3 PUSH2 0x16BF JUMP JUMPDEST PUSH2 0x24D7 DUP4 DUP4 PUSH2 0x224C JUMP JUMPDEST MSTORE PUSH2 0x224C JUMP JUMPDEST MLOAD POP PUSH2 0x127E JUMP JUMPDEST SWAP5 SWAP1 POP PUSH2 0x249E JUMP JUMPDEST POP POP POP SWAP1 POP SWAP1 JUMP INVALID LOG2 PUSH5 0x6970667358 0x22 SLT KECCAK256 LOG4 EXTCODECOPY DIV TSTORE CALLER SWAP8 MOD PUSH26 0xB0862BD9323234BC84630FCFBFBE9879062C3E332EE42CD66473 PUSH16 0x6C634300081B00330000000000000000 "},"methodIdentifiers":{"getVaccinationDDay(address,uint256)":"375ffc73","initializeVaccinationRecords(address)":"59c3309e","recommendedVaccinations(uint256)":"e10b406c","returnChildVaccinationStatus(address)":"eb607db1","updateChildVaccination(address,string)":"00bcec27","updateMultipleChildVaccination(address,string[])":"647a6682"}}}}}