{"contracts/MetaParentChildRelationship.sol":{"ParentChildRelationshipWithMeta":{"abi":[{"inputs":[{"internalType":"address","name":"_healthInformationContractAddress","type":"address"},{"internalType":"address","name":"_medicalHistoryContractAddress","type":"address"},{"internalType":"address","name":"_vaccinationManagementContractAddress","type":"address"}],"stateMutability":"nonpayable","type":"constructor"},{"anonymous":false,"inputs":[{"indexed":true,"internalType":"address","name":"parentAddress","type":"address"},{"indexed":true,"internalType":"address","name":"childAddress","type":"address"}],"name":"ConnectChild","type":"event"},{"anonymous":false,"inputs":[{"indexed":true,"internalType":"address","name":"parentAddress","type":"address"},{"indexed":false,"internalType":"address","name":"childAddress","type":"address"}],"name":"CreateChild","type":"event"},{"inputs":[{"internalType":"address","name":"parent","type":"address"},{"internalType":"address","name":"childAddress","type":"address"},{"internalType":"enum MedicalHistory.MedicalType","name":"medicalType","type":"uint8"},{"internalType":"string","name":"visitedName","type":"string"},{"internalType":"string","name":"timestamp","type":"string"},{"internalType":"string","name":"doctorName","type":"string"},{"internalType":"string","name":"symptoms","type":"string"},{"internalType":"string","name":"diagnosisDetails","type":"string"},{"internalType":"uint8","name":"v","type":"uint8"},{"internalType":"bytes32","name":"r","type":"bytes32"},{"internalType":"bytes32","name":"s","type":"bytes32"}],"name":"executeMetaAddMedicalHistory","outputs":[],"stateMutability":"nonpayable","type":"function"},{"inputs":[{"internalType":"address","name":"parent","type":"address"},{"internalType":"address","name":"childAddress","type":"address"},{"internalType":"uint8","name":"v","type":"uint8"},{"internalType":"bytes32","name":"r","type":"bytes32"},{"internalType":"bytes32","name":"s","type":"bytes32"}],"name":"executeMetaConnectChild","outputs":[],"stateMutability":"nonpayable","type":"function"},{"inputs":[{"internalType":"address","name":"parent","type":"address"},{"internalType":"string","name":"name","type":"string"},{"internalType":"uint256","name":"birthDate","type":"uint256"},{"internalType":"uint16","name":"height","type":"uint16"},{"internalType":"uint16","name":"weight","type":"uint16"},{"internalType":"string[]","name":"vaxs","type":"string[]"},{"internalType":"uint8","name":"v","type":"uint8"},{"internalType":"bytes32","name":"r","type":"bytes32"},{"internalType":"bytes32","name":"s","type":"bytes32"}],"name":"executeMetaCreateChild","outputs":[],"stateMutability":"nonpayable","type":"function"},{"inputs":[{"internalType":"address","name":"parent","type":"address"},{"internalType":"address","name":"childAddress","type":"address"},{"internalType":"uint16","name":"height","type":"uint16"},{"internalType":"uint16","name":"weight","type":"uint16"},{"internalType":"uint8","name":"v","type":"uint8"},{"internalType":"bytes32","name":"r","type":"bytes32"},{"internalType":"bytes32","name":"s","type":"bytes32"}],"name":"executeMetaSetHealthInformation","outputs":[],"stateMutability":"nonpayable","type":"function"},{"inputs":[{"internalType":"address","name":"parent","type":"address"},{"internalType":"address","name":"childAddress","type":"address"},{"internalType":"string[]","name":"vaccineNames","type":"string[]"},{"internalType":"uint8","name":"v","type":"uint8"},{"internalType":"bytes32","name":"r","type":"bytes32"},{"internalType":"bytes32","name":"s","type":"bytes32"}],"name":"executeMetaUpdateMultipleVaccination","outputs":[],"stateMutability":"nonpayable","type":"function"},{"inputs":[{"internalType":"address","name":"parent","type":"address"},{"internalType":"address","name":"childAddress","type":"address"},{"internalType":"string","name":"vaccineName","type":"string"},{"internalType":"uint8","name":"v","type":"uint8"},{"internalType":"bytes32","name":"r","type":"bytes32"},{"internalType":"bytes32","name":"s","type":"bytes32"}],"name":"executeMetaUpdateVaccination","outputs":[],"stateMutability":"nonpayable","type":"function"},{"inputs":[],"name":"getDomainSeparator","outputs":[{"internalType":"bytes32","name":"","type":"bytes32"}],"stateMutability":"view","type":"function"},{"inputs":[{"internalType":"address","name":"_childAddress","type":"address"}],"name":"getHealthInformation","outputs":[{"components":[{"internalType":"uint16","name":"height","type":"uint16"},{"internalType":"uint16","name":"weight","type":"uint16"}],"internalType":"struct HealthInformation.Information","name":"","type":"tuple"}],"stateMutability":"view","type":"function"},{"inputs":[{"internalType":"address","name":"_childAddress","type":"address"}],"name":"getMedicalHistoriesForChild","outputs":[{"components":[{"internalType":"enum MedicalHistory.MedicalType","name":"medicaltype","type":"uint8"},{"internalType":"string","name":"visitedName","type":"string"},{"internalType":"string","name":"timestamp","type":"string"},{"internalType":"string","name":"doctorName","type":"string"},{"internalType":"string","name":"symptoms","type":"string"},{"internalType":"string","name":"diagnosisDetails","type":"string"}],"internalType":"struct MedicalHistory.History[]","name":"","type":"tuple[]"}],"stateMutability":"view","type":"function"},{"inputs":[{"internalType":"address","name":"user","type":"address"}],"name":"getNonce","outputs":[{"internalType":"uint256","name":"","type":"uint256"}],"stateMutability":"view","type":"function"},{"inputs":[{"internalType":"address","name":"_childAddress","type":"address"},{"internalType":"uint256","name":"_childBirthDate","type":"uint256"}],"name":"getVaccinationDDay","outputs":[{"components":[{"components":[{"internalType":"uint8","name":"index","type":"uint8"},{"internalType":"string","name":"vaccineName","type":"string"},{"internalType":"string","name":"targetDisease","type":"string"},{"internalType":"uint8","name":"vaccineChapter","type":"uint8"},{"internalType":"uint16","name":"recommendedDays","type":"uint16"},{"internalType":"uint16","name":"recommendedEndDays","type":"uint16"},{"internalType":"uint256","name":"startVaccinationDate","type":"uint256"},{"internalType":"uint256","name":"endVaccinationDate","type":"uint256"},{"internalType":"enum VaccinationManagement.VaccinationStatus","name":"status","type":"uint8"},{"internalType":"uint256","name":"administeredDate","type":"uint256"}],"internalType":"struct VaccinationManagement.Vaccination","name":"vax","type":"tuple"},{"internalType":"int256","name":"dDay","type":"int256"}],"internalType":"struct VaccinationManagement.VaccinationWithDDay[]","name":"","type":"tuple[]"}],"stateMutability":"view","type":"function"},{"inputs":[],"name":"healthInformationContract","outputs":[{"internalType":"contract HealthInformation","name":"","type":"address"}],"stateMutability":"view","type":"function"},{"inputs":[],"name":"medicalHistoryContract","outputs":[{"internalType":"contract MedicalHistory","name":"","type":"address"}],"stateMutability":"view","type":"function"},{"inputs":[{"internalType":"address","name":"","type":"address"}],"name":"nonces","outputs":[{"internalType":"uint256","name":"","type":"uint256"}],"stateMutability":"view","type":"function"},{"inputs":[],"name":"owner","outputs":[{"internalType":"address","name":"","type":"address"}],"stateMutability":"view","type":"function"},{"inputs":[{"internalType":"string","name":"_name","type":"string"}],"name":"returnChildAddress","outputs":[{"internalType":"address","name":"","type":"address"}],"stateMutability":"view","type":"function"},{"inputs":[],"name":"returnChildInformation","outputs":[{"components":[{"internalType":"address","name":"childAddress","type":"address"},{"internalType":"string","name":"name","type":"string"},{"internalType":"uint256","name":"birthDate","type":"uint256"}],"internalType":"struct ParentChildRelationshipWithMeta.Child[]","name":"","type":"tuple[]"}],"stateMutability":"view","type":"function"},{"inputs":[{"internalType":"address","name":"_childAddress","type":"address"}],"name":"returnChildVaccinationStatus","outputs":[{"components":[{"components":[{"internalType":"uint8","name":"index","type":"uint8"},{"internalType":"string","name":"vaccineName","type":"string"},{"internalType":"string","name":"targetDisease","type":"string"},{"internalType":"uint8","name":"vaccineChapter","type":"uint8"},{"internalType":"uint16","name":"recommendedDays","type":"uint16"},{"internalType":"uint16","name":"recommendedEndDays","type":"uint16"},{"internalType":"uint256","name":"startVaccinationDate","type":"uint256"},{"internalType":"uint256","name":"endVaccinationDate","type":"uint256"},{"internalType":"enum VaccinationManagement.VaccinationStatus","name":"status","type":"uint8"},{"internalType":"uint256","name":"administeredDate","type":"uint256"}],"internalType":"struct VaccinationManagement.Vaccination[]","name":"completed","type":"tuple[]"},{"components":[{"internalType":"uint8","name":"index","type":"uint8"},{"internalType":"string","name":"vaccineName","type":"string"},{"internalType":"string","name":"targetDisease","type":"string"},{"internalType":"uint8","name":"vaccineChapter","type":"uint8"},{"internalType":"uint16","name":"recommendedDays","type":"uint16"},{"internalType":"uint16","name":"recommendedEndDays","type":"uint16"},{"internalType":"uint256","name":"startVaccinationDate","type":"uint256"},{"internalType":"uint256","name":"endVaccinationDate","type":"uint256"},{"internalType":"enum VaccinationManagement.VaccinationStatus","name":"status","type":"uint8"},{"internalType":"uint256","name":"administeredDate","type":"uint256"}],"internalType":"struct VaccinationManagement.Vaccination[]","name":"pending","type":"tuple[]"}],"internalType":"struct VaccinationManagement.VaccinationInfomation","name":"","type":"tuple"}],"stateMutability":"view","type":"function"},{"inputs":[],"name":"vaccinationManagementContract","outputs":[{"internalType":"contract VaccinationManagement","name":"","type":"address"}],"stateMutability":"view","type":"function"}],"evm":{"bytecode":{"linkReferences":{},"object":"6080604052346100305761001a610014610117565b9161028a565b610022610035565b6146656102d1823961466590f35b61003b565b60405190565b600080fd5b601f801991011690565b634e487b7160e01b600052604160045260246000fd5b9061006a90610040565b810190811060018060401b0382111761008257604052565b61004a565b9061009a610093610035565b9283610060565b565b600080fd5b60018060a01b031690565b6100b5906100a1565b90565b6100c1816100ac565b036100c857565b600080fd5b905051906100da826100b8565b565b90916060828403126101125761010f6100f884600085016100cd565b9361010681602086016100cd565b936040016100cd565b90565b61009c565b6101356149368038038061012a81610087565b9283398101906100dc565b909192565b60001b90565b9061015160018060a01b039161013a565b9181191691161790565b90565b61017261016d610177926100a1565b61015b565b6100a1565b90565b6101839061015e565b90565b61018f9061017a565b90565b90565b906101aa6101a56101b192610186565b610192565b8254610140565b9055565b6101be9061015e565b90565b6101ca906101b5565b90565b6101d6906101b5565b90565b90565b906101f16101ec6101f8926101cd565b6101d9565b8254610140565b9055565b6102059061015e565b90565b610211906101fc565b90565b61021d906101fc565b90565b90565b9061023861023361023f92610214565b610220565b8254610140565b9055565b61024c9061015e565b90565b61025890610243565b90565b61026490610243565b90565b90565b9061027f61027a6102869261025b565b610267565b8254610140565b9055565b916102c26102bb6102c7936102b66102af6102ce976102aa336003610195565b6101c1565b60006101dc565b610208565b6001610223565b61024f565b600261026a565b56fe60806040526004361015610013575b6114d8565b61001e60003561014d565b80632d0335ab146101485780633496df3514610143578063375ffc731461013e5780633cfedb84146101395780633e030d0614610134578063431e79c41461012f5780634c5859131461012a57806359d5ad1b1461012557806360e9d663146101205780637ccf76c01461011b5780637ecebe00146101165780638bebe053146101115780638da5cb5b1461010c578063aa65a43e14610107578063ac8f30cd14610102578063c9d461c5146100fd578063e50cde76146100f8578063eb607db1146100f35763ed24911d0361000e576114a3565b61144b565b61133c565b6112d1565b61122a565b61119e565b61112d565b61108c565b610f96565b610efa565b610dcb565b610d0e565b610b8f565b610ac5565b610931565b61088e565b6107a9565b610496565b6101e8565b60e01c90565b60405190565b600080fd5b600080fd5b600080fd5b60018060a01b031690565b61017c90610168565b90565b61018881610173565b0361018f57565b600080fd5b905035906101a18261017f565b565b906020828203126101bd576101ba91600001610194565b90565b61015e565b90565b6101ce906101c2565b9052565b91906101e6906000602085019401906101c5565b565b34610218576102146102036101fe3660046101a3565b611509565b61020b610153565b918291826101d2565b0390f35b610159565b600080fd5b601f801991011690565b634e487b7160e01b600052604160045260246000fd5b9061024c90610222565b810190811067ffffffffffffffff82111761026657604052565b61022c565b9061027e610277610153565b9283610242565b565b67ffffffffffffffff81116102985760208091020190565b61022c565b600080fd5b600080fd5b67ffffffffffffffff81116102c5576102c1602091610222565b0190565b61022c565b90826000939282370152565b909291926102eb6102e6826102a7565b61026b565b9381855260208501908284011161030757610305926102ca565b565b6102a2565b9080601f8301121561032a57816020610327933591016102d6565b90565b61021d565b92919061034361033e82610280565b61026b565b938185526020808601920281019183831161039a5781905b838210610369575050505050565b813567ffffffffffffffff81116103955760209161038a878493870161030c565b81520191019061035b565b61021d565b61029d565b9080601f830112156103bd578160206103ba9335910161032f565b90565b61021d565b60ff1690565b6103d1816103c2565b036103d857565b600080fd5b905035906103ea826103c8565b565b90565b6103f8816103ec565b036103ff57565b600080fd5b90503590610411826103ef565b565b909160c08284031261048b5761042c8360008401610194565b9261043a8160208501610194565b92604081013567ffffffffffffffff8111610486578261045b91830161039f565b9261048361046c84606085016103dd565b9361047a8160808601610404565b9360a001610404565b90565b610163565b61015e565b60000190565b346104cb576104b56104a9366004610413565b9493909392919261195c565b6104bd610153565b806104c781610490565b0390f35b610159565b6104d9816101c2565b036104e057565b600080fd5b905035906104f2826104d0565b565b919060408382031261051d578061051161051a9260008601610194565b936020016104e5565b90565b61015e565b5190565b60209181520190565b60200190565b61053e906103c2565b9052565b5190565b60209181520190565b60005b838110610563575050906000910152565b806020918301518185015201610552565b61059361059c6020936105a19361058a81610542565b93848093610546565b9586910161054f565b610222565b0190565b61ffff1690565b6105b5906105a5565b9052565b6105c2906101c2565b9052565b634e487b7160e01b600052602160045260246000fd5b600211156105e657565b6105c6565b906105f5826105dc565b565b610600906105eb565b90565b61060c906105f7565b9052565b906106d3906101208061065a610648610140850161063660008901516000880190610535565b60208801518682036020880152610574565b60408701518582036040870152610574565b9461066d60608201516060860190610535565b61067f608082015160808601906105ac565b61069160a082015160a08601906105ac565b6106a360c082015160c08601906105b9565b6106b560e082015160e08601906105b9565b6106c9610100820151610100860190610603565b01519101906105b9565b90565b90565b6106e2906106d6565b9052565b90610712906020806107076040840160008701518582036000870152610610565b9401519101906106d9565b90565b9061071f916106e6565b90565b60200190565b9061073c61073583610522565b8092610526565b908161074d6020830284019461052f565b926000915b83831061076157505050505090565b9091929394602061078361077d83856001950387528951610715565b97610722565b9301930191939290610752565b6107a69160208201916000818403910152610728565b90565b346107da576107d66107c56107bf3660046104f4565b90611ea4565b6107cd610153565b91829182610790565b0390f35b610159565b60009103126107ea57565b61015e565b1c90565b60018060a01b031690565b61080e90600861081393026107ef565b6107f3565b90565b9061082191546107fe565b90565b6108316002600090610816565b90565b90565b61084b61084661085092610168565b610834565b610168565b90565b61085c90610837565b90565b61086890610853565b90565b6108749061085f565b9052565b919061088c9060006020850194019061086b565b565b346108be5761089e3660046107df565b6108ba6108a9610824565b6108b1610153565b91829182610878565b0390f35b610159565b60018060a01b031690565b6108de9060086108e393026107ef565b6108c3565b90565b906108f191546108ce565b90565b6108ff6000806108e6565b90565b61090b90610853565b90565b61091790610902565b9052565b919061092f9060006020850194019061090e565b565b34610961576109413660046107df565b61095d61094c6108f4565b610954610153565b9182918261091b565b0390f35b610159565b5190565b60209181520190565b60200190565b6002111561098357565b6105c6565b9061099282610979565b565b61099d90610988565b90565b6109a990610994565b9052565b610a2e9160a0610a1d610a0b6109f96109e760c086016109d5600089015160008901906109a0565b60208801518782036020890152610574565b60408701518682036040880152610574565b60608601518582036060870152610574565b60808501518482036080860152610574565b9201519060a0818403910152610574565b90565b90610a3b916109ad565b90565b60200190565b90610a58610a5183610966565b809261096a565b9081610a6960208302840194610973565b926000915b838310610a7d57505050505090565b90919293946020610a9f610a9983856001950387528951610a31565b97610a3e565b9301930191939290610a6e565b610ac29160208201916000818403910152610a44565b90565b34610af557610af1610ae0610adb3660046101a3565b61214b565b610ae8610153565b91829182610aac565b0390f35b610159565b610b03816105a5565b03610b0a57565b600080fd5b90503590610b1c82610afa565b565b60e081830312610b8a57610b358260008301610194565b92610b438360208401610194565b92610b518160408501610b0f565b92610b5f8260608301610b0f565b92610b87610b7084608085016103dd565b93610b7e8160a08601610404565b9360c001610404565b90565b61015e565b34610bc457610bae610ba2366004610b1e565b959490949391936122bf565b610bb6610153565b80610bc081610490565b0390f35b610159565b60021115610bd357565b600080fd5b90503590610be582610bc9565b565b919061016083820312610d0957610c018160008501610194565b92610c0f8260208301610194565b92610c1d8360408401610bd8565b92606083013567ffffffffffffffff8111610d045781610c3e91850161030c565b92608081013567ffffffffffffffff8111610cff5782610c5f91830161030c565b9260a082013567ffffffffffffffff8111610cfa5783610c8091840161030c565b9260c083013567ffffffffffffffff8111610cf55781610ca191850161030c565b9260e081013567ffffffffffffffff8111610cf05782610cc291830161030c565b92610ced610cd48461010085016103dd565b93610ce3816101208601610404565b9361014001610404565b90565b610163565b610163565b610163565b610163565b610163565b61015e565b34610d4957610d33610d21366004610be7565b99989098979197969296959395612629565b610d3b610153565b80610d4581610490565b0390f35b610159565b909160c082840312610dc657610d678360008401610194565b92610d758160208501610194565b92604081013567ffffffffffffffff8111610dc15782610d9691830161030c565b92610dbe610da784606085016103dd565b93610db58160808601610404565b9360a001610404565b90565b610163565b61015e565b34610e0057610dea610dde366004610d4e565b949390939291926128ff565b610df2610153565b80610dfc81610490565b0390f35b610159565b5190565b60209181520190565b60200190565b610e2190610173565b9052565b90610e6390604080610e5860608401610e4660008801516000870190610e18565b60208701518582036020870152610574565b9401519101906105b9565b90565b90610e7091610e25565b90565b60200190565b90610e8d610e8683610e05565b8092610e09565b9081610e9e60208302840194610e12565b926000915b838310610eb257505050505090565b90919293946020610ed4610ece83856001950387528951610e66565b97610e73565b9301930191939290610ea3565b610ef79160208201916000818403910152610e79565b90565b34610f2a57610f0a3660046107df565b610f26610f15612d31565b610f1d610153565b91829182610ee1565b0390f35b610159565b610f3890610853565b90565b90610f4590610f2f565b600052602052604060002090565b90565b610f66906008610f6b93026107ef565b610f53565b90565b90610f799154610f56565b90565b610f9390610f8e600491600092610f3b565b610f6e565b90565b34610fc657610fc2610fb1610fac3660046101a3565b610f7c565b610fb9610153565b918291826101d2565b0390f35b610159565b90916101208284031261108757610fe58360008401610194565b92602083013567ffffffffffffffff8111611082578161100691850161030c565b9261101482604083016104e5565b926110228360608401610b0f565b926110308160808501610b0f565b9260a081013567ffffffffffffffff811161107d578261105191830161039f565b9261107a6110628460c085016103dd565b936110708160e08601610404565b9361010001610404565b90565b610163565b610163565b61015e565b346110c4576110ae61109f366004610fcb565b9796909695919594929461324f565b6110b6610153565b806110c081610490565b0390f35b610159565b60018060a01b031690565b6110e49060086110e993026107ef565b6110c9565b90565b906110f791546110d4565b90565b61110760036000906110ec565b90565b61111390610173565b9052565b919061112b9060006020850194019061110a565b565b3461115d5761113d3660046107df565b6111596111486110fa565b611150610153565b91829182611117565b0390f35b610159565b906020806111869361117c600082015160008601906105ac565b01519101906105ac565b565b919061119c90600060408501940190611162565b565b346111ce576111ca6111b96111b43660046101a3565b613766565b6111c1610153565b91829182611188565b0390f35b610159565b919060a083820312611225576111ec8160008501610194565b926111fa8260208301610194565b9261122261120b84604085016103dd565b936112198160608601610404565b93608001610404565b90565b61015e565b3461125c5761124661123d3660046111d3565b93929092613b92565b61124e610153565b8061125881610490565b0390f35b610159565b60018060a01b031690565b61127c90600861128193026107ef565b611261565b90565b9061128f915461126c565b90565b61129f6001600090611284565b90565b6112ab90610853565b90565b6112b7906112a2565b9052565b91906112cf906000602085019401906112ae565b565b34611301576112e13660046107df565b6112fd6112ec611292565b6112f4610153565b918291826112bb565b0390f35b610159565b9060208282031261133757600082013567ffffffffffffffff81116113325761132f920161030c565b90565b610163565b61015e565b3461136c57611368611357611352366004611306565b613ff0565b61135f610153565b91829182611117565b0390f35b610159565b5190565b60209181520190565b60200190565b9061138e91610610565b90565b60200190565b906113ab6113a483611371565b8092611375565b90816113bc6020830284019461137e565b926000915b8383106113d057505050505090565b909192939460206113f26113ec83856001950387528951611384565b97611391565b93019301919392906113c1565b61142f91602061141e6040830160008501518482036000860152611397565b920151906020818403910152611397565b90565b61144891602082019160008184039101526113ff565b90565b3461147b576114776114666114613660046101a3565b6142dc565b61146e610153565b91829182611432565b0390f35b610159565b611489906103ec565b9052565b91906114a190600060208501940190611480565b565b346114d3576114b33660046107df565b6114cf6114be614495565b6114c6610153565b9182918261148d565b0390f35b610159565b600080fd5b600090565b60001c90565b6114f46114f9916114e2565b610f53565b90565b61150690546114e8565b90565b611520611525916115186114dd565b506004610f3b565b6114fc565b90565b611534611539916114e2565b6110c9565b90565b6115469054611528565b90565b60209181520190565b60207f73616374696f6e73000000000000000000000000000000000000000000000000917f4f6e6c79206f776e65722063616e2065786563757465206d657461207472616e60008201520152565b6115ad6028604092611549565b6115b681611552565b0190565b6115d090602081019060008183039101526115a0565b90565b156115da57565b6115e2610153565b62461bcd60e51b8152806115f8600482016115ba565b0390fd5b7fdde928008e7f65cdf516157703a7a544d073465c39a99616dd3b5617ac8c390790565b5190565b60209181520190565b60200190565b9061163d91610574565b90565b60200190565b9061165a61165383611620565b8092611624565b908161166b6020830284019461162d565b926000915b83831061167f57505050505090565b909192939460206116a161169b83856001950387528951611633565b97611640565b9301930191939290611670565b6116c49160208201916000818403910152611646565b90565b60200190565b5190565b634e487b7160e01b600052601160045260246000fd5b6116f0906101c2565b60001981146116ff5760010190565b6116d1565b60001b90565b9061171760001991611704565b9181191691161790565b61173561173061173a926101c2565b610834565b6101c2565b90565b90565b9061175561175061175c92611721565b61173d565b825461170a565b9055565b909594926117ac9461179b6117a59261179160809661178760a088019c6000890190611480565b602087019061110a565b604085019061110a565b6060830190611480565b01906101c5565b565b905090565b600061190160f01b910152565b6117cc600280926117ae565b6117d5816117b3565b0190565b90565b6117e86117ed916103ec565b6117d9565b9052565b602080939261180c611805611814946117c0565b80926117dc565b0180926117dc565b0190565b611821906103c2565b9052565b61185b61186294611851606094989795611847608086019a6000870190611480565b6020850190611818565b6040830190611480565b0190611480565b565b61186c610153565b3d6000823e3d90fd5b60007f496e76616c6964207369676e6174757265000000000000000000000000000000910152565b6118aa6011602092611549565b6118b381611875565b0190565b6118cd906020810190600081830391015261189d565b90565b156118d757565b6118df610153565b62461bcd60e51b8152806118f5600482016118b7565b0390fd5b61190561190a916114e2565b6107f3565b90565b61191790546118f9565b90565b600080fd5b60e01b90565b600091031261193057565b61015e565b916119599261194c6040820193600083019061110a565b6020818403910152611646565b90565b929360009194611a936020949761198e3361198861198261197d600361153c565b610173565b91610173565b146115d3565b611996614495565b611a6d89611a358c611a276119a96115fc565b918d6119f66119cc6119db8398946119bf610153565b92602091849283016116ae565b60208201810382520382610242565b6119ed6119e7826116cd565b916116c7565b20916004610f3b565b611a12611a02826114fc565b91611a0c836116e7565b90611740565b91611a1b610153565b968f9588968701611760565b8b8201810382520382610242565b611a47611a41826116cd565b916116c7565b2091611a5f611a54610153565b9384928b84016117f1565b898201810382520382610242565b611a7f611a79826116cd565b916116c7565b209293611a8a610153565b94859485611825565b838052039060015afa15611b5c57611ac890611ac2611abc611ab6600051611704565b92610173565b91610173565b146118d0565b611ada611ad5600261190d565b61085f565b9163647a6682919092803b15611b5757611b0860008094611b13611afc610153565b9788968795869461191f565b845260048401611935565b03925af18015611b5257611b25575b50565b611b459060003d8111611b4b575b611b3d8183610242565b810190611925565b38611b22565b503d611b33565b611864565b61191a565b611864565b606090565b67ffffffffffffffff8111611b7e5760208091020190565b61022c565b600080fd5b600080fd5b90505190611b9a826103c8565b565b90929192611bb1611bac826102a7565b61026b565b93818552602085019082840111611bcd57611bcb9261054f565b565b6102a2565b9080601f83011215611bf057816020611bed93519101611b9c565b90565b61021d565b90505190611c0282610afa565b565b90505190611c11826104d0565b565b60021115611c1d57565b600080fd5b90505190611c2f82611c13565b565b91909161014081840312611d3457611c4a61014061026b565b92611c588160008401611b8d565b6000850152602082015167ffffffffffffffff8111611d2f5781611c7d918401611bd2565b602085015260408201519167ffffffffffffffff8311611d2a57611ca682611d22948301611bd2565b6040860152611cb88260608301611b8d565b6060860152611cca8260808301611bf5565b6080860152611cdc8260a08301611bf5565b60a0860152611cee8260c08301611c04565b60c0860152611d008260e08301611c04565b60e0860152611d13826101008301611c22565b61010086015261012001611c04565b610120830152565b611b88565b611b88565b611b83565b611d42816106d6565b03611d4957565b600080fd5b90505190611d5b82611d39565b565b919091604081840312611db257611d74604061026b565b9260008201519167ffffffffffffffff8311611dad57611d9982611da6948301611c31565b6000860152602001611d4e565b6020830152565b611b88565b611b83565b929190611dcb611dc682611b66565b61026b565b9381855260208086019202810191838311611e225781905b838210611df1575050505050565b815167ffffffffffffffff8111611e1d57602091611e128784938701611d5d565b815201910190611de3565b61021d565b61029d565b9080601f83011215611e4557816020611e4293519101611db7565b90565b61021d565b90602082820312611e7b57600082015167ffffffffffffffff8111611e7657611e739201611e27565b90565b610163565b61015e565b916020611ea2929493611e9b6040820196600083019061110a565b01906101c5565b565b90600090611eb0611b61565b50611ec3611ebe600261190d565b61085f565b611ee563375ffc73949294611ef0611ed9610153565b9687958694859461191f565b845260048401611e80565b03915afa908115611f2a57600091611f07575b5090565b611f2491503d806000833e611f1c8183610242565b810190611e4a565b38611f03565b611864565b606090565b611f40611f45916114e2565b611261565b90565b611f529054611f34565b90565b67ffffffffffffffff8111611f6d5760208091020190565b61022c565b90505190611f7f82610bc9565b565b91909160c08184031261207d57611f9860c061026b565b92611fa68160008401611f72565b6000850152602082015167ffffffffffffffff81116120785781611fcb918401611bd2565b6020850152604082015167ffffffffffffffff81116120735781611ff0918401611bd2565b6040850152606082015167ffffffffffffffff811161206e5781612015918401611bd2565b6060850152608082015167ffffffffffffffff8111612069578161203a918401611bd2565b608085015260a082015167ffffffffffffffff81116120645761205d9201611bd2565b60a0830152565b611b88565b611b88565b611b88565b611b88565b611b88565b611b83565b92919061209661209182611f55565b61026b565b93818552602080860192028101918383116120ed5781905b8382106120bc575050505050565b815167ffffffffffffffff81116120e8576020916120dd8784938701611f81565b8152019101906120ae565b61021d565b61029d565b9080601f830112156121105781602061210d93519101612082565b90565b61021d565b9060208282031261214657600082015167ffffffffffffffff81116121415761213e92016120f2565b90565b610163565b61015e565b600061219391612159611f2f565b5061216c6121676001611f48565b6112a2565b61218863b226187c61217c610153565b9586948593849361191f565b835260048301611117565b03915afa9081156121cd576000916121aa575b5090565b6121c791503d806000833e6121bf8183610242565b810190612115565b386121a6565b611864565b7fd3e8853ff580e63c96ffb51f99aa93a062de0b320b5427bcc35f76f5fd9b216a90565b6121ff906105a5565b9052565b919461224c6122569298979561224260a09661223861225d9a61222e60c08a019e60008b0190611480565b602089019061110a565b604087019061110a565b60608501906121f6565b60808301906121f6565b01906101c5565b565b612269604061026b565b90565b90612276906105a5565b9052565b61228661228b916114e2565b6108c3565b90565b612298905461227a565b90565b9160206122bd9294936122b66060820196600083019061110a565b0190611162565b565b939460209293956123be600093986122f2336122ec6122e66122e1600361153c565b610173565b91610173565b146115d3565b876123988b6123608c6123528c612307614495565b966123106121d2565b9361232082979391926004610f3b565b61233c61232c826114fc565b91612336836116e7565b90611740565b92612345610153565b9760209689978801612203565b8b8201810382520382610242565b61237261236c826116cd565b916116c7565b209161238a61237f610153565b9384928b84016117f1565b898201810382520382610242565b6123aa6123a4826116cd565b916116c7565b2092936123b5610153565b94859485611825565b838052039060015afa156124aa576123f6612415926123f06123ea6123e4600051611704565b92610173565b91610173565b146118d0565b9161240c61240261225f565b936000850161226c565b6020830161226c565b90612428612423600061228e565b610902565b9163fef28772919092803b156124a5576124566000809461246161244a610153565b9788968795869461191f565b84526004840161229b565b03925af180156124a057612473575b50565b6124939060003d8111612499575b61248b8183610242565b810190611925565b38612470565b503d612481565b611864565b61191a565b611864565b7f4e5bbda4c8f0fbd0caeebb5b407058204dd2f7560f21e72e14edebe04532883990565b90565b979593919a9998969492909a61014089019b60008a016124f591611480565b602089016125029161110a565b6040880161250f9161110a565b6060870161251c91611818565b6080860161252991611480565b60a0850161253691611480565b60c0840161254391611480565b60e0830161255091611480565b610100820161255e91611480565b6101200161256b916101c5565b565b61257690610994565b9052565b6125996125a26020936125a79361259081610542565b93848093611549565b9586910161054f565b610222565b0190565b9592612618946125ee886125fc936125e161260a976125d76126269e9c98600060e0870196019061110a565b60208d019061256d565b8a820360408c015261257a565b9088820360608a015261257a565b90868203608088015261257a565b9084820360a086015261257a565b9160c081840391015261257a565b90565b9299919798909396983361263d600361153c565b61264690610173565b9061265090610173565b1461265a906115d3565b612662614495565b898b8d61266d6124af565b908c89938d8d8d9761267e90610994565b94612688906124d3565b612691816116cd565b9061269b906116c7565b20936126a6906124d3565b6126af816116cd565b906126b9906116c7565b20906126c4906124d3565b6126cd816116cd565b906126d7906116c7565b20916126e2906124d3565b6126eb816116cd565b906126f5906116c7565b2092612700906124d3565b612709816116cd565b90612713906116c7565b20938d60049061272291610f3b565b61272b816114fc565b90612735826116e7565b61273e91611740565b95612747610153565b998a9960208b01996127589a6124d6565b60208201810382520361276b9082610242565b612774816116cd565b9061277e906116c7565b20612787610153565b9182916020830191612798926117f1565b6020820181038252036127ab9082610242565b6127b4816116cd565b906127be906116c7565b209091926127ca610153565b9384936127d79385611825565b6000805203905a916000916001602094fa156128af576128149061280e612808612802600051611704565b92610173565b91610173565b146118d0565b6128266128216001611f48565b6112a2565b93633b27f4e291959790929396853b156128aa5760009761285b9589956128669461284f610153565b9c8d9b8c9a8b9961191f565b8952600489016125ab565b03925af180156128a557612878575b50565b6128989060003d811161289e575b6128908183610242565b810190611925565b38612875565b503d612886565b611864565b61191a565b611864565b7f637a5ce0321d584ef2ecfa7dbf3e4454e1c5b3f0dd2db45298460bb40aaea01790565b916128fc926128ef6040820193600083019061110a565b602081840391015261257a565b90565b929360009194612a14602094976129313361292b612925612920600361153c565b610173565b91610173565b146115d3565b612939614495565b6129ee896129b68c6129a861294c6128b4565b918d61297761295c8297936124d3565b61296e612968826116cd565b916116c7565b20916004610f3b565b612993612983826114fc565b9161298d836116e7565b90611740565b9161299c610153565b968f9588968701611760565b8b8201810382520382610242565b6129c86129c2826116cd565b916116c7565b20916129e06129d5610153565b9384928b84016117f1565b898201810382520382610242565b612a006129fa826116cd565b916116c7565b209293612a0b610153565b94859485611825565b838052039060015afa15612adc57612a4990612a43612a3d612a37600051611704565b92610173565b91610173565b146118d0565b612a5b612a56600261190d565b61085f565b9162bcec27919092803b15612ad757612a8860008094612a93612a7c610153565b9788968795869461191f565b8452600484016128d8565b03925af18015612ad257612aa5575b50565b612ac59060003d8111612acb575b612abd8183610242565b810190611925565b38612aa2565b503d612ab3565b611864565b61191a565b611864565b606090565b90612af090610f2f565b600052602052604060002090565b5490565b67ffffffffffffffff8111612b1a5760208091020190565b61022c565b90612b31612b2c83612b02565b61026b565b918252565b600052602060002090565b90612b4b90610173565b9052565b634e487b7160e01b600052602260045260246000fd5b9060016002830492168015612b85575b6020831014612b8057565b612b4f565b91607f1691612b75565b600052602060002090565b9060009291805490612bb5612bae83612b65565b8094610546565b91600181169081600014612c0e5750600114612bd1575b505050565b612bde9192939450612b8f565b916000925b818410612bf65750500190388080612bcc565b60018160209295939554848601520191019290612be3565b92949550505060ff1916825215156020020190388080612bcc565b90612c3391612b9a565b90565b90612c56612c4f92612c46610153565b93848092612c29565b0383610242565b565b52565b90612c65906101c2565b9052565b612c73606061026b565b90565b90612cc7612cbe6002612c87612c69565b94612ca0612c976000830161153c565b60008801612b41565b612cb8612caf60018301612c36565b60208801612c58565b016114fc565b60408401612c5b565b565b612cd290612c76565b90565b90612cdf82612afe565b612ce881612b1f565b92612cf66020850191612b36565b6000915b838310612d075750505050565b60036020600192612d1785612cc9565b815201920192019190612cfa565b612d2e90612cd5565b90565b612d39612ae1565b50612d4e612d4960053390612ae6565b612d25565b90565b7f3723178dc5634a72f673d5831cc4f6e8d5d5ac6fffc63041e2e90093b3459baf90565b9593919897969492909861010087019960008801612d9291611480565b60208701612d9f9161110a565b60408601612dac91611480565b60608501612db9916101c5565b60808401612dc6916121f6565b60a08301612dd3916121f6565b60c08201612de091611480565b60e001612dec916101c5565b565b60601b90565b612dfd90612dee565b90565b612e0990612df4565b90565b612e18612e1d91610173565b612e00565b9052565b612e46612e3d92602092612e3481610542565b948580936117ae565b9384910161054f565b0190565b90565b612e59612e5e916101c2565b612e4a565b9052565b60209392601482612e79612e8094612e8796612e0c565b0190612e21565b8092612e4d565b0190565b612e97612e9c916114e2565b611721565b90565b612eb3612eae612eb8926101c2565b610834565b610168565b90565b90565b5490565b634e487b7160e01b600052603260045260246000fd5b600052602060002090565b612eec81612ebe565b821015612f0757612efe600391612ed8565b91020190600090565b612ec2565b612f1581612ebe565b68010000000000000000811015612f3957612f3591600182018155612ee3565b9091565b61022c565b90565b90612f5260018060a01b0391611704565b9181191691161790565b90565b90612f74612f6f612f7b92610f2f565b612f5c565b8254612f41565b9055565b634e487b7160e01b600052600060045260246000fd5b601f602091010490565b1b90565b91906008612fbf910291612fb960001984612f9f565b92612f9f565b9181191691161790565b9190612fdf612fda612fe793611721565b61173d565b908354612fa3565b9055565b612ffd91612ff76114dd565b91612fc9565b565b5b81811061300b575050565b806130196000600193612feb565b01613000565b9190601f811161302f575b505050565b61303b61306093612b8f565b90602061304784612f95565b83019310613068575b61305990612f95565b0190612fff565b38808061302a565b915061305981929050613050565b9061308790600019906008026107ef565b191690565b8161309691613076565b906002021790565b906130a881610542565b9067ffffffffffffffff821161316a576130cc826130c68554612b65565b8561301f565b602090601f8311600114613101579180916130f0936000926130f5575b505061308c565b90555b565b909150015138806130e9565b601f1983169161311085612b8f565b9260005b81811061315257509160029391856001969410613138575b505050020190556130f3565b613148910151601f841690613076565b905538808061312c565b91936020600181928787015181550195019201613114565b61022c565b906131799161309e565b565b9061318590610f2f565b600052602052604060002090565b90565b600052602060002090565b5490565b6131ae816131a1565b8210156131c9576131c0600191613196565b91020190600090565b612ec2565b919060086131ee9102916131e860018060a01b0384612f9f565b92612f9f565b9181191691161790565b919061320e61320961321693610f2f565b612f5c565b9083546131ce565b9055565b908154916801000000000000000083101561324a5782613242916001613248950181556131a5565b906131f8565b565b61022c565b9685966133ac849a876133868661334e8a8f60209b60009b9e9f91613340926132933361328d613287613282600361153c565b610173565b91610173565b146115d3565b61329b614495565b986132a4612d51565b9561330e6132e46132f36132b8879c6124d3565b6132ca6132c4826116cd565b916116c7565b20979394956132d7610153565b92602091849283016116ae565b60208201810382520382610242565b6133056132ff826116cd565b916116c7565b20946004610f3b565b61332a61331a826114fc565b91613324836116e7565b90611740565b94613333610153565b996020988b998a01612d75565b8b8201810382520382610242565b61336061335a826116cd565b916116c7565b209161337861336d610153565b9384928b84016117f1565b898201810382520382610242565b613398613392826116cd565b916116c7565b2092936133a3610153565b94859485611825565b838052039060015afa156136be576134876134c4926133e76133cf600051611704565b6133e16133db8a610173565b91610173565b146118d0565b600261344161343c6134378b61341f8c6134108893613404610153565b94859360208501612e62565b60208201810382520382610242565b61343161342b826116cd565b916116c7565b20612e8b565b612e9f565b610853565b9861348061346961346361345e6134598d6005612ae6565b612ebb565b612f0c565b50612f3e565b936134778c60008701612f5f565b6001850161316f565b9101611740565b6134a561349e6134996006899061317b565b613193565b869061321a565b916134bb6134b161225f565b936000850161226c565b6020830161226c565b6134d66134d1600061228e565b610902565b9063fef2877290859092803b156136b957613505600080946135106134f9610153565b9788968795869461191f565b84526004840161229b565b03925af180156136b457613687575b5061353261352d600261190d565b61085f565b6359c3309e84823b15613682576135699261355e60008094613552610153565b9687958694859361191f565b835260048301611117565b03925af1801561367d57613650575b5061358b613586600261190d565b61085f565b9063647a668290849092803b1561364b576135ba600080946135c56135ae610153565b9788968795869461191f565b845260048401611935565b03925af1801561364657613619575b506136146136027fca9cd3d407e1929a81a936f2d713a37a799f8e396184ea2af249a3ec3bad920792610f2f565b9261360b610153565b91829182611117565b0390a2565b6136399060003d811161363f575b6136318183610242565b810190611925565b386135d4565b503d613627565b611864565b61191a565b6136709060003d8111613676575b6136688183610242565b810190611925565b38613578565b503d61365e565b611864565b61191a565b6136a79060003d81116136ad575b61369f8183610242565b810190611925565b3861351f565b503d613695565b611864565b61191a565b611864565b6136cd604061026b565b90565b600090565b6136dd6136c3565b90602080836136ea6136d0565b8152016136f56136d0565b81525050565b6137036136d5565b90565b91906040838203126137425761373b90613720604061026b565b9361372e8260008301611bf5565b6000860152602001611bf5565b6020830152565b611b83565b906040828203126137615761375e91600001613706565b90565b61015e565b60406137ae916137746136fb565b50613787613782600061228e565b610902565b6137a363aa65a43e613797610153565b9586948593849361191f565b835260048301611117565b03915afa9081156137f3576000916137c5575b5090565b6137e6915060403d81116137ec575b6137de8183610242565b810190613747565b386137c1565b503d6137d4565b611864565b7f1ec4aece768e0a04889951aba20f6ccc89ce203bb47661221e6fdfbb8deaca0b90565b6138526138599461384860609498979561383e608086019a6000870190611480565b602085019061110a565b604083019061110a565b01906101c5565b565b5490565b90565b61387661387161387b9261385f565b610834565b6101c2565b90565b60007f6368696c64206e6f7420666f756e640000000000000000000000000000000000910152565b6138b3600f602092611549565b6138bc8161387e565b0190565b6138d690602081019060008183039101526138a6565b90565b156138e057565b6138e8610153565b62461bcd60e51b8152806138fe600482016138c0565b0390fd5b600161390e91016101c2565b90565b60007f416c7265616479206c696e6b656420746f2074686973206368696c6400000000910152565b613946601c602092611549565b61394f81613911565b0190565b6139699060208101906000818303910152613939565b90565b1561397357565b61397b610153565b62461bcd60e51b81528061399160048201613953565b0390fd5b600052602060002090565b6139a98161385b565b8210156139c4576139bb600191613995565b91020190600090565b612ec2565b6139d281612afe565b8210156139ed576139e4600391612b36565b91020190600090565b612ec2565b6139fc9054612b65565b90565b90808214613ae157613a10816139f2565b9067ffffffffffffffff8211613adc57613a3482613a2e8554612b65565b8561301f565b600090601f8311600114613a6957918091613a5893600092613a5d575b505061308c565b90555b565b90915001543880613a51565b90613a78601f19841692612b8f565b90613a8285612b8f565b9260005b818110613ac457509160029391856001969410613aaa575b50505002019055613a5b565b613aba910154601f841690613076565b9055388080613a9e565b91936001806020928787015481550195019201613a86565b61022c565b5050565b90613aef916139ff565b565b90808203613afe575b5050565b613b3a60028084613b216000613b409701613b1b6000880161153c565b90612f5f565b613b32600182016001870190613ae5565b0192016114fc565b90611740565b3880613afa565b9190613b5857613b5691613af1565b565b612f7f565b9081549168010000000000000000831015613b8d5782613b85916001613b8b95018155612ee3565b90613b47565b565b61022c565b9492602092613c8860009396613bc333613bbd613bb7613bb2600361153c565b610173565b91610173565b146115d3565b613bcb614495565b613c6289613c2a8c613c1c613bde6137f8565b91613bec8195916004610f3b565b613c08613bf8826114fc565b91613c02836116e7565b90611740565b90613c11610153565b9586948f860161381c565b8b8201810382520382610242565b613c3c613c36826116cd565b916116c7565b2091613c54613c49610153565b9384928b84016117f1565b898201810382520382610242565b613c74613c6e826116cd565b916116c7565b209293613c7f610153565b94859485611825565b838052039060015afa15613e4057613cbc613ca4600051611704565b613cb6613cb086610173565b91610173565b146118d0565b613ced613cd3613cce6006859061317b565b61385b565b613ce6613ce06000613862565b916101c2565b14156138d9565b613d01613cfc60058590612ae6565b612ebb565b90613d0c6000613862565b5b80613d28613d22613d1d86612ebe565b6101c2565b916101c2565b1015613d6f57613d6a90613d65613d4c6000613d45878590612ee3565b500161153c565b613d5e613d5888610173565b91610173565b141561396c565b613902565b613d0d565b50929050613dd6613dbd613db7613d9c613d96613d8e6006889061317b565b6000906139a0565b906110ec565b613db2613daa828890614582565b916005612ae6565b6139c9565b50612f3e565b613dd1613dcc60058590612ae6565b612ebb565b613b5d565b613df4613ded613de86006859061317b565b613193565b829061321a565b90613e28613e227f67a834331ce532b16f83bfc8251d8eb0eb155ba5e222fa98d74d93c9907fedac93610f2f565b91610f2f565b91613e31610153565b80613e3b81610490565b0390a3565b611864565b600090565b60007f4e6f206368696c6420666f756e64000000000000000000000000000000000000910152565b613e7f600e602092611549565b613e8881613e4a565b0190565b613ea29060208101906000818303910152613e72565b90565b15613eac57565b613eb4610153565b62461bcd60e51b815280613eca60048201613e8c565b0390fd5b9060009291805490613ee9613ee283612b65565b80946117ae565b91600181169081600014613f3d5750600114613f05575b505050565b613f129192939450612b8f565b6000905b838210613f295750500190388080613f00565b600181602092548486015201910190613f16565b92949550505060ff19168252801515020190388080613f00565b613f6091613ece565b90565b613f6c91612e21565b90565b60207f756e640000000000000000000000000000000000000000000000000000000000917f6368696c6420776974682074686520676976656e206e616d65206e6f7420666f60008201520152565b613fca6023604092611549565b613fd381613f6f565b0190565b613fed9060208101906000818303910152613fbd565b90565b613ff8613e45565b5061400d61400860053390612ae6565b612ebb565b61401681612ebe565b916140348361402e6140286000613862565b916101c2565b11613ea5565b61403e6000613862565b5b8061405261404c866101c2565b916101c2565b101561412057614081614090600161406b868590612ee3565b5001614075610153565b92839160208301613f57565b60208201810382520382610242565b6140a261409c826116cd565b916116c7565b206140f16140eb6140c46140d3866140b8610153565b92839160208301613f63565b60208201810382520382610242565b6140e56140df826116cd565b916116c7565b206103ec565b916103ec565b14614104576140ff90613902565b61403f565b61411d93506141169150600092612ee3565b500161153c565b90565b614128610153565b62461bcd60e51b81528061413e60048201613fd7565b0390fd5b61414c604061026b565b90565b606090565b61415c614142565b906020808361416961414f565b81520161417461414f565b81525050565b614182614154565b90565b67ffffffffffffffff811161419d5760208091020190565b61022c565b9291906141b66141b182614185565b61026b565b938185526020808601920281019183831161420d5781905b8382106141dc575050505050565b815167ffffffffffffffff8111614208576020916141fd8784938701611c31565b8152019101906141ce565b61021d565b61029d565b9080601f830112156142305781602061422d935191016141a2565b90565b61021d565b9190916040818403126142a15761424c604061026b565b92600082015167ffffffffffffffff811161429c578161426d918401614212565b6000850152602082015167ffffffffffffffff8111614297576142909201614212565b6020830152565b611b88565b611b88565b611b83565b906020828203126142d757600082015167ffffffffffffffff81116142d2576142cf9201614235565b90565b610163565b61015e565b6000614324916142ea61417a565b506142fd6142f8600261190d565b61085f565b61431963eb607db161430d610153565b9586948593849361191f565b835260048301611117565b03915afa90811561435e5760009161433b575b5090565b61435891503d806000833e6143508183610242565b8101906142a6565b38614337565b611864565b600090565b7f8b73c3c69bb8fe3d512ecc4cf759cc79239f7b179b0ffacaa9a75d522b39400f90565b9061439e614399836102a7565b61026b565b918252565b60007f506172656e744368696c6452656c6174696f6e73686970000000000000000000910152565b6143d5601761438c565b906143e2602083016143a3565b565b6143ec6143cb565b90565b60007f3100000000000000000000000000000000000000000000000000000000000000910152565b614421600161438c565b9061442e602083016143ef565b565b614438614417565b90565b61444490610853565b90565b909594926144939461448261448c9261447860809661446e60a088019c6000890190611480565b6020870190611480565b6040850190611480565b60608301906101c5565b019061110a565b565b61449d614363565b506144a6614368565b6145116144b16143e4565b6144c36144bd826116cd565b916116c7565b20916145026144d0614430565b6144e26144dc826116cd565b916116c7565b20466144ed3061443b565b916144f6610153565b96879560208701614447565b60208201810382520382610242565b61452361451d826116cd565b916116c7565b2090565b60007f4368696c64206e6f7420666f756e640000000000000000000000000000000000910152565b61455c600f602092611549565b61456581614527565b0190565b61457f906020810190600081830391015261454f565b90565b61459961459e916145916114dd565b506005612ae6565b612ebb565b906145a96000613862565b5b806145c56145bf6145ba86612ebe565b6101c2565b916101c2565b101561460d576145e260006145db858490612ee3565b500161153c565b6145f46145ee84610173565b91610173565b146146075761460290613902565b6145aa565b91505090565b614615610153565b62461bcd60e51b81528061462b60048201614569565b0390fdfea264697066735822122099339da613419bd27dcffec49819a933fc5f8459cbbd424dc814bc0cb8b03e8764736f6c634300081b0033","opcodes":"PUSH1 0x80 PUSH1 0x40 MSTORE CALLVALUE PUSH2 0x30 JUMPI PUSH2 0x1A PUSH2 0x14 PUSH2 0x117 JUMP JUMPDEST SWAP2 PUSH2 0x28A JUMP JUMPDEST PUSH2 0x22 PUSH2 0x35 JUMP JUMPDEST PUSH2 0x4665 PUSH2 0x2D1 DUP3 CODECOPY PUSH2 0x4665 SWAP1 RETURN JUMPDEST PUSH2 0x3B JUMP JUMPDEST PUSH1 0x40 MLOAD SWAP1 JUMP JUMPDEST PUSH1 0x0 DUP1 REVERT JUMPDEST PUSH1 0x1F DUP1 NOT SWAP2 ADD AND SWAP1 JUMP JUMPDEST PUSH4 0x4E487B71 PUSH1 0xE0 SHL PUSH1 0x0 MSTORE PUSH1 0x41 PUSH1 0x4 MSTORE PUSH1 0x24 PUSH1 0x0 REVERT JUMPDEST SWAP1 PUSH2 0x6A SWAP1 PUSH2 0x40 JUMP JUMPDEST DUP2 ADD SWAP1 DUP2 LT PUSH1 0x1 DUP1 PUSH1 0x40 SHL SUB DUP3 GT OR PUSH2 0x82 JUMPI PUSH1 0x40 MSTORE JUMP JUMPDEST PUSH2 0x4A JUMP JUMPDEST SWAP1 PUSH2 0x9A PUSH2 0x93 PUSH2 0x35 JUMP JUMPDEST SWAP3 DUP4 PUSH2 0x60 JUMP JUMPDEST JUMP JUMPDEST PUSH1 0x0 DUP1 REVERT JUMPDEST PUSH1 0x1 DUP1 PUSH1 0xA0 SHL SUB AND SWAP1 JUMP JUMPDEST PUSH2 0xB5 SWAP1 PUSH2 0xA1 JUMP JUMPDEST SWAP1 JUMP JUMPDEST PUSH2 0xC1 DUP2 PUSH2 0xAC JUMP JUMPDEST SUB PUSH2 0xC8 JUMPI JUMP JUMPDEST PUSH1 0x0 DUP1 REVERT JUMPDEST SWAP1 POP MLOAD SWAP1 PUSH2 0xDA DUP3 PUSH2 0xB8 JUMP JUMPDEST JUMP JUMPDEST SWAP1 SWAP2 PUSH1 0x60 DUP3 DUP5 SUB SLT PUSH2 0x112 JUMPI PUSH2 0x10F PUSH2 0xF8 DUP5 PUSH1 0x0 DUP6 ADD PUSH2 0xCD JUMP JUMPDEST SWAP4 PUSH2 0x106 DUP2 PUSH1 0x20 DUP7 ADD PUSH2 0xCD JUMP JUMPDEST SWAP4 PUSH1 0x40 ADD PUSH2 0xCD JUMP JUMPDEST SWAP1 JUMP JUMPDEST PUSH2 0x9C JUMP JUMPDEST PUSH2 0x135 PUSH2 0x4936 DUP1 CODESIZE SUB DUP1 PUSH2 0x12A DUP2 PUSH2 0x87 JUMP JUMPDEST SWAP3 DUP4 CODECOPY DUP2 ADD SWAP1 PUSH2 0xDC JUMP JUMPDEST SWAP1 SWAP2 SWAP3 JUMP JUMPDEST PUSH1 0x0 SHL SWAP1 JUMP JUMPDEST SWAP1 PUSH2 0x151 PUSH1 0x1 DUP1 PUSH1 0xA0 SHL SUB SWAP2 PUSH2 0x13A JUMP JUMPDEST SWAP2 DUP2 NOT AND SWAP2 AND OR SWAP1 JUMP JUMPDEST SWAP1 JUMP JUMPDEST PUSH2 0x172 PUSH2 0x16D PUSH2 0x177 SWAP3 PUSH2 0xA1 JUMP JUMPDEST PUSH2 0x15B JUMP JUMPDEST PUSH2 0xA1 JUMP JUMPDEST SWAP1 JUMP JUMPDEST PUSH2 0x183 SWAP1 PUSH2 0x15E JUMP JUMPDEST SWAP1 JUMP JUMPDEST PUSH2 0x18F SWAP1 PUSH2 0x17A JUMP JUMPDEST SWAP1 JUMP JUMPDEST SWAP1 JUMP JUMPDEST SWAP1 PUSH2 0x1AA PUSH2 0x1A5 PUSH2 0x1B1 SWAP3 PUSH2 0x186 JUMP JUMPDEST PUSH2 0x192 JUMP JUMPDEST DUP3 SLOAD PUSH2 0x140 JUMP JUMPDEST SWAP1 SSTORE JUMP JUMPDEST PUSH2 0x1BE SWAP1 PUSH2 0x15E JUMP JUMPDEST SWAP1 JUMP JUMPDEST PUSH2 0x1CA SWAP1 PUSH2 0x1B5 JUMP JUMPDEST SWAP1 JUMP JUMPDEST PUSH2 0x1D6 SWAP1 PUSH2 0x1B5 JUMP JUMPDEST SWAP1 JUMP JUMPDEST SWAP1 JUMP JUMPDEST SWAP1 PUSH2 0x1F1 PUSH2 0x1EC PUSH2 0x1F8 SWAP3 PUSH2 0x1CD JUMP JUMPDEST PUSH2 0x1D9 JUMP JUMPDEST DUP3 SLOAD PUSH2 0x140 JUMP JUMPDEST SWAP1 SSTORE JUMP JUMPDEST PUSH2 0x205 SWAP1 PUSH2 0x15E JUMP JUMPDEST SWAP1 JUMP JUMPDEST PUSH2 0x211 SWAP1 PUSH2 0x1FC JUMP JUMPDEST SWAP1 JUMP JUMPDEST PUSH2 0x21D SWAP1 PUSH2 0x1FC JUMP JUMPDEST SWAP1 JUMP JUMPDEST SWAP1 JUMP JUMPDEST SWAP1 PUSH2 0x238 PUSH2 0x233 PUSH2 0x23F SWAP3 PUSH2 0x214 JUMP JUMPDEST PUSH2 0x220 JUMP JUMPDEST DUP3 SLOAD PUSH2 0x140 JUMP JUMPDEST SWAP1 SSTORE JUMP JUMPDEST PUSH2 0x24C SWAP1 PUSH2 0x15E JUMP JUMPDEST SWAP1 JUMP JUMPDEST PUSH2 0x258 SWAP1 PUSH2 0x243 JUMP JUMPDEST SWAP1 JUMP JUMPDEST PUSH2 0x264 SWAP1 PUSH2 0x243 JUMP JUMPDEST SWAP1 JUMP JUMPDEST SWAP1 JUMP JUMPDEST SWAP1 PUSH2 0x27F PUSH2 0x27A PUSH2 0x286 SWAP3 PUSH2 0x25B JUMP JUMPDEST PUSH2 0x267 JUMP JUMPDEST DUP3 SLOAD PUSH2 0x140 JUMP JUMPDEST SWAP1 SSTORE JUMP JUMPDEST SWAP2 PUSH2 0x2C2 PUSH2 0x2BB PUSH2 0x2C7 SWAP4 PUSH2 0x2B6 PUSH2 0x2AF PUSH2 0x2CE SWAP8 PUSH2 0x2AA CALLER PUSH1 0x3 PUSH2 0x195 JUMP JUMPDEST PUSH2 0x1C1 JUMP JUMPDEST PUSH1 0x0 PUSH2 0x1DC JUMP JUMPDEST PUSH2 0x208 JUMP JUMPDEST PUSH1 0x1 PUSH2 0x223 JUMP JUMPDEST PUSH2 0x24F JUMP JUMPDEST PUSH1 0x2 PUSH2 0x26A JUMP JUMPDEST JUMP INVALID PUSH1 0x80 PUSH1 0x40 MSTORE PUSH1 0x4 CALLDATASIZE LT ISZERO PUSH2 0x13 JUMPI JUMPDEST PUSH2 0x14D8 JUMP JUMPDEST PUSH2 0x1E PUSH1 0x0 CALLDATALOAD PUSH2 0x14D JUMP JUMPDEST DUP1 PUSH4 0x2D0335AB EQ PUSH2 0x148 JUMPI DUP1 PUSH4 0x3496DF35 EQ PUSH2 0x143 JUMPI DUP1 PUSH4 0x375FFC73 EQ PUSH2 0x13E JUMPI DUP1 PUSH4 0x3CFEDB84 EQ PUSH2 0x139 JUMPI DUP1 PUSH4 0x3E030D06 EQ PUSH2 0x134 JUMPI DUP1 PUSH4 0x431E79C4 EQ PUSH2 0x12F JUMPI DUP1 PUSH4 0x4C585913 EQ PUSH2 0x12A JUMPI DUP1 PUSH4 0x59D5AD1B EQ PUSH2 0x125 JUMPI DUP1 PUSH4 0x60E9D663 EQ PUSH2 0x120 JUMPI DUP1 PUSH4 0x7CCF76C0 EQ PUSH2 0x11B JUMPI DUP1 PUSH4 0x7ECEBE00 EQ PUSH2 0x116 JUMPI DUP1 PUSH4 0x8BEBE053 EQ PUSH2 0x111 JUMPI DUP1 PUSH4 0x8DA5CB5B EQ PUSH2 0x10C JUMPI DUP1 PUSH4 0xAA65A43E EQ PUSH2 0x107 JUMPI DUP1 PUSH4 0xAC8F30CD EQ PUSH2 0x102 JUMPI DUP1 PUSH4 0xC9D461C5 EQ PUSH2 0xFD JUMPI DUP1 PUSH4 0xE50CDE76 EQ PUSH2 0xF8 JUMPI DUP1 PUSH4 0xEB607DB1 EQ PUSH2 0xF3 JUMPI PUSH4 0xED24911D SUB PUSH2 0xE JUMPI PUSH2 0x14A3 JUMP JUMPDEST PUSH2 0x144B JUMP JUMPDEST PUSH2 0x133C JUMP JUMPDEST PUSH2 0x12D1 JUMP JUMPDEST PUSH2 0x122A JUMP JUMPDEST PUSH2 0x119E JUMP JUMPDEST PUSH2 0x112D JUMP JUMPDEST PUSH2 0x108C JUMP JUMPDEST PUSH2 0xF96 JUMP JUMPDEST PUSH2 0xEFA JUMP JUMPDEST PUSH2 0xDCB JUMP JUMPDEST PUSH2 0xD0E JUMP JUMPDEST PUSH2 0xB8F JUMP JUMPDEST PUSH2 0xAC5 JUMP JUMPDEST PUSH2 0x931 JUMP JUMPDEST PUSH2 0x88E JUMP JUMPDEST PUSH2 0x7A9 JUMP JUMPDEST PUSH2 0x496 JUMP JUMPDEST PUSH2 0x1E8 JUMP JUMPDEST PUSH1 0xE0 SHR SWAP1 JUMP JUMPDEST PUSH1 0x40 MLOAD SWAP1 JUMP JUMPDEST PUSH1 0x0 DUP1 REVERT JUMPDEST PUSH1 0x0 DUP1 REVERT JUMPDEST PUSH1 0x0 DUP1 REVERT JUMPDEST PUSH1 0x1 DUP1 PUSH1 0xA0 SHL SUB AND SWAP1 JUMP JUMPDEST PUSH2 0x17C SWAP1 PUSH2 0x168 JUMP JUMPDEST SWAP1 JUMP JUMPDEST PUSH2 0x188 DUP2 PUSH2 0x173 JUMP JUMPDEST SUB PUSH2 0x18F JUMPI JUMP JUMPDEST PUSH1 0x0 DUP1 REVERT JUMPDEST SWAP1 POP CALLDATALOAD SWAP1 PUSH2 0x1A1 DUP3 PUSH2 0x17F JUMP JUMPDEST JUMP JUMPDEST SWAP1 PUSH1 0x20 DUP3 DUP3 SUB SLT PUSH2 0x1BD JUMPI PUSH2 0x1BA SWAP2 PUSH1 0x0 ADD PUSH2 0x194 JUMP JUMPDEST SWAP1 JUMP JUMPDEST PUSH2 0x15E JUMP JUMPDEST SWAP1 JUMP JUMPDEST PUSH2 0x1CE SWAP1 PUSH2 0x1C2 JUMP JUMPDEST SWAP1 MSTORE JUMP JUMPDEST SWAP2 SWAP1 PUSH2 0x1E6 SWAP1 PUSH1 0x0 PUSH1 0x20 DUP6 ADD SWAP5 ADD SWAP1 PUSH2 0x1C5 JUMP JUMPDEST JUMP JUMPDEST CALLVALUE PUSH2 0x218 JUMPI PUSH2 0x214 PUSH2 0x203 PUSH2 0x1FE CALLDATASIZE PUSH1 0x4 PUSH2 0x1A3 JUMP JUMPDEST PUSH2 0x1509 JUMP JUMPDEST PUSH2 0x20B PUSH2 0x153 JUMP JUMPDEST SWAP2 DUP3 SWAP2 DUP3 PUSH2 0x1D2 JUMP JUMPDEST SUB SWAP1 RETURN JUMPDEST PUSH2 0x159 JUMP JUMPDEST PUSH1 0x0 DUP1 REVERT JUMPDEST PUSH1 0x1F DUP1 NOT SWAP2 ADD AND SWAP1 JUMP JUMPDEST PUSH4 0x4E487B71 PUSH1 0xE0 SHL PUSH1 0x0 MSTORE PUSH1 0x41 PUSH1 0x4 MSTORE PUSH1 0x24 PUSH1 0x0 REVERT JUMPDEST SWAP1 PUSH2 0x24C SWAP1 PUSH2 0x222 JUMP JUMPDEST DUP2 ADD SWAP1 DUP2 LT PUSH8 0xFFFFFFFFFFFFFFFF DUP3 GT OR PUSH2 0x266 JUMPI PUSH1 0x40 MSTORE JUMP JUMPDEST PUSH2 0x22C JUMP JUMPDEST SWAP1 PUSH2 0x27E PUSH2 0x277 PUSH2 0x153 JUMP JUMPDEST SWAP3 DUP4 PUSH2 0x242 JUMP JUMPDEST JUMP JUMPDEST PUSH8 0xFFFFFFFFFFFFFFFF DUP2 GT PUSH2 0x298 JUMPI PUSH1 0x20 DUP1 SWAP2 MUL ADD SWAP1 JUMP JUMPDEST PUSH2 0x22C JUMP JUMPDEST PUSH1 0x0 DUP1 REVERT JUMPDEST PUSH1 0x0 DUP1 REVERT JUMPDEST PUSH8 0xFFFFFFFFFFFFFFFF DUP2 GT PUSH2 0x2C5 JUMPI PUSH2 0x2C1 PUSH1 0x20 SWAP2 PUSH2 0x222 JUMP JUMPDEST ADD SWAP1 JUMP JUMPDEST PUSH2 0x22C JUMP JUMPDEST SWAP1 DUP3 PUSH1 0x0 SWAP4 SWAP3 DUP3 CALLDATACOPY ADD MSTORE JUMP JUMPDEST SWAP1 SWAP3 SWAP2 SWAP3 PUSH2 0x2EB PUSH2 0x2E6 DUP3 PUSH2 0x2A7 JUMP JUMPDEST PUSH2 0x26B JUMP JUMPDEST SWAP4 DUP2 DUP6 MSTORE PUSH1 0x20 DUP6 ADD SWAP1 DUP3 DUP5 ADD GT PUSH2 0x307 JUMPI PUSH2 0x305 SWAP3 PUSH2 0x2CA JUMP JUMPDEST JUMP JUMPDEST PUSH2 0x2A2 JUMP JUMPDEST SWAP1 DUP1 PUSH1 0x1F DUP4 ADD SLT ISZERO PUSH2 0x32A JUMPI DUP2 PUSH1 0x20 PUSH2 0x327 SWAP4 CALLDATALOAD SWAP2 ADD PUSH2 0x2D6 JUMP JUMPDEST SWAP1 JUMP JUMPDEST PUSH2 0x21D JUMP JUMPDEST SWAP3 SWAP2 SWAP1 PUSH2 0x343 PUSH2 0x33E DUP3 PUSH2 0x280 JUMP JUMPDEST PUSH2 0x26B JUMP JUMPDEST SWAP4 DUP2 DUP6 MSTORE PUSH1 0x20 DUP1 DUP7 ADD SWAP3 MUL DUP2 ADD SWAP2 DUP4 DUP4 GT PUSH2 0x39A JUMPI DUP2 SWAP1 JUMPDEST DUP4 DUP3 LT PUSH2 0x369 JUMPI POP POP POP POP POP JUMP JUMPDEST DUP2 CALLDATALOAD PUSH8 0xFFFFFFFFFFFFFFFF DUP2 GT PUSH2 0x395 JUMPI PUSH1 0x20 SWAP2 PUSH2 0x38A DUP8 DUP5 SWAP4 DUP8 ADD PUSH2 0x30C JUMP JUMPDEST DUP2 MSTORE ADD SWAP2 ADD SWAP1 PUSH2 0x35B JUMP JUMPDEST PUSH2 0x21D JUMP JUMPDEST PUSH2 0x29D JUMP JUMPDEST SWAP1 DUP1 PUSH1 0x1F DUP4 ADD SLT ISZERO PUSH2 0x3BD JUMPI DUP2 PUSH1 0x20 PUSH2 0x3BA SWAP4 CALLDATALOAD SWAP2 ADD PUSH2 0x32F JUMP JUMPDEST SWAP1 JUMP JUMPDEST PUSH2 0x21D JUMP JUMPDEST PUSH1 0xFF AND SWAP1 JUMP JUMPDEST PUSH2 0x3D1 DUP2 PUSH2 0x3C2 JUMP JUMPDEST SUB PUSH2 0x3D8 JUMPI JUMP JUMPDEST PUSH1 0x0 DUP1 REVERT JUMPDEST SWAP1 POP CALLDATALOAD SWAP1 PUSH2 0x3EA DUP3 PUSH2 0x3C8 JUMP JUMPDEST JUMP JUMPDEST SWAP1 JUMP JUMPDEST PUSH2 0x3F8 DUP2 PUSH2 0x3EC JUMP JUMPDEST SUB PUSH2 0x3FF JUMPI JUMP JUMPDEST PUSH1 0x0 DUP1 REVERT JUMPDEST SWAP1 POP CALLDATALOAD SWAP1 PUSH2 0x411 DUP3 PUSH2 0x3EF JUMP JUMPDEST JUMP JUMPDEST SWAP1 SWAP2 PUSH1 0xC0 DUP3 DUP5 SUB SLT PUSH2 0x48B JUMPI PUSH2 0x42C DUP4 PUSH1 0x0 DUP5 ADD PUSH2 0x194 JUMP JUMPDEST SWAP3 PUSH2 0x43A DUP2 PUSH1 0x20 DUP6 ADD PUSH2 0x194 JUMP JUMPDEST SWAP3 PUSH1 0x40 DUP2 ADD CALLDATALOAD PUSH8 0xFFFFFFFFFFFFFFFF DUP2 GT PUSH2 0x486 JUMPI DUP3 PUSH2 0x45B SWAP2 DUP4 ADD PUSH2 0x39F JUMP JUMPDEST SWAP3 PUSH2 0x483 PUSH2 0x46C DUP5 PUSH1 0x60 DUP6 ADD PUSH2 0x3DD JUMP JUMPDEST SWAP4 PUSH2 0x47A DUP2 PUSH1 0x80 DUP7 ADD PUSH2 0x404 JUMP JUMPDEST SWAP4 PUSH1 0xA0 ADD PUSH2 0x404 JUMP JUMPDEST SWAP1 JUMP JUMPDEST PUSH2 0x163 JUMP JUMPDEST PUSH2 0x15E JUMP JUMPDEST PUSH1 0x0 ADD SWAP1 JUMP JUMPDEST CALLVALUE PUSH2 0x4CB JUMPI PUSH2 0x4B5 PUSH2 0x4A9 CALLDATASIZE PUSH1 0x4 PUSH2 0x413 JUMP JUMPDEST SWAP5 SWAP4 SWAP1 SWAP4 SWAP3 SWAP2 SWAP3 PUSH2 0x195C JUMP JUMPDEST PUSH2 0x4BD PUSH2 0x153 JUMP JUMPDEST DUP1 PUSH2 0x4C7 DUP2 PUSH2 0x490 JUMP JUMPDEST SUB SWAP1 RETURN JUMPDEST PUSH2 0x159 JUMP JUMPDEST PUSH2 0x4D9 DUP2 PUSH2 0x1C2 JUMP JUMPDEST SUB PUSH2 0x4E0 JUMPI JUMP JUMPDEST PUSH1 0x0 DUP1 REVERT JUMPDEST SWAP1 POP CALLDATALOAD SWAP1 PUSH2 0x4F2 DUP3 PUSH2 0x4D0 JUMP JUMPDEST JUMP JUMPDEST SWAP2 SWAP1 PUSH1 0x40 DUP4 DUP3 SUB SLT PUSH2 0x51D JUMPI DUP1 PUSH2 0x511 PUSH2 0x51A SWAP3 PUSH1 0x0 DUP7 ADD PUSH2 0x194 JUMP JUMPDEST SWAP4 PUSH1 0x20 ADD PUSH2 0x4E5 JUMP JUMPDEST SWAP1 JUMP JUMPDEST PUSH2 0x15E JUMP JUMPDEST MLOAD SWAP1 JUMP JUMPDEST PUSH1 0x20 SWAP2 DUP2 MSTORE ADD SWAP1 JUMP JUMPDEST PUSH1 0x20 ADD SWAP1 JUMP JUMPDEST PUSH2 0x53E SWAP1 PUSH2 0x3C2 JUMP JUMPDEST SWAP1 MSTORE JUMP JUMPDEST MLOAD SWAP1 JUMP JUMPDEST PUSH1 0x20 SWAP2 DUP2 MSTORE ADD SWAP1 JUMP JUMPDEST PUSH1 0x0 JUMPDEST DUP4 DUP2 LT PUSH2 0x563 JUMPI POP POP SWAP1 PUSH1 0x0 SWAP2 ADD MSTORE JUMP JUMPDEST DUP1 PUSH1 0x20 SWAP2 DUP4 ADD MLOAD DUP2 DUP6 ADD MSTORE ADD PUSH2 0x552 JUMP JUMPDEST PUSH2 0x593 PUSH2 0x59C PUSH1 0x20 SWAP4 PUSH2 0x5A1 SWAP4 PUSH2 0x58A DUP2 PUSH2 0x542 JUMP JUMPDEST SWAP4 DUP5 DUP1 SWAP4 PUSH2 0x546 JUMP JUMPDEST SWAP6 DUP7 SWAP2 ADD PUSH2 0x54F JUMP JUMPDEST PUSH2 0x222 JUMP JUMPDEST ADD SWAP1 JUMP JUMPDEST PUSH2 0xFFFF AND SWAP1 JUMP JUMPDEST PUSH2 0x5B5 SWAP1 PUSH2 0x5A5 JUMP JUMPDEST SWAP1 MSTORE JUMP JUMPDEST PUSH2 0x5C2 SWAP1 PUSH2 0x1C2 JUMP JUMPDEST SWAP1 MSTORE JUMP JUMPDEST PUSH4 0x4E487B71 PUSH1 0xE0 SHL PUSH1 0x0 MSTORE PUSH1 0x21 PUSH1 0x4 MSTORE PUSH1 0x24 PUSH1 0x0 REVERT JUMPDEST PUSH1 0x2 GT ISZERO PUSH2 0x5E6 JUMPI JUMP JUMPDEST PUSH2 0x5C6 JUMP JUMPDEST SWAP1 PUSH2 0x5F5 DUP3 PUSH2 0x5DC JUMP JUMPDEST JUMP JUMPDEST PUSH2 0x600 SWAP1 PUSH2 0x5EB JUMP JUMPDEST SWAP1 JUMP JUMPDEST PUSH2 0x60C SWAP1 PUSH2 0x5F7 JUMP JUMPDEST SWAP1 MSTORE JUMP JUMPDEST SWAP1 PUSH2 0x6D3 SWAP1 PUSH2 0x120 DUP1 PUSH2 0x65A PUSH2 0x648 PUSH2 0x140 DUP6 ADD PUSH2 0x636 PUSH1 0x0 DUP10 ADD MLOAD PUSH1 0x0 DUP9 ADD SWAP1 PUSH2 0x535 JUMP JUMPDEST PUSH1 0x20 DUP9 ADD MLOAD DUP7 DUP3 SUB PUSH1 0x20 DUP9 ADD MSTORE PUSH2 0x574 JUMP JUMPDEST PUSH1 0x40 DUP8 ADD MLOAD DUP6 DUP3 SUB PUSH1 0x40 DUP8 ADD MSTORE PUSH2 0x574 JUMP JUMPDEST SWAP5 PUSH2 0x66D PUSH1 0x60 DUP3 ADD MLOAD PUSH1 0x60 DUP7 ADD SWAP1 PUSH2 0x535 JUMP JUMPDEST PUSH2 0x67F PUSH1 0x80 DUP3 ADD MLOAD PUSH1 0x80 DUP7 ADD SWAP1 PUSH2 0x5AC JUMP JUMPDEST PUSH2 0x691 PUSH1 0xA0 DUP3 ADD MLOAD PUSH1 0xA0 DUP7 ADD SWAP1 PUSH2 0x5AC JUMP JUMPDEST PUSH2 0x6A3 PUSH1 0xC0 DUP3 ADD MLOAD PUSH1 0xC0 DUP7 ADD SWAP1 PUSH2 0x5B9 JUMP JUMPDEST PUSH2 0x6B5 PUSH1 0xE0 DUP3 ADD MLOAD PUSH1 0xE0 DUP7 ADD SWAP1 PUSH2 0x5B9 JUMP JUMPDEST PUSH2 0x6C9 PUSH2 0x100 DUP3 ADD MLOAD PUSH2 0x100 DUP7 ADD SWAP1 PUSH2 0x603 JUMP JUMPDEST ADD MLOAD SWAP2 ADD SWAP1 PUSH2 0x5B9 JUMP JUMPDEST SWAP1 JUMP JUMPDEST SWAP1 JUMP JUMPDEST PUSH2 0x6E2 SWAP1 PUSH2 0x6D6 JUMP JUMPDEST SWAP1 MSTORE JUMP JUMPDEST SWAP1 PUSH2 0x712 SWAP1 PUSH1 0x20 DUP1 PUSH2 0x707 PUSH1 0x40 DUP5 ADD PUSH1 0x0 DUP8 ADD MLOAD DUP6 DUP3 SUB PUSH1 0x0 DUP8 ADD MSTORE PUSH2 0x610 JUMP JUMPDEST SWAP5 ADD MLOAD SWAP2 ADD SWAP1 PUSH2 0x6D9 JUMP JUMPDEST SWAP1 JUMP JUMPDEST SWAP1 PUSH2 0x71F SWAP2 PUSH2 0x6E6 JUMP JUMPDEST SWAP1 JUMP JUMPDEST PUSH1 0x20 ADD SWAP1 JUMP JUMPDEST SWAP1 PUSH2 0x73C PUSH2 0x735 DUP4 PUSH2 0x522 JUMP JUMPDEST DUP1 SWAP3 PUSH2 0x526 JUMP JUMPDEST SWAP1 DUP2 PUSH2 0x74D PUSH1 0x20 DUP4 MUL DUP5 ADD SWAP5 PUSH2 0x52F JUMP JUMPDEST SWAP3 PUSH1 0x0 SWAP2 JUMPDEST DUP4 DUP4 LT PUSH2 0x761 JUMPI POP POP POP POP POP SWAP1 JUMP JUMPDEST SWAP1 SWAP2 SWAP3 SWAP4 SWAP5 PUSH1 0x20 PUSH2 0x783 PUSH2 0x77D DUP4 DUP6 PUSH1 0x1 SWAP6 SUB DUP8 MSTORE DUP10 MLOAD PUSH2 0x715 JUMP JUMPDEST SWAP8 PUSH2 0x722 JUMP JUMPDEST SWAP4 ADD SWAP4 ADD SWAP2 SWAP4 SWAP3 SWAP1 PUSH2 0x752 JUMP JUMPDEST PUSH2 0x7A6 SWAP2 PUSH1 0x20 DUP3 ADD SWAP2 PUSH1 0x0 DUP2 DUP5 SUB SWAP2 ADD MSTORE PUSH2 0x728 JUMP JUMPDEST SWAP1 JUMP JUMPDEST CALLVALUE PUSH2 0x7DA JUMPI PUSH2 0x7D6 PUSH2 0x7C5 PUSH2 0x7BF CALLDATASIZE PUSH1 0x4 PUSH2 0x4F4 JUMP JUMPDEST SWAP1 PUSH2 0x1EA4 JUMP JUMPDEST PUSH2 0x7CD PUSH2 0x153 JUMP JUMPDEST SWAP2 DUP3 SWAP2 DUP3 PUSH2 0x790 JUMP JUMPDEST SUB SWAP1 RETURN JUMPDEST PUSH2 0x159 JUMP JUMPDEST PUSH1 0x0 SWAP2 SUB SLT PUSH2 0x7EA JUMPI JUMP JUMPDEST PUSH2 0x15E JUMP JUMPDEST SHR SWAP1 JUMP JUMPDEST PUSH1 0x1 DUP1 PUSH1 0xA0 SHL SUB AND SWAP1 JUMP JUMPDEST PUSH2 0x80E SWAP1 PUSH1 0x8 PUSH2 0x813 SWAP4 MUL PUSH2 0x7EF JUMP JUMPDEST PUSH2 0x7F3 JUMP JUMPDEST SWAP1 JUMP JUMPDEST SWAP1 PUSH2 0x821 SWAP2 SLOAD PUSH2 0x7FE JUMP JUMPDEST SWAP1 JUMP JUMPDEST PUSH2 0x831 PUSH1 0x2 PUSH1 0x0 SWAP1 PUSH2 0x816 JUMP JUMPDEST SWAP1 JUMP JUMPDEST SWAP1 JUMP JUMPDEST PUSH2 0x84B PUSH2 0x846 PUSH2 0x850 SWAP3 PUSH2 0x168 JUMP JUMPDEST PUSH2 0x834 JUMP JUMPDEST PUSH2 0x168 JUMP JUMPDEST SWAP1 JUMP JUMPDEST PUSH2 0x85C SWAP1 PUSH2 0x837 JUMP JUMPDEST SWAP1 JUMP JUMPDEST PUSH2 0x868 SWAP1 PUSH2 0x853 JUMP JUMPDEST SWAP1 JUMP JUMPDEST PUSH2 0x874 SWAP1 PUSH2 0x85F JUMP JUMPDEST SWAP1 MSTORE JUMP JUMPDEST SWAP2 SWAP1 PUSH2 0x88C SWAP1 PUSH1 0x0 PUSH1 0x20 DUP6 ADD SWAP5 ADD SWAP1 PUSH2 0x86B JUMP JUMPDEST JUMP JUMPDEST CALLVALUE PUSH2 0x8BE JUMPI PUSH2 0x89E CALLDATASIZE PUSH1 0x4 PUSH2 0x7DF JUMP JUMPDEST PUSH2 0x8BA PUSH2 0x8A9 PUSH2 0x824 JUMP JUMPDEST PUSH2 0x8B1 PUSH2 0x153 JUMP JUMPDEST SWAP2 DUP3 SWAP2 DUP3 PUSH2 0x878 JUMP JUMPDEST SUB SWAP1 RETURN JUMPDEST PUSH2 0x159 JUMP JUMPDEST PUSH1 0x1 DUP1 PUSH1 0xA0 SHL SUB AND SWAP1 JUMP JUMPDEST PUSH2 0x8DE SWAP1 PUSH1 0x8 PUSH2 0x8E3 SWAP4 MUL PUSH2 0x7EF JUMP JUMPDEST PUSH2 0x8C3 JUMP JUMPDEST SWAP1 JUMP JUMPDEST SWAP1 PUSH2 0x8F1 SWAP2 SLOAD PUSH2 0x8CE JUMP JUMPDEST SWAP1 JUMP JUMPDEST PUSH2 0x8FF PUSH1 0x0 DUP1 PUSH2 0x8E6 JUMP JUMPDEST SWAP1 JUMP JUMPDEST PUSH2 0x90B SWAP1 PUSH2 0x853 JUMP JUMPDEST SWAP1 JUMP JUMPDEST PUSH2 0x917 SWAP1 PUSH2 0x902 JUMP JUMPDEST SWAP1 MSTORE JUMP JUMPDEST SWAP2 SWAP1 PUSH2 0x92F SWAP1 PUSH1 0x0 PUSH1 0x20 DUP6 ADD SWAP5 ADD SWAP1 PUSH2 0x90E JUMP JUMPDEST JUMP JUMPDEST CALLVALUE PUSH2 0x961 JUMPI PUSH2 0x941 CALLDATASIZE PUSH1 0x4 PUSH2 0x7DF JUMP JUMPDEST PUSH2 0x95D PUSH2 0x94C PUSH2 0x8F4 JUMP JUMPDEST PUSH2 0x954 PUSH2 0x153 JUMP JUMPDEST SWAP2 DUP3 SWAP2 DUP3 PUSH2 0x91B JUMP JUMPDEST SUB SWAP1 RETURN JUMPDEST PUSH2 0x159 JUMP JUMPDEST MLOAD SWAP1 JUMP JUMPDEST PUSH1 0x20 SWAP2 DUP2 MSTORE ADD SWAP1 JUMP JUMPDEST PUSH1 0x20 ADD SWAP1 JUMP JUMPDEST PUSH1 0x2 GT ISZERO PUSH2 0x983 JUMPI JUMP JUMPDEST PUSH2 0x5C6 JUMP JUMPDEST SWAP1 PUSH2 0x992 DUP3 PUSH2 0x979 JUMP JUMPDEST JUMP JUMPDEST PUSH2 0x99D SWAP1 PUSH2 0x988 JUMP JUMPDEST SWAP1 JUMP JUMPDEST PUSH2 0x9A9 SWAP1 PUSH2 0x994 JUMP JUMPDEST SWAP1 MSTORE JUMP JUMPDEST PUSH2 0xA2E SWAP2 PUSH1 0xA0 PUSH2 0xA1D PUSH2 0xA0B PUSH2 0x9F9 PUSH2 0x9E7 PUSH1 0xC0 DUP7 ADD PUSH2 0x9D5 PUSH1 0x0 DUP10 ADD MLOAD PUSH1 0x0 DUP10 ADD SWAP1 PUSH2 0x9A0 JUMP JUMPDEST PUSH1 0x20 DUP9 ADD MLOAD DUP8 DUP3 SUB PUSH1 0x20 DUP10 ADD MSTORE PUSH2 0x574 JUMP JUMPDEST PUSH1 0x40 DUP8 ADD MLOAD DUP7 DUP3 SUB PUSH1 0x40 DUP9 ADD MSTORE PUSH2 0x574 JUMP JUMPDEST PUSH1 0x60 DUP7 ADD MLOAD DUP6 DUP3 SUB PUSH1 0x60 DUP8 ADD MSTORE PUSH2 0x574 JUMP JUMPDEST PUSH1 0x80 DUP6 ADD MLOAD DUP5 DUP3 SUB PUSH1 0x80 DUP7 ADD MSTORE PUSH2 0x574 JUMP JUMPDEST SWAP3 ADD MLOAD SWAP1 PUSH1 0xA0 DUP2 DUP5 SUB SWAP2 ADD MSTORE PUSH2 0x574 JUMP JUMPDEST SWAP1 JUMP JUMPDEST SWAP1 PUSH2 0xA3B SWAP2 PUSH2 0x9AD JUMP JUMPDEST SWAP1 JUMP JUMPDEST PUSH1 0x20 ADD SWAP1 JUMP JUMPDEST SWAP1 PUSH2 0xA58 PUSH2 0xA51 DUP4 PUSH2 0x966 JUMP JUMPDEST DUP1 SWAP3 PUSH2 0x96A JUMP JUMPDEST SWAP1 DUP2 PUSH2 0xA69 PUSH1 0x20 DUP4 MUL DUP5 ADD SWAP5 PUSH2 0x973 JUMP JUMPDEST SWAP3 PUSH1 0x0 SWAP2 JUMPDEST DUP4 DUP4 LT PUSH2 0xA7D JUMPI POP POP POP POP POP SWAP1 JUMP JUMPDEST SWAP1 SWAP2 SWAP3 SWAP4 SWAP5 PUSH1 0x20 PUSH2 0xA9F PUSH2 0xA99 DUP4 DUP6 PUSH1 0x1 SWAP6 SUB DUP8 MSTORE DUP10 MLOAD PUSH2 0xA31 JUMP JUMPDEST SWAP8 PUSH2 0xA3E JUMP JUMPDEST SWAP4 ADD SWAP4 ADD SWAP2 SWAP4 SWAP3 SWAP1 PUSH2 0xA6E JUMP JUMPDEST PUSH2 0xAC2 SWAP2 PUSH1 0x20 DUP3 ADD SWAP2 PUSH1 0x0 DUP2 DUP5 SUB SWAP2 ADD MSTORE PUSH2 0xA44 JUMP JUMPDEST SWAP1 JUMP JUMPDEST CALLVALUE PUSH2 0xAF5 JUMPI PUSH2 0xAF1 PUSH2 0xAE0 PUSH2 0xADB CALLDATASIZE PUSH1 0x4 PUSH2 0x1A3 JUMP JUMPDEST PUSH2 0x214B JUMP JUMPDEST PUSH2 0xAE8 PUSH2 0x153 JUMP JUMPDEST SWAP2 DUP3 SWAP2 DUP3 PUSH2 0xAAC JUMP JUMPDEST SUB SWAP1 RETURN JUMPDEST PUSH2 0x159 JUMP JUMPDEST PUSH2 0xB03 DUP2 PUSH2 0x5A5 JUMP JUMPDEST SUB PUSH2 0xB0A JUMPI JUMP JUMPDEST PUSH1 0x0 DUP1 REVERT JUMPDEST SWAP1 POP CALLDATALOAD SWAP1 PUSH2 0xB1C DUP3 PUSH2 0xAFA JUMP JUMPDEST JUMP JUMPDEST PUSH1 0xE0 DUP2 DUP4 SUB SLT PUSH2 0xB8A JUMPI PUSH2 0xB35 DUP3 PUSH1 0x0 DUP4 ADD PUSH2 0x194 JUMP JUMPDEST SWAP3 PUSH2 0xB43 DUP4 PUSH1 0x20 DUP5 ADD PUSH2 0x194 JUMP JUMPDEST SWAP3 PUSH2 0xB51 DUP2 PUSH1 0x40 DUP6 ADD PUSH2 0xB0F JUMP JUMPDEST SWAP3 PUSH2 0xB5F DUP3 PUSH1 0x60 DUP4 ADD PUSH2 0xB0F JUMP JUMPDEST SWAP3 PUSH2 0xB87 PUSH2 0xB70 DUP5 PUSH1 0x80 DUP6 ADD PUSH2 0x3DD JUMP JUMPDEST SWAP4 PUSH2 0xB7E DUP2 PUSH1 0xA0 DUP7 ADD PUSH2 0x404 JUMP JUMPDEST SWAP4 PUSH1 0xC0 ADD PUSH2 0x404 JUMP JUMPDEST SWAP1 JUMP JUMPDEST PUSH2 0x15E JUMP JUMPDEST CALLVALUE PUSH2 0xBC4 JUMPI PUSH2 0xBAE PUSH2 0xBA2 CALLDATASIZE PUSH1 0x4 PUSH2 0xB1E JUMP JUMPDEST SWAP6 SWAP5 SWAP1 SWAP5 SWAP4 SWAP2 SWAP4 PUSH2 0x22BF JUMP JUMPDEST PUSH2 0xBB6 PUSH2 0x153 JUMP JUMPDEST DUP1 PUSH2 0xBC0 DUP2 PUSH2 0x490 JUMP JUMPDEST SUB SWAP1 RETURN JUMPDEST PUSH2 0x159 JUMP JUMPDEST PUSH1 0x2 GT ISZERO PUSH2 0xBD3 JUMPI JUMP JUMPDEST PUSH1 0x0 DUP1 REVERT JUMPDEST SWAP1 POP CALLDATALOAD SWAP1 PUSH2 0xBE5 DUP3 PUSH2 0xBC9 JUMP JUMPDEST JUMP JUMPDEST SWAP2 SWAP1 PUSH2 0x160 DUP4 DUP3 SUB SLT PUSH2 0xD09 JUMPI PUSH2 0xC01 DUP2 PUSH1 0x0 DUP6 ADD PUSH2 0x194 JUMP JUMPDEST SWAP3 PUSH2 0xC0F DUP3 PUSH1 0x20 DUP4 ADD PUSH2 0x194 JUMP JUMPDEST SWAP3 PUSH2 0xC1D DUP4 PUSH1 0x40 DUP5 ADD PUSH2 0xBD8 JUMP JUMPDEST SWAP3 PUSH1 0x60 DUP4 ADD CALLDATALOAD PUSH8 0xFFFFFFFFFFFFFFFF DUP2 GT PUSH2 0xD04 JUMPI DUP2 PUSH2 0xC3E SWAP2 DUP6 ADD PUSH2 0x30C JUMP JUMPDEST SWAP3 PUSH1 0x80 DUP2 ADD CALLDATALOAD PUSH8 0xFFFFFFFFFFFFFFFF DUP2 GT PUSH2 0xCFF JUMPI DUP3 PUSH2 0xC5F SWAP2 DUP4 ADD PUSH2 0x30C JUMP JUMPDEST SWAP3 PUSH1 0xA0 DUP3 ADD CALLDATALOAD PUSH8 0xFFFFFFFFFFFFFFFF DUP2 GT PUSH2 0xCFA JUMPI DUP4 PUSH2 0xC80 SWAP2 DUP5 ADD PUSH2 0x30C JUMP JUMPDEST SWAP3 PUSH1 0xC0 DUP4 ADD CALLDATALOAD PUSH8 0xFFFFFFFFFFFFFFFF DUP2 GT PUSH2 0xCF5 JUMPI DUP2 PUSH2 0xCA1 SWAP2 DUP6 ADD PUSH2 0x30C JUMP JUMPDEST SWAP3 PUSH1 0xE0 DUP2 ADD CALLDATALOAD PUSH8 0xFFFFFFFFFFFFFFFF DUP2 GT PUSH2 0xCF0 JUMPI DUP3 PUSH2 0xCC2 SWAP2 DUP4 ADD PUSH2 0x30C JUMP JUMPDEST SWAP3 PUSH2 0xCED PUSH2 0xCD4 DUP5 PUSH2 0x100 DUP6 ADD PUSH2 0x3DD JUMP JUMPDEST SWAP4 PUSH2 0xCE3 DUP2 PUSH2 0x120 DUP7 ADD PUSH2 0x404 JUMP JUMPDEST SWAP4 PUSH2 0x140 ADD PUSH2 0x404 JUMP JUMPDEST SWAP1 JUMP JUMPDEST PUSH2 0x163 JUMP JUMPDEST PUSH2 0x163 JUMP JUMPDEST PUSH2 0x163 JUMP JUMPDEST PUSH2 0x163 JUMP JUMPDEST PUSH2 0x163 JUMP JUMPDEST PUSH2 0x15E JUMP JUMPDEST CALLVALUE PUSH2 0xD49 JUMPI PUSH2 0xD33 PUSH2 0xD21 CALLDATASIZE PUSH1 0x4 PUSH2 0xBE7 JUMP JUMPDEST SWAP10 SWAP9 SWAP1 SWAP9 SWAP8 SWAP2 SWAP8 SWAP7 SWAP3 SWAP7 SWAP6 SWAP4 SWAP6 PUSH2 0x2629 JUMP JUMPDEST PUSH2 0xD3B PUSH2 0x153 JUMP JUMPDEST DUP1 PUSH2 0xD45 DUP2 PUSH2 0x490 JUMP JUMPDEST SUB SWAP1 RETURN JUMPDEST PUSH2 0x159 JUMP JUMPDEST SWAP1 SWAP2 PUSH1 0xC0 DUP3 DUP5 SUB SLT PUSH2 0xDC6 JUMPI PUSH2 0xD67 DUP4 PUSH1 0x0 DUP5 ADD PUSH2 0x194 JUMP JUMPDEST SWAP3 PUSH2 0xD75 DUP2 PUSH1 0x20 DUP6 ADD PUSH2 0x194 JUMP JUMPDEST SWAP3 PUSH1 0x40 DUP2 ADD CALLDATALOAD PUSH8 0xFFFFFFFFFFFFFFFF DUP2 GT PUSH2 0xDC1 JUMPI DUP3 PUSH2 0xD96 SWAP2 DUP4 ADD PUSH2 0x30C JUMP JUMPDEST SWAP3 PUSH2 0xDBE PUSH2 0xDA7 DUP5 PUSH1 0x60 DUP6 ADD PUSH2 0x3DD JUMP JUMPDEST SWAP4 PUSH2 0xDB5 DUP2 PUSH1 0x80 DUP7 ADD PUSH2 0x404 JUMP JUMPDEST SWAP4 PUSH1 0xA0 ADD PUSH2 0x404 JUMP JUMPDEST SWAP1 JUMP JUMPDEST PUSH2 0x163 JUMP JUMPDEST PUSH2 0x15E JUMP JUMPDEST CALLVALUE PUSH2 0xE00 JUMPI PUSH2 0xDEA PUSH2 0xDDE CALLDATASIZE PUSH1 0x4 PUSH2 0xD4E JUMP JUMPDEST SWAP5 SWAP4 SWAP1 SWAP4 SWAP3 SWAP2 SWAP3 PUSH2 0x28FF JUMP JUMPDEST PUSH2 0xDF2 PUSH2 0x153 JUMP JUMPDEST DUP1 PUSH2 0xDFC DUP2 PUSH2 0x490 JUMP JUMPDEST SUB SWAP1 RETURN JUMPDEST PUSH2 0x159 JUMP JUMPDEST MLOAD SWAP1 JUMP JUMPDEST PUSH1 0x20 SWAP2 DUP2 MSTORE ADD SWAP1 JUMP JUMPDEST PUSH1 0x20 ADD SWAP1 JUMP JUMPDEST PUSH2 0xE21 SWAP1 PUSH2 0x173 JUMP JUMPDEST SWAP1 MSTORE JUMP JUMPDEST SWAP1 PUSH2 0xE63 SWAP1 PUSH1 0x40 DUP1 PUSH2 0xE58 PUSH1 0x60 DUP5 ADD PUSH2 0xE46 PUSH1 0x0 DUP9 ADD MLOAD PUSH1 0x0 DUP8 ADD SWAP1 PUSH2 0xE18 JUMP JUMPDEST PUSH1 0x20 DUP8 ADD MLOAD DUP6 DUP3 SUB PUSH1 0x20 DUP8 ADD MSTORE PUSH2 0x574 JUMP JUMPDEST SWAP5 ADD MLOAD SWAP2 ADD SWAP1 PUSH2 0x5B9 JUMP JUMPDEST SWAP1 JUMP JUMPDEST SWAP1 PUSH2 0xE70 SWAP2 PUSH2 0xE25 JUMP JUMPDEST SWAP1 JUMP JUMPDEST PUSH1 0x20 ADD SWAP1 JUMP JUMPDEST SWAP1 PUSH2 0xE8D PUSH2 0xE86 DUP4 PUSH2 0xE05 JUMP JUMPDEST DUP1 SWAP3 PUSH2 0xE09 JUMP JUMPDEST SWAP1 DUP2 PUSH2 0xE9E PUSH1 0x20 DUP4 MUL DUP5 ADD SWAP5 PUSH2 0xE12 JUMP JUMPDEST SWAP3 PUSH1 0x0 SWAP2 JUMPDEST DUP4 DUP4 LT PUSH2 0xEB2 JUMPI POP POP POP POP POP SWAP1 JUMP JUMPDEST SWAP1 SWAP2 SWAP3 SWAP4 SWAP5 PUSH1 0x20 PUSH2 0xED4 PUSH2 0xECE DUP4 DUP6 PUSH1 0x1 SWAP6 SUB DUP8 MSTORE DUP10 MLOAD PUSH2 0xE66 JUMP JUMPDEST SWAP8 PUSH2 0xE73 JUMP JUMPDEST SWAP4 ADD SWAP4 ADD SWAP2 SWAP4 SWAP3 SWAP1 PUSH2 0xEA3 JUMP JUMPDEST PUSH2 0xEF7 SWAP2 PUSH1 0x20 DUP3 ADD SWAP2 PUSH1 0x0 DUP2 DUP5 SUB SWAP2 ADD MSTORE PUSH2 0xE79 JUMP JUMPDEST SWAP1 JUMP JUMPDEST CALLVALUE PUSH2 0xF2A JUMPI PUSH2 0xF0A CALLDATASIZE PUSH1 0x4 PUSH2 0x7DF JUMP JUMPDEST PUSH2 0xF26 PUSH2 0xF15 PUSH2 0x2D31 JUMP JUMPDEST PUSH2 0xF1D PUSH2 0x153 JUMP JUMPDEST SWAP2 DUP3 SWAP2 DUP3 PUSH2 0xEE1 JUMP JUMPDEST SUB SWAP1 RETURN JUMPDEST PUSH2 0x159 JUMP JUMPDEST PUSH2 0xF38 SWAP1 PUSH2 0x853 JUMP JUMPDEST SWAP1 JUMP JUMPDEST SWAP1 PUSH2 0xF45 SWAP1 PUSH2 0xF2F JUMP JUMPDEST PUSH1 0x0 MSTORE PUSH1 0x20 MSTORE PUSH1 0x40 PUSH1 0x0 KECCAK256 SWAP1 JUMP JUMPDEST SWAP1 JUMP JUMPDEST PUSH2 0xF66 SWAP1 PUSH1 0x8 PUSH2 0xF6B SWAP4 MUL PUSH2 0x7EF JUMP JUMPDEST PUSH2 0xF53 JUMP JUMPDEST SWAP1 JUMP JUMPDEST SWAP1 PUSH2 0xF79 SWAP2 SLOAD PUSH2 0xF56 JUMP JUMPDEST SWAP1 JUMP JUMPDEST PUSH2 0xF93 SWAP1 PUSH2 0xF8E PUSH1 0x4 SWAP2 PUSH1 0x0 SWAP3 PUSH2 0xF3B JUMP JUMPDEST PUSH2 0xF6E JUMP JUMPDEST SWAP1 JUMP JUMPDEST CALLVALUE PUSH2 0xFC6 JUMPI PUSH2 0xFC2 PUSH2 0xFB1 PUSH2 0xFAC CALLDATASIZE PUSH1 0x4 PUSH2 0x1A3 JUMP JUMPDEST PUSH2 0xF7C JUMP JUMPDEST PUSH2 0xFB9 PUSH2 0x153 JUMP JUMPDEST SWAP2 DUP3 SWAP2 DUP3 PUSH2 0x1D2 JUMP JUMPDEST SUB SWAP1 RETURN JUMPDEST PUSH2 0x159 JUMP JUMPDEST SWAP1 SWAP2 PUSH2 0x120 DUP3 DUP5 SUB SLT PUSH2 0x1087 JUMPI PUSH2 0xFE5 DUP4 PUSH1 0x0 DUP5 ADD PUSH2 0x194 JUMP JUMPDEST SWAP3 PUSH1 0x20 DUP4 ADD CALLDATALOAD PUSH8 0xFFFFFFFFFFFFFFFF DUP2 GT PUSH2 0x1082 JUMPI DUP2 PUSH2 0x1006 SWAP2 DUP6 ADD PUSH2 0x30C JUMP JUMPDEST SWAP3 PUSH2 0x1014 DUP3 PUSH1 0x40 DUP4 ADD PUSH2 0x4E5 JUMP JUMPDEST SWAP3 PUSH2 0x1022 DUP4 PUSH1 0x60 DUP5 ADD PUSH2 0xB0F JUMP JUMPDEST SWAP3 PUSH2 0x1030 DUP2 PUSH1 0x80 DUP6 ADD PUSH2 0xB0F JUMP JUMPDEST SWAP3 PUSH1 0xA0 DUP2 ADD CALLDATALOAD PUSH8 0xFFFFFFFFFFFFFFFF DUP2 GT PUSH2 0x107D JUMPI DUP3 PUSH2 0x1051 SWAP2 DUP4 ADD PUSH2 0x39F JUMP JUMPDEST SWAP3 PUSH2 0x107A PUSH2 0x1062 DUP5 PUSH1 0xC0 DUP6 ADD PUSH2 0x3DD JUMP JUMPDEST SWAP4 PUSH2 0x1070 DUP2 PUSH1 0xE0 DUP7 ADD PUSH2 0x404 JUMP JUMPDEST SWAP4 PUSH2 0x100 ADD PUSH2 0x404 JUMP JUMPDEST SWAP1 JUMP JUMPDEST PUSH2 0x163 JUMP JUMPDEST PUSH2 0x163 JUMP JUMPDEST PUSH2 0x15E JUMP JUMPDEST CALLVALUE PUSH2 0x10C4 JUMPI PUSH2 0x10AE PUSH2 0x109F CALLDATASIZE PUSH1 0x4 PUSH2 0xFCB JUMP JUMPDEST SWAP8 SWAP7 SWAP1 SWAP7 SWAP6 SWAP2 SWAP6 SWAP5 SWAP3 SWAP5 PUSH2 0x324F JUMP JUMPDEST PUSH2 0x10B6 PUSH2 0x153 JUMP JUMPDEST DUP1 PUSH2 0x10C0 DUP2 PUSH2 0x490 JUMP JUMPDEST SUB SWAP1 RETURN JUMPDEST PUSH2 0x159 JUMP JUMPDEST PUSH1 0x1 DUP1 PUSH1 0xA0 SHL SUB AND SWAP1 JUMP JUMPDEST PUSH2 0x10E4 SWAP1 PUSH1 0x8 PUSH2 0x10E9 SWAP4 MUL PUSH2 0x7EF JUMP JUMPDEST PUSH2 0x10C9 JUMP JUMPDEST SWAP1 JUMP JUMPDEST SWAP1 PUSH2 0x10F7 SWAP2 SLOAD PUSH2 0x10D4 JUMP JUMPDEST SWAP1 JUMP JUMPDEST PUSH2 0x1107 PUSH1 0x3 PUSH1 0x0 SWAP1 PUSH2 0x10EC JUMP JUMPDEST SWAP1 JUMP JUMPDEST PUSH2 0x1113 SWAP1 PUSH2 0x173 JUMP JUMPDEST SWAP1 MSTORE JUMP JUMPDEST SWAP2 SWAP1 PUSH2 0x112B SWAP1 PUSH1 0x0 PUSH1 0x20 DUP6 ADD SWAP5 ADD SWAP1 PUSH2 0x110A JUMP JUMPDEST JUMP JUMPDEST CALLVALUE PUSH2 0x115D JUMPI PUSH2 0x113D CALLDATASIZE PUSH1 0x4 PUSH2 0x7DF JUMP JUMPDEST PUSH2 0x1159 PUSH2 0x1148 PUSH2 0x10FA JUMP JUMPDEST PUSH2 0x1150 PUSH2 0x153 JUMP JUMPDEST SWAP2 DUP3 SWAP2 DUP3 PUSH2 0x1117 JUMP JUMPDEST SUB SWAP1 RETURN JUMPDEST PUSH2 0x159 JUMP JUMPDEST SWAP1 PUSH1 0x20 DUP1 PUSH2 0x1186 SWAP4 PUSH2 0x117C PUSH1 0x0 DUP3 ADD MLOAD PUSH1 0x0 DUP7 ADD SWAP1 PUSH2 0x5AC JUMP JUMPDEST ADD MLOAD SWAP2 ADD SWAP1 PUSH2 0x5AC JUMP JUMPDEST JUMP JUMPDEST SWAP2 SWAP1 PUSH2 0x119C SWAP1 PUSH1 0x0 PUSH1 0x40 DUP6 ADD SWAP5 ADD SWAP1 PUSH2 0x1162 JUMP JUMPDEST JUMP JUMPDEST CALLVALUE PUSH2 0x11CE JUMPI PUSH2 0x11CA PUSH2 0x11B9 PUSH2 0x11B4 CALLDATASIZE PUSH1 0x4 PUSH2 0x1A3 JUMP JUMPDEST PUSH2 0x3766 JUMP JUMPDEST PUSH2 0x11C1 PUSH2 0x153 JUMP JUMPDEST SWAP2 DUP3 SWAP2 DUP3 PUSH2 0x1188 JUMP JUMPDEST SUB SWAP1 RETURN JUMPDEST PUSH2 0x159 JUMP JUMPDEST SWAP2 SWAP1 PUSH1 0xA0 DUP4 DUP3 SUB SLT PUSH2 0x1225 JUMPI PUSH2 0x11EC DUP2 PUSH1 0x0 DUP6 ADD PUSH2 0x194 JUMP JUMPDEST SWAP3 PUSH2 0x11FA DUP3 PUSH1 0x20 DUP4 ADD PUSH2 0x194 JUMP JUMPDEST SWAP3 PUSH2 0x1222 PUSH2 0x120B DUP5 PUSH1 0x40 DUP6 ADD PUSH2 0x3DD JUMP JUMPDEST SWAP4 PUSH2 0x1219 DUP2 PUSH1 0x60 DUP7 ADD PUSH2 0x404 JUMP JUMPDEST SWAP4 PUSH1 0x80 ADD PUSH2 0x404 JUMP JUMPDEST SWAP1 JUMP JUMPDEST PUSH2 0x15E JUMP JUMPDEST CALLVALUE PUSH2 0x125C JUMPI PUSH2 0x1246 PUSH2 0x123D CALLDATASIZE PUSH1 0x4 PUSH2 0x11D3 JUMP JUMPDEST SWAP4 SWAP3 SWAP1 SWAP3 PUSH2 0x3B92 JUMP JUMPDEST PUSH2 0x124E PUSH2 0x153 JUMP JUMPDEST DUP1 PUSH2 0x1258 DUP2 PUSH2 0x490 JUMP JUMPDEST SUB SWAP1 RETURN JUMPDEST PUSH2 0x159 JUMP JUMPDEST PUSH1 0x1 DUP1 PUSH1 0xA0 SHL SUB AND SWAP1 JUMP JUMPDEST PUSH2 0x127C SWAP1 PUSH1 0x8 PUSH2 0x1281 SWAP4 MUL PUSH2 0x7EF JUMP JUMPDEST PUSH2 0x1261 JUMP JUMPDEST SWAP1 JUMP JUMPDEST SWAP1 PUSH2 0x128F SWAP2 SLOAD PUSH2 0x126C JUMP JUMPDEST SWAP1 JUMP JUMPDEST PUSH2 0x129F PUSH1 0x1 PUSH1 0x0 SWAP1 PUSH2 0x1284 JUMP JUMPDEST SWAP1 JUMP JUMPDEST PUSH2 0x12AB SWAP1 PUSH2 0x853 JUMP JUMPDEST SWAP1 JUMP JUMPDEST PUSH2 0x12B7 SWAP1 PUSH2 0x12A2 JUMP JUMPDEST SWAP1 MSTORE JUMP JUMPDEST SWAP2 SWAP1 PUSH2 0x12CF SWAP1 PUSH1 0x0 PUSH1 0x20 DUP6 ADD SWAP5 ADD SWAP1 PUSH2 0x12AE JUMP JUMPDEST JUMP JUMPDEST CALLVALUE PUSH2 0x1301 JUMPI PUSH2 0x12E1 CALLDATASIZE PUSH1 0x4 PUSH2 0x7DF JUMP JUMPDEST PUSH2 0x12FD PUSH2 0x12EC PUSH2 0x1292 JUMP JUMPDEST PUSH2 0x12F4 PUSH2 0x153 JUMP JUMPDEST SWAP2 DUP3 SWAP2 DUP3 PUSH2 0x12BB JUMP JUMPDEST SUB SWAP1 RETURN JUMPDEST PUSH2 0x159 JUMP JUMPDEST SWAP1 PUSH1 0x20 DUP3 DUP3 SUB SLT PUSH2 0x1337 JUMPI PUSH1 0x0 DUP3 ADD CALLDATALOAD PUSH8 0xFFFFFFFFFFFFFFFF DUP2 GT PUSH2 0x1332 JUMPI PUSH2 0x132F SWAP3 ADD PUSH2 0x30C JUMP JUMPDEST SWAP1 JUMP JUMPDEST PUSH2 0x163 JUMP JUMPDEST PUSH2 0x15E JUMP JUMPDEST CALLVALUE PUSH2 0x136C JUMPI PUSH2 0x1368 PUSH2 0x1357 PUSH2 0x1352 CALLDATASIZE PUSH1 0x4 PUSH2 0x1306 JUMP JUMPDEST PUSH2 0x3FF0 JUMP JUMPDEST PUSH2 0x135F PUSH2 0x153 JUMP JUMPDEST SWAP2 DUP3 SWAP2 DUP3 PUSH2 0x1117 JUMP JUMPDEST SUB SWAP1 RETURN JUMPDEST PUSH2 0x159 JUMP JUMPDEST MLOAD SWAP1 JUMP JUMPDEST PUSH1 0x20 SWAP2 DUP2 MSTORE ADD SWAP1 JUMP JUMPDEST PUSH1 0x20 ADD SWAP1 JUMP JUMPDEST SWAP1 PUSH2 0x138E SWAP2 PUSH2 0x610 JUMP JUMPDEST SWAP1 JUMP JUMPDEST PUSH1 0x20 ADD SWAP1 JUMP JUMPDEST SWAP1 PUSH2 0x13AB PUSH2 0x13A4 DUP4 PUSH2 0x1371 JUMP JUMPDEST DUP1 SWAP3 PUSH2 0x1375 JUMP JUMPDEST SWAP1 DUP2 PUSH2 0x13BC PUSH1 0x20 DUP4 MUL DUP5 ADD SWAP5 PUSH2 0x137E JUMP JUMPDEST SWAP3 PUSH1 0x0 SWAP2 JUMPDEST DUP4 DUP4 LT PUSH2 0x13D0 JUMPI POP POP POP POP POP SWAP1 JUMP JUMPDEST SWAP1 SWAP2 SWAP3 SWAP4 SWAP5 PUSH1 0x20 PUSH2 0x13F2 PUSH2 0x13EC DUP4 DUP6 PUSH1 0x1 SWAP6 SUB DUP8 MSTORE DUP10 MLOAD PUSH2 0x1384 JUMP JUMPDEST SWAP8 PUSH2 0x1391 JUMP JUMPDEST SWAP4 ADD SWAP4 ADD SWAP2 SWAP4 SWAP3 SWAP1 PUSH2 0x13C1 JUMP JUMPDEST PUSH2 0x142F SWAP2 PUSH1 0x20 PUSH2 0x141E PUSH1 0x40 DUP4 ADD PUSH1 0x0 DUP6 ADD MLOAD DUP5 DUP3 SUB PUSH1 0x0 DUP7 ADD MSTORE PUSH2 0x1397 JUMP JUMPDEST SWAP3 ADD MLOAD SWAP1 PUSH1 0x20 DUP2 DUP5 SUB SWAP2 ADD MSTORE PUSH2 0x1397 JUMP JUMPDEST SWAP1 JUMP JUMPDEST PUSH2 0x1448 SWAP2 PUSH1 0x20 DUP3 ADD SWAP2 PUSH1 0x0 DUP2 DUP5 SUB SWAP2 ADD MSTORE PUSH2 0x13FF JUMP JUMPDEST SWAP1 JUMP JUMPDEST CALLVALUE PUSH2 0x147B JUMPI PUSH2 0x1477 PUSH2 0x1466 PUSH2 0x1461 CALLDATASIZE PUSH1 0x4 PUSH2 0x1A3 JUMP JUMPDEST PUSH2 0x42DC JUMP JUMPDEST PUSH2 0x146E PUSH2 0x153 JUMP JUMPDEST SWAP2 DUP3 SWAP2 DUP3 PUSH2 0x1432 JUMP JUMPDEST SUB SWAP1 RETURN JUMPDEST PUSH2 0x159 JUMP JUMPDEST PUSH2 0x1489 SWAP1 PUSH2 0x3EC JUMP JUMPDEST SWAP1 MSTORE JUMP JUMPDEST SWAP2 SWAP1 PUSH2 0x14A1 SWAP1 PUSH1 0x0 PUSH1 0x20 DUP6 ADD SWAP5 ADD SWAP1 PUSH2 0x1480 JUMP JUMPDEST JUMP JUMPDEST CALLVALUE PUSH2 0x14D3 JUMPI PUSH2 0x14B3 CALLDATASIZE PUSH1 0x4 PUSH2 0x7DF JUMP JUMPDEST PUSH2 0x14CF PUSH2 0x14BE PUSH2 0x4495 JUMP JUMPDEST PUSH2 0x14C6 PUSH2 0x153 JUMP JUMPDEST SWAP2 DUP3 SWAP2 DUP3 PUSH2 0x148D JUMP JUMPDEST SUB SWAP1 RETURN JUMPDEST PUSH2 0x159 JUMP JUMPDEST PUSH1 0x0 DUP1 REVERT JUMPDEST PUSH1 0x0 SWAP1 JUMP JUMPDEST PUSH1 0x0 SHR SWAP1 JUMP JUMPDEST PUSH2 0x14F4 PUSH2 0x14F9 SWAP2 PUSH2 0x14E2 JUMP JUMPDEST PUSH2 0xF53 JUMP JUMPDEST SWAP1 JUMP JUMPDEST PUSH2 0x1506 SWAP1 SLOAD PUSH2 0x14E8 JUMP JUMPDEST SWAP1 JUMP JUMPDEST PUSH2 0x1520 PUSH2 0x1525 SWAP2 PUSH2 0x1518 PUSH2 0x14DD JUMP JUMPDEST POP PUSH1 0x4 PUSH2 0xF3B JUMP JUMPDEST PUSH2 0x14FC JUMP JUMPDEST SWAP1 JUMP JUMPDEST PUSH2 0x1534 PUSH2 0x1539 SWAP2 PUSH2 0x14E2 JUMP JUMPDEST PUSH2 0x10C9 JUMP JUMPDEST SWAP1 JUMP JUMPDEST PUSH2 0x1546 SWAP1 SLOAD PUSH2 0x1528 JUMP JUMPDEST SWAP1 JUMP JUMPDEST PUSH1 0x20 SWAP2 DUP2 MSTORE ADD SWAP1 JUMP JUMPDEST PUSH1 0x20 PUSH32 0x73616374696F6E73000000000000000000000000000000000000000000000000 SWAP2 PUSH32 0x4F6E6C79206F776E65722063616E2065786563757465206D657461207472616E PUSH1 0x0 DUP3 ADD MSTORE ADD MSTORE JUMP JUMPDEST PUSH2 0x15AD PUSH1 0x28 PUSH1 0x40 SWAP3 PUSH2 0x1549 JUMP JUMPDEST PUSH2 0x15B6 DUP2 PUSH2 0x1552 JUMP JUMPDEST ADD SWAP1 JUMP JUMPDEST PUSH2 0x15D0 SWAP1 PUSH1 0x20 DUP2 ADD SWAP1 PUSH1 0x0 DUP2 DUP4 SUB SWAP2 ADD MSTORE PUSH2 0x15A0 JUMP JUMPDEST SWAP1 JUMP JUMPDEST ISZERO PUSH2 0x15DA JUMPI JUMP JUMPDEST PUSH2 0x15E2 PUSH2 0x153 JUMP JUMPDEST PUSH3 0x461BCD PUSH1 0xE5 SHL DUP2 MSTORE DUP1 PUSH2 0x15F8 PUSH1 0x4 DUP3 ADD PUSH2 0x15BA JUMP JUMPDEST SUB SWAP1 REVERT JUMPDEST PUSH32 0xDDE928008E7F65CDF516157703A7A544D073465C39A99616DD3B5617AC8C3907 SWAP1 JUMP JUMPDEST MLOAD SWAP1 JUMP JUMPDEST PUSH1 0x20 SWAP2 DUP2 MSTORE ADD SWAP1 JUMP JUMPDEST PUSH1 0x20 ADD SWAP1 JUMP JUMPDEST SWAP1 PUSH2 0x163D SWAP2 PUSH2 0x574 JUMP JUMPDEST SWAP1 JUMP JUMPDEST PUSH1 0x20 ADD SWAP1 JUMP JUMPDEST SWAP1 PUSH2 0x165A PUSH2 0x1653 DUP4 PUSH2 0x1620 JUMP JUMPDEST DUP1 SWAP3 PUSH2 0x1624 JUMP JUMPDEST SWAP1 DUP2 PUSH2 0x166B PUSH1 0x20 DUP4 MUL DUP5 ADD SWAP5 PUSH2 0x162D JUMP JUMPDEST SWAP3 PUSH1 0x0 SWAP2 JUMPDEST DUP4 DUP4 LT PUSH2 0x167F JUMPI POP POP POP POP POP SWAP1 JUMP JUMPDEST SWAP1 SWAP2 SWAP3 SWAP4 SWAP5 PUSH1 0x20 PUSH2 0x16A1 PUSH2 0x169B DUP4 DUP6 PUSH1 0x1 SWAP6 SUB DUP8 MSTORE DUP10 MLOAD PUSH2 0x1633 JUMP JUMPDEST SWAP8 PUSH2 0x1640 JUMP JUMPDEST SWAP4 ADD SWAP4 ADD SWAP2 SWAP4 SWAP3 SWAP1 PUSH2 0x1670 JUMP JUMPDEST PUSH2 0x16C4 SWAP2 PUSH1 0x20 DUP3 ADD SWAP2 PUSH1 0x0 DUP2 DUP5 SUB SWAP2 ADD MSTORE PUSH2 0x1646 JUMP JUMPDEST SWAP1 JUMP JUMPDEST PUSH1 0x20 ADD SWAP1 JUMP JUMPDEST MLOAD SWAP1 JUMP JUMPDEST PUSH4 0x4E487B71 PUSH1 0xE0 SHL PUSH1 0x0 MSTORE PUSH1 0x11 PUSH1 0x4 MSTORE PUSH1 0x24 PUSH1 0x0 REVERT JUMPDEST PUSH2 0x16F0 SWAP1 PUSH2 0x1C2 JUMP JUMPDEST PUSH1 0x0 NOT DUP2 EQ PUSH2 0x16FF JUMPI PUSH1 0x1 ADD SWAP1 JUMP JUMPDEST PUSH2 0x16D1 JUMP JUMPDEST PUSH1 0x0 SHL SWAP1 JUMP JUMPDEST SWAP1 PUSH2 0x1717 PUSH1 0x0 NOT SWAP2 PUSH2 0x1704 JUMP JUMPDEST SWAP2 DUP2 NOT AND SWAP2 AND OR SWAP1 JUMP JUMPDEST PUSH2 0x1735 PUSH2 0x1730 PUSH2 0x173A SWAP3 PUSH2 0x1C2 JUMP JUMPDEST PUSH2 0x834 JUMP JUMPDEST PUSH2 0x1C2 JUMP JUMPDEST SWAP1 JUMP JUMPDEST SWAP1 JUMP JUMPDEST SWAP1 PUSH2 0x1755 PUSH2 0x1750 PUSH2 0x175C SWAP3 PUSH2 0x1721 JUMP JUMPDEST PUSH2 0x173D JUMP JUMPDEST DUP3 SLOAD PUSH2 0x170A JUMP JUMPDEST SWAP1 SSTORE JUMP JUMPDEST SWAP1 SWAP6 SWAP5 SWAP3 PUSH2 0x17AC SWAP5 PUSH2 0x179B PUSH2 0x17A5 SWAP3 PUSH2 0x1791 PUSH1 0x80 SWAP7 PUSH2 0x1787 PUSH1 0xA0 DUP9 ADD SWAP13 PUSH1 0x0 DUP10 ADD SWAP1 PUSH2 0x1480 JUMP JUMPDEST PUSH1 0x20 DUP8 ADD SWAP1 PUSH2 0x110A JUMP JUMPDEST PUSH1 0x40 DUP6 ADD SWAP1 PUSH2 0x110A JUMP JUMPDEST PUSH1 0x60 DUP4 ADD SWAP1 PUSH2 0x1480 JUMP JUMPDEST ADD SWAP1 PUSH2 0x1C5 JUMP JUMPDEST JUMP JUMPDEST SWAP1 POP SWAP1 JUMP JUMPDEST PUSH1 0x0 PUSH2 0x1901 PUSH1 0xF0 SHL SWAP2 ADD MSTORE JUMP JUMPDEST PUSH2 0x17CC PUSH1 0x2 DUP1 SWAP3 PUSH2 0x17AE JUMP JUMPDEST PUSH2 0x17D5 DUP2 PUSH2 0x17B3 JUMP JUMPDEST ADD SWAP1 JUMP JUMPDEST SWAP1 JUMP JUMPDEST PUSH2 0x17E8 PUSH2 0x17ED SWAP2 PUSH2 0x3EC JUMP JUMPDEST PUSH2 0x17D9 JUMP JUMPDEST SWAP1 MSTORE JUMP JUMPDEST PUSH1 0x20 DUP1 SWAP4 SWAP3 PUSH2 0x180C PUSH2 0x1805 PUSH2 0x1814 SWAP5 PUSH2 0x17C0 JUMP JUMPDEST DUP1 SWAP3 PUSH2 0x17DC JUMP JUMPDEST ADD DUP1 SWAP3 PUSH2 0x17DC JUMP JUMPDEST ADD SWAP1 JUMP JUMPDEST PUSH2 0x1821 SWAP1 PUSH2 0x3C2 JUMP JUMPDEST SWAP1 MSTORE JUMP JUMPDEST PUSH2 0x185B PUSH2 0x1862 SWAP5 PUSH2 0x1851 PUSH1 0x60 SWAP5 SWAP9 SWAP8 SWAP6 PUSH2 0x1847 PUSH1 0x80 DUP7 ADD SWAP11 PUSH1 0x0 DUP8 ADD SWAP1 PUSH2 0x1480 JUMP JUMPDEST PUSH1 0x20 DUP6 ADD SWAP1 PUSH2 0x1818 JUMP JUMPDEST PUSH1 0x40 DUP4 ADD SWAP1 PUSH2 0x1480 JUMP JUMPDEST ADD SWAP1 PUSH2 0x1480 JUMP JUMPDEST JUMP JUMPDEST PUSH2 0x186C PUSH2 0x153 JUMP JUMPDEST RETURNDATASIZE PUSH1 0x0 DUP3 RETURNDATACOPY RETURNDATASIZE SWAP1 REVERT JUMPDEST PUSH1 0x0 PUSH32 0x496E76616C6964207369676E6174757265000000000000000000000000000000 SWAP2 ADD MSTORE JUMP JUMPDEST PUSH2 0x18AA PUSH1 0x11 PUSH1 0x20 SWAP3 PUSH2 0x1549 JUMP JUMPDEST PUSH2 0x18B3 DUP2 PUSH2 0x1875 JUMP JUMPDEST ADD SWAP1 JUMP JUMPDEST PUSH2 0x18CD SWAP1 PUSH1 0x20 DUP2 ADD SWAP1 PUSH1 0x0 DUP2 DUP4 SUB SWAP2 ADD MSTORE PUSH2 0x189D JUMP JUMPDEST SWAP1 JUMP JUMPDEST ISZERO PUSH2 0x18D7 JUMPI JUMP JUMPDEST PUSH2 0x18DF PUSH2 0x153 JUMP JUMPDEST PUSH3 0x461BCD PUSH1 0xE5 SHL DUP2 MSTORE DUP1 PUSH2 0x18F5 PUSH1 0x4 DUP3 ADD PUSH2 0x18B7 JUMP JUMPDEST SUB SWAP1 REVERT JUMPDEST PUSH2 0x1905 PUSH2 0x190A SWAP2 PUSH2 0x14E2 JUMP JUMPDEST PUSH2 0x7F3 JUMP JUMPDEST SWAP1 JUMP JUMPDEST PUSH2 0x1917 SWAP1 SLOAD PUSH2 0x18F9 JUMP JUMPDEST SWAP1 JUMP JUMPDEST PUSH1 0x0 DUP1 REVERT JUMPDEST PUSH1 0xE0 SHL SWAP1 JUMP JUMPDEST PUSH1 0x0 SWAP2 SUB SLT PUSH2 0x1930 JUMPI JUMP JUMPDEST PUSH2 0x15E JUMP JUMPDEST SWAP2 PUSH2 0x1959 SWAP3 PUSH2 0x194C PUSH1 0x40 DUP3 ADD SWAP4 PUSH1 0x0 DUP4 ADD SWAP1 PUSH2 0x110A JUMP JUMPDEST PUSH1 0x20 DUP2 DUP5 SUB SWAP2 ADD MSTORE PUSH2 0x1646 JUMP JUMPDEST SWAP1 JUMP JUMPDEST SWAP3 SWAP4 PUSH1 0x0 SWAP2 SWAP5 PUSH2 0x1A93 PUSH1 0x20 SWAP5 SWAP8 PUSH2 0x198E CALLER PUSH2 0x1988 PUSH2 0x1982 PUSH2 0x197D PUSH1 0x3 PUSH2 0x153C JUMP JUMPDEST PUSH2 0x173 JUMP JUMPDEST SWAP2 PUSH2 0x173 JUMP JUMPDEST EQ PUSH2 0x15D3 JUMP JUMPDEST PUSH2 0x1996 PUSH2 0x4495 JUMP JUMPDEST PUSH2 0x1A6D DUP10 PUSH2 0x1A35 DUP13 PUSH2 0x1A27 PUSH2 0x19A9 PUSH2 0x15FC JUMP JUMPDEST SWAP2 DUP14 PUSH2 0x19F6 PUSH2 0x19CC PUSH2 0x19DB DUP4 SWAP9 SWAP5 PUSH2 0x19BF PUSH2 0x153 JUMP JUMPDEST SWAP3 PUSH1 0x20 SWAP2 DUP5 SWAP3 DUP4 ADD PUSH2 0x16AE JUMP JUMPDEST PUSH1 0x20 DUP3 ADD DUP2 SUB DUP3 MSTORE SUB DUP3 PUSH2 0x242 JUMP JUMPDEST PUSH2 0x19ED PUSH2 0x19E7 DUP3 PUSH2 0x16CD JUMP JUMPDEST SWAP2 PUSH2 0x16C7 JUMP JUMPDEST KECCAK256 SWAP2 PUSH1 0x4 PUSH2 0xF3B JUMP JUMPDEST PUSH2 0x1A12 PUSH2 0x1A02 DUP3 PUSH2 0x14FC JUMP JUMPDEST SWAP2 PUSH2 0x1A0C DUP4 PUSH2 0x16E7 JUMP JUMPDEST SWAP1 PUSH2 0x1740 JUMP JUMPDEST SWAP2 PUSH2 0x1A1B PUSH2 0x153 JUMP JUMPDEST SWAP7 DUP16 SWAP6 DUP9 SWAP7 DUP8 ADD PUSH2 0x1760 JUMP JUMPDEST DUP12 DUP3 ADD DUP2 SUB DUP3 MSTORE SUB DUP3 PUSH2 0x242 JUMP JUMPDEST PUSH2 0x1A47 PUSH2 0x1A41 DUP3 PUSH2 0x16CD JUMP JUMPDEST SWAP2 PUSH2 0x16C7 JUMP JUMPDEST KECCAK256 SWAP2 PUSH2 0x1A5F PUSH2 0x1A54 PUSH2 0x153 JUMP JUMPDEST SWAP4 DUP5 SWAP3 DUP12 DUP5 ADD PUSH2 0x17F1 JUMP JUMPDEST DUP10 DUP3 ADD DUP2 SUB DUP3 MSTORE SUB DUP3 PUSH2 0x242 JUMP JUMPDEST PUSH2 0x1A7F PUSH2 0x1A79 DUP3 PUSH2 0x16CD JUMP JUMPDEST SWAP2 PUSH2 0x16C7 JUMP JUMPDEST KECCAK256 SWAP3 SWAP4 PUSH2 0x1A8A PUSH2 0x153 JUMP JUMPDEST SWAP5 DUP6 SWAP5 DUP6 PUSH2 0x1825 JUMP JUMPDEST DUP4 DUP1 MSTORE SUB SWAP1 PUSH1 0x1 GAS STATICCALL ISZERO PUSH2 0x1B5C JUMPI PUSH2 0x1AC8 SWAP1 PUSH2 0x1AC2 PUSH2 0x1ABC PUSH2 0x1AB6 PUSH1 0x0 MLOAD PUSH2 0x1704 JUMP JUMPDEST SWAP3 PUSH2 0x173 JUMP JUMPDEST SWAP2 PUSH2 0x173 JUMP JUMPDEST EQ PUSH2 0x18D0 JUMP JUMPDEST PUSH2 0x1ADA PUSH2 0x1AD5 PUSH1 0x2 PUSH2 0x190D JUMP JUMPDEST PUSH2 0x85F JUMP JUMPDEST SWAP2 PUSH4 0x647A6682 SWAP2 SWAP1 SWAP3 DUP1 EXTCODESIZE ISZERO PUSH2 0x1B57 JUMPI PUSH2 0x1B08 PUSH1 0x0 DUP1 SWAP5 PUSH2 0x1B13 PUSH2 0x1AFC PUSH2 0x153 JUMP JUMPDEST SWAP8 DUP9 SWAP7 DUP8 SWAP6 DUP7 SWAP5 PUSH2 0x191F JUMP JUMPDEST DUP5 MSTORE PUSH1 0x4 DUP5 ADD PUSH2 0x1935 JUMP JUMPDEST SUB SWAP3 GAS CALL DUP1 ISZERO PUSH2 0x1B52 JUMPI PUSH2 0x1B25 JUMPI JUMPDEST POP JUMP JUMPDEST PUSH2 0x1B45 SWAP1 PUSH1 0x0 RETURNDATASIZE DUP2 GT PUSH2 0x1B4B JUMPI JUMPDEST PUSH2 0x1B3D DUP2 DUP4 PUSH2 0x242 JUMP JUMPDEST DUP2 ADD SWAP1 PUSH2 0x1925 JUMP JUMPDEST CODESIZE PUSH2 0x1B22 JUMP JUMPDEST POP RETURNDATASIZE PUSH2 0x1B33 JUMP JUMPDEST PUSH2 0x1864 JUMP JUMPDEST PUSH2 0x191A JUMP JUMPDEST PUSH2 0x1864 JUMP JUMPDEST PUSH1 0x60 SWAP1 JUMP JUMPDEST PUSH8 0xFFFFFFFFFFFFFFFF DUP2 GT PUSH2 0x1B7E JUMPI PUSH1 0x20 DUP1 SWAP2 MUL ADD SWAP1 JUMP JUMPDEST PUSH2 0x22C JUMP JUMPDEST PUSH1 0x0 DUP1 REVERT JUMPDEST PUSH1 0x0 DUP1 REVERT JUMPDEST SWAP1 POP MLOAD SWAP1 PUSH2 0x1B9A DUP3 PUSH2 0x3C8 JUMP JUMPDEST JUMP JUMPDEST SWAP1 SWAP3 SWAP2 SWAP3 PUSH2 0x1BB1 PUSH2 0x1BAC DUP3 PUSH2 0x2A7 JUMP JUMPDEST PUSH2 0x26B JUMP JUMPDEST SWAP4 DUP2 DUP6 MSTORE PUSH1 0x20 DUP6 ADD SWAP1 DUP3 DUP5 ADD GT PUSH2 0x1BCD JUMPI PUSH2 0x1BCB SWAP3 PUSH2 0x54F JUMP JUMPDEST JUMP JUMPDEST PUSH2 0x2A2 JUMP JUMPDEST SWAP1 DUP1 PUSH1 0x1F DUP4 ADD SLT ISZERO PUSH2 0x1BF0 JUMPI DUP2 PUSH1 0x20 PUSH2 0x1BED SWAP4 MLOAD SWAP2 ADD PUSH2 0x1B9C JUMP JUMPDEST SWAP1 JUMP JUMPDEST PUSH2 0x21D JUMP JUMPDEST SWAP1 POP MLOAD SWAP1 PUSH2 0x1C02 DUP3 PUSH2 0xAFA JUMP JUMPDEST JUMP JUMPDEST SWAP1 POP MLOAD SWAP1 PUSH2 0x1C11 DUP3 PUSH2 0x4D0 JUMP JUMPDEST JUMP JUMPDEST PUSH1 0x2 GT ISZERO PUSH2 0x1C1D JUMPI JUMP JUMPDEST PUSH1 0x0 DUP1 REVERT JUMPDEST SWAP1 POP MLOAD SWAP1 PUSH2 0x1C2F DUP3 PUSH2 0x1C13 JUMP JUMPDEST JUMP JUMPDEST SWAP2 SWAP1 SWAP2 PUSH2 0x140 DUP2 DUP5 SUB SLT PUSH2 0x1D34 JUMPI PUSH2 0x1C4A PUSH2 0x140 PUSH2 0x26B JUMP JUMPDEST SWAP3 PUSH2 0x1C58 DUP2 PUSH1 0x0 DUP5 ADD PUSH2 0x1B8D JUMP JUMPDEST PUSH1 0x0 DUP6 ADD MSTORE PUSH1 0x20 DUP3 ADD MLOAD PUSH8 0xFFFFFFFFFFFFFFFF DUP2 GT PUSH2 0x1D2F JUMPI DUP2 PUSH2 0x1C7D SWAP2 DUP5 ADD PUSH2 0x1BD2 JUMP JUMPDEST PUSH1 0x20 DUP6 ADD MSTORE PUSH1 0x40 DUP3 ADD MLOAD SWAP2 PUSH8 0xFFFFFFFFFFFFFFFF DUP4 GT PUSH2 0x1D2A JUMPI PUSH2 0x1CA6 DUP3 PUSH2 0x1D22 SWAP5 DUP4 ADD PUSH2 0x1BD2 JUMP JUMPDEST PUSH1 0x40 DUP7 ADD MSTORE PUSH2 0x1CB8 DUP3 PUSH1 0x60 DUP4 ADD PUSH2 0x1B8D JUMP JUMPDEST PUSH1 0x60 DUP7 ADD MSTORE PUSH2 0x1CCA DUP3 PUSH1 0x80 DUP4 ADD PUSH2 0x1BF5 JUMP JUMPDEST PUSH1 0x80 DUP7 ADD MSTORE PUSH2 0x1CDC DUP3 PUSH1 0xA0 DUP4 ADD PUSH2 0x1BF5 JUMP JUMPDEST PUSH1 0xA0 DUP7 ADD MSTORE PUSH2 0x1CEE DUP3 PUSH1 0xC0 DUP4 ADD PUSH2 0x1C04 JUMP JUMPDEST PUSH1 0xC0 DUP7 ADD MSTORE PUSH2 0x1D00 DUP3 PUSH1 0xE0 DUP4 ADD PUSH2 0x1C04 JUMP JUMPDEST PUSH1 0xE0 DUP7 ADD MSTORE PUSH2 0x1D13 DUP3 PUSH2 0x100 DUP4 ADD PUSH2 0x1C22 JUMP JUMPDEST PUSH2 0x100 DUP7 ADD MSTORE PUSH2 0x120 ADD PUSH2 0x1C04 JUMP JUMPDEST PUSH2 0x120 DUP4 ADD MSTORE JUMP JUMPDEST PUSH2 0x1B88 JUMP JUMPDEST PUSH2 0x1B88 JUMP JUMPDEST PUSH2 0x1B83 JUMP JUMPDEST PUSH2 0x1D42 DUP2 PUSH2 0x6D6 JUMP JUMPDEST SUB PUSH2 0x1D49 JUMPI JUMP JUMPDEST PUSH1 0x0 DUP1 REVERT JUMPDEST SWAP1 POP MLOAD SWAP1 PUSH2 0x1D5B DUP3 PUSH2 0x1D39 JUMP JUMPDEST JUMP JUMPDEST SWAP2 SWAP1 SWAP2 PUSH1 0x40 DUP2 DUP5 SUB SLT PUSH2 0x1DB2 JUMPI PUSH2 0x1D74 PUSH1 0x40 PUSH2 0x26B JUMP JUMPDEST SWAP3 PUSH1 0x0 DUP3 ADD MLOAD SWAP2 PUSH8 0xFFFFFFFFFFFFFFFF DUP4 GT PUSH2 0x1DAD JUMPI PUSH2 0x1D99 DUP3 PUSH2 0x1DA6 SWAP5 DUP4 ADD PUSH2 0x1C31 JUMP JUMPDEST PUSH1 0x0 DUP7 ADD MSTORE PUSH1 0x20 ADD PUSH2 0x1D4E JUMP JUMPDEST PUSH1 0x20 DUP4 ADD MSTORE JUMP JUMPDEST PUSH2 0x1B88 JUMP JUMPDEST PUSH2 0x1B83 JUMP JUMPDEST SWAP3 SWAP2 SWAP1 PUSH2 0x1DCB PUSH2 0x1DC6 DUP3 PUSH2 0x1B66 JUMP JUMPDEST PUSH2 0x26B JUMP JUMPDEST SWAP4 DUP2 DUP6 MSTORE PUSH1 0x20 DUP1 DUP7 ADD SWAP3 MUL DUP2 ADD SWAP2 DUP4 DUP4 GT PUSH2 0x1E22 JUMPI DUP2 SWAP1 JUMPDEST DUP4 DUP3 LT PUSH2 0x1DF1 JUMPI POP POP POP POP POP JUMP JUMPDEST DUP2 MLOAD PUSH8 0xFFFFFFFFFFFFFFFF DUP2 GT PUSH2 0x1E1D JUMPI PUSH1 0x20 SWAP2 PUSH2 0x1E12 DUP8 DUP5 SWAP4 DUP8 ADD PUSH2 0x1D5D JUMP JUMPDEST DUP2 MSTORE ADD SWAP2 ADD SWAP1 PUSH2 0x1DE3 JUMP JUMPDEST PUSH2 0x21D JUMP JUMPDEST PUSH2 0x29D JUMP JUMPDEST SWAP1 DUP1 PUSH1 0x1F DUP4 ADD SLT ISZERO PUSH2 0x1E45 JUMPI DUP2 PUSH1 0x20 PUSH2 0x1E42 SWAP4 MLOAD SWAP2 ADD PUSH2 0x1DB7 JUMP JUMPDEST SWAP1 JUMP JUMPDEST PUSH2 0x21D JUMP JUMPDEST SWAP1 PUSH1 0x20 DUP3 DUP3 SUB SLT PUSH2 0x1E7B JUMPI PUSH1 0x0 DUP3 ADD MLOAD PUSH8 0xFFFFFFFFFFFFFFFF DUP2 GT PUSH2 0x1E76 JUMPI PUSH2 0x1E73 SWAP3 ADD PUSH2 0x1E27 JUMP JUMPDEST SWAP1 JUMP JUMPDEST PUSH2 0x163 JUMP JUMPDEST PUSH2 0x15E JUMP JUMPDEST SWAP2 PUSH1 0x20 PUSH2 0x1EA2 SWAP3 SWAP5 SWAP4 PUSH2 0x1E9B PUSH1 0x40 DUP3 ADD SWAP7 PUSH1 0x0 DUP4 ADD SWAP1 PUSH2 0x110A JUMP JUMPDEST ADD SWAP1 PUSH2 0x1C5 JUMP JUMPDEST JUMP JUMPDEST SWAP1 PUSH1 0x0 SWAP1 PUSH2 0x1EB0 PUSH2 0x1B61 JUMP JUMPDEST POP PUSH2 0x1EC3 PUSH2 0x1EBE PUSH1 0x2 PUSH2 0x190D JUMP JUMPDEST PUSH2 0x85F JUMP JUMPDEST PUSH2 0x1EE5 PUSH4 0x375FFC73 SWAP5 SWAP3 SWAP5 PUSH2 0x1EF0 PUSH2 0x1ED9 PUSH2 0x153 JUMP JUMPDEST SWAP7 DUP8 SWAP6 DUP7 SWAP5 DUP6 SWAP5 PUSH2 0x191F JUMP JUMPDEST DUP5 MSTORE PUSH1 0x4 DUP5 ADD PUSH2 0x1E80 JUMP JUMPDEST SUB SWAP2 GAS STATICCALL SWAP1 DUP2 ISZERO PUSH2 0x1F2A JUMPI PUSH1 0x0 SWAP2 PUSH2 0x1F07 JUMPI JUMPDEST POP SWAP1 JUMP JUMPDEST PUSH2 0x1F24 SWAP2 POP RETURNDATASIZE DUP1 PUSH1 0x0 DUP4 RETURNDATACOPY PUSH2 0x1F1C DUP2 DUP4 PUSH2 0x242 JUMP JUMPDEST DUP2 ADD SWAP1 PUSH2 0x1E4A JUMP JUMPDEST CODESIZE PUSH2 0x1F03 JUMP JUMPDEST PUSH2 0x1864 JUMP JUMPDEST PUSH1 0x60 SWAP1 JUMP JUMPDEST PUSH2 0x1F40 PUSH2 0x1F45 SWAP2 PUSH2 0x14E2 JUMP JUMPDEST PUSH2 0x1261 JUMP JUMPDEST SWAP1 JUMP JUMPDEST PUSH2 0x1F52 SWAP1 SLOAD PUSH2 0x1F34 JUMP JUMPDEST SWAP1 JUMP JUMPDEST PUSH8 0xFFFFFFFFFFFFFFFF DUP2 GT PUSH2 0x1F6D JUMPI PUSH1 0x20 DUP1 SWAP2 MUL ADD SWAP1 JUMP JUMPDEST PUSH2 0x22C JUMP JUMPDEST SWAP1 POP MLOAD SWAP1 PUSH2 0x1F7F DUP3 PUSH2 0xBC9 JUMP JUMPDEST JUMP JUMPDEST SWAP2 SWAP1 SWAP2 PUSH1 0xC0 DUP2 DUP5 SUB SLT PUSH2 0x207D JUMPI PUSH2 0x1F98 PUSH1 0xC0 PUSH2 0x26B JUMP JUMPDEST SWAP3 PUSH2 0x1FA6 DUP2 PUSH1 0x0 DUP5 ADD PUSH2 0x1F72 JUMP JUMPDEST PUSH1 0x0 DUP6 ADD MSTORE PUSH1 0x20 DUP3 ADD MLOAD PUSH8 0xFFFFFFFFFFFFFFFF DUP2 GT PUSH2 0x2078 JUMPI DUP2 PUSH2 0x1FCB SWAP2 DUP5 ADD PUSH2 0x1BD2 JUMP JUMPDEST PUSH1 0x20 DUP6 ADD MSTORE PUSH1 0x40 DUP3 ADD MLOAD PUSH8 0xFFFFFFFFFFFFFFFF DUP2 GT PUSH2 0x2073 JUMPI DUP2 PUSH2 0x1FF0 SWAP2 DUP5 ADD PUSH2 0x1BD2 JUMP JUMPDEST PUSH1 0x40 DUP6 ADD MSTORE PUSH1 0x60 DUP3 ADD MLOAD PUSH8 0xFFFFFFFFFFFFFFFF DUP2 GT PUSH2 0x206E JUMPI DUP2 PUSH2 0x2015 SWAP2 DUP5 ADD PUSH2 0x1BD2 JUMP JUMPDEST PUSH1 0x60 DUP6 ADD MSTORE PUSH1 0x80 DUP3 ADD MLOAD PUSH8 0xFFFFFFFFFFFFFFFF DUP2 GT PUSH2 0x2069 JUMPI DUP2 PUSH2 0x203A SWAP2 DUP5 ADD PUSH2 0x1BD2 JUMP JUMPDEST PUSH1 0x80 DUP6 ADD MSTORE PUSH1 0xA0 DUP3 ADD MLOAD PUSH8 0xFFFFFFFFFFFFFFFF DUP2 GT PUSH2 0x2064 JUMPI PUSH2 0x205D SWAP3 ADD PUSH2 0x1BD2 JUMP JUMPDEST PUSH1 0xA0 DUP4 ADD MSTORE JUMP JUMPDEST PUSH2 0x1B88 JUMP JUMPDEST PUSH2 0x1B88 JUMP JUMPDEST PUSH2 0x1B88 JUMP JUMPDEST PUSH2 0x1B88 JUMP JUMPDEST PUSH2 0x1B88 JUMP JUMPDEST PUSH2 0x1B83 JUMP JUMPDEST SWAP3 SWAP2 SWAP1 PUSH2 0x2096 PUSH2 0x2091 DUP3 PUSH2 0x1F55 JUMP JUMPDEST PUSH2 0x26B JUMP JUMPDEST SWAP4 DUP2 DUP6 MSTORE PUSH1 0x20 DUP1 DUP7 ADD SWAP3 MUL DUP2 ADD SWAP2 DUP4 DUP4 GT PUSH2 0x20ED JUMPI DUP2 SWAP1 JUMPDEST DUP4 DUP3 LT PUSH2 0x20BC JUMPI POP POP POP POP POP JUMP JUMPDEST DUP2 MLOAD PUSH8 0xFFFFFFFFFFFFFFFF DUP2 GT PUSH2 0x20E8 JUMPI PUSH1 0x20 SWAP2 PUSH2 0x20DD DUP8 DUP5 SWAP4 DUP8 ADD PUSH2 0x1F81 JUMP JUMPDEST DUP2 MSTORE ADD SWAP2 ADD SWAP1 PUSH2 0x20AE JUMP JUMPDEST PUSH2 0x21D JUMP JUMPDEST PUSH2 0x29D JUMP JUMPDEST SWAP1 DUP1 PUSH1 0x1F DUP4 ADD SLT ISZERO PUSH2 0x2110 JUMPI DUP2 PUSH1 0x20 PUSH2 0x210D SWAP4 MLOAD SWAP2 ADD PUSH2 0x2082 JUMP JUMPDEST SWAP1 JUMP JUMPDEST PUSH2 0x21D JUMP JUMPDEST SWAP1 PUSH1 0x20 DUP3 DUP3 SUB SLT PUSH2 0x2146 JUMPI PUSH1 0x0 DUP3 ADD MLOAD PUSH8 0xFFFFFFFFFFFFFFFF DUP2 GT PUSH2 0x2141 JUMPI PUSH2 0x213E SWAP3 ADD PUSH2 0x20F2 JUMP JUMPDEST SWAP1 JUMP JUMPDEST PUSH2 0x163 JUMP JUMPDEST PUSH2 0x15E JUMP JUMPDEST PUSH1 0x0 PUSH2 0x2193 SWAP2 PUSH2 0x2159 PUSH2 0x1F2F JUMP JUMPDEST POP PUSH2 0x216C PUSH2 0x2167 PUSH1 0x1 PUSH2 0x1F48 JUMP JUMPDEST PUSH2 0x12A2 JUMP JUMPDEST PUSH2 0x2188 PUSH4 0xB226187C PUSH2 0x217C PUSH2 0x153 JUMP JUMPDEST SWAP6 DUP7 SWAP5 DUP6 SWAP4 DUP5 SWAP4 PUSH2 0x191F JUMP JUMPDEST DUP4 MSTORE PUSH1 0x4 DUP4 ADD PUSH2 0x1117 JUMP JUMPDEST SUB SWAP2 GAS STATICCALL SWAP1 DUP2 ISZERO PUSH2 0x21CD JUMPI PUSH1 0x0 SWAP2 PUSH2 0x21AA JUMPI JUMPDEST POP SWAP1 JUMP JUMPDEST PUSH2 0x21C7 SWAP2 POP RETURNDATASIZE DUP1 PUSH1 0x0 DUP4 RETURNDATACOPY PUSH2 0x21BF DUP2 DUP4 PUSH2 0x242 JUMP JUMPDEST DUP2 ADD SWAP1 PUSH2 0x2115 JUMP JUMPDEST CODESIZE PUSH2 0x21A6 JUMP JUMPDEST PUSH2 0x1864 JUMP JUMPDEST PUSH32 0xD3E8853FF580E63C96FFB51F99AA93A062DE0B320B5427BCC35F76F5FD9B216A SWAP1 JUMP JUMPDEST PUSH2 0x21FF SWAP1 PUSH2 0x5A5 JUMP JUMPDEST SWAP1 MSTORE JUMP JUMPDEST SWAP2 SWAP5 PUSH2 0x224C PUSH2 0x2256 SWAP3 SWAP9 SWAP8 SWAP6 PUSH2 0x2242 PUSH1 0xA0 SWAP7 PUSH2 0x2238 PUSH2 0x225D SWAP11 PUSH2 0x222E PUSH1 0xC0 DUP11 ADD SWAP15 PUSH1 0x0 DUP12 ADD SWAP1 PUSH2 0x1480 JUMP JUMPDEST PUSH1 0x20 DUP10 ADD SWAP1 PUSH2 0x110A JUMP JUMPDEST PUSH1 0x40 DUP8 ADD SWAP1 PUSH2 0x110A JUMP JUMPDEST PUSH1 0x60 DUP6 ADD SWAP1 PUSH2 0x21F6 JUMP JUMPDEST PUSH1 0x80 DUP4 ADD SWAP1 PUSH2 0x21F6 JUMP JUMPDEST ADD SWAP1 PUSH2 0x1C5 JUMP JUMPDEST JUMP JUMPDEST PUSH2 0x2269 PUSH1 0x40 PUSH2 0x26B JUMP JUMPDEST SWAP1 JUMP JUMPDEST SWAP1 PUSH2 0x2276 SWAP1 PUSH2 0x5A5 JUMP JUMPDEST SWAP1 MSTORE JUMP JUMPDEST PUSH2 0x2286 PUSH2 0x228B SWAP2 PUSH2 0x14E2 JUMP JUMPDEST PUSH2 0x8C3 JUMP JUMPDEST SWAP1 JUMP JUMPDEST PUSH2 0x2298 SWAP1 SLOAD PUSH2 0x227A JUMP JUMPDEST SWAP1 JUMP JUMPDEST SWAP2 PUSH1 0x20 PUSH2 0x22BD SWAP3 SWAP5 SWAP4 PUSH2 0x22B6 PUSH1 0x60 DUP3 ADD SWAP7 PUSH1 0x0 DUP4 ADD SWAP1 PUSH2 0x110A JUMP JUMPDEST ADD SWAP1 PUSH2 0x1162 JUMP JUMPDEST JUMP JUMPDEST SWAP4 SWAP5 PUSH1 0x20 SWAP3 SWAP4 SWAP6 PUSH2 0x23BE PUSH1 0x0 SWAP4 SWAP9 PUSH2 0x22F2 CALLER PUSH2 0x22EC PUSH2 0x22E6 PUSH2 0x22E1 PUSH1 0x3 PUSH2 0x153C JUMP JUMPDEST PUSH2 0x173 JUMP JUMPDEST SWAP2 PUSH2 0x173 JUMP JUMPDEST EQ PUSH2 0x15D3 JUMP JUMPDEST DUP8 PUSH2 0x2398 DUP12 PUSH2 0x2360 DUP13 PUSH2 0x2352 DUP13 PUSH2 0x2307 PUSH2 0x4495 JUMP JUMPDEST SWAP7 PUSH2 0x2310 PUSH2 0x21D2 JUMP JUMPDEST SWAP4 PUSH2 0x2320 DUP3 SWAP8 SWAP4 SWAP2 SWAP3 PUSH1 0x4 PUSH2 0xF3B JUMP JUMPDEST PUSH2 0x233C PUSH2 0x232C DUP3 PUSH2 0x14FC JUMP JUMPDEST SWAP2 PUSH2 0x2336 DUP4 PUSH2 0x16E7 JUMP JUMPDEST SWAP1 PUSH2 0x1740 JUMP JUMPDEST SWAP3 PUSH2 0x2345 PUSH2 0x153 JUMP JUMPDEST SWAP8 PUSH1 0x20 SWAP7 DUP10 SWAP8 DUP9 ADD PUSH2 0x2203 JUMP JUMPDEST DUP12 DUP3 ADD DUP2 SUB DUP3 MSTORE SUB DUP3 PUSH2 0x242 JUMP JUMPDEST PUSH2 0x2372 PUSH2 0x236C DUP3 PUSH2 0x16CD JUMP JUMPDEST SWAP2 PUSH2 0x16C7 JUMP JUMPDEST KECCAK256 SWAP2 PUSH2 0x238A PUSH2 0x237F PUSH2 0x153 JUMP JUMPDEST SWAP4 DUP5 SWAP3 DUP12 DUP5 ADD PUSH2 0x17F1 JUMP JUMPDEST DUP10 DUP3 ADD DUP2 SUB DUP3 MSTORE SUB DUP3 PUSH2 0x242 JUMP JUMPDEST PUSH2 0x23AA PUSH2 0x23A4 DUP3 PUSH2 0x16CD JUMP JUMPDEST SWAP2 PUSH2 0x16C7 JUMP JUMPDEST KECCAK256 SWAP3 SWAP4 PUSH2 0x23B5 PUSH2 0x153 JUMP JUMPDEST SWAP5 DUP6 SWAP5 DUP6 PUSH2 0x1825 JUMP JUMPDEST DUP4 DUP1 MSTORE SUB SWAP1 PUSH1 0x1 GAS STATICCALL ISZERO PUSH2 0x24AA JUMPI PUSH2 0x23F6 PUSH2 0x2415 SWAP3 PUSH2 0x23F0 PUSH2 0x23EA PUSH2 0x23E4 PUSH1 0x0 MLOAD PUSH2 0x1704 JUMP JUMPDEST SWAP3 PUSH2 0x173 JUMP JUMPDEST SWAP2 PUSH2 0x173 JUMP JUMPDEST EQ PUSH2 0x18D0 JUMP JUMPDEST SWAP2 PUSH2 0x240C PUSH2 0x2402 PUSH2 0x225F JUMP JUMPDEST SWAP4 PUSH1 0x0 DUP6 ADD PUSH2 0x226C JUMP JUMPDEST PUSH1 0x20 DUP4 ADD PUSH2 0x226C JUMP JUMPDEST SWAP1 PUSH2 0x2428 PUSH2 0x2423 PUSH1 0x0 PUSH2 0x228E JUMP JUMPDEST PUSH2 0x902 JUMP JUMPDEST SWAP2 PUSH4 0xFEF28772 SWAP2 SWAP1 SWAP3 DUP1 EXTCODESIZE ISZERO PUSH2 0x24A5 JUMPI PUSH2 0x2456 PUSH1 0x0 DUP1 SWAP5 PUSH2 0x2461 PUSH2 0x244A PUSH2 0x153 JUMP JUMPDEST SWAP8 DUP9 SWAP7 DUP8 SWAP6 DUP7 SWAP5 PUSH2 0x191F JUMP JUMPDEST DUP5 MSTORE PUSH1 0x4 DUP5 ADD PUSH2 0x229B JUMP JUMPDEST SUB SWAP3 GAS CALL DUP1 ISZERO PUSH2 0x24A0 JUMPI PUSH2 0x2473 JUMPI JUMPDEST POP JUMP JUMPDEST PUSH2 0x2493 SWAP1 PUSH1 0x0 RETURNDATASIZE DUP2 GT PUSH2 0x2499 JUMPI JUMPDEST PUSH2 0x248B DUP2 DUP4 PUSH2 0x242 JUMP JUMPDEST DUP2 ADD SWAP1 PUSH2 0x1925 JUMP JUMPDEST CODESIZE PUSH2 0x2470 JUMP JUMPDEST POP RETURNDATASIZE PUSH2 0x2481 JUMP JUMPDEST PUSH2 0x1864 JUMP JUMPDEST PUSH2 0x191A JUMP JUMPDEST PUSH2 0x1864 JUMP JUMPDEST PUSH32 0x4E5BBDA4C8F0FBD0CAEEBB5B407058204DD2F7560F21E72E14EDEBE045328839 SWAP1 JUMP JUMPDEST SWAP1 JUMP JUMPDEST SWAP8 SWAP6 SWAP4 SWAP2 SWAP11 SWAP10 SWAP9 SWAP7 SWAP5 SWAP3 SWAP1 SWAP11 PUSH2 0x140 DUP10 ADD SWAP12 PUSH1 0x0 DUP11 ADD PUSH2 0x24F5 SWAP2 PUSH2 0x1480 JUMP JUMPDEST PUSH1 0x20 DUP10 ADD PUSH2 0x2502 SWAP2 PUSH2 0x110A JUMP JUMPDEST PUSH1 0x40 DUP9 ADD PUSH2 0x250F SWAP2 PUSH2 0x110A JUMP JUMPDEST PUSH1 0x60 DUP8 ADD PUSH2 0x251C SWAP2 PUSH2 0x1818 JUMP JUMPDEST PUSH1 0x80 DUP7 ADD PUSH2 0x2529 SWAP2 PUSH2 0x1480 JUMP JUMPDEST PUSH1 0xA0 DUP6 ADD PUSH2 0x2536 SWAP2 PUSH2 0x1480 JUMP JUMPDEST PUSH1 0xC0 DUP5 ADD PUSH2 0x2543 SWAP2 PUSH2 0x1480 JUMP JUMPDEST PUSH1 0xE0 DUP4 ADD PUSH2 0x2550 SWAP2 PUSH2 0x1480 JUMP JUMPDEST PUSH2 0x100 DUP3 ADD PUSH2 0x255E SWAP2 PUSH2 0x1480 JUMP JUMPDEST PUSH2 0x120 ADD PUSH2 0x256B SWAP2 PUSH2 0x1C5 JUMP JUMPDEST JUMP JUMPDEST PUSH2 0x2576 SWAP1 PUSH2 0x994 JUMP JUMPDEST SWAP1 MSTORE JUMP JUMPDEST PUSH2 0x2599 PUSH2 0x25A2 PUSH1 0x20 SWAP4 PUSH2 0x25A7 SWAP4 PUSH2 0x2590 DUP2 PUSH2 0x542 JUMP JUMPDEST SWAP4 DUP5 DUP1 SWAP4 PUSH2 0x1549 JUMP JUMPDEST SWAP6 DUP7 SWAP2 ADD PUSH2 0x54F JUMP JUMPDEST PUSH2 0x222 JUMP JUMPDEST ADD SWAP1 JUMP JUMPDEST SWAP6 SWAP3 PUSH2 0x2618 SWAP5 PUSH2 0x25EE DUP9 PUSH2 0x25FC SWAP4 PUSH2 0x25E1 PUSH2 0x260A SWAP8 PUSH2 0x25D7 PUSH2 0x2626 SWAP15 SWAP13 SWAP9 PUSH1 0x0 PUSH1 0xE0 DUP8 ADD SWAP7 ADD SWAP1 PUSH2 0x110A JUMP JUMPDEST PUSH1 0x20 DUP14 ADD SWAP1 PUSH2 0x256D JUMP JUMPDEST DUP11 DUP3 SUB PUSH1 0x40 DUP13 ADD MSTORE PUSH2 0x257A JUMP JUMPDEST SWAP1 DUP9 DUP3 SUB PUSH1 0x60 DUP11 ADD MSTORE PUSH2 0x257A JUMP JUMPDEST SWAP1 DUP7 DUP3 SUB PUSH1 0x80 DUP9 ADD MSTORE PUSH2 0x257A JUMP JUMPDEST SWAP1 DUP5 DUP3 SUB PUSH1 0xA0 DUP7 ADD MSTORE PUSH2 0x257A JUMP JUMPDEST SWAP2 PUSH1 0xC0 DUP2 DUP5 SUB SWAP2 ADD MSTORE PUSH2 0x257A JUMP JUMPDEST SWAP1 JUMP JUMPDEST SWAP3 SWAP10 SWAP2 SWAP8 SWAP9 SWAP1 SWAP4 SWAP7 SWAP9 CALLER PUSH2 0x263D PUSH1 0x3 PUSH2 0x153C JUMP JUMPDEST PUSH2 0x2646 SWAP1 PUSH2 0x173 JUMP JUMPDEST SWAP1 PUSH2 0x2650 SWAP1 PUSH2 0x173 JUMP JUMPDEST EQ PUSH2 0x265A SWAP1 PUSH2 0x15D3 JUMP JUMPDEST PUSH2 0x2662 PUSH2 0x4495 JUMP JUMPDEST DUP10 DUP12 DUP14 PUSH2 0x266D PUSH2 0x24AF JUMP JUMPDEST SWAP1 DUP13 DUP10 SWAP4 DUP14 DUP14 DUP14 SWAP8 PUSH2 0x267E SWAP1 PUSH2 0x994 JUMP JUMPDEST SWAP5 PUSH2 0x2688 SWAP1 PUSH2 0x24D3 JUMP JUMPDEST PUSH2 0x2691 DUP2 PUSH2 0x16CD JUMP JUMPDEST SWAP1 PUSH2 0x269B SWAP1 PUSH2 0x16C7 JUMP JUMPDEST KECCAK256 SWAP4 PUSH2 0x26A6 SWAP1 PUSH2 0x24D3 JUMP JUMPDEST PUSH2 0x26AF DUP2 PUSH2 0x16CD JUMP JUMPDEST SWAP1 PUSH2 0x26B9 SWAP1 PUSH2 0x16C7 JUMP JUMPDEST KECCAK256 SWAP1 PUSH2 0x26C4 SWAP1 PUSH2 0x24D3 JUMP JUMPDEST PUSH2 0x26CD DUP2 PUSH2 0x16CD JUMP JUMPDEST SWAP1 PUSH2 0x26D7 SWAP1 PUSH2 0x16C7 JUMP JUMPDEST KECCAK256 SWAP2 PUSH2 0x26E2 SWAP1 PUSH2 0x24D3 JUMP JUMPDEST PUSH2 0x26EB DUP2 PUSH2 0x16CD JUMP JUMPDEST SWAP1 PUSH2 0x26F5 SWAP1 PUSH2 0x16C7 JUMP JUMPDEST KECCAK256 SWAP3 PUSH2 0x2700 SWAP1 PUSH2 0x24D3 JUMP JUMPDEST PUSH2 0x2709 DUP2 PUSH2 0x16CD JUMP JUMPDEST SWAP1 PUSH2 0x2713 SWAP1 PUSH2 0x16C7 JUMP JUMPDEST KECCAK256 SWAP4 DUP14 PUSH1 0x4 SWAP1 PUSH2 0x2722 SWAP2 PUSH2 0xF3B JUMP JUMPDEST PUSH2 0x272B DUP2 PUSH2 0x14FC JUMP JUMPDEST SWAP1 PUSH2 0x2735 DUP3 PUSH2 0x16E7 JUMP JUMPDEST PUSH2 0x273E SWAP2 PUSH2 0x1740 JUMP JUMPDEST SWAP6 PUSH2 0x2747 PUSH2 0x153 JUMP JUMPDEST SWAP10 DUP11 SWAP10 PUSH1 0x20 DUP12 ADD SWAP10 PUSH2 0x2758 SWAP11 PUSH2 0x24D6 JUMP JUMPDEST PUSH1 0x20 DUP3 ADD DUP2 SUB DUP3 MSTORE SUB PUSH2 0x276B SWAP1 DUP3 PUSH2 0x242 JUMP JUMPDEST PUSH2 0x2774 DUP2 PUSH2 0x16CD JUMP JUMPDEST SWAP1 PUSH2 0x277E SWAP1 PUSH2 0x16C7 JUMP JUMPDEST KECCAK256 PUSH2 0x2787 PUSH2 0x153 JUMP JUMPDEST SWAP2 DUP3 SWAP2 PUSH1 0x20 DUP4 ADD SWAP2 PUSH2 0x2798 SWAP3 PUSH2 0x17F1 JUMP JUMPDEST PUSH1 0x20 DUP3 ADD DUP2 SUB DUP3 MSTORE SUB PUSH2 0x27AB SWAP1 DUP3 PUSH2 0x242 JUMP JUMPDEST PUSH2 0x27B4 DUP2 PUSH2 0x16CD JUMP JUMPDEST SWAP1 PUSH2 0x27BE SWAP1 PUSH2 0x16C7 JUMP JUMPDEST KECCAK256 SWAP1 SWAP2 SWAP3 PUSH2 0x27CA PUSH2 0x153 JUMP JUMPDEST SWAP4 DUP5 SWAP4 PUSH2 0x27D7 SWAP4 DUP6 PUSH2 0x1825 JUMP JUMPDEST PUSH1 0x0 DUP1 MSTORE SUB SWAP1 GAS SWAP2 PUSH1 0x0 SWAP2 PUSH1 0x1 PUSH1 0x20 SWAP5 STATICCALL ISZERO PUSH2 0x28AF JUMPI PUSH2 0x2814 SWAP1 PUSH2 0x280E PUSH2 0x2808 PUSH2 0x2802 PUSH1 0x0 MLOAD PUSH2 0x1704 JUMP JUMPDEST SWAP3 PUSH2 0x173 JUMP JUMPDEST SWAP2 PUSH2 0x173 JUMP JUMPDEST EQ PUSH2 0x18D0 JUMP JUMPDEST PUSH2 0x2826 PUSH2 0x2821 PUSH1 0x1 PUSH2 0x1F48 JUMP JUMPDEST PUSH2 0x12A2 JUMP JUMPDEST SWAP4 PUSH4 0x3B27F4E2 SWAP2 SWAP6 SWAP8 SWAP1 SWAP3 SWAP4 SWAP7 DUP6 EXTCODESIZE ISZERO PUSH2 0x28AA JUMPI PUSH1 0x0 SWAP8 PUSH2 0x285B SWAP6 DUP10 SWAP6 PUSH2 0x2866 SWAP5 PUSH2 0x284F PUSH2 0x153 JUMP JUMPDEST SWAP13 DUP14 SWAP12 DUP13 SWAP11 DUP12 SWAP10 PUSH2 0x191F JUMP JUMPDEST DUP10 MSTORE PUSH1 0x4 DUP10 ADD PUSH2 0x25AB JUMP JUMPDEST SUB SWAP3 GAS CALL DUP1 ISZERO PUSH2 0x28A5 JUMPI PUSH2 0x2878 JUMPI JUMPDEST POP JUMP JUMPDEST PUSH2 0x2898 SWAP1 PUSH1 0x0 RETURNDATASIZE DUP2 GT PUSH2 0x289E JUMPI JUMPDEST PUSH2 0x2890 DUP2 DUP4 PUSH2 0x242 JUMP JUMPDEST DUP2 ADD SWAP1 PUSH2 0x1925 JUMP JUMPDEST CODESIZE PUSH2 0x2875 JUMP JUMPDEST POP RETURNDATASIZE PUSH2 0x2886 JUMP JUMPDEST PUSH2 0x1864 JUMP JUMPDEST PUSH2 0x191A JUMP JUMPDEST PUSH2 0x1864 JUMP JUMPDEST PUSH32 0x637A5CE0321D584EF2ECFA7DBF3E4454E1C5B3F0DD2DB45298460BB40AAEA017 SWAP1 JUMP JUMPDEST SWAP2 PUSH2 0x28FC SWAP3 PUSH2 0x28EF PUSH1 0x40 DUP3 ADD SWAP4 PUSH1 0x0 DUP4 ADD SWAP1 PUSH2 0x110A JUMP JUMPDEST PUSH1 0x20 DUP2 DUP5 SUB SWAP2 ADD MSTORE PUSH2 0x257A JUMP JUMPDEST SWAP1 JUMP JUMPDEST SWAP3 SWAP4 PUSH1 0x0 SWAP2 SWAP5 PUSH2 0x2A14 PUSH1 0x20 SWAP5 SWAP8 PUSH2 0x2931 CALLER PUSH2 0x292B PUSH2 0x2925 PUSH2 0x2920 PUSH1 0x3 PUSH2 0x153C JUMP JUMPDEST PUSH2 0x173 JUMP JUMPDEST SWAP2 PUSH2 0x173 JUMP JUMPDEST EQ PUSH2 0x15D3 JUMP JUMPDEST PUSH2 0x2939 PUSH2 0x4495 JUMP JUMPDEST PUSH2 0x29EE DUP10 PUSH2 0x29B6 DUP13 PUSH2 0x29A8 PUSH2 0x294C PUSH2 0x28B4 JUMP JUMPDEST SWAP2 DUP14 PUSH2 0x2977 PUSH2 0x295C DUP3 SWAP8 SWAP4 PUSH2 0x24D3 JUMP JUMPDEST PUSH2 0x296E PUSH2 0x2968 DUP3 PUSH2 0x16CD JUMP JUMPDEST SWAP2 PUSH2 0x16C7 JUMP JUMPDEST KECCAK256 SWAP2 PUSH1 0x4 PUSH2 0xF3B JUMP JUMPDEST PUSH2 0x2993 PUSH2 0x2983 DUP3 PUSH2 0x14FC JUMP JUMPDEST SWAP2 PUSH2 0x298D DUP4 PUSH2 0x16E7 JUMP JUMPDEST SWAP1 PUSH2 0x1740 JUMP JUMPDEST SWAP2 PUSH2 0x299C PUSH2 0x153 JUMP JUMPDEST SWAP7 DUP16 SWAP6 DUP9 SWAP7 DUP8 ADD PUSH2 0x1760 JUMP JUMPDEST DUP12 DUP3 ADD DUP2 SUB DUP3 MSTORE SUB DUP3 PUSH2 0x242 JUMP JUMPDEST PUSH2 0x29C8 PUSH2 0x29C2 DUP3 PUSH2 0x16CD JUMP JUMPDEST SWAP2 PUSH2 0x16C7 JUMP JUMPDEST KECCAK256 SWAP2 PUSH2 0x29E0 PUSH2 0x29D5 PUSH2 0x153 JUMP JUMPDEST SWAP4 DUP5 SWAP3 DUP12 DUP5 ADD PUSH2 0x17F1 JUMP JUMPDEST DUP10 DUP3 ADD DUP2 SUB DUP3 MSTORE SUB DUP3 PUSH2 0x242 JUMP JUMPDEST PUSH2 0x2A00 PUSH2 0x29FA DUP3 PUSH2 0x16CD JUMP JUMPDEST SWAP2 PUSH2 0x16C7 JUMP JUMPDEST KECCAK256 SWAP3 SWAP4 PUSH2 0x2A0B PUSH2 0x153 JUMP JUMPDEST SWAP5 DUP6 SWAP5 DUP6 PUSH2 0x1825 JUMP JUMPDEST DUP4 DUP1 MSTORE SUB SWAP1 PUSH1 0x1 GAS STATICCALL ISZERO PUSH2 0x2ADC JUMPI PUSH2 0x2A49 SWAP1 PUSH2 0x2A43 PUSH2 0x2A3D PUSH2 0x2A37 PUSH1 0x0 MLOAD PUSH2 0x1704 JUMP JUMPDEST SWAP3 PUSH2 0x173 JUMP JUMPDEST SWAP2 PUSH2 0x173 JUMP JUMPDEST EQ PUSH2 0x18D0 JUMP JUMPDEST PUSH2 0x2A5B PUSH2 0x2A56 PUSH1 0x2 PUSH2 0x190D JUMP JUMPDEST PUSH2 0x85F JUMP JUMPDEST SWAP2 PUSH3 0xBCEC27 SWAP2 SWAP1 SWAP3 DUP1 EXTCODESIZE ISZERO PUSH2 0x2AD7 JUMPI PUSH2 0x2A88 PUSH1 0x0 DUP1 SWAP5 PUSH2 0x2A93 PUSH2 0x2A7C PUSH2 0x153 JUMP JUMPDEST SWAP8 DUP9 SWAP7 DUP8 SWAP6 DUP7 SWAP5 PUSH2 0x191F JUMP JUMPDEST DUP5 MSTORE PUSH1 0x4 DUP5 ADD PUSH2 0x28D8 JUMP JUMPDEST SUB SWAP3 GAS CALL DUP1 ISZERO PUSH2 0x2AD2 JUMPI PUSH2 0x2AA5 JUMPI JUMPDEST POP JUMP JUMPDEST PUSH2 0x2AC5 SWAP1 PUSH1 0x0 RETURNDATASIZE DUP2 GT PUSH2 0x2ACB JUMPI JUMPDEST PUSH2 0x2ABD DUP2 DUP4 PUSH2 0x242 JUMP JUMPDEST DUP2 ADD SWAP1 PUSH2 0x1925 JUMP JUMPDEST CODESIZE PUSH2 0x2AA2 JUMP JUMPDEST POP RETURNDATASIZE PUSH2 0x2AB3 JUMP JUMPDEST PUSH2 0x1864 JUMP JUMPDEST PUSH2 0x191A JUMP JUMPDEST PUSH2 0x1864 JUMP JUMPDEST PUSH1 0x60 SWAP1 JUMP JUMPDEST SWAP1 PUSH2 0x2AF0 SWAP1 PUSH2 0xF2F JUMP JUMPDEST PUSH1 0x0 MSTORE PUSH1 0x20 MSTORE PUSH1 0x40 PUSH1 0x0 KECCAK256 SWAP1 JUMP JUMPDEST SLOAD SWAP1 JUMP JUMPDEST PUSH8 0xFFFFFFFFFFFFFFFF DUP2 GT PUSH2 0x2B1A JUMPI PUSH1 0x20 DUP1 SWAP2 MUL ADD SWAP1 JUMP JUMPDEST PUSH2 0x22C JUMP JUMPDEST SWAP1 PUSH2 0x2B31 PUSH2 0x2B2C DUP4 PUSH2 0x2B02 JUMP JUMPDEST PUSH2 0x26B JUMP JUMPDEST SWAP2 DUP3 MSTORE JUMP JUMPDEST PUSH1 0x0 MSTORE PUSH1 0x20 PUSH1 0x0 KECCAK256 SWAP1 JUMP JUMPDEST SWAP1 PUSH2 0x2B4B SWAP1 PUSH2 0x173 JUMP JUMPDEST SWAP1 MSTORE JUMP JUMPDEST PUSH4 0x4E487B71 PUSH1 0xE0 SHL PUSH1 0x0 MSTORE PUSH1 0x22 PUSH1 0x4 MSTORE PUSH1 0x24 PUSH1 0x0 REVERT JUMPDEST SWAP1 PUSH1 0x1 PUSH1 0x2 DUP4 DIV SWAP3 AND DUP1 ISZERO PUSH2 0x2B85 JUMPI JUMPDEST PUSH1 0x20 DUP4 LT EQ PUSH2 0x2B80 JUMPI JUMP JUMPDEST PUSH2 0x2B4F JUMP JUMPDEST SWAP2 PUSH1 0x7F AND SWAP2 PUSH2 0x2B75 JUMP JUMPDEST PUSH1 0x0 MSTORE PUSH1 0x20 PUSH1 0x0 KECCAK256 SWAP1 JUMP JUMPDEST SWAP1 PUSH1 0x0 SWAP3 SWAP2 DUP1 SLOAD SWAP1 PUSH2 0x2BB5 PUSH2 0x2BAE DUP4 PUSH2 0x2B65 JUMP JUMPDEST DUP1 SWAP5 PUSH2 0x546 JUMP JUMPDEST SWAP2 PUSH1 0x1 DUP2 AND SWAP1 DUP2 PUSH1 0x0 EQ PUSH2 0x2C0E JUMPI POP PUSH1 0x1 EQ PUSH2 0x2BD1 JUMPI JUMPDEST POP POP POP JUMP JUMPDEST PUSH2 0x2BDE SWAP2 SWAP3 SWAP4 SWAP5 POP PUSH2 0x2B8F JUMP JUMPDEST SWAP2 PUSH1 0x0 SWAP3 JUMPDEST DUP2 DUP5 LT PUSH2 0x2BF6 JUMPI POP POP ADD SWAP1 CODESIZE DUP1 DUP1 PUSH2 0x2BCC JUMP JUMPDEST PUSH1 0x1 DUP2 PUSH1 0x20 SWAP3 SWAP6 SWAP4 SWAP6 SLOAD DUP5 DUP7 ADD MSTORE ADD SWAP2 ADD SWAP3 SWAP1 PUSH2 0x2BE3 JUMP JUMPDEST SWAP3 SWAP5 SWAP6 POP POP POP PUSH1 0xFF NOT AND DUP3 MSTORE ISZERO ISZERO PUSH1 0x20 MUL ADD SWAP1 CODESIZE DUP1 DUP1 PUSH2 0x2BCC JUMP JUMPDEST SWAP1 PUSH2 0x2C33 SWAP2 PUSH2 0x2B9A JUMP JUMPDEST SWAP1 JUMP JUMPDEST SWAP1 PUSH2 0x2C56 PUSH2 0x2C4F SWAP3 PUSH2 0x2C46 PUSH2 0x153 JUMP JUMPDEST SWAP4 DUP5 DUP1 SWAP3 PUSH2 0x2C29 JUMP JUMPDEST SUB DUP4 PUSH2 0x242 JUMP JUMPDEST JUMP JUMPDEST MSTORE JUMP JUMPDEST SWAP1 PUSH2 0x2C65 SWAP1 PUSH2 0x1C2 JUMP JUMPDEST SWAP1 MSTORE JUMP JUMPDEST PUSH2 0x2C73 PUSH1 0x60 PUSH2 0x26B JUMP JUMPDEST SWAP1 JUMP JUMPDEST SWAP1 PUSH2 0x2CC7 PUSH2 0x2CBE PUSH1 0x2 PUSH2 0x2C87 PUSH2 0x2C69 JUMP JUMPDEST SWAP5 PUSH2 0x2CA0 PUSH2 0x2C97 PUSH1 0x0 DUP4 ADD PUSH2 0x153C JUMP JUMPDEST PUSH1 0x0 DUP9 ADD PUSH2 0x2B41 JUMP JUMPDEST PUSH2 0x2CB8 PUSH2 0x2CAF PUSH1 0x1 DUP4 ADD PUSH2 0x2C36 JUMP JUMPDEST PUSH1 0x20 DUP9 ADD PUSH2 0x2C58 JUMP JUMPDEST ADD PUSH2 0x14FC JUMP JUMPDEST PUSH1 0x40 DUP5 ADD PUSH2 0x2C5B JUMP JUMPDEST JUMP JUMPDEST PUSH2 0x2CD2 SWAP1 PUSH2 0x2C76 JUMP JUMPDEST SWAP1 JUMP JUMPDEST SWAP1 PUSH2 0x2CDF DUP3 PUSH2 0x2AFE JUMP JUMPDEST PUSH2 0x2CE8 DUP2 PUSH2 0x2B1F JUMP JUMPDEST SWAP3 PUSH2 0x2CF6 PUSH1 0x20 DUP6 ADD SWAP2 PUSH2 0x2B36 JUMP JUMPDEST PUSH1 0x0 SWAP2 JUMPDEST DUP4 DUP4 LT PUSH2 0x2D07 JUMPI POP POP POP POP JUMP JUMPDEST PUSH1 0x3 PUSH1 0x20 PUSH1 0x1 SWAP3 PUSH2 0x2D17 DUP6 PUSH2 0x2CC9 JUMP JUMPDEST DUP2 MSTORE ADD SWAP3 ADD SWAP3 ADD SWAP2 SWAP1 PUSH2 0x2CFA JUMP JUMPDEST PUSH2 0x2D2E SWAP1 PUSH2 0x2CD5 JUMP JUMPDEST SWAP1 JUMP JUMPDEST PUSH2 0x2D39 PUSH2 0x2AE1 JUMP JUMPDEST POP PUSH2 0x2D4E PUSH2 0x2D49 PUSH1 0x5 CALLER SWAP1 PUSH2 0x2AE6 JUMP JUMPDEST PUSH2 0x2D25 JUMP JUMPDEST SWAP1 JUMP JUMPDEST PUSH32 0x3723178DC5634A72F673D5831CC4F6E8D5D5AC6FFFC63041E2E90093B3459BAF SWAP1 JUMP JUMPDEST SWAP6 SWAP4 SWAP2 SWAP9 SWAP8 SWAP7 SWAP5 SWAP3 SWAP1 SWAP9 PUSH2 0x100 DUP8 ADD SWAP10 PUSH1 0x0 DUP9 ADD PUSH2 0x2D92 SWAP2 PUSH2 0x1480 JUMP JUMPDEST PUSH1 0x20 DUP8 ADD PUSH2 0x2D9F SWAP2 PUSH2 0x110A JUMP JUMPDEST PUSH1 0x40 DUP7 ADD PUSH2 0x2DAC SWAP2 PUSH2 0x1480 JUMP JUMPDEST PUSH1 0x60 DUP6 ADD PUSH2 0x2DB9 SWAP2 PUSH2 0x1C5 JUMP JUMPDEST PUSH1 0x80 DUP5 ADD PUSH2 0x2DC6 SWAP2 PUSH2 0x21F6 JUMP JUMPDEST PUSH1 0xA0 DUP4 ADD PUSH2 0x2DD3 SWAP2 PUSH2 0x21F6 JUMP JUMPDEST PUSH1 0xC0 DUP3 ADD PUSH2 0x2DE0 SWAP2 PUSH2 0x1480 JUMP JUMPDEST PUSH1 0xE0 ADD PUSH2 0x2DEC SWAP2 PUSH2 0x1C5 JUMP JUMPDEST JUMP JUMPDEST PUSH1 0x60 SHL SWAP1 JUMP JUMPDEST PUSH2 0x2DFD SWAP1 PUSH2 0x2DEE JUMP JUMPDEST SWAP1 JUMP JUMPDEST PUSH2 0x2E09 SWAP1 PUSH2 0x2DF4 JUMP JUMPDEST SWAP1 JUMP JUMPDEST PUSH2 0x2E18 PUSH2 0x2E1D SWAP2 PUSH2 0x173 JUMP JUMPDEST PUSH2 0x2E00 JUMP JUMPDEST SWAP1 MSTORE JUMP JUMPDEST PUSH2 0x2E46 PUSH2 0x2E3D SWAP3 PUSH1 0x20 SWAP3 PUSH2 0x2E34 DUP2 PUSH2 0x542 JUMP JUMPDEST SWAP5 DUP6 DUP1 SWAP4 PUSH2 0x17AE JUMP JUMPDEST SWAP4 DUP5 SWAP2 ADD PUSH2 0x54F JUMP JUMPDEST ADD SWAP1 JUMP JUMPDEST SWAP1 JUMP JUMPDEST PUSH2 0x2E59 PUSH2 0x2E5E SWAP2 PUSH2 0x1C2 JUMP JUMPDEST PUSH2 0x2E4A JUMP JUMPDEST SWAP1 MSTORE JUMP JUMPDEST PUSH1 0x20 SWAP4 SWAP3 PUSH1 0x14 DUP3 PUSH2 0x2E79 PUSH2 0x2E80 SWAP5 PUSH2 0x2E87 SWAP7 PUSH2 0x2E0C JUMP JUMPDEST ADD SWAP1 PUSH2 0x2E21 JUMP JUMPDEST DUP1 SWAP3 PUSH2 0x2E4D JUMP JUMPDEST ADD SWAP1 JUMP JUMPDEST PUSH2 0x2E97 PUSH2 0x2E9C SWAP2 PUSH2 0x14E2 JUMP JUMPDEST PUSH2 0x1721 JUMP JUMPDEST SWAP1 JUMP JUMPDEST PUSH2 0x2EB3 PUSH2 0x2EAE PUSH2 0x2EB8 SWAP3 PUSH2 0x1C2 JUMP JUMPDEST PUSH2 0x834 JUMP JUMPDEST PUSH2 0x168 JUMP JUMPDEST SWAP1 JUMP JUMPDEST SWAP1 JUMP JUMPDEST SLOAD SWAP1 JUMP JUMPDEST PUSH4 0x4E487B71 PUSH1 0xE0 SHL PUSH1 0x0 MSTORE PUSH1 0x32 PUSH1 0x4 MSTORE PUSH1 0x24 PUSH1 0x0 REVERT JUMPDEST PUSH1 0x0 MSTORE PUSH1 0x20 PUSH1 0x0 KECCAK256 SWAP1 JUMP JUMPDEST PUSH2 0x2EEC DUP2 PUSH2 0x2EBE JUMP JUMPDEST DUP3 LT ISZERO PUSH2 0x2F07 JUMPI PUSH2 0x2EFE PUSH1 0x3 SWAP2 PUSH2 0x2ED8 JUMP JUMPDEST SWAP2 MUL ADD SWAP1 PUSH1 0x0 SWAP1 JUMP JUMPDEST PUSH2 0x2EC2 JUMP JUMPDEST PUSH2 0x2F15 DUP2 PUSH2 0x2EBE JUMP JUMPDEST PUSH9 0x10000000000000000 DUP2 LT ISZERO PUSH2 0x2F39 JUMPI PUSH2 0x2F35 SWAP2 PUSH1 0x1 DUP3 ADD DUP2 SSTORE PUSH2 0x2EE3 JUMP JUMPDEST SWAP1 SWAP2 JUMP JUMPDEST PUSH2 0x22C JUMP JUMPDEST SWAP1 JUMP JUMPDEST SWAP1 PUSH2 0x2F52 PUSH1 0x1 DUP1 PUSH1 0xA0 SHL SUB SWAP2 PUSH2 0x1704 JUMP JUMPDEST SWAP2 DUP2 NOT AND SWAP2 AND OR SWAP1 JUMP JUMPDEST SWAP1 JUMP JUMPDEST SWAP1 PUSH2 0x2F74 PUSH2 0x2F6F PUSH2 0x2F7B SWAP3 PUSH2 0xF2F JUMP JUMPDEST PUSH2 0x2F5C JUMP JUMPDEST DUP3 SLOAD PUSH2 0x2F41 JUMP JUMPDEST SWAP1 SSTORE JUMP JUMPDEST PUSH4 0x4E487B71 PUSH1 0xE0 SHL PUSH1 0x0 MSTORE PUSH1 0x0 PUSH1 0x4 MSTORE PUSH1 0x24 PUSH1 0x0 REVERT JUMPDEST PUSH1 0x1F PUSH1 0x20 SWAP2 ADD DIV SWAP1 JUMP JUMPDEST SHL SWAP1 JUMP JUMPDEST SWAP2 SWAP1 PUSH1 0x8 PUSH2 0x2FBF SWAP2 MUL SWAP2 PUSH2 0x2FB9 PUSH1 0x0 NOT DUP5 PUSH2 0x2F9F JUMP JUMPDEST SWAP3 PUSH2 0x2F9F JUMP JUMPDEST SWAP2 DUP2 NOT AND SWAP2 AND OR SWAP1 JUMP JUMPDEST SWAP2 SWAP1 PUSH2 0x2FDF PUSH2 0x2FDA PUSH2 0x2FE7 SWAP4 PUSH2 0x1721 JUMP JUMPDEST PUSH2 0x173D JUMP JUMPDEST SWAP1 DUP4 SLOAD PUSH2 0x2FA3 JUMP JUMPDEST SWAP1 SSTORE JUMP JUMPDEST PUSH2 0x2FFD SWAP2 PUSH2 0x2FF7 PUSH2 0x14DD JUMP JUMPDEST SWAP2 PUSH2 0x2FC9 JUMP JUMPDEST JUMP JUMPDEST JUMPDEST DUP2 DUP2 LT PUSH2 0x300B JUMPI POP POP JUMP JUMPDEST DUP1 PUSH2 0x3019 PUSH1 0x0 PUSH1 0x1 SWAP4 PUSH2 0x2FEB JUMP JUMPDEST ADD PUSH2 0x3000 JUMP JUMPDEST SWAP2 SWAP1 PUSH1 0x1F DUP2 GT PUSH2 0x302F JUMPI JUMPDEST POP POP POP JUMP JUMPDEST PUSH2 0x303B PUSH2 0x3060 SWAP4 PUSH2 0x2B8F JUMP JUMPDEST SWAP1 PUSH1 0x20 PUSH2 0x3047 DUP5 PUSH2 0x2F95 JUMP JUMPDEST DUP4 ADD SWAP4 LT PUSH2 0x3068 JUMPI JUMPDEST PUSH2 0x3059 SWAP1 PUSH2 0x2F95 JUMP JUMPDEST ADD SWAP1 PUSH2 0x2FFF JUMP JUMPDEST CODESIZE DUP1 DUP1 PUSH2 0x302A JUMP JUMPDEST SWAP2 POP PUSH2 0x3059 DUP2 SWAP3 SWAP1 POP PUSH2 0x3050 JUMP JUMPDEST SWAP1 PUSH2 0x3087 SWAP1 PUSH1 0x0 NOT SWAP1 PUSH1 0x8 MUL PUSH2 0x7EF JUMP JUMPDEST NOT AND SWAP1 JUMP JUMPDEST DUP2 PUSH2 0x3096 SWAP2 PUSH2 0x3076 JUMP JUMPDEST SWAP1 PUSH1 0x2 MUL OR SWAP1 JUMP JUMPDEST SWAP1 PUSH2 0x30A8 DUP2 PUSH2 0x542 JUMP JUMPDEST SWAP1 PUSH8 0xFFFFFFFFFFFFFFFF DUP3 GT PUSH2 0x316A JUMPI PUSH2 0x30CC DUP3 PUSH2 0x30C6 DUP6 SLOAD PUSH2 0x2B65 JUMP JUMPDEST DUP6 PUSH2 0x301F JUMP JUMPDEST PUSH1 0x20 SWAP1 PUSH1 0x1F DUP4 GT PUSH1 0x1 EQ PUSH2 0x3101 JUMPI SWAP2 DUP1 SWAP2 PUSH2 0x30F0 SWAP4 PUSH1 0x0 SWAP3 PUSH2 0x30F5 JUMPI JUMPDEST POP POP PUSH2 0x308C JUMP JUMPDEST SWAP1 SSTORE JUMPDEST JUMP JUMPDEST SWAP1 SWAP2 POP ADD MLOAD CODESIZE DUP1 PUSH2 0x30E9 JUMP JUMPDEST PUSH1 0x1F NOT DUP4 AND SWAP2 PUSH2 0x3110 DUP6 PUSH2 0x2B8F JUMP JUMPDEST SWAP3 PUSH1 0x0 JUMPDEST DUP2 DUP2 LT PUSH2 0x3152 JUMPI POP SWAP2 PUSH1 0x2 SWAP4 SWAP2 DUP6 PUSH1 0x1 SWAP7 SWAP5 LT PUSH2 0x3138 JUMPI JUMPDEST POP POP POP MUL ADD SWAP1 SSTORE PUSH2 0x30F3 JUMP JUMPDEST PUSH2 0x3148 SWAP2 ADD MLOAD PUSH1 0x1F DUP5 AND SWAP1 PUSH2 0x3076 JUMP JUMPDEST SWAP1 SSTORE CODESIZE DUP1 DUP1 PUSH2 0x312C JUMP JUMPDEST SWAP2 SWAP4 PUSH1 0x20 PUSH1 0x1 DUP2 SWAP3 DUP8 DUP8 ADD MLOAD DUP2 SSTORE ADD SWAP6 ADD SWAP3 ADD PUSH2 0x3114 JUMP JUMPDEST PUSH2 0x22C JUMP JUMPDEST SWAP1 PUSH2 0x3179 SWAP2 PUSH2 0x309E JUMP JUMPDEST JUMP JUMPDEST SWAP1 PUSH2 0x3185 SWAP1 PUSH2 0xF2F JUMP JUMPDEST PUSH1 0x0 MSTORE PUSH1 0x20 MSTORE PUSH1 0x40 PUSH1 0x0 KECCAK256 SWAP1 JUMP JUMPDEST SWAP1 JUMP JUMPDEST PUSH1 0x0 MSTORE PUSH1 0x20 PUSH1 0x0 KECCAK256 SWAP1 JUMP JUMPDEST SLOAD SWAP1 JUMP JUMPDEST PUSH2 0x31AE DUP2 PUSH2 0x31A1 JUMP JUMPDEST DUP3 LT ISZERO PUSH2 0x31C9 JUMPI PUSH2 0x31C0 PUSH1 0x1 SWAP2 PUSH2 0x3196 JUMP JUMPDEST SWAP2 MUL ADD SWAP1 PUSH1 0x0 SWAP1 JUMP JUMPDEST PUSH2 0x2EC2 JUMP JUMPDEST SWAP2 SWAP1 PUSH1 0x8 PUSH2 0x31EE SWAP2 MUL SWAP2 PUSH2 0x31E8 PUSH1 0x1 DUP1 PUSH1 0xA0 SHL SUB DUP5 PUSH2 0x2F9F JUMP JUMPDEST SWAP3 PUSH2 0x2F9F JUMP JUMPDEST SWAP2 DUP2 NOT AND SWAP2 AND OR SWAP1 JUMP JUMPDEST SWAP2 SWAP1 PUSH2 0x320E PUSH2 0x3209 PUSH2 0x3216 SWAP4 PUSH2 0xF2F JUMP JUMPDEST PUSH2 0x2F5C JUMP JUMPDEST SWAP1 DUP4 SLOAD PUSH2 0x31CE JUMP JUMPDEST SWAP1 SSTORE JUMP JUMPDEST SWAP1 DUP2 SLOAD SWAP2 PUSH9 0x10000000000000000 DUP4 LT ISZERO PUSH2 0x324A JUMPI DUP3 PUSH2 0x3242 SWAP2 PUSH1 0x1 PUSH2 0x3248 SWAP6 ADD DUP2 SSTORE PUSH2 0x31A5 JUMP JUMPDEST SWAP1 PUSH2 0x31F8 JUMP JUMPDEST JUMP JUMPDEST PUSH2 0x22C JUMP JUMPDEST SWAP7 DUP6 SWAP7 PUSH2 0x33AC DUP5 SWAP11 DUP8 PUSH2 0x3386 DUP7 PUSH2 0x334E DUP11 DUP16 PUSH1 0x20 SWAP12 PUSH1 0x0 SWAP12 SWAP15 SWAP16 SWAP2 PUSH2 0x3340 SWAP3 PUSH2 0x3293 CALLER PUSH2 0x328D PUSH2 0x3287 PUSH2 0x3282 PUSH1 0x3 PUSH2 0x153C JUMP JUMPDEST PUSH2 0x173 JUMP JUMPDEST SWAP2 PUSH2 0x173 JUMP JUMPDEST EQ PUSH2 0x15D3 JUMP JUMPDEST PUSH2 0x329B PUSH2 0x4495 JUMP JUMPDEST SWAP9 PUSH2 0x32A4 PUSH2 0x2D51 JUMP JUMPDEST SWAP6 PUSH2 0x330E PUSH2 0x32E4 PUSH2 0x32F3 PUSH2 0x32B8 DUP8 SWAP13 PUSH2 0x24D3 JUMP JUMPDEST PUSH2 0x32CA PUSH2 0x32C4 DUP3 PUSH2 0x16CD JUMP JUMPDEST SWAP2 PUSH2 0x16C7 JUMP JUMPDEST KECCAK256 SWAP8 SWAP4 SWAP5 SWAP6 PUSH2 0x32D7 PUSH2 0x153 JUMP JUMPDEST SWAP3 PUSH1 0x20 SWAP2 DUP5 SWAP3 DUP4 ADD PUSH2 0x16AE JUMP JUMPDEST PUSH1 0x20 DUP3 ADD DUP2 SUB DUP3 MSTORE SUB DUP3 PUSH2 0x242 JUMP JUMPDEST PUSH2 0x3305 PUSH2 0x32FF DUP3 PUSH2 0x16CD JUMP JUMPDEST SWAP2 PUSH2 0x16C7 JUMP JUMPDEST KECCAK256 SWAP5 PUSH1 0x4 PUSH2 0xF3B JUMP JUMPDEST PUSH2 0x332A PUSH2 0x331A DUP3 PUSH2 0x14FC JUMP JUMPDEST SWAP2 PUSH2 0x3324 DUP4 PUSH2 0x16E7 JUMP JUMPDEST SWAP1 PUSH2 0x1740 JUMP JUMPDEST SWAP5 PUSH2 0x3333 PUSH2 0x153 JUMP JUMPDEST SWAP10 PUSH1 0x20 SWAP9 DUP12 SWAP10 DUP11 ADD PUSH2 0x2D75 JUMP JUMPDEST DUP12 DUP3 ADD DUP2 SUB DUP3 MSTORE SUB DUP3 PUSH2 0x242 JUMP JUMPDEST PUSH2 0x3360 PUSH2 0x335A DUP3 PUSH2 0x16CD JUMP JUMPDEST SWAP2 PUSH2 0x16C7 JUMP JUMPDEST KECCAK256 SWAP2 PUSH2 0x3378 PUSH2 0x336D PUSH2 0x153 JUMP JUMPDEST SWAP4 DUP5 SWAP3 DUP12 DUP5 ADD PUSH2 0x17F1 JUMP JUMPDEST DUP10 DUP3 ADD DUP2 SUB DUP3 MSTORE SUB DUP3 PUSH2 0x242 JUMP JUMPDEST PUSH2 0x3398 PUSH2 0x3392 DUP3 PUSH2 0x16CD JUMP JUMPDEST SWAP2 PUSH2 0x16C7 JUMP JUMPDEST KECCAK256 SWAP3 SWAP4 PUSH2 0x33A3 PUSH2 0x153 JUMP JUMPDEST SWAP5 DUP6 SWAP5 DUP6 PUSH2 0x1825 JUMP JUMPDEST DUP4 DUP1 MSTORE SUB SWAP1 PUSH1 0x1 GAS STATICCALL ISZERO PUSH2 0x36BE JUMPI PUSH2 0x3487 PUSH2 0x34C4 SWAP3 PUSH2 0x33E7 PUSH2 0x33CF PUSH1 0x0 MLOAD PUSH2 0x1704 JUMP JUMPDEST PUSH2 0x33E1 PUSH2 0x33DB DUP11 PUSH2 0x173 JUMP JUMPDEST SWAP2 PUSH2 0x173 JUMP JUMPDEST EQ PUSH2 0x18D0 JUMP JUMPDEST PUSH1 0x2 PUSH2 0x3441 PUSH2 0x343C PUSH2 0x3437 DUP12 PUSH2 0x341F DUP13 PUSH2 0x3410 DUP9 SWAP4 PUSH2 0x3404 PUSH2 0x153 JUMP JUMPDEST SWAP5 DUP6 SWAP4 PUSH1 0x20 DUP6 ADD PUSH2 0x2E62 JUMP JUMPDEST PUSH1 0x20 DUP3 ADD DUP2 SUB DUP3 MSTORE SUB DUP3 PUSH2 0x242 JUMP JUMPDEST PUSH2 0x3431 PUSH2 0x342B DUP3 PUSH2 0x16CD JUMP JUMPDEST SWAP2 PUSH2 0x16C7 JUMP JUMPDEST KECCAK256 PUSH2 0x2E8B JUMP JUMPDEST PUSH2 0x2E9F JUMP JUMPDEST PUSH2 0x853 JUMP JUMPDEST SWAP9 PUSH2 0x3480 PUSH2 0x3469 PUSH2 0x3463 PUSH2 0x345E PUSH2 0x3459 DUP14 PUSH1 0x5 PUSH2 0x2AE6 JUMP JUMPDEST PUSH2 0x2EBB JUMP JUMPDEST PUSH2 0x2F0C JUMP JUMPDEST POP PUSH2 0x2F3E JUMP JUMPDEST SWAP4 PUSH2 0x3477 DUP13 PUSH1 0x0 DUP8 ADD PUSH2 0x2F5F JUMP JUMPDEST PUSH1 0x1 DUP6 ADD PUSH2 0x316F JUMP JUMPDEST SWAP2 ADD PUSH2 0x1740 JUMP JUMPDEST PUSH2 0x34A5 PUSH2 0x349E PUSH2 0x3499 PUSH1 0x6 DUP10 SWAP1 PUSH2 0x317B JUMP JUMPDEST PUSH2 0x3193 JUMP JUMPDEST DUP7 SWAP1 PUSH2 0x321A JUMP JUMPDEST SWAP2 PUSH2 0x34BB PUSH2 0x34B1 PUSH2 0x225F JUMP JUMPDEST SWAP4 PUSH1 0x0 DUP6 ADD PUSH2 0x226C JUMP JUMPDEST PUSH1 0x20 DUP4 ADD PUSH2 0x226C JUMP JUMPDEST PUSH2 0x34D6 PUSH2 0x34D1 PUSH1 0x0 PUSH2 0x228E JUMP JUMPDEST PUSH2 0x902 JUMP JUMPDEST SWAP1 PUSH4 0xFEF28772 SWAP1 DUP6 SWAP1 SWAP3 DUP1 EXTCODESIZE ISZERO PUSH2 0x36B9 JUMPI PUSH2 0x3505 PUSH1 0x0 DUP1 SWAP5 PUSH2 0x3510 PUSH2 0x34F9 PUSH2 0x153 JUMP JUMPDEST SWAP8 DUP9 SWAP7 DUP8 SWAP6 DUP7 SWAP5 PUSH2 0x191F JUMP JUMPDEST DUP5 MSTORE PUSH1 0x4 DUP5 ADD PUSH2 0x229B JUMP JUMPDEST SUB SWAP3 GAS CALL DUP1 ISZERO PUSH2 0x36B4 JUMPI PUSH2 0x3687 JUMPI JUMPDEST POP PUSH2 0x3532 PUSH2 0x352D PUSH1 0x2 PUSH2 0x190D JUMP JUMPDEST PUSH2 0x85F JUMP JUMPDEST PUSH4 0x59C3309E DUP5 DUP3 EXTCODESIZE ISZERO PUSH2 0x3682 JUMPI PUSH2 0x3569 SWAP3 PUSH2 0x355E PUSH1 0x0 DUP1 SWAP5 PUSH2 0x3552 PUSH2 0x153 JUMP JUMPDEST SWAP7 DUP8 SWAP6 DUP7 SWAP5 DUP6 SWAP4 PUSH2 0x191F JUMP JUMPDEST DUP4 MSTORE PUSH1 0x4 DUP4 ADD PUSH2 0x1117 JUMP JUMPDEST SUB SWAP3 GAS CALL DUP1 ISZERO PUSH2 0x367D JUMPI PUSH2 0x3650 JUMPI JUMPDEST POP PUSH2 0x358B PUSH2 0x3586 PUSH1 0x2 PUSH2 0x190D JUMP JUMPDEST PUSH2 0x85F JUMP JUMPDEST SWAP1 PUSH4 0x647A6682 SWAP1 DUP5 SWAP1 SWAP3 DUP1 EXTCODESIZE ISZERO PUSH2 0x364B JUMPI PUSH2 0x35BA PUSH1 0x0 DUP1 SWAP5 PUSH2 0x35C5 PUSH2 0x35AE PUSH2 0x153 JUMP JUMPDEST SWAP8 DUP9 SWAP7 DUP8 SWAP6 DUP7 SWAP5 PUSH2 0x191F JUMP JUMPDEST DUP5 MSTORE PUSH1 0x4 DUP5 ADD PUSH2 0x1935 JUMP JUMPDEST SUB SWAP3 GAS CALL DUP1 ISZERO PUSH2 0x3646 JUMPI PUSH2 0x3619 JUMPI JUMPDEST POP PUSH2 0x3614 PUSH2 0x3602 PUSH32 0xCA9CD3D407E1929A81A936F2D713A37A799F8E396184EA2AF249A3EC3BAD9207 SWAP3 PUSH2 0xF2F JUMP JUMPDEST SWAP3 PUSH2 0x360B PUSH2 0x153 JUMP JUMPDEST SWAP2 DUP3 SWAP2 DUP3 PUSH2 0x1117 JUMP JUMPDEST SUB SWAP1 LOG2 JUMP JUMPDEST PUSH2 0x3639 SWAP1 PUSH1 0x0 RETURNDATASIZE DUP2 GT PUSH2 0x363F JUMPI JUMPDEST PUSH2 0x3631 DUP2 DUP4 PUSH2 0x242 JUMP JUMPDEST DUP2 ADD SWAP1 PUSH2 0x1925 JUMP JUMPDEST CODESIZE PUSH2 0x35D4 JUMP JUMPDEST POP RETURNDATASIZE PUSH2 0x3627 JUMP JUMPDEST PUSH2 0x1864 JUMP JUMPDEST PUSH2 0x191A JUMP JUMPDEST PUSH2 0x3670 SWAP1 PUSH1 0x0 RETURNDATASIZE DUP2 GT PUSH2 0x3676 JUMPI JUMPDEST PUSH2 0x3668 DUP2 DUP4 PUSH2 0x242 JUMP JUMPDEST DUP2 ADD SWAP1 PUSH2 0x1925 JUMP JUMPDEST CODESIZE PUSH2 0x3578 JUMP JUMPDEST POP RETURNDATASIZE PUSH2 0x365E JUMP JUMPDEST PUSH2 0x1864 JUMP JUMPDEST PUSH2 0x191A JUMP JUMPDEST PUSH2 0x36A7 SWAP1 PUSH1 0x0 RETURNDATASIZE DUP2 GT PUSH2 0x36AD JUMPI JUMPDEST PUSH2 0x369F DUP2 DUP4 PUSH2 0x242 JUMP JUMPDEST DUP2 ADD SWAP1 PUSH2 0x1925 JUMP JUMPDEST CODESIZE PUSH2 0x351F JUMP JUMPDEST POP RETURNDATASIZE PUSH2 0x3695 JUMP JUMPDEST PUSH2 0x1864 JUMP JUMPDEST PUSH2 0x191A JUMP JUMPDEST PUSH2 0x1864 JUMP JUMPDEST PUSH2 0x36CD PUSH1 0x40 PUSH2 0x26B JUMP JUMPDEST SWAP1 JUMP JUMPDEST PUSH1 0x0 SWAP1 JUMP JUMPDEST PUSH2 0x36DD PUSH2 0x36C3 JUMP JUMPDEST SWAP1 PUSH1 0x20 DUP1 DUP4 PUSH2 0x36EA PUSH2 0x36D0 JUMP JUMPDEST DUP2 MSTORE ADD PUSH2 0x36F5 PUSH2 0x36D0 JUMP JUMPDEST DUP2 MSTORE POP POP JUMP JUMPDEST PUSH2 0x3703 PUSH2 0x36D5 JUMP JUMPDEST SWAP1 JUMP JUMPDEST SWAP2 SWAP1 PUSH1 0x40 DUP4 DUP3 SUB SLT PUSH2 0x3742 JUMPI PUSH2 0x373B SWAP1 PUSH2 0x3720 PUSH1 0x40 PUSH2 0x26B JUMP JUMPDEST SWAP4 PUSH2 0x372E DUP3 PUSH1 0x0 DUP4 ADD PUSH2 0x1BF5 JUMP JUMPDEST PUSH1 0x0 DUP7 ADD MSTORE PUSH1 0x20 ADD PUSH2 0x1BF5 JUMP JUMPDEST PUSH1 0x20 DUP4 ADD MSTORE JUMP JUMPDEST PUSH2 0x1B83 JUMP JUMPDEST SWAP1 PUSH1 0x40 DUP3 DUP3 SUB SLT PUSH2 0x3761 JUMPI PUSH2 0x375E SWAP2 PUSH1 0x0 ADD PUSH2 0x3706 JUMP JUMPDEST SWAP1 JUMP JUMPDEST PUSH2 0x15E JUMP JUMPDEST PUSH1 0x40 PUSH2 0x37AE SWAP2 PUSH2 0x3774 PUSH2 0x36FB JUMP JUMPDEST POP PUSH2 0x3787 PUSH2 0x3782 PUSH1 0x0 PUSH2 0x228E JUMP JUMPDEST PUSH2 0x902 JUMP JUMPDEST PUSH2 0x37A3 PUSH4 0xAA65A43E PUSH2 0x3797 PUSH2 0x153 JUMP JUMPDEST SWAP6 DUP7 SWAP5 DUP6 SWAP4 DUP5 SWAP4 PUSH2 0x191F JUMP JUMPDEST DUP4 MSTORE PUSH1 0x4 DUP4 ADD PUSH2 0x1117 JUMP JUMPDEST SUB SWAP2 GAS STATICCALL SWAP1 DUP2 ISZERO PUSH2 0x37F3 JUMPI PUSH1 0x0 SWAP2 PUSH2 0x37C5 JUMPI JUMPDEST POP SWAP1 JUMP JUMPDEST PUSH2 0x37E6 SWAP2 POP PUSH1 0x40 RETURNDATASIZE DUP2 GT PUSH2 0x37EC JUMPI JUMPDEST PUSH2 0x37DE DUP2 DUP4 PUSH2 0x242 JUMP JUMPDEST DUP2 ADD SWAP1 PUSH2 0x3747 JUMP JUMPDEST CODESIZE PUSH2 0x37C1 JUMP JUMPDEST POP RETURNDATASIZE PUSH2 0x37D4 JUMP JUMPDEST PUSH2 0x1864 JUMP JUMPDEST PUSH32 0x1EC4AECE768E0A04889951ABA20F6CCC89CE203BB47661221E6FDFBB8DEACA0B SWAP1 JUMP JUMPDEST PUSH2 0x3852 PUSH2 0x3859 SWAP5 PUSH2 0x3848 PUSH1 0x60 SWAP5 SWAP9 SWAP8 SWAP6 PUSH2 0x383E PUSH1 0x80 DUP7 ADD SWAP11 PUSH1 0x0 DUP8 ADD SWAP1 PUSH2 0x1480 JUMP JUMPDEST PUSH1 0x20 DUP6 ADD SWAP1 PUSH2 0x110A JUMP JUMPDEST PUSH1 0x40 DUP4 ADD SWAP1 PUSH2 0x110A JUMP JUMPDEST ADD SWAP1 PUSH2 0x1C5 JUMP JUMPDEST JUMP JUMPDEST SLOAD SWAP1 JUMP JUMPDEST SWAP1 JUMP JUMPDEST PUSH2 0x3876 PUSH2 0x3871 PUSH2 0x387B SWAP3 PUSH2 0x385F JUMP JUMPDEST PUSH2 0x834 JUMP JUMPDEST PUSH2 0x1C2 JUMP JUMPDEST SWAP1 JUMP JUMPDEST PUSH1 0x0 PUSH32 0x6368696C64206E6F7420666F756E640000000000000000000000000000000000 SWAP2 ADD MSTORE JUMP JUMPDEST PUSH2 0x38B3 PUSH1 0xF PUSH1 0x20 SWAP3 PUSH2 0x1549 JUMP JUMPDEST PUSH2 0x38BC DUP2 PUSH2 0x387E JUMP JUMPDEST ADD SWAP1 JUMP JUMPDEST PUSH2 0x38D6 SWAP1 PUSH1 0x20 DUP2 ADD SWAP1 PUSH1 0x0 DUP2 DUP4 SUB SWAP2 ADD MSTORE PUSH2 0x38A6 JUMP JUMPDEST SWAP1 JUMP JUMPDEST ISZERO PUSH2 0x38E0 JUMPI JUMP JUMPDEST PUSH2 0x38E8 PUSH2 0x153 JUMP JUMPDEST PUSH3 0x461BCD PUSH1 0xE5 SHL DUP2 MSTORE DUP1 PUSH2 0x38FE PUSH1 0x4 DUP3 ADD PUSH2 0x38C0 JUMP JUMPDEST SUB SWAP1 REVERT JUMPDEST PUSH1 0x1 PUSH2 0x390E SWAP2 ADD PUSH2 0x1C2 JUMP JUMPDEST SWAP1 JUMP JUMPDEST PUSH1 0x0 PUSH32 0x416C7265616479206C696E6B656420746F2074686973206368696C6400000000 SWAP2 ADD MSTORE JUMP JUMPDEST PUSH2 0x3946 PUSH1 0x1C PUSH1 0x20 SWAP3 PUSH2 0x1549 JUMP JUMPDEST PUSH2 0x394F DUP2 PUSH2 0x3911 JUMP JUMPDEST ADD SWAP1 JUMP JUMPDEST PUSH2 0x3969 SWAP1 PUSH1 0x20 DUP2 ADD SWAP1 PUSH1 0x0 DUP2 DUP4 SUB SWAP2 ADD MSTORE PUSH2 0x3939 JUMP JUMPDEST SWAP1 JUMP JUMPDEST ISZERO PUSH2 0x3973 JUMPI JUMP JUMPDEST PUSH2 0x397B PUSH2 0x153 JUMP JUMPDEST PUSH3 0x461BCD PUSH1 0xE5 SHL DUP2 MSTORE DUP1 PUSH2 0x3991 PUSH1 0x4 DUP3 ADD PUSH2 0x3953 JUMP JUMPDEST SUB SWAP1 REVERT JUMPDEST PUSH1 0x0 MSTORE PUSH1 0x20 PUSH1 0x0 KECCAK256 SWAP1 JUMP JUMPDEST PUSH2 0x39A9 DUP2 PUSH2 0x385B JUMP JUMPDEST DUP3 LT ISZERO PUSH2 0x39C4 JUMPI PUSH2 0x39BB PUSH1 0x1 SWAP2 PUSH2 0x3995 JUMP JUMPDEST SWAP2 MUL ADD SWAP1 PUSH1 0x0 SWAP1 JUMP JUMPDEST PUSH2 0x2EC2 JUMP JUMPDEST PUSH2 0x39D2 DUP2 PUSH2 0x2AFE JUMP JUMPDEST DUP3 LT ISZERO PUSH2 0x39ED JUMPI PUSH2 0x39E4 PUSH1 0x3 SWAP2 PUSH2 0x2B36 JUMP JUMPDEST SWAP2 MUL ADD SWAP1 PUSH1 0x0 SWAP1 JUMP JUMPDEST PUSH2 0x2EC2 JUMP JUMPDEST PUSH2 0x39FC SWAP1 SLOAD PUSH2 0x2B65 JUMP JUMPDEST SWAP1 JUMP JUMPDEST SWAP1 DUP1 DUP3 EQ PUSH2 0x3AE1 JUMPI PUSH2 0x3A10 DUP2 PUSH2 0x39F2 JUMP JUMPDEST SWAP1 PUSH8 0xFFFFFFFFFFFFFFFF DUP3 GT PUSH2 0x3ADC JUMPI PUSH2 0x3A34 DUP3 PUSH2 0x3A2E DUP6 SLOAD PUSH2 0x2B65 JUMP JUMPDEST DUP6 PUSH2 0x301F JUMP JUMPDEST PUSH1 0x0 SWAP1 PUSH1 0x1F DUP4 GT PUSH1 0x1 EQ PUSH2 0x3A69 JUMPI SWAP2 DUP1 SWAP2 PUSH2 0x3A58 SWAP4 PUSH1 0x0 SWAP3 PUSH2 0x3A5D JUMPI JUMPDEST POP POP PUSH2 0x308C JUMP JUMPDEST SWAP1 SSTORE JUMPDEST JUMP JUMPDEST SWAP1 SWAP2 POP ADD SLOAD CODESIZE DUP1 PUSH2 0x3A51 JUMP JUMPDEST SWAP1 PUSH2 0x3A78 PUSH1 0x1F NOT DUP5 AND SWAP3 PUSH2 0x2B8F JUMP JUMPDEST SWAP1 PUSH2 0x3A82 DUP6 PUSH2 0x2B8F JUMP JUMPDEST SWAP3 PUSH1 0x0 JUMPDEST DUP2 DUP2 LT PUSH2 0x3AC4 JUMPI POP SWAP2 PUSH1 0x2 SWAP4 SWAP2 DUP6 PUSH1 0x1 SWAP7 SWAP5 LT PUSH2 0x3AAA JUMPI JUMPDEST POP POP POP MUL ADD SWAP1 SSTORE PUSH2 0x3A5B JUMP JUMPDEST PUSH2 0x3ABA SWAP2 ADD SLOAD PUSH1 0x1F DUP5 AND SWAP1 PUSH2 0x3076 JUMP JUMPDEST SWAP1 SSTORE CODESIZE DUP1 DUP1 PUSH2 0x3A9E JUMP JUMPDEST SWAP2 SWAP4 PUSH1 0x1 DUP1 PUSH1 0x20 SWAP3 DUP8 DUP8 ADD SLOAD DUP2 SSTORE ADD SWAP6 ADD SWAP3 ADD PUSH2 0x3A86 JUMP JUMPDEST PUSH2 0x22C JUMP JUMPDEST POP POP JUMP JUMPDEST SWAP1 PUSH2 0x3AEF SWAP2 PUSH2 0x39FF JUMP JUMPDEST JUMP JUMPDEST SWAP1 DUP1 DUP3 SUB PUSH2 0x3AFE JUMPI JUMPDEST POP POP JUMP JUMPDEST PUSH2 0x3B3A PUSH1 0x2 DUP1 DUP5 PUSH2 0x3B21 PUSH1 0x0 PUSH2 0x3B40 SWAP8 ADD PUSH2 0x3B1B PUSH1 0x0 DUP9 ADD PUSH2 0x153C JUMP JUMPDEST SWAP1 PUSH2 0x2F5F JUMP JUMPDEST PUSH2 0x3B32 PUSH1 0x1 DUP3 ADD PUSH1 0x1 DUP8 ADD SWAP1 PUSH2 0x3AE5 JUMP JUMPDEST ADD SWAP3 ADD PUSH2 0x14FC JUMP JUMPDEST SWAP1 PUSH2 0x1740 JUMP JUMPDEST CODESIZE DUP1 PUSH2 0x3AFA JUMP JUMPDEST SWAP2 SWAP1 PUSH2 0x3B58 JUMPI PUSH2 0x3B56 SWAP2 PUSH2 0x3AF1 JUMP JUMPDEST JUMP JUMPDEST PUSH2 0x2F7F JUMP JUMPDEST SWAP1 DUP2 SLOAD SWAP2 PUSH9 0x10000000000000000 DUP4 LT ISZERO PUSH2 0x3B8D JUMPI DUP3 PUSH2 0x3B85 SWAP2 PUSH1 0x1 PUSH2 0x3B8B SWAP6 ADD DUP2 SSTORE PUSH2 0x2EE3 JUMP JUMPDEST SWAP1 PUSH2 0x3B47 JUMP JUMPDEST JUMP JUMPDEST PUSH2 0x22C JUMP JUMPDEST SWAP5 SWAP3 PUSH1 0x20 SWAP3 PUSH2 0x3C88 PUSH1 0x0 SWAP4 SWAP7 PUSH2 0x3BC3 CALLER PUSH2 0x3BBD PUSH2 0x3BB7 PUSH2 0x3BB2 PUSH1 0x3 PUSH2 0x153C JUMP JUMPDEST PUSH2 0x173 JUMP JUMPDEST SWAP2 PUSH2 0x173 JUMP JUMPDEST EQ PUSH2 0x15D3 JUMP JUMPDEST PUSH2 0x3BCB PUSH2 0x4495 JUMP JUMPDEST PUSH2 0x3C62 DUP10 PUSH2 0x3C2A DUP13 PUSH2 0x3C1C PUSH2 0x3BDE PUSH2 0x37F8 JUMP JUMPDEST SWAP2 PUSH2 0x3BEC DUP2 SWAP6 SWAP2 PUSH1 0x4 PUSH2 0xF3B JUMP JUMPDEST PUSH2 0x3C08 PUSH2 0x3BF8 DUP3 PUSH2 0x14FC JUMP JUMPDEST SWAP2 PUSH2 0x3C02 DUP4 PUSH2 0x16E7 JUMP JUMPDEST SWAP1 PUSH2 0x1740 JUMP JUMPDEST SWAP1 PUSH2 0x3C11 PUSH2 0x153 JUMP JUMPDEST SWAP6 DUP7 SWAP5 DUP16 DUP7 ADD PUSH2 0x381C JUMP JUMPDEST DUP12 DUP3 ADD DUP2 SUB DUP3 MSTORE SUB DUP3 PUSH2 0x242 JUMP JUMPDEST PUSH2 0x3C3C PUSH2 0x3C36 DUP3 PUSH2 0x16CD JUMP JUMPDEST SWAP2 PUSH2 0x16C7 JUMP JUMPDEST KECCAK256 SWAP2 PUSH2 0x3C54 PUSH2 0x3C49 PUSH2 0x153 JUMP JUMPDEST SWAP4 DUP5 SWAP3 DUP12 DUP5 ADD PUSH2 0x17F1 JUMP JUMPDEST DUP10 DUP3 ADD DUP2 SUB DUP3 MSTORE SUB DUP3 PUSH2 0x242 JUMP JUMPDEST PUSH2 0x3C74 PUSH2 0x3C6E DUP3 PUSH2 0x16CD JUMP JUMPDEST SWAP2 PUSH2 0x16C7 JUMP JUMPDEST KECCAK256 SWAP3 SWAP4 PUSH2 0x3C7F PUSH2 0x153 JUMP JUMPDEST SWAP5 DUP6 SWAP5 DUP6 PUSH2 0x1825 JUMP JUMPDEST DUP4 DUP1 MSTORE SUB SWAP1 PUSH1 0x1 GAS STATICCALL ISZERO PUSH2 0x3E40 JUMPI PUSH2 0x3CBC PUSH2 0x3CA4 PUSH1 0x0 MLOAD PUSH2 0x1704 JUMP JUMPDEST PUSH2 0x3CB6 PUSH2 0x3CB0 DUP7 PUSH2 0x173 JUMP JUMPDEST SWAP2 PUSH2 0x173 JUMP JUMPDEST EQ PUSH2 0x18D0 JUMP JUMPDEST PUSH2 0x3CED PUSH2 0x3CD3 PUSH2 0x3CCE PUSH1 0x6 DUP6 SWAP1 PUSH2 0x317B JUMP JUMPDEST PUSH2 0x385B JUMP JUMPDEST PUSH2 0x3CE6 PUSH2 0x3CE0 PUSH1 0x0 PUSH2 0x3862 JUMP JUMPDEST SWAP2 PUSH2 0x1C2 JUMP JUMPDEST EQ ISZERO PUSH2 0x38D9 JUMP JUMPDEST PUSH2 0x3D01 PUSH2 0x3CFC PUSH1 0x5 DUP6 SWAP1 PUSH2 0x2AE6 JUMP JUMPDEST PUSH2 0x2EBB JUMP JUMPDEST SWAP1 PUSH2 0x3D0C PUSH1 0x0 PUSH2 0x3862 JUMP JUMPDEST JUMPDEST DUP1 PUSH2 0x3D28 PUSH2 0x3D22 PUSH2 0x3D1D DUP7 PUSH2 0x2EBE JUMP JUMPDEST PUSH2 0x1C2 JUMP JUMPDEST SWAP2 PUSH2 0x1C2 JUMP JUMPDEST LT ISZERO PUSH2 0x3D6F JUMPI PUSH2 0x3D6A SWAP1 PUSH2 0x3D65 PUSH2 0x3D4C PUSH1 0x0 PUSH2 0x3D45 DUP8 DUP6 SWAP1 PUSH2 0x2EE3 JUMP JUMPDEST POP ADD PUSH2 0x153C JUMP JUMPDEST PUSH2 0x3D5E PUSH2 0x3D58 DUP9 PUSH2 0x173 JUMP JUMPDEST SWAP2 PUSH2 0x173 JUMP JUMPDEST EQ ISZERO PUSH2 0x396C JUMP JUMPDEST PUSH2 0x3902 JUMP JUMPDEST PUSH2 0x3D0D JUMP JUMPDEST POP SWAP3 SWAP1 POP PUSH2 0x3DD6 PUSH2 0x3DBD PUSH2 0x3DB7 PUSH2 0x3D9C PUSH2 0x3D96 PUSH2 0x3D8E PUSH1 0x6 DUP9 SWAP1 PUSH2 0x317B JUMP JUMPDEST PUSH1 0x0 SWAP1 PUSH2 0x39A0 JUMP JUMPDEST SWAP1 PUSH2 0x10EC JUMP JUMPDEST PUSH2 0x3DB2 PUSH2 0x3DAA DUP3 DUP9 SWAP1 PUSH2 0x4582 JUMP JUMPDEST SWAP2 PUSH1 0x5 PUSH2 0x2AE6 JUMP JUMPDEST PUSH2 0x39C9 JUMP JUMPDEST POP PUSH2 0x2F3E JUMP JUMPDEST PUSH2 0x3DD1 PUSH2 0x3DCC PUSH1 0x5 DUP6 SWAP1 PUSH2 0x2AE6 JUMP JUMPDEST PUSH2 0x2EBB JUMP JUMPDEST PUSH2 0x3B5D JUMP JUMPDEST PUSH2 0x3DF4 PUSH2 0x3DED PUSH2 0x3DE8 PUSH1 0x6 DUP6 SWAP1 PUSH2 0x317B JUMP JUMPDEST PUSH2 0x3193 JUMP JUMPDEST DUP3 SWAP1 PUSH2 0x321A JUMP JUMPDEST SWAP1 PUSH2 0x3E28 PUSH2 0x3E22 PUSH32 0x67A834331CE532B16F83BFC8251D8EB0EB155BA5E222FA98D74D93C9907FEDAC SWAP4 PUSH2 0xF2F JUMP JUMPDEST SWAP2 PUSH2 0xF2F JUMP JUMPDEST SWAP2 PUSH2 0x3E31 PUSH2 0x153 JUMP JUMPDEST DUP1 PUSH2 0x3E3B DUP2 PUSH2 0x490 JUMP JUMPDEST SUB SWAP1 LOG3 JUMP JUMPDEST PUSH2 0x1864 JUMP JUMPDEST PUSH1 0x0 SWAP1 JUMP JUMPDEST PUSH1 0x0 PUSH32 0x4E6F206368696C6420666F756E64000000000000000000000000000000000000 SWAP2 ADD MSTORE JUMP JUMPDEST PUSH2 0x3E7F PUSH1 0xE PUSH1 0x20 SWAP3 PUSH2 0x1549 JUMP JUMPDEST PUSH2 0x3E88 DUP2 PUSH2 0x3E4A JUMP JUMPDEST ADD SWAP1 JUMP JUMPDEST PUSH2 0x3EA2 SWAP1 PUSH1 0x20 DUP2 ADD SWAP1 PUSH1 0x0 DUP2 DUP4 SUB SWAP2 ADD MSTORE PUSH2 0x3E72 JUMP JUMPDEST SWAP1 JUMP JUMPDEST ISZERO PUSH2 0x3EAC JUMPI JUMP JUMPDEST PUSH2 0x3EB4 PUSH2 0x153 JUMP JUMPDEST PUSH3 0x461BCD PUSH1 0xE5 SHL DUP2 MSTORE DUP1 PUSH2 0x3ECA PUSH1 0x4 DUP3 ADD PUSH2 0x3E8C JUMP JUMPDEST SUB SWAP1 REVERT JUMPDEST SWAP1 PUSH1 0x0 SWAP3 SWAP2 DUP1 SLOAD SWAP1 PUSH2 0x3EE9 PUSH2 0x3EE2 DUP4 PUSH2 0x2B65 JUMP JUMPDEST DUP1 SWAP5 PUSH2 0x17AE JUMP JUMPDEST SWAP2 PUSH1 0x1 DUP2 AND SWAP1 DUP2 PUSH1 0x0 EQ PUSH2 0x3F3D JUMPI POP PUSH1 0x1 EQ PUSH2 0x3F05 JUMPI JUMPDEST POP POP POP JUMP JUMPDEST PUSH2 0x3F12 SWAP2 SWAP3 SWAP4 SWAP5 POP PUSH2 0x2B8F JUMP JUMPDEST PUSH1 0x0 SWAP1 JUMPDEST DUP4 DUP3 LT PUSH2 0x3F29 JUMPI POP POP ADD SWAP1 CODESIZE DUP1 DUP1 PUSH2 0x3F00 JUMP JUMPDEST PUSH1 0x1 DUP2 PUSH1 0x20 SWAP3 SLOAD DUP5 DUP7 ADD MSTORE ADD SWAP2 ADD SWAP1 PUSH2 0x3F16 JUMP JUMPDEST SWAP3 SWAP5 SWAP6 POP POP POP PUSH1 0xFF NOT AND DUP3 MSTORE DUP1 ISZERO ISZERO MUL ADD SWAP1 CODESIZE DUP1 DUP1 PUSH2 0x3F00 JUMP JUMPDEST PUSH2 0x3F60 SWAP2 PUSH2 0x3ECE JUMP JUMPDEST SWAP1 JUMP JUMPDEST PUSH2 0x3F6C SWAP2 PUSH2 0x2E21 JUMP JUMPDEST SWAP1 JUMP JUMPDEST PUSH1 0x20 PUSH32 0x756E640000000000000000000000000000000000000000000000000000000000 SWAP2 PUSH32 0x6368696C6420776974682074686520676976656E206E616D65206E6F7420666F PUSH1 0x0 DUP3 ADD MSTORE ADD MSTORE JUMP JUMPDEST PUSH2 0x3FCA PUSH1 0x23 PUSH1 0x40 SWAP3 PUSH2 0x1549 JUMP JUMPDEST PUSH2 0x3FD3 DUP2 PUSH2 0x3F6F JUMP JUMPDEST ADD SWAP1 JUMP JUMPDEST PUSH2 0x3FED SWAP1 PUSH1 0x20 DUP2 ADD SWAP1 PUSH1 0x0 DUP2 DUP4 SUB SWAP2 ADD MSTORE PUSH2 0x3FBD JUMP JUMPDEST SWAP1 JUMP JUMPDEST PUSH2 0x3FF8 PUSH2 0x3E45 JUMP JUMPDEST POP PUSH2 0x400D PUSH2 0x4008 PUSH1 0x5 CALLER SWAP1 PUSH2 0x2AE6 JUMP JUMPDEST PUSH2 0x2EBB JUMP JUMPDEST PUSH2 0x4016 DUP2 PUSH2 0x2EBE JUMP JUMPDEST SWAP2 PUSH2 0x4034 DUP4 PUSH2 0x402E PUSH2 0x4028 PUSH1 0x0 PUSH2 0x3862 JUMP JUMPDEST SWAP2 PUSH2 0x1C2 JUMP JUMPDEST GT PUSH2 0x3EA5 JUMP JUMPDEST PUSH2 0x403E PUSH1 0x0 PUSH2 0x3862 JUMP JUMPDEST JUMPDEST DUP1 PUSH2 0x4052 PUSH2 0x404C DUP7 PUSH2 0x1C2 JUMP JUMPDEST SWAP2 PUSH2 0x1C2 JUMP JUMPDEST LT ISZERO PUSH2 0x4120 JUMPI PUSH2 0x4081 PUSH2 0x4090 PUSH1 0x1 PUSH2 0x406B DUP7 DUP6 SWAP1 PUSH2 0x2EE3 JUMP JUMPDEST POP ADD PUSH2 0x4075 PUSH2 0x153 JUMP JUMPDEST SWAP3 DUP4 SWAP2 PUSH1 0x20 DUP4 ADD PUSH2 0x3F57 JUMP JUMPDEST PUSH1 0x20 DUP3 ADD DUP2 SUB DUP3 MSTORE SUB DUP3 PUSH2 0x242 JUMP JUMPDEST PUSH2 0x40A2 PUSH2 0x409C DUP3 PUSH2 0x16CD JUMP JUMPDEST SWAP2 PUSH2 0x16C7 JUMP JUMPDEST KECCAK256 PUSH2 0x40F1 PUSH2 0x40EB PUSH2 0x40C4 PUSH2 0x40D3 DUP7 PUSH2 0x40B8 PUSH2 0x153 JUMP JUMPDEST SWAP3 DUP4 SWAP2 PUSH1 0x20 DUP4 ADD PUSH2 0x3F63 JUMP JUMPDEST PUSH1 0x20 DUP3 ADD DUP2 SUB DUP3 MSTORE SUB DUP3 PUSH2 0x242 JUMP JUMPDEST PUSH2 0x40E5 PUSH2 0x40DF DUP3 PUSH2 0x16CD JUMP JUMPDEST SWAP2 PUSH2 0x16C7 JUMP JUMPDEST KECCAK256 PUSH2 0x3EC JUMP JUMPDEST SWAP2 PUSH2 0x3EC JUMP JUMPDEST EQ PUSH2 0x4104 JUMPI PUSH2 0x40FF SWAP1 PUSH2 0x3902 JUMP JUMPDEST PUSH2 0x403F JUMP JUMPDEST PUSH2 0x411D SWAP4 POP PUSH2 0x4116 SWAP2 POP PUSH1 0x0 SWAP3 PUSH2 0x2EE3 JUMP JUMPDEST POP ADD PUSH2 0x153C JUMP JUMPDEST SWAP1 JUMP JUMPDEST PUSH2 0x4128 PUSH2 0x153 JUMP JUMPDEST PUSH3 0x461BCD PUSH1 0xE5 SHL DUP2 MSTORE DUP1 PUSH2 0x413E PUSH1 0x4 DUP3 ADD PUSH2 0x3FD7 JUMP JUMPDEST SUB SWAP1 REVERT JUMPDEST PUSH2 0x414C PUSH1 0x40 PUSH2 0x26B JUMP JUMPDEST SWAP1 JUMP JUMPDEST PUSH1 0x60 SWAP1 JUMP JUMPDEST PUSH2 0x415C PUSH2 0x4142 JUMP JUMPDEST SWAP1 PUSH1 0x20 DUP1 DUP4 PUSH2 0x4169 PUSH2 0x414F JUMP JUMPDEST DUP2 MSTORE ADD PUSH2 0x4174 PUSH2 0x414F JUMP JUMPDEST DUP2 MSTORE POP POP JUMP JUMPDEST PUSH2 0x4182 PUSH2 0x4154 JUMP JUMPDEST SWAP1 JUMP JUMPDEST PUSH8 0xFFFFFFFFFFFFFFFF DUP2 GT PUSH2 0x419D JUMPI PUSH1 0x20 DUP1 SWAP2 MUL ADD SWAP1 JUMP JUMPDEST PUSH2 0x22C JUMP JUMPDEST SWAP3 SWAP2 SWAP1 PUSH2 0x41B6 PUSH2 0x41B1 DUP3 PUSH2 0x4185 JUMP JUMPDEST PUSH2 0x26B JUMP JUMPDEST SWAP4 DUP2 DUP6 MSTORE PUSH1 0x20 DUP1 DUP7 ADD SWAP3 MUL DUP2 ADD SWAP2 DUP4 DUP4 GT PUSH2 0x420D JUMPI DUP2 SWAP1 JUMPDEST DUP4 DUP3 LT PUSH2 0x41DC JUMPI POP POP POP POP POP JUMP JUMPDEST DUP2 MLOAD PUSH8 0xFFFFFFFFFFFFFFFF DUP2 GT PUSH2 0x4208 JUMPI PUSH1 0x20 SWAP2 PUSH2 0x41FD DUP8 DUP5 SWAP4 DUP8 ADD PUSH2 0x1C31 JUMP JUMPDEST DUP2 MSTORE ADD SWAP2 ADD SWAP1 PUSH2 0x41CE JUMP JUMPDEST PUSH2 0x21D JUMP JUMPDEST PUSH2 0x29D JUMP JUMPDEST SWAP1 DUP1 PUSH1 0x1F DUP4 ADD SLT ISZERO PUSH2 0x4230 JUMPI DUP2 PUSH1 0x20 PUSH2 0x422D SWAP4 MLOAD SWAP2 ADD PUSH2 0x41A2 JUMP JUMPDEST SWAP1 JUMP JUMPDEST PUSH2 0x21D JUMP JUMPDEST SWAP2 SWAP1 SWAP2 PUSH1 0x40 DUP2 DUP5 SUB SLT PUSH2 0x42A1 JUMPI PUSH2 0x424C PUSH1 0x40 PUSH2 0x26B JUMP JUMPDEST SWAP3 PUSH1 0x0 DUP3 ADD MLOAD PUSH8 0xFFFFFFFFFFFFFFFF DUP2 GT PUSH2 0x429C JUMPI DUP2 PUSH2 0x426D SWAP2 DUP5 ADD PUSH2 0x4212 JUMP JUMPDEST PUSH1 0x0 DUP6 ADD MSTORE PUSH1 0x20 DUP3 ADD MLOAD PUSH8 0xFFFFFFFFFFFFFFFF DUP2 GT PUSH2 0x4297 JUMPI PUSH2 0x4290 SWAP3 ADD PUSH2 0x4212 JUMP JUMPDEST PUSH1 0x20 DUP4 ADD MSTORE JUMP JUMPDEST PUSH2 0x1B88 JUMP JUMPDEST PUSH2 0x1B88 JUMP JUMPDEST PUSH2 0x1B83 JUMP JUMPDEST SWAP1 PUSH1 0x20 DUP3 DUP3 SUB SLT PUSH2 0x42D7 JUMPI PUSH1 0x0 DUP3 ADD MLOAD PUSH8 0xFFFFFFFFFFFFFFFF DUP2 GT PUSH2 0x42D2 JUMPI PUSH2 0x42CF SWAP3 ADD PUSH2 0x4235 JUMP JUMPDEST SWAP1 JUMP JUMPDEST PUSH2 0x163 JUMP JUMPDEST PUSH2 0x15E JUMP JUMPDEST PUSH1 0x0 PUSH2 0x4324 SWAP2 PUSH2 0x42EA PUSH2 0x417A JUMP JUMPDEST POP PUSH2 0x42FD PUSH2 0x42F8 PUSH1 0x2 PUSH2 0x190D JUMP JUMPDEST PUSH2 0x85F JUMP JUMPDEST PUSH2 0x4319 PUSH4 0xEB607DB1 PUSH2 0x430D PUSH2 0x153 JUMP JUMPDEST SWAP6 DUP7 SWAP5 DUP6 SWAP4 DUP5 SWAP4 PUSH2 0x191F JUMP JUMPDEST DUP4 MSTORE PUSH1 0x4 DUP4 ADD PUSH2 0x1117 JUMP JUMPDEST SUB SWAP2 GAS STATICCALL SWAP1 DUP2 ISZERO PUSH2 0x435E JUMPI PUSH1 0x0 SWAP2 PUSH2 0x433B JUMPI JUMPDEST POP SWAP1 JUMP JUMPDEST PUSH2 0x4358 SWAP2 POP RETURNDATASIZE DUP1 PUSH1 0x0 DUP4 RETURNDATACOPY PUSH2 0x4350 DUP2 DUP4 PUSH2 0x242 JUMP JUMPDEST DUP2 ADD SWAP1 PUSH2 0x42A6 JUMP JUMPDEST CODESIZE PUSH2 0x4337 JUMP JUMPDEST PUSH2 0x1864 JUMP JUMPDEST PUSH1 0x0 SWAP1 JUMP JUMPDEST PUSH32 0x8B73C3C69BB8FE3D512ECC4CF759CC79239F7B179B0FFACAA9A75D522B39400F SWAP1 JUMP JUMPDEST SWAP1 PUSH2 0x439E PUSH2 0x4399 DUP4 PUSH2 0x2A7 JUMP JUMPDEST PUSH2 0x26B JUMP JUMPDEST SWAP2 DUP3 MSTORE JUMP JUMPDEST PUSH1 0x0 PUSH32 0x506172656E744368696C6452656C6174696F6E73686970000000000000000000 SWAP2 ADD MSTORE JUMP JUMPDEST PUSH2 0x43D5 PUSH1 0x17 PUSH2 0x438C JUMP JUMPDEST SWAP1 PUSH2 0x43E2 PUSH1 0x20 DUP4 ADD PUSH2 0x43A3 JUMP JUMPDEST JUMP JUMPDEST PUSH2 0x43EC PUSH2 0x43CB JUMP JUMPDEST SWAP1 JUMP JUMPDEST PUSH1 0x0 PUSH32 0x3100000000000000000000000000000000000000000000000000000000000000 SWAP2 ADD MSTORE JUMP JUMPDEST PUSH2 0x4421 PUSH1 0x1 PUSH2 0x438C JUMP JUMPDEST SWAP1 PUSH2 0x442E PUSH1 0x20 DUP4 ADD PUSH2 0x43EF JUMP JUMPDEST JUMP JUMPDEST PUSH2 0x4438 PUSH2 0x4417 JUMP JUMPDEST SWAP1 JUMP JUMPDEST PUSH2 0x4444 SWAP1 PUSH2 0x853 JUMP JUMPDEST SWAP1 JUMP JUMPDEST SWAP1 SWAP6 SWAP5 SWAP3 PUSH2 0x4493 SWAP5 PUSH2 0x4482 PUSH2 0x448C SWAP3 PUSH2 0x4478 PUSH1 0x80 SWAP7 PUSH2 0x446E PUSH1 0xA0 DUP9 ADD SWAP13 PUSH1 0x0 DUP10 ADD SWAP1 PUSH2 0x1480 JUMP JUMPDEST PUSH1 0x20 DUP8 ADD SWAP1 PUSH2 0x1480 JUMP JUMPDEST PUSH1 0x40 DUP6 ADD SWAP1 PUSH2 0x1480 JUMP JUMPDEST PUSH1 0x60 DUP4 ADD SWAP1 PUSH2 0x1C5 JUMP JUMPDEST ADD SWAP1 PUSH2 0x110A JUMP JUMPDEST JUMP JUMPDEST PUSH2 0x449D PUSH2 0x4363 JUMP JUMPDEST POP PUSH2 0x44A6 PUSH2 0x4368 JUMP JUMPDEST PUSH2 0x4511 PUSH2 0x44B1 PUSH2 0x43E4 JUMP JUMPDEST PUSH2 0x44C3 PUSH2 0x44BD DUP3 PUSH2 0x16CD JUMP JUMPDEST SWAP2 PUSH2 0x16C7 JUMP JUMPDEST KECCAK256 SWAP2 PUSH2 0x4502 PUSH2 0x44D0 PUSH2 0x4430 JUMP JUMPDEST PUSH2 0x44E2 PUSH2 0x44DC DUP3 PUSH2 0x16CD JUMP JUMPDEST SWAP2 PUSH2 0x16C7 JUMP JUMPDEST KECCAK256 CHAINID PUSH2 0x44ED ADDRESS PUSH2 0x443B JUMP JUMPDEST SWAP2 PUSH2 0x44F6 PUSH2 0x153 JUMP JUMPDEST SWAP7 DUP8 SWAP6 PUSH1 0x20 DUP8 ADD PUSH2 0x4447 JUMP JUMPDEST PUSH1 0x20 DUP3 ADD DUP2 SUB DUP3 MSTORE SUB DUP3 PUSH2 0x242 JUMP JUMPDEST PUSH2 0x4523 PUSH2 0x451D DUP3 PUSH2 0x16CD JUMP JUMPDEST SWAP2 PUSH2 0x16C7 JUMP JUMPDEST KECCAK256 SWAP1 JUMP JUMPDEST PUSH1 0x0 PUSH32 0x4368696C64206E6F7420666F756E640000000000000000000000000000000000 SWAP2 ADD MSTORE JUMP JUMPDEST PUSH2 0x455C PUSH1 0xF PUSH1 0x20 SWAP3 PUSH2 0x1549 JUMP JUMPDEST PUSH2 0x4565 DUP2 PUSH2 0x4527 JUMP JUMPDEST ADD SWAP1 JUMP JUMPDEST PUSH2 0x457F SWAP1 PUSH1 0x20 DUP2 ADD SWAP1 PUSH1 0x0 DUP2 DUP4 SUB SWAP2 ADD MSTORE PUSH2 0x454F JUMP JUMPDEST SWAP1 JUMP JUMPDEST PUSH2 0x4599 PUSH2 0x459E SWAP2 PUSH2 0x4591 PUSH2 0x14DD JUMP JUMPDEST POP PUSH1 0x5 PUSH2 0x2AE6 JUMP JUMPDEST PUSH2 0x2EBB JUMP JUMPDEST SWAP1 PUSH2 0x45A9 PUSH1 0x0 PUSH2 0x3862 JUMP JUMPDEST JUMPDEST DUP1 PUSH2 0x45C5 PUSH2 0x45BF PUSH2 0x45BA DUP7 PUSH2 0x2EBE JUMP JUMPDEST PUSH2 0x1C2 JUMP JUMPDEST SWAP2 PUSH2 0x1C2 JUMP JUMPDEST LT ISZERO PUSH2 0x460D JUMPI PUSH2 0x45E2 PUSH1 0x0 PUSH2 0x45DB DUP6 DUP5 SWAP1 PUSH2 0x2EE3 JUMP JUMPDEST POP ADD PUSH2 0x153C JUMP JUMPDEST PUSH2 0x45F4 PUSH2 0x45EE DUP5 PUSH2 0x173 JUMP JUMPDEST SWAP2 PUSH2 0x173 JUMP JUMPDEST EQ PUSH2 0x4607 JUMPI PUSH2 0x4602 SWAP1 PUSH2 0x3902 JUMP JUMPDEST PUSH2 0x45AA JUMP JUMPDEST SWAP2 POP POP SWAP1 JUMP JUMPDEST PUSH2 0x4615 PUSH2 0x153 JUMP JUMPDEST PUSH3 0x461BCD PUSH1 0xE5 SHL DUP2 MSTORE DUP1 PUSH2 0x462B PUSH1 0x4 DUP3 ADD PUSH2 0x4569 JUMP JUMPDEST SUB SWAP1 REVERT INVALID LOG2 PUSH5 0x6970667358 0x22 SLT KECCAK256 SWAP10 CALLER SWAP14 0xA6 SGT COINBASE SWAP12 0xD2 PUSH30 0xCFFEC49819A933FC5F8459CBBD424DC814BC0CB8B03E8764736F6C634300 ADDMOD SHL STOP CALLER "},"methodIdentifiers":{"executeMetaAddMedicalHistory(address,address,uint8,string,string,string,string,string,uint8,bytes32,bytes32)":"59d5ad1b","executeMetaConnectChild(address,address,uint8,bytes32,bytes32)":"ac8f30cd","executeMetaCreateChild(address,string,uint256,uint16,uint16,string[],uint8,bytes32,bytes32)":"8bebe053","executeMetaSetHealthInformation(address,address,uint16,uint16,uint8,bytes32,bytes32)":"4c585913","executeMetaUpdateMultipleVaccination(address,address,string[],uint8,bytes32,bytes32)":"3496df35","executeMetaUpdateVaccination(address,address,string,uint8,bytes32,bytes32)":"60e9d663","getDomainSeparator()":"ed24911d","getHealthInformation(address)":"aa65a43e","getMedicalHistoriesForChild(address)":"431e79c4","getNonce(address)":"2d0335ab","getVaccinationDDay(address,uint256)":"375ffc73","healthInformationContract()":"3e030d06","medicalHistoryContract()":"c9d461c5","nonces(address)":"7ecebe00","owner()":"8da5cb5b","returnChildAddress(string)":"e50cde76","returnChildInformation()":"7ccf76c0","returnChildVaccinationStatus(address)":"eb607db1","vaccinationManagementContract()":"3cfedb84"}}}}}