{"contracts/MetaParentChildRelationship.sol":{"ParentChildRelationshipWithMeta":{"abi":[{"inputs":[{"internalType":"address","name":"_healthInformationContractAddress","type":"address"},{"internalType":"address","name":"_medicalHistoryContractAddress","type":"address"},{"internalType":"address","name":"_vaccinationManagementContractAddress","type":"address"}],"stateMutability":"nonpayable","type":"constructor"},{"anonymous":false,"inputs":[{"indexed":true,"internalType":"address","name":"parentAddress","type":"address"},{"indexed":true,"internalType":"address","name":"childAddress","type":"address"}],"name":"ConnectChild","type":"event"},{"anonymous":false,"inputs":[{"indexed":true,"internalType":"address","name":"parentAddress","type":"address"},{"indexed":false,"internalType":"address","name":"childAddress","type":"address"}],"name":"CreateChild","type":"event"},{"inputs":[{"internalType":"address","name":"parent","type":"address"},{"internalType":"address","name":"childAddress","type":"address"},{"internalType":"enum MedicalHistory.MedicalType","name":"medicalType","type":"uint8"},{"internalType":"string","name":"visitedName","type":"string"},{"internalType":"string","name":"timestamp","type":"string"},{"internalType":"string","name":"doctorName","type":"string"},{"internalType":"string","name":"symptoms","type":"string"},{"internalType":"string","name":"diagnosisDetails","type":"string"},{"internalType":"uint8","name":"v","type":"uint8"},{"internalType":"bytes32","name":"r","type":"bytes32"},{"internalType":"bytes32","name":"s","type":"bytes32"}],"name":"executeMetaAddMedicalHistory","outputs":[],"stateMutability":"nonpayable","type":"function"},{"inputs":[{"internalType":"address","name":"parent","type":"address"},{"internalType":"address","name":"childAddress","type":"address"},{"internalType":"uint8","name":"v","type":"uint8"},{"internalType":"bytes32","name":"r","type":"bytes32"},{"internalType":"bytes32","name":"s","type":"bytes32"}],"name":"executeMetaConnectChild","outputs":[],"stateMutability":"nonpayable","type":"function"},{"inputs":[{"internalType":"address","name":"parent","type":"address"},{"internalType":"string","name":"name","type":"string"},{"internalType":"uint256","name":"birthDate","type":"uint256"},{"internalType":"uint16","name":"height","type":"uint16"},{"internalType":"uint16","name":"weight","type":"uint16"},{"internalType":"uint8","name":"v","type":"uint8"},{"internalType":"bytes32","name":"r","type":"bytes32"},{"internalType":"bytes32","name":"s","type":"bytes32"}],"name":"executeMetaCreateChild","outputs":[],"stateMutability":"nonpayable","type":"function"},{"inputs":[{"internalType":"address","name":"parent","type":"address"},{"internalType":"address","name":"childAddress","type":"address"},{"internalType":"uint16","name":"height","type":"uint16"},{"internalType":"uint16","name":"weight","type":"uint16"},{"internalType":"uint8","name":"v","type":"uint8"},{"internalType":"bytes32","name":"r","type":"bytes32"},{"internalType":"bytes32","name":"s","type":"bytes32"}],"name":"executeMetaSetHealthInformation","outputs":[],"stateMutability":"nonpayable","type":"function"},{"inputs":[{"internalType":"address","name":"parent","type":"address"},{"internalType":"address","name":"childAddress","type":"address"},{"components":[{"internalType":"string","name":"vaccineName","type":"string"},{"internalType":"uint8","name":"vaccineChapter","type":"uint8"},{"internalType":"uint256","name":"administerDate","type":"uint256"}],"internalType":"struct VaccinationManagement.VaccinationInput[]","name":"vaccinations","type":"tuple[]"},{"internalType":"uint8","name":"v","type":"uint8"},{"internalType":"bytes32","name":"r","type":"bytes32"},{"internalType":"bytes32","name":"s","type":"bytes32"}],"name":"executeMetaUpdateMultipleVaccination","outputs":[],"stateMutability":"nonpayable","type":"function"},{"inputs":[{"internalType":"address","name":"parent","type":"address"},{"internalType":"address","name":"childAddress","type":"address"},{"internalType":"string","name":"vaccineName","type":"string"},{"internalType":"uint8","name":"vaccineChapter","type":"uint8"},{"internalType":"uint256","name":"administeredDate","type":"uint256"},{"internalType":"uint8","name":"v","type":"uint8"},{"internalType":"bytes32","name":"r","type":"bytes32"},{"internalType":"bytes32","name":"s","type":"bytes32"}],"name":"executeMetaUpdateVaccination","outputs":[],"stateMutability":"nonpayable","type":"function"},{"inputs":[],"name":"getDomainSeparator","outputs":[{"internalType":"bytes32","name":"","type":"bytes32"}],"stateMutability":"view","type":"function"},{"inputs":[{"internalType":"address","name":"user","type":"address"}],"name":"getNonce","outputs":[{"internalType":"uint256","name":"","type":"uint256"}],"stateMutability":"view","type":"function"},{"inputs":[],"name":"healthInformationContract","outputs":[{"internalType":"contract HealthInformation","name":"","type":"address"}],"stateMutability":"view","type":"function"},{"inputs":[],"name":"medicalHistoryContract","outputs":[{"internalType":"contract MedicalHistory","name":"","type":"address"}],"stateMutability":"view","type":"function"},{"inputs":[{"internalType":"address","name":"","type":"address"}],"name":"nonces","outputs":[{"internalType":"uint256","name":"","type":"uint256"}],"stateMutability":"view","type":"function"},{"inputs":[],"name":"owner","outputs":[{"internalType":"address","name":"","type":"address"}],"stateMutability":"view","type":"function"},{"inputs":[{"internalType":"string","name":"_name","type":"string"}],"name":"returnChildAddress","outputs":[{"internalType":"address","name":"","type":"address"}],"stateMutability":"view","type":"function"},{"inputs":[],"name":"returnChildInformation","outputs":[{"components":[{"internalType":"address","name":"childAddress","type":"address"},{"internalType":"string","name":"name","type":"string"},{"internalType":"uint256","name":"birthDate","type":"uint256"}],"internalType":"struct ParentChildRelationshipWithMeta.Child[]","name":"","type":"tuple[]"}],"stateMutability":"view","type":"function"},{"inputs":[{"internalType":"address","name":"_childAddress","type":"address"}],"name":"returnChildVaccinationStatus","outputs":[{"components":[{"components":[{"internalType":"uint8","name":"index","type":"uint8"},{"internalType":"string","name":"vaccineName","type":"string"},{"internalType":"string","name":"targetDisease","type":"string"},{"internalType":"uint8","name":"vaccineChapter","type":"uint8"},{"internalType":"uint16","name":"recommendedDays","type":"uint16"},{"internalType":"uint16","name":"recommendedEndDays","type":"uint16"},{"internalType":"enum VaccinationManagement.VaccinationStatus","name":"status","type":"uint8"},{"internalType":"uint256","name":"administeredDate","type":"uint256"}],"internalType":"struct VaccinationManagement.Vaccination[]","name":"completed","type":"tuple[]"},{"components":[{"internalType":"uint8","name":"index","type":"uint8"},{"internalType":"string","name":"vaccineName","type":"string"},{"internalType":"string","name":"targetDisease","type":"string"},{"internalType":"uint8","name":"vaccineChapter","type":"uint8"},{"internalType":"uint16","name":"recommendedDays","type":"uint16"},{"internalType":"uint16","name":"recommendedEndDays","type":"uint16"},{"internalType":"enum VaccinationManagement.VaccinationStatus","name":"status","type":"uint8"},{"internalType":"uint256","name":"administeredDate","type":"uint256"}],"internalType":"struct VaccinationManagement.Vaccination[]","name":"pending","type":"tuple[]"}],"internalType":"struct VaccinationManagement.VaccinationInfomation","name":"","type":"tuple"}],"stateMutability":"view","type":"function"},{"inputs":[{"internalType":"address","name":"_childAddress","type":"address"}],"name":"returnHealthInformation","outputs":[{"components":[{"internalType":"uint16","name":"height","type":"uint16"},{"internalType":"uint16","name":"weight","type":"uint16"}],"internalType":"struct HealthInformation.Information","name":"","type":"tuple"}],"stateMutability":"view","type":"function"},{"inputs":[{"internalType":"address","name":"_childAddress","type":"address"}],"name":"returnMedicalHistoriesForChild","outputs":[{"components":[{"internalType":"enum MedicalHistory.MedicalType","name":"medicaltype","type":"uint8"},{"internalType":"string","name":"visitedName","type":"string"},{"internalType":"string","name":"timestamp","type":"string"},{"internalType":"string","name":"doctorName","type":"string"},{"internalType":"string","name":"symptoms","type":"string"},{"internalType":"string","name":"diagnosisDetails","type":"string"}],"internalType":"struct MedicalHistory.History[]","name":"","type":"tuple[]"}],"stateMutability":"view","type":"function"},{"inputs":[],"name":"vaccinationManagementContract","outputs":[{"internalType":"contract VaccinationManagement","name":"","type":"address"}],"stateMutability":"view","type":"function"}],"evm":{"bytecode":{"linkReferences":{},"object":"6080604052346100305761001a610014610117565b9161028a565b610022610035565b61464a6102d1823961464a90f35b61003b565b60405190565b600080fd5b601f801991011690565b634e487b7160e01b600052604160045260246000fd5b9061006a90610040565b810190811060018060401b0382111761008257604052565b61004a565b9061009a610093610035565b9283610060565b565b600080fd5b60018060a01b031690565b6100b5906100a1565b90565b6100c1816100ac565b036100c857565b600080fd5b905051906100da826100b8565b565b90916060828403126101125761010f6100f884600085016100cd565b9361010681602086016100cd565b936040016100cd565b90565b61009c565b61013561491b8038038061012a81610087565b9283398101906100dc565b909192565b60001b90565b9061015160018060a01b039161013a565b9181191691161790565b90565b61017261016d610177926100a1565b61015b565b6100a1565b90565b6101839061015e565b90565b61018f9061017a565b90565b90565b906101aa6101a56101b192610186565b610192565b8254610140565b9055565b6101be9061015e565b90565b6101ca906101b5565b90565b6101d6906101b5565b90565b90565b906101f16101ec6101f8926101cd565b6101d9565b8254610140565b9055565b6102059061015e565b90565b610211906101fc565b90565b61021d906101fc565b90565b90565b9061023861023361023f92610214565b610220565b8254610140565b9055565b61024c9061015e565b90565b61025890610243565b90565b61026490610243565b90565b90565b9061027f61027a6102869261025b565b610267565b8254610140565b9055565b916102c26102bb6102c7936102b66102af6102ce976102aa336003610195565b6101c1565b60006101dc565b610208565b6001610223565b61024f565b600261026a565b56fe60806040526004361015610013575b6113c6565b61001e60003561013d565b80632ce001de146101385780632d0335ab14610133578063386ed2751461012e5780633cfedb84146101295780633e030d06146101245780634c5859131461011f57806359d5ad1b1461011a5780635b3b7505146101155780637ccf76c0146101105780637ce266a51461010b5780637ecebe00146101065780638da5cb5b14610101578063ac8f30cd146100fc578063c0bee6bc146100f7578063c9d461c5146100f2578063e50cde76146100ed578063eb607db1146100e85763ed24911d0361000e57611391565b611339565b61114a565b6110df565b611035565b610e56565b610dca565b610d31565b610c95565b610aeb565b610949565b61086f565b6106f0565b61064a565b6105a7565b6104bb565b61025d565b610202565b60e01c90565b60405190565b600080fd5b600080fd5b600080fd5b60018060a01b031690565b61016c90610158565b90565b61017881610163565b0361017f57565b600080fd5b905035906101918261016f565b565b906020828203126101ad576101aa91600001610184565b90565b61014e565b61ffff1690565b6101c2906101b2565b9052565b906020806101ea936101e0600082015160008601906101b9565b01519101906101b9565b565b9190610200906000604085019401906101c6565b565b346102325761022e61021d610218366004610193565b6114c0565b610225610143565b918291826101ec565b0390f35b610149565b90565b61024390610237565b9052565b919061025b9060006020850194019061023a565b565b3461028d57610289610278610273366004610193565b611578565b610280610143565b91829182610247565b0390f35b610149565b600080fd5b600080fd5b601f801991011690565b634e487b7160e01b600052604160045260246000fd5b906102c69061029c565b810190811067ffffffffffffffff8211176102e057604052565b6102a6565b906102f86102f1610143565b92836102bc565b565b67ffffffffffffffff81116103185761031460209161029c565b0190565b6102a6565b90826000939282370152565b9092919261033e610339826102fa565b6102e5565b9381855260208501908284011161035a576103589261031d565b565b610297565b9080601f8301121561037d5781602061037a93359101610329565b90565b610292565b61038b81610237565b0361039257565b600080fd5b905035906103a482610382565b565b6103af816101b2565b036103b657565b600080fd5b905035906103c8826103a6565b565b60ff1690565b6103d9816103ca565b036103e057565b600080fd5b905035906103f2826103d0565b565b90565b610400816103f4565b0361040757565b600080fd5b90503590610419826103f7565b565b9190610100838203126104b0576104358160008501610184565b92602081013567ffffffffffffffff81116104ab578261045691830161035f565b926104648360408401610397565b9261047281606085016103bb565b9261048082608083016103bb565b926104a86104918460a085016103e5565b9361049f8160c0860161040c565b9360e00161040c565b90565b610153565b61014e565b60000190565b346104f3576104dd6104ce36600461041b565b96959095949194939293611e0f565b6104e5610143565b806104ef816104b5565b0390f35b610149565b600091031261050357565b61014e565b1c90565b60018060a01b031690565b61052790600861052c9302610508565b61050c565b90565b9061053a9154610517565b90565b61054a600260009061052f565b90565b90565b61056461055f61056992610158565b61054d565b610158565b90565b61057590610550565b90565b6105819061056c565b90565b61058d90610578565b9052565b91906105a590600060208501940190610584565b565b346105d7576105b73660046104f8565b6105d36105c261053d565b6105ca610143565b91829182610591565b0390f35b610149565b60018060a01b031690565b6105f79060086105fc9302610508565b6105dc565b90565b9061060a91546105e7565b90565b6106186000806105ff565b90565b6106249061056c565b90565b6106309061061b565b9052565b919061064890600060208501940190610627565b565b3461067a5761065a3660046104f8565b61067661066561060d565b61066d610143565b91829182610634565b0390f35b610149565b60e0818303126106eb576106968260008301610184565b926106a48360208401610184565b926106b281604085016103bb565b926106c082606083016103bb565b926106e86106d184608085016103e5565b936106df8160a0860161040c565b9360c00161040c565b90565b61014e565b346107255761070f61070336600461067f565b95949094939193612230565b610717610143565b80610721816104b5565b0390f35b610149565b6002111561073457565b600080fd5b905035906107468261072a565b565b91906101608382031261086a576107628160008501610184565b926107708260208301610184565b9261077e8360408401610739565b92606083013567ffffffffffffffff8111610865578161079f91850161035f565b92608081013567ffffffffffffffff811161086057826107c091830161035f565b9260a082013567ffffffffffffffff811161085b57836107e191840161035f565b9260c083013567ffffffffffffffff8111610856578161080291850161035f565b9260e081013567ffffffffffffffff8111610851578261082391830161035f565b9261084e6108358461010085016103e5565b9361084481610120860161040c565b936101400161040c565b90565b610153565b610153565b610153565b610153565b610153565b61014e565b346108aa57610894610882366004610748565b999890989791979692969593956125b8565b61089c610143565b806108a6816104b5565b0390f35b610149565b919061010083820312610944576108c98160008501610184565b926108d78260208301610184565b92604082013567ffffffffffffffff811161093f57836108f891840161035f565b9261090681606085016103e5565b926109148260808301610397565b9261093c6109258460a085016103e5565b936109338160c0860161040c565b9360e00161040c565b90565b610153565b61014e565b346109815761096b61095c3660046108af565b96959095949194939293612913565b610973610143565b8061097d816104b5565b0390f35b610149565b5190565b60209181520190565b60200190565b6109a290610163565b9052565b5190565b60209181520190565b60005b8381106109c7575050906000910152565b8060209183015181850152016109b6565b6109f7610a00602093610a05936109ee816109a6565b938480936109aa565b958691016109b3565b61029c565b0190565b610a1290610237565b9052565b90610a5490604080610a4960608401610a3760008801516000870190610999565b602087015185820360208701526109d8565b940151910190610a09565b90565b90610a6191610a16565b90565b60200190565b90610a7e610a7783610986565b809261098a565b9081610a8f60208302840194610993565b926000915b838310610aa357505050505090565b90919293946020610ac5610abf83856001950387528951610a57565b97610a64565b9301930191939290610a94565b610ae89160208201916000818403910152610a6a565b90565b34610b1b57610afb3660046104f8565b610b17610b06612ced565b610b0e610143565b91829182610ad2565b0390f35b610149565b5190565b60209181520190565b60200190565b634e487b7160e01b600052602160045260246000fd5b60021115610b5357565b610b33565b90610b6282610b49565b565b610b6d90610b58565b90565b610b7990610b64565b9052565b610bfe9160a0610bed610bdb610bc9610bb760c08601610ba560008901516000890190610b70565b602088015187820360208901526109d8565b604087015186820360408801526109d8565b606086015185820360608701526109d8565b608085015184820360808601526109d8565b9201519060a08184039101526109d8565b90565b90610c0b91610b7d565b90565b60200190565b90610c28610c2183610b20565b8092610b24565b9081610c3960208302840194610b2d565b926000915b838310610c4d57505050505090565b90919293946020610c6f610c6983856001950387528951610c01565b97610c0e565b9301930191939290610c3e565b610c929160208201916000818403910152610c14565b90565b34610cc557610cc1610cb0610cab366004610193565b612f61565b610cb8610143565b91829182610c7c565b0390f35b610149565b610cd39061056c565b90565b90610ce090610cca565b600052602052604060002090565b90565b610d01906008610d069302610508565b610cee565b90565b90610d149154610cf1565b90565b610d2e90610d29600491600092610cd6565b610d09565b90565b34610d6157610d5d610d4c610d47366004610193565b610d17565b610d54610143565b91829182610247565b0390f35b610149565b60018060a01b031690565b610d81906008610d869302610508565b610d66565b90565b90610d949154610d71565b90565b610da46003600090610d89565b90565b610db090610163565b9052565b9190610dc890600060208501940190610da7565b565b34610dfa57610dda3660046104f8565b610df6610de5610d97565b610ded610143565b91829182610db4565b0390f35b610149565b919060a083820312610e5157610e188160008501610184565b92610e268260208301610184565b92610e4e610e3784604085016103e5565b93610e45816060860161040c565b9360800161040c565b90565b61014e565b34610e8857610e72610e69366004610dff565b93929092613382565b610e7a610143565b80610e84816104b5565b0390f35b610149565b67ffffffffffffffff8111610ea55760208091020190565b6102a6565b600080fd5b600080fd5b600080fd5b919091606081840312610f2057610ed060606102e5565b9260008201359167ffffffffffffffff8311610f1b57610ef582610f1494830161035f565b6000860152610f0782602083016103e5565b6020860152604001610397565b6040830152565b610eb4565b610eaf565b929190610f39610f3482610e8d565b6102e5565b9381855260208086019202810191838311610f905781905b838210610f5f575050505050565b813567ffffffffffffffff8111610f8b57602091610f808784938701610eb9565b815201910190610f51565b610292565b610eaa565b9080601f83011215610fb357816020610fb093359101610f25565b90565b610292565b909160c08284031261103057610fd18360008401610184565b92610fdf8160208501610184565b92604081013567ffffffffffffffff811161102b5782611000918301610f95565b9261102861101184606085016103e5565b9361101f816080860161040c565b9360a00161040c565b90565b610153565b61014e565b3461106a57611054611048366004610fb8565b949390939291926139dc565b61105c610143565b80611066816104b5565b0390f35b610149565b60018060a01b031690565b61108a90600861108f9302610508565b61106f565b90565b9061109d915461107a565b90565b6110ad6001600090611092565b90565b6110b99061056c565b90565b6110c5906110b0565b9052565b91906110dd906000602085019401906110bc565b565b3461110f576110ef3660046104f8565b61110b6110fa6110a0565b611102610143565b918291826110c9565b0390f35b610149565b9060208282031261114557600082013567ffffffffffffffff81116111405761113d920161035f565b90565b610153565b61014e565b3461117a57611176611165611160366004611114565b613eb9565b61116d610143565b91829182610db4565b0390f35b610149565b5190565b60209181520190565b60200190565b61119b906103ca565b9052565b600211156111a957565b610b33565b906111b88261119f565b565b6111c3906111ae565b90565b6111cf906111ba565b9052565b9061126f9060e08061121c61120a61010085016111f860008901516000880190611192565b602088015186820360208801526109d8565b604087015185820360408701526109d8565b9461122f60608201516060860190611192565b611241608082015160808601906101b9565b61125360a082015160a08601906101b9565b61126560c082015160c08601906111c6565b0151910190610a09565b90565b9061127c916111d3565b90565b60200190565b906112996112928361117f565b8092611183565b90816112aa6020830284019461118c565b926000915b8383106112be57505050505090565b909192939460206112e06112da83856001950387528951611272565b9761127f565b93019301919392906112af565b61131d91602061130c6040830160008501518482036000860152611285565b920151906020818403910152611285565b90565b61133691602082019160008184039101526112ed565b90565b346113695761136561135461134f366004610193565b6142c1565b61135c610143565b91829182611320565b0390f35b610149565b611377906103f4565b9052565b919061138f9060006020850194019061136e565b565b346113c1576113a13660046104f8565b6113bd6113ac61447a565b6113b4610143565b9182918261137b565b0390f35b610149565b600080fd5b6113d560406102e5565b90565b600090565b6113e56113cb565b90602080836113f26113d8565b8152016113fd6113d8565b81525050565b61140b6113dd565b90565b60001c90565b6114206114259161140e565b6105dc565b90565b6114329054611414565b90565b600080fd5b60e01b90565b9050519061144d826103a6565b565b919060408382031261148b576114849061146960406102e5565b936114778260008301611440565b6000860152602001611440565b6020830152565b610eaf565b906040828203126114aa576114a79160000161144f565b90565b61014e565b6114b7610143565b3d6000823e3d90fd5b6040611508916114ce611403565b506114e16114dc6000611428565b61061b565b6114fd63aa65a43e6114f1610143565b9586948593849361143a565b835260048301610db4565b03915afa90811561154d5760009161151f575b5090565b611540915060403d8111611546575b61153881836102bc565b810190611490565b3861151b565b503d61152e565b6114af565b600090565b6115636115689161140e565b610cee565b90565b6115759054611557565b90565b61158f61159491611587611552565b506004610cd6565b61156b565b90565b6115a36115a89161140e565b610d66565b90565b6115b59054611597565b90565b60209181520190565b60207f73616374696f6e73000000000000000000000000000000000000000000000000917f4f6e6c79206f776e65722063616e2065786563757465206d657461207472616e60008201520152565b61161c60286040926115b8565b611625816115c1565b0190565b61163f906020810190600081830391015261160f565b90565b1561164957565b611651610143565b62461bcd60e51b81528061166760048201611629565b0390fd5b7f84700cd553a75c69a63577cc6918d25f03cc1260f9c590ad64e787d8225aeabb90565b90565b60200190565b5190565b634e487b7160e01b600052601160045260246000fd5b6116bb90610237565b60001981146116ca5760010190565b61169c565b60001b90565b906116e2600019916116cf565b9181191691161790565b6117006116fb61170592610237565b61054d565b610237565b90565b90565b9061172061171b611727926116ec565b611708565b82546116d5565b9055565b611734906101b2565b9052565b949290979695939160e0860198600087016117529161136e565b6020860161175f91610da7565b6040850161176c9161136e565b606084016117799161023a565b608083016117869161172b565b60a082016117939161172b565b60c00161179f9161023a565b565b905090565b600061190160f01b910152565b6117bf600280926117a1565b6117c8816117a6565b0190565b90565b6117db6117e0916103f4565b6117cc565b9052565b60208093926117ff6117f8611807946117b3565b80926117cf565b0180926117cf565b0190565b611814906103ca565b9052565b61184e6118559461184460609498979561183a608086019a600087019061136e565b602085019061180b565b604083019061136e565b019061136e565b565b60007f496e76616c6964207369676e6174757265000000000000000000000000000000910152565b61188c60116020926115b8565b61189581611857565b0190565b6118af906020810190600081830391015261187f565b90565b156118b957565b6118c1610143565b62461bcd60e51b8152806118d760048201611899565b0390fd5b60601b90565b6118ea906118db565b90565b6118f6906118e1565b90565b61190561190a91610163565b6118ed565b9052565b61193361192a92602092611921816109a6565b948580936117a1565b938491016109b3565b0190565b90565b61194661194b91610237565b611937565b9052565b6020939260148261196661196d94611974966118f9565b019061190e565b809261193a565b0190565b6119846119899161140e565b6116ec565b90565b6119a061199b6119a592610237565b61054d565b610158565b90565b906119b290610cca565b600052602052604060002090565b90565b5490565b634e487b7160e01b600052603260045260246000fd5b600052602060002090565b6119f1816119c3565b821015611a0c57611a036003916119dd565b91020190600090565b6119c7565b611a1a816119c3565b68010000000000000000811015611a3e57611a3a916001820181556119e8565b9091565b6102a6565b90565b90611a5760018060a01b03916116cf565b9181191691161790565b90565b90611a79611a74611a8092610cca565b611a61565b8254611a46565b9055565b634e487b7160e01b600052600060045260246000fd5b634e487b7160e01b600052602260045260246000fd5b9060016002830492168015611ad0575b6020831014611acb57565b611a9a565b91607f1691611ac0565b600052602060002090565b601f602091010490565b1b90565b91906008611b0f910291611b0960001984611aef565b92611aef565b9181191691161790565b9190611b2f611b2a611b37936116ec565b611708565b908354611af3565b9055565b611b4d91611b47611552565b91611b19565b565b5b818110611b5b575050565b80611b696000600193611b3b565b01611b50565b9190601f8111611b7f575b505050565b611b8b611bb093611ada565b906020611b9784611ae5565b83019310611bb8575b611ba990611ae5565b0190611b4f565b388080611b7a565b9150611ba981929050611ba0565b90611bd79060001990600802610508565b191690565b81611be691611bc6565b906002021790565b90611bf8816109a6565b9067ffffffffffffffff8211611cba57611c1c82611c168554611ab0565b85611b6f565b602090601f8311600114611c5157918091611c4093600092611c45575b5050611bdc565b90555b565b90915001513880611c39565b601f19831691611c6085611ada565b9260005b818110611ca257509160029391856001969410611c88575b50505002019055611c43565b611c98910151601f841690611bc6565b9055388080611c7c565b91936020600181928787015181550195019201611c64565b6102a6565b90611cc991611bee565b565b90611cd590610cca565b600052602052604060002090565b90565b600052602060002090565b5490565b611cfe81611cf1565b821015611d1957611d10600191611ce6565b91020190600090565b6119c7565b91906008611d3e910291611d3860018060a01b0384611aef565b92611aef565b9181191691161790565b9190611d5e611d59611d6693610cca565b611a61565b908354611d1e565b9055565b9081549168010000000000000000831015611d9a5782611d92916001611d9895018155611cf5565b90611d48565b565b6102a6565b611da960406102e5565b90565b90611db6906101b2565b9052565b6000910312611dc557565b61014e565b916020611dec929493611de560608201966000830190610da7565b01906101c6565b565b611dfa611dff9161140e565b61050c565b90565b611e0c9054611dee565b90565b958495611f2b84998497611f05600096611ecd8a611ebf8f9b60209c611e5033611e4a611e44611e3f60036115ab565b610163565b91610163565b14611642565b611e5861447a565b97611e6161166b565b94611e8d611e6f849961168f565b611e81611e7b82611698565b91611692565b20949192936004610cd6565b611ea9611e998261156b565b91611ea3836116b2565b9061170b565b93611eb2610143565b986020978a988901611738565b8b82018103825203826102bc565b611edf611ed982611698565b91611692565b2091611ef7611eec610143565b9384928b84016117e4565b8982018103825203826102bc565b611f17611f1182611698565b91611692565b209293611f22610143565b94859485611818565b838052039060015afa156121ab5761200761204492611f66611f4e6000516116cf565b611f60611f5a89610163565b91610163565b146118b2565b6002611fc0611fbb611fb68a611f9e8b611f8f8893611f83610143565b9485936020850161194f565b602082018103825203826102bc565b611fb0611faa82611698565b91611692565b20611978565b61198c565b61056c565b97612000611fe9611fe3611fde611fd960058d906119a8565b6119c0565b611a11565b50611a43565b93611ff78b60008701611a64565b60018501611cbf565b910161170b565b61202561201e61201960068890611ccb565b611ce3565b8590611d6a565b9161203b612031611d9f565b9360008501611dac565b60208301611dac565b6120566120516000611428565b61061b565b9063fef2877290849092803b156121a65761208560008094612090612079610143565b9788968795869461143a565b845260048401611dca565b03925af180156121a157612174575b506120b26120ad6002611e02565b610578565b6359c3309e83823b1561216f576120e9926120de600080946120d2610143565b9687958694859361143a565b835260048301610db4565b03925af1801561216a5761213d575b506121386121267fca9cd3d407e1929a81a936f2d713a37a799f8e396184ea2af249a3ec3bad920792610cca565b9261212f610143565b91829182610db4565b0390a2565b61215d9060003d8111612163575b61215581836102bc565b810190611dba565b386120f8565b503d61214b565b6114af565b611435565b6121949060003d811161219a575b61218c81836102bc565b810190611dba565b3861209f565b503d612182565b6114af565b611435565b6114af565b7fd3e8853ff580e63c96ffb51f99aa93a062de0b320b5427bcc35f76f5fd9b216a90565b919461221d6122279298979561221360a09661220961222e9a6121ff60c08a019e60008b019061136e565b6020890190610da7565b6040870190610da7565b606085019061172b565b608083019061172b565b019061023a565b565b9394602092939561232f600093986122633361225d61225761225260036115ab565b610163565b91610163565b14611642565b876123098b6122d18c6122c38c61227861447a565b966122816121b0565b9361229182979391926004610cd6565b6122ad61229d8261156b565b916122a7836116b2565b9061170b565b926122b6610143565b97602096899788016121d4565b8b82018103825203826102bc565b6122e36122dd82611698565b91611692565b20916122fb6122f0610143565b9384928b84016117e4565b8982018103825203826102bc565b61231b61231582611698565b91611692565b209293612326610143565b94859485611818565b838052039060015afa1561241b576123676123869261236161235b6123556000516116cf565b92610163565b91610163565b146118b2565b9161237d612373611d9f565b9360008501611dac565b60208301611dac565b906123996123946000611428565b61061b565b9163fef28772919092803b15612416576123c7600080946123d26123bb610143565b9788968795869461143a565b845260048401611dca565b03925af18015612411576123e4575b50565b6124049060003d811161240a575b6123fc81836102bc565b810190611dba565b386123e1565b503d6123f2565b6114af565b611435565b6114af565b7f4e5bbda4c8f0fbd0caeebb5b407058204dd2f7560f21e72e14edebe04532883990565b979593919a9998969492909a61014089019b60008a016124639161136e565b6020890161247091610da7565b6040880161247d91610da7565b6060870161248a9161180b565b608086016124979161136e565b60a085016124a49161136e565b60c084016124b19161136e565b60e083016124be9161136e565b61010082016124cc9161136e565b610120016124d99161023a565b565b6124e76124ec9161140e565b61106f565b90565b6124f990546124db565b90565b61250590610b64565b9052565b6125286125316020936125369361251f816109a6565b938480936115b8565b958691016109b3565b61029c565b0190565b95926125a79461257d8861258b93612570612599976125666125b59e9c98600060e08701960190610da7565b60208d01906124fc565b8a820360408c0152612509565b9088820360608a0152612509565b908682036080880152612509565b9084820360a0860152612509565b9160c0818403910152612509565b90565b929991979890939698336125cc60036115ab565b6125d590610163565b906125df90610163565b146125e990611642565b6125f161447a565b898b8d6125fc612420565b908c89938d8d8d9761260d90610b64565b946126179061168f565b61262081611698565b9061262a90611692565b20936126359061168f565b61263e81611698565b9061264890611692565b20906126539061168f565b61265c81611698565b9061266690611692565b20916126719061168f565b61267a81611698565b9061268490611692565b209261268f9061168f565b61269881611698565b906126a290611692565b20938d6004906126b191610cd6565b6126ba8161156b565b906126c4826116b2565b6126cd9161170b565b956126d6610143565b998a9960208b01996126e79a612444565b6020820181038252036126fa90826102bc565b61270381611698565b9061270d90611692565b20612716610143565b9182916020830191612727926117e4565b60208201810382520361273a90826102bc565b61274381611698565b9061274d90611692565b20909192612759610143565b9384936127669385611818565b6000805203905a916000916001602094fa1561283e576127a39061279d6127976127916000516116cf565b92610163565b91610163565b146118b2565b6127b56127b060016124ef565b6110b0565b93633b27f4e291959790929396853b15612839576000976127ea9589956127f5946127de610143565b9c8d9b8c9a8b9961143a565b89526004890161253a565b03925af1801561283457612807575b50565b6128279060003d811161282d575b61281f81836102bc565b810190611dba565b38612804565b503d612815565b6114af565b611435565b6114af565b7f8cc3f5829ade81b0442c7c56b5b90525a08c3ede683ff5e9dd4f4f1d12e4bf5990565b949290979695939160e0860198600087016128819161136e565b6020860161288e91610da7565b6040850161289b91610da7565b606084016128a89161136e565b608083016128b59161180b565b60a082016128c29161023a565b60c0016128ce9161023a565b565b61290a6128ff606093612911969897956128f260808601926000870190610da7565b8482036020860152612509565b96604083019061180b565b019061023a565b565b9296958295612a2f839887612a096000966129d18e6129c360209b6129533361294d61294761294260036115ab565b610163565b91610163565b14611642565b8d61295c61447a565b97612965612843565b9461299161297484999561168f565b61298661298082611698565b91611692565b209192936004610cd6565b6129ad61299d8261156b565b916129a7836116b2565b9061170b565b936129b6610143565b986020978a988901612867565b8b82018103825203826102bc565b6129e36129dd82611698565b91611692565b20916129fb6129f0610143565b9384928b84016117e4565b8982018103825203826102bc565b612a1b612a1582611698565b91611692565b209293612a26610143565b94859485611818565b838052039060015afa15612afb57612a6490612a5e612a58612a526000516116cf565b92610163565b91610163565b146118b2565b612a76612a716002611e02565b610578565b90635ae99f6593929490823b15612af657600094612ab28692612aa794612a9b610143565b998a988997889661143a565b8652600486016128d0565b03925af18015612af157612ac4575b50565b612ae49060003d8111612aea575b612adc81836102bc565b810190611dba565b38612ac1565b503d612ad2565b6114af565b611435565b6114af565b606090565b5490565b67ffffffffffffffff8111612b215760208091020190565b6102a6565b90612b38612b3383612b09565b6102e5565b918252565b600052602060002090565b90612b5290610163565b9052565b9060009291805490612b71612b6a83611ab0565b80946109aa565b91600181169081600014612bca5750600114612b8d575b505050565b612b9a9192939450611ada565b916000925b818410612bb25750500190388080612b88565b60018160209295939554848601520191019290612b9f565b92949550505060ff1916825215156020020190388080612b88565b90612bef91612b56565b90565b90612c12612c0b92612c02610143565b93848092612be5565b03836102bc565b565b52565b90612c2190610237565b9052565b612c2f60606102e5565b90565b90612c83612c7a6002612c43612c25565b94612c5c612c53600083016115ab565b60008801612b48565b612c74612c6b60018301612bf2565b60208801612c14565b0161156b565b60408401612c17565b565b612c8e90612c32565b90565b90612c9b82612b05565b612ca481612b26565b92612cb26020850191612b3d565b6000915b838310612cc35750505050565b60036020600192612cd385612c85565b815201920192019190612cb6565b612cea90612c91565b90565b612cf5612b00565b50612d0a612d05600533906119a8565b612ce1565b90565b606090565b67ffffffffffffffff8111612d2a5760208091020190565b6102a6565b90505190612d3c8261072a565b565b90929192612d53612d4e826102fa565b6102e5565b93818552602085019082840111612d6f57612d6d926109b3565b565b610297565b9080601f83011215612d9257816020612d8f93519101612d3e565b90565b610292565b91909160c081840312612e9357612dae60c06102e5565b92612dbc8160008401612d2f565b6000850152602082015167ffffffffffffffff8111612e8e5781612de1918401612d74565b6020850152604082015167ffffffffffffffff8111612e895781612e06918401612d74565b6040850152606082015167ffffffffffffffff8111612e845781612e2b918401612d74565b6060850152608082015167ffffffffffffffff8111612e7f5781612e50918401612d74565b608085015260a082015167ffffffffffffffff8111612e7a57612e739201612d74565b60a0830152565b610eb4565b610eb4565b610eb4565b610eb4565b610eb4565b610eaf565b929190612eac612ea782612d12565b6102e5565b9381855260208086019202810191838311612f035781905b838210612ed2575050505050565b815167ffffffffffffffff8111612efe57602091612ef38784938701612d97565b815201910190612ec4565b610292565b610eaa565b9080601f83011215612f2657816020612f2393519101612e98565b90565b610292565b90602082820312612f5c57600082015167ffffffffffffffff8111612f5757612f549201612f08565b90565b610153565b61014e565b6000612fa991612f6f612d0d565b50612f82612f7d60016124ef565b6110b0565b612f9e63b226187c612f92610143565b9586948593849361143a565b835260048301610db4565b03915afa908115612fe357600091612fc0575b5090565b612fdd91503d806000833e612fd581836102bc565b810190612f2b565b38612fbc565b6114af565b7f1ec4aece768e0a04889951aba20f6ccc89ce203bb47661221e6fdfbb8deaca0b90565b6130426130499461303860609498979561302e608086019a600087019061136e565b6020850190610da7565b6040830190610da7565b019061023a565b565b5490565b90565b61306661306161306b9261304f565b61054d565b610237565b90565b60007f6368696c64206e6f7420666f756e640000000000000000000000000000000000910152565b6130a3600f6020926115b8565b6130ac8161306e565b0190565b6130c69060208101906000818303910152613096565b90565b156130d057565b6130d8610143565b62461bcd60e51b8152806130ee600482016130b0565b0390fd5b60016130fe9101610237565b90565b60007f416c7265616479206c696e6b656420746f2074686973206368696c6400000000910152565b613136601c6020926115b8565b61313f81613101565b0190565b6131599060208101906000818303910152613129565b90565b1561316357565b61316b610143565b62461bcd60e51b81528061318160048201613143565b0390fd5b600052602060002090565b6131998161304b565b8210156131b4576131ab600191613185565b91020190600090565b6119c7565b6131c281612b05565b8210156131dd576131d4600391612b3d565b91020190600090565b6119c7565b6131ec9054611ab0565b90565b908082146132d157613200816131e2565b9067ffffffffffffffff82116132cc576132248261321e8554611ab0565b85611b6f565b600090601f8311600114613259579180916132489360009261324d575b5050611bdc565b90555b565b90915001543880613241565b90613268601f19841692611ada565b9061327285611ada565b9260005b8181106132b45750916002939185600196941061329a575b5050500201905561324b565b6132aa910154601f841690611bc6565b905538808061328e565b91936001806020928787015481550195019201613276565b6102a6565b5050565b906132df916131ef565b565b908082036132ee575b5050565b61332a600280846133116000613330970161330b600088016115ab565b90611a64565b6133226001820160018701906132d5565b01920161156b565b9061170b565b38806132ea565b919061334857613346916132e1565b565b611a84565b908154916801000000000000000083101561337d578261337591600161337b950181556119e8565b90613337565b565b6102a6565b9492602092613478600093966133b3336133ad6133a76133a260036115ab565b610163565b91610163565b14611642565b6133bb61447a565b6134528961341a8c61340c6133ce612fe8565b916133dc8195916004610cd6565b6133f86133e88261156b565b916133f2836116b2565b9061170b565b90613401610143565b9586948f860161300c565b8b82018103825203826102bc565b61342c61342682611698565b91611692565b2091613444613439610143565b9384928b84016117e4565b8982018103825203826102bc565b61346461345e82611698565b91611692565b20929361346f610143565b94859485611818565b838052039060015afa15613630576134ac6134946000516116cf565b6134a66134a086610163565b91610163565b146118b2565b6134dd6134c36134be60068590611ccb565b61304b565b6134d66134d06000613052565b91610237565b14156130c9565b6134f16134ec600585906119a8565b6119c0565b906134fc6000613052565b5b8061351861351261350d866119c3565b610237565b91610237565b101561355f5761355a9061355561353c60006135358785906119e8565b50016115ab565b61354e61354888610163565b91610163565b141561315c565b6130f2565b6134fd565b509290506135c66135ad6135a761358c61358661357e60068890611ccb565b600090613190565b90610d89565b6135a261359a828890614567565b9160056119a8565b6131b9565b50611a43565b6135c16135bc600585906119a8565b6119c0565b61334d565b6135e46135dd6135d860068590611ccb565b611ce3565b8290611d6a565b906136186136127f67a834331ce532b16f83bfc8251d8eb0eb155ba5e222fa98d74d93c9907fedac93610cca565b91610cca565b91613621610143565b8061362b816104b5565b0390a3565b6114af565b5190565b60007f4e6f2076616363696e6174696f6e732070726f76696465640000000000000000910152565b61366e60186020926115b8565b61367781613639565b0190565b6136919060208101906000818303910152613661565b90565b1561369b57565b6136a3610143565b62461bcd60e51b8152806136b96004820161367b565b0390fd5b67ffffffffffffffff81116136d55760208091020190565b6102a6565b906136ec6136e7836136bd565b6102e5565b918252565b369037565b9061371b613703836136da565b9260208061371186936136bd565b92019103906136f1565b565b7f0473295963edd87736c2f99ae4573da987546481c1b86f5cfbd18be8fdd226c090565b9061374b82613635565b81101561375c576020809102010190565b6119c7565b61376b90516103ca565b90565b6137789051610237565b90565b6137b16137b8946137a760609498979561379d608086019a600087019061136e565b602085019061136e565b604083019061180b565b019061023a565b565b5190565b906137c8826137ba565b8110156137d9576020809102010190565b6119c7565b906137e8906103f4565b9052565b7ffc36c2287edf9257cbcf85cd0bf70eff95b872575e9a207f57314e87dc7ec45590565b905090565b60200190565b613824906103f4565b9052565b906138358160209361381b565b0190565b60200190565b9061385c61385661384f846137ba565b8093613810565b92613815565b9060005b81811061386d5750505090565b9091926138866138806001928651613828565b94613839565b9101919091613860565b6138999161383f565b90565b909594926138e8946138d76138e1926138cd6080966138c360a088019c600089019061136e565b6020870190610da7565b6040850190610da7565b606083019061136e565b019061023a565b565b60209181520190565b60200190565b906139379060408061391a60608401600087015185820360008701526109d8565b9461392d60208201516020860190611192565b0151910190610a09565b90565b90613944916138f9565b90565b60200190565b9061396161395a83613635565b80926138ea565b9081613972602083028401946138f3565b926000915b83831061398657505050505090565b909192939460206139a86139a28385600195038752895161393a565b97613947565b9301930191939290613977565b916139d9926139cc60408201936000830190610da7565b602081840391015261394d565b90565b909193959295613a0733613a016139fb6139f660036115ab565b610163565b91610163565b14611642565b613a2c613a1386613635565b613a26613a206000613052565b91610237565b11613694565b613a3d613a3886613635565b6136f6565b96613a486000613052565b5b80613a64613a5e613a598a613635565b610237565b91610237565b1015613b2d57613b2890613b23613a7961371d565b613afe613a946000613a8c8d8790613741565b51015161168f565b613aa6613aa082611698565b91611692565b2091613aef8c613ada6040613ad3613acb6020613ac4868d90613741565b5101613761565b938a90613741565b510161376e565b90613ae3610143565b9586946020860161377b565b602082018103825203826102bc565b613b10613b0a82611698565b91611692565b20613b1e8c918490926137be565b6137de565b6130f2565b613a49565b50613c4060209496976000949699613c1a89613be2613b4a61447a565b93613bd4613b566137ec565b918d613ba3613b79613b88839894613b6c610143565b9260209184928301613890565b602082018103825203826102bc565b613b9a613b9482611698565b91611692565b20916004610cd6565b613bbf613baf8261156b565b91613bb9836116b2565b9061170b565b91613bc8610143565b968f958896870161389c565b8b82018103825203826102bc565b613bf4613bee82611698565b91611692565b2091613c0c613c01610143565b9384928b84016117e4565b8982018103825203826102bc565b613c2c613c2682611698565b91611692565b209293613c37610143565b94859485611818565b838052039060015afa15613d0957613c7590613c6f613c69613c636000516116cf565b92610163565b91610163565b146118b2565b613c87613c826002611e02565b610578565b9163d30a32e3919092803b15613d0457613cb560008094613cc0613ca9610143565b9788968795869461143a565b8452600484016139b5565b03925af18015613cff57613cd2575b50565b613cf29060003d8111613cf8575b613cea81836102bc565b810190611dba565b38613ccf565b503d613ce0565b6114af565b611435565b6114af565b600090565b60007f4e6f206368696c6420666f756e64000000000000000000000000000000000000910152565b613d48600e6020926115b8565b613d5181613d13565b0190565b613d6b9060208101906000818303910152613d3b565b90565b15613d7557565b613d7d610143565b62461bcd60e51b815280613d9360048201613d55565b0390fd5b9060009291805490613db2613dab83611ab0565b80946117a1565b91600181169081600014613e065750600114613dce575b505050565b613ddb9192939450611ada565b6000905b838210613df25750500190388080613dc9565b600181602092548486015201910190613ddf565b92949550505060ff19168252801515020190388080613dc9565b613e2991613d97565b90565b613e359161190e565b90565b60207f756e640000000000000000000000000000000000000000000000000000000000917f6368696c6420776974682074686520676976656e206e616d65206e6f7420666f60008201520152565b613e9360236040926115b8565b613e9c81613e38565b0190565b613eb69060208101906000818303910152613e86565b90565b613ec1613d0e565b50613ed6613ed1600533906119a8565b6119c0565b613edf816119c3565b91613efd83613ef7613ef16000613052565b91610237565b11613d6e565b613f076000613052565b5b80613f1b613f1586610237565b91610237565b1015613fe957613f4a613f596001613f348685906119e8565b5001613f3e610143565b92839160208301613e20565b602082018103825203826102bc565b613f6b613f6582611698565b91611692565b20613fba613fb4613f8d613f9c86613f81610143565b92839160208301613e2c565b602082018103825203826102bc565b613fae613fa882611698565b91611692565b206103f4565b916103f4565b14613fcd57613fc8906130f2565b613f08565b613fe69350613fdf91506000926119e8565b50016115ab565b90565b613ff1610143565b62461bcd60e51b81528061400760048201613ea0565b0390fd5b61401560406102e5565b90565b606090565b61402561400b565b9060208083614032614018565b81520161403d614018565b81525050565b61404b61401d565b90565b67ffffffffffffffff81116140665760208091020190565b6102a6565b90505190614078826103d0565b565b6002111561408457565b600080fd5b905051906140968261407a565b565b905051906140a582610382565b565b91909161010081840312614182576140c06101006102e5565b926140ce816000840161406b565b6000850152602082015167ffffffffffffffff811161417d57816140f3918401612d74565b602085015260408201519167ffffffffffffffff83116141785761411c82614171948301612d74565b604086015261412e826060830161406b565b60608601526141408260808301611440565b60808601526141528260a08301611440565b60a08601526141648260c08301614089565b60c086015260e001614098565b60e0830152565b610eb4565b610eb4565b610eaf565b92919061419b6141968261404e565b6102e5565b93818552602080860192028101918383116141f25781905b8382106141c1575050505050565b815167ffffffffffffffff81116141ed576020916141e287849387016140a7565b8152019101906141b3565b610292565b610eaa565b9080601f830112156142155781602061421293519101614187565b90565b610292565b9190916040818403126142865761423160406102e5565b92600082015167ffffffffffffffff811161428157816142529184016141f7565b6000850152602082015167ffffffffffffffff811161427c5761427592016141f7565b6020830152565b610eb4565b610eb4565b610eaf565b906020828203126142bc57600082015167ffffffffffffffff81116142b7576142b4920161421a565b90565b610153565b61014e565b6000614309916142cf614043565b506142e26142dd6002611e02565b610578565b6142fe63eb607db16142f2610143565b9586948593849361143a565b835260048301610db4565b03915afa90811561434357600091614320575b5090565b61433d91503d806000833e61433581836102bc565b81019061428b565b3861431c565b6114af565b600090565b7f8b73c3c69bb8fe3d512ecc4cf759cc79239f7b179b0ffacaa9a75d522b39400f90565b9061438361437e836102fa565b6102e5565b918252565b60007f506172656e744368696c6452656c6174696f6e73686970576974684d65746100910152565b6143ba601f614371565b906143c760208301614388565b565b6143d16143b0565b90565b60007f3100000000000000000000000000000000000000000000000000000000000000910152565b6144066001614371565b90614413602083016143d4565b565b61441d6143fc565b90565b6144299061056c565b90565b90959492614478946144676144719261445d60809661445360a088019c600089019061136e565b602087019061136e565b604085019061136e565b606083019061023a565b0190610da7565b565b614482614348565b5061448b61434d565b6144f66144966143c9565b6144a86144a282611698565b91611692565b20916144e76144b5614415565b6144c76144c182611698565b91611692565b20466144d230614420565b916144db610143565b9687956020870161442c565b602082018103825203826102bc565b61450861450282611698565b91611692565b2090565b60007f4368696c64206e6f7420666f756e640000000000000000000000000000000000910152565b614541600f6020926115b8565b61454a8161450c565b0190565b6145649060208101906000818303910152614534565b90565b61457e61458391614576611552565b5060056119a8565b6119c0565b9061458e6000613052565b5b806145aa6145a461459f866119c3565b610237565b91610237565b10156145f2576145c760006145c08584906119e8565b50016115ab565b6145d96145d384610163565b91610163565b146145ec576145e7906130f2565b61458f565b91505090565b6145fa610143565b62461bcd60e51b8152806146106004820161454e565b0390fdfea26469706673582212200def49566384417de08b4adbbf6d9f96ff9106f43661c7beb866f7ae7e3a732564736f6c634300081b0033","opcodes":"PUSH1 0x80 PUSH1 0x40 MSTORE CALLVALUE PUSH2 0x30 JUMPI PUSH2 0x1A PUSH2 0x14 PUSH2 0x117 JUMP JUMPDEST SWAP2 PUSH2 0x28A JUMP JUMPDEST PUSH2 0x22 PUSH2 0x35 JUMP JUMPDEST PUSH2 0x464A PUSH2 0x2D1 DUP3 CODECOPY PUSH2 0x464A SWAP1 RETURN JUMPDEST PUSH2 0x3B JUMP JUMPDEST PUSH1 0x40 MLOAD SWAP1 JUMP JUMPDEST PUSH1 0x0 DUP1 REVERT JUMPDEST PUSH1 0x1F DUP1 NOT SWAP2 ADD AND SWAP1 JUMP JUMPDEST PUSH4 0x4E487B71 PUSH1 0xE0 SHL PUSH1 0x0 MSTORE PUSH1 0x41 PUSH1 0x4 MSTORE PUSH1 0x24 PUSH1 0x0 REVERT JUMPDEST SWAP1 PUSH2 0x6A SWAP1 PUSH2 0x40 JUMP JUMPDEST DUP2 ADD SWAP1 DUP2 LT PUSH1 0x1 DUP1 PUSH1 0x40 SHL SUB DUP3 GT OR PUSH2 0x82 JUMPI PUSH1 0x40 MSTORE JUMP JUMPDEST PUSH2 0x4A JUMP JUMPDEST SWAP1 PUSH2 0x9A PUSH2 0x93 PUSH2 0x35 JUMP JUMPDEST SWAP3 DUP4 PUSH2 0x60 JUMP JUMPDEST JUMP JUMPDEST PUSH1 0x0 DUP1 REVERT JUMPDEST PUSH1 0x1 DUP1 PUSH1 0xA0 SHL SUB AND SWAP1 JUMP JUMPDEST PUSH2 0xB5 SWAP1 PUSH2 0xA1 JUMP JUMPDEST SWAP1 JUMP JUMPDEST PUSH2 0xC1 DUP2 PUSH2 0xAC JUMP JUMPDEST SUB PUSH2 0xC8 JUMPI JUMP JUMPDEST PUSH1 0x0 DUP1 REVERT JUMPDEST SWAP1 POP MLOAD SWAP1 PUSH2 0xDA DUP3 PUSH2 0xB8 JUMP JUMPDEST JUMP JUMPDEST SWAP1 SWAP2 PUSH1 0x60 DUP3 DUP5 SUB SLT PUSH2 0x112 JUMPI PUSH2 0x10F PUSH2 0xF8 DUP5 PUSH1 0x0 DUP6 ADD PUSH2 0xCD JUMP JUMPDEST SWAP4 PUSH2 0x106 DUP2 PUSH1 0x20 DUP7 ADD PUSH2 0xCD JUMP JUMPDEST SWAP4 PUSH1 0x40 ADD PUSH2 0xCD JUMP JUMPDEST SWAP1 JUMP JUMPDEST PUSH2 0x9C JUMP JUMPDEST PUSH2 0x135 PUSH2 0x491B DUP1 CODESIZE SUB DUP1 PUSH2 0x12A DUP2 PUSH2 0x87 JUMP JUMPDEST SWAP3 DUP4 CODECOPY DUP2 ADD SWAP1 PUSH2 0xDC JUMP JUMPDEST SWAP1 SWAP2 SWAP3 JUMP JUMPDEST PUSH1 0x0 SHL SWAP1 JUMP JUMPDEST SWAP1 PUSH2 0x151 PUSH1 0x1 DUP1 PUSH1 0xA0 SHL SUB SWAP2 PUSH2 0x13A JUMP JUMPDEST SWAP2 DUP2 NOT AND SWAP2 AND OR SWAP1 JUMP JUMPDEST SWAP1 JUMP JUMPDEST PUSH2 0x172 PUSH2 0x16D PUSH2 0x177 SWAP3 PUSH2 0xA1 JUMP JUMPDEST PUSH2 0x15B JUMP JUMPDEST PUSH2 0xA1 JUMP JUMPDEST SWAP1 JUMP JUMPDEST PUSH2 0x183 SWAP1 PUSH2 0x15E JUMP JUMPDEST SWAP1 JUMP JUMPDEST PUSH2 0x18F SWAP1 PUSH2 0x17A JUMP JUMPDEST SWAP1 JUMP JUMPDEST SWAP1 JUMP JUMPDEST SWAP1 PUSH2 0x1AA PUSH2 0x1A5 PUSH2 0x1B1 SWAP3 PUSH2 0x186 JUMP JUMPDEST PUSH2 0x192 JUMP JUMPDEST DUP3 SLOAD PUSH2 0x140 JUMP JUMPDEST SWAP1 SSTORE JUMP JUMPDEST PUSH2 0x1BE SWAP1 PUSH2 0x15E JUMP JUMPDEST SWAP1 JUMP JUMPDEST PUSH2 0x1CA SWAP1 PUSH2 0x1B5 JUMP JUMPDEST SWAP1 JUMP JUMPDEST PUSH2 0x1D6 SWAP1 PUSH2 0x1B5 JUMP JUMPDEST SWAP1 JUMP JUMPDEST SWAP1 JUMP JUMPDEST SWAP1 PUSH2 0x1F1 PUSH2 0x1EC PUSH2 0x1F8 SWAP3 PUSH2 0x1CD JUMP JUMPDEST PUSH2 0x1D9 JUMP JUMPDEST DUP3 SLOAD PUSH2 0x140 JUMP JUMPDEST SWAP1 SSTORE JUMP JUMPDEST PUSH2 0x205 SWAP1 PUSH2 0x15E JUMP JUMPDEST SWAP1 JUMP JUMPDEST PUSH2 0x211 SWAP1 PUSH2 0x1FC JUMP JUMPDEST SWAP1 JUMP JUMPDEST PUSH2 0x21D SWAP1 PUSH2 0x1FC JUMP JUMPDEST SWAP1 JUMP JUMPDEST SWAP1 JUMP JUMPDEST SWAP1 PUSH2 0x238 PUSH2 0x233 PUSH2 0x23F SWAP3 PUSH2 0x214 JUMP JUMPDEST PUSH2 0x220 JUMP JUMPDEST DUP3 SLOAD PUSH2 0x140 JUMP JUMPDEST SWAP1 SSTORE JUMP JUMPDEST PUSH2 0x24C SWAP1 PUSH2 0x15E JUMP JUMPDEST SWAP1 JUMP JUMPDEST PUSH2 0x258 SWAP1 PUSH2 0x243 JUMP JUMPDEST SWAP1 JUMP JUMPDEST PUSH2 0x264 SWAP1 PUSH2 0x243 JUMP JUMPDEST SWAP1 JUMP JUMPDEST SWAP1 JUMP JUMPDEST SWAP1 PUSH2 0x27F PUSH2 0x27A PUSH2 0x286 SWAP3 PUSH2 0x25B JUMP JUMPDEST PUSH2 0x267 JUMP JUMPDEST DUP3 SLOAD PUSH2 0x140 JUMP JUMPDEST SWAP1 SSTORE JUMP JUMPDEST SWAP2 PUSH2 0x2C2 PUSH2 0x2BB PUSH2 0x2C7 SWAP4 PUSH2 0x2B6 PUSH2 0x2AF PUSH2 0x2CE SWAP8 PUSH2 0x2AA CALLER PUSH1 0x3 PUSH2 0x195 JUMP JUMPDEST PUSH2 0x1C1 JUMP JUMPDEST PUSH1 0x0 PUSH2 0x1DC JUMP JUMPDEST PUSH2 0x208 JUMP JUMPDEST PUSH1 0x1 PUSH2 0x223 JUMP JUMPDEST PUSH2 0x24F JUMP JUMPDEST PUSH1 0x2 PUSH2 0x26A JUMP JUMPDEST JUMP INVALID PUSH1 0x80 PUSH1 0x40 MSTORE PUSH1 0x4 CALLDATASIZE LT ISZERO PUSH2 0x13 JUMPI JUMPDEST PUSH2 0x13C6 JUMP JUMPDEST PUSH2 0x1E PUSH1 0x0 CALLDATALOAD PUSH2 0x13D JUMP JUMPDEST DUP1 PUSH4 0x2CE001DE EQ PUSH2 0x138 JUMPI DUP1 PUSH4 0x2D0335AB EQ PUSH2 0x133 JUMPI DUP1 PUSH4 0x386ED275 EQ PUSH2 0x12E JUMPI DUP1 PUSH4 0x3CFEDB84 EQ PUSH2 0x129 JUMPI DUP1 PUSH4 0x3E030D06 EQ PUSH2 0x124 JUMPI DUP1 PUSH4 0x4C585913 EQ PUSH2 0x11F JUMPI DUP1 PUSH4 0x59D5AD1B EQ PUSH2 0x11A JUMPI DUP1 PUSH4 0x5B3B7505 EQ PUSH2 0x115 JUMPI DUP1 PUSH4 0x7CCF76C0 EQ PUSH2 0x110 JUMPI DUP1 PUSH4 0x7CE266A5 EQ PUSH2 0x10B JUMPI DUP1 PUSH4 0x7ECEBE00 EQ PUSH2 0x106 JUMPI DUP1 PUSH4 0x8DA5CB5B EQ PUSH2 0x101 JUMPI DUP1 PUSH4 0xAC8F30CD EQ PUSH2 0xFC JUMPI DUP1 PUSH4 0xC0BEE6BC EQ PUSH2 0xF7 JUMPI DUP1 PUSH4 0xC9D461C5 EQ PUSH2 0xF2 JUMPI DUP1 PUSH4 0xE50CDE76 EQ PUSH2 0xED JUMPI DUP1 PUSH4 0xEB607DB1 EQ PUSH2 0xE8 JUMPI PUSH4 0xED24911D SUB PUSH2 0xE JUMPI PUSH2 0x1391 JUMP JUMPDEST PUSH2 0x1339 JUMP JUMPDEST PUSH2 0x114A JUMP JUMPDEST PUSH2 0x10DF JUMP JUMPDEST PUSH2 0x1035 JUMP JUMPDEST PUSH2 0xE56 JUMP JUMPDEST PUSH2 0xDCA JUMP JUMPDEST PUSH2 0xD31 JUMP JUMPDEST PUSH2 0xC95 JUMP JUMPDEST PUSH2 0xAEB JUMP JUMPDEST PUSH2 0x949 JUMP JUMPDEST PUSH2 0x86F JUMP JUMPDEST PUSH2 0x6F0 JUMP JUMPDEST PUSH2 0x64A JUMP JUMPDEST PUSH2 0x5A7 JUMP JUMPDEST PUSH2 0x4BB JUMP JUMPDEST PUSH2 0x25D JUMP JUMPDEST PUSH2 0x202 JUMP JUMPDEST PUSH1 0xE0 SHR SWAP1 JUMP JUMPDEST PUSH1 0x40 MLOAD SWAP1 JUMP JUMPDEST PUSH1 0x0 DUP1 REVERT JUMPDEST PUSH1 0x0 DUP1 REVERT JUMPDEST PUSH1 0x0 DUP1 REVERT JUMPDEST PUSH1 0x1 DUP1 PUSH1 0xA0 SHL SUB AND SWAP1 JUMP JUMPDEST PUSH2 0x16C SWAP1 PUSH2 0x158 JUMP JUMPDEST SWAP1 JUMP JUMPDEST PUSH2 0x178 DUP2 PUSH2 0x163 JUMP JUMPDEST SUB PUSH2 0x17F JUMPI JUMP JUMPDEST PUSH1 0x0 DUP1 REVERT JUMPDEST SWAP1 POP CALLDATALOAD SWAP1 PUSH2 0x191 DUP3 PUSH2 0x16F JUMP JUMPDEST JUMP JUMPDEST SWAP1 PUSH1 0x20 DUP3 DUP3 SUB SLT PUSH2 0x1AD JUMPI PUSH2 0x1AA SWAP2 PUSH1 0x0 ADD PUSH2 0x184 JUMP JUMPDEST SWAP1 JUMP JUMPDEST PUSH2 0x14E JUMP JUMPDEST PUSH2 0xFFFF AND SWAP1 JUMP JUMPDEST PUSH2 0x1C2 SWAP1 PUSH2 0x1B2 JUMP JUMPDEST SWAP1 MSTORE JUMP JUMPDEST SWAP1 PUSH1 0x20 DUP1 PUSH2 0x1EA SWAP4 PUSH2 0x1E0 PUSH1 0x0 DUP3 ADD MLOAD PUSH1 0x0 DUP7 ADD SWAP1 PUSH2 0x1B9 JUMP JUMPDEST ADD MLOAD SWAP2 ADD SWAP1 PUSH2 0x1B9 JUMP JUMPDEST JUMP JUMPDEST SWAP2 SWAP1 PUSH2 0x200 SWAP1 PUSH1 0x0 PUSH1 0x40 DUP6 ADD SWAP5 ADD SWAP1 PUSH2 0x1C6 JUMP JUMPDEST JUMP JUMPDEST CALLVALUE PUSH2 0x232 JUMPI PUSH2 0x22E PUSH2 0x21D PUSH2 0x218 CALLDATASIZE PUSH1 0x4 PUSH2 0x193 JUMP JUMPDEST PUSH2 0x14C0 JUMP JUMPDEST PUSH2 0x225 PUSH2 0x143 JUMP JUMPDEST SWAP2 DUP3 SWAP2 DUP3 PUSH2 0x1EC JUMP JUMPDEST SUB SWAP1 RETURN JUMPDEST PUSH2 0x149 JUMP JUMPDEST SWAP1 JUMP JUMPDEST PUSH2 0x243 SWAP1 PUSH2 0x237 JUMP JUMPDEST SWAP1 MSTORE JUMP JUMPDEST SWAP2 SWAP1 PUSH2 0x25B SWAP1 PUSH1 0x0 PUSH1 0x20 DUP6 ADD SWAP5 ADD SWAP1 PUSH2 0x23A JUMP JUMPDEST JUMP JUMPDEST CALLVALUE PUSH2 0x28D JUMPI PUSH2 0x289 PUSH2 0x278 PUSH2 0x273 CALLDATASIZE PUSH1 0x4 PUSH2 0x193 JUMP JUMPDEST PUSH2 0x1578 JUMP JUMPDEST PUSH2 0x280 PUSH2 0x143 JUMP JUMPDEST SWAP2 DUP3 SWAP2 DUP3 PUSH2 0x247 JUMP JUMPDEST SUB SWAP1 RETURN JUMPDEST PUSH2 0x149 JUMP JUMPDEST PUSH1 0x0 DUP1 REVERT JUMPDEST PUSH1 0x0 DUP1 REVERT JUMPDEST PUSH1 0x1F DUP1 NOT SWAP2 ADD AND SWAP1 JUMP JUMPDEST PUSH4 0x4E487B71 PUSH1 0xE0 SHL PUSH1 0x0 MSTORE PUSH1 0x41 PUSH1 0x4 MSTORE PUSH1 0x24 PUSH1 0x0 REVERT JUMPDEST SWAP1 PUSH2 0x2C6 SWAP1 PUSH2 0x29C JUMP JUMPDEST DUP2 ADD SWAP1 DUP2 LT PUSH8 0xFFFFFFFFFFFFFFFF DUP3 GT OR PUSH2 0x2E0 JUMPI PUSH1 0x40 MSTORE JUMP JUMPDEST PUSH2 0x2A6 JUMP JUMPDEST SWAP1 PUSH2 0x2F8 PUSH2 0x2F1 PUSH2 0x143 JUMP JUMPDEST SWAP3 DUP4 PUSH2 0x2BC JUMP JUMPDEST JUMP JUMPDEST PUSH8 0xFFFFFFFFFFFFFFFF DUP2 GT PUSH2 0x318 JUMPI PUSH2 0x314 PUSH1 0x20 SWAP2 PUSH2 0x29C JUMP JUMPDEST ADD SWAP1 JUMP JUMPDEST PUSH2 0x2A6 JUMP JUMPDEST SWAP1 DUP3 PUSH1 0x0 SWAP4 SWAP3 DUP3 CALLDATACOPY ADD MSTORE JUMP JUMPDEST SWAP1 SWAP3 SWAP2 SWAP3 PUSH2 0x33E PUSH2 0x339 DUP3 PUSH2 0x2FA JUMP JUMPDEST PUSH2 0x2E5 JUMP JUMPDEST SWAP4 DUP2 DUP6 MSTORE PUSH1 0x20 DUP6 ADD SWAP1 DUP3 DUP5 ADD GT PUSH2 0x35A JUMPI PUSH2 0x358 SWAP3 PUSH2 0x31D JUMP JUMPDEST JUMP JUMPDEST PUSH2 0x297 JUMP JUMPDEST SWAP1 DUP1 PUSH1 0x1F DUP4 ADD SLT ISZERO PUSH2 0x37D JUMPI DUP2 PUSH1 0x20 PUSH2 0x37A SWAP4 CALLDATALOAD SWAP2 ADD PUSH2 0x329 JUMP JUMPDEST SWAP1 JUMP JUMPDEST PUSH2 0x292 JUMP JUMPDEST PUSH2 0x38B DUP2 PUSH2 0x237 JUMP JUMPDEST SUB PUSH2 0x392 JUMPI JUMP JUMPDEST PUSH1 0x0 DUP1 REVERT JUMPDEST SWAP1 POP CALLDATALOAD SWAP1 PUSH2 0x3A4 DUP3 PUSH2 0x382 JUMP JUMPDEST JUMP JUMPDEST PUSH2 0x3AF DUP2 PUSH2 0x1B2 JUMP JUMPDEST SUB PUSH2 0x3B6 JUMPI JUMP JUMPDEST PUSH1 0x0 DUP1 REVERT JUMPDEST SWAP1 POP CALLDATALOAD SWAP1 PUSH2 0x3C8 DUP3 PUSH2 0x3A6 JUMP JUMPDEST JUMP JUMPDEST PUSH1 0xFF AND SWAP1 JUMP JUMPDEST PUSH2 0x3D9 DUP2 PUSH2 0x3CA JUMP JUMPDEST SUB PUSH2 0x3E0 JUMPI JUMP JUMPDEST PUSH1 0x0 DUP1 REVERT JUMPDEST SWAP1 POP CALLDATALOAD SWAP1 PUSH2 0x3F2 DUP3 PUSH2 0x3D0 JUMP JUMPDEST JUMP JUMPDEST SWAP1 JUMP JUMPDEST PUSH2 0x400 DUP2 PUSH2 0x3F4 JUMP JUMPDEST SUB PUSH2 0x407 JUMPI JUMP JUMPDEST PUSH1 0x0 DUP1 REVERT JUMPDEST SWAP1 POP CALLDATALOAD SWAP1 PUSH2 0x419 DUP3 PUSH2 0x3F7 JUMP JUMPDEST JUMP JUMPDEST SWAP2 SWAP1 PUSH2 0x100 DUP4 DUP3 SUB SLT PUSH2 0x4B0 JUMPI PUSH2 0x435 DUP2 PUSH1 0x0 DUP6 ADD PUSH2 0x184 JUMP JUMPDEST SWAP3 PUSH1 0x20 DUP2 ADD CALLDATALOAD PUSH8 0xFFFFFFFFFFFFFFFF DUP2 GT PUSH2 0x4AB JUMPI DUP3 PUSH2 0x456 SWAP2 DUP4 ADD PUSH2 0x35F JUMP JUMPDEST SWAP3 PUSH2 0x464 DUP4 PUSH1 0x40 DUP5 ADD PUSH2 0x397 JUMP JUMPDEST SWAP3 PUSH2 0x472 DUP2 PUSH1 0x60 DUP6 ADD PUSH2 0x3BB JUMP JUMPDEST SWAP3 PUSH2 0x480 DUP3 PUSH1 0x80 DUP4 ADD PUSH2 0x3BB JUMP JUMPDEST SWAP3 PUSH2 0x4A8 PUSH2 0x491 DUP5 PUSH1 0xA0 DUP6 ADD PUSH2 0x3E5 JUMP JUMPDEST SWAP4 PUSH2 0x49F DUP2 PUSH1 0xC0 DUP7 ADD PUSH2 0x40C JUMP JUMPDEST SWAP4 PUSH1 0xE0 ADD PUSH2 0x40C JUMP JUMPDEST SWAP1 JUMP JUMPDEST PUSH2 0x153 JUMP JUMPDEST PUSH2 0x14E JUMP JUMPDEST PUSH1 0x0 ADD SWAP1 JUMP JUMPDEST CALLVALUE PUSH2 0x4F3 JUMPI PUSH2 0x4DD PUSH2 0x4CE CALLDATASIZE PUSH1 0x4 PUSH2 0x41B JUMP JUMPDEST SWAP7 SWAP6 SWAP1 SWAP6 SWAP5 SWAP2 SWAP5 SWAP4 SWAP3 SWAP4 PUSH2 0x1E0F JUMP JUMPDEST PUSH2 0x4E5 PUSH2 0x143 JUMP JUMPDEST DUP1 PUSH2 0x4EF DUP2 PUSH2 0x4B5 JUMP JUMPDEST SUB SWAP1 RETURN JUMPDEST PUSH2 0x149 JUMP JUMPDEST PUSH1 0x0 SWAP2 SUB SLT PUSH2 0x503 JUMPI JUMP JUMPDEST PUSH2 0x14E JUMP JUMPDEST SHR SWAP1 JUMP JUMPDEST PUSH1 0x1 DUP1 PUSH1 0xA0 SHL SUB AND SWAP1 JUMP JUMPDEST PUSH2 0x527 SWAP1 PUSH1 0x8 PUSH2 0x52C SWAP4 MUL PUSH2 0x508 JUMP JUMPDEST PUSH2 0x50C JUMP JUMPDEST SWAP1 JUMP JUMPDEST SWAP1 PUSH2 0x53A SWAP2 SLOAD PUSH2 0x517 JUMP JUMPDEST SWAP1 JUMP JUMPDEST PUSH2 0x54A PUSH1 0x2 PUSH1 0x0 SWAP1 PUSH2 0x52F JUMP JUMPDEST SWAP1 JUMP JUMPDEST SWAP1 JUMP JUMPDEST PUSH2 0x564 PUSH2 0x55F PUSH2 0x569 SWAP3 PUSH2 0x158 JUMP JUMPDEST PUSH2 0x54D JUMP JUMPDEST PUSH2 0x158 JUMP JUMPDEST SWAP1 JUMP JUMPDEST PUSH2 0x575 SWAP1 PUSH2 0x550 JUMP JUMPDEST SWAP1 JUMP JUMPDEST PUSH2 0x581 SWAP1 PUSH2 0x56C JUMP JUMPDEST SWAP1 JUMP JUMPDEST PUSH2 0x58D SWAP1 PUSH2 0x578 JUMP JUMPDEST SWAP1 MSTORE JUMP JUMPDEST SWAP2 SWAP1 PUSH2 0x5A5 SWAP1 PUSH1 0x0 PUSH1 0x20 DUP6 ADD SWAP5 ADD SWAP1 PUSH2 0x584 JUMP JUMPDEST JUMP JUMPDEST CALLVALUE PUSH2 0x5D7 JUMPI PUSH2 0x5B7 CALLDATASIZE PUSH1 0x4 PUSH2 0x4F8 JUMP JUMPDEST PUSH2 0x5D3 PUSH2 0x5C2 PUSH2 0x53D JUMP JUMPDEST PUSH2 0x5CA PUSH2 0x143 JUMP JUMPDEST SWAP2 DUP3 SWAP2 DUP3 PUSH2 0x591 JUMP JUMPDEST SUB SWAP1 RETURN JUMPDEST PUSH2 0x149 JUMP JUMPDEST PUSH1 0x1 DUP1 PUSH1 0xA0 SHL SUB AND SWAP1 JUMP JUMPDEST PUSH2 0x5F7 SWAP1 PUSH1 0x8 PUSH2 0x5FC SWAP4 MUL PUSH2 0x508 JUMP JUMPDEST PUSH2 0x5DC JUMP JUMPDEST SWAP1 JUMP JUMPDEST SWAP1 PUSH2 0x60A SWAP2 SLOAD PUSH2 0x5E7 JUMP JUMPDEST SWAP1 JUMP JUMPDEST PUSH2 0x618 PUSH1 0x0 DUP1 PUSH2 0x5FF JUMP JUMPDEST SWAP1 JUMP JUMPDEST PUSH2 0x624 SWAP1 PUSH2 0x56C JUMP JUMPDEST SWAP1 JUMP JUMPDEST PUSH2 0x630 SWAP1 PUSH2 0x61B JUMP JUMPDEST SWAP1 MSTORE JUMP JUMPDEST SWAP2 SWAP1 PUSH2 0x648 SWAP1 PUSH1 0x0 PUSH1 0x20 DUP6 ADD SWAP5 ADD SWAP1 PUSH2 0x627 JUMP JUMPDEST JUMP JUMPDEST CALLVALUE PUSH2 0x67A JUMPI PUSH2 0x65A CALLDATASIZE PUSH1 0x4 PUSH2 0x4F8 JUMP JUMPDEST PUSH2 0x676 PUSH2 0x665 PUSH2 0x60D JUMP JUMPDEST PUSH2 0x66D PUSH2 0x143 JUMP JUMPDEST SWAP2 DUP3 SWAP2 DUP3 PUSH2 0x634 JUMP JUMPDEST SUB SWAP1 RETURN JUMPDEST PUSH2 0x149 JUMP JUMPDEST PUSH1 0xE0 DUP2 DUP4 SUB SLT PUSH2 0x6EB JUMPI PUSH2 0x696 DUP3 PUSH1 0x0 DUP4 ADD PUSH2 0x184 JUMP JUMPDEST SWAP3 PUSH2 0x6A4 DUP4 PUSH1 0x20 DUP5 ADD PUSH2 0x184 JUMP JUMPDEST SWAP3 PUSH2 0x6B2 DUP2 PUSH1 0x40 DUP6 ADD PUSH2 0x3BB JUMP JUMPDEST SWAP3 PUSH2 0x6C0 DUP3 PUSH1 0x60 DUP4 ADD PUSH2 0x3BB JUMP JUMPDEST SWAP3 PUSH2 0x6E8 PUSH2 0x6D1 DUP5 PUSH1 0x80 DUP6 ADD PUSH2 0x3E5 JUMP JUMPDEST SWAP4 PUSH2 0x6DF DUP2 PUSH1 0xA0 DUP7 ADD PUSH2 0x40C JUMP JUMPDEST SWAP4 PUSH1 0xC0 ADD PUSH2 0x40C JUMP JUMPDEST SWAP1 JUMP JUMPDEST PUSH2 0x14E JUMP JUMPDEST CALLVALUE PUSH2 0x725 JUMPI PUSH2 0x70F PUSH2 0x703 CALLDATASIZE PUSH1 0x4 PUSH2 0x67F JUMP JUMPDEST SWAP6 SWAP5 SWAP1 SWAP5 SWAP4 SWAP2 SWAP4 PUSH2 0x2230 JUMP JUMPDEST PUSH2 0x717 PUSH2 0x143 JUMP JUMPDEST DUP1 PUSH2 0x721 DUP2 PUSH2 0x4B5 JUMP JUMPDEST SUB SWAP1 RETURN JUMPDEST PUSH2 0x149 JUMP JUMPDEST PUSH1 0x2 GT ISZERO PUSH2 0x734 JUMPI JUMP JUMPDEST PUSH1 0x0 DUP1 REVERT JUMPDEST SWAP1 POP CALLDATALOAD SWAP1 PUSH2 0x746 DUP3 PUSH2 0x72A JUMP JUMPDEST JUMP JUMPDEST SWAP2 SWAP1 PUSH2 0x160 DUP4 DUP3 SUB SLT PUSH2 0x86A JUMPI PUSH2 0x762 DUP2 PUSH1 0x0 DUP6 ADD PUSH2 0x184 JUMP JUMPDEST SWAP3 PUSH2 0x770 DUP3 PUSH1 0x20 DUP4 ADD PUSH2 0x184 JUMP JUMPDEST SWAP3 PUSH2 0x77E DUP4 PUSH1 0x40 DUP5 ADD PUSH2 0x739 JUMP JUMPDEST SWAP3 PUSH1 0x60 DUP4 ADD CALLDATALOAD PUSH8 0xFFFFFFFFFFFFFFFF DUP2 GT PUSH2 0x865 JUMPI DUP2 PUSH2 0x79F SWAP2 DUP6 ADD PUSH2 0x35F JUMP JUMPDEST SWAP3 PUSH1 0x80 DUP2 ADD CALLDATALOAD PUSH8 0xFFFFFFFFFFFFFFFF DUP2 GT PUSH2 0x860 JUMPI DUP3 PUSH2 0x7C0 SWAP2 DUP4 ADD PUSH2 0x35F JUMP JUMPDEST SWAP3 PUSH1 0xA0 DUP3 ADD CALLDATALOAD PUSH8 0xFFFFFFFFFFFFFFFF DUP2 GT PUSH2 0x85B JUMPI DUP4 PUSH2 0x7E1 SWAP2 DUP5 ADD PUSH2 0x35F JUMP JUMPDEST SWAP3 PUSH1 0xC0 DUP4 ADD CALLDATALOAD PUSH8 0xFFFFFFFFFFFFFFFF DUP2 GT PUSH2 0x856 JUMPI DUP2 PUSH2 0x802 SWAP2 DUP6 ADD PUSH2 0x35F JUMP JUMPDEST SWAP3 PUSH1 0xE0 DUP2 ADD CALLDATALOAD PUSH8 0xFFFFFFFFFFFFFFFF DUP2 GT PUSH2 0x851 JUMPI DUP3 PUSH2 0x823 SWAP2 DUP4 ADD PUSH2 0x35F JUMP JUMPDEST SWAP3 PUSH2 0x84E PUSH2 0x835 DUP5 PUSH2 0x100 DUP6 ADD PUSH2 0x3E5 JUMP JUMPDEST SWAP4 PUSH2 0x844 DUP2 PUSH2 0x120 DUP7 ADD PUSH2 0x40C JUMP JUMPDEST SWAP4 PUSH2 0x140 ADD PUSH2 0x40C JUMP JUMPDEST SWAP1 JUMP JUMPDEST PUSH2 0x153 JUMP JUMPDEST PUSH2 0x153 JUMP JUMPDEST PUSH2 0x153 JUMP JUMPDEST PUSH2 0x153 JUMP JUMPDEST PUSH2 0x153 JUMP JUMPDEST PUSH2 0x14E JUMP JUMPDEST CALLVALUE PUSH2 0x8AA JUMPI PUSH2 0x894 PUSH2 0x882 CALLDATASIZE PUSH1 0x4 PUSH2 0x748 JUMP JUMPDEST SWAP10 SWAP9 SWAP1 SWAP9 SWAP8 SWAP2 SWAP8 SWAP7 SWAP3 SWAP7 SWAP6 SWAP4 SWAP6 PUSH2 0x25B8 JUMP JUMPDEST PUSH2 0x89C PUSH2 0x143 JUMP JUMPDEST DUP1 PUSH2 0x8A6 DUP2 PUSH2 0x4B5 JUMP JUMPDEST SUB SWAP1 RETURN JUMPDEST PUSH2 0x149 JUMP JUMPDEST SWAP2 SWAP1 PUSH2 0x100 DUP4 DUP3 SUB SLT PUSH2 0x944 JUMPI PUSH2 0x8C9 DUP2 PUSH1 0x0 DUP6 ADD PUSH2 0x184 JUMP JUMPDEST SWAP3 PUSH2 0x8D7 DUP3 PUSH1 0x20 DUP4 ADD PUSH2 0x184 JUMP JUMPDEST SWAP3 PUSH1 0x40 DUP3 ADD CALLDATALOAD PUSH8 0xFFFFFFFFFFFFFFFF DUP2 GT PUSH2 0x93F JUMPI DUP4 PUSH2 0x8F8 SWAP2 DUP5 ADD PUSH2 0x35F JUMP JUMPDEST SWAP3 PUSH2 0x906 DUP2 PUSH1 0x60 DUP6 ADD PUSH2 0x3E5 JUMP JUMPDEST SWAP3 PUSH2 0x914 DUP3 PUSH1 0x80 DUP4 ADD PUSH2 0x397 JUMP JUMPDEST SWAP3 PUSH2 0x93C PUSH2 0x925 DUP5 PUSH1 0xA0 DUP6 ADD PUSH2 0x3E5 JUMP JUMPDEST SWAP4 PUSH2 0x933 DUP2 PUSH1 0xC0 DUP7 ADD PUSH2 0x40C JUMP JUMPDEST SWAP4 PUSH1 0xE0 ADD PUSH2 0x40C JUMP JUMPDEST SWAP1 JUMP JUMPDEST PUSH2 0x153 JUMP JUMPDEST PUSH2 0x14E JUMP JUMPDEST CALLVALUE PUSH2 0x981 JUMPI PUSH2 0x96B PUSH2 0x95C CALLDATASIZE PUSH1 0x4 PUSH2 0x8AF JUMP JUMPDEST SWAP7 SWAP6 SWAP1 SWAP6 SWAP5 SWAP2 SWAP5 SWAP4 SWAP3 SWAP4 PUSH2 0x2913 JUMP JUMPDEST PUSH2 0x973 PUSH2 0x143 JUMP JUMPDEST DUP1 PUSH2 0x97D DUP2 PUSH2 0x4B5 JUMP JUMPDEST SUB SWAP1 RETURN JUMPDEST PUSH2 0x149 JUMP JUMPDEST MLOAD SWAP1 JUMP JUMPDEST PUSH1 0x20 SWAP2 DUP2 MSTORE ADD SWAP1 JUMP JUMPDEST PUSH1 0x20 ADD SWAP1 JUMP JUMPDEST PUSH2 0x9A2 SWAP1 PUSH2 0x163 JUMP JUMPDEST SWAP1 MSTORE JUMP JUMPDEST MLOAD SWAP1 JUMP JUMPDEST PUSH1 0x20 SWAP2 DUP2 MSTORE ADD SWAP1 JUMP JUMPDEST PUSH1 0x0 JUMPDEST DUP4 DUP2 LT PUSH2 0x9C7 JUMPI POP POP SWAP1 PUSH1 0x0 SWAP2 ADD MSTORE JUMP JUMPDEST DUP1 PUSH1 0x20 SWAP2 DUP4 ADD MLOAD DUP2 DUP6 ADD MSTORE ADD PUSH2 0x9B6 JUMP JUMPDEST PUSH2 0x9F7 PUSH2 0xA00 PUSH1 0x20 SWAP4 PUSH2 0xA05 SWAP4 PUSH2 0x9EE DUP2 PUSH2 0x9A6 JUMP JUMPDEST SWAP4 DUP5 DUP1 SWAP4 PUSH2 0x9AA JUMP JUMPDEST SWAP6 DUP7 SWAP2 ADD PUSH2 0x9B3 JUMP JUMPDEST PUSH2 0x29C JUMP JUMPDEST ADD SWAP1 JUMP JUMPDEST PUSH2 0xA12 SWAP1 PUSH2 0x237 JUMP JUMPDEST SWAP1 MSTORE JUMP JUMPDEST SWAP1 PUSH2 0xA54 SWAP1 PUSH1 0x40 DUP1 PUSH2 0xA49 PUSH1 0x60 DUP5 ADD PUSH2 0xA37 PUSH1 0x0 DUP9 ADD MLOAD PUSH1 0x0 DUP8 ADD SWAP1 PUSH2 0x999 JUMP JUMPDEST PUSH1 0x20 DUP8 ADD MLOAD DUP6 DUP3 SUB PUSH1 0x20 DUP8 ADD MSTORE PUSH2 0x9D8 JUMP JUMPDEST SWAP5 ADD MLOAD SWAP2 ADD SWAP1 PUSH2 0xA09 JUMP JUMPDEST SWAP1 JUMP JUMPDEST SWAP1 PUSH2 0xA61 SWAP2 PUSH2 0xA16 JUMP JUMPDEST SWAP1 JUMP JUMPDEST PUSH1 0x20 ADD SWAP1 JUMP JUMPDEST SWAP1 PUSH2 0xA7E PUSH2 0xA77 DUP4 PUSH2 0x986 JUMP JUMPDEST DUP1 SWAP3 PUSH2 0x98A JUMP JUMPDEST SWAP1 DUP2 PUSH2 0xA8F PUSH1 0x20 DUP4 MUL DUP5 ADD SWAP5 PUSH2 0x993 JUMP JUMPDEST SWAP3 PUSH1 0x0 SWAP2 JUMPDEST DUP4 DUP4 LT PUSH2 0xAA3 JUMPI POP POP POP POP POP SWAP1 JUMP JUMPDEST SWAP1 SWAP2 SWAP3 SWAP4 SWAP5 PUSH1 0x20 PUSH2 0xAC5 PUSH2 0xABF DUP4 DUP6 PUSH1 0x1 SWAP6 SUB DUP8 MSTORE DUP10 MLOAD PUSH2 0xA57 JUMP JUMPDEST SWAP8 PUSH2 0xA64 JUMP JUMPDEST SWAP4 ADD SWAP4 ADD SWAP2 SWAP4 SWAP3 SWAP1 PUSH2 0xA94 JUMP JUMPDEST PUSH2 0xAE8 SWAP2 PUSH1 0x20 DUP3 ADD SWAP2 PUSH1 0x0 DUP2 DUP5 SUB SWAP2 ADD MSTORE PUSH2 0xA6A JUMP JUMPDEST SWAP1 JUMP JUMPDEST CALLVALUE PUSH2 0xB1B JUMPI PUSH2 0xAFB CALLDATASIZE PUSH1 0x4 PUSH2 0x4F8 JUMP JUMPDEST PUSH2 0xB17 PUSH2 0xB06 PUSH2 0x2CED JUMP JUMPDEST PUSH2 0xB0E PUSH2 0x143 JUMP JUMPDEST SWAP2 DUP3 SWAP2 DUP3 PUSH2 0xAD2 JUMP JUMPDEST SUB SWAP1 RETURN JUMPDEST PUSH2 0x149 JUMP JUMPDEST MLOAD SWAP1 JUMP JUMPDEST PUSH1 0x20 SWAP2 DUP2 MSTORE ADD SWAP1 JUMP JUMPDEST PUSH1 0x20 ADD SWAP1 JUMP JUMPDEST PUSH4 0x4E487B71 PUSH1 0xE0 SHL PUSH1 0x0 MSTORE PUSH1 0x21 PUSH1 0x4 MSTORE PUSH1 0x24 PUSH1 0x0 REVERT JUMPDEST PUSH1 0x2 GT ISZERO PUSH2 0xB53 JUMPI JUMP JUMPDEST PUSH2 0xB33 JUMP JUMPDEST SWAP1 PUSH2 0xB62 DUP3 PUSH2 0xB49 JUMP JUMPDEST JUMP JUMPDEST PUSH2 0xB6D SWAP1 PUSH2 0xB58 JUMP JUMPDEST SWAP1 JUMP JUMPDEST PUSH2 0xB79 SWAP1 PUSH2 0xB64 JUMP JUMPDEST SWAP1 MSTORE JUMP JUMPDEST PUSH2 0xBFE SWAP2 PUSH1 0xA0 PUSH2 0xBED PUSH2 0xBDB PUSH2 0xBC9 PUSH2 0xBB7 PUSH1 0xC0 DUP7 ADD PUSH2 0xBA5 PUSH1 0x0 DUP10 ADD MLOAD PUSH1 0x0 DUP10 ADD SWAP1 PUSH2 0xB70 JUMP JUMPDEST PUSH1 0x20 DUP9 ADD MLOAD DUP8 DUP3 SUB PUSH1 0x20 DUP10 ADD MSTORE PUSH2 0x9D8 JUMP JUMPDEST PUSH1 0x40 DUP8 ADD MLOAD DUP7 DUP3 SUB PUSH1 0x40 DUP9 ADD MSTORE PUSH2 0x9D8 JUMP JUMPDEST PUSH1 0x60 DUP7 ADD MLOAD DUP6 DUP3 SUB PUSH1 0x60 DUP8 ADD MSTORE PUSH2 0x9D8 JUMP JUMPDEST PUSH1 0x80 DUP6 ADD MLOAD DUP5 DUP3 SUB PUSH1 0x80 DUP7 ADD MSTORE PUSH2 0x9D8 JUMP JUMPDEST SWAP3 ADD MLOAD SWAP1 PUSH1 0xA0 DUP2 DUP5 SUB SWAP2 ADD MSTORE PUSH2 0x9D8 JUMP JUMPDEST SWAP1 JUMP JUMPDEST SWAP1 PUSH2 0xC0B SWAP2 PUSH2 0xB7D JUMP JUMPDEST SWAP1 JUMP JUMPDEST PUSH1 0x20 ADD SWAP1 JUMP JUMPDEST SWAP1 PUSH2 0xC28 PUSH2 0xC21 DUP4 PUSH2 0xB20 JUMP JUMPDEST DUP1 SWAP3 PUSH2 0xB24 JUMP JUMPDEST SWAP1 DUP2 PUSH2 0xC39 PUSH1 0x20 DUP4 MUL DUP5 ADD SWAP5 PUSH2 0xB2D JUMP JUMPDEST SWAP3 PUSH1 0x0 SWAP2 JUMPDEST DUP4 DUP4 LT PUSH2 0xC4D JUMPI POP POP POP POP POP SWAP1 JUMP JUMPDEST SWAP1 SWAP2 SWAP3 SWAP4 SWAP5 PUSH1 0x20 PUSH2 0xC6F PUSH2 0xC69 DUP4 DUP6 PUSH1 0x1 SWAP6 SUB DUP8 MSTORE DUP10 MLOAD PUSH2 0xC01 JUMP JUMPDEST SWAP8 PUSH2 0xC0E JUMP JUMPDEST SWAP4 ADD SWAP4 ADD SWAP2 SWAP4 SWAP3 SWAP1 PUSH2 0xC3E JUMP JUMPDEST PUSH2 0xC92 SWAP2 PUSH1 0x20 DUP3 ADD SWAP2 PUSH1 0x0 DUP2 DUP5 SUB SWAP2 ADD MSTORE PUSH2 0xC14 JUMP JUMPDEST SWAP1 JUMP JUMPDEST CALLVALUE PUSH2 0xCC5 JUMPI PUSH2 0xCC1 PUSH2 0xCB0 PUSH2 0xCAB CALLDATASIZE PUSH1 0x4 PUSH2 0x193 JUMP JUMPDEST PUSH2 0x2F61 JUMP JUMPDEST PUSH2 0xCB8 PUSH2 0x143 JUMP JUMPDEST SWAP2 DUP3 SWAP2 DUP3 PUSH2 0xC7C JUMP JUMPDEST SUB SWAP1 RETURN JUMPDEST PUSH2 0x149 JUMP JUMPDEST PUSH2 0xCD3 SWAP1 PUSH2 0x56C JUMP JUMPDEST SWAP1 JUMP JUMPDEST SWAP1 PUSH2 0xCE0 SWAP1 PUSH2 0xCCA JUMP JUMPDEST PUSH1 0x0 MSTORE PUSH1 0x20 MSTORE PUSH1 0x40 PUSH1 0x0 KECCAK256 SWAP1 JUMP JUMPDEST SWAP1 JUMP JUMPDEST PUSH2 0xD01 SWAP1 PUSH1 0x8 PUSH2 0xD06 SWAP4 MUL PUSH2 0x508 JUMP JUMPDEST PUSH2 0xCEE JUMP JUMPDEST SWAP1 JUMP JUMPDEST SWAP1 PUSH2 0xD14 SWAP2 SLOAD PUSH2 0xCF1 JUMP JUMPDEST SWAP1 JUMP JUMPDEST PUSH2 0xD2E SWAP1 PUSH2 0xD29 PUSH1 0x4 SWAP2 PUSH1 0x0 SWAP3 PUSH2 0xCD6 JUMP JUMPDEST PUSH2 0xD09 JUMP JUMPDEST SWAP1 JUMP JUMPDEST CALLVALUE PUSH2 0xD61 JUMPI PUSH2 0xD5D PUSH2 0xD4C PUSH2 0xD47 CALLDATASIZE PUSH1 0x4 PUSH2 0x193 JUMP JUMPDEST PUSH2 0xD17 JUMP JUMPDEST PUSH2 0xD54 PUSH2 0x143 JUMP JUMPDEST SWAP2 DUP3 SWAP2 DUP3 PUSH2 0x247 JUMP JUMPDEST SUB SWAP1 RETURN JUMPDEST PUSH2 0x149 JUMP JUMPDEST PUSH1 0x1 DUP1 PUSH1 0xA0 SHL SUB AND SWAP1 JUMP JUMPDEST PUSH2 0xD81 SWAP1 PUSH1 0x8 PUSH2 0xD86 SWAP4 MUL PUSH2 0x508 JUMP JUMPDEST PUSH2 0xD66 JUMP JUMPDEST SWAP1 JUMP JUMPDEST SWAP1 PUSH2 0xD94 SWAP2 SLOAD PUSH2 0xD71 JUMP JUMPDEST SWAP1 JUMP JUMPDEST PUSH2 0xDA4 PUSH1 0x3 PUSH1 0x0 SWAP1 PUSH2 0xD89 JUMP JUMPDEST SWAP1 JUMP JUMPDEST PUSH2 0xDB0 SWAP1 PUSH2 0x163 JUMP JUMPDEST SWAP1 MSTORE JUMP JUMPDEST SWAP2 SWAP1 PUSH2 0xDC8 SWAP1 PUSH1 0x0 PUSH1 0x20 DUP6 ADD SWAP5 ADD SWAP1 PUSH2 0xDA7 JUMP JUMPDEST JUMP JUMPDEST CALLVALUE PUSH2 0xDFA JUMPI PUSH2 0xDDA CALLDATASIZE PUSH1 0x4 PUSH2 0x4F8 JUMP JUMPDEST PUSH2 0xDF6 PUSH2 0xDE5 PUSH2 0xD97 JUMP JUMPDEST PUSH2 0xDED PUSH2 0x143 JUMP JUMPDEST SWAP2 DUP3 SWAP2 DUP3 PUSH2 0xDB4 JUMP JUMPDEST SUB SWAP1 RETURN JUMPDEST PUSH2 0x149 JUMP JUMPDEST SWAP2 SWAP1 PUSH1 0xA0 DUP4 DUP3 SUB SLT PUSH2 0xE51 JUMPI PUSH2 0xE18 DUP2 PUSH1 0x0 DUP6 ADD PUSH2 0x184 JUMP JUMPDEST SWAP3 PUSH2 0xE26 DUP3 PUSH1 0x20 DUP4 ADD PUSH2 0x184 JUMP JUMPDEST SWAP3 PUSH2 0xE4E PUSH2 0xE37 DUP5 PUSH1 0x40 DUP6 ADD PUSH2 0x3E5 JUMP JUMPDEST SWAP4 PUSH2 0xE45 DUP2 PUSH1 0x60 DUP7 ADD PUSH2 0x40C JUMP JUMPDEST SWAP4 PUSH1 0x80 ADD PUSH2 0x40C JUMP JUMPDEST SWAP1 JUMP JUMPDEST PUSH2 0x14E JUMP JUMPDEST CALLVALUE PUSH2 0xE88 JUMPI PUSH2 0xE72 PUSH2 0xE69 CALLDATASIZE PUSH1 0x4 PUSH2 0xDFF JUMP JUMPDEST SWAP4 SWAP3 SWAP1 SWAP3 PUSH2 0x3382 JUMP JUMPDEST PUSH2 0xE7A PUSH2 0x143 JUMP JUMPDEST DUP1 PUSH2 0xE84 DUP2 PUSH2 0x4B5 JUMP JUMPDEST SUB SWAP1 RETURN JUMPDEST PUSH2 0x149 JUMP JUMPDEST PUSH8 0xFFFFFFFFFFFFFFFF DUP2 GT PUSH2 0xEA5 JUMPI PUSH1 0x20 DUP1 SWAP2 MUL ADD SWAP1 JUMP JUMPDEST PUSH2 0x2A6 JUMP JUMPDEST PUSH1 0x0 DUP1 REVERT JUMPDEST PUSH1 0x0 DUP1 REVERT JUMPDEST PUSH1 0x0 DUP1 REVERT JUMPDEST SWAP2 SWAP1 SWAP2 PUSH1 0x60 DUP2 DUP5 SUB SLT PUSH2 0xF20 JUMPI PUSH2 0xED0 PUSH1 0x60 PUSH2 0x2E5 JUMP JUMPDEST SWAP3 PUSH1 0x0 DUP3 ADD CALLDATALOAD SWAP2 PUSH8 0xFFFFFFFFFFFFFFFF DUP4 GT PUSH2 0xF1B JUMPI PUSH2 0xEF5 DUP3 PUSH2 0xF14 SWAP5 DUP4 ADD PUSH2 0x35F JUMP JUMPDEST PUSH1 0x0 DUP7 ADD MSTORE PUSH2 0xF07 DUP3 PUSH1 0x20 DUP4 ADD PUSH2 0x3E5 JUMP JUMPDEST PUSH1 0x20 DUP7 ADD MSTORE PUSH1 0x40 ADD PUSH2 0x397 JUMP JUMPDEST PUSH1 0x40 DUP4 ADD MSTORE JUMP JUMPDEST PUSH2 0xEB4 JUMP JUMPDEST PUSH2 0xEAF JUMP JUMPDEST SWAP3 SWAP2 SWAP1 PUSH2 0xF39 PUSH2 0xF34 DUP3 PUSH2 0xE8D JUMP JUMPDEST PUSH2 0x2E5 JUMP JUMPDEST SWAP4 DUP2 DUP6 MSTORE PUSH1 0x20 DUP1 DUP7 ADD SWAP3 MUL DUP2 ADD SWAP2 DUP4 DUP4 GT PUSH2 0xF90 JUMPI DUP2 SWAP1 JUMPDEST DUP4 DUP3 LT PUSH2 0xF5F JUMPI POP POP POP POP POP JUMP JUMPDEST DUP2 CALLDATALOAD PUSH8 0xFFFFFFFFFFFFFFFF DUP2 GT PUSH2 0xF8B JUMPI PUSH1 0x20 SWAP2 PUSH2 0xF80 DUP8 DUP5 SWAP4 DUP8 ADD PUSH2 0xEB9 JUMP JUMPDEST DUP2 MSTORE ADD SWAP2 ADD SWAP1 PUSH2 0xF51 JUMP JUMPDEST PUSH2 0x292 JUMP JUMPDEST PUSH2 0xEAA JUMP JUMPDEST SWAP1 DUP1 PUSH1 0x1F DUP4 ADD SLT ISZERO PUSH2 0xFB3 JUMPI DUP2 PUSH1 0x20 PUSH2 0xFB0 SWAP4 CALLDATALOAD SWAP2 ADD PUSH2 0xF25 JUMP JUMPDEST SWAP1 JUMP JUMPDEST PUSH2 0x292 JUMP JUMPDEST SWAP1 SWAP2 PUSH1 0xC0 DUP3 DUP5 SUB SLT PUSH2 0x1030 JUMPI PUSH2 0xFD1 DUP4 PUSH1 0x0 DUP5 ADD PUSH2 0x184 JUMP JUMPDEST SWAP3 PUSH2 0xFDF DUP2 PUSH1 0x20 DUP6 ADD PUSH2 0x184 JUMP JUMPDEST SWAP3 PUSH1 0x40 DUP2 ADD CALLDATALOAD PUSH8 0xFFFFFFFFFFFFFFFF DUP2 GT PUSH2 0x102B JUMPI DUP3 PUSH2 0x1000 SWAP2 DUP4 ADD PUSH2 0xF95 JUMP JUMPDEST SWAP3 PUSH2 0x1028 PUSH2 0x1011 DUP5 PUSH1 0x60 DUP6 ADD PUSH2 0x3E5 JUMP JUMPDEST SWAP4 PUSH2 0x101F DUP2 PUSH1 0x80 DUP7 ADD PUSH2 0x40C JUMP JUMPDEST SWAP4 PUSH1 0xA0 ADD PUSH2 0x40C JUMP JUMPDEST SWAP1 JUMP JUMPDEST PUSH2 0x153 JUMP JUMPDEST PUSH2 0x14E JUMP JUMPDEST CALLVALUE PUSH2 0x106A JUMPI PUSH2 0x1054 PUSH2 0x1048 CALLDATASIZE PUSH1 0x4 PUSH2 0xFB8 JUMP JUMPDEST SWAP5 SWAP4 SWAP1 SWAP4 SWAP3 SWAP2 SWAP3 PUSH2 0x39DC JUMP JUMPDEST PUSH2 0x105C PUSH2 0x143 JUMP JUMPDEST DUP1 PUSH2 0x1066 DUP2 PUSH2 0x4B5 JUMP JUMPDEST SUB SWAP1 RETURN JUMPDEST PUSH2 0x149 JUMP JUMPDEST PUSH1 0x1 DUP1 PUSH1 0xA0 SHL SUB AND SWAP1 JUMP JUMPDEST PUSH2 0x108A SWAP1 PUSH1 0x8 PUSH2 0x108F SWAP4 MUL PUSH2 0x508 JUMP JUMPDEST PUSH2 0x106F JUMP JUMPDEST SWAP1 JUMP JUMPDEST SWAP1 PUSH2 0x109D SWAP2 SLOAD PUSH2 0x107A JUMP JUMPDEST SWAP1 JUMP JUMPDEST PUSH2 0x10AD PUSH1 0x1 PUSH1 0x0 SWAP1 PUSH2 0x1092 JUMP JUMPDEST SWAP1 JUMP JUMPDEST PUSH2 0x10B9 SWAP1 PUSH2 0x56C JUMP JUMPDEST SWAP1 JUMP JUMPDEST PUSH2 0x10C5 SWAP1 PUSH2 0x10B0 JUMP JUMPDEST SWAP1 MSTORE JUMP JUMPDEST SWAP2 SWAP1 PUSH2 0x10DD SWAP1 PUSH1 0x0 PUSH1 0x20 DUP6 ADD SWAP5 ADD SWAP1 PUSH2 0x10BC JUMP JUMPDEST JUMP JUMPDEST CALLVALUE PUSH2 0x110F JUMPI PUSH2 0x10EF CALLDATASIZE PUSH1 0x4 PUSH2 0x4F8 JUMP JUMPDEST PUSH2 0x110B PUSH2 0x10FA PUSH2 0x10A0 JUMP JUMPDEST PUSH2 0x1102 PUSH2 0x143 JUMP JUMPDEST SWAP2 DUP3 SWAP2 DUP3 PUSH2 0x10C9 JUMP JUMPDEST SUB SWAP1 RETURN JUMPDEST PUSH2 0x149 JUMP JUMPDEST SWAP1 PUSH1 0x20 DUP3 DUP3 SUB SLT PUSH2 0x1145 JUMPI PUSH1 0x0 DUP3 ADD CALLDATALOAD PUSH8 0xFFFFFFFFFFFFFFFF DUP2 GT PUSH2 0x1140 JUMPI PUSH2 0x113D SWAP3 ADD PUSH2 0x35F JUMP JUMPDEST SWAP1 JUMP JUMPDEST PUSH2 0x153 JUMP JUMPDEST PUSH2 0x14E JUMP JUMPDEST CALLVALUE PUSH2 0x117A JUMPI PUSH2 0x1176 PUSH2 0x1165 PUSH2 0x1160 CALLDATASIZE PUSH1 0x4 PUSH2 0x1114 JUMP JUMPDEST PUSH2 0x3EB9 JUMP JUMPDEST PUSH2 0x116D PUSH2 0x143 JUMP JUMPDEST SWAP2 DUP3 SWAP2 DUP3 PUSH2 0xDB4 JUMP JUMPDEST SUB SWAP1 RETURN JUMPDEST PUSH2 0x149 JUMP JUMPDEST MLOAD SWAP1 JUMP JUMPDEST PUSH1 0x20 SWAP2 DUP2 MSTORE ADD SWAP1 JUMP JUMPDEST PUSH1 0x20 ADD SWAP1 JUMP JUMPDEST PUSH2 0x119B SWAP1 PUSH2 0x3CA JUMP JUMPDEST SWAP1 MSTORE JUMP JUMPDEST PUSH1 0x2 GT ISZERO PUSH2 0x11A9 JUMPI JUMP JUMPDEST PUSH2 0xB33 JUMP JUMPDEST SWAP1 PUSH2 0x11B8 DUP3 PUSH2 0x119F JUMP JUMPDEST JUMP JUMPDEST PUSH2 0x11C3 SWAP1 PUSH2 0x11AE JUMP JUMPDEST SWAP1 JUMP JUMPDEST PUSH2 0x11CF SWAP1 PUSH2 0x11BA JUMP JUMPDEST SWAP1 MSTORE JUMP JUMPDEST SWAP1 PUSH2 0x126F SWAP1 PUSH1 0xE0 DUP1 PUSH2 0x121C PUSH2 0x120A PUSH2 0x100 DUP6 ADD PUSH2 0x11F8 PUSH1 0x0 DUP10 ADD MLOAD PUSH1 0x0 DUP9 ADD SWAP1 PUSH2 0x1192 JUMP JUMPDEST PUSH1 0x20 DUP9 ADD MLOAD DUP7 DUP3 SUB PUSH1 0x20 DUP9 ADD MSTORE PUSH2 0x9D8 JUMP JUMPDEST PUSH1 0x40 DUP8 ADD MLOAD DUP6 DUP3 SUB PUSH1 0x40 DUP8 ADD MSTORE PUSH2 0x9D8 JUMP JUMPDEST SWAP5 PUSH2 0x122F PUSH1 0x60 DUP3 ADD MLOAD PUSH1 0x60 DUP7 ADD SWAP1 PUSH2 0x1192 JUMP JUMPDEST PUSH2 0x1241 PUSH1 0x80 DUP3 ADD MLOAD PUSH1 0x80 DUP7 ADD SWAP1 PUSH2 0x1B9 JUMP JUMPDEST PUSH2 0x1253 PUSH1 0xA0 DUP3 ADD MLOAD PUSH1 0xA0 DUP7 ADD SWAP1 PUSH2 0x1B9 JUMP JUMPDEST PUSH2 0x1265 PUSH1 0xC0 DUP3 ADD MLOAD PUSH1 0xC0 DUP7 ADD SWAP1 PUSH2 0x11C6 JUMP JUMPDEST ADD MLOAD SWAP2 ADD SWAP1 PUSH2 0xA09 JUMP JUMPDEST SWAP1 JUMP JUMPDEST SWAP1 PUSH2 0x127C SWAP2 PUSH2 0x11D3 JUMP JUMPDEST SWAP1 JUMP JUMPDEST PUSH1 0x20 ADD SWAP1 JUMP JUMPDEST SWAP1 PUSH2 0x1299 PUSH2 0x1292 DUP4 PUSH2 0x117F JUMP JUMPDEST DUP1 SWAP3 PUSH2 0x1183 JUMP JUMPDEST SWAP1 DUP2 PUSH2 0x12AA PUSH1 0x20 DUP4 MUL DUP5 ADD SWAP5 PUSH2 0x118C JUMP JUMPDEST SWAP3 PUSH1 0x0 SWAP2 JUMPDEST DUP4 DUP4 LT PUSH2 0x12BE JUMPI POP POP POP POP POP SWAP1 JUMP JUMPDEST SWAP1 SWAP2 SWAP3 SWAP4 SWAP5 PUSH1 0x20 PUSH2 0x12E0 PUSH2 0x12DA DUP4 DUP6 PUSH1 0x1 SWAP6 SUB DUP8 MSTORE DUP10 MLOAD PUSH2 0x1272 JUMP JUMPDEST SWAP8 PUSH2 0x127F JUMP JUMPDEST SWAP4 ADD SWAP4 ADD SWAP2 SWAP4 SWAP3 SWAP1 PUSH2 0x12AF JUMP JUMPDEST PUSH2 0x131D SWAP2 PUSH1 0x20 PUSH2 0x130C PUSH1 0x40 DUP4 ADD PUSH1 0x0 DUP6 ADD MLOAD DUP5 DUP3 SUB PUSH1 0x0 DUP7 ADD MSTORE PUSH2 0x1285 JUMP JUMPDEST SWAP3 ADD MLOAD SWAP1 PUSH1 0x20 DUP2 DUP5 SUB SWAP2 ADD MSTORE PUSH2 0x1285 JUMP JUMPDEST SWAP1 JUMP JUMPDEST PUSH2 0x1336 SWAP2 PUSH1 0x20 DUP3 ADD SWAP2 PUSH1 0x0 DUP2 DUP5 SUB SWAP2 ADD MSTORE PUSH2 0x12ED JUMP JUMPDEST SWAP1 JUMP JUMPDEST CALLVALUE PUSH2 0x1369 JUMPI PUSH2 0x1365 PUSH2 0x1354 PUSH2 0x134F CALLDATASIZE PUSH1 0x4 PUSH2 0x193 JUMP JUMPDEST PUSH2 0x42C1 JUMP JUMPDEST PUSH2 0x135C PUSH2 0x143 JUMP JUMPDEST SWAP2 DUP3 SWAP2 DUP3 PUSH2 0x1320 JUMP JUMPDEST SUB SWAP1 RETURN JUMPDEST PUSH2 0x149 JUMP JUMPDEST PUSH2 0x1377 SWAP1 PUSH2 0x3F4 JUMP JUMPDEST SWAP1 MSTORE JUMP JUMPDEST SWAP2 SWAP1 PUSH2 0x138F SWAP1 PUSH1 0x0 PUSH1 0x20 DUP6 ADD SWAP5 ADD SWAP1 PUSH2 0x136E JUMP JUMPDEST JUMP JUMPDEST CALLVALUE PUSH2 0x13C1 JUMPI PUSH2 0x13A1 CALLDATASIZE PUSH1 0x4 PUSH2 0x4F8 JUMP JUMPDEST PUSH2 0x13BD PUSH2 0x13AC PUSH2 0x447A JUMP JUMPDEST PUSH2 0x13B4 PUSH2 0x143 JUMP JUMPDEST SWAP2 DUP3 SWAP2 DUP3 PUSH2 0x137B JUMP JUMPDEST SUB SWAP1 RETURN JUMPDEST PUSH2 0x149 JUMP JUMPDEST PUSH1 0x0 DUP1 REVERT JUMPDEST PUSH2 0x13D5 PUSH1 0x40 PUSH2 0x2E5 JUMP JUMPDEST SWAP1 JUMP JUMPDEST PUSH1 0x0 SWAP1 JUMP JUMPDEST PUSH2 0x13E5 PUSH2 0x13CB JUMP JUMPDEST SWAP1 PUSH1 0x20 DUP1 DUP4 PUSH2 0x13F2 PUSH2 0x13D8 JUMP JUMPDEST DUP2 MSTORE ADD PUSH2 0x13FD PUSH2 0x13D8 JUMP JUMPDEST DUP2 MSTORE POP POP JUMP JUMPDEST PUSH2 0x140B PUSH2 0x13DD JUMP JUMPDEST SWAP1 JUMP JUMPDEST PUSH1 0x0 SHR SWAP1 JUMP JUMPDEST PUSH2 0x1420 PUSH2 0x1425 SWAP2 PUSH2 0x140E JUMP JUMPDEST PUSH2 0x5DC JUMP JUMPDEST SWAP1 JUMP JUMPDEST PUSH2 0x1432 SWAP1 SLOAD PUSH2 0x1414 JUMP JUMPDEST SWAP1 JUMP JUMPDEST PUSH1 0x0 DUP1 REVERT JUMPDEST PUSH1 0xE0 SHL SWAP1 JUMP JUMPDEST SWAP1 POP MLOAD SWAP1 PUSH2 0x144D DUP3 PUSH2 0x3A6 JUMP JUMPDEST JUMP JUMPDEST SWAP2 SWAP1 PUSH1 0x40 DUP4 DUP3 SUB SLT PUSH2 0x148B JUMPI PUSH2 0x1484 SWAP1 PUSH2 0x1469 PUSH1 0x40 PUSH2 0x2E5 JUMP JUMPDEST SWAP4 PUSH2 0x1477 DUP3 PUSH1 0x0 DUP4 ADD PUSH2 0x1440 JUMP JUMPDEST PUSH1 0x0 DUP7 ADD MSTORE PUSH1 0x20 ADD PUSH2 0x1440 JUMP JUMPDEST PUSH1 0x20 DUP4 ADD MSTORE JUMP JUMPDEST PUSH2 0xEAF JUMP JUMPDEST SWAP1 PUSH1 0x40 DUP3 DUP3 SUB SLT PUSH2 0x14AA JUMPI PUSH2 0x14A7 SWAP2 PUSH1 0x0 ADD PUSH2 0x144F JUMP JUMPDEST SWAP1 JUMP JUMPDEST PUSH2 0x14E JUMP JUMPDEST PUSH2 0x14B7 PUSH2 0x143 JUMP JUMPDEST RETURNDATASIZE PUSH1 0x0 DUP3 RETURNDATACOPY RETURNDATASIZE SWAP1 REVERT JUMPDEST PUSH1 0x40 PUSH2 0x1508 SWAP2 PUSH2 0x14CE PUSH2 0x1403 JUMP JUMPDEST POP PUSH2 0x14E1 PUSH2 0x14DC PUSH1 0x0 PUSH2 0x1428 JUMP JUMPDEST PUSH2 0x61B JUMP JUMPDEST PUSH2 0x14FD PUSH4 0xAA65A43E PUSH2 0x14F1 PUSH2 0x143 JUMP JUMPDEST SWAP6 DUP7 SWAP5 DUP6 SWAP4 DUP5 SWAP4 PUSH2 0x143A JUMP JUMPDEST DUP4 MSTORE PUSH1 0x4 DUP4 ADD PUSH2 0xDB4 JUMP JUMPDEST SUB SWAP2 GAS STATICCALL SWAP1 DUP2 ISZERO PUSH2 0x154D JUMPI PUSH1 0x0 SWAP2 PUSH2 0x151F JUMPI JUMPDEST POP SWAP1 JUMP JUMPDEST PUSH2 0x1540 SWAP2 POP PUSH1 0x40 RETURNDATASIZE DUP2 GT PUSH2 0x1546 JUMPI JUMPDEST PUSH2 0x1538 DUP2 DUP4 PUSH2 0x2BC JUMP JUMPDEST DUP2 ADD SWAP1 PUSH2 0x1490 JUMP JUMPDEST CODESIZE PUSH2 0x151B JUMP JUMPDEST POP RETURNDATASIZE PUSH2 0x152E JUMP JUMPDEST PUSH2 0x14AF JUMP JUMPDEST PUSH1 0x0 SWAP1 JUMP JUMPDEST PUSH2 0x1563 PUSH2 0x1568 SWAP2 PUSH2 0x140E JUMP JUMPDEST PUSH2 0xCEE JUMP JUMPDEST SWAP1 JUMP JUMPDEST PUSH2 0x1575 SWAP1 SLOAD PUSH2 0x1557 JUMP JUMPDEST SWAP1 JUMP JUMPDEST PUSH2 0x158F PUSH2 0x1594 SWAP2 PUSH2 0x1587 PUSH2 0x1552 JUMP JUMPDEST POP PUSH1 0x4 PUSH2 0xCD6 JUMP JUMPDEST PUSH2 0x156B JUMP JUMPDEST SWAP1 JUMP JUMPDEST PUSH2 0x15A3 PUSH2 0x15A8 SWAP2 PUSH2 0x140E JUMP JUMPDEST PUSH2 0xD66 JUMP JUMPDEST SWAP1 JUMP JUMPDEST PUSH2 0x15B5 SWAP1 SLOAD PUSH2 0x1597 JUMP JUMPDEST SWAP1 JUMP JUMPDEST PUSH1 0x20 SWAP2 DUP2 MSTORE ADD SWAP1 JUMP JUMPDEST PUSH1 0x20 PUSH32 0x73616374696F6E73000000000000000000000000000000000000000000000000 SWAP2 PUSH32 0x4F6E6C79206F776E65722063616E2065786563757465206D657461207472616E PUSH1 0x0 DUP3 ADD MSTORE ADD MSTORE JUMP JUMPDEST PUSH2 0x161C PUSH1 0x28 PUSH1 0x40 SWAP3 PUSH2 0x15B8 JUMP JUMPDEST PUSH2 0x1625 DUP2 PUSH2 0x15C1 JUMP JUMPDEST ADD SWAP1 JUMP JUMPDEST PUSH2 0x163F SWAP1 PUSH1 0x20 DUP2 ADD SWAP1 PUSH1 0x0 DUP2 DUP4 SUB SWAP2 ADD MSTORE PUSH2 0x160F JUMP JUMPDEST SWAP1 JUMP JUMPDEST ISZERO PUSH2 0x1649 JUMPI JUMP JUMPDEST PUSH2 0x1651 PUSH2 0x143 JUMP JUMPDEST PUSH3 0x461BCD PUSH1 0xE5 SHL DUP2 MSTORE DUP1 PUSH2 0x1667 PUSH1 0x4 DUP3 ADD PUSH2 0x1629 JUMP JUMPDEST SUB SWAP1 REVERT JUMPDEST PUSH32 0x84700CD553A75C69A63577CC6918D25F03CC1260F9C590AD64E787D8225AEABB SWAP1 JUMP JUMPDEST SWAP1 JUMP JUMPDEST PUSH1 0x20 ADD SWAP1 JUMP JUMPDEST MLOAD SWAP1 JUMP JUMPDEST PUSH4 0x4E487B71 PUSH1 0xE0 SHL PUSH1 0x0 MSTORE PUSH1 0x11 PUSH1 0x4 MSTORE PUSH1 0x24 PUSH1 0x0 REVERT JUMPDEST PUSH2 0x16BB SWAP1 PUSH2 0x237 JUMP JUMPDEST PUSH1 0x0 NOT DUP2 EQ PUSH2 0x16CA JUMPI PUSH1 0x1 ADD SWAP1 JUMP JUMPDEST PUSH2 0x169C JUMP JUMPDEST PUSH1 0x0 SHL SWAP1 JUMP JUMPDEST SWAP1 PUSH2 0x16E2 PUSH1 0x0 NOT SWAP2 PUSH2 0x16CF JUMP JUMPDEST SWAP2 DUP2 NOT AND SWAP2 AND OR SWAP1 JUMP JUMPDEST PUSH2 0x1700 PUSH2 0x16FB PUSH2 0x1705 SWAP3 PUSH2 0x237 JUMP JUMPDEST PUSH2 0x54D JUMP JUMPDEST PUSH2 0x237 JUMP JUMPDEST SWAP1 JUMP JUMPDEST SWAP1 JUMP JUMPDEST SWAP1 PUSH2 0x1720 PUSH2 0x171B PUSH2 0x1727 SWAP3 PUSH2 0x16EC JUMP JUMPDEST PUSH2 0x1708 JUMP JUMPDEST DUP3 SLOAD PUSH2 0x16D5 JUMP JUMPDEST SWAP1 SSTORE JUMP JUMPDEST PUSH2 0x1734 SWAP1 PUSH2 0x1B2 JUMP JUMPDEST SWAP1 MSTORE JUMP JUMPDEST SWAP5 SWAP3 SWAP1 SWAP8 SWAP7 SWAP6 SWAP4 SWAP2 PUSH1 0xE0 DUP7 ADD SWAP9 PUSH1 0x0 DUP8 ADD PUSH2 0x1752 SWAP2 PUSH2 0x136E JUMP JUMPDEST PUSH1 0x20 DUP7 ADD PUSH2 0x175F SWAP2 PUSH2 0xDA7 JUMP JUMPDEST PUSH1 0x40 DUP6 ADD PUSH2 0x176C SWAP2 PUSH2 0x136E JUMP JUMPDEST PUSH1 0x60 DUP5 ADD PUSH2 0x1779 SWAP2 PUSH2 0x23A JUMP JUMPDEST PUSH1 0x80 DUP4 ADD PUSH2 0x1786 SWAP2 PUSH2 0x172B JUMP JUMPDEST PUSH1 0xA0 DUP3 ADD PUSH2 0x1793 SWAP2 PUSH2 0x172B JUMP JUMPDEST PUSH1 0xC0 ADD PUSH2 0x179F SWAP2 PUSH2 0x23A JUMP JUMPDEST JUMP JUMPDEST SWAP1 POP SWAP1 JUMP JUMPDEST PUSH1 0x0 PUSH2 0x1901 PUSH1 0xF0 SHL SWAP2 ADD MSTORE JUMP JUMPDEST PUSH2 0x17BF PUSH1 0x2 DUP1 SWAP3 PUSH2 0x17A1 JUMP JUMPDEST PUSH2 0x17C8 DUP2 PUSH2 0x17A6 JUMP JUMPDEST ADD SWAP1 JUMP JUMPDEST SWAP1 JUMP JUMPDEST PUSH2 0x17DB PUSH2 0x17E0 SWAP2 PUSH2 0x3F4 JUMP JUMPDEST PUSH2 0x17CC JUMP JUMPDEST SWAP1 MSTORE JUMP JUMPDEST PUSH1 0x20 DUP1 SWAP4 SWAP3 PUSH2 0x17FF PUSH2 0x17F8 PUSH2 0x1807 SWAP5 PUSH2 0x17B3 JUMP JUMPDEST DUP1 SWAP3 PUSH2 0x17CF JUMP JUMPDEST ADD DUP1 SWAP3 PUSH2 0x17CF JUMP JUMPDEST ADD SWAP1 JUMP JUMPDEST PUSH2 0x1814 SWAP1 PUSH2 0x3CA JUMP JUMPDEST SWAP1 MSTORE JUMP JUMPDEST PUSH2 0x184E PUSH2 0x1855 SWAP5 PUSH2 0x1844 PUSH1 0x60 SWAP5 SWAP9 SWAP8 SWAP6 PUSH2 0x183A PUSH1 0x80 DUP7 ADD SWAP11 PUSH1 0x0 DUP8 ADD SWAP1 PUSH2 0x136E JUMP JUMPDEST PUSH1 0x20 DUP6 ADD SWAP1 PUSH2 0x180B JUMP JUMPDEST PUSH1 0x40 DUP4 ADD SWAP1 PUSH2 0x136E JUMP JUMPDEST ADD SWAP1 PUSH2 0x136E JUMP JUMPDEST JUMP JUMPDEST PUSH1 0x0 PUSH32 0x496E76616C6964207369676E6174757265000000000000000000000000000000 SWAP2 ADD MSTORE JUMP JUMPDEST PUSH2 0x188C PUSH1 0x11 PUSH1 0x20 SWAP3 PUSH2 0x15B8 JUMP JUMPDEST PUSH2 0x1895 DUP2 PUSH2 0x1857 JUMP JUMPDEST ADD SWAP1 JUMP JUMPDEST PUSH2 0x18AF SWAP1 PUSH1 0x20 DUP2 ADD SWAP1 PUSH1 0x0 DUP2 DUP4 SUB SWAP2 ADD MSTORE PUSH2 0x187F JUMP JUMPDEST SWAP1 JUMP JUMPDEST ISZERO PUSH2 0x18B9 JUMPI JUMP JUMPDEST PUSH2 0x18C1 PUSH2 0x143 JUMP JUMPDEST PUSH3 0x461BCD PUSH1 0xE5 SHL DUP2 MSTORE DUP1 PUSH2 0x18D7 PUSH1 0x4 DUP3 ADD PUSH2 0x1899 JUMP JUMPDEST SUB SWAP1 REVERT JUMPDEST PUSH1 0x60 SHL SWAP1 JUMP JUMPDEST PUSH2 0x18EA SWAP1 PUSH2 0x18DB JUMP JUMPDEST SWAP1 JUMP JUMPDEST PUSH2 0x18F6 SWAP1 PUSH2 0x18E1 JUMP JUMPDEST SWAP1 JUMP JUMPDEST PUSH2 0x1905 PUSH2 0x190A SWAP2 PUSH2 0x163 JUMP JUMPDEST PUSH2 0x18ED JUMP JUMPDEST SWAP1 MSTORE JUMP JUMPDEST PUSH2 0x1933 PUSH2 0x192A SWAP3 PUSH1 0x20 SWAP3 PUSH2 0x1921 DUP2 PUSH2 0x9A6 JUMP JUMPDEST SWAP5 DUP6 DUP1 SWAP4 PUSH2 0x17A1 JUMP JUMPDEST SWAP4 DUP5 SWAP2 ADD PUSH2 0x9B3 JUMP JUMPDEST ADD SWAP1 JUMP JUMPDEST SWAP1 JUMP JUMPDEST PUSH2 0x1946 PUSH2 0x194B SWAP2 PUSH2 0x237 JUMP JUMPDEST PUSH2 0x1937 JUMP JUMPDEST SWAP1 MSTORE JUMP JUMPDEST PUSH1 0x20 SWAP4 SWAP3 PUSH1 0x14 DUP3 PUSH2 0x1966 PUSH2 0x196D SWAP5 PUSH2 0x1974 SWAP7 PUSH2 0x18F9 JUMP JUMPDEST ADD SWAP1 PUSH2 0x190E JUMP JUMPDEST DUP1 SWAP3 PUSH2 0x193A JUMP JUMPDEST ADD SWAP1 JUMP JUMPDEST PUSH2 0x1984 PUSH2 0x1989 SWAP2 PUSH2 0x140E JUMP JUMPDEST PUSH2 0x16EC JUMP JUMPDEST SWAP1 JUMP JUMPDEST PUSH2 0x19A0 PUSH2 0x199B PUSH2 0x19A5 SWAP3 PUSH2 0x237 JUMP JUMPDEST PUSH2 0x54D JUMP JUMPDEST PUSH2 0x158 JUMP JUMPDEST SWAP1 JUMP JUMPDEST SWAP1 PUSH2 0x19B2 SWAP1 PUSH2 0xCCA JUMP JUMPDEST PUSH1 0x0 MSTORE PUSH1 0x20 MSTORE PUSH1 0x40 PUSH1 0x0 KECCAK256 SWAP1 JUMP JUMPDEST SWAP1 JUMP JUMPDEST SLOAD SWAP1 JUMP JUMPDEST PUSH4 0x4E487B71 PUSH1 0xE0 SHL PUSH1 0x0 MSTORE PUSH1 0x32 PUSH1 0x4 MSTORE PUSH1 0x24 PUSH1 0x0 REVERT JUMPDEST PUSH1 0x0 MSTORE PUSH1 0x20 PUSH1 0x0 KECCAK256 SWAP1 JUMP JUMPDEST PUSH2 0x19F1 DUP2 PUSH2 0x19C3 JUMP JUMPDEST DUP3 LT ISZERO PUSH2 0x1A0C JUMPI PUSH2 0x1A03 PUSH1 0x3 SWAP2 PUSH2 0x19DD JUMP JUMPDEST SWAP2 MUL ADD SWAP1 PUSH1 0x0 SWAP1 JUMP JUMPDEST PUSH2 0x19C7 JUMP JUMPDEST PUSH2 0x1A1A DUP2 PUSH2 0x19C3 JUMP JUMPDEST PUSH9 0x10000000000000000 DUP2 LT ISZERO PUSH2 0x1A3E JUMPI PUSH2 0x1A3A SWAP2 PUSH1 0x1 DUP3 ADD DUP2 SSTORE PUSH2 0x19E8 JUMP JUMPDEST SWAP1 SWAP2 JUMP JUMPDEST PUSH2 0x2A6 JUMP JUMPDEST SWAP1 JUMP JUMPDEST SWAP1 PUSH2 0x1A57 PUSH1 0x1 DUP1 PUSH1 0xA0 SHL SUB SWAP2 PUSH2 0x16CF JUMP JUMPDEST SWAP2 DUP2 NOT AND SWAP2 AND OR SWAP1 JUMP JUMPDEST SWAP1 JUMP JUMPDEST SWAP1 PUSH2 0x1A79 PUSH2 0x1A74 PUSH2 0x1A80 SWAP3 PUSH2 0xCCA JUMP JUMPDEST PUSH2 0x1A61 JUMP JUMPDEST DUP3 SLOAD PUSH2 0x1A46 JUMP JUMPDEST SWAP1 SSTORE JUMP JUMPDEST PUSH4 0x4E487B71 PUSH1 0xE0 SHL PUSH1 0x0 MSTORE PUSH1 0x0 PUSH1 0x4 MSTORE PUSH1 0x24 PUSH1 0x0 REVERT JUMPDEST PUSH4 0x4E487B71 PUSH1 0xE0 SHL PUSH1 0x0 MSTORE PUSH1 0x22 PUSH1 0x4 MSTORE PUSH1 0x24 PUSH1 0x0 REVERT JUMPDEST SWAP1 PUSH1 0x1 PUSH1 0x2 DUP4 DIV SWAP3 AND DUP1 ISZERO PUSH2 0x1AD0 JUMPI JUMPDEST PUSH1 0x20 DUP4 LT EQ PUSH2 0x1ACB JUMPI JUMP JUMPDEST PUSH2 0x1A9A JUMP JUMPDEST SWAP2 PUSH1 0x7F AND SWAP2 PUSH2 0x1AC0 JUMP JUMPDEST PUSH1 0x0 MSTORE PUSH1 0x20 PUSH1 0x0 KECCAK256 SWAP1 JUMP JUMPDEST PUSH1 0x1F PUSH1 0x20 SWAP2 ADD DIV SWAP1 JUMP JUMPDEST SHL SWAP1 JUMP JUMPDEST SWAP2 SWAP1 PUSH1 0x8 PUSH2 0x1B0F SWAP2 MUL SWAP2 PUSH2 0x1B09 PUSH1 0x0 NOT DUP5 PUSH2 0x1AEF JUMP JUMPDEST SWAP3 PUSH2 0x1AEF JUMP JUMPDEST SWAP2 DUP2 NOT AND SWAP2 AND OR SWAP1 JUMP JUMPDEST SWAP2 SWAP1 PUSH2 0x1B2F PUSH2 0x1B2A PUSH2 0x1B37 SWAP4 PUSH2 0x16EC JUMP JUMPDEST PUSH2 0x1708 JUMP JUMPDEST SWAP1 DUP4 SLOAD PUSH2 0x1AF3 JUMP JUMPDEST SWAP1 SSTORE JUMP JUMPDEST PUSH2 0x1B4D SWAP2 PUSH2 0x1B47 PUSH2 0x1552 JUMP JUMPDEST SWAP2 PUSH2 0x1B19 JUMP JUMPDEST JUMP JUMPDEST JUMPDEST DUP2 DUP2 LT PUSH2 0x1B5B JUMPI POP POP JUMP JUMPDEST DUP1 PUSH2 0x1B69 PUSH1 0x0 PUSH1 0x1 SWAP4 PUSH2 0x1B3B JUMP JUMPDEST ADD PUSH2 0x1B50 JUMP JUMPDEST SWAP2 SWAP1 PUSH1 0x1F DUP2 GT PUSH2 0x1B7F JUMPI JUMPDEST POP POP POP JUMP JUMPDEST PUSH2 0x1B8B PUSH2 0x1BB0 SWAP4 PUSH2 0x1ADA JUMP JUMPDEST SWAP1 PUSH1 0x20 PUSH2 0x1B97 DUP5 PUSH2 0x1AE5 JUMP JUMPDEST DUP4 ADD SWAP4 LT PUSH2 0x1BB8 JUMPI JUMPDEST PUSH2 0x1BA9 SWAP1 PUSH2 0x1AE5 JUMP JUMPDEST ADD SWAP1 PUSH2 0x1B4F JUMP JUMPDEST CODESIZE DUP1 DUP1 PUSH2 0x1B7A JUMP JUMPDEST SWAP2 POP PUSH2 0x1BA9 DUP2 SWAP3 SWAP1 POP PUSH2 0x1BA0 JUMP JUMPDEST SWAP1 PUSH2 0x1BD7 SWAP1 PUSH1 0x0 NOT SWAP1 PUSH1 0x8 MUL PUSH2 0x508 JUMP JUMPDEST NOT AND SWAP1 JUMP JUMPDEST DUP2 PUSH2 0x1BE6 SWAP2 PUSH2 0x1BC6 JUMP JUMPDEST SWAP1 PUSH1 0x2 MUL OR SWAP1 JUMP JUMPDEST SWAP1 PUSH2 0x1BF8 DUP2 PUSH2 0x9A6 JUMP JUMPDEST SWAP1 PUSH8 0xFFFFFFFFFFFFFFFF DUP3 GT PUSH2 0x1CBA JUMPI PUSH2 0x1C1C DUP3 PUSH2 0x1C16 DUP6 SLOAD PUSH2 0x1AB0 JUMP JUMPDEST DUP6 PUSH2 0x1B6F JUMP JUMPDEST PUSH1 0x20 SWAP1 PUSH1 0x1F DUP4 GT PUSH1 0x1 EQ PUSH2 0x1C51 JUMPI SWAP2 DUP1 SWAP2 PUSH2 0x1C40 SWAP4 PUSH1 0x0 SWAP3 PUSH2 0x1C45 JUMPI JUMPDEST POP POP PUSH2 0x1BDC JUMP JUMPDEST SWAP1 SSTORE JUMPDEST JUMP JUMPDEST SWAP1 SWAP2 POP ADD MLOAD CODESIZE DUP1 PUSH2 0x1C39 JUMP JUMPDEST PUSH1 0x1F NOT DUP4 AND SWAP2 PUSH2 0x1C60 DUP6 PUSH2 0x1ADA JUMP JUMPDEST SWAP3 PUSH1 0x0 JUMPDEST DUP2 DUP2 LT PUSH2 0x1CA2 JUMPI POP SWAP2 PUSH1 0x2 SWAP4 SWAP2 DUP6 PUSH1 0x1 SWAP7 SWAP5 LT PUSH2 0x1C88 JUMPI JUMPDEST POP POP POP MUL ADD SWAP1 SSTORE PUSH2 0x1C43 JUMP JUMPDEST PUSH2 0x1C98 SWAP2 ADD MLOAD PUSH1 0x1F DUP5 AND SWAP1 PUSH2 0x1BC6 JUMP JUMPDEST SWAP1 SSTORE CODESIZE DUP1 DUP1 PUSH2 0x1C7C JUMP JUMPDEST SWAP2 SWAP4 PUSH1 0x20 PUSH1 0x1 DUP2 SWAP3 DUP8 DUP8 ADD MLOAD DUP2 SSTORE ADD SWAP6 ADD SWAP3 ADD PUSH2 0x1C64 JUMP JUMPDEST PUSH2 0x2A6 JUMP JUMPDEST SWAP1 PUSH2 0x1CC9 SWAP2 PUSH2 0x1BEE JUMP JUMPDEST JUMP JUMPDEST SWAP1 PUSH2 0x1CD5 SWAP1 PUSH2 0xCCA JUMP JUMPDEST PUSH1 0x0 MSTORE PUSH1 0x20 MSTORE PUSH1 0x40 PUSH1 0x0 KECCAK256 SWAP1 JUMP JUMPDEST SWAP1 JUMP JUMPDEST PUSH1 0x0 MSTORE PUSH1 0x20 PUSH1 0x0 KECCAK256 SWAP1 JUMP JUMPDEST SLOAD SWAP1 JUMP JUMPDEST PUSH2 0x1CFE DUP2 PUSH2 0x1CF1 JUMP JUMPDEST DUP3 LT ISZERO PUSH2 0x1D19 JUMPI PUSH2 0x1D10 PUSH1 0x1 SWAP2 PUSH2 0x1CE6 JUMP JUMPDEST SWAP2 MUL ADD SWAP1 PUSH1 0x0 SWAP1 JUMP JUMPDEST PUSH2 0x19C7 JUMP JUMPDEST SWAP2 SWAP1 PUSH1 0x8 PUSH2 0x1D3E SWAP2 MUL SWAP2 PUSH2 0x1D38 PUSH1 0x1 DUP1 PUSH1 0xA0 SHL SUB DUP5 PUSH2 0x1AEF JUMP JUMPDEST SWAP3 PUSH2 0x1AEF JUMP JUMPDEST SWAP2 DUP2 NOT AND SWAP2 AND OR SWAP1 JUMP JUMPDEST SWAP2 SWAP1 PUSH2 0x1D5E PUSH2 0x1D59 PUSH2 0x1D66 SWAP4 PUSH2 0xCCA JUMP JUMPDEST PUSH2 0x1A61 JUMP JUMPDEST SWAP1 DUP4 SLOAD PUSH2 0x1D1E JUMP JUMPDEST SWAP1 SSTORE JUMP JUMPDEST SWAP1 DUP2 SLOAD SWAP2 PUSH9 0x10000000000000000 DUP4 LT ISZERO PUSH2 0x1D9A JUMPI DUP3 PUSH2 0x1D92 SWAP2 PUSH1 0x1 PUSH2 0x1D98 SWAP6 ADD DUP2 SSTORE PUSH2 0x1CF5 JUMP JUMPDEST SWAP1 PUSH2 0x1D48 JUMP JUMPDEST JUMP JUMPDEST PUSH2 0x2A6 JUMP JUMPDEST PUSH2 0x1DA9 PUSH1 0x40 PUSH2 0x2E5 JUMP JUMPDEST SWAP1 JUMP JUMPDEST SWAP1 PUSH2 0x1DB6 SWAP1 PUSH2 0x1B2 JUMP JUMPDEST SWAP1 MSTORE JUMP JUMPDEST PUSH1 0x0 SWAP2 SUB SLT PUSH2 0x1DC5 JUMPI JUMP JUMPDEST PUSH2 0x14E JUMP JUMPDEST SWAP2 PUSH1 0x20 PUSH2 0x1DEC SWAP3 SWAP5 SWAP4 PUSH2 0x1DE5 PUSH1 0x60 DUP3 ADD SWAP7 PUSH1 0x0 DUP4 ADD SWAP1 PUSH2 0xDA7 JUMP JUMPDEST ADD SWAP1 PUSH2 0x1C6 JUMP JUMPDEST JUMP JUMPDEST PUSH2 0x1DFA PUSH2 0x1DFF SWAP2 PUSH2 0x140E JUMP JUMPDEST PUSH2 0x50C JUMP JUMPDEST SWAP1 JUMP JUMPDEST PUSH2 0x1E0C SWAP1 SLOAD PUSH2 0x1DEE JUMP JUMPDEST SWAP1 JUMP JUMPDEST SWAP6 DUP5 SWAP6 PUSH2 0x1F2B DUP5 SWAP10 DUP5 SWAP8 PUSH2 0x1F05 PUSH1 0x0 SWAP7 PUSH2 0x1ECD DUP11 PUSH2 0x1EBF DUP16 SWAP12 PUSH1 0x20 SWAP13 PUSH2 0x1E50 CALLER PUSH2 0x1E4A PUSH2 0x1E44 PUSH2 0x1E3F PUSH1 0x3 PUSH2 0x15AB JUMP JUMPDEST PUSH2 0x163 JUMP JUMPDEST SWAP2 PUSH2 0x163 JUMP JUMPDEST EQ PUSH2 0x1642 JUMP JUMPDEST PUSH2 0x1E58 PUSH2 0x447A JUMP JUMPDEST SWAP8 PUSH2 0x1E61 PUSH2 0x166B JUMP JUMPDEST SWAP5 PUSH2 0x1E8D PUSH2 0x1E6F DUP5 SWAP10 PUSH2 0x168F JUMP JUMPDEST PUSH2 0x1E81 PUSH2 0x1E7B DUP3 PUSH2 0x1698 JUMP JUMPDEST SWAP2 PUSH2 0x1692 JUMP JUMPDEST KECCAK256 SWAP5 SWAP2 SWAP3 SWAP4 PUSH1 0x4 PUSH2 0xCD6 JUMP JUMPDEST PUSH2 0x1EA9 PUSH2 0x1E99 DUP3 PUSH2 0x156B JUMP JUMPDEST SWAP2 PUSH2 0x1EA3 DUP4 PUSH2 0x16B2 JUMP JUMPDEST SWAP1 PUSH2 0x170B JUMP JUMPDEST SWAP4 PUSH2 0x1EB2 PUSH2 0x143 JUMP JUMPDEST SWAP9 PUSH1 0x20 SWAP8 DUP11 SWAP9 DUP10 ADD PUSH2 0x1738 JUMP JUMPDEST DUP12 DUP3 ADD DUP2 SUB DUP3 MSTORE SUB DUP3 PUSH2 0x2BC JUMP JUMPDEST PUSH2 0x1EDF PUSH2 0x1ED9 DUP3 PUSH2 0x1698 JUMP JUMPDEST SWAP2 PUSH2 0x1692 JUMP JUMPDEST KECCAK256 SWAP2 PUSH2 0x1EF7 PUSH2 0x1EEC PUSH2 0x143 JUMP JUMPDEST SWAP4 DUP5 SWAP3 DUP12 DUP5 ADD PUSH2 0x17E4 JUMP JUMPDEST DUP10 DUP3 ADD DUP2 SUB DUP3 MSTORE SUB DUP3 PUSH2 0x2BC JUMP JUMPDEST PUSH2 0x1F17 PUSH2 0x1F11 DUP3 PUSH2 0x1698 JUMP JUMPDEST SWAP2 PUSH2 0x1692 JUMP JUMPDEST KECCAK256 SWAP3 SWAP4 PUSH2 0x1F22 PUSH2 0x143 JUMP JUMPDEST SWAP5 DUP6 SWAP5 DUP6 PUSH2 0x1818 JUMP JUMPDEST DUP4 DUP1 MSTORE SUB SWAP1 PUSH1 0x1 GAS STATICCALL ISZERO PUSH2 0x21AB JUMPI PUSH2 0x2007 PUSH2 0x2044 SWAP3 PUSH2 0x1F66 PUSH2 0x1F4E PUSH1 0x0 MLOAD PUSH2 0x16CF JUMP JUMPDEST PUSH2 0x1F60 PUSH2 0x1F5A DUP10 PUSH2 0x163 JUMP JUMPDEST SWAP2 PUSH2 0x163 JUMP JUMPDEST EQ PUSH2 0x18B2 JUMP JUMPDEST PUSH1 0x2 PUSH2 0x1FC0 PUSH2 0x1FBB PUSH2 0x1FB6 DUP11 PUSH2 0x1F9E DUP12 PUSH2 0x1F8F DUP9 SWAP4 PUSH2 0x1F83 PUSH2 0x143 JUMP JUMPDEST SWAP5 DUP6 SWAP4 PUSH1 0x20 DUP6 ADD PUSH2 0x194F JUMP JUMPDEST PUSH1 0x20 DUP3 ADD DUP2 SUB DUP3 MSTORE SUB DUP3 PUSH2 0x2BC JUMP JUMPDEST PUSH2 0x1FB0 PUSH2 0x1FAA DUP3 PUSH2 0x1698 JUMP JUMPDEST SWAP2 PUSH2 0x1692 JUMP JUMPDEST KECCAK256 PUSH2 0x1978 JUMP JUMPDEST PUSH2 0x198C JUMP JUMPDEST PUSH2 0x56C JUMP JUMPDEST SWAP8 PUSH2 0x2000 PUSH2 0x1FE9 PUSH2 0x1FE3 PUSH2 0x1FDE PUSH2 0x1FD9 PUSH1 0x5 DUP14 SWAP1 PUSH2 0x19A8 JUMP JUMPDEST PUSH2 0x19C0 JUMP JUMPDEST PUSH2 0x1A11 JUMP JUMPDEST POP PUSH2 0x1A43 JUMP JUMPDEST SWAP4 PUSH2 0x1FF7 DUP12 PUSH1 0x0 DUP8 ADD PUSH2 0x1A64 JUMP JUMPDEST PUSH1 0x1 DUP6 ADD PUSH2 0x1CBF JUMP JUMPDEST SWAP2 ADD PUSH2 0x170B JUMP JUMPDEST PUSH2 0x2025 PUSH2 0x201E PUSH2 0x2019 PUSH1 0x6 DUP9 SWAP1 PUSH2 0x1CCB JUMP JUMPDEST PUSH2 0x1CE3 JUMP JUMPDEST DUP6 SWAP1 PUSH2 0x1D6A JUMP JUMPDEST SWAP2 PUSH2 0x203B PUSH2 0x2031 PUSH2 0x1D9F JUMP JUMPDEST SWAP4 PUSH1 0x0 DUP6 ADD PUSH2 0x1DAC JUMP JUMPDEST PUSH1 0x20 DUP4 ADD PUSH2 0x1DAC JUMP JUMPDEST PUSH2 0x2056 PUSH2 0x2051 PUSH1 0x0 PUSH2 0x1428 JUMP JUMPDEST PUSH2 0x61B JUMP JUMPDEST SWAP1 PUSH4 0xFEF28772 SWAP1 DUP5 SWAP1 SWAP3 DUP1 EXTCODESIZE ISZERO PUSH2 0x21A6 JUMPI PUSH2 0x2085 PUSH1 0x0 DUP1 SWAP5 PUSH2 0x2090 PUSH2 0x2079 PUSH2 0x143 JUMP JUMPDEST SWAP8 DUP9 SWAP7 DUP8 SWAP6 DUP7 SWAP5 PUSH2 0x143A JUMP JUMPDEST DUP5 MSTORE PUSH1 0x4 DUP5 ADD PUSH2 0x1DCA JUMP JUMPDEST SUB SWAP3 GAS CALL DUP1 ISZERO PUSH2 0x21A1 JUMPI PUSH2 0x2174 JUMPI JUMPDEST POP PUSH2 0x20B2 PUSH2 0x20AD PUSH1 0x2 PUSH2 0x1E02 JUMP JUMPDEST PUSH2 0x578 JUMP JUMPDEST PUSH4 0x59C3309E DUP4 DUP3 EXTCODESIZE ISZERO PUSH2 0x216F JUMPI PUSH2 0x20E9 SWAP3 PUSH2 0x20DE PUSH1 0x0 DUP1 SWAP5 PUSH2 0x20D2 PUSH2 0x143 JUMP JUMPDEST SWAP7 DUP8 SWAP6 DUP7 SWAP5 DUP6 SWAP4 PUSH2 0x143A JUMP JUMPDEST DUP4 MSTORE PUSH1 0x4 DUP4 ADD PUSH2 0xDB4 JUMP JUMPDEST SUB SWAP3 GAS CALL DUP1 ISZERO PUSH2 0x216A JUMPI PUSH2 0x213D JUMPI JUMPDEST POP PUSH2 0x2138 PUSH2 0x2126 PUSH32 0xCA9CD3D407E1929A81A936F2D713A37A799F8E396184EA2AF249A3EC3BAD9207 SWAP3 PUSH2 0xCCA JUMP JUMPDEST SWAP3 PUSH2 0x212F PUSH2 0x143 JUMP JUMPDEST SWAP2 DUP3 SWAP2 DUP3 PUSH2 0xDB4 JUMP JUMPDEST SUB SWAP1 LOG2 JUMP JUMPDEST PUSH2 0x215D SWAP1 PUSH1 0x0 RETURNDATASIZE DUP2 GT PUSH2 0x2163 JUMPI JUMPDEST PUSH2 0x2155 DUP2 DUP4 PUSH2 0x2BC JUMP JUMPDEST DUP2 ADD SWAP1 PUSH2 0x1DBA JUMP JUMPDEST CODESIZE PUSH2 0x20F8 JUMP JUMPDEST POP RETURNDATASIZE PUSH2 0x214B JUMP JUMPDEST PUSH2 0x14AF JUMP JUMPDEST PUSH2 0x1435 JUMP JUMPDEST PUSH2 0x2194 SWAP1 PUSH1 0x0 RETURNDATASIZE DUP2 GT PUSH2 0x219A JUMPI JUMPDEST PUSH2 0x218C DUP2 DUP4 PUSH2 0x2BC JUMP JUMPDEST DUP2 ADD SWAP1 PUSH2 0x1DBA JUMP JUMPDEST CODESIZE PUSH2 0x209F JUMP JUMPDEST POP RETURNDATASIZE PUSH2 0x2182 JUMP JUMPDEST PUSH2 0x14AF JUMP JUMPDEST PUSH2 0x1435 JUMP JUMPDEST PUSH2 0x14AF JUMP JUMPDEST PUSH32 0xD3E8853FF580E63C96FFB51F99AA93A062DE0B320B5427BCC35F76F5FD9B216A SWAP1 JUMP JUMPDEST SWAP2 SWAP5 PUSH2 0x221D PUSH2 0x2227 SWAP3 SWAP9 SWAP8 SWAP6 PUSH2 0x2213 PUSH1 0xA0 SWAP7 PUSH2 0x2209 PUSH2 0x222E SWAP11 PUSH2 0x21FF PUSH1 0xC0 DUP11 ADD SWAP15 PUSH1 0x0 DUP12 ADD SWAP1 PUSH2 0x136E JUMP JUMPDEST PUSH1 0x20 DUP10 ADD SWAP1 PUSH2 0xDA7 JUMP JUMPDEST PUSH1 0x40 DUP8 ADD SWAP1 PUSH2 0xDA7 JUMP JUMPDEST PUSH1 0x60 DUP6 ADD SWAP1 PUSH2 0x172B JUMP JUMPDEST PUSH1 0x80 DUP4 ADD SWAP1 PUSH2 0x172B JUMP JUMPDEST ADD SWAP1 PUSH2 0x23A JUMP JUMPDEST JUMP JUMPDEST SWAP4 SWAP5 PUSH1 0x20 SWAP3 SWAP4 SWAP6 PUSH2 0x232F PUSH1 0x0 SWAP4 SWAP9 PUSH2 0x2263 CALLER PUSH2 0x225D PUSH2 0x2257 PUSH2 0x2252 PUSH1 0x3 PUSH2 0x15AB JUMP JUMPDEST PUSH2 0x163 JUMP JUMPDEST SWAP2 PUSH2 0x163 JUMP JUMPDEST EQ PUSH2 0x1642 JUMP JUMPDEST DUP8 PUSH2 0x2309 DUP12 PUSH2 0x22D1 DUP13 PUSH2 0x22C3 DUP13 PUSH2 0x2278 PUSH2 0x447A JUMP JUMPDEST SWAP7 PUSH2 0x2281 PUSH2 0x21B0 JUMP JUMPDEST SWAP4 PUSH2 0x2291 DUP3 SWAP8 SWAP4 SWAP2 SWAP3 PUSH1 0x4 PUSH2 0xCD6 JUMP JUMPDEST PUSH2 0x22AD PUSH2 0x229D DUP3 PUSH2 0x156B JUMP JUMPDEST SWAP2 PUSH2 0x22A7 DUP4 PUSH2 0x16B2 JUMP JUMPDEST SWAP1 PUSH2 0x170B JUMP JUMPDEST SWAP3 PUSH2 0x22B6 PUSH2 0x143 JUMP JUMPDEST SWAP8 PUSH1 0x20 SWAP7 DUP10 SWAP8 DUP9 ADD PUSH2 0x21D4 JUMP JUMPDEST DUP12 DUP3 ADD DUP2 SUB DUP3 MSTORE SUB DUP3 PUSH2 0x2BC JUMP JUMPDEST PUSH2 0x22E3 PUSH2 0x22DD DUP3 PUSH2 0x1698 JUMP JUMPDEST SWAP2 PUSH2 0x1692 JUMP JUMPDEST KECCAK256 SWAP2 PUSH2 0x22FB PUSH2 0x22F0 PUSH2 0x143 JUMP JUMPDEST SWAP4 DUP5 SWAP3 DUP12 DUP5 ADD PUSH2 0x17E4 JUMP JUMPDEST DUP10 DUP3 ADD DUP2 SUB DUP3 MSTORE SUB DUP3 PUSH2 0x2BC JUMP JUMPDEST PUSH2 0x231B PUSH2 0x2315 DUP3 PUSH2 0x1698 JUMP JUMPDEST SWAP2 PUSH2 0x1692 JUMP JUMPDEST KECCAK256 SWAP3 SWAP4 PUSH2 0x2326 PUSH2 0x143 JUMP JUMPDEST SWAP5 DUP6 SWAP5 DUP6 PUSH2 0x1818 JUMP JUMPDEST DUP4 DUP1 MSTORE SUB SWAP1 PUSH1 0x1 GAS STATICCALL ISZERO PUSH2 0x241B JUMPI PUSH2 0x2367 PUSH2 0x2386 SWAP3 PUSH2 0x2361 PUSH2 0x235B PUSH2 0x2355 PUSH1 0x0 MLOAD PUSH2 0x16CF JUMP JUMPDEST SWAP3 PUSH2 0x163 JUMP JUMPDEST SWAP2 PUSH2 0x163 JUMP JUMPDEST EQ PUSH2 0x18B2 JUMP JUMPDEST SWAP2 PUSH2 0x237D PUSH2 0x2373 PUSH2 0x1D9F JUMP JUMPDEST SWAP4 PUSH1 0x0 DUP6 ADD PUSH2 0x1DAC JUMP JUMPDEST PUSH1 0x20 DUP4 ADD PUSH2 0x1DAC JUMP JUMPDEST SWAP1 PUSH2 0x2399 PUSH2 0x2394 PUSH1 0x0 PUSH2 0x1428 JUMP JUMPDEST PUSH2 0x61B JUMP JUMPDEST SWAP2 PUSH4 0xFEF28772 SWAP2 SWAP1 SWAP3 DUP1 EXTCODESIZE ISZERO PUSH2 0x2416 JUMPI PUSH2 0x23C7 PUSH1 0x0 DUP1 SWAP5 PUSH2 0x23D2 PUSH2 0x23BB PUSH2 0x143 JUMP JUMPDEST SWAP8 DUP9 SWAP7 DUP8 SWAP6 DUP7 SWAP5 PUSH2 0x143A JUMP JUMPDEST DUP5 MSTORE PUSH1 0x4 DUP5 ADD PUSH2 0x1DCA JUMP JUMPDEST SUB SWAP3 GAS CALL DUP1 ISZERO PUSH2 0x2411 JUMPI PUSH2 0x23E4 JUMPI JUMPDEST POP JUMP JUMPDEST PUSH2 0x2404 SWAP1 PUSH1 0x0 RETURNDATASIZE DUP2 GT PUSH2 0x240A JUMPI JUMPDEST PUSH2 0x23FC DUP2 DUP4 PUSH2 0x2BC JUMP JUMPDEST DUP2 ADD SWAP1 PUSH2 0x1DBA JUMP JUMPDEST CODESIZE PUSH2 0x23E1 JUMP JUMPDEST POP RETURNDATASIZE PUSH2 0x23F2 JUMP JUMPDEST PUSH2 0x14AF JUMP JUMPDEST PUSH2 0x1435 JUMP JUMPDEST PUSH2 0x14AF JUMP JUMPDEST PUSH32 0x4E5BBDA4C8F0FBD0CAEEBB5B407058204DD2F7560F21E72E14EDEBE045328839 SWAP1 JUMP JUMPDEST SWAP8 SWAP6 SWAP4 SWAP2 SWAP11 SWAP10 SWAP9 SWAP7 SWAP5 SWAP3 SWAP1 SWAP11 PUSH2 0x140 DUP10 ADD SWAP12 PUSH1 0x0 DUP11 ADD PUSH2 0x2463 SWAP2 PUSH2 0x136E JUMP JUMPDEST PUSH1 0x20 DUP10 ADD PUSH2 0x2470 SWAP2 PUSH2 0xDA7 JUMP JUMPDEST PUSH1 0x40 DUP9 ADD PUSH2 0x247D SWAP2 PUSH2 0xDA7 JUMP JUMPDEST PUSH1 0x60 DUP8 ADD PUSH2 0x248A SWAP2 PUSH2 0x180B JUMP JUMPDEST PUSH1 0x80 DUP7 ADD PUSH2 0x2497 SWAP2 PUSH2 0x136E JUMP JUMPDEST PUSH1 0xA0 DUP6 ADD PUSH2 0x24A4 SWAP2 PUSH2 0x136E JUMP JUMPDEST PUSH1 0xC0 DUP5 ADD PUSH2 0x24B1 SWAP2 PUSH2 0x136E JUMP JUMPDEST PUSH1 0xE0 DUP4 ADD PUSH2 0x24BE SWAP2 PUSH2 0x136E JUMP JUMPDEST PUSH2 0x100 DUP3 ADD PUSH2 0x24CC SWAP2 PUSH2 0x136E JUMP JUMPDEST PUSH2 0x120 ADD PUSH2 0x24D9 SWAP2 PUSH2 0x23A JUMP JUMPDEST JUMP JUMPDEST PUSH2 0x24E7 PUSH2 0x24EC SWAP2 PUSH2 0x140E JUMP JUMPDEST PUSH2 0x106F JUMP JUMPDEST SWAP1 JUMP JUMPDEST PUSH2 0x24F9 SWAP1 SLOAD PUSH2 0x24DB JUMP JUMPDEST SWAP1 JUMP JUMPDEST PUSH2 0x2505 SWAP1 PUSH2 0xB64 JUMP JUMPDEST SWAP1 MSTORE JUMP JUMPDEST PUSH2 0x2528 PUSH2 0x2531 PUSH1 0x20 SWAP4 PUSH2 0x2536 SWAP4 PUSH2 0x251F DUP2 PUSH2 0x9A6 JUMP JUMPDEST SWAP4 DUP5 DUP1 SWAP4 PUSH2 0x15B8 JUMP JUMPDEST SWAP6 DUP7 SWAP2 ADD PUSH2 0x9B3 JUMP JUMPDEST PUSH2 0x29C JUMP JUMPDEST ADD SWAP1 JUMP JUMPDEST SWAP6 SWAP3 PUSH2 0x25A7 SWAP5 PUSH2 0x257D DUP9 PUSH2 0x258B SWAP4 PUSH2 0x2570 PUSH2 0x2599 SWAP8 PUSH2 0x2566 PUSH2 0x25B5 SWAP15 SWAP13 SWAP9 PUSH1 0x0 PUSH1 0xE0 DUP8 ADD SWAP7 ADD SWAP1 PUSH2 0xDA7 JUMP JUMPDEST PUSH1 0x20 DUP14 ADD SWAP1 PUSH2 0x24FC JUMP JUMPDEST DUP11 DUP3 SUB PUSH1 0x40 DUP13 ADD MSTORE PUSH2 0x2509 JUMP JUMPDEST SWAP1 DUP9 DUP3 SUB PUSH1 0x60 DUP11 ADD MSTORE PUSH2 0x2509 JUMP JUMPDEST SWAP1 DUP7 DUP3 SUB PUSH1 0x80 DUP9 ADD MSTORE PUSH2 0x2509 JUMP JUMPDEST SWAP1 DUP5 DUP3 SUB PUSH1 0xA0 DUP7 ADD MSTORE PUSH2 0x2509 JUMP JUMPDEST SWAP2 PUSH1 0xC0 DUP2 DUP5 SUB SWAP2 ADD MSTORE PUSH2 0x2509 JUMP JUMPDEST SWAP1 JUMP JUMPDEST SWAP3 SWAP10 SWAP2 SWAP8 SWAP9 SWAP1 SWAP4 SWAP7 SWAP9 CALLER PUSH2 0x25CC PUSH1 0x3 PUSH2 0x15AB JUMP JUMPDEST PUSH2 0x25D5 SWAP1 PUSH2 0x163 JUMP JUMPDEST SWAP1 PUSH2 0x25DF SWAP1 PUSH2 0x163 JUMP JUMPDEST EQ PUSH2 0x25E9 SWAP1 PUSH2 0x1642 JUMP JUMPDEST PUSH2 0x25F1 PUSH2 0x447A JUMP JUMPDEST DUP10 DUP12 DUP14 PUSH2 0x25FC PUSH2 0x2420 JUMP JUMPDEST SWAP1 DUP13 DUP10 SWAP4 DUP14 DUP14 DUP14 SWAP8 PUSH2 0x260D SWAP1 PUSH2 0xB64 JUMP JUMPDEST SWAP5 PUSH2 0x2617 SWAP1 PUSH2 0x168F JUMP JUMPDEST PUSH2 0x2620 DUP2 PUSH2 0x1698 JUMP JUMPDEST SWAP1 PUSH2 0x262A SWAP1 PUSH2 0x1692 JUMP JUMPDEST KECCAK256 SWAP4 PUSH2 0x2635 SWAP1 PUSH2 0x168F JUMP JUMPDEST PUSH2 0x263E DUP2 PUSH2 0x1698 JUMP JUMPDEST SWAP1 PUSH2 0x2648 SWAP1 PUSH2 0x1692 JUMP JUMPDEST KECCAK256 SWAP1 PUSH2 0x2653 SWAP1 PUSH2 0x168F JUMP JUMPDEST PUSH2 0x265C DUP2 PUSH2 0x1698 JUMP JUMPDEST SWAP1 PUSH2 0x2666 SWAP1 PUSH2 0x1692 JUMP JUMPDEST KECCAK256 SWAP2 PUSH2 0x2671 SWAP1 PUSH2 0x168F JUMP JUMPDEST PUSH2 0x267A DUP2 PUSH2 0x1698 JUMP JUMPDEST SWAP1 PUSH2 0x2684 SWAP1 PUSH2 0x1692 JUMP JUMPDEST KECCAK256 SWAP3 PUSH2 0x268F SWAP1 PUSH2 0x168F JUMP JUMPDEST PUSH2 0x2698 DUP2 PUSH2 0x1698 JUMP JUMPDEST SWAP1 PUSH2 0x26A2 SWAP1 PUSH2 0x1692 JUMP JUMPDEST KECCAK256 SWAP4 DUP14 PUSH1 0x4 SWAP1 PUSH2 0x26B1 SWAP2 PUSH2 0xCD6 JUMP JUMPDEST PUSH2 0x26BA DUP2 PUSH2 0x156B JUMP JUMPDEST SWAP1 PUSH2 0x26C4 DUP3 PUSH2 0x16B2 JUMP JUMPDEST PUSH2 0x26CD SWAP2 PUSH2 0x170B JUMP JUMPDEST SWAP6 PUSH2 0x26D6 PUSH2 0x143 JUMP JUMPDEST SWAP10 DUP11 SWAP10 PUSH1 0x20 DUP12 ADD SWAP10 PUSH2 0x26E7 SWAP11 PUSH2 0x2444 JUMP JUMPDEST PUSH1 0x20 DUP3 ADD DUP2 SUB DUP3 MSTORE SUB PUSH2 0x26FA SWAP1 DUP3 PUSH2 0x2BC JUMP JUMPDEST PUSH2 0x2703 DUP2 PUSH2 0x1698 JUMP JUMPDEST SWAP1 PUSH2 0x270D SWAP1 PUSH2 0x1692 JUMP JUMPDEST KECCAK256 PUSH2 0x2716 PUSH2 0x143 JUMP JUMPDEST SWAP2 DUP3 SWAP2 PUSH1 0x20 DUP4 ADD SWAP2 PUSH2 0x2727 SWAP3 PUSH2 0x17E4 JUMP JUMPDEST PUSH1 0x20 DUP3 ADD DUP2 SUB DUP3 MSTORE SUB PUSH2 0x273A SWAP1 DUP3 PUSH2 0x2BC JUMP JUMPDEST PUSH2 0x2743 DUP2 PUSH2 0x1698 JUMP JUMPDEST SWAP1 PUSH2 0x274D SWAP1 PUSH2 0x1692 JUMP JUMPDEST KECCAK256 SWAP1 SWAP2 SWAP3 PUSH2 0x2759 PUSH2 0x143 JUMP JUMPDEST SWAP4 DUP5 SWAP4 PUSH2 0x2766 SWAP4 DUP6 PUSH2 0x1818 JUMP JUMPDEST PUSH1 0x0 DUP1 MSTORE SUB SWAP1 GAS SWAP2 PUSH1 0x0 SWAP2 PUSH1 0x1 PUSH1 0x20 SWAP5 STATICCALL ISZERO PUSH2 0x283E JUMPI PUSH2 0x27A3 SWAP1 PUSH2 0x279D PUSH2 0x2797 PUSH2 0x2791 PUSH1 0x0 MLOAD PUSH2 0x16CF JUMP JUMPDEST SWAP3 PUSH2 0x163 JUMP JUMPDEST SWAP2 PUSH2 0x163 JUMP JUMPDEST EQ PUSH2 0x18B2 JUMP JUMPDEST PUSH2 0x27B5 PUSH2 0x27B0 PUSH1 0x1 PUSH2 0x24EF JUMP JUMPDEST PUSH2 0x10B0 JUMP JUMPDEST SWAP4 PUSH4 0x3B27F4E2 SWAP2 SWAP6 SWAP8 SWAP1 SWAP3 SWAP4 SWAP7 DUP6 EXTCODESIZE ISZERO PUSH2 0x2839 JUMPI PUSH1 0x0 SWAP8 PUSH2 0x27EA SWAP6 DUP10 SWAP6 PUSH2 0x27F5 SWAP5 PUSH2 0x27DE PUSH2 0x143 JUMP JUMPDEST SWAP13 DUP14 SWAP12 DUP13 SWAP11 DUP12 SWAP10 PUSH2 0x143A JUMP JUMPDEST DUP10 MSTORE PUSH1 0x4 DUP10 ADD PUSH2 0x253A JUMP JUMPDEST SUB SWAP3 GAS CALL DUP1 ISZERO PUSH2 0x2834 JUMPI PUSH2 0x2807 JUMPI JUMPDEST POP JUMP JUMPDEST PUSH2 0x2827 SWAP1 PUSH1 0x0 RETURNDATASIZE DUP2 GT PUSH2 0x282D JUMPI JUMPDEST PUSH2 0x281F DUP2 DUP4 PUSH2 0x2BC JUMP JUMPDEST DUP2 ADD SWAP1 PUSH2 0x1DBA JUMP JUMPDEST CODESIZE PUSH2 0x2804 JUMP JUMPDEST POP RETURNDATASIZE PUSH2 0x2815 JUMP JUMPDEST PUSH2 0x14AF JUMP JUMPDEST PUSH2 0x1435 JUMP JUMPDEST PUSH2 0x14AF JUMP JUMPDEST PUSH32 0x8CC3F5829ADE81B0442C7C56B5B90525A08C3EDE683FF5E9DD4F4F1D12E4BF59 SWAP1 JUMP JUMPDEST SWAP5 SWAP3 SWAP1 SWAP8 SWAP7 SWAP6 SWAP4 SWAP2 PUSH1 0xE0 DUP7 ADD SWAP9 PUSH1 0x0 DUP8 ADD PUSH2 0x2881 SWAP2 PUSH2 0x136E JUMP JUMPDEST PUSH1 0x20 DUP7 ADD PUSH2 0x288E SWAP2 PUSH2 0xDA7 JUMP JUMPDEST PUSH1 0x40 DUP6 ADD PUSH2 0x289B SWAP2 PUSH2 0xDA7 JUMP JUMPDEST PUSH1 0x60 DUP5 ADD PUSH2 0x28A8 SWAP2 PUSH2 0x136E JUMP JUMPDEST PUSH1 0x80 DUP4 ADD PUSH2 0x28B5 SWAP2 PUSH2 0x180B JUMP JUMPDEST PUSH1 0xA0 DUP3 ADD PUSH2 0x28C2 SWAP2 PUSH2 0x23A JUMP JUMPDEST PUSH1 0xC0 ADD PUSH2 0x28CE SWAP2 PUSH2 0x23A JUMP JUMPDEST JUMP JUMPDEST PUSH2 0x290A PUSH2 0x28FF PUSH1 0x60 SWAP4 PUSH2 0x2911 SWAP7 SWAP9 SWAP8 SWAP6 PUSH2 0x28F2 PUSH1 0x80 DUP7 ADD SWAP3 PUSH1 0x0 DUP8 ADD SWAP1 PUSH2 0xDA7 JUMP JUMPDEST DUP5 DUP3 SUB PUSH1 0x20 DUP7 ADD MSTORE PUSH2 0x2509 JUMP JUMPDEST SWAP7 PUSH1 0x40 DUP4 ADD SWAP1 PUSH2 0x180B JUMP JUMPDEST ADD SWAP1 PUSH2 0x23A JUMP JUMPDEST JUMP JUMPDEST SWAP3 SWAP7 SWAP6 DUP3 SWAP6 PUSH2 0x2A2F DUP4 SWAP9 DUP8 PUSH2 0x2A09 PUSH1 0x0 SWAP7 PUSH2 0x29D1 DUP15 PUSH2 0x29C3 PUSH1 0x20 SWAP12 PUSH2 0x2953 CALLER PUSH2 0x294D PUSH2 0x2947 PUSH2 0x2942 PUSH1 0x3 PUSH2 0x15AB JUMP JUMPDEST PUSH2 0x163 JUMP JUMPDEST SWAP2 PUSH2 0x163 JUMP JUMPDEST EQ PUSH2 0x1642 JUMP JUMPDEST DUP14 PUSH2 0x295C PUSH2 0x447A JUMP JUMPDEST SWAP8 PUSH2 0x2965 PUSH2 0x2843 JUMP JUMPDEST SWAP5 PUSH2 0x2991 PUSH2 0x2974 DUP5 SWAP10 SWAP6 PUSH2 0x168F JUMP JUMPDEST PUSH2 0x2986 PUSH2 0x2980 DUP3 PUSH2 0x1698 JUMP JUMPDEST SWAP2 PUSH2 0x1692 JUMP JUMPDEST KECCAK256 SWAP2 SWAP3 SWAP4 PUSH1 0x4 PUSH2 0xCD6 JUMP JUMPDEST PUSH2 0x29AD PUSH2 0x299D DUP3 PUSH2 0x156B JUMP JUMPDEST SWAP2 PUSH2 0x29A7 DUP4 PUSH2 0x16B2 JUMP JUMPDEST SWAP1 PUSH2 0x170B JUMP JUMPDEST SWAP4 PUSH2 0x29B6 PUSH2 0x143 JUMP JUMPDEST SWAP9 PUSH1 0x20 SWAP8 DUP11 SWAP9 DUP10 ADD PUSH2 0x2867 JUMP JUMPDEST DUP12 DUP3 ADD DUP2 SUB DUP3 MSTORE SUB DUP3 PUSH2 0x2BC JUMP JUMPDEST PUSH2 0x29E3 PUSH2 0x29DD DUP3 PUSH2 0x1698 JUMP JUMPDEST SWAP2 PUSH2 0x1692 JUMP JUMPDEST KECCAK256 SWAP2 PUSH2 0x29FB PUSH2 0x29F0 PUSH2 0x143 JUMP JUMPDEST SWAP4 DUP5 SWAP3 DUP12 DUP5 ADD PUSH2 0x17E4 JUMP JUMPDEST DUP10 DUP3 ADD DUP2 SUB DUP3 MSTORE SUB DUP3 PUSH2 0x2BC JUMP JUMPDEST PUSH2 0x2A1B PUSH2 0x2A15 DUP3 PUSH2 0x1698 JUMP JUMPDEST SWAP2 PUSH2 0x1692 JUMP JUMPDEST KECCAK256 SWAP3 SWAP4 PUSH2 0x2A26 PUSH2 0x143 JUMP JUMPDEST SWAP5 DUP6 SWAP5 DUP6 PUSH2 0x1818 JUMP JUMPDEST DUP4 DUP1 MSTORE SUB SWAP1 PUSH1 0x1 GAS STATICCALL ISZERO PUSH2 0x2AFB JUMPI PUSH2 0x2A64 SWAP1 PUSH2 0x2A5E PUSH2 0x2A58 PUSH2 0x2A52 PUSH1 0x0 MLOAD PUSH2 0x16CF JUMP JUMPDEST SWAP3 PUSH2 0x163 JUMP JUMPDEST SWAP2 PUSH2 0x163 JUMP JUMPDEST EQ PUSH2 0x18B2 JUMP JUMPDEST PUSH2 0x2A76 PUSH2 0x2A71 PUSH1 0x2 PUSH2 0x1E02 JUMP JUMPDEST PUSH2 0x578 JUMP JUMPDEST SWAP1 PUSH4 0x5AE99F65 SWAP4 SWAP3 SWAP5 SWAP1 DUP3 EXTCODESIZE ISZERO PUSH2 0x2AF6 JUMPI PUSH1 0x0 SWAP5 PUSH2 0x2AB2 DUP7 SWAP3 PUSH2 0x2AA7 SWAP5 PUSH2 0x2A9B PUSH2 0x143 JUMP JUMPDEST SWAP10 DUP11 SWAP9 DUP10 SWAP8 DUP9 SWAP7 PUSH2 0x143A JUMP JUMPDEST DUP7 MSTORE PUSH1 0x4 DUP7 ADD PUSH2 0x28D0 JUMP JUMPDEST SUB SWAP3 GAS CALL DUP1 ISZERO PUSH2 0x2AF1 JUMPI PUSH2 0x2AC4 JUMPI JUMPDEST POP JUMP JUMPDEST PUSH2 0x2AE4 SWAP1 PUSH1 0x0 RETURNDATASIZE DUP2 GT PUSH2 0x2AEA JUMPI JUMPDEST PUSH2 0x2ADC DUP2 DUP4 PUSH2 0x2BC JUMP JUMPDEST DUP2 ADD SWAP1 PUSH2 0x1DBA JUMP JUMPDEST CODESIZE PUSH2 0x2AC1 JUMP JUMPDEST POP RETURNDATASIZE PUSH2 0x2AD2 JUMP JUMPDEST PUSH2 0x14AF JUMP JUMPDEST PUSH2 0x1435 JUMP JUMPDEST PUSH2 0x14AF JUMP JUMPDEST PUSH1 0x60 SWAP1 JUMP JUMPDEST SLOAD SWAP1 JUMP JUMPDEST PUSH8 0xFFFFFFFFFFFFFFFF DUP2 GT PUSH2 0x2B21 JUMPI PUSH1 0x20 DUP1 SWAP2 MUL ADD SWAP1 JUMP JUMPDEST PUSH2 0x2A6 JUMP JUMPDEST SWAP1 PUSH2 0x2B38 PUSH2 0x2B33 DUP4 PUSH2 0x2B09 JUMP JUMPDEST PUSH2 0x2E5 JUMP JUMPDEST SWAP2 DUP3 MSTORE JUMP JUMPDEST PUSH1 0x0 MSTORE PUSH1 0x20 PUSH1 0x0 KECCAK256 SWAP1 JUMP JUMPDEST SWAP1 PUSH2 0x2B52 SWAP1 PUSH2 0x163 JUMP JUMPDEST SWAP1 MSTORE JUMP JUMPDEST SWAP1 PUSH1 0x0 SWAP3 SWAP2 DUP1 SLOAD SWAP1 PUSH2 0x2B71 PUSH2 0x2B6A DUP4 PUSH2 0x1AB0 JUMP JUMPDEST DUP1 SWAP5 PUSH2 0x9AA JUMP JUMPDEST SWAP2 PUSH1 0x1 DUP2 AND SWAP1 DUP2 PUSH1 0x0 EQ PUSH2 0x2BCA JUMPI POP PUSH1 0x1 EQ PUSH2 0x2B8D JUMPI JUMPDEST POP POP POP JUMP JUMPDEST PUSH2 0x2B9A SWAP2 SWAP3 SWAP4 SWAP5 POP PUSH2 0x1ADA JUMP JUMPDEST SWAP2 PUSH1 0x0 SWAP3 JUMPDEST DUP2 DUP5 LT PUSH2 0x2BB2 JUMPI POP POP ADD SWAP1 CODESIZE DUP1 DUP1 PUSH2 0x2B88 JUMP JUMPDEST PUSH1 0x1 DUP2 PUSH1 0x20 SWAP3 SWAP6 SWAP4 SWAP6 SLOAD DUP5 DUP7 ADD MSTORE ADD SWAP2 ADD SWAP3 SWAP1 PUSH2 0x2B9F JUMP JUMPDEST SWAP3 SWAP5 SWAP6 POP POP POP PUSH1 0xFF NOT AND DUP3 MSTORE ISZERO ISZERO PUSH1 0x20 MUL ADD SWAP1 CODESIZE DUP1 DUP1 PUSH2 0x2B88 JUMP JUMPDEST SWAP1 PUSH2 0x2BEF SWAP2 PUSH2 0x2B56 JUMP JUMPDEST SWAP1 JUMP JUMPDEST SWAP1 PUSH2 0x2C12 PUSH2 0x2C0B SWAP3 PUSH2 0x2C02 PUSH2 0x143 JUMP JUMPDEST SWAP4 DUP5 DUP1 SWAP3 PUSH2 0x2BE5 JUMP JUMPDEST SUB DUP4 PUSH2 0x2BC JUMP JUMPDEST JUMP JUMPDEST MSTORE JUMP JUMPDEST SWAP1 PUSH2 0x2C21 SWAP1 PUSH2 0x237 JUMP JUMPDEST SWAP1 MSTORE JUMP JUMPDEST PUSH2 0x2C2F PUSH1 0x60 PUSH2 0x2E5 JUMP JUMPDEST SWAP1 JUMP JUMPDEST SWAP1 PUSH2 0x2C83 PUSH2 0x2C7A PUSH1 0x2 PUSH2 0x2C43 PUSH2 0x2C25 JUMP JUMPDEST SWAP5 PUSH2 0x2C5C PUSH2 0x2C53 PUSH1 0x0 DUP4 ADD PUSH2 0x15AB JUMP JUMPDEST PUSH1 0x0 DUP9 ADD PUSH2 0x2B48 JUMP JUMPDEST PUSH2 0x2C74 PUSH2 0x2C6B PUSH1 0x1 DUP4 ADD PUSH2 0x2BF2 JUMP JUMPDEST PUSH1 0x20 DUP9 ADD PUSH2 0x2C14 JUMP JUMPDEST ADD PUSH2 0x156B JUMP JUMPDEST PUSH1 0x40 DUP5 ADD PUSH2 0x2C17 JUMP JUMPDEST JUMP JUMPDEST PUSH2 0x2C8E SWAP1 PUSH2 0x2C32 JUMP JUMPDEST SWAP1 JUMP JUMPDEST SWAP1 PUSH2 0x2C9B DUP3 PUSH2 0x2B05 JUMP JUMPDEST PUSH2 0x2CA4 DUP2 PUSH2 0x2B26 JUMP JUMPDEST SWAP3 PUSH2 0x2CB2 PUSH1 0x20 DUP6 ADD SWAP2 PUSH2 0x2B3D JUMP JUMPDEST PUSH1 0x0 SWAP2 JUMPDEST DUP4 DUP4 LT PUSH2 0x2CC3 JUMPI POP POP POP POP JUMP JUMPDEST PUSH1 0x3 PUSH1 0x20 PUSH1 0x1 SWAP3 PUSH2 0x2CD3 DUP6 PUSH2 0x2C85 JUMP JUMPDEST DUP2 MSTORE ADD SWAP3 ADD SWAP3 ADD SWAP2 SWAP1 PUSH2 0x2CB6 JUMP JUMPDEST PUSH2 0x2CEA SWAP1 PUSH2 0x2C91 JUMP JUMPDEST SWAP1 JUMP JUMPDEST PUSH2 0x2CF5 PUSH2 0x2B00 JUMP JUMPDEST POP PUSH2 0x2D0A PUSH2 0x2D05 PUSH1 0x5 CALLER SWAP1 PUSH2 0x19A8 JUMP JUMPDEST PUSH2 0x2CE1 JUMP JUMPDEST SWAP1 JUMP JUMPDEST PUSH1 0x60 SWAP1 JUMP JUMPDEST PUSH8 0xFFFFFFFFFFFFFFFF DUP2 GT PUSH2 0x2D2A JUMPI PUSH1 0x20 DUP1 SWAP2 MUL ADD SWAP1 JUMP JUMPDEST PUSH2 0x2A6 JUMP JUMPDEST SWAP1 POP MLOAD SWAP1 PUSH2 0x2D3C DUP3 PUSH2 0x72A JUMP JUMPDEST JUMP JUMPDEST SWAP1 SWAP3 SWAP2 SWAP3 PUSH2 0x2D53 PUSH2 0x2D4E DUP3 PUSH2 0x2FA JUMP JUMPDEST PUSH2 0x2E5 JUMP JUMPDEST SWAP4 DUP2 DUP6 MSTORE PUSH1 0x20 DUP6 ADD SWAP1 DUP3 DUP5 ADD GT PUSH2 0x2D6F JUMPI PUSH2 0x2D6D SWAP3 PUSH2 0x9B3 JUMP JUMPDEST JUMP JUMPDEST PUSH2 0x297 JUMP JUMPDEST SWAP1 DUP1 PUSH1 0x1F DUP4 ADD SLT ISZERO PUSH2 0x2D92 JUMPI DUP2 PUSH1 0x20 PUSH2 0x2D8F SWAP4 MLOAD SWAP2 ADD PUSH2 0x2D3E JUMP JUMPDEST SWAP1 JUMP JUMPDEST PUSH2 0x292 JUMP JUMPDEST SWAP2 SWAP1 SWAP2 PUSH1 0xC0 DUP2 DUP5 SUB SLT PUSH2 0x2E93 JUMPI PUSH2 0x2DAE PUSH1 0xC0 PUSH2 0x2E5 JUMP JUMPDEST SWAP3 PUSH2 0x2DBC DUP2 PUSH1 0x0 DUP5 ADD PUSH2 0x2D2F JUMP JUMPDEST PUSH1 0x0 DUP6 ADD MSTORE PUSH1 0x20 DUP3 ADD MLOAD PUSH8 0xFFFFFFFFFFFFFFFF DUP2 GT PUSH2 0x2E8E JUMPI DUP2 PUSH2 0x2DE1 SWAP2 DUP5 ADD PUSH2 0x2D74 JUMP JUMPDEST PUSH1 0x20 DUP6 ADD MSTORE PUSH1 0x40 DUP3 ADD MLOAD PUSH8 0xFFFFFFFFFFFFFFFF DUP2 GT PUSH2 0x2E89 JUMPI DUP2 PUSH2 0x2E06 SWAP2 DUP5 ADD PUSH2 0x2D74 JUMP JUMPDEST PUSH1 0x40 DUP6 ADD MSTORE PUSH1 0x60 DUP3 ADD MLOAD PUSH8 0xFFFFFFFFFFFFFFFF DUP2 GT PUSH2 0x2E84 JUMPI DUP2 PUSH2 0x2E2B SWAP2 DUP5 ADD PUSH2 0x2D74 JUMP JUMPDEST PUSH1 0x60 DUP6 ADD MSTORE PUSH1 0x80 DUP3 ADD MLOAD PUSH8 0xFFFFFFFFFFFFFFFF DUP2 GT PUSH2 0x2E7F JUMPI DUP2 PUSH2 0x2E50 SWAP2 DUP5 ADD PUSH2 0x2D74 JUMP JUMPDEST PUSH1 0x80 DUP6 ADD MSTORE PUSH1 0xA0 DUP3 ADD MLOAD PUSH8 0xFFFFFFFFFFFFFFFF DUP2 GT PUSH2 0x2E7A JUMPI PUSH2 0x2E73 SWAP3 ADD PUSH2 0x2D74 JUMP JUMPDEST PUSH1 0xA0 DUP4 ADD MSTORE JUMP JUMPDEST PUSH2 0xEB4 JUMP JUMPDEST PUSH2 0xEB4 JUMP JUMPDEST PUSH2 0xEB4 JUMP JUMPDEST PUSH2 0xEB4 JUMP JUMPDEST PUSH2 0xEB4 JUMP JUMPDEST PUSH2 0xEAF JUMP JUMPDEST SWAP3 SWAP2 SWAP1 PUSH2 0x2EAC PUSH2 0x2EA7 DUP3 PUSH2 0x2D12 JUMP JUMPDEST PUSH2 0x2E5 JUMP JUMPDEST SWAP4 DUP2 DUP6 MSTORE PUSH1 0x20 DUP1 DUP7 ADD SWAP3 MUL DUP2 ADD SWAP2 DUP4 DUP4 GT PUSH2 0x2F03 JUMPI DUP2 SWAP1 JUMPDEST DUP4 DUP3 LT PUSH2 0x2ED2 JUMPI POP POP POP POP POP JUMP JUMPDEST DUP2 MLOAD PUSH8 0xFFFFFFFFFFFFFFFF DUP2 GT PUSH2 0x2EFE JUMPI PUSH1 0x20 SWAP2 PUSH2 0x2EF3 DUP8 DUP5 SWAP4 DUP8 ADD PUSH2 0x2D97 JUMP JUMPDEST DUP2 MSTORE ADD SWAP2 ADD SWAP1 PUSH2 0x2EC4 JUMP JUMPDEST PUSH2 0x292 JUMP JUMPDEST PUSH2 0xEAA JUMP JUMPDEST SWAP1 DUP1 PUSH1 0x1F DUP4 ADD SLT ISZERO PUSH2 0x2F26 JUMPI DUP2 PUSH1 0x20 PUSH2 0x2F23 SWAP4 MLOAD SWAP2 ADD PUSH2 0x2E98 JUMP JUMPDEST SWAP1 JUMP JUMPDEST PUSH2 0x292 JUMP JUMPDEST SWAP1 PUSH1 0x20 DUP3 DUP3 SUB SLT PUSH2 0x2F5C JUMPI PUSH1 0x0 DUP3 ADD MLOAD PUSH8 0xFFFFFFFFFFFFFFFF DUP2 GT PUSH2 0x2F57 JUMPI PUSH2 0x2F54 SWAP3 ADD PUSH2 0x2F08 JUMP JUMPDEST SWAP1 JUMP JUMPDEST PUSH2 0x153 JUMP JUMPDEST PUSH2 0x14E JUMP JUMPDEST PUSH1 0x0 PUSH2 0x2FA9 SWAP2 PUSH2 0x2F6F PUSH2 0x2D0D JUMP JUMPDEST POP PUSH2 0x2F82 PUSH2 0x2F7D PUSH1 0x1 PUSH2 0x24EF JUMP JUMPDEST PUSH2 0x10B0 JUMP JUMPDEST PUSH2 0x2F9E PUSH4 0xB226187C PUSH2 0x2F92 PUSH2 0x143 JUMP JUMPDEST SWAP6 DUP7 SWAP5 DUP6 SWAP4 DUP5 SWAP4 PUSH2 0x143A JUMP JUMPDEST DUP4 MSTORE PUSH1 0x4 DUP4 ADD PUSH2 0xDB4 JUMP JUMPDEST SUB SWAP2 GAS STATICCALL SWAP1 DUP2 ISZERO PUSH2 0x2FE3 JUMPI PUSH1 0x0 SWAP2 PUSH2 0x2FC0 JUMPI JUMPDEST POP SWAP1 JUMP JUMPDEST PUSH2 0x2FDD SWAP2 POP RETURNDATASIZE DUP1 PUSH1 0x0 DUP4 RETURNDATACOPY PUSH2 0x2FD5 DUP2 DUP4 PUSH2 0x2BC JUMP JUMPDEST DUP2 ADD SWAP1 PUSH2 0x2F2B JUMP JUMPDEST CODESIZE PUSH2 0x2FBC JUMP JUMPDEST PUSH2 0x14AF JUMP JUMPDEST PUSH32 0x1EC4AECE768E0A04889951ABA20F6CCC89CE203BB47661221E6FDFBB8DEACA0B SWAP1 JUMP JUMPDEST PUSH2 0x3042 PUSH2 0x3049 SWAP5 PUSH2 0x3038 PUSH1 0x60 SWAP5 SWAP9 SWAP8 SWAP6 PUSH2 0x302E PUSH1 0x80 DUP7 ADD SWAP11 PUSH1 0x0 DUP8 ADD SWAP1 PUSH2 0x136E JUMP JUMPDEST PUSH1 0x20 DUP6 ADD SWAP1 PUSH2 0xDA7 JUMP JUMPDEST PUSH1 0x40 DUP4 ADD SWAP1 PUSH2 0xDA7 JUMP JUMPDEST ADD SWAP1 PUSH2 0x23A JUMP JUMPDEST JUMP JUMPDEST SLOAD SWAP1 JUMP JUMPDEST SWAP1 JUMP JUMPDEST PUSH2 0x3066 PUSH2 0x3061 PUSH2 0x306B SWAP3 PUSH2 0x304F JUMP JUMPDEST PUSH2 0x54D JUMP JUMPDEST PUSH2 0x237 JUMP JUMPDEST SWAP1 JUMP JUMPDEST PUSH1 0x0 PUSH32 0x6368696C64206E6F7420666F756E640000000000000000000000000000000000 SWAP2 ADD MSTORE JUMP JUMPDEST PUSH2 0x30A3 PUSH1 0xF PUSH1 0x20 SWAP3 PUSH2 0x15B8 JUMP JUMPDEST PUSH2 0x30AC DUP2 PUSH2 0x306E JUMP JUMPDEST ADD SWAP1 JUMP JUMPDEST PUSH2 0x30C6 SWAP1 PUSH1 0x20 DUP2 ADD SWAP1 PUSH1 0x0 DUP2 DUP4 SUB SWAP2 ADD MSTORE PUSH2 0x3096 JUMP JUMPDEST SWAP1 JUMP JUMPDEST ISZERO PUSH2 0x30D0 JUMPI JUMP JUMPDEST PUSH2 0x30D8 PUSH2 0x143 JUMP JUMPDEST PUSH3 0x461BCD PUSH1 0xE5 SHL DUP2 MSTORE DUP1 PUSH2 0x30EE PUSH1 0x4 DUP3 ADD PUSH2 0x30B0 JUMP JUMPDEST SUB SWAP1 REVERT JUMPDEST PUSH1 0x1 PUSH2 0x30FE SWAP2 ADD PUSH2 0x237 JUMP JUMPDEST SWAP1 JUMP JUMPDEST PUSH1 0x0 PUSH32 0x416C7265616479206C696E6B656420746F2074686973206368696C6400000000 SWAP2 ADD MSTORE JUMP JUMPDEST PUSH2 0x3136 PUSH1 0x1C PUSH1 0x20 SWAP3 PUSH2 0x15B8 JUMP JUMPDEST PUSH2 0x313F DUP2 PUSH2 0x3101 JUMP JUMPDEST ADD SWAP1 JUMP JUMPDEST PUSH2 0x3159 SWAP1 PUSH1 0x20 DUP2 ADD SWAP1 PUSH1 0x0 DUP2 DUP4 SUB SWAP2 ADD MSTORE PUSH2 0x3129 JUMP JUMPDEST SWAP1 JUMP JUMPDEST ISZERO PUSH2 0x3163 JUMPI JUMP JUMPDEST PUSH2 0x316B PUSH2 0x143 JUMP JUMPDEST PUSH3 0x461BCD PUSH1 0xE5 SHL DUP2 MSTORE DUP1 PUSH2 0x3181 PUSH1 0x4 DUP3 ADD PUSH2 0x3143 JUMP JUMPDEST SUB SWAP1 REVERT JUMPDEST PUSH1 0x0 MSTORE PUSH1 0x20 PUSH1 0x0 KECCAK256 SWAP1 JUMP JUMPDEST PUSH2 0x3199 DUP2 PUSH2 0x304B JUMP JUMPDEST DUP3 LT ISZERO PUSH2 0x31B4 JUMPI PUSH2 0x31AB PUSH1 0x1 SWAP2 PUSH2 0x3185 JUMP JUMPDEST SWAP2 MUL ADD SWAP1 PUSH1 0x0 SWAP1 JUMP JUMPDEST PUSH2 0x19C7 JUMP JUMPDEST PUSH2 0x31C2 DUP2 PUSH2 0x2B05 JUMP JUMPDEST DUP3 LT ISZERO PUSH2 0x31DD JUMPI PUSH2 0x31D4 PUSH1 0x3 SWAP2 PUSH2 0x2B3D JUMP JUMPDEST SWAP2 MUL ADD SWAP1 PUSH1 0x0 SWAP1 JUMP JUMPDEST PUSH2 0x19C7 JUMP JUMPDEST PUSH2 0x31EC SWAP1 SLOAD PUSH2 0x1AB0 JUMP JUMPDEST SWAP1 JUMP JUMPDEST SWAP1 DUP1 DUP3 EQ PUSH2 0x32D1 JUMPI PUSH2 0x3200 DUP2 PUSH2 0x31E2 JUMP JUMPDEST SWAP1 PUSH8 0xFFFFFFFFFFFFFFFF DUP3 GT PUSH2 0x32CC JUMPI PUSH2 0x3224 DUP3 PUSH2 0x321E DUP6 SLOAD PUSH2 0x1AB0 JUMP JUMPDEST DUP6 PUSH2 0x1B6F JUMP JUMPDEST PUSH1 0x0 SWAP1 PUSH1 0x1F DUP4 GT PUSH1 0x1 EQ PUSH2 0x3259 JUMPI SWAP2 DUP1 SWAP2 PUSH2 0x3248 SWAP4 PUSH1 0x0 SWAP3 PUSH2 0x324D JUMPI JUMPDEST POP POP PUSH2 0x1BDC JUMP JUMPDEST SWAP1 SSTORE JUMPDEST JUMP JUMPDEST SWAP1 SWAP2 POP ADD SLOAD CODESIZE DUP1 PUSH2 0x3241 JUMP JUMPDEST SWAP1 PUSH2 0x3268 PUSH1 0x1F NOT DUP5 AND SWAP3 PUSH2 0x1ADA JUMP JUMPDEST SWAP1 PUSH2 0x3272 DUP6 PUSH2 0x1ADA JUMP JUMPDEST SWAP3 PUSH1 0x0 JUMPDEST DUP2 DUP2 LT PUSH2 0x32B4 JUMPI POP SWAP2 PUSH1 0x2 SWAP4 SWAP2 DUP6 PUSH1 0x1 SWAP7 SWAP5 LT PUSH2 0x329A JUMPI JUMPDEST POP POP POP MUL ADD SWAP1 SSTORE PUSH2 0x324B JUMP JUMPDEST PUSH2 0x32AA SWAP2 ADD SLOAD PUSH1 0x1F DUP5 AND SWAP1 PUSH2 0x1BC6 JUMP JUMPDEST SWAP1 SSTORE CODESIZE DUP1 DUP1 PUSH2 0x328E JUMP JUMPDEST SWAP2 SWAP4 PUSH1 0x1 DUP1 PUSH1 0x20 SWAP3 DUP8 DUP8 ADD SLOAD DUP2 SSTORE ADD SWAP6 ADD SWAP3 ADD PUSH2 0x3276 JUMP JUMPDEST PUSH2 0x2A6 JUMP JUMPDEST POP POP JUMP JUMPDEST SWAP1 PUSH2 0x32DF SWAP2 PUSH2 0x31EF JUMP JUMPDEST JUMP JUMPDEST SWAP1 DUP1 DUP3 SUB PUSH2 0x32EE JUMPI JUMPDEST POP POP JUMP JUMPDEST PUSH2 0x332A PUSH1 0x2 DUP1 DUP5 PUSH2 0x3311 PUSH1 0x0 PUSH2 0x3330 SWAP8 ADD PUSH2 0x330B PUSH1 0x0 DUP9 ADD PUSH2 0x15AB JUMP JUMPDEST SWAP1 PUSH2 0x1A64 JUMP JUMPDEST PUSH2 0x3322 PUSH1 0x1 DUP3 ADD PUSH1 0x1 DUP8 ADD SWAP1 PUSH2 0x32D5 JUMP JUMPDEST ADD SWAP3 ADD PUSH2 0x156B JUMP JUMPDEST SWAP1 PUSH2 0x170B JUMP JUMPDEST CODESIZE DUP1 PUSH2 0x32EA JUMP JUMPDEST SWAP2 SWAP1 PUSH2 0x3348 JUMPI PUSH2 0x3346 SWAP2 PUSH2 0x32E1 JUMP JUMPDEST JUMP JUMPDEST PUSH2 0x1A84 JUMP JUMPDEST SWAP1 DUP2 SLOAD SWAP2 PUSH9 0x10000000000000000 DUP4 LT ISZERO PUSH2 0x337D JUMPI DUP3 PUSH2 0x3375 SWAP2 PUSH1 0x1 PUSH2 0x337B SWAP6 ADD DUP2 SSTORE PUSH2 0x19E8 JUMP JUMPDEST SWAP1 PUSH2 0x3337 JUMP JUMPDEST JUMP JUMPDEST PUSH2 0x2A6 JUMP JUMPDEST SWAP5 SWAP3 PUSH1 0x20 SWAP3 PUSH2 0x3478 PUSH1 0x0 SWAP4 SWAP7 PUSH2 0x33B3 CALLER PUSH2 0x33AD PUSH2 0x33A7 PUSH2 0x33A2 PUSH1 0x3 PUSH2 0x15AB JUMP JUMPDEST PUSH2 0x163 JUMP JUMPDEST SWAP2 PUSH2 0x163 JUMP JUMPDEST EQ PUSH2 0x1642 JUMP JUMPDEST PUSH2 0x33BB PUSH2 0x447A JUMP JUMPDEST PUSH2 0x3452 DUP10 PUSH2 0x341A DUP13 PUSH2 0x340C PUSH2 0x33CE PUSH2 0x2FE8 JUMP JUMPDEST SWAP2 PUSH2 0x33DC DUP2 SWAP6 SWAP2 PUSH1 0x4 PUSH2 0xCD6 JUMP JUMPDEST PUSH2 0x33F8 PUSH2 0x33E8 DUP3 PUSH2 0x156B JUMP JUMPDEST SWAP2 PUSH2 0x33F2 DUP4 PUSH2 0x16B2 JUMP JUMPDEST SWAP1 PUSH2 0x170B JUMP JUMPDEST SWAP1 PUSH2 0x3401 PUSH2 0x143 JUMP JUMPDEST SWAP6 DUP7 SWAP5 DUP16 DUP7 ADD PUSH2 0x300C JUMP JUMPDEST DUP12 DUP3 ADD DUP2 SUB DUP3 MSTORE SUB DUP3 PUSH2 0x2BC JUMP JUMPDEST PUSH2 0x342C PUSH2 0x3426 DUP3 PUSH2 0x1698 JUMP JUMPDEST SWAP2 PUSH2 0x1692 JUMP JUMPDEST KECCAK256 SWAP2 PUSH2 0x3444 PUSH2 0x3439 PUSH2 0x143 JUMP JUMPDEST SWAP4 DUP5 SWAP3 DUP12 DUP5 ADD PUSH2 0x17E4 JUMP JUMPDEST DUP10 DUP3 ADD DUP2 SUB DUP3 MSTORE SUB DUP3 PUSH2 0x2BC JUMP JUMPDEST PUSH2 0x3464 PUSH2 0x345E DUP3 PUSH2 0x1698 JUMP JUMPDEST SWAP2 PUSH2 0x1692 JUMP JUMPDEST KECCAK256 SWAP3 SWAP4 PUSH2 0x346F PUSH2 0x143 JUMP JUMPDEST SWAP5 DUP6 SWAP5 DUP6 PUSH2 0x1818 JUMP JUMPDEST DUP4 DUP1 MSTORE SUB SWAP1 PUSH1 0x1 GAS STATICCALL ISZERO PUSH2 0x3630 JUMPI PUSH2 0x34AC PUSH2 0x3494 PUSH1 0x0 MLOAD PUSH2 0x16CF JUMP JUMPDEST PUSH2 0x34A6 PUSH2 0x34A0 DUP7 PUSH2 0x163 JUMP JUMPDEST SWAP2 PUSH2 0x163 JUMP JUMPDEST EQ PUSH2 0x18B2 JUMP JUMPDEST PUSH2 0x34DD PUSH2 0x34C3 PUSH2 0x34BE PUSH1 0x6 DUP6 SWAP1 PUSH2 0x1CCB JUMP JUMPDEST PUSH2 0x304B JUMP JUMPDEST PUSH2 0x34D6 PUSH2 0x34D0 PUSH1 0x0 PUSH2 0x3052 JUMP JUMPDEST SWAP2 PUSH2 0x237 JUMP JUMPDEST EQ ISZERO PUSH2 0x30C9 JUMP JUMPDEST PUSH2 0x34F1 PUSH2 0x34EC PUSH1 0x5 DUP6 SWAP1 PUSH2 0x19A8 JUMP JUMPDEST PUSH2 0x19C0 JUMP JUMPDEST SWAP1 PUSH2 0x34FC PUSH1 0x0 PUSH2 0x3052 JUMP JUMPDEST JUMPDEST DUP1 PUSH2 0x3518 PUSH2 0x3512 PUSH2 0x350D DUP7 PUSH2 0x19C3 JUMP JUMPDEST PUSH2 0x237 JUMP JUMPDEST SWAP2 PUSH2 0x237 JUMP JUMPDEST LT ISZERO PUSH2 0x355F JUMPI PUSH2 0x355A SWAP1 PUSH2 0x3555 PUSH2 0x353C PUSH1 0x0 PUSH2 0x3535 DUP8 DUP6 SWAP1 PUSH2 0x19E8 JUMP JUMPDEST POP ADD PUSH2 0x15AB JUMP JUMPDEST PUSH2 0x354E PUSH2 0x3548 DUP9 PUSH2 0x163 JUMP JUMPDEST SWAP2 PUSH2 0x163 JUMP JUMPDEST EQ ISZERO PUSH2 0x315C JUMP JUMPDEST PUSH2 0x30F2 JUMP JUMPDEST PUSH2 0x34FD JUMP JUMPDEST POP SWAP3 SWAP1 POP PUSH2 0x35C6 PUSH2 0x35AD PUSH2 0x35A7 PUSH2 0x358C PUSH2 0x3586 PUSH2 0x357E PUSH1 0x6 DUP9 SWAP1 PUSH2 0x1CCB JUMP JUMPDEST PUSH1 0x0 SWAP1 PUSH2 0x3190 JUMP JUMPDEST SWAP1 PUSH2 0xD89 JUMP JUMPDEST PUSH2 0x35A2 PUSH2 0x359A DUP3 DUP9 SWAP1 PUSH2 0x4567 JUMP JUMPDEST SWAP2 PUSH1 0x5 PUSH2 0x19A8 JUMP JUMPDEST PUSH2 0x31B9 JUMP JUMPDEST POP PUSH2 0x1A43 JUMP JUMPDEST PUSH2 0x35C1 PUSH2 0x35BC PUSH1 0x5 DUP6 SWAP1 PUSH2 0x19A8 JUMP JUMPDEST PUSH2 0x19C0 JUMP JUMPDEST PUSH2 0x334D JUMP JUMPDEST PUSH2 0x35E4 PUSH2 0x35DD PUSH2 0x35D8 PUSH1 0x6 DUP6 SWAP1 PUSH2 0x1CCB JUMP JUMPDEST PUSH2 0x1CE3 JUMP JUMPDEST DUP3 SWAP1 PUSH2 0x1D6A JUMP JUMPDEST SWAP1 PUSH2 0x3618 PUSH2 0x3612 PUSH32 0x67A834331CE532B16F83BFC8251D8EB0EB155BA5E222FA98D74D93C9907FEDAC SWAP4 PUSH2 0xCCA JUMP JUMPDEST SWAP2 PUSH2 0xCCA JUMP JUMPDEST SWAP2 PUSH2 0x3621 PUSH2 0x143 JUMP JUMPDEST DUP1 PUSH2 0x362B DUP2 PUSH2 0x4B5 JUMP JUMPDEST SUB SWAP1 LOG3 JUMP JUMPDEST PUSH2 0x14AF JUMP JUMPDEST MLOAD SWAP1 JUMP JUMPDEST PUSH1 0x0 PUSH32 0x4E6F2076616363696E6174696F6E732070726F76696465640000000000000000 SWAP2 ADD MSTORE JUMP JUMPDEST PUSH2 0x366E PUSH1 0x18 PUSH1 0x20 SWAP3 PUSH2 0x15B8 JUMP JUMPDEST PUSH2 0x3677 DUP2 PUSH2 0x3639 JUMP JUMPDEST ADD SWAP1 JUMP JUMPDEST PUSH2 0x3691 SWAP1 PUSH1 0x20 DUP2 ADD SWAP1 PUSH1 0x0 DUP2 DUP4 SUB SWAP2 ADD MSTORE PUSH2 0x3661 JUMP JUMPDEST SWAP1 JUMP JUMPDEST ISZERO PUSH2 0x369B JUMPI JUMP JUMPDEST PUSH2 0x36A3 PUSH2 0x143 JUMP JUMPDEST PUSH3 0x461BCD PUSH1 0xE5 SHL DUP2 MSTORE DUP1 PUSH2 0x36B9 PUSH1 0x4 DUP3 ADD PUSH2 0x367B JUMP JUMPDEST SUB SWAP1 REVERT JUMPDEST PUSH8 0xFFFFFFFFFFFFFFFF DUP2 GT PUSH2 0x36D5 JUMPI PUSH1 0x20 DUP1 SWAP2 MUL ADD SWAP1 JUMP JUMPDEST PUSH2 0x2A6 JUMP JUMPDEST SWAP1 PUSH2 0x36EC PUSH2 0x36E7 DUP4 PUSH2 0x36BD JUMP JUMPDEST PUSH2 0x2E5 JUMP JUMPDEST SWAP2 DUP3 MSTORE JUMP JUMPDEST CALLDATASIZE SWAP1 CALLDATACOPY JUMP JUMPDEST SWAP1 PUSH2 0x371B PUSH2 0x3703 DUP4 PUSH2 0x36DA JUMP JUMPDEST SWAP3 PUSH1 0x20 DUP1 PUSH2 0x3711 DUP7 SWAP4 PUSH2 0x36BD JUMP JUMPDEST SWAP3 ADD SWAP2 SUB SWAP1 PUSH2 0x36F1 JUMP JUMPDEST JUMP JUMPDEST PUSH32 0x473295963EDD87736C2F99AE4573DA987546481C1B86F5CFBD18BE8FDD226C0 SWAP1 JUMP JUMPDEST SWAP1 PUSH2 0x374B DUP3 PUSH2 0x3635 JUMP JUMPDEST DUP2 LT ISZERO PUSH2 0x375C JUMPI PUSH1 0x20 DUP1 SWAP2 MUL ADD ADD SWAP1 JUMP JUMPDEST PUSH2 0x19C7 JUMP JUMPDEST PUSH2 0x376B SWAP1 MLOAD PUSH2 0x3CA JUMP JUMPDEST SWAP1 JUMP JUMPDEST PUSH2 0x3778 SWAP1 MLOAD PUSH2 0x237 JUMP JUMPDEST SWAP1 JUMP JUMPDEST PUSH2 0x37B1 PUSH2 0x37B8 SWAP5 PUSH2 0x37A7 PUSH1 0x60 SWAP5 SWAP9 SWAP8 SWAP6 PUSH2 0x379D PUSH1 0x80 DUP7 ADD SWAP11 PUSH1 0x0 DUP8 ADD SWAP1 PUSH2 0x136E JUMP JUMPDEST PUSH1 0x20 DUP6 ADD SWAP1 PUSH2 0x136E JUMP JUMPDEST PUSH1 0x40 DUP4 ADD SWAP1 PUSH2 0x180B JUMP JUMPDEST ADD SWAP1 PUSH2 0x23A JUMP JUMPDEST JUMP JUMPDEST MLOAD SWAP1 JUMP JUMPDEST SWAP1 PUSH2 0x37C8 DUP3 PUSH2 0x37BA JUMP JUMPDEST DUP2 LT ISZERO PUSH2 0x37D9 JUMPI PUSH1 0x20 DUP1 SWAP2 MUL ADD ADD SWAP1 JUMP JUMPDEST PUSH2 0x19C7 JUMP JUMPDEST SWAP1 PUSH2 0x37E8 SWAP1 PUSH2 0x3F4 JUMP JUMPDEST SWAP1 MSTORE JUMP JUMPDEST PUSH32 0xFC36C2287EDF9257CBCF85CD0BF70EFF95B872575E9A207F57314E87DC7EC455 SWAP1 JUMP JUMPDEST SWAP1 POP SWAP1 JUMP JUMPDEST PUSH1 0x20 ADD SWAP1 JUMP JUMPDEST PUSH2 0x3824 SWAP1 PUSH2 0x3F4 JUMP JUMPDEST SWAP1 MSTORE JUMP JUMPDEST SWAP1 PUSH2 0x3835 DUP2 PUSH1 0x20 SWAP4 PUSH2 0x381B JUMP JUMPDEST ADD SWAP1 JUMP JUMPDEST PUSH1 0x20 ADD SWAP1 JUMP JUMPDEST SWAP1 PUSH2 0x385C PUSH2 0x3856 PUSH2 0x384F DUP5 PUSH2 0x37BA JUMP JUMPDEST DUP1 SWAP4 PUSH2 0x3810 JUMP JUMPDEST SWAP3 PUSH2 0x3815 JUMP JUMPDEST SWAP1 PUSH1 0x0 JUMPDEST DUP2 DUP2 LT PUSH2 0x386D JUMPI POP POP POP SWAP1 JUMP JUMPDEST SWAP1 SWAP2 SWAP3 PUSH2 0x3886 PUSH2 0x3880 PUSH1 0x1 SWAP3 DUP7 MLOAD PUSH2 0x3828 JUMP JUMPDEST SWAP5 PUSH2 0x3839 JUMP JUMPDEST SWAP2 ADD SWAP2 SWAP1 SWAP2 PUSH2 0x3860 JUMP JUMPDEST PUSH2 0x3899 SWAP2 PUSH2 0x383F JUMP JUMPDEST SWAP1 JUMP JUMPDEST SWAP1 SWAP6 SWAP5 SWAP3 PUSH2 0x38E8 SWAP5 PUSH2 0x38D7 PUSH2 0x38E1 SWAP3 PUSH2 0x38CD PUSH1 0x80 SWAP7 PUSH2 0x38C3 PUSH1 0xA0 DUP9 ADD SWAP13 PUSH1 0x0 DUP10 ADD SWAP1 PUSH2 0x136E JUMP JUMPDEST PUSH1 0x20 DUP8 ADD SWAP1 PUSH2 0xDA7 JUMP JUMPDEST PUSH1 0x40 DUP6 ADD SWAP1 PUSH2 0xDA7 JUMP JUMPDEST PUSH1 0x60 DUP4 ADD SWAP1 PUSH2 0x136E JUMP JUMPDEST ADD SWAP1 PUSH2 0x23A JUMP JUMPDEST JUMP JUMPDEST PUSH1 0x20 SWAP2 DUP2 MSTORE ADD SWAP1 JUMP JUMPDEST PUSH1 0x20 ADD SWAP1 JUMP JUMPDEST SWAP1 PUSH2 0x3937 SWAP1 PUSH1 0x40 DUP1 PUSH2 0x391A PUSH1 0x60 DUP5 ADD PUSH1 0x0 DUP8 ADD MLOAD DUP6 DUP3 SUB PUSH1 0x0 DUP8 ADD MSTORE PUSH2 0x9D8 JUMP JUMPDEST SWAP5 PUSH2 0x392D PUSH1 0x20 DUP3 ADD MLOAD PUSH1 0x20 DUP7 ADD SWAP1 PUSH2 0x1192 JUMP JUMPDEST ADD MLOAD SWAP2 ADD SWAP1 PUSH2 0xA09 JUMP JUMPDEST SWAP1 JUMP JUMPDEST SWAP1 PUSH2 0x3944 SWAP2 PUSH2 0x38F9 JUMP JUMPDEST SWAP1 JUMP JUMPDEST PUSH1 0x20 ADD SWAP1 JUMP JUMPDEST SWAP1 PUSH2 0x3961 PUSH2 0x395A DUP4 PUSH2 0x3635 JUMP JUMPDEST DUP1 SWAP3 PUSH2 0x38EA JUMP JUMPDEST SWAP1 DUP2 PUSH2 0x3972 PUSH1 0x20 DUP4 MUL DUP5 ADD SWAP5 PUSH2 0x38F3 JUMP JUMPDEST SWAP3 PUSH1 0x0 SWAP2 JUMPDEST DUP4 DUP4 LT PUSH2 0x3986 JUMPI POP POP POP POP POP SWAP1 JUMP JUMPDEST SWAP1 SWAP2 SWAP3 SWAP4 SWAP5 PUSH1 0x20 PUSH2 0x39A8 PUSH2 0x39A2 DUP4 DUP6 PUSH1 0x1 SWAP6 SUB DUP8 MSTORE DUP10 MLOAD PUSH2 0x393A JUMP JUMPDEST SWAP8 PUSH2 0x3947 JUMP JUMPDEST SWAP4 ADD SWAP4 ADD SWAP2 SWAP4 SWAP3 SWAP1 PUSH2 0x3977 JUMP JUMPDEST SWAP2 PUSH2 0x39D9 SWAP3 PUSH2 0x39CC PUSH1 0x40 DUP3 ADD SWAP4 PUSH1 0x0 DUP4 ADD SWAP1 PUSH2 0xDA7 JUMP JUMPDEST PUSH1 0x20 DUP2 DUP5 SUB SWAP2 ADD MSTORE PUSH2 0x394D JUMP JUMPDEST SWAP1 JUMP JUMPDEST SWAP1 SWAP2 SWAP4 SWAP6 SWAP3 SWAP6 PUSH2 0x3A07 CALLER PUSH2 0x3A01 PUSH2 0x39FB PUSH2 0x39F6 PUSH1 0x3 PUSH2 0x15AB JUMP JUMPDEST PUSH2 0x163 JUMP JUMPDEST SWAP2 PUSH2 0x163 JUMP JUMPDEST EQ PUSH2 0x1642 JUMP JUMPDEST PUSH2 0x3A2C PUSH2 0x3A13 DUP7 PUSH2 0x3635 JUMP JUMPDEST PUSH2 0x3A26 PUSH2 0x3A20 PUSH1 0x0 PUSH2 0x3052 JUMP JUMPDEST SWAP2 PUSH2 0x237 JUMP JUMPDEST GT PUSH2 0x3694 JUMP JUMPDEST PUSH2 0x3A3D PUSH2 0x3A38 DUP7 PUSH2 0x3635 JUMP JUMPDEST PUSH2 0x36F6 JUMP JUMPDEST SWAP7 PUSH2 0x3A48 PUSH1 0x0 PUSH2 0x3052 JUMP JUMPDEST JUMPDEST DUP1 PUSH2 0x3A64 PUSH2 0x3A5E PUSH2 0x3A59 DUP11 PUSH2 0x3635 JUMP JUMPDEST PUSH2 0x237 JUMP JUMPDEST SWAP2 PUSH2 0x237 JUMP JUMPDEST LT ISZERO PUSH2 0x3B2D JUMPI PUSH2 0x3B28 SWAP1 PUSH2 0x3B23 PUSH2 0x3A79 PUSH2 0x371D JUMP JUMPDEST PUSH2 0x3AFE PUSH2 0x3A94 PUSH1 0x0 PUSH2 0x3A8C DUP14 DUP8 SWAP1 PUSH2 0x3741 JUMP JUMPDEST MLOAD ADD MLOAD PUSH2 0x168F JUMP JUMPDEST PUSH2 0x3AA6 PUSH2 0x3AA0 DUP3 PUSH2 0x1698 JUMP JUMPDEST SWAP2 PUSH2 0x1692 JUMP JUMPDEST KECCAK256 SWAP2 PUSH2 0x3AEF DUP13 PUSH2 0x3ADA PUSH1 0x40 PUSH2 0x3AD3 PUSH2 0x3ACB PUSH1 0x20 PUSH2 0x3AC4 DUP7 DUP14 SWAP1 PUSH2 0x3741 JUMP JUMPDEST MLOAD ADD PUSH2 0x3761 JUMP JUMPDEST SWAP4 DUP11 SWAP1 PUSH2 0x3741 JUMP JUMPDEST MLOAD ADD PUSH2 0x376E JUMP JUMPDEST SWAP1 PUSH2 0x3AE3 PUSH2 0x143 JUMP JUMPDEST SWAP6 DUP7 SWAP5 PUSH1 0x20 DUP7 ADD PUSH2 0x377B JUMP JUMPDEST PUSH1 0x20 DUP3 ADD DUP2 SUB DUP3 MSTORE SUB DUP3 PUSH2 0x2BC JUMP JUMPDEST PUSH2 0x3B10 PUSH2 0x3B0A DUP3 PUSH2 0x1698 JUMP JUMPDEST SWAP2 PUSH2 0x1692 JUMP JUMPDEST KECCAK256 PUSH2 0x3B1E DUP13 SWAP2 DUP5 SWAP1 SWAP3 PUSH2 0x37BE JUMP JUMPDEST PUSH2 0x37DE JUMP JUMPDEST PUSH2 0x30F2 JUMP JUMPDEST PUSH2 0x3A49 JUMP JUMPDEST POP PUSH2 0x3C40 PUSH1 0x20 SWAP5 SWAP7 SWAP8 PUSH1 0x0 SWAP5 SWAP7 SWAP10 PUSH2 0x3C1A DUP10 PUSH2 0x3BE2 PUSH2 0x3B4A PUSH2 0x447A JUMP JUMPDEST SWAP4 PUSH2 0x3BD4 PUSH2 0x3B56 PUSH2 0x37EC JUMP JUMPDEST SWAP2 DUP14 PUSH2 0x3BA3 PUSH2 0x3B79 PUSH2 0x3B88 DUP4 SWAP9 SWAP5 PUSH2 0x3B6C PUSH2 0x143 JUMP JUMPDEST SWAP3 PUSH1 0x20 SWAP2 DUP5 SWAP3 DUP4 ADD PUSH2 0x3890 JUMP JUMPDEST PUSH1 0x20 DUP3 ADD DUP2 SUB DUP3 MSTORE SUB DUP3 PUSH2 0x2BC JUMP JUMPDEST PUSH2 0x3B9A PUSH2 0x3B94 DUP3 PUSH2 0x1698 JUMP JUMPDEST SWAP2 PUSH2 0x1692 JUMP JUMPDEST KECCAK256 SWAP2 PUSH1 0x4 PUSH2 0xCD6 JUMP JUMPDEST PUSH2 0x3BBF PUSH2 0x3BAF DUP3 PUSH2 0x156B JUMP JUMPDEST SWAP2 PUSH2 0x3BB9 DUP4 PUSH2 0x16B2 JUMP JUMPDEST SWAP1 PUSH2 0x170B JUMP JUMPDEST SWAP2 PUSH2 0x3BC8 PUSH2 0x143 JUMP JUMPDEST SWAP7 DUP16 SWAP6 DUP9 SWAP7 DUP8 ADD PUSH2 0x389C JUMP JUMPDEST DUP12 DUP3 ADD DUP2 SUB DUP3 MSTORE SUB DUP3 PUSH2 0x2BC JUMP JUMPDEST PUSH2 0x3BF4 PUSH2 0x3BEE DUP3 PUSH2 0x1698 JUMP JUMPDEST SWAP2 PUSH2 0x1692 JUMP JUMPDEST KECCAK256 SWAP2 PUSH2 0x3C0C PUSH2 0x3C01 PUSH2 0x143 JUMP JUMPDEST SWAP4 DUP5 SWAP3 DUP12 DUP5 ADD PUSH2 0x17E4 JUMP JUMPDEST DUP10 DUP3 ADD DUP2 SUB DUP3 MSTORE SUB DUP3 PUSH2 0x2BC JUMP JUMPDEST PUSH2 0x3C2C PUSH2 0x3C26 DUP3 PUSH2 0x1698 JUMP JUMPDEST SWAP2 PUSH2 0x1692 JUMP JUMPDEST KECCAK256 SWAP3 SWAP4 PUSH2 0x3C37 PUSH2 0x143 JUMP JUMPDEST SWAP5 DUP6 SWAP5 DUP6 PUSH2 0x1818 JUMP JUMPDEST DUP4 DUP1 MSTORE SUB SWAP1 PUSH1 0x1 GAS STATICCALL ISZERO PUSH2 0x3D09 JUMPI PUSH2 0x3C75 SWAP1 PUSH2 0x3C6F PUSH2 0x3C69 PUSH2 0x3C63 PUSH1 0x0 MLOAD PUSH2 0x16CF JUMP JUMPDEST SWAP3 PUSH2 0x163 JUMP JUMPDEST SWAP2 PUSH2 0x163 JUMP JUMPDEST EQ PUSH2 0x18B2 JUMP JUMPDEST PUSH2 0x3C87 PUSH2 0x3C82 PUSH1 0x2 PUSH2 0x1E02 JUMP JUMPDEST PUSH2 0x578 JUMP JUMPDEST SWAP2 PUSH4 0xD30A32E3 SWAP2 SWAP1 SWAP3 DUP1 EXTCODESIZE ISZERO PUSH2 0x3D04 JUMPI PUSH2 0x3CB5 PUSH1 0x0 DUP1 SWAP5 PUSH2 0x3CC0 PUSH2 0x3CA9 PUSH2 0x143 JUMP JUMPDEST SWAP8 DUP9 SWAP7 DUP8 SWAP6 DUP7 SWAP5 PUSH2 0x143A JUMP JUMPDEST DUP5 MSTORE PUSH1 0x4 DUP5 ADD PUSH2 0x39B5 JUMP JUMPDEST SUB SWAP3 GAS CALL DUP1 ISZERO PUSH2 0x3CFF JUMPI PUSH2 0x3CD2 JUMPI JUMPDEST POP JUMP JUMPDEST PUSH2 0x3CF2 SWAP1 PUSH1 0x0 RETURNDATASIZE DUP2 GT PUSH2 0x3CF8 JUMPI JUMPDEST PUSH2 0x3CEA DUP2 DUP4 PUSH2 0x2BC JUMP JUMPDEST DUP2 ADD SWAP1 PUSH2 0x1DBA JUMP JUMPDEST CODESIZE PUSH2 0x3CCF JUMP JUMPDEST POP RETURNDATASIZE PUSH2 0x3CE0 JUMP JUMPDEST PUSH2 0x14AF JUMP JUMPDEST PUSH2 0x1435 JUMP JUMPDEST PUSH2 0x14AF JUMP JUMPDEST PUSH1 0x0 SWAP1 JUMP JUMPDEST PUSH1 0x0 PUSH32 0x4E6F206368696C6420666F756E64000000000000000000000000000000000000 SWAP2 ADD MSTORE JUMP JUMPDEST PUSH2 0x3D48 PUSH1 0xE PUSH1 0x20 SWAP3 PUSH2 0x15B8 JUMP JUMPDEST PUSH2 0x3D51 DUP2 PUSH2 0x3D13 JUMP JUMPDEST ADD SWAP1 JUMP JUMPDEST PUSH2 0x3D6B SWAP1 PUSH1 0x20 DUP2 ADD SWAP1 PUSH1 0x0 DUP2 DUP4 SUB SWAP2 ADD MSTORE PUSH2 0x3D3B JUMP JUMPDEST SWAP1 JUMP JUMPDEST ISZERO PUSH2 0x3D75 JUMPI JUMP JUMPDEST PUSH2 0x3D7D PUSH2 0x143 JUMP JUMPDEST PUSH3 0x461BCD PUSH1 0xE5 SHL DUP2 MSTORE DUP1 PUSH2 0x3D93 PUSH1 0x4 DUP3 ADD PUSH2 0x3D55 JUMP JUMPDEST SUB SWAP1 REVERT JUMPDEST SWAP1 PUSH1 0x0 SWAP3 SWAP2 DUP1 SLOAD SWAP1 PUSH2 0x3DB2 PUSH2 0x3DAB DUP4 PUSH2 0x1AB0 JUMP JUMPDEST DUP1 SWAP5 PUSH2 0x17A1 JUMP JUMPDEST SWAP2 PUSH1 0x1 DUP2 AND SWAP1 DUP2 PUSH1 0x0 EQ PUSH2 0x3E06 JUMPI POP PUSH1 0x1 EQ PUSH2 0x3DCE JUMPI JUMPDEST POP POP POP JUMP JUMPDEST PUSH2 0x3DDB SWAP2 SWAP3 SWAP4 SWAP5 POP PUSH2 0x1ADA JUMP JUMPDEST PUSH1 0x0 SWAP1 JUMPDEST DUP4 DUP3 LT PUSH2 0x3DF2 JUMPI POP POP ADD SWAP1 CODESIZE DUP1 DUP1 PUSH2 0x3DC9 JUMP JUMPDEST PUSH1 0x1 DUP2 PUSH1 0x20 SWAP3 SLOAD DUP5 DUP7 ADD MSTORE ADD SWAP2 ADD SWAP1 PUSH2 0x3DDF JUMP JUMPDEST SWAP3 SWAP5 SWAP6 POP POP POP PUSH1 0xFF NOT AND DUP3 MSTORE DUP1 ISZERO ISZERO MUL ADD SWAP1 CODESIZE DUP1 DUP1 PUSH2 0x3DC9 JUMP JUMPDEST PUSH2 0x3E29 SWAP2 PUSH2 0x3D97 JUMP JUMPDEST SWAP1 JUMP JUMPDEST PUSH2 0x3E35 SWAP2 PUSH2 0x190E JUMP JUMPDEST SWAP1 JUMP JUMPDEST PUSH1 0x20 PUSH32 0x756E640000000000000000000000000000000000000000000000000000000000 SWAP2 PUSH32 0x6368696C6420776974682074686520676976656E206E616D65206E6F7420666F PUSH1 0x0 DUP3 ADD MSTORE ADD MSTORE JUMP JUMPDEST PUSH2 0x3E93 PUSH1 0x23 PUSH1 0x40 SWAP3 PUSH2 0x15B8 JUMP JUMPDEST PUSH2 0x3E9C DUP2 PUSH2 0x3E38 JUMP JUMPDEST ADD SWAP1 JUMP JUMPDEST PUSH2 0x3EB6 SWAP1 PUSH1 0x20 DUP2 ADD SWAP1 PUSH1 0x0 DUP2 DUP4 SUB SWAP2 ADD MSTORE PUSH2 0x3E86 JUMP JUMPDEST SWAP1 JUMP JUMPDEST PUSH2 0x3EC1 PUSH2 0x3D0E JUMP JUMPDEST POP PUSH2 0x3ED6 PUSH2 0x3ED1 PUSH1 0x5 CALLER SWAP1 PUSH2 0x19A8 JUMP JUMPDEST PUSH2 0x19C0 JUMP JUMPDEST PUSH2 0x3EDF DUP2 PUSH2 0x19C3 JUMP JUMPDEST SWAP2 PUSH2 0x3EFD DUP4 PUSH2 0x3EF7 PUSH2 0x3EF1 PUSH1 0x0 PUSH2 0x3052 JUMP JUMPDEST SWAP2 PUSH2 0x237 JUMP JUMPDEST GT PUSH2 0x3D6E JUMP JUMPDEST PUSH2 0x3F07 PUSH1 0x0 PUSH2 0x3052 JUMP JUMPDEST JUMPDEST DUP1 PUSH2 0x3F1B PUSH2 0x3F15 DUP7 PUSH2 0x237 JUMP JUMPDEST SWAP2 PUSH2 0x237 JUMP JUMPDEST LT ISZERO PUSH2 0x3FE9 JUMPI PUSH2 0x3F4A PUSH2 0x3F59 PUSH1 0x1 PUSH2 0x3F34 DUP7 DUP6 SWAP1 PUSH2 0x19E8 JUMP JUMPDEST POP ADD PUSH2 0x3F3E PUSH2 0x143 JUMP JUMPDEST SWAP3 DUP4 SWAP2 PUSH1 0x20 DUP4 ADD PUSH2 0x3E20 JUMP JUMPDEST PUSH1 0x20 DUP3 ADD DUP2 SUB DUP3 MSTORE SUB DUP3 PUSH2 0x2BC JUMP JUMPDEST PUSH2 0x3F6B PUSH2 0x3F65 DUP3 PUSH2 0x1698 JUMP JUMPDEST SWAP2 PUSH2 0x1692 JUMP JUMPDEST KECCAK256 PUSH2 0x3FBA PUSH2 0x3FB4 PUSH2 0x3F8D PUSH2 0x3F9C DUP7 PUSH2 0x3F81 PUSH2 0x143 JUMP JUMPDEST SWAP3 DUP4 SWAP2 PUSH1 0x20 DUP4 ADD PUSH2 0x3E2C JUMP JUMPDEST PUSH1 0x20 DUP3 ADD DUP2 SUB DUP3 MSTORE SUB DUP3 PUSH2 0x2BC JUMP JUMPDEST PUSH2 0x3FAE PUSH2 0x3FA8 DUP3 PUSH2 0x1698 JUMP JUMPDEST SWAP2 PUSH2 0x1692 JUMP JUMPDEST KECCAK256 PUSH2 0x3F4 JUMP JUMPDEST SWAP2 PUSH2 0x3F4 JUMP JUMPDEST EQ PUSH2 0x3FCD JUMPI PUSH2 0x3FC8 SWAP1 PUSH2 0x30F2 JUMP JUMPDEST PUSH2 0x3F08 JUMP JUMPDEST PUSH2 0x3FE6 SWAP4 POP PUSH2 0x3FDF SWAP2 POP PUSH1 0x0 SWAP3 PUSH2 0x19E8 JUMP JUMPDEST POP ADD PUSH2 0x15AB JUMP JUMPDEST SWAP1 JUMP JUMPDEST PUSH2 0x3FF1 PUSH2 0x143 JUMP JUMPDEST PUSH3 0x461BCD PUSH1 0xE5 SHL DUP2 MSTORE DUP1 PUSH2 0x4007 PUSH1 0x4 DUP3 ADD PUSH2 0x3EA0 JUMP JUMPDEST SUB SWAP1 REVERT JUMPDEST PUSH2 0x4015 PUSH1 0x40 PUSH2 0x2E5 JUMP JUMPDEST SWAP1 JUMP JUMPDEST PUSH1 0x60 SWAP1 JUMP JUMPDEST PUSH2 0x4025 PUSH2 0x400B JUMP JUMPDEST SWAP1 PUSH1 0x20 DUP1 DUP4 PUSH2 0x4032 PUSH2 0x4018 JUMP JUMPDEST DUP2 MSTORE ADD PUSH2 0x403D PUSH2 0x4018 JUMP JUMPDEST DUP2 MSTORE POP POP JUMP JUMPDEST PUSH2 0x404B PUSH2 0x401D JUMP JUMPDEST SWAP1 JUMP JUMPDEST PUSH8 0xFFFFFFFFFFFFFFFF DUP2 GT PUSH2 0x4066 JUMPI PUSH1 0x20 DUP1 SWAP2 MUL ADD SWAP1 JUMP JUMPDEST PUSH2 0x2A6 JUMP JUMPDEST SWAP1 POP MLOAD SWAP1 PUSH2 0x4078 DUP3 PUSH2 0x3D0 JUMP JUMPDEST JUMP JUMPDEST PUSH1 0x2 GT ISZERO PUSH2 0x4084 JUMPI JUMP JUMPDEST PUSH1 0x0 DUP1 REVERT JUMPDEST SWAP1 POP MLOAD SWAP1 PUSH2 0x4096 DUP3 PUSH2 0x407A JUMP JUMPDEST JUMP JUMPDEST SWAP1 POP MLOAD SWAP1 PUSH2 0x40A5 DUP3 PUSH2 0x382 JUMP JUMPDEST JUMP JUMPDEST SWAP2 SWAP1 SWAP2 PUSH2 0x100 DUP2 DUP5 SUB SLT PUSH2 0x4182 JUMPI PUSH2 0x40C0 PUSH2 0x100 PUSH2 0x2E5 JUMP JUMPDEST SWAP3 PUSH2 0x40CE DUP2 PUSH1 0x0 DUP5 ADD PUSH2 0x406B JUMP JUMPDEST PUSH1 0x0 DUP6 ADD MSTORE PUSH1 0x20 DUP3 ADD MLOAD PUSH8 0xFFFFFFFFFFFFFFFF DUP2 GT PUSH2 0x417D JUMPI DUP2 PUSH2 0x40F3 SWAP2 DUP5 ADD PUSH2 0x2D74 JUMP JUMPDEST PUSH1 0x20 DUP6 ADD MSTORE PUSH1 0x40 DUP3 ADD MLOAD SWAP2 PUSH8 0xFFFFFFFFFFFFFFFF DUP4 GT PUSH2 0x4178 JUMPI PUSH2 0x411C DUP3 PUSH2 0x4171 SWAP5 DUP4 ADD PUSH2 0x2D74 JUMP JUMPDEST PUSH1 0x40 DUP7 ADD MSTORE PUSH2 0x412E DUP3 PUSH1 0x60 DUP4 ADD PUSH2 0x406B JUMP JUMPDEST PUSH1 0x60 DUP7 ADD MSTORE PUSH2 0x4140 DUP3 PUSH1 0x80 DUP4 ADD PUSH2 0x1440 JUMP JUMPDEST PUSH1 0x80 DUP7 ADD MSTORE PUSH2 0x4152 DUP3 PUSH1 0xA0 DUP4 ADD PUSH2 0x1440 JUMP JUMPDEST PUSH1 0xA0 DUP7 ADD MSTORE PUSH2 0x4164 DUP3 PUSH1 0xC0 DUP4 ADD PUSH2 0x4089 JUMP JUMPDEST PUSH1 0xC0 DUP7 ADD MSTORE PUSH1 0xE0 ADD PUSH2 0x4098 JUMP JUMPDEST PUSH1 0xE0 DUP4 ADD MSTORE JUMP JUMPDEST PUSH2 0xEB4 JUMP JUMPDEST PUSH2 0xEB4 JUMP JUMPDEST PUSH2 0xEAF JUMP JUMPDEST SWAP3 SWAP2 SWAP1 PUSH2 0x419B PUSH2 0x4196 DUP3 PUSH2 0x404E JUMP JUMPDEST PUSH2 0x2E5 JUMP JUMPDEST SWAP4 DUP2 DUP6 MSTORE PUSH1 0x20 DUP1 DUP7 ADD SWAP3 MUL DUP2 ADD SWAP2 DUP4 DUP4 GT PUSH2 0x41F2 JUMPI DUP2 SWAP1 JUMPDEST DUP4 DUP3 LT PUSH2 0x41C1 JUMPI POP POP POP POP POP JUMP JUMPDEST DUP2 MLOAD PUSH8 0xFFFFFFFFFFFFFFFF DUP2 GT PUSH2 0x41ED JUMPI PUSH1 0x20 SWAP2 PUSH2 0x41E2 DUP8 DUP5 SWAP4 DUP8 ADD PUSH2 0x40A7 JUMP JUMPDEST DUP2 MSTORE ADD SWAP2 ADD SWAP1 PUSH2 0x41B3 JUMP JUMPDEST PUSH2 0x292 JUMP JUMPDEST PUSH2 0xEAA JUMP JUMPDEST SWAP1 DUP1 PUSH1 0x1F DUP4 ADD SLT ISZERO PUSH2 0x4215 JUMPI DUP2 PUSH1 0x20 PUSH2 0x4212 SWAP4 MLOAD SWAP2 ADD PUSH2 0x4187 JUMP JUMPDEST SWAP1 JUMP JUMPDEST PUSH2 0x292 JUMP JUMPDEST SWAP2 SWAP1 SWAP2 PUSH1 0x40 DUP2 DUP5 SUB SLT PUSH2 0x4286 JUMPI PUSH2 0x4231 PUSH1 0x40 PUSH2 0x2E5 JUMP JUMPDEST SWAP3 PUSH1 0x0 DUP3 ADD MLOAD PUSH8 0xFFFFFFFFFFFFFFFF DUP2 GT PUSH2 0x4281 JUMPI DUP2 PUSH2 0x4252 SWAP2 DUP5 ADD PUSH2 0x41F7 JUMP JUMPDEST PUSH1 0x0 DUP6 ADD MSTORE PUSH1 0x20 DUP3 ADD MLOAD PUSH8 0xFFFFFFFFFFFFFFFF DUP2 GT PUSH2 0x427C JUMPI PUSH2 0x4275 SWAP3 ADD PUSH2 0x41F7 JUMP JUMPDEST PUSH1 0x20 DUP4 ADD MSTORE JUMP JUMPDEST PUSH2 0xEB4 JUMP JUMPDEST PUSH2 0xEB4 JUMP JUMPDEST PUSH2 0xEAF JUMP JUMPDEST SWAP1 PUSH1 0x20 DUP3 DUP3 SUB SLT PUSH2 0x42BC JUMPI PUSH1 0x0 DUP3 ADD MLOAD PUSH8 0xFFFFFFFFFFFFFFFF DUP2 GT PUSH2 0x42B7 JUMPI PUSH2 0x42B4 SWAP3 ADD PUSH2 0x421A JUMP JUMPDEST SWAP1 JUMP JUMPDEST PUSH2 0x153 JUMP JUMPDEST PUSH2 0x14E JUMP JUMPDEST PUSH1 0x0 PUSH2 0x4309 SWAP2 PUSH2 0x42CF PUSH2 0x4043 JUMP JUMPDEST POP PUSH2 0x42E2 PUSH2 0x42DD PUSH1 0x2 PUSH2 0x1E02 JUMP JUMPDEST PUSH2 0x578 JUMP JUMPDEST PUSH2 0x42FE PUSH4 0xEB607DB1 PUSH2 0x42F2 PUSH2 0x143 JUMP JUMPDEST SWAP6 DUP7 SWAP5 DUP6 SWAP4 DUP5 SWAP4 PUSH2 0x143A JUMP JUMPDEST DUP4 MSTORE PUSH1 0x4 DUP4 ADD PUSH2 0xDB4 JUMP JUMPDEST SUB SWAP2 GAS STATICCALL SWAP1 DUP2 ISZERO PUSH2 0x4343 JUMPI PUSH1 0x0 SWAP2 PUSH2 0x4320 JUMPI JUMPDEST POP SWAP1 JUMP JUMPDEST PUSH2 0x433D SWAP2 POP RETURNDATASIZE DUP1 PUSH1 0x0 DUP4 RETURNDATACOPY PUSH2 0x4335 DUP2 DUP4 PUSH2 0x2BC JUMP JUMPDEST DUP2 ADD SWAP1 PUSH2 0x428B JUMP JUMPDEST CODESIZE PUSH2 0x431C JUMP JUMPDEST PUSH2 0x14AF JUMP JUMPDEST PUSH1 0x0 SWAP1 JUMP JUMPDEST PUSH32 0x8B73C3C69BB8FE3D512ECC4CF759CC79239F7B179B0FFACAA9A75D522B39400F SWAP1 JUMP JUMPDEST SWAP1 PUSH2 0x4383 PUSH2 0x437E DUP4 PUSH2 0x2FA JUMP JUMPDEST PUSH2 0x2E5 JUMP JUMPDEST SWAP2 DUP3 MSTORE JUMP JUMPDEST PUSH1 0x0 PUSH32 0x506172656E744368696C6452656C6174696F6E73686970576974684D65746100 SWAP2 ADD MSTORE JUMP JUMPDEST PUSH2 0x43BA PUSH1 0x1F PUSH2 0x4371 JUMP JUMPDEST SWAP1 PUSH2 0x43C7 PUSH1 0x20 DUP4 ADD PUSH2 0x4388 JUMP JUMPDEST JUMP JUMPDEST PUSH2 0x43D1 PUSH2 0x43B0 JUMP JUMPDEST SWAP1 JUMP JUMPDEST PUSH1 0x0 PUSH32 0x3100000000000000000000000000000000000000000000000000000000000000 SWAP2 ADD MSTORE JUMP JUMPDEST PUSH2 0x4406 PUSH1 0x1 PUSH2 0x4371 JUMP JUMPDEST SWAP1 PUSH2 0x4413 PUSH1 0x20 DUP4 ADD PUSH2 0x43D4 JUMP JUMPDEST JUMP JUMPDEST PUSH2 0x441D PUSH2 0x43FC JUMP JUMPDEST SWAP1 JUMP JUMPDEST PUSH2 0x4429 SWAP1 PUSH2 0x56C JUMP JUMPDEST SWAP1 JUMP JUMPDEST SWAP1 SWAP6 SWAP5 SWAP3 PUSH2 0x4478 SWAP5 PUSH2 0x4467 PUSH2 0x4471 SWAP3 PUSH2 0x445D PUSH1 0x80 SWAP7 PUSH2 0x4453 PUSH1 0xA0 DUP9 ADD SWAP13 PUSH1 0x0 DUP10 ADD SWAP1 PUSH2 0x136E JUMP JUMPDEST PUSH1 0x20 DUP8 ADD SWAP1 PUSH2 0x136E JUMP JUMPDEST PUSH1 0x40 DUP6 ADD SWAP1 PUSH2 0x136E JUMP JUMPDEST PUSH1 0x60 DUP4 ADD SWAP1 PUSH2 0x23A JUMP JUMPDEST ADD SWAP1 PUSH2 0xDA7 JUMP JUMPDEST JUMP JUMPDEST PUSH2 0x4482 PUSH2 0x4348 JUMP JUMPDEST POP PUSH2 0x448B PUSH2 0x434D JUMP JUMPDEST PUSH2 0x44F6 PUSH2 0x4496 PUSH2 0x43C9 JUMP JUMPDEST PUSH2 0x44A8 PUSH2 0x44A2 DUP3 PUSH2 0x1698 JUMP JUMPDEST SWAP2 PUSH2 0x1692 JUMP JUMPDEST KECCAK256 SWAP2 PUSH2 0x44E7 PUSH2 0x44B5 PUSH2 0x4415 JUMP JUMPDEST PUSH2 0x44C7 PUSH2 0x44C1 DUP3 PUSH2 0x1698 JUMP JUMPDEST SWAP2 PUSH2 0x1692 JUMP JUMPDEST KECCAK256 CHAINID PUSH2 0x44D2 ADDRESS PUSH2 0x4420 JUMP JUMPDEST SWAP2 PUSH2 0x44DB PUSH2 0x143 JUMP JUMPDEST SWAP7 DUP8 SWAP6 PUSH1 0x20 DUP8 ADD PUSH2 0x442C JUMP JUMPDEST PUSH1 0x20 DUP3 ADD DUP2 SUB DUP3 MSTORE SUB DUP3 PUSH2 0x2BC JUMP JUMPDEST PUSH2 0x4508 PUSH2 0x4502 DUP3 PUSH2 0x1698 JUMP JUMPDEST SWAP2 PUSH2 0x1692 JUMP JUMPDEST KECCAK256 SWAP1 JUMP JUMPDEST PUSH1 0x0 PUSH32 0x4368696C64206E6F7420666F756E640000000000000000000000000000000000 SWAP2 ADD MSTORE JUMP JUMPDEST PUSH2 0x4541 PUSH1 0xF PUSH1 0x20 SWAP3 PUSH2 0x15B8 JUMP JUMPDEST PUSH2 0x454A DUP2 PUSH2 0x450C JUMP JUMPDEST ADD SWAP1 JUMP JUMPDEST PUSH2 0x4564 SWAP1 PUSH1 0x20 DUP2 ADD SWAP1 PUSH1 0x0 DUP2 DUP4 SUB SWAP2 ADD MSTORE PUSH2 0x4534 JUMP JUMPDEST SWAP1 JUMP JUMPDEST PUSH2 0x457E PUSH2 0x4583 SWAP2 PUSH2 0x4576 PUSH2 0x1552 JUMP JUMPDEST POP PUSH1 0x5 PUSH2 0x19A8 JUMP JUMPDEST PUSH2 0x19C0 JUMP JUMPDEST SWAP1 PUSH2 0x458E PUSH1 0x0 PUSH2 0x3052 JUMP JUMPDEST JUMPDEST DUP1 PUSH2 0x45AA PUSH2 0x45A4 PUSH2 0x459F DUP7 PUSH2 0x19C3 JUMP JUMPDEST PUSH2 0x237 JUMP JUMPDEST SWAP2 PUSH2 0x237 JUMP JUMPDEST LT ISZERO PUSH2 0x45F2 JUMPI PUSH2 0x45C7 PUSH1 0x0 PUSH2 0x45C0 DUP6 DUP5 SWAP1 PUSH2 0x19E8 JUMP JUMPDEST POP ADD PUSH2 0x15AB JUMP JUMPDEST PUSH2 0x45D9 PUSH2 0x45D3 DUP5 PUSH2 0x163 JUMP JUMPDEST SWAP2 PUSH2 0x163 JUMP JUMPDEST EQ PUSH2 0x45EC JUMPI PUSH2 0x45E7 SWAP1 PUSH2 0x30F2 JUMP JUMPDEST PUSH2 0x458F JUMP JUMPDEST SWAP2 POP POP SWAP1 JUMP JUMPDEST PUSH2 0x45FA PUSH2 0x143 JUMP JUMPDEST PUSH3 0x461BCD PUSH1 0xE5 SHL DUP2 MSTORE DUP1 PUSH2 0x4610 PUSH1 0x4 DUP3 ADD PUSH2 0x454E JUMP JUMPDEST SUB SWAP1 REVERT INVALID LOG2 PUSH5 0x6970667358 0x22 SLT KECCAK256 0xD 0xEF BLOBHASH JUMP PUSH4 0x84417DE0 DUP12 BLOBBASEFEE 0xDB 0xBF PUSH14 0x9F96FF9106F43661C7BEB866F7AE PUSH31 0x3A732564736F6C634300081B00330000000000000000000000000000000000 "},"methodIdentifiers":{"executeMetaAddMedicalHistory(address,address,uint8,string,string,string,string,string,uint8,bytes32,bytes32)":"59d5ad1b","executeMetaConnectChild(address,address,uint8,bytes32,bytes32)":"ac8f30cd","executeMetaCreateChild(address,string,uint256,uint16,uint16,uint8,bytes32,bytes32)":"386ed275","executeMetaSetHealthInformation(address,address,uint16,uint16,uint8,bytes32,bytes32)":"4c585913","executeMetaUpdateMultipleVaccination(address,address,(string,uint8,uint256)[],uint8,bytes32,bytes32)":"c0bee6bc","executeMetaUpdateVaccination(address,address,string,uint8,uint256,uint8,bytes32,bytes32)":"5b3b7505","getDomainSeparator()":"ed24911d","getNonce(address)":"2d0335ab","healthInformationContract()":"3e030d06","medicalHistoryContract()":"c9d461c5","nonces(address)":"7ecebe00","owner()":"8da5cb5b","returnChildAddress(string)":"e50cde76","returnChildInformation()":"7ccf76c0","returnChildVaccinationStatus(address)":"eb607db1","returnHealthInformation(address)":"2ce001de","returnMedicalHistoriesForChild(address)":"7ce266a5","vaccinationManagementContract()":"3cfedb84"}}}}}