{"contracts/VaccinationManagement.sol":{"VaccinationManagement":{"abi":[{"inputs":[],"stateMutability":"nonpayable","type":"constructor"},{"anonymous":false,"inputs":[{"indexed":true,"internalType":"address","name":"childAddress","type":"address"},{"indexed":false,"internalType":"string","name":"vaccineName","type":"string"},{"indexed":false,"internalType":"uint8","name":"vaccineChapter","type":"uint8"},{"indexed":false,"internalType":"uint256","name":"date","type":"uint256"}],"name":"VaccinationUpdated","type":"event"},{"inputs":[{"internalType":"address","name":"_childAddress","type":"address"}],"name":"initializeVaccinationRecords","outputs":[],"stateMutability":"nonpayable","type":"function"},{"inputs":[{"internalType":"uint256","name":"","type":"uint256"}],"name":"recommendedVaccinations","outputs":[{"internalType":"uint8","name":"index","type":"uint8"},{"internalType":"string","name":"vaccineName","type":"string"},{"internalType":"string","name":"targetDisease","type":"string"},{"internalType":"uint8","name":"vaccineChapter","type":"uint8"},{"internalType":"uint16","name":"recommendedDays","type":"uint16"},{"internalType":"uint16","name":"recommendedEndDays","type":"uint16"},{"internalType":"enum VaccinationManagement.VaccinationStatus","name":"status","type":"uint8"},{"internalType":"uint256","name":"administeredDate","type":"uint256"}],"stateMutability":"view","type":"function"},{"inputs":[{"internalType":"address","name":"_childAddress","type":"address"}],"name":"returnChildVaccinationStatus","outputs":[{"components":[{"components":[{"internalType":"uint8","name":"index","type":"uint8"},{"internalType":"string","name":"vaccineName","type":"string"},{"internalType":"string","name":"targetDisease","type":"string"},{"internalType":"uint8","name":"vaccineChapter","type":"uint8"},{"internalType":"uint16","name":"recommendedDays","type":"uint16"},{"internalType":"uint16","name":"recommendedEndDays","type":"uint16"},{"internalType":"enum VaccinationManagement.VaccinationStatus","name":"status","type":"uint8"},{"internalType":"uint256","name":"administeredDate","type":"uint256"}],"internalType":"struct VaccinationManagement.Vaccination[]","name":"completed","type":"tuple[]"},{"components":[{"internalType":"uint8","name":"index","type":"uint8"},{"internalType":"string","name":"vaccineName","type":"string"},{"internalType":"string","name":"targetDisease","type":"string"},{"internalType":"uint8","name":"vaccineChapter","type":"uint8"},{"internalType":"uint16","name":"recommendedDays","type":"uint16"},{"internalType":"uint16","name":"recommendedEndDays","type":"uint16"},{"internalType":"enum VaccinationManagement.VaccinationStatus","name":"status","type":"uint8"},{"internalType":"uint256","name":"administeredDate","type":"uint256"}],"internalType":"struct VaccinationManagement.Vaccination[]","name":"pending","type":"tuple[]"}],"internalType":"struct VaccinationManagement.VaccinationInfomation","name":"","type":"tuple"}],"stateMutability":"view","type":"function"},{"inputs":[{"internalType":"address","name":"_childAddress","type":"address"},{"internalType":"string","name":"_vaccineName","type":"string"},{"internalType":"uint8","name":"_vaccineChapter","type":"uint8"},{"internalType":"uint256","name":"_administeredDate","type":"uint256"}],"name":"updateChildVaccination","outputs":[],"stateMutability":"nonpayable","type":"function"},{"inputs":[{"internalType":"address","name":"_childAddress","type":"address"},{"components":[{"internalType":"string","name":"vaccineName","type":"string"},{"internalType":"uint8","name":"vaccineChapter","type":"uint8"},{"internalType":"uint256","name":"administerDate","type":"uint256"}],"internalType":"struct VaccinationManagement.VaccinationInput[]","name":"_vaccinations","type":"tuple[]"}],"name":"updateMultipleChildVaccination","outputs":[],"stateMutability":"nonpayable","type":"function"}],"evm":{"bytecode":{"linkReferences":{},"object":"608060405234610027576100116112df565b61001961002c565b6120cf61297782396120cf90f35b610032565b60405190565b600080fd5b90565b60ff1690565b90565b61005761005261005c92610037565b610040565b61003a565b90565b601f801991011690565b634e487b7160e01b600052604160045260246000fd5b906100899061005f565b810190811060018060401b038211176100a157604052565b610069565b906100b96100b261002c565b928361007f565b565b60018060401b0381116100d7576100d360209161005f565b0190565b610069565b906100ee6100e9836100bb565b6100a6565b918252565b60007f4243470000000000000000000000000000000000000000000000000000000000910152565b61012560036100dc565b90610132602083016100f3565b565b61013c61011b565b90565b600065eab2b0ed95b560d01b910152565b61015a60066100dc565b906101676020830161013f565b565b610171610150565b90565b90565b61ffff1690565b61019261018d61019792610174565b610040565b610177565b90565b90565b6101b16101ac6101b69261019a565b610040565b610177565b90565b90565b6101d06101cb6101d5926101b9565b610040565b61003a565b90565b60007f4865704200000000000000000000000000000000000000000000000000000000910152565b61020a60046100dc565b90610217602083016101d8565b565b610221610200565b90565b60006910bb66257aac213b25ef60b21b910152565b610243600a6100dc565b9061025060208301610224565b565b61025a610239565b90565b90565b61027461026f6102799261025d565b610040565b61003a565b90565b90565b61029361028e6102989261027c565b610040565b610177565b90565b90565b6102b26102ad6102b79261029b565b610040565b610177565b90565b90565b6102d16102cc6102d6926102ba565b610040565b61003a565b90565b60007f4454617000000000000000000000000000000000000000000000000000000000910152565b61030b60046100dc565b90610318602083016102d9565b565b610322610301565b90565b60006e3ae5253b65213b61633ae9ab3b2561608a1b910152565b610349600f6100dc565b9061035660208301610325565b565b61036061033f565b90565b90565b61037a61037561037f92610363565b610040565b610177565b90565b90565b61039961039461039e92610382565b610040565b610177565b90565b90565b6103b86103b36103bd926103a1565b610040565b61003a565b90565b600068ed8c8cec8381ed928d60b81b910152565b6103de60096100dc565b906103eb602083016103c0565b565b6103f56103d4565b90565b90565b61040f61040a610414926103f8565b610040565b61003a565b90565b6000683aec2c7b276f3b656d60ba1b910152565b61043560096100dc565b9061044260208301610417565b565b61044c61042b565b90565b90565b61046661046161046b9261044f565b610040565b61003a565b90565b60007f4950560000000000000000000000000000000000000000000000000000000000910152565b6104a060036100dc565b906104ad6020830161046e565b565b6104b7610496565b90565b6000683b63ed3ae9ab3b262960ba1b910152565b6104d860096100dc565b906104e5602083016104ba565b565b6104ef6104ce565b90565b90565b61050961050461050e926104f2565b610040565b61003a565b90565b60007f4869620000000000000000000000000000000000000000000000000000000000910152565b61054360036100dc565b9061055060208301610511565b565b61055a610539565b90565b7f62ed9895ed97a4ebaaa8ed9584eba3a8ec8aa4ec9db8ed948ceba3a8ec9794ec600082015260206109e960f41b910152565b61059a60226100dc565b906105a76020830161055d565b565b6105b1610590565b90565b90565b6105cb6105c66105d0926105b4565b610040565b61003a565b90565b60007f5043560000000000000000000000000000000000000000000000000000000000910152565b61060560036100dc565b90610612602083016105d3565b565b61061c6105fb565b90565b60006b076c7c875d05a755ad6755bd60a51b910152565b610640600c6100dc565b9061064d6020830161061f565b565b610657610636565b90565b90565b61067161066c6106769261065a565b610040565b61003a565b90565b60007f5256310000000000000000000000000000000000000000000000000000000000910152565b6106ab60036100dc565b906106b860208301610679565b565b6106c26106a1565b90565b60007feba19ced8380ebb094ec9db4eb9facec8aa420eab090ec97bceca69d00000000910152565b6106f7601c6100dc565b90610704602083016106c5565b565b61070e6106ed565b90565b90565b61072861072361072d92610711565b610040565b61003a565b90565b60007f5256350000000000000000000000000000000000000000000000000000000000910152565b61076260036100dc565b9061076f60208301610730565b565b610779610758565b90565b90565b61079361078e6107989261077c565b610040565b61003a565b90565b90565b6107b26107ad6107b79261079b565b610040565b610177565b90565b90565b6107d16107cc6107d6926107ba565b610040565b610177565b90565b90565b6107f06107eb6107f5926107d9565b610040565b61003a565b90565b90565b61080f61080a610814926107f8565b610040565b61003a565b90565b90565b61082e61082961083392610817565b610040565b61003a565b90565b90565b61084d61084861085292610836565b610040565b61003a565b90565b90565b61086c61086761087192610855565b610040565b61003a565b90565b90565b61088b61088661089092610874565b610040565b61003a565b90565b90565b6108aa6108a56108af92610893565b610040565b61003a565b90565b90565b6108c96108c46108ce926108b2565b610040565b61003a565b90565b90565b6108e86108e36108ed926108d1565b610040565b610177565b90565b90565b61090761090261090c926108f0565b610040565b610177565b90565b90565b61092661092161092b9261090f565b610040565b61003a565b90565b90565b61094561094061094a9261092e565b610040565b61003a565b90565b90565b61096461095f6109699261094d565b610040565b61003a565b90565b90565b61098361097e6109889261096c565b610040565b61003a565b90565b90565b6109a261099d6109a79261098b565b610040565b61003a565b90565b90565b6109c16109bc6109c6926109aa565b610040565b61003a565b90565b90565b6109e06109db6109e5926109c9565b610040565b61003a565b90565b90565b6109ff6109fa610a04926109e8565b610040565b610177565b90565b90565b610a1e610a19610a2392610a07565b610040565b61003a565b90565b90565b610a3d610a38610a4292610a26565b610040565b610177565b90565b90565b610a5c610a57610a6192610a45565b610040565b610177565b90565b90565b610a7b610a76610a8092610a64565b610040565b61003a565b90565b610a97610a92610a9c9261019a565b610040565b61003a565b90565b60007f4d4d520000000000000000000000000000000000000000000000000000000000910152565b610ad160036100dc565b90610ade60208301610a9f565b565b610ae8610ac7565b90565b600065ed998dec97ad60d01b910152565b610b0660066100dc565b90610b1360208301610aeb565b565b610b1d610afc565b90565b610b34610b2f610b399261027c565b610040565b61003a565b90565b60007fec9ca0ed9689ec84b1ec9db4ed9598ec84a0ec97bc0000000000000000000000910152565b610b6e60156100dc565b90610b7b60208301610b3c565b565b610b85610b64565b90565b90565b610b9f610b9a610ba492610b88565b610040565b61003a565b90565b6000653b64a37b29e160d21b910152565b610bc260066100dc565b90610bcf60208301610ba7565b565b610bd9610bb8565b90565b90565b610bf3610bee610bf892610bdc565b610040565b61003a565b90565b60007f4865704100000000000000000000000000000000000000000000000000000000910152565b610c2d60046100dc565b90610c3a60208301610bfb565b565b610c44610c23565b90565b600069107b66257aac213b25ef60b21b910152565b610c66600a6100dc565b90610c7360208301610c47565b565b610c7d610c5c565b90565b90565b610c97610c92610c9c92610c80565b610040565b61003a565b90565b60007f494a455600000000000000000000000000000000000000000000000000000000910152565b610cd160046100dc565b90610cde60208301610c9f565b565b610ce8610cc7565b90565b60006b3b276f3aecee3ae1e33b25ef60a21b910152565b610d0c600c6100dc565b90610d1960208301610ceb565b565b610d23610d02565b90565b90565b610d3d610d38610d4292610d26565b610040565b61003a565b90565b60007f4c4a455600000000000000000000000000000000000000000000000000000000910152565b610d7760046100dc565b90610d8460208301610d45565b565b610d8e610d6d565b90565b90565b610da8610da3610dad92610d91565b610040565b610177565b90565b90565b610dc7610dc2610dcc92610db0565b610040565b61003a565b90565b90565b610de6610de1610deb92610dcf565b610040565b610177565b90565b90565b610e05610e00610e0a92610dee565b610040565b61003a565b90565b90565b610e24610e1f610e2992610e0d565b610040565b61003a565b90565b90565b610e43610e3e610e4892610e2c565b610040565b61003a565b90565b90565b610e62610e5d610e6792610e4b565b610040565b610177565b90565b90565b610e81610e7c610e8692610e6a565b610040565b61003a565b90565b90565b610ea0610e9b610ea592610e89565b610040565b61003a565b90565b90565b610ebf610eba610ec492610ea8565b610040565b610177565b90565b90565b610ede610ed9610ee392610ec7565b610040565b610177565b90565b90565b610efd610ef8610f0292610ee6565b610040565b61003a565b90565b90565b610f1c610f17610f2192610f05565b610040565b61003a565b90565b90565b610f3b610f36610f4092610f24565b610040565b610177565b90565b90565b610f5a610f55610f5f92610f43565b610040565b610177565b90565b90565b610f79610f74610f7e92610f62565b610040565b61003a565b90565b90565b610f98610f93610f9d92610f81565b610040565b61003a565b90565b90565b610fb7610fb2610fbc92610fa0565b610040565b61003a565b90565b90565b610fd6610fd1610fdb92610fbf565b610040565b61003a565b90565b90565b610ff5610ff0610ffa92610fde565b610040565b61003a565b90565b60007fec9ca0ed9895ec84b1ec9db4ed9598ec84a0ec97bc0000000000000000000000910152565b61102f60156100dc565b9061103c60208301610ffd565b565b611046611025565b90565b90565b61106061105b61106592611049565b610040565b61003a565b90565b90565b61107f61107a61108492611068565b610040565b61003a565b90565b90565b61109e6110996110a392611087565b610040565b610177565b90565b90565b6110bd6110b86110c2926110a6565b610040565b61003a565b90565b60007f5464617000000000000000000000000000000000000000000000000000000000910152565b6110f760046100dc565b90611104602083016110c5565b565b61110e6110ed565b90565b90565b61112861112361112d92611111565b610040565b610177565b90565b90565b61114761114261114c92611130565b610040565b610177565b90565b90565b61116661116161116b9261114f565b610040565b61003a565b90565b90565b61118561118061118a9261116e565b610040565b61003a565b90565b90565b6111a461119f6111a99261118d565b610040565b61003a565b90565b90565b6111c36111be6111c8926111ac565b610040565b610177565b90565b90565b6111e26111dd6111e7926111cb565b610040565b61003a565b90565b60007f4850560000000000000000000000000000000000000000000000000000000000910152565b61121c60036100dc565b90611229602083016111ea565b565b611233611212565b90565b60007fec82aceb9e8cec9ca0eb9190eca285ebb094ec9db4eb9facec8aa40000000000910152565b611268601b6100dc565b9061127560208301611236565b565b61127f61125e565b90565b90565b61129961129461129e92611282565b610040565b610177565b90565b90565b6112b86112b36112bd926112a1565b610040565b61003a565b90565b90565b6112d76112d26112dc926112c0565b610040565b610177565b90565b61132460018060006112f2601e92610043565b926112fb610134565b61131e61131861131261130c610169565b94610043565b9461017e565b9461019d565b946128ca565b61136b60026001906000611339601e926101bc565b92611342610219565b61136561135f611359611353610252565b94610043565b9461017e565b9461019d565b946128ca565b6113b26003600290601f611380603c92610260565b92611389610219565b6113ac6113a66113a061139a610252565b946101bc565b9461027f565b9461029e565b946128ca565b6113f96004600190603d6113c7605a926102bd565b926113d061031a565b6113f36113ed6113e76113e1610358565b94610043565b94610366565b94610385565b946128ca565b6114406005600190603d61140e605a926103a4565b9261141761031a565b61143a61143461142e6114286103ed565b94610043565b94610366565b94610385565b946128ca565b6114876006600190603d611455605a926103fb565b9261145e61031a565b61148161147b61147561146f610444565b94610043565b94610366565b94610385565b946128ca565b6114ce6007600190603d61149c605a92610452565b926114a56104af565b6114c86114c26114bc6114b66104e7565b94610043565b94610366565b94610385565b946128ca565b6115156008600190603d6114e3605a926104f5565b926114ec610552565b61150f6115096115036114fd6105a9565b94610043565b94610366565b94610385565b946128ca565b61155c6009600190603d61152a605a926105b7565b92611533610614565b61155661155061154a61154461064f565b94610043565b94610366565b94610385565b946128ca565b6115a3600a600190603d611571605a9261065d565b9261157a6106ba565b61159d61159761159161158b610706565b94610043565b94610366565b94610385565b946128ca565b6115ea600b600190603d6115b8605a92610714565b926115c1610771565b6115e46115de6115d86115d2610706565b94610043565b94610366565b94610385565b946128ca565b611631600c60029060796115ff60969261077f565b9261160861031a565b61162b61162561161f611619610358565b946101bc565b9461079e565b946107bd565b946128ca565b611678600d60029060796116466096926107dc565b9261164f61031a565b61167261166c6116666116606103ed565b946101bc565b9461079e565b946107bd565b946128ca565b6116bf600e600290607961168d6096926107fb565b9261169661031a565b6116b96116b36116ad6116a7610444565b946101bc565b9461079e565b946107bd565b946128ca565b611706600f60029060796116d460969261081a565b926116dd6104af565b6117006116fa6116f46116ee6104e7565b946101bc565b9461079e565b946107bd565b946128ca565b61174d6010600290607961171b609692610839565b92611724610552565b61174761174161173b6117356105a9565b946101bc565b9461079e565b946107bd565b946128ca565b61179460116002906079611762609692610858565b9261176b610614565b61178e61178861178261177c61064f565b946101bc565b9461079e565b946107bd565b946128ca565b6117db601260029060796117a9609692610877565b926117b26106ba565b6117d56117cf6117c96117c3610706565b946101bc565b9461079e565b946107bd565b946128ca565b611822601360029060796117f0609692610896565b926117f9610771565b61181c61181661181061180a610706565b946101bc565b9461079e565b946107bd565b946128ca565b611869601460039060b561183760d2926108b5565b92611840610219565b61186361185d611857611851610252565b94610260565b946108d4565b946108f3565b946128ca565b6118b0601560039060b561187e60d292610912565b9261188761031a565b6118aa6118a461189e611898610358565b94610260565b946108d4565b946108f3565b946128ca565b6118f7601660039060b56118c560d292610931565b926118ce61031a565b6118f16118eb6118e56118df6103ed565b94610260565b946108d4565b946108f3565b946128ca565b61193e601760039060b561190c60d292610950565b9261191561031a565b61193861193261192c611926610444565b94610260565b946108d4565b946108f3565b946128ca565b611985601860039060b561195360d29261096f565b9261195c610552565b61197f61197961197361196d6105a9565b94610260565b946108d4565b946108f3565b946128ca565b6119cc601960029060b561199a60d29261098e565b926119a3610614565b6119c66119c06119ba6119b461064f565b946101bc565b946108d4565b946108f3565b946128ca565b611a13601a60039060b56119e160d2926109ad565b926119ea610771565b611a0d611a07611a016119fb610706565b94610260565b946108d4565b946108f3565b946128ca565b611a5b601b60039060b5611a2961023a926109cc565b92611a326104af565b611a55611a4f611a49611a436104e7565b94610260565b946108d4565b946109eb565b946128ca565b611aa4601c600490610169611a726101e092610a0a565b92611a7b610552565b611a9e611a98611a92611a8c6105a9565b946102bd565b94610a29565b94610a48565b946128ca565b611aed601d600490610169611abb6101e092610a67565b92611ac4610614565b611ae7611ae1611adb611ad561064f565b946102bd565b94610a29565b94610a48565b946128ca565b611b36601e600190610169611b046101e092610a83565b92611b0d610ae0565b611b30611b2a611b24611b1e610b15565b94610043565b94610a29565b94610a48565b946128ca565b611b7f601f600190610169611b4d6101e092610b20565b92611b56610ae0565b611b79611b73611b6d611b67610b7d565b94610043565b94610a29565b94610a48565b946128ca565b611bc86020600190610169611b966101e092610b8b565b92611b9f610ae0565b611bc2611bbc611bb6611bb0610bd1565b94610043565b94610a29565b94610a48565b946128ca565b611c116021600190610169611bdf6101e092610bdf565b92611be8610c3c565b611c0b611c05611bff611bf9610c75565b94610043565b94610a29565b94610a48565b946128ca565b611c5a6022600190610169611c286101e092610c83565b92611c31610ce0565b611c54611c4e611c48611c42610d1b565b94610043565b94610a29565b94610a48565b946128ca565b611ca36023600190610169611c716102d092610d29565b92611c7a610d86565b611c9d611c97611c91611c8b610d1b565b94610043565b94610a29565b94610d94565b946128ca565b611cec60246004906101c3611cba61023a92610db3565b92611cc361031a565b611ce6611ce0611cda611cd4610358565b946102bd565b94610dd2565b946109eb565b946128ca565b611d3560256004906101c3611d0361023a92610df1565b92611d0c61031a565b611d2f611d29611d23611d1d6103ed565b946102bd565b94610dd2565b946109eb565b946128ca565b611d7e60266004906101c3611d4c61023a92610e10565b92611d5561031a565b611d78611d72611d6c611d66610444565b946102bd565b94610dd2565b946109eb565b946128ca565b611dc7602760029061021d611d956102d092610e2f565b92611d9e610c3c565b611dc1611dbb611db5611daf610c75565b946101bc565b94610e4e565b94610d94565b946128ca565b611e10602860029061021d611dde6102d092610e6d565b92611de7610ce0565b611e0a611e04611dfe611df8610d1b565b946101bc565b94610e4e565b94610d94565b946128ca565b611e5960296003906102d1611e2761043892610e8c565b92611e30610ce0565b611e53611e4d611e47611e41610d1b565b94610260565b94610eab565b94610eca565b946128ca565b611ea2602a6002906102d1611e7061043892610ee9565b92611e79610d86565b611e9c611e96611e90611e8a610d1b565b946101bc565b94610eab565b94610eca565b946128ca565b611eeb602b6005906105a1611eb96109d892610f08565b92611ec261031a565b611ee5611edf611ed9611ed3610358565b946103a4565b94610f27565b94610f46565b946128ca565b611f34602c6005906105a1611f026109d892610f65565b92611f0b61031a565b611f2e611f28611f22611f1c6103ed565b946103a4565b94610f27565b94610f46565b946128ca565b611f7d602d6005906105a1611f4b6109d892610f84565b92611f5461031a565b611f77611f71611f6b611f65610444565b946103a4565b94610f27565b94610f46565b946128ca565b611fc6602e6004906105a1611f946109d892610fa3565b92611f9d6104af565b611fc0611fba611fb4611fae6104e7565b946102bd565b94610f27565b94610f46565b946128ca565b61200f602f6002906105a1611fdd6109d892610fc2565b92611fe6610ae0565b612009612003611ffd611ff7610b15565b946101bc565b94610f27565b94610f46565b946128ca565b61205860306002906105a16120266109d892610fe1565b9261202f610ae0565b61205261204c61204661204061103e565b946101bc565b94610f27565b94610f46565b946128ca565b6120a160316002906105a161206f6109d89261104c565b92612078610ae0565b61209b61209561208f612089610bd1565b946101bc565b94610f27565b94610f46565b946128ca565b6120ea60326004906108716120b86109d89261106b565b926120c1610ce0565b6120e46120de6120d86120d2610d1b565b946102bd565b9461108a565b94610f46565b946128ca565b6121336033600690610f79612101611248926110a9565b9261210a611106565b61212d61212761212161211b610358565b946103fb565b94611114565b94611133565b946128ca565b61217c6034600690610f7961214a61124892611152565b92612153611106565b61217661217061216a6121646103ed565b946103fb565b94611114565b94611133565b946128ca565b6121c56035600690610f7961219361124892611171565b9261219c611106565b6121bf6121b96121b36121ad610444565b946103fb565b94611114565b94611133565b946128ca565b61220e60366005906110e16121dc61124892611190565b926121e5610ce0565b6122086122026121fc6121f6610d1b565b946103a4565b946111af565b94611133565b946128ca565b61225760376001906110e1612225611194926111ce565b9261222e61122b565b61225161224b61224561223f611277565b94610043565b946111af565b94611285565b946128ca565b6122a0603860029061119561226e611248926112a4565b9261227761122b565b61229a61229461228e612288611277565b946101bc565b946112c3565b94611133565b946128ca565b565b90565b6122b06101006100a6565b90565b906122bd9061003a565b9052565b52565b906122ce90610177565b9052565b634e487b7160e01b600052602160045260246000fd5b600211156122f257565b6122d2565b90612301826122e8565b565b9061230d906122f7565b9052565b90565b61232861232361232d92610174565b610040565b612311565b90565b9061233a90612311565b9052565b600052602060002090565b634e487b7160e01b600052603260045260246000fd5b5490565b61236c8161235f565b8210156123875761237e60059161233e565b91020190600090565b612349565b634e487b7160e01b600052600060045260246000fd5b6123ac905161003a565b90565b60001b90565b906123c160ff916123af565b9181191691161790565b6123df6123da6123e49261003a565b610040565b61003a565b90565b90565b906123ff6123fa612406926123cb565b6123e7565b82546123b5565b9055565b5190565b5190565b634e487b7160e01b600052602260045260246000fd5b9060016002830492168015612448575b602083101461244357565b612412565b91607f1691612438565b600052602060002090565b601f602091010490565b1b90565b9190600861248791029161248160001984612467565b92612467565b9181191691161790565b6124a56124a06124aa92612311565b610040565b612311565b90565b90565b91906124c66124c16124ce93612491565b6124ad565b90835461246b565b9055565b600090565b6124e9916124e36124d2565b916124b0565b565b5b8181106124f7575050565b8061250560006001936124d7565b016124ec565b9190601f811161251b575b505050565b61252761254c93612452565b9060206125338461245d565b83019310612554575b6125459061245d565b01906124eb565b388080612516565b91506125458192905061253c565b1c90565b906125779060001990600802612562565b191690565b8161258691612566565b906002021790565b906125988161240e565b9060018060401b038211612658576125ba826125b48554612428565b8561250b565b602090601f83116001146125ef579180916125de936000926125e3575b505061257c565b90555b565b909150015138806125d7565b601f198316916125fe85612452565b9260005b81811061264057509160029391856001969410612626575b505050020190556125e1565b612636910151601f841690612566565b905538808061261a565b91936020600181928787015181550195019201612602565b610069565b906126679161258e565b565b6126739051610177565b90565b60081b90565b9061268a62ffff0091612676565b9181191691161790565b6126a86126a36126ad92610177565b610040565b610177565b90565b90565b906126c86126c36126cf92612694565b6126b0565b825461267c565b9055565b60181b90565b906126e964ffff000000916126d3565b9181191691161790565b9061270861270361270f92612694565b6126b0565b82546126d9565b9055565b61271d90516122f7565b90565b60281b90565b9061273765ff000000000091612720565b9181191691161790565b61274a906122f7565b90565b90565b9061276561276061276c92612741565b61274d565b8254612726565b9055565b61277a9051612311565b90565b9061278a600019916123af565b9181191691161790565b906127a96127a46127b092612491565b6124ad565b825461277d565b9055565b9061287760e0600461287d946127d9600082016127d3600088016123a2565b906123ea565b6127f2600182016127ec6020880161240a565b9061265d565b61280b600282016128056040880161240a565b9061265d565b6128246003820161281e606088016123a2565b906123ea565b61283d6003820161283760808801612669565b906126b3565b6128566003820161285060a08801612669565b906126f3565b61286f6003820161286960c08801612713565b90612750565b019201612770565b90612794565b565b91906128905761288e916127b4565b565b61238c565b90815491680100000000000000008310156128c557826128bd9160016128c395018155612363565b9061287f565b565b610069565b9493909392919260006128dc906122a2565b959493929190916000936000956128f16122a5565b976000890190612900916122b3565b602088019061290e916122c1565b604087019061291c916122c1565b606086019061292a916122b3565b6080850190612938916122c4565b60a0840190612946916122c4565b60c083019061295491612303565b61295d90612314565b60e082019061296b91612330565b61297491612895565b56fe60806040526004361015610013575b610b23565b61001e60003561006d565b806359c3309e146100685780635ae99f6514610063578063d30a32e31461005e578063e10b406c146100595763eb607db10361000e57610aee565b6108d1565b610463565b6102bb565b6100e8565b60e01c90565b60405190565b600080fd5b600080fd5b600080fd5b60018060a01b031690565b61009c90610088565b90565b6100a881610093565b036100af57565b600080fd5b905035906100c18261009f565b565b906020828203126100dd576100da916000016100b4565b90565b61007e565b60000190565b34610116576101006100fb3660046100c3565b611167565b610108610073565b80610112816100e2565b0390f35b610079565b600080fd5b600080fd5b601f801991011690565b634e487b7160e01b600052604160045260246000fd5b9061014f90610125565b810190811067ffffffffffffffff82111761016957604052565b61012f565b9061018161017a610073565b9283610145565b565b67ffffffffffffffff81116101a15761019d602091610125565b0190565b61012f565b90826000939282370152565b909291926101c76101c282610183565b61016e565b938185526020850190828401116101e3576101e1926101a6565b565b610120565b9080601f8301121561020657816020610203933591016101b2565b90565b61011b565b60ff1690565b61021a8161020b565b0361022157565b600080fd5b9050359061023382610211565b565b90565b61024181610235565b0361024857565b600080fd5b9050359061025a82610238565b565b6080818303126102b65761027382600083016100b4565b92602082013567ffffffffffffffff81116102b157610297846102ae9285016101e8565b936102a58160408601610226565b9360600161024d565b90565b610083565b61007e565b346102ed576102d76102ce36600461025c565b92919091611461565b6102df610073565b806102e9816100e2565b0390f35b610079565b67ffffffffffffffff811161030a5760208091020190565b61012f565b600080fd5b600080fd5b600080fd5b91909160608184031261038557610335606061016e565b9260008201359167ffffffffffffffff83116103805761035a826103799483016101e8565b600086015261036c8260208301610226565b602086015260400161024d565b6040830152565b610319565b610314565b92919061039e610399826102f2565b61016e565b93818552602080860192028101918383116103f55781905b8382106103c4575050505050565b813567ffffffffffffffff81116103f0576020916103e5878493870161031e565b8152019101906103b6565b61011b565b61030f565b9080601f83011215610418578160206104159335910161038a565b90565b61011b565b91909160408184031261045e5761043783600083016100b4565b92602082013567ffffffffffffffff81116104595761045692016103fa565b90565b610083565b61007e565b346104925761047c61047636600461041d565b90611854565b610484610073565b8061048e816100e2565b0390f35b610079565b906020828203126104b1576104ae9160000161024d565b90565b61007e565b634e487b7160e01b600052603260045260246000fd5b5490565b600052602060002090565b6104e4816104cc565b8210156104ff576104f66005916104d0565b91020190600090565b6104b6565b60001c90565b60ff1690565b61051c61052191610504565b61050a565b90565b61052e9054610510565b90565b634e487b7160e01b600052602260045260246000fd5b9060016002830492168015610567575b602083101461056257565b610531565b91607f1691610557565b60209181520190565b600052602060002090565b90600092918054906105a061059983610547565b8094610571565b916001811690816000146105f957506001146105bc575b505050565b6105c9919293945061057a565b916000925b8184106105e157505001903880806105b7565b600181602092959395548486015201910192906105ce565b92949550505060ff19168252151560200201903880806105b7565b9061061e91610585565b90565b9061064161063a92610631610073565b93848092610614565b0383610145565b565b60081c90565b61ffff1690565b61065c61066191610643565b610649565b90565b61066e9054610650565b90565b60181c90565b61068361068891610671565b610649565b90565b6106959054610677565b90565b60281c90565b60ff1690565b6106b06106b591610698565b61069e565b90565b6106c290546106a4565b90565b90565b6106d46106d991610504565b6106c5565b90565b6106e690546106c8565b90565b6000906106f5826104cc565b81101561077057610705916104db565b509061071360008301610524565b9161072060018201610621565b9161072d60028301610621565b9161073a60038201610524565b9161074760038301610664565b916107546003820161068b565b9161076d6004610766600385016106b8565b93016106dc565b90565b600080fd5b61077e9061020b565b9052565b5190565b60209181520190565b60005b8381106107a3575050906000910152565b806020918301518185015201610792565b6107d36107dc6020936107e1936107ca81610782565b93848093610786565b9586910161078f565b610125565b0190565b61ffff1690565b6107f5906107e5565b9052565b634e487b7160e01b600052602160045260246000fd5b6002111561081957565b6107f9565b906108288261080f565b565b6108339061081e565b90565b61083f9061082a565b9052565b61084c90610235565b9052565b939897956108b460e0966108aa61089f6108c8976108918a6108cf9e996108836108be9a60006101008501940190610775565b8c60208184039101526107b4565b908a820360408c01526107b4565b9c6060890190610775565b60808701906107ec565b60a08501906107ec565b60c0830190610836565b0190610843565b565b3461090b576109076108ec6108e7366004610497565b6106e9565b946108fe989698949194939293610073565b98899889610850565b0390f35b610079565b5190565b60209181520190565b60200190565b61092c9061020b565b9052565b61094f61095860209361095d9361094681610782565b93848093610571565b9586910161078f565b610125565b0190565b61096a906107e5565b9052565b6109779061082a565b9052565b61098490610235565b9052565b90610a249060e0806109d16109bf61010085016109ad60008901516000880190610923565b60208801518682036020880152610930565b60408701518582036040870152610930565b946109e460608201516060860190610923565b6109f660808201516080860190610961565b610a0860a082015160a0860190610961565b610a1a60c082015160c086019061096e565b015191019061097b565b90565b90610a3191610988565b90565b60200190565b90610a4e610a4783610910565b8092610914565b9081610a5f6020830284019461091d565b926000915b838310610a7357505050505090565b90919293946020610a95610a8f83856001950387528951610a27565b97610a34565b9301930191939290610a64565b610ad2916020610ac16040830160008501518482036000860152610a3a565b920151906020818403910152610a3a565b90565b610aeb9160208201916000818403910152610aa2565b90565b34610b1e57610b1a610b09610b043660046100c3565b611e11565b610b11610073565b91829182610ad5565b0390f35b610079565b600080fd5b90565b90565b610b42610b3d610b4792610b28565b610b2b565b610088565b90565b610b5390610b2e565b90565b60007f496e76616c696420616464726573730000000000000000000000000000000000910152565b610b8b600f602092610786565b610b9481610b56565b0190565b610bae9060208101906000818303910152610b7e565b90565b15610bb857565b610bc0610073565b62461bcd60e51b815280610bd660048201610b98565b0390fd5b610bee610be9610bf392610b28565b610b2b565b610235565b90565b6001610c029101610235565b90565b610c19610c14610c1e92610088565b610b2b565b610088565b90565b610c2a90610c05565b90565b610c3690610c21565b90565b90610c4390610c2d565b600052602052604060002090565b90565b600052602060002090565b5490565b610c6c81610c5f565b821015610c8757610c7e600591610c54565b91020190600090565b6104b6565b634e487b7160e01b600052600060045260246000fd5b60001b90565b90610cb460ff91610ca2565b9181191691161790565b610cd2610ccd610cd79261020b565b610b2b565b61020b565b90565b90565b90610cf2610ced610cf992610cbe565b610cda565b8254610ca8565b9055565b610d079054610547565b90565b601f602091010490565b1b90565b91906008610d34910291610d2e60001984610d14565b92610d14565b9181191691161790565b610d52610d4d610d5792610235565b610b2b565b610235565b90565b90565b9190610d73610d6e610d7b93610d3e565b610d5a565b908354610d18565b9055565b600090565b610d9691610d90610d7f565b91610d5d565b565b5b818110610da4575050565b80610db26000600193610d84565b01610d99565b9190601f8111610dc8575b505050565b610dd4610df99361057a565b906020610de084610d0a565b83019310610e01575b610df290610d0a565b0190610d98565b388080610dc3565b9150610df281929050610de9565b1c90565b90610e249060001990600802610e0f565b191690565b81610e3391610e13565b906002021790565b90808214610f1d57610e4c81610cfd565b9067ffffffffffffffff8211610f1857610e7082610e6a8554610547565b85610db8565b600090601f8311600114610ea557918091610e9493600092610e99575b5050610e29565b90555b565b90915001543880610e8d565b90610eb4601f1984169261057a565b90610ebe8561057a565b9260005b818110610f0057509160029391856001969410610ee6575b50505002019055610e97565b610ef6910154601f841690610e13565b9055388080610eda565b91936001806020928787015481550195019201610ec2565b61012f565b5050565b90610f2b91610e3b565b565b60081b90565b90610f4162ffff0091610f2d565b9181191691161790565b610f5f610f5a610f64926107e5565b610b2b565b6107e5565b90565b90565b90610f7f610f7a610f8692610f4b565b610f67565b8254610f33565b9055565b60181b90565b90610fa064ffff00000091610f8a565b9181191691161790565b90610fbf610fba610fc692610f4b565b610f67565b8254610f90565b9055565b60281b90565b90610fe165ff000000000091610fca565b9181191691161790565b610ff49061081e565b90565b90565b9061100f61100a61101692610feb565b610ff7565b8254610fd0565b9055565b9061102760001991610ca2565b9181191691161790565b9061104661104161104d92610d3e565b610d5a565b825461101a565b9055565b9080820361105e575b5050565b61110f600480846110816000611115970161107b60008801610524565b90610cdd565b611092600182016001870190610f21565b6110a3600282016002870190610f21565b6110bc600382016110b660038801610524565b90610cdd565b6110d5600382016110cf60038801610664565b90610f6a565b6110ee600382016110e86003880161068b565b90610faa565b61110760038201611101600388016106b8565b90610ffa565b0192016106dc565b90611031565b388061105a565b919061112d5761112b91611051565b565b610c8c565b9081549168010000000000000000831015611162578261115a91600161116095018155610c63565b9061111c565b565b61012f565b9061118e8261118761118161117c6000610b4a565b610093565b91610093565b1415610bb1565b6111986000610bda565b5b806111b56111af6111aa60006104cc565b610235565b91610235565b10156111f3576111ee906111e96111d66111d160018790610c39565b610c51565b6111e2600084906104db565b5090611132565b610bf6565b611199565b509050565b61120c61120761121192610b28565b610b2b565b61020b565b90565b60007f496e76616c696420636861707465720000000000000000000000000000000000910152565b611249600f602092610786565b61125281611214565b0190565b61126c906020810190600081830391015261123c565b90565b1561127657565b61127e610073565b62461bcd60e51b81528061129460048201611256565b0390fd5b905090565b90600092918054906112b86112b183610547565b8094611298565b9160018116908160001461130c57506001146112d4575b505050565b6112e1919293945061057a565b6000905b8382106112f857505001903880806112cf565b6001816020925484860152019101906112e5565b92949550505060ff191682528015150201903880806112cf565b61132f9161129d565b90565b60200190565b5190565b6113616113589260209261134f81610782565b94858093611298565b9384910161078f565b0190565b61136e9161133c565b90565b90565b6040906113a16113966113a895979694606084019084820360008601526107b4565b966020830190610775565b0190610843565b565b634e487b7160e01b600052601160045260246000fd5b6113c990610235565b60001981146113d85760010190565b6113aa565b60007f56616363696e65206e6f7420666f756e6420666f7220746865206368696c6400910152565b611412601f602092610786565b61141b816113dd565b0190565b6114359060208101906000818303910152611405565b90565b1561143f57565b611447610073565b62461bcd60e51b81528061145d6004820161141f565b0390fd5b92909161148a8461148361147d6114786000610b4a565b610093565b91610093565b1415610bb1565b6114a7816114a161149b60006111f8565b9161020b565b1161126f565b6114bb6114b660018690610c39565b610c51565b926114c66000610bda565b926114d16000610bda565b5b806114ed6114e76114e289610c5f565b610235565b91610235565b10156116645761151c61152b6001611506898590610c63565b5001611510610073565b92839160208301611326565b60208201810382520382610145565b61153d61153782611338565b91611332565b2061158c61158661155f61156e87611553610073565b92839160208301611365565b60208201810382520382610145565b61158061157a82611338565b91611332565b20611371565b91611371565b1480611634575b6115a6575b6115a190610bf6565b6114d2565b9361162c6115a1916115c7600160036115c08b8b90610c63565b5001610ffa565b6115df8460046115d88b8b90610c63565b5001611031565b8885908786926116246116127fb989ef158c19df23eed94cb1e47cc7a53040177a25f72b3087ea5a5dfc67a9d694610c2d565b9461161b610073565b93849384611374565b0390a26113c0565b949050611598565b5061164c6003611645888490610c63565b5001610524565b61165e6116588661020b565b9161020b565b14611593565b505050509050611688915061168261167c6000610bda565b91610235565b11611438565b565b60007f496e76616c6964206368696c6420616464726573730000000000000000000000910152565b6116bf6015602092610786565b6116c88161168a565b0190565b6116e290602081019060008183039101526116b2565b90565b156116ec57565b6116f4610073565b62461bcd60e51b81528061170a600482016116cc565b0390fd5b5190565b60007f56616363696e6174696f6e732072657175697265640000000000000000000000910152565b6117476015602092610786565b61175081611712565b0190565b61176a906020810190600081830391015261173a565b90565b1561177457565b61177c610073565b62461bcd60e51b81528061179260048201611754565b0390fd5b906117a08261170e565b8110156117b1576020809102010190565b6104b6565b6117c0905161020b565b90565b6117cd9051610235565b90565b60007f4e6f2076616363696e6174696f6e732075706461746564000000000000000000910152565b6118056017602092610786565b61180e816117d0565b0190565b61182890602081019060008183039101526117f8565b90565b1561183257565b61183a610073565b62461bcd60e51b81528061185060048201611812565b0390fd5b91909161187d8161187661187061186b6000610b4a565b610093565b91610093565b14156116e5565b6118a26118898461170e565b61189c6118966000610bda565b91610235565b1161176d565b6118b66118b160018390610c39565b610c51565b6118c06000610bda565b906118cb6000610bda565b945b856118e86118e26118dd8461170e565b610235565b91610235565b1015611b58576118f9818790611796565b519461192361190a602088016117b6565b61191d61191760006111f8565b9161020b565b1161126f565b61192d6000610bda565b5b8061194961194361193e87610c5f565b610235565b91610235565b1015611b42576119786119876001611962878590610c63565b500161196c610073565b92839160208301611326565b60208201810382520382610145565b61199961199382611338565b91611332565b206119ec6119e66119bf6119ce60008c01516119b3610073565b92839160208301611365565b60208201810382520382610145565b6119e06119da82611338565b91611332565b20611371565b91611371565b1480611b06575b80611ad5575b611a0c575b611a0790610bf6565b61192e565b93611acd611a0791611a2d60016003611a26898b90610c63565b5001610ffa565b611a50611a3c60408b016117c3565b6004611a49898b90610c63565b5001611031565b8760008a015190611a6e6003611a678a8c90610c63565b5001610524565b611a856004611a7e8b8d90610c63565b50016106dc565b92611ac5611ab37fb989ef158c19df23eed94cb1e47cc7a53040177a25f72b3087ea5a5dfc67a9d694610c2d565b94611abc610073565b93849384611374565b0390a26113c0565b9490506119fe565b50611aed6003611ae6868490610c63565b50016106b8565b611b00611afa600061081e565b9161081e565b146119f9565b50611b1e6003611b17868490610c63565b5001610524565b611b3b611b35611b3060208b016117b6565b61020b565b9161020b565b11156119f3565b5095611b5091929550610bf6565b9493906118cd565b50509050611b7b919250611b75611b6f6000610bda565b91610235565b1161182b565b565b611b87604061016e565b90565b606090565b611b97611b7d565b9060208083611ba4611b8a565b815201611baf611b8a565b81525050565b611bbd611b8f565b90565b67ffffffffffffffff8111611bd85760208091020190565b61012f565b90611bef611bea83611bc0565b61016e565b918252565b611bff61010061016e565b90565b600090565b606090565b600090565b600090565b600090565b611c23611bf4565b9060208080808080808089611c36611c02565b815201611c41611c07565b815201611c4c611c07565b815201611c57611c02565b815201611c62611c0c565b815201611c6d611c0c565b815201611c78611c11565b815201611c83611c16565b81525050565b611c91611c1b565b90565b60005b828110611ca357505050565b602090611cae611c89565b8184015201611c97565b90611cdd611cc583611bdd565b92602080611cd38693611bc0565b9201910390611c94565b565b90611ce982610910565b811015611cfa576020809102010190565b6104b6565b90611d099061020b565b9052565b52565b90611d1a906107e5565b9052565b90611d289061081e565b9052565b90611d3690610235565b9052565b90611e03611dfa6004611d4b611bf4565b94611d64611d5b60008301610524565b60008801611cff565b611d7c611d7360018301610621565b60208801611d0d565b611d94611d8b60028301610621565b60408801611d0d565b611dac611da360038301610524565b60608801611cff565b611dc4611dbb60038301610664565b60808801611d10565b611ddc611dd36003830161068b565b60a08801611d10565b611df4611deb600383016106b8565b60c08801611d1e565b016106dc565b60e08401611d2c565b565b611e0e90611d3a565b90565b611e4e611e5391611e20611bb5565b50611e4781611e40611e3a611e356000610b4a565b610093565b91610093565b1415610bb1565b6001610c39565b610c51565b611e5d6000610bda565b611e676000610bda565b90611e726000610bda565b905b81611e8f611e89611e8487610c5f565b610235565b91610235565b1015611f2f57611eac6003611ea5868590610c63565b50016106b8565b611ebf611eb9600161081e565b9161081e565b14600014611ee057611ed3611eda916113c0565b915b610bf6565b90611e74565b90611ef86003611ef1868490610c63565b50016106b8565b611f0b611f05600061081e565b9161081e565b14611f1a575b611eda90611ed5565b91611f27611eda916113c0565b929050611f11565b91611f509150611f46611f40611bb5565b93611cb8565b6000840152611cb8565b6020820152611f5f6000610bda565b611f696000610bda565b92611f746000610bda565b915b82611f91611f8b611f8685610c5f565b610235565b91610235565b101561209157611fae6003611fa7848690610c63565b50016106b8565b611fc1611fbb600161081e565b9161081e565b146000146120125761200561200c91611ffe611fde858790610c63565b506000880151611fee8492611e05565b611ff88383611cdf565b52611cdf565b51506113c0565b925b610bf6565b91611f76565b9161202a6003612023848490610c63565b50016106b8565b61203d612037600061081e565b9161081e565b1461204c575b61200c90612007565b9361208961200c91612082612062858990610c63565b5060208801516120728492611e05565b61207c8383611cdf565b52611cdf565b51506113c0565b949050612043565b50505090509056fea2646970667358221220115d11e7b72dcc639529f2585755335f2651339a0b1361665205c1fc74c1f5f764736f6c634300081b0033","opcodes":"PUSH1 0x80 PUSH1 0x40 MSTORE CALLVALUE PUSH2 0x27 JUMPI PUSH2 0x11 PUSH2 0x12DF JUMP JUMPDEST PUSH2 0x19 PUSH2 0x2C JUMP JUMPDEST PUSH2 0x20CF PUSH2 0x2977 DUP3 CODECOPY PUSH2 0x20CF SWAP1 RETURN JUMPDEST PUSH2 0x32 JUMP JUMPDEST PUSH1 0x40 MLOAD SWAP1 JUMP JUMPDEST PUSH1 0x0 DUP1 REVERT JUMPDEST SWAP1 JUMP JUMPDEST PUSH1 0xFF AND SWAP1 JUMP JUMPDEST SWAP1 JUMP JUMPDEST PUSH2 0x57 PUSH2 0x52 PUSH2 0x5C SWAP3 PUSH2 0x37 JUMP JUMPDEST PUSH2 0x40 JUMP JUMPDEST PUSH2 0x3A JUMP JUMPDEST SWAP1 JUMP JUMPDEST PUSH1 0x1F DUP1 NOT SWAP2 ADD AND SWAP1 JUMP JUMPDEST PUSH4 0x4E487B71 PUSH1 0xE0 SHL PUSH1 0x0 MSTORE PUSH1 0x41 PUSH1 0x4 MSTORE PUSH1 0x24 PUSH1 0x0 REVERT JUMPDEST SWAP1 PUSH2 0x89 SWAP1 PUSH2 0x5F JUMP JUMPDEST DUP2 ADD SWAP1 DUP2 LT PUSH1 0x1 DUP1 PUSH1 0x40 SHL SUB DUP3 GT OR PUSH2 0xA1 JUMPI PUSH1 0x40 MSTORE JUMP JUMPDEST PUSH2 0x69 JUMP JUMPDEST SWAP1 PUSH2 0xB9 PUSH2 0xB2 PUSH2 0x2C JUMP JUMPDEST SWAP3 DUP4 PUSH2 0x7F JUMP JUMPDEST JUMP JUMPDEST PUSH1 0x1 DUP1 PUSH1 0x40 SHL SUB DUP2 GT PUSH2 0xD7 JUMPI PUSH2 0xD3 PUSH1 0x20 SWAP2 PUSH2 0x5F JUMP JUMPDEST ADD SWAP1 JUMP JUMPDEST PUSH2 0x69 JUMP JUMPDEST SWAP1 PUSH2 0xEE PUSH2 0xE9 DUP4 PUSH2 0xBB JUMP JUMPDEST PUSH2 0xA6 JUMP JUMPDEST SWAP2 DUP3 MSTORE JUMP JUMPDEST PUSH1 0x0 PUSH32 0x4243470000000000000000000000000000000000000000000000000000000000 SWAP2 ADD MSTORE JUMP JUMPDEST PUSH2 0x125 PUSH1 0x3 PUSH2 0xDC JUMP JUMPDEST SWAP1 PUSH2 0x132 PUSH1 0x20 DUP4 ADD PUSH2 0xF3 JUMP JUMPDEST JUMP JUMPDEST PUSH2 0x13C PUSH2 0x11B JUMP JUMPDEST SWAP1 JUMP JUMPDEST PUSH1 0x0 PUSH6 0xEAB2B0ED95B5 PUSH1 0xD0 SHL SWAP2 ADD MSTORE JUMP JUMPDEST PUSH2 0x15A PUSH1 0x6 PUSH2 0xDC JUMP JUMPDEST SWAP1 PUSH2 0x167 PUSH1 0x20 DUP4 ADD PUSH2 0x13F JUMP JUMPDEST JUMP JUMPDEST PUSH2 0x171 PUSH2 0x150 JUMP JUMPDEST SWAP1 JUMP JUMPDEST SWAP1 JUMP JUMPDEST PUSH2 0xFFFF AND SWAP1 JUMP JUMPDEST PUSH2 0x192 PUSH2 0x18D PUSH2 0x197 SWAP3 PUSH2 0x174 JUMP JUMPDEST PUSH2 0x40 JUMP JUMPDEST PUSH2 0x177 JUMP JUMPDEST SWAP1 JUMP JUMPDEST SWAP1 JUMP JUMPDEST PUSH2 0x1B1 PUSH2 0x1AC PUSH2 0x1B6 SWAP3 PUSH2 0x19A JUMP JUMPDEST PUSH2 0x40 JUMP JUMPDEST PUSH2 0x177 JUMP JUMPDEST SWAP1 JUMP JUMPDEST SWAP1 JUMP JUMPDEST PUSH2 0x1D0 PUSH2 0x1CB PUSH2 0x1D5 SWAP3 PUSH2 0x1B9 JUMP JUMPDEST PUSH2 0x40 JUMP JUMPDEST PUSH2 0x3A JUMP JUMPDEST SWAP1 JUMP JUMPDEST PUSH1 0x0 PUSH32 0x4865704200000000000000000000000000000000000000000000000000000000 SWAP2 ADD MSTORE JUMP JUMPDEST PUSH2 0x20A PUSH1 0x4 PUSH2 0xDC JUMP JUMPDEST SWAP1 PUSH2 0x217 PUSH1 0x20 DUP4 ADD PUSH2 0x1D8 JUMP JUMPDEST JUMP JUMPDEST PUSH2 0x221 PUSH2 0x200 JUMP JUMPDEST SWAP1 JUMP JUMPDEST PUSH1 0x0 PUSH10 0x10BB66257AAC213B25EF PUSH1 0xB2 SHL SWAP2 ADD MSTORE JUMP JUMPDEST PUSH2 0x243 PUSH1 0xA PUSH2 0xDC JUMP JUMPDEST SWAP1 PUSH2 0x250 PUSH1 0x20 DUP4 ADD PUSH2 0x224 JUMP JUMPDEST JUMP JUMPDEST PUSH2 0x25A PUSH2 0x239 JUMP JUMPDEST SWAP1 JUMP JUMPDEST SWAP1 JUMP JUMPDEST PUSH2 0x274 PUSH2 0x26F PUSH2 0x279 SWAP3 PUSH2 0x25D JUMP JUMPDEST PUSH2 0x40 JUMP JUMPDEST PUSH2 0x3A JUMP JUMPDEST SWAP1 JUMP JUMPDEST SWAP1 JUMP JUMPDEST PUSH2 0x293 PUSH2 0x28E PUSH2 0x298 SWAP3 PUSH2 0x27C JUMP JUMPDEST PUSH2 0x40 JUMP JUMPDEST PUSH2 0x177 JUMP JUMPDEST SWAP1 JUMP JUMPDEST SWAP1 JUMP JUMPDEST PUSH2 0x2B2 PUSH2 0x2AD PUSH2 0x2B7 SWAP3 PUSH2 0x29B JUMP JUMPDEST PUSH2 0x40 JUMP JUMPDEST PUSH2 0x177 JUMP JUMPDEST SWAP1 JUMP JUMPDEST SWAP1 JUMP JUMPDEST PUSH2 0x2D1 PUSH2 0x2CC PUSH2 0x2D6 SWAP3 PUSH2 0x2BA JUMP JUMPDEST PUSH2 0x40 JUMP JUMPDEST PUSH2 0x3A JUMP JUMPDEST SWAP1 JUMP JUMPDEST PUSH1 0x0 PUSH32 0x4454617000000000000000000000000000000000000000000000000000000000 SWAP2 ADD MSTORE JUMP JUMPDEST PUSH2 0x30B PUSH1 0x4 PUSH2 0xDC JUMP JUMPDEST SWAP1 PUSH2 0x318 PUSH1 0x20 DUP4 ADD PUSH2 0x2D9 JUMP JUMPDEST JUMP JUMPDEST PUSH2 0x322 PUSH2 0x301 JUMP JUMPDEST SWAP1 JUMP JUMPDEST PUSH1 0x0 PUSH15 0x3AE5253B65213B61633AE9AB3B2561 PUSH1 0x8A SHL SWAP2 ADD MSTORE JUMP JUMPDEST PUSH2 0x349 PUSH1 0xF PUSH2 0xDC JUMP JUMPDEST SWAP1 PUSH2 0x356 PUSH1 0x20 DUP4 ADD PUSH2 0x325 JUMP JUMPDEST JUMP JUMPDEST PUSH2 0x360 PUSH2 0x33F JUMP JUMPDEST SWAP1 JUMP JUMPDEST SWAP1 JUMP JUMPDEST PUSH2 0x37A PUSH2 0x375 PUSH2 0x37F SWAP3 PUSH2 0x363 JUMP JUMPDEST PUSH2 0x40 JUMP JUMPDEST PUSH2 0x177 JUMP JUMPDEST SWAP1 JUMP JUMPDEST SWAP1 JUMP JUMPDEST PUSH2 0x399 PUSH2 0x394 PUSH2 0x39E SWAP3 PUSH2 0x382 JUMP JUMPDEST PUSH2 0x40 JUMP JUMPDEST PUSH2 0x177 JUMP JUMPDEST SWAP1 JUMP JUMPDEST SWAP1 JUMP JUMPDEST PUSH2 0x3B8 PUSH2 0x3B3 PUSH2 0x3BD SWAP3 PUSH2 0x3A1 JUMP JUMPDEST PUSH2 0x40 JUMP JUMPDEST PUSH2 0x3A JUMP JUMPDEST SWAP1 JUMP JUMPDEST PUSH1 0x0 PUSH9 0xED8C8CEC8381ED928D PUSH1 0xB8 SHL SWAP2 ADD MSTORE JUMP JUMPDEST PUSH2 0x3DE PUSH1 0x9 PUSH2 0xDC JUMP JUMPDEST SWAP1 PUSH2 0x3EB PUSH1 0x20 DUP4 ADD PUSH2 0x3C0 JUMP JUMPDEST JUMP JUMPDEST PUSH2 0x3F5 PUSH2 0x3D4 JUMP JUMPDEST SWAP1 JUMP JUMPDEST SWAP1 JUMP JUMPDEST PUSH2 0x40F PUSH2 0x40A PUSH2 0x414 SWAP3 PUSH2 0x3F8 JUMP JUMPDEST PUSH2 0x40 JUMP JUMPDEST PUSH2 0x3A JUMP JUMPDEST SWAP1 JUMP JUMPDEST PUSH1 0x0 PUSH9 0x3AEC2C7B276F3B656D PUSH1 0xBA SHL SWAP2 ADD MSTORE JUMP JUMPDEST PUSH2 0x435 PUSH1 0x9 PUSH2 0xDC JUMP JUMPDEST SWAP1 PUSH2 0x442 PUSH1 0x20 DUP4 ADD PUSH2 0x417 JUMP JUMPDEST JUMP JUMPDEST PUSH2 0x44C PUSH2 0x42B JUMP JUMPDEST SWAP1 JUMP JUMPDEST SWAP1 JUMP JUMPDEST PUSH2 0x466 PUSH2 0x461 PUSH2 0x46B SWAP3 PUSH2 0x44F JUMP JUMPDEST PUSH2 0x40 JUMP JUMPDEST PUSH2 0x3A JUMP JUMPDEST SWAP1 JUMP JUMPDEST PUSH1 0x0 PUSH32 0x4950560000000000000000000000000000000000000000000000000000000000 SWAP2 ADD MSTORE JUMP JUMPDEST PUSH2 0x4A0 PUSH1 0x3 PUSH2 0xDC JUMP JUMPDEST SWAP1 PUSH2 0x4AD PUSH1 0x20 DUP4 ADD PUSH2 0x46E JUMP JUMPDEST JUMP JUMPDEST PUSH2 0x4B7 PUSH2 0x496 JUMP JUMPDEST SWAP1 JUMP JUMPDEST PUSH1 0x0 PUSH9 0x3B63ED3AE9AB3B2629 PUSH1 0xBA SHL SWAP2 ADD MSTORE JUMP JUMPDEST PUSH2 0x4D8 PUSH1 0x9 PUSH2 0xDC JUMP JUMPDEST SWAP1 PUSH2 0x4E5 PUSH1 0x20 DUP4 ADD PUSH2 0x4BA JUMP JUMPDEST JUMP JUMPDEST PUSH2 0x4EF PUSH2 0x4CE JUMP JUMPDEST SWAP1 JUMP JUMPDEST SWAP1 JUMP JUMPDEST PUSH2 0x509 PUSH2 0x504 PUSH2 0x50E SWAP3 PUSH2 0x4F2 JUMP JUMPDEST PUSH2 0x40 JUMP JUMPDEST PUSH2 0x3A JUMP JUMPDEST SWAP1 JUMP JUMPDEST PUSH1 0x0 PUSH32 0x4869620000000000000000000000000000000000000000000000000000000000 SWAP2 ADD MSTORE JUMP JUMPDEST PUSH2 0x543 PUSH1 0x3 PUSH2 0xDC JUMP JUMPDEST SWAP1 PUSH2 0x550 PUSH1 0x20 DUP4 ADD PUSH2 0x511 JUMP JUMPDEST JUMP JUMPDEST PUSH2 0x55A PUSH2 0x539 JUMP JUMPDEST SWAP1 JUMP JUMPDEST PUSH32 0x62ED9895ED97A4EBAAA8ED9584EBA3A8EC8AA4EC9DB8ED948CEBA3A8EC9794EC PUSH1 0x0 DUP3 ADD MSTORE PUSH1 0x20 PUSH2 0x9E9 PUSH1 0xF4 SHL SWAP2 ADD MSTORE JUMP JUMPDEST PUSH2 0x59A PUSH1 0x22 PUSH2 0xDC JUMP JUMPDEST SWAP1 PUSH2 0x5A7 PUSH1 0x20 DUP4 ADD PUSH2 0x55D JUMP JUMPDEST JUMP JUMPDEST PUSH2 0x5B1 PUSH2 0x590 JUMP JUMPDEST SWAP1 JUMP JUMPDEST SWAP1 JUMP JUMPDEST PUSH2 0x5CB PUSH2 0x5C6 PUSH2 0x5D0 SWAP3 PUSH2 0x5B4 JUMP JUMPDEST PUSH2 0x40 JUMP JUMPDEST PUSH2 0x3A JUMP JUMPDEST SWAP1 JUMP JUMPDEST PUSH1 0x0 PUSH32 0x5043560000000000000000000000000000000000000000000000000000000000 SWAP2 ADD MSTORE JUMP JUMPDEST PUSH2 0x605 PUSH1 0x3 PUSH2 0xDC JUMP JUMPDEST SWAP1 PUSH2 0x612 PUSH1 0x20 DUP4 ADD PUSH2 0x5D3 JUMP JUMPDEST JUMP JUMPDEST PUSH2 0x61C PUSH2 0x5FB JUMP JUMPDEST SWAP1 JUMP JUMPDEST PUSH1 0x0 PUSH12 0x76C7C875D05A755AD6755BD PUSH1 0xA5 SHL SWAP2 ADD MSTORE JUMP JUMPDEST PUSH2 0x640 PUSH1 0xC PUSH2 0xDC JUMP JUMPDEST SWAP1 PUSH2 0x64D PUSH1 0x20 DUP4 ADD PUSH2 0x61F JUMP JUMPDEST JUMP JUMPDEST PUSH2 0x657 PUSH2 0x636 JUMP JUMPDEST SWAP1 JUMP JUMPDEST SWAP1 JUMP JUMPDEST PUSH2 0x671 PUSH2 0x66C PUSH2 0x676 SWAP3 PUSH2 0x65A JUMP JUMPDEST PUSH2 0x40 JUMP JUMPDEST PUSH2 0x3A JUMP JUMPDEST SWAP1 JUMP JUMPDEST PUSH1 0x0 PUSH32 0x5256310000000000000000000000000000000000000000000000000000000000 SWAP2 ADD MSTORE JUMP JUMPDEST PUSH2 0x6AB PUSH1 0x3 PUSH2 0xDC JUMP JUMPDEST SWAP1 PUSH2 0x6B8 PUSH1 0x20 DUP4 ADD PUSH2 0x679 JUMP JUMPDEST JUMP JUMPDEST PUSH2 0x6C2 PUSH2 0x6A1 JUMP JUMPDEST SWAP1 JUMP JUMPDEST PUSH1 0x0 PUSH32 0xEBA19CED8380EBB094EC9DB4EB9FACEC8AA420EAB090EC97BCECA69D00000000 SWAP2 ADD MSTORE JUMP JUMPDEST PUSH2 0x6F7 PUSH1 0x1C PUSH2 0xDC JUMP JUMPDEST SWAP1 PUSH2 0x704 PUSH1 0x20 DUP4 ADD PUSH2 0x6C5 JUMP JUMPDEST JUMP JUMPDEST PUSH2 0x70E PUSH2 0x6ED JUMP JUMPDEST SWAP1 JUMP JUMPDEST SWAP1 JUMP JUMPDEST PUSH2 0x728 PUSH2 0x723 PUSH2 0x72D SWAP3 PUSH2 0x711 JUMP JUMPDEST PUSH2 0x40 JUMP JUMPDEST PUSH2 0x3A JUMP JUMPDEST SWAP1 JUMP JUMPDEST PUSH1 0x0 PUSH32 0x5256350000000000000000000000000000000000000000000000000000000000 SWAP2 ADD MSTORE JUMP JUMPDEST PUSH2 0x762 PUSH1 0x3 PUSH2 0xDC JUMP JUMPDEST SWAP1 PUSH2 0x76F PUSH1 0x20 DUP4 ADD PUSH2 0x730 JUMP JUMPDEST JUMP JUMPDEST PUSH2 0x779 PUSH2 0x758 JUMP JUMPDEST SWAP1 JUMP JUMPDEST SWAP1 JUMP JUMPDEST PUSH2 0x793 PUSH2 0x78E PUSH2 0x798 SWAP3 PUSH2 0x77C JUMP JUMPDEST PUSH2 0x40 JUMP JUMPDEST PUSH2 0x3A JUMP JUMPDEST SWAP1 JUMP JUMPDEST SWAP1 JUMP JUMPDEST PUSH2 0x7B2 PUSH2 0x7AD PUSH2 0x7B7 SWAP3 PUSH2 0x79B JUMP JUMPDEST PUSH2 0x40 JUMP JUMPDEST PUSH2 0x177 JUMP JUMPDEST SWAP1 JUMP JUMPDEST SWAP1 JUMP JUMPDEST PUSH2 0x7D1 PUSH2 0x7CC PUSH2 0x7D6 SWAP3 PUSH2 0x7BA JUMP JUMPDEST PUSH2 0x40 JUMP JUMPDEST PUSH2 0x177 JUMP JUMPDEST SWAP1 JUMP JUMPDEST SWAP1 JUMP JUMPDEST PUSH2 0x7F0 PUSH2 0x7EB PUSH2 0x7F5 SWAP3 PUSH2 0x7D9 JUMP JUMPDEST PUSH2 0x40 JUMP JUMPDEST PUSH2 0x3A JUMP JUMPDEST SWAP1 JUMP JUMPDEST SWAP1 JUMP JUMPDEST PUSH2 0x80F PUSH2 0x80A PUSH2 0x814 SWAP3 PUSH2 0x7F8 JUMP JUMPDEST PUSH2 0x40 JUMP JUMPDEST PUSH2 0x3A JUMP JUMPDEST SWAP1 JUMP JUMPDEST SWAP1 JUMP JUMPDEST PUSH2 0x82E PUSH2 0x829 PUSH2 0x833 SWAP3 PUSH2 0x817 JUMP JUMPDEST PUSH2 0x40 JUMP JUMPDEST PUSH2 0x3A JUMP JUMPDEST SWAP1 JUMP JUMPDEST SWAP1 JUMP JUMPDEST PUSH2 0x84D PUSH2 0x848 PUSH2 0x852 SWAP3 PUSH2 0x836 JUMP JUMPDEST PUSH2 0x40 JUMP JUMPDEST PUSH2 0x3A JUMP JUMPDEST SWAP1 JUMP JUMPDEST SWAP1 JUMP JUMPDEST PUSH2 0x86C PUSH2 0x867 PUSH2 0x871 SWAP3 PUSH2 0x855 JUMP JUMPDEST PUSH2 0x40 JUMP JUMPDEST PUSH2 0x3A JUMP JUMPDEST SWAP1 JUMP JUMPDEST SWAP1 JUMP JUMPDEST PUSH2 0x88B PUSH2 0x886 PUSH2 0x890 SWAP3 PUSH2 0x874 JUMP JUMPDEST PUSH2 0x40 JUMP JUMPDEST PUSH2 0x3A JUMP JUMPDEST SWAP1 JUMP JUMPDEST SWAP1 JUMP JUMPDEST PUSH2 0x8AA PUSH2 0x8A5 PUSH2 0x8AF SWAP3 PUSH2 0x893 JUMP JUMPDEST PUSH2 0x40 JUMP JUMPDEST PUSH2 0x3A JUMP JUMPDEST SWAP1 JUMP JUMPDEST SWAP1 JUMP JUMPDEST PUSH2 0x8C9 PUSH2 0x8C4 PUSH2 0x8CE SWAP3 PUSH2 0x8B2 JUMP JUMPDEST PUSH2 0x40 JUMP JUMPDEST PUSH2 0x3A JUMP JUMPDEST SWAP1 JUMP JUMPDEST SWAP1 JUMP JUMPDEST PUSH2 0x8E8 PUSH2 0x8E3 PUSH2 0x8ED SWAP3 PUSH2 0x8D1 JUMP JUMPDEST PUSH2 0x40 JUMP JUMPDEST PUSH2 0x177 JUMP JUMPDEST SWAP1 JUMP JUMPDEST SWAP1 JUMP JUMPDEST PUSH2 0x907 PUSH2 0x902 PUSH2 0x90C SWAP3 PUSH2 0x8F0 JUMP JUMPDEST PUSH2 0x40 JUMP JUMPDEST PUSH2 0x177 JUMP JUMPDEST SWAP1 JUMP JUMPDEST SWAP1 JUMP JUMPDEST PUSH2 0x926 PUSH2 0x921 PUSH2 0x92B SWAP3 PUSH2 0x90F JUMP JUMPDEST PUSH2 0x40 JUMP JUMPDEST PUSH2 0x3A JUMP JUMPDEST SWAP1 JUMP JUMPDEST SWAP1 JUMP JUMPDEST PUSH2 0x945 PUSH2 0x940 PUSH2 0x94A SWAP3 PUSH2 0x92E JUMP JUMPDEST PUSH2 0x40 JUMP JUMPDEST PUSH2 0x3A JUMP JUMPDEST SWAP1 JUMP JUMPDEST SWAP1 JUMP JUMPDEST PUSH2 0x964 PUSH2 0x95F PUSH2 0x969 SWAP3 PUSH2 0x94D JUMP JUMPDEST PUSH2 0x40 JUMP JUMPDEST PUSH2 0x3A JUMP JUMPDEST SWAP1 JUMP JUMPDEST SWAP1 JUMP JUMPDEST PUSH2 0x983 PUSH2 0x97E PUSH2 0x988 SWAP3 PUSH2 0x96C JUMP JUMPDEST PUSH2 0x40 JUMP JUMPDEST PUSH2 0x3A JUMP JUMPDEST SWAP1 JUMP JUMPDEST SWAP1 JUMP JUMPDEST PUSH2 0x9A2 PUSH2 0x99D PUSH2 0x9A7 SWAP3 PUSH2 0x98B JUMP JUMPDEST PUSH2 0x40 JUMP JUMPDEST PUSH2 0x3A JUMP JUMPDEST SWAP1 JUMP JUMPDEST SWAP1 JUMP JUMPDEST PUSH2 0x9C1 PUSH2 0x9BC PUSH2 0x9C6 SWAP3 PUSH2 0x9AA JUMP JUMPDEST PUSH2 0x40 JUMP JUMPDEST PUSH2 0x3A JUMP JUMPDEST SWAP1 JUMP JUMPDEST SWAP1 JUMP JUMPDEST PUSH2 0x9E0 PUSH2 0x9DB PUSH2 0x9E5 SWAP3 PUSH2 0x9C9 JUMP JUMPDEST PUSH2 0x40 JUMP JUMPDEST PUSH2 0x3A JUMP JUMPDEST SWAP1 JUMP JUMPDEST SWAP1 JUMP JUMPDEST PUSH2 0x9FF PUSH2 0x9FA PUSH2 0xA04 SWAP3 PUSH2 0x9E8 JUMP JUMPDEST PUSH2 0x40 JUMP JUMPDEST PUSH2 0x177 JUMP JUMPDEST SWAP1 JUMP JUMPDEST SWAP1 JUMP JUMPDEST PUSH2 0xA1E PUSH2 0xA19 PUSH2 0xA23 SWAP3 PUSH2 0xA07 JUMP JUMPDEST PUSH2 0x40 JUMP JUMPDEST PUSH2 0x3A JUMP JUMPDEST SWAP1 JUMP JUMPDEST SWAP1 JUMP JUMPDEST PUSH2 0xA3D PUSH2 0xA38 PUSH2 0xA42 SWAP3 PUSH2 0xA26 JUMP JUMPDEST PUSH2 0x40 JUMP JUMPDEST PUSH2 0x177 JUMP JUMPDEST SWAP1 JUMP JUMPDEST SWAP1 JUMP JUMPDEST PUSH2 0xA5C PUSH2 0xA57 PUSH2 0xA61 SWAP3 PUSH2 0xA45 JUMP JUMPDEST PUSH2 0x40 JUMP JUMPDEST PUSH2 0x177 JUMP JUMPDEST SWAP1 JUMP JUMPDEST SWAP1 JUMP JUMPDEST PUSH2 0xA7B PUSH2 0xA76 PUSH2 0xA80 SWAP3 PUSH2 0xA64 JUMP JUMPDEST PUSH2 0x40 JUMP JUMPDEST PUSH2 0x3A JUMP JUMPDEST SWAP1 JUMP JUMPDEST PUSH2 0xA97 PUSH2 0xA92 PUSH2 0xA9C SWAP3 PUSH2 0x19A JUMP JUMPDEST PUSH2 0x40 JUMP JUMPDEST PUSH2 0x3A JUMP JUMPDEST SWAP1 JUMP JUMPDEST PUSH1 0x0 PUSH32 0x4D4D520000000000000000000000000000000000000000000000000000000000 SWAP2 ADD MSTORE JUMP JUMPDEST PUSH2 0xAD1 PUSH1 0x3 PUSH2 0xDC JUMP JUMPDEST SWAP1 PUSH2 0xADE PUSH1 0x20 DUP4 ADD PUSH2 0xA9F JUMP JUMPDEST JUMP JUMPDEST PUSH2 0xAE8 PUSH2 0xAC7 JUMP JUMPDEST SWAP1 JUMP JUMPDEST PUSH1 0x0 PUSH6 0xED998DEC97AD PUSH1 0xD0 SHL SWAP2 ADD MSTORE JUMP JUMPDEST PUSH2 0xB06 PUSH1 0x6 PUSH2 0xDC JUMP JUMPDEST SWAP1 PUSH2 0xB13 PUSH1 0x20 DUP4 ADD PUSH2 0xAEB JUMP JUMPDEST JUMP JUMPDEST PUSH2 0xB1D PUSH2 0xAFC JUMP JUMPDEST SWAP1 JUMP JUMPDEST PUSH2 0xB34 PUSH2 0xB2F PUSH2 0xB39 SWAP3 PUSH2 0x27C JUMP JUMPDEST PUSH2 0x40 JUMP JUMPDEST PUSH2 0x3A JUMP JUMPDEST SWAP1 JUMP JUMPDEST PUSH1 0x0 PUSH32 0xEC9CA0ED9689EC84B1EC9DB4ED9598EC84A0EC97BC0000000000000000000000 SWAP2 ADD MSTORE JUMP JUMPDEST PUSH2 0xB6E PUSH1 0x15 PUSH2 0xDC JUMP JUMPDEST SWAP1 PUSH2 0xB7B PUSH1 0x20 DUP4 ADD PUSH2 0xB3C JUMP JUMPDEST JUMP JUMPDEST PUSH2 0xB85 PUSH2 0xB64 JUMP JUMPDEST SWAP1 JUMP JUMPDEST SWAP1 JUMP JUMPDEST PUSH2 0xB9F PUSH2 0xB9A PUSH2 0xBA4 SWAP3 PUSH2 0xB88 JUMP JUMPDEST PUSH2 0x40 JUMP JUMPDEST PUSH2 0x3A JUMP JUMPDEST SWAP1 JUMP JUMPDEST PUSH1 0x0 PUSH6 0x3B64A37B29E1 PUSH1 0xD2 SHL SWAP2 ADD MSTORE JUMP JUMPDEST PUSH2 0xBC2 PUSH1 0x6 PUSH2 0xDC JUMP JUMPDEST SWAP1 PUSH2 0xBCF PUSH1 0x20 DUP4 ADD PUSH2 0xBA7 JUMP JUMPDEST JUMP JUMPDEST PUSH2 0xBD9 PUSH2 0xBB8 JUMP JUMPDEST SWAP1 JUMP JUMPDEST SWAP1 JUMP JUMPDEST PUSH2 0xBF3 PUSH2 0xBEE PUSH2 0xBF8 SWAP3 PUSH2 0xBDC JUMP JUMPDEST PUSH2 0x40 JUMP JUMPDEST PUSH2 0x3A JUMP JUMPDEST SWAP1 JUMP JUMPDEST PUSH1 0x0 PUSH32 0x4865704100000000000000000000000000000000000000000000000000000000 SWAP2 ADD MSTORE JUMP JUMPDEST PUSH2 0xC2D PUSH1 0x4 PUSH2 0xDC JUMP JUMPDEST SWAP1 PUSH2 0xC3A PUSH1 0x20 DUP4 ADD PUSH2 0xBFB JUMP JUMPDEST JUMP JUMPDEST PUSH2 0xC44 PUSH2 0xC23 JUMP JUMPDEST SWAP1 JUMP JUMPDEST PUSH1 0x0 PUSH10 0x107B66257AAC213B25EF PUSH1 0xB2 SHL SWAP2 ADD MSTORE JUMP JUMPDEST PUSH2 0xC66 PUSH1 0xA PUSH2 0xDC JUMP JUMPDEST SWAP1 PUSH2 0xC73 PUSH1 0x20 DUP4 ADD PUSH2 0xC47 JUMP JUMPDEST JUMP JUMPDEST PUSH2 0xC7D PUSH2 0xC5C JUMP JUMPDEST SWAP1 JUMP JUMPDEST SWAP1 JUMP JUMPDEST PUSH2 0xC97 PUSH2 0xC92 PUSH2 0xC9C SWAP3 PUSH2 0xC80 JUMP JUMPDEST PUSH2 0x40 JUMP JUMPDEST PUSH2 0x3A JUMP JUMPDEST SWAP1 JUMP JUMPDEST PUSH1 0x0 PUSH32 0x494A455600000000000000000000000000000000000000000000000000000000 SWAP2 ADD MSTORE JUMP JUMPDEST PUSH2 0xCD1 PUSH1 0x4 PUSH2 0xDC JUMP JUMPDEST SWAP1 PUSH2 0xCDE PUSH1 0x20 DUP4 ADD PUSH2 0xC9F JUMP JUMPDEST JUMP JUMPDEST PUSH2 0xCE8 PUSH2 0xCC7 JUMP JUMPDEST SWAP1 JUMP JUMPDEST PUSH1 0x0 PUSH12 0x3B276F3AECEE3AE1E33B25EF PUSH1 0xA2 SHL SWAP2 ADD MSTORE JUMP JUMPDEST PUSH2 0xD0C PUSH1 0xC PUSH2 0xDC JUMP JUMPDEST SWAP1 PUSH2 0xD19 PUSH1 0x20 DUP4 ADD PUSH2 0xCEB JUMP JUMPDEST JUMP JUMPDEST PUSH2 0xD23 PUSH2 0xD02 JUMP JUMPDEST SWAP1 JUMP JUMPDEST SWAP1 JUMP JUMPDEST PUSH2 0xD3D PUSH2 0xD38 PUSH2 0xD42 SWAP3 PUSH2 0xD26 JUMP JUMPDEST PUSH2 0x40 JUMP JUMPDEST PUSH2 0x3A JUMP JUMPDEST SWAP1 JUMP JUMPDEST PUSH1 0x0 PUSH32 0x4C4A455600000000000000000000000000000000000000000000000000000000 SWAP2 ADD MSTORE JUMP JUMPDEST PUSH2 0xD77 PUSH1 0x4 PUSH2 0xDC JUMP JUMPDEST SWAP1 PUSH2 0xD84 PUSH1 0x20 DUP4 ADD PUSH2 0xD45 JUMP JUMPDEST JUMP JUMPDEST PUSH2 0xD8E PUSH2 0xD6D JUMP JUMPDEST SWAP1 JUMP JUMPDEST SWAP1 JUMP JUMPDEST PUSH2 0xDA8 PUSH2 0xDA3 PUSH2 0xDAD SWAP3 PUSH2 0xD91 JUMP JUMPDEST PUSH2 0x40 JUMP JUMPDEST PUSH2 0x177 JUMP JUMPDEST SWAP1 JUMP JUMPDEST SWAP1 JUMP JUMPDEST PUSH2 0xDC7 PUSH2 0xDC2 PUSH2 0xDCC SWAP3 PUSH2 0xDB0 JUMP JUMPDEST PUSH2 0x40 JUMP JUMPDEST PUSH2 0x3A JUMP JUMPDEST SWAP1 JUMP JUMPDEST SWAP1 JUMP JUMPDEST PUSH2 0xDE6 PUSH2 0xDE1 PUSH2 0xDEB SWAP3 PUSH2 0xDCF JUMP JUMPDEST PUSH2 0x40 JUMP JUMPDEST PUSH2 0x177 JUMP JUMPDEST SWAP1 JUMP JUMPDEST SWAP1 JUMP JUMPDEST PUSH2 0xE05 PUSH2 0xE00 PUSH2 0xE0A SWAP3 PUSH2 0xDEE JUMP JUMPDEST PUSH2 0x40 JUMP JUMPDEST PUSH2 0x3A JUMP JUMPDEST SWAP1 JUMP JUMPDEST SWAP1 JUMP JUMPDEST PUSH2 0xE24 PUSH2 0xE1F PUSH2 0xE29 SWAP3 PUSH2 0xE0D JUMP JUMPDEST PUSH2 0x40 JUMP JUMPDEST PUSH2 0x3A JUMP JUMPDEST SWAP1 JUMP JUMPDEST SWAP1 JUMP JUMPDEST PUSH2 0xE43 PUSH2 0xE3E PUSH2 0xE48 SWAP3 PUSH2 0xE2C JUMP JUMPDEST PUSH2 0x40 JUMP JUMPDEST PUSH2 0x3A JUMP JUMPDEST SWAP1 JUMP JUMPDEST SWAP1 JUMP JUMPDEST PUSH2 0xE62 PUSH2 0xE5D PUSH2 0xE67 SWAP3 PUSH2 0xE4B JUMP JUMPDEST PUSH2 0x40 JUMP JUMPDEST PUSH2 0x177 JUMP JUMPDEST SWAP1 JUMP JUMPDEST SWAP1 JUMP JUMPDEST PUSH2 0xE81 PUSH2 0xE7C PUSH2 0xE86 SWAP3 PUSH2 0xE6A JUMP JUMPDEST PUSH2 0x40 JUMP JUMPDEST PUSH2 0x3A JUMP JUMPDEST SWAP1 JUMP JUMPDEST SWAP1 JUMP JUMPDEST PUSH2 0xEA0 PUSH2 0xE9B PUSH2 0xEA5 SWAP3 PUSH2 0xE89 JUMP JUMPDEST PUSH2 0x40 JUMP JUMPDEST PUSH2 0x3A JUMP JUMPDEST SWAP1 JUMP JUMPDEST SWAP1 JUMP JUMPDEST PUSH2 0xEBF PUSH2 0xEBA PUSH2 0xEC4 SWAP3 PUSH2 0xEA8 JUMP JUMPDEST PUSH2 0x40 JUMP JUMPDEST PUSH2 0x177 JUMP JUMPDEST SWAP1 JUMP JUMPDEST SWAP1 JUMP JUMPDEST PUSH2 0xEDE PUSH2 0xED9 PUSH2 0xEE3 SWAP3 PUSH2 0xEC7 JUMP JUMPDEST PUSH2 0x40 JUMP JUMPDEST PUSH2 0x177 JUMP JUMPDEST SWAP1 JUMP JUMPDEST SWAP1 JUMP JUMPDEST PUSH2 0xEFD PUSH2 0xEF8 PUSH2 0xF02 SWAP3 PUSH2 0xEE6 JUMP JUMPDEST PUSH2 0x40 JUMP JUMPDEST PUSH2 0x3A JUMP JUMPDEST SWAP1 JUMP JUMPDEST SWAP1 JUMP JUMPDEST PUSH2 0xF1C PUSH2 0xF17 PUSH2 0xF21 SWAP3 PUSH2 0xF05 JUMP JUMPDEST PUSH2 0x40 JUMP JUMPDEST PUSH2 0x3A JUMP JUMPDEST SWAP1 JUMP JUMPDEST SWAP1 JUMP JUMPDEST PUSH2 0xF3B PUSH2 0xF36 PUSH2 0xF40 SWAP3 PUSH2 0xF24 JUMP JUMPDEST PUSH2 0x40 JUMP JUMPDEST PUSH2 0x177 JUMP JUMPDEST SWAP1 JUMP JUMPDEST SWAP1 JUMP JUMPDEST PUSH2 0xF5A PUSH2 0xF55 PUSH2 0xF5F SWAP3 PUSH2 0xF43 JUMP JUMPDEST PUSH2 0x40 JUMP JUMPDEST PUSH2 0x177 JUMP JUMPDEST SWAP1 JUMP JUMPDEST SWAP1 JUMP JUMPDEST PUSH2 0xF79 PUSH2 0xF74 PUSH2 0xF7E SWAP3 PUSH2 0xF62 JUMP JUMPDEST PUSH2 0x40 JUMP JUMPDEST PUSH2 0x3A JUMP JUMPDEST SWAP1 JUMP JUMPDEST SWAP1 JUMP JUMPDEST PUSH2 0xF98 PUSH2 0xF93 PUSH2 0xF9D SWAP3 PUSH2 0xF81 JUMP JUMPDEST PUSH2 0x40 JUMP JUMPDEST PUSH2 0x3A JUMP JUMPDEST SWAP1 JUMP JUMPDEST SWAP1 JUMP JUMPDEST PUSH2 0xFB7 PUSH2 0xFB2 PUSH2 0xFBC SWAP3 PUSH2 0xFA0 JUMP JUMPDEST PUSH2 0x40 JUMP JUMPDEST PUSH2 0x3A JUMP JUMPDEST SWAP1 JUMP JUMPDEST SWAP1 JUMP JUMPDEST PUSH2 0xFD6 PUSH2 0xFD1 PUSH2 0xFDB SWAP3 PUSH2 0xFBF JUMP JUMPDEST PUSH2 0x40 JUMP JUMPDEST PUSH2 0x3A JUMP JUMPDEST SWAP1 JUMP JUMPDEST SWAP1 JUMP JUMPDEST PUSH2 0xFF5 PUSH2 0xFF0 PUSH2 0xFFA SWAP3 PUSH2 0xFDE JUMP JUMPDEST PUSH2 0x40 JUMP JUMPDEST PUSH2 0x3A JUMP JUMPDEST SWAP1 JUMP JUMPDEST PUSH1 0x0 PUSH32 0xEC9CA0ED9895EC84B1EC9DB4ED9598EC84A0EC97BC0000000000000000000000 SWAP2 ADD MSTORE JUMP JUMPDEST PUSH2 0x102F PUSH1 0x15 PUSH2 0xDC JUMP JUMPDEST SWAP1 PUSH2 0x103C PUSH1 0x20 DUP4 ADD PUSH2 0xFFD JUMP JUMPDEST JUMP JUMPDEST PUSH2 0x1046 PUSH2 0x1025 JUMP JUMPDEST SWAP1 JUMP JUMPDEST SWAP1 JUMP JUMPDEST PUSH2 0x1060 PUSH2 0x105B PUSH2 0x1065 SWAP3 PUSH2 0x1049 JUMP JUMPDEST PUSH2 0x40 JUMP JUMPDEST PUSH2 0x3A JUMP JUMPDEST SWAP1 JUMP JUMPDEST SWAP1 JUMP JUMPDEST PUSH2 0x107F PUSH2 0x107A PUSH2 0x1084 SWAP3 PUSH2 0x1068 JUMP JUMPDEST PUSH2 0x40 JUMP JUMPDEST PUSH2 0x3A JUMP JUMPDEST SWAP1 JUMP JUMPDEST SWAP1 JUMP JUMPDEST PUSH2 0x109E PUSH2 0x1099 PUSH2 0x10A3 SWAP3 PUSH2 0x1087 JUMP JUMPDEST PUSH2 0x40 JUMP JUMPDEST PUSH2 0x177 JUMP JUMPDEST SWAP1 JUMP JUMPDEST SWAP1 JUMP JUMPDEST PUSH2 0x10BD PUSH2 0x10B8 PUSH2 0x10C2 SWAP3 PUSH2 0x10A6 JUMP JUMPDEST PUSH2 0x40 JUMP JUMPDEST PUSH2 0x3A JUMP JUMPDEST SWAP1 JUMP JUMPDEST PUSH1 0x0 PUSH32 0x5464617000000000000000000000000000000000000000000000000000000000 SWAP2 ADD MSTORE JUMP JUMPDEST PUSH2 0x10F7 PUSH1 0x4 PUSH2 0xDC JUMP JUMPDEST SWAP1 PUSH2 0x1104 PUSH1 0x20 DUP4 ADD PUSH2 0x10C5 JUMP JUMPDEST JUMP JUMPDEST PUSH2 0x110E PUSH2 0x10ED JUMP JUMPDEST SWAP1 JUMP JUMPDEST SWAP1 JUMP JUMPDEST PUSH2 0x1128 PUSH2 0x1123 PUSH2 0x112D SWAP3 PUSH2 0x1111 JUMP JUMPDEST PUSH2 0x40 JUMP JUMPDEST PUSH2 0x177 JUMP JUMPDEST SWAP1 JUMP JUMPDEST SWAP1 JUMP JUMPDEST PUSH2 0x1147 PUSH2 0x1142 PUSH2 0x114C SWAP3 PUSH2 0x1130 JUMP JUMPDEST PUSH2 0x40 JUMP JUMPDEST PUSH2 0x177 JUMP JUMPDEST SWAP1 JUMP JUMPDEST SWAP1 JUMP JUMPDEST PUSH2 0x1166 PUSH2 0x1161 PUSH2 0x116B SWAP3 PUSH2 0x114F JUMP JUMPDEST PUSH2 0x40 JUMP JUMPDEST PUSH2 0x3A JUMP JUMPDEST SWAP1 JUMP JUMPDEST SWAP1 JUMP JUMPDEST PUSH2 0x1185 PUSH2 0x1180 PUSH2 0x118A SWAP3 PUSH2 0x116E JUMP JUMPDEST PUSH2 0x40 JUMP JUMPDEST PUSH2 0x3A JUMP JUMPDEST SWAP1 JUMP JUMPDEST SWAP1 JUMP JUMPDEST PUSH2 0x11A4 PUSH2 0x119F PUSH2 0x11A9 SWAP3 PUSH2 0x118D JUMP JUMPDEST PUSH2 0x40 JUMP JUMPDEST PUSH2 0x3A JUMP JUMPDEST SWAP1 JUMP JUMPDEST SWAP1 JUMP JUMPDEST PUSH2 0x11C3 PUSH2 0x11BE PUSH2 0x11C8 SWAP3 PUSH2 0x11AC JUMP JUMPDEST PUSH2 0x40 JUMP JUMPDEST PUSH2 0x177 JUMP JUMPDEST SWAP1 JUMP JUMPDEST SWAP1 JUMP JUMPDEST PUSH2 0x11E2 PUSH2 0x11DD PUSH2 0x11E7 SWAP3 PUSH2 0x11CB JUMP JUMPDEST PUSH2 0x40 JUMP JUMPDEST PUSH2 0x3A JUMP JUMPDEST SWAP1 JUMP JUMPDEST PUSH1 0x0 PUSH32 0x4850560000000000000000000000000000000000000000000000000000000000 SWAP2 ADD MSTORE JUMP JUMPDEST PUSH2 0x121C PUSH1 0x3 PUSH2 0xDC JUMP JUMPDEST SWAP1 PUSH2 0x1229 PUSH1 0x20 DUP4 ADD PUSH2 0x11EA JUMP JUMPDEST JUMP JUMPDEST PUSH2 0x1233 PUSH2 0x1212 JUMP JUMPDEST SWAP1 JUMP JUMPDEST PUSH1 0x0 PUSH32 0xEC82ACEB9E8CEC9CA0EB9190ECA285EBB094EC9DB4EB9FACEC8AA40000000000 SWAP2 ADD MSTORE JUMP JUMPDEST PUSH2 0x1268 PUSH1 0x1B PUSH2 0xDC JUMP JUMPDEST SWAP1 PUSH2 0x1275 PUSH1 0x20 DUP4 ADD PUSH2 0x1236 JUMP JUMPDEST JUMP JUMPDEST PUSH2 0x127F PUSH2 0x125E JUMP JUMPDEST SWAP1 JUMP JUMPDEST SWAP1 JUMP JUMPDEST PUSH2 0x1299 PUSH2 0x1294 PUSH2 0x129E SWAP3 PUSH2 0x1282 JUMP JUMPDEST PUSH2 0x40 JUMP JUMPDEST PUSH2 0x177 JUMP JUMPDEST SWAP1 JUMP JUMPDEST SWAP1 JUMP JUMPDEST PUSH2 0x12B8 PUSH2 0x12B3 PUSH2 0x12BD SWAP3 PUSH2 0x12A1 JUMP JUMPDEST PUSH2 0x40 JUMP JUMPDEST PUSH2 0x3A JUMP JUMPDEST SWAP1 JUMP JUMPDEST SWAP1 JUMP JUMPDEST PUSH2 0x12D7 PUSH2 0x12D2 PUSH2 0x12DC SWAP3 PUSH2 0x12C0 JUMP JUMPDEST PUSH2 0x40 JUMP JUMPDEST PUSH2 0x177 JUMP JUMPDEST SWAP1 JUMP JUMPDEST PUSH2 0x1324 PUSH1 0x1 DUP1 PUSH1 0x0 PUSH2 0x12F2 PUSH1 0x1E SWAP3 PUSH2 0x43 JUMP JUMPDEST SWAP3 PUSH2 0x12FB PUSH2 0x134 JUMP JUMPDEST PUSH2 0x131E PUSH2 0x1318 PUSH2 0x1312 PUSH2 0x130C PUSH2 0x169 JUMP JUMPDEST SWAP5 PUSH2 0x43 JUMP JUMPDEST SWAP5 PUSH2 0x17E JUMP JUMPDEST SWAP5 PUSH2 0x19D JUMP JUMPDEST SWAP5 PUSH2 0x28CA JUMP JUMPDEST PUSH2 0x136B PUSH1 0x2 PUSH1 0x1 SWAP1 PUSH1 0x0 PUSH2 0x1339 PUSH1 0x1E SWAP3 PUSH2 0x1BC JUMP JUMPDEST SWAP3 PUSH2 0x1342 PUSH2 0x219 JUMP JUMPDEST PUSH2 0x1365 PUSH2 0x135F PUSH2 0x1359 PUSH2 0x1353 PUSH2 0x252 JUMP JUMPDEST SWAP5 PUSH2 0x43 JUMP JUMPDEST SWAP5 PUSH2 0x17E JUMP JUMPDEST SWAP5 PUSH2 0x19D JUMP JUMPDEST SWAP5 PUSH2 0x28CA JUMP JUMPDEST PUSH2 0x13B2 PUSH1 0x3 PUSH1 0x2 SWAP1 PUSH1 0x1F PUSH2 0x1380 PUSH1 0x3C SWAP3 PUSH2 0x260 JUMP JUMPDEST SWAP3 PUSH2 0x1389 PUSH2 0x219 JUMP JUMPDEST PUSH2 0x13AC PUSH2 0x13A6 PUSH2 0x13A0 PUSH2 0x139A PUSH2 0x252 JUMP JUMPDEST SWAP5 PUSH2 0x1BC JUMP JUMPDEST SWAP5 PUSH2 0x27F JUMP JUMPDEST SWAP5 PUSH2 0x29E JUMP JUMPDEST SWAP5 PUSH2 0x28CA JUMP JUMPDEST PUSH2 0x13F9 PUSH1 0x4 PUSH1 0x1 SWAP1 PUSH1 0x3D PUSH2 0x13C7 PUSH1 0x5A SWAP3 PUSH2 0x2BD JUMP JUMPDEST SWAP3 PUSH2 0x13D0 PUSH2 0x31A JUMP JUMPDEST PUSH2 0x13F3 PUSH2 0x13ED PUSH2 0x13E7 PUSH2 0x13E1 PUSH2 0x358 JUMP JUMPDEST SWAP5 PUSH2 0x43 JUMP JUMPDEST SWAP5 PUSH2 0x366 JUMP JUMPDEST SWAP5 PUSH2 0x385 JUMP JUMPDEST SWAP5 PUSH2 0x28CA JUMP JUMPDEST PUSH2 0x1440 PUSH1 0x5 PUSH1 0x1 SWAP1 PUSH1 0x3D PUSH2 0x140E PUSH1 0x5A SWAP3 PUSH2 0x3A4 JUMP JUMPDEST SWAP3 PUSH2 0x1417 PUSH2 0x31A JUMP JUMPDEST PUSH2 0x143A PUSH2 0x1434 PUSH2 0x142E PUSH2 0x1428 PUSH2 0x3ED JUMP JUMPDEST SWAP5 PUSH2 0x43 JUMP JUMPDEST SWAP5 PUSH2 0x366 JUMP JUMPDEST SWAP5 PUSH2 0x385 JUMP JUMPDEST SWAP5 PUSH2 0x28CA JUMP JUMPDEST PUSH2 0x1487 PUSH1 0x6 PUSH1 0x1 SWAP1 PUSH1 0x3D PUSH2 0x1455 PUSH1 0x5A SWAP3 PUSH2 0x3FB JUMP JUMPDEST SWAP3 PUSH2 0x145E PUSH2 0x31A JUMP JUMPDEST PUSH2 0x1481 PUSH2 0x147B PUSH2 0x1475 PUSH2 0x146F PUSH2 0x444 JUMP JUMPDEST SWAP5 PUSH2 0x43 JUMP JUMPDEST SWAP5 PUSH2 0x366 JUMP JUMPDEST SWAP5 PUSH2 0x385 JUMP JUMPDEST SWAP5 PUSH2 0x28CA JUMP JUMPDEST PUSH2 0x14CE PUSH1 0x7 PUSH1 0x1 SWAP1 PUSH1 0x3D PUSH2 0x149C PUSH1 0x5A SWAP3 PUSH2 0x452 JUMP JUMPDEST SWAP3 PUSH2 0x14A5 PUSH2 0x4AF JUMP JUMPDEST PUSH2 0x14C8 PUSH2 0x14C2 PUSH2 0x14BC PUSH2 0x14B6 PUSH2 0x4E7 JUMP JUMPDEST SWAP5 PUSH2 0x43 JUMP JUMPDEST SWAP5 PUSH2 0x366 JUMP JUMPDEST SWAP5 PUSH2 0x385 JUMP JUMPDEST SWAP5 PUSH2 0x28CA JUMP JUMPDEST PUSH2 0x1515 PUSH1 0x8 PUSH1 0x1 SWAP1 PUSH1 0x3D PUSH2 0x14E3 PUSH1 0x5A SWAP3 PUSH2 0x4F5 JUMP JUMPDEST SWAP3 PUSH2 0x14EC PUSH2 0x552 JUMP JUMPDEST PUSH2 0x150F PUSH2 0x1509 PUSH2 0x1503 PUSH2 0x14FD PUSH2 0x5A9 JUMP JUMPDEST SWAP5 PUSH2 0x43 JUMP JUMPDEST SWAP5 PUSH2 0x366 JUMP JUMPDEST SWAP5 PUSH2 0x385 JUMP JUMPDEST SWAP5 PUSH2 0x28CA JUMP JUMPDEST PUSH2 0x155C PUSH1 0x9 PUSH1 0x1 SWAP1 PUSH1 0x3D PUSH2 0x152A PUSH1 0x5A SWAP3 PUSH2 0x5B7 JUMP JUMPDEST SWAP3 PUSH2 0x1533 PUSH2 0x614 JUMP JUMPDEST PUSH2 0x1556 PUSH2 0x1550 PUSH2 0x154A PUSH2 0x1544 PUSH2 0x64F JUMP JUMPDEST SWAP5 PUSH2 0x43 JUMP JUMPDEST SWAP5 PUSH2 0x366 JUMP JUMPDEST SWAP5 PUSH2 0x385 JUMP JUMPDEST SWAP5 PUSH2 0x28CA JUMP JUMPDEST PUSH2 0x15A3 PUSH1 0xA PUSH1 0x1 SWAP1 PUSH1 0x3D PUSH2 0x1571 PUSH1 0x5A SWAP3 PUSH2 0x65D JUMP JUMPDEST SWAP3 PUSH2 0x157A PUSH2 0x6BA JUMP JUMPDEST PUSH2 0x159D PUSH2 0x1597 PUSH2 0x1591 PUSH2 0x158B PUSH2 0x706 JUMP JUMPDEST SWAP5 PUSH2 0x43 JUMP JUMPDEST SWAP5 PUSH2 0x366 JUMP JUMPDEST SWAP5 PUSH2 0x385 JUMP JUMPDEST SWAP5 PUSH2 0x28CA JUMP JUMPDEST PUSH2 0x15EA PUSH1 0xB PUSH1 0x1 SWAP1 PUSH1 0x3D PUSH2 0x15B8 PUSH1 0x5A SWAP3 PUSH2 0x714 JUMP JUMPDEST SWAP3 PUSH2 0x15C1 PUSH2 0x771 JUMP JUMPDEST PUSH2 0x15E4 PUSH2 0x15DE PUSH2 0x15D8 PUSH2 0x15D2 PUSH2 0x706 JUMP JUMPDEST SWAP5 PUSH2 0x43 JUMP JUMPDEST SWAP5 PUSH2 0x366 JUMP JUMPDEST SWAP5 PUSH2 0x385 JUMP JUMPDEST SWAP5 PUSH2 0x28CA JUMP JUMPDEST PUSH2 0x1631 PUSH1 0xC PUSH1 0x2 SWAP1 PUSH1 0x79 PUSH2 0x15FF PUSH1 0x96 SWAP3 PUSH2 0x77F JUMP JUMPDEST SWAP3 PUSH2 0x1608 PUSH2 0x31A JUMP JUMPDEST PUSH2 0x162B PUSH2 0x1625 PUSH2 0x161F PUSH2 0x1619 PUSH2 0x358 JUMP JUMPDEST SWAP5 PUSH2 0x1BC JUMP JUMPDEST SWAP5 PUSH2 0x79E JUMP JUMPDEST SWAP5 PUSH2 0x7BD JUMP JUMPDEST SWAP5 PUSH2 0x28CA JUMP JUMPDEST PUSH2 0x1678 PUSH1 0xD PUSH1 0x2 SWAP1 PUSH1 0x79 PUSH2 0x1646 PUSH1 0x96 SWAP3 PUSH2 0x7DC JUMP JUMPDEST SWAP3 PUSH2 0x164F PUSH2 0x31A JUMP JUMPDEST PUSH2 0x1672 PUSH2 0x166C PUSH2 0x1666 PUSH2 0x1660 PUSH2 0x3ED JUMP JUMPDEST SWAP5 PUSH2 0x1BC JUMP JUMPDEST SWAP5 PUSH2 0x79E JUMP JUMPDEST SWAP5 PUSH2 0x7BD JUMP JUMPDEST SWAP5 PUSH2 0x28CA JUMP JUMPDEST PUSH2 0x16BF PUSH1 0xE PUSH1 0x2 SWAP1 PUSH1 0x79 PUSH2 0x168D PUSH1 0x96 SWAP3 PUSH2 0x7FB JUMP JUMPDEST SWAP3 PUSH2 0x1696 PUSH2 0x31A JUMP JUMPDEST PUSH2 0x16B9 PUSH2 0x16B3 PUSH2 0x16AD PUSH2 0x16A7 PUSH2 0x444 JUMP JUMPDEST SWAP5 PUSH2 0x1BC JUMP JUMPDEST SWAP5 PUSH2 0x79E JUMP JUMPDEST SWAP5 PUSH2 0x7BD JUMP JUMPDEST SWAP5 PUSH2 0x28CA JUMP JUMPDEST PUSH2 0x1706 PUSH1 0xF PUSH1 0x2 SWAP1 PUSH1 0x79 PUSH2 0x16D4 PUSH1 0x96 SWAP3 PUSH2 0x81A JUMP JUMPDEST SWAP3 PUSH2 0x16DD PUSH2 0x4AF JUMP JUMPDEST PUSH2 0x1700 PUSH2 0x16FA PUSH2 0x16F4 PUSH2 0x16EE PUSH2 0x4E7 JUMP JUMPDEST SWAP5 PUSH2 0x1BC JUMP JUMPDEST SWAP5 PUSH2 0x79E JUMP JUMPDEST SWAP5 PUSH2 0x7BD JUMP JUMPDEST SWAP5 PUSH2 0x28CA JUMP JUMPDEST PUSH2 0x174D PUSH1 0x10 PUSH1 0x2 SWAP1 PUSH1 0x79 PUSH2 0x171B PUSH1 0x96 SWAP3 PUSH2 0x839 JUMP JUMPDEST SWAP3 PUSH2 0x1724 PUSH2 0x552 JUMP JUMPDEST PUSH2 0x1747 PUSH2 0x1741 PUSH2 0x173B PUSH2 0x1735 PUSH2 0x5A9 JUMP JUMPDEST SWAP5 PUSH2 0x1BC JUMP JUMPDEST SWAP5 PUSH2 0x79E JUMP JUMPDEST SWAP5 PUSH2 0x7BD JUMP JUMPDEST SWAP5 PUSH2 0x28CA JUMP JUMPDEST PUSH2 0x1794 PUSH1 0x11 PUSH1 0x2 SWAP1 PUSH1 0x79 PUSH2 0x1762 PUSH1 0x96 SWAP3 PUSH2 0x858 JUMP JUMPDEST SWAP3 PUSH2 0x176B PUSH2 0x614 JUMP JUMPDEST PUSH2 0x178E PUSH2 0x1788 PUSH2 0x1782 PUSH2 0x177C PUSH2 0x64F JUMP JUMPDEST SWAP5 PUSH2 0x1BC JUMP JUMPDEST SWAP5 PUSH2 0x79E JUMP JUMPDEST SWAP5 PUSH2 0x7BD JUMP JUMPDEST SWAP5 PUSH2 0x28CA JUMP JUMPDEST PUSH2 0x17DB PUSH1 0x12 PUSH1 0x2 SWAP1 PUSH1 0x79 PUSH2 0x17A9 PUSH1 0x96 SWAP3 PUSH2 0x877 JUMP JUMPDEST SWAP3 PUSH2 0x17B2 PUSH2 0x6BA JUMP JUMPDEST PUSH2 0x17D5 PUSH2 0x17CF PUSH2 0x17C9 PUSH2 0x17C3 PUSH2 0x706 JUMP JUMPDEST SWAP5 PUSH2 0x1BC JUMP JUMPDEST SWAP5 PUSH2 0x79E JUMP JUMPDEST SWAP5 PUSH2 0x7BD JUMP JUMPDEST SWAP5 PUSH2 0x28CA JUMP JUMPDEST PUSH2 0x1822 PUSH1 0x13 PUSH1 0x2 SWAP1 PUSH1 0x79 PUSH2 0x17F0 PUSH1 0x96 SWAP3 PUSH2 0x896 JUMP JUMPDEST SWAP3 PUSH2 0x17F9 PUSH2 0x771 JUMP JUMPDEST PUSH2 0x181C PUSH2 0x1816 PUSH2 0x1810 PUSH2 0x180A PUSH2 0x706 JUMP JUMPDEST SWAP5 PUSH2 0x1BC JUMP JUMPDEST SWAP5 PUSH2 0x79E JUMP JUMPDEST SWAP5 PUSH2 0x7BD JUMP JUMPDEST SWAP5 PUSH2 0x28CA JUMP JUMPDEST PUSH2 0x1869 PUSH1 0x14 PUSH1 0x3 SWAP1 PUSH1 0xB5 PUSH2 0x1837 PUSH1 0xD2 SWAP3 PUSH2 0x8B5 JUMP JUMPDEST SWAP3 PUSH2 0x1840 PUSH2 0x219 JUMP JUMPDEST PUSH2 0x1863 PUSH2 0x185D PUSH2 0x1857 PUSH2 0x1851 PUSH2 0x252 JUMP JUMPDEST SWAP5 PUSH2 0x260 JUMP JUMPDEST SWAP5 PUSH2 0x8D4 JUMP JUMPDEST SWAP5 PUSH2 0x8F3 JUMP JUMPDEST SWAP5 PUSH2 0x28CA JUMP JUMPDEST PUSH2 0x18B0 PUSH1 0x15 PUSH1 0x3 SWAP1 PUSH1 0xB5 PUSH2 0x187E PUSH1 0xD2 SWAP3 PUSH2 0x912 JUMP JUMPDEST SWAP3 PUSH2 0x1887 PUSH2 0x31A JUMP JUMPDEST PUSH2 0x18AA PUSH2 0x18A4 PUSH2 0x189E PUSH2 0x1898 PUSH2 0x358 JUMP JUMPDEST SWAP5 PUSH2 0x260 JUMP JUMPDEST SWAP5 PUSH2 0x8D4 JUMP JUMPDEST SWAP5 PUSH2 0x8F3 JUMP JUMPDEST SWAP5 PUSH2 0x28CA JUMP JUMPDEST PUSH2 0x18F7 PUSH1 0x16 PUSH1 0x3 SWAP1 PUSH1 0xB5 PUSH2 0x18C5 PUSH1 0xD2 SWAP3 PUSH2 0x931 JUMP JUMPDEST SWAP3 PUSH2 0x18CE PUSH2 0x31A JUMP JUMPDEST PUSH2 0x18F1 PUSH2 0x18EB PUSH2 0x18E5 PUSH2 0x18DF PUSH2 0x3ED JUMP JUMPDEST SWAP5 PUSH2 0x260 JUMP JUMPDEST SWAP5 PUSH2 0x8D4 JUMP JUMPDEST SWAP5 PUSH2 0x8F3 JUMP JUMPDEST SWAP5 PUSH2 0x28CA JUMP JUMPDEST PUSH2 0x193E PUSH1 0x17 PUSH1 0x3 SWAP1 PUSH1 0xB5 PUSH2 0x190C PUSH1 0xD2 SWAP3 PUSH2 0x950 JUMP JUMPDEST SWAP3 PUSH2 0x1915 PUSH2 0x31A JUMP JUMPDEST PUSH2 0x1938 PUSH2 0x1932 PUSH2 0x192C PUSH2 0x1926 PUSH2 0x444 JUMP JUMPDEST SWAP5 PUSH2 0x260 JUMP JUMPDEST SWAP5 PUSH2 0x8D4 JUMP JUMPDEST SWAP5 PUSH2 0x8F3 JUMP JUMPDEST SWAP5 PUSH2 0x28CA JUMP JUMPDEST PUSH2 0x1985 PUSH1 0x18 PUSH1 0x3 SWAP1 PUSH1 0xB5 PUSH2 0x1953 PUSH1 0xD2 SWAP3 PUSH2 0x96F JUMP JUMPDEST SWAP3 PUSH2 0x195C PUSH2 0x552 JUMP JUMPDEST PUSH2 0x197F PUSH2 0x1979 PUSH2 0x1973 PUSH2 0x196D PUSH2 0x5A9 JUMP JUMPDEST SWAP5 PUSH2 0x260 JUMP JUMPDEST SWAP5 PUSH2 0x8D4 JUMP JUMPDEST SWAP5 PUSH2 0x8F3 JUMP JUMPDEST SWAP5 PUSH2 0x28CA JUMP JUMPDEST PUSH2 0x19CC PUSH1 0x19 PUSH1 0x2 SWAP1 PUSH1 0xB5 PUSH2 0x199A PUSH1 0xD2 SWAP3 PUSH2 0x98E JUMP JUMPDEST SWAP3 PUSH2 0x19A3 PUSH2 0x614 JUMP JUMPDEST PUSH2 0x19C6 PUSH2 0x19C0 PUSH2 0x19BA PUSH2 0x19B4 PUSH2 0x64F JUMP JUMPDEST SWAP5 PUSH2 0x1BC JUMP JUMPDEST SWAP5 PUSH2 0x8D4 JUMP JUMPDEST SWAP5 PUSH2 0x8F3 JUMP JUMPDEST SWAP5 PUSH2 0x28CA JUMP JUMPDEST PUSH2 0x1A13 PUSH1 0x1A PUSH1 0x3 SWAP1 PUSH1 0xB5 PUSH2 0x19E1 PUSH1 0xD2 SWAP3 PUSH2 0x9AD JUMP JUMPDEST SWAP3 PUSH2 0x19EA PUSH2 0x771 JUMP JUMPDEST PUSH2 0x1A0D PUSH2 0x1A07 PUSH2 0x1A01 PUSH2 0x19FB PUSH2 0x706 JUMP JUMPDEST SWAP5 PUSH2 0x260 JUMP JUMPDEST SWAP5 PUSH2 0x8D4 JUMP JUMPDEST SWAP5 PUSH2 0x8F3 JUMP JUMPDEST SWAP5 PUSH2 0x28CA JUMP JUMPDEST PUSH2 0x1A5B PUSH1 0x1B PUSH1 0x3 SWAP1 PUSH1 0xB5 PUSH2 0x1A29 PUSH2 0x23A SWAP3 PUSH2 0x9CC JUMP JUMPDEST SWAP3 PUSH2 0x1A32 PUSH2 0x4AF JUMP JUMPDEST PUSH2 0x1A55 PUSH2 0x1A4F PUSH2 0x1A49 PUSH2 0x1A43 PUSH2 0x4E7 JUMP JUMPDEST SWAP5 PUSH2 0x260 JUMP JUMPDEST SWAP5 PUSH2 0x8D4 JUMP JUMPDEST SWAP5 PUSH2 0x9EB JUMP JUMPDEST SWAP5 PUSH2 0x28CA JUMP JUMPDEST PUSH2 0x1AA4 PUSH1 0x1C PUSH1 0x4 SWAP1 PUSH2 0x169 PUSH2 0x1A72 PUSH2 0x1E0 SWAP3 PUSH2 0xA0A JUMP JUMPDEST SWAP3 PUSH2 0x1A7B PUSH2 0x552 JUMP JUMPDEST PUSH2 0x1A9E PUSH2 0x1A98 PUSH2 0x1A92 PUSH2 0x1A8C PUSH2 0x5A9 JUMP JUMPDEST SWAP5 PUSH2 0x2BD JUMP JUMPDEST SWAP5 PUSH2 0xA29 JUMP JUMPDEST SWAP5 PUSH2 0xA48 JUMP JUMPDEST SWAP5 PUSH2 0x28CA JUMP JUMPDEST PUSH2 0x1AED PUSH1 0x1D PUSH1 0x4 SWAP1 PUSH2 0x169 PUSH2 0x1ABB PUSH2 0x1E0 SWAP3 PUSH2 0xA67 JUMP JUMPDEST SWAP3 PUSH2 0x1AC4 PUSH2 0x614 JUMP JUMPDEST PUSH2 0x1AE7 PUSH2 0x1AE1 PUSH2 0x1ADB PUSH2 0x1AD5 PUSH2 0x64F JUMP JUMPDEST SWAP5 PUSH2 0x2BD JUMP JUMPDEST SWAP5 PUSH2 0xA29 JUMP JUMPDEST SWAP5 PUSH2 0xA48 JUMP JUMPDEST SWAP5 PUSH2 0x28CA JUMP JUMPDEST PUSH2 0x1B36 PUSH1 0x1E PUSH1 0x1 SWAP1 PUSH2 0x169 PUSH2 0x1B04 PUSH2 0x1E0 SWAP3 PUSH2 0xA83 JUMP JUMPDEST SWAP3 PUSH2 0x1B0D PUSH2 0xAE0 JUMP JUMPDEST PUSH2 0x1B30 PUSH2 0x1B2A PUSH2 0x1B24 PUSH2 0x1B1E PUSH2 0xB15 JUMP JUMPDEST SWAP5 PUSH2 0x43 JUMP JUMPDEST SWAP5 PUSH2 0xA29 JUMP JUMPDEST SWAP5 PUSH2 0xA48 JUMP JUMPDEST SWAP5 PUSH2 0x28CA JUMP JUMPDEST PUSH2 0x1B7F PUSH1 0x1F PUSH1 0x1 SWAP1 PUSH2 0x169 PUSH2 0x1B4D PUSH2 0x1E0 SWAP3 PUSH2 0xB20 JUMP JUMPDEST SWAP3 PUSH2 0x1B56 PUSH2 0xAE0 JUMP JUMPDEST PUSH2 0x1B79 PUSH2 0x1B73 PUSH2 0x1B6D PUSH2 0x1B67 PUSH2 0xB7D JUMP JUMPDEST SWAP5 PUSH2 0x43 JUMP JUMPDEST SWAP5 PUSH2 0xA29 JUMP JUMPDEST SWAP5 PUSH2 0xA48 JUMP JUMPDEST SWAP5 PUSH2 0x28CA JUMP JUMPDEST PUSH2 0x1BC8 PUSH1 0x20 PUSH1 0x1 SWAP1 PUSH2 0x169 PUSH2 0x1B96 PUSH2 0x1E0 SWAP3 PUSH2 0xB8B JUMP JUMPDEST SWAP3 PUSH2 0x1B9F PUSH2 0xAE0 JUMP JUMPDEST PUSH2 0x1BC2 PUSH2 0x1BBC PUSH2 0x1BB6 PUSH2 0x1BB0 PUSH2 0xBD1 JUMP JUMPDEST SWAP5 PUSH2 0x43 JUMP JUMPDEST SWAP5 PUSH2 0xA29 JUMP JUMPDEST SWAP5 PUSH2 0xA48 JUMP JUMPDEST SWAP5 PUSH2 0x28CA JUMP JUMPDEST PUSH2 0x1C11 PUSH1 0x21 PUSH1 0x1 SWAP1 PUSH2 0x169 PUSH2 0x1BDF PUSH2 0x1E0 SWAP3 PUSH2 0xBDF JUMP JUMPDEST SWAP3 PUSH2 0x1BE8 PUSH2 0xC3C JUMP JUMPDEST PUSH2 0x1C0B PUSH2 0x1C05 PUSH2 0x1BFF PUSH2 0x1BF9 PUSH2 0xC75 JUMP JUMPDEST SWAP5 PUSH2 0x43 JUMP JUMPDEST SWAP5 PUSH2 0xA29 JUMP JUMPDEST SWAP5 PUSH2 0xA48 JUMP JUMPDEST SWAP5 PUSH2 0x28CA JUMP JUMPDEST PUSH2 0x1C5A PUSH1 0x22 PUSH1 0x1 SWAP1 PUSH2 0x169 PUSH2 0x1C28 PUSH2 0x1E0 SWAP3 PUSH2 0xC83 JUMP JUMPDEST SWAP3 PUSH2 0x1C31 PUSH2 0xCE0 JUMP JUMPDEST PUSH2 0x1C54 PUSH2 0x1C4E PUSH2 0x1C48 PUSH2 0x1C42 PUSH2 0xD1B JUMP JUMPDEST SWAP5 PUSH2 0x43 JUMP JUMPDEST SWAP5 PUSH2 0xA29 JUMP JUMPDEST SWAP5 PUSH2 0xA48 JUMP JUMPDEST SWAP5 PUSH2 0x28CA JUMP JUMPDEST PUSH2 0x1CA3 PUSH1 0x23 PUSH1 0x1 SWAP1 PUSH2 0x169 PUSH2 0x1C71 PUSH2 0x2D0 SWAP3 PUSH2 0xD29 JUMP JUMPDEST SWAP3 PUSH2 0x1C7A PUSH2 0xD86 JUMP JUMPDEST PUSH2 0x1C9D PUSH2 0x1C97 PUSH2 0x1C91 PUSH2 0x1C8B PUSH2 0xD1B JUMP JUMPDEST SWAP5 PUSH2 0x43 JUMP JUMPDEST SWAP5 PUSH2 0xA29 JUMP JUMPDEST SWAP5 PUSH2 0xD94 JUMP JUMPDEST SWAP5 PUSH2 0x28CA JUMP JUMPDEST PUSH2 0x1CEC PUSH1 0x24 PUSH1 0x4 SWAP1 PUSH2 0x1C3 PUSH2 0x1CBA PUSH2 0x23A SWAP3 PUSH2 0xDB3 JUMP JUMPDEST SWAP3 PUSH2 0x1CC3 PUSH2 0x31A JUMP JUMPDEST PUSH2 0x1CE6 PUSH2 0x1CE0 PUSH2 0x1CDA PUSH2 0x1CD4 PUSH2 0x358 JUMP JUMPDEST SWAP5 PUSH2 0x2BD JUMP JUMPDEST SWAP5 PUSH2 0xDD2 JUMP JUMPDEST SWAP5 PUSH2 0x9EB JUMP JUMPDEST SWAP5 PUSH2 0x28CA JUMP JUMPDEST PUSH2 0x1D35 PUSH1 0x25 PUSH1 0x4 SWAP1 PUSH2 0x1C3 PUSH2 0x1D03 PUSH2 0x23A SWAP3 PUSH2 0xDF1 JUMP JUMPDEST SWAP3 PUSH2 0x1D0C PUSH2 0x31A JUMP JUMPDEST PUSH2 0x1D2F PUSH2 0x1D29 PUSH2 0x1D23 PUSH2 0x1D1D PUSH2 0x3ED JUMP JUMPDEST SWAP5 PUSH2 0x2BD JUMP JUMPDEST SWAP5 PUSH2 0xDD2 JUMP JUMPDEST SWAP5 PUSH2 0x9EB JUMP JUMPDEST SWAP5 PUSH2 0x28CA JUMP JUMPDEST PUSH2 0x1D7E PUSH1 0x26 PUSH1 0x4 SWAP1 PUSH2 0x1C3 PUSH2 0x1D4C PUSH2 0x23A SWAP3 PUSH2 0xE10 JUMP JUMPDEST SWAP3 PUSH2 0x1D55 PUSH2 0x31A JUMP JUMPDEST PUSH2 0x1D78 PUSH2 0x1D72 PUSH2 0x1D6C PUSH2 0x1D66 PUSH2 0x444 JUMP JUMPDEST SWAP5 PUSH2 0x2BD JUMP JUMPDEST SWAP5 PUSH2 0xDD2 JUMP JUMPDEST SWAP5 PUSH2 0x9EB JUMP JUMPDEST SWAP5 PUSH2 0x28CA JUMP JUMPDEST PUSH2 0x1DC7 PUSH1 0x27 PUSH1 0x2 SWAP1 PUSH2 0x21D PUSH2 0x1D95 PUSH2 0x2D0 SWAP3 PUSH2 0xE2F JUMP JUMPDEST SWAP3 PUSH2 0x1D9E PUSH2 0xC3C JUMP JUMPDEST PUSH2 0x1DC1 PUSH2 0x1DBB PUSH2 0x1DB5 PUSH2 0x1DAF PUSH2 0xC75 JUMP JUMPDEST SWAP5 PUSH2 0x1BC JUMP JUMPDEST SWAP5 PUSH2 0xE4E JUMP JUMPDEST SWAP5 PUSH2 0xD94 JUMP JUMPDEST SWAP5 PUSH2 0x28CA JUMP JUMPDEST PUSH2 0x1E10 PUSH1 0x28 PUSH1 0x2 SWAP1 PUSH2 0x21D PUSH2 0x1DDE PUSH2 0x2D0 SWAP3 PUSH2 0xE6D JUMP JUMPDEST SWAP3 PUSH2 0x1DE7 PUSH2 0xCE0 JUMP JUMPDEST PUSH2 0x1E0A PUSH2 0x1E04 PUSH2 0x1DFE PUSH2 0x1DF8 PUSH2 0xD1B JUMP JUMPDEST SWAP5 PUSH2 0x1BC JUMP JUMPDEST SWAP5 PUSH2 0xE4E JUMP JUMPDEST SWAP5 PUSH2 0xD94 JUMP JUMPDEST SWAP5 PUSH2 0x28CA JUMP JUMPDEST PUSH2 0x1E59 PUSH1 0x29 PUSH1 0x3 SWAP1 PUSH2 0x2D1 PUSH2 0x1E27 PUSH2 0x438 SWAP3 PUSH2 0xE8C JUMP JUMPDEST SWAP3 PUSH2 0x1E30 PUSH2 0xCE0 JUMP JUMPDEST PUSH2 0x1E53 PUSH2 0x1E4D PUSH2 0x1E47 PUSH2 0x1E41 PUSH2 0xD1B JUMP JUMPDEST SWAP5 PUSH2 0x260 JUMP JUMPDEST SWAP5 PUSH2 0xEAB JUMP JUMPDEST SWAP5 PUSH2 0xECA JUMP JUMPDEST SWAP5 PUSH2 0x28CA JUMP JUMPDEST PUSH2 0x1EA2 PUSH1 0x2A PUSH1 0x2 SWAP1 PUSH2 0x2D1 PUSH2 0x1E70 PUSH2 0x438 SWAP3 PUSH2 0xEE9 JUMP JUMPDEST SWAP3 PUSH2 0x1E79 PUSH2 0xD86 JUMP JUMPDEST PUSH2 0x1E9C PUSH2 0x1E96 PUSH2 0x1E90 PUSH2 0x1E8A PUSH2 0xD1B JUMP JUMPDEST SWAP5 PUSH2 0x1BC JUMP JUMPDEST SWAP5 PUSH2 0xEAB JUMP JUMPDEST SWAP5 PUSH2 0xECA JUMP JUMPDEST SWAP5 PUSH2 0x28CA JUMP JUMPDEST PUSH2 0x1EEB PUSH1 0x2B PUSH1 0x5 SWAP1 PUSH2 0x5A1 PUSH2 0x1EB9 PUSH2 0x9D8 SWAP3 PUSH2 0xF08 JUMP JUMPDEST SWAP3 PUSH2 0x1EC2 PUSH2 0x31A JUMP JUMPDEST PUSH2 0x1EE5 PUSH2 0x1EDF PUSH2 0x1ED9 PUSH2 0x1ED3 PUSH2 0x358 JUMP JUMPDEST SWAP5 PUSH2 0x3A4 JUMP JUMPDEST SWAP5 PUSH2 0xF27 JUMP JUMPDEST SWAP5 PUSH2 0xF46 JUMP JUMPDEST SWAP5 PUSH2 0x28CA JUMP JUMPDEST PUSH2 0x1F34 PUSH1 0x2C PUSH1 0x5 SWAP1 PUSH2 0x5A1 PUSH2 0x1F02 PUSH2 0x9D8 SWAP3 PUSH2 0xF65 JUMP JUMPDEST SWAP3 PUSH2 0x1F0B PUSH2 0x31A JUMP JUMPDEST PUSH2 0x1F2E PUSH2 0x1F28 PUSH2 0x1F22 PUSH2 0x1F1C PUSH2 0x3ED JUMP JUMPDEST SWAP5 PUSH2 0x3A4 JUMP JUMPDEST SWAP5 PUSH2 0xF27 JUMP JUMPDEST SWAP5 PUSH2 0xF46 JUMP JUMPDEST SWAP5 PUSH2 0x28CA JUMP JUMPDEST PUSH2 0x1F7D PUSH1 0x2D PUSH1 0x5 SWAP1 PUSH2 0x5A1 PUSH2 0x1F4B PUSH2 0x9D8 SWAP3 PUSH2 0xF84 JUMP JUMPDEST SWAP3 PUSH2 0x1F54 PUSH2 0x31A JUMP JUMPDEST PUSH2 0x1F77 PUSH2 0x1F71 PUSH2 0x1F6B PUSH2 0x1F65 PUSH2 0x444 JUMP JUMPDEST SWAP5 PUSH2 0x3A4 JUMP JUMPDEST SWAP5 PUSH2 0xF27 JUMP JUMPDEST SWAP5 PUSH2 0xF46 JUMP JUMPDEST SWAP5 PUSH2 0x28CA JUMP JUMPDEST PUSH2 0x1FC6 PUSH1 0x2E PUSH1 0x4 SWAP1 PUSH2 0x5A1 PUSH2 0x1F94 PUSH2 0x9D8 SWAP3 PUSH2 0xFA3 JUMP JUMPDEST SWAP3 PUSH2 0x1F9D PUSH2 0x4AF JUMP JUMPDEST PUSH2 0x1FC0 PUSH2 0x1FBA PUSH2 0x1FB4 PUSH2 0x1FAE PUSH2 0x4E7 JUMP JUMPDEST SWAP5 PUSH2 0x2BD JUMP JUMPDEST SWAP5 PUSH2 0xF27 JUMP JUMPDEST SWAP5 PUSH2 0xF46 JUMP JUMPDEST SWAP5 PUSH2 0x28CA JUMP JUMPDEST PUSH2 0x200F PUSH1 0x2F PUSH1 0x2 SWAP1 PUSH2 0x5A1 PUSH2 0x1FDD PUSH2 0x9D8 SWAP3 PUSH2 0xFC2 JUMP JUMPDEST SWAP3 PUSH2 0x1FE6 PUSH2 0xAE0 JUMP JUMPDEST PUSH2 0x2009 PUSH2 0x2003 PUSH2 0x1FFD PUSH2 0x1FF7 PUSH2 0xB15 JUMP JUMPDEST SWAP5 PUSH2 0x1BC JUMP JUMPDEST SWAP5 PUSH2 0xF27 JUMP JUMPDEST SWAP5 PUSH2 0xF46 JUMP JUMPDEST SWAP5 PUSH2 0x28CA JUMP JUMPDEST PUSH2 0x2058 PUSH1 0x30 PUSH1 0x2 SWAP1 PUSH2 0x5A1 PUSH2 0x2026 PUSH2 0x9D8 SWAP3 PUSH2 0xFE1 JUMP JUMPDEST SWAP3 PUSH2 0x202F PUSH2 0xAE0 JUMP JUMPDEST PUSH2 0x2052 PUSH2 0x204C PUSH2 0x2046 PUSH2 0x2040 PUSH2 0x103E JUMP JUMPDEST SWAP5 PUSH2 0x1BC JUMP JUMPDEST SWAP5 PUSH2 0xF27 JUMP JUMPDEST SWAP5 PUSH2 0xF46 JUMP JUMPDEST SWAP5 PUSH2 0x28CA JUMP JUMPDEST PUSH2 0x20A1 PUSH1 0x31 PUSH1 0x2 SWAP1 PUSH2 0x5A1 PUSH2 0x206F PUSH2 0x9D8 SWAP3 PUSH2 0x104C JUMP JUMPDEST SWAP3 PUSH2 0x2078 PUSH2 0xAE0 JUMP JUMPDEST PUSH2 0x209B PUSH2 0x2095 PUSH2 0x208F PUSH2 0x2089 PUSH2 0xBD1 JUMP JUMPDEST SWAP5 PUSH2 0x1BC JUMP JUMPDEST SWAP5 PUSH2 0xF27 JUMP JUMPDEST SWAP5 PUSH2 0xF46 JUMP JUMPDEST SWAP5 PUSH2 0x28CA JUMP JUMPDEST PUSH2 0x20EA PUSH1 0x32 PUSH1 0x4 SWAP1 PUSH2 0x871 PUSH2 0x20B8 PUSH2 0x9D8 SWAP3 PUSH2 0x106B JUMP JUMPDEST SWAP3 PUSH2 0x20C1 PUSH2 0xCE0 JUMP JUMPDEST PUSH2 0x20E4 PUSH2 0x20DE PUSH2 0x20D8 PUSH2 0x20D2 PUSH2 0xD1B JUMP JUMPDEST SWAP5 PUSH2 0x2BD JUMP JUMPDEST SWAP5 PUSH2 0x108A JUMP JUMPDEST SWAP5 PUSH2 0xF46 JUMP JUMPDEST SWAP5 PUSH2 0x28CA JUMP JUMPDEST PUSH2 0x2133 PUSH1 0x33 PUSH1 0x6 SWAP1 PUSH2 0xF79 PUSH2 0x2101 PUSH2 0x1248 SWAP3 PUSH2 0x10A9 JUMP JUMPDEST SWAP3 PUSH2 0x210A PUSH2 0x1106 JUMP JUMPDEST PUSH2 0x212D PUSH2 0x2127 PUSH2 0x2121 PUSH2 0x211B PUSH2 0x358 JUMP JUMPDEST SWAP5 PUSH2 0x3FB JUMP JUMPDEST SWAP5 PUSH2 0x1114 JUMP JUMPDEST SWAP5 PUSH2 0x1133 JUMP JUMPDEST SWAP5 PUSH2 0x28CA JUMP JUMPDEST PUSH2 0x217C PUSH1 0x34 PUSH1 0x6 SWAP1 PUSH2 0xF79 PUSH2 0x214A PUSH2 0x1248 SWAP3 PUSH2 0x1152 JUMP JUMPDEST SWAP3 PUSH2 0x2153 PUSH2 0x1106 JUMP JUMPDEST PUSH2 0x2176 PUSH2 0x2170 PUSH2 0x216A PUSH2 0x2164 PUSH2 0x3ED JUMP JUMPDEST SWAP5 PUSH2 0x3FB JUMP JUMPDEST SWAP5 PUSH2 0x1114 JUMP JUMPDEST SWAP5 PUSH2 0x1133 JUMP JUMPDEST SWAP5 PUSH2 0x28CA JUMP JUMPDEST PUSH2 0x21C5 PUSH1 0x35 PUSH1 0x6 SWAP1 PUSH2 0xF79 PUSH2 0x2193 PUSH2 0x1248 SWAP3 PUSH2 0x1171 JUMP JUMPDEST SWAP3 PUSH2 0x219C PUSH2 0x1106 JUMP JUMPDEST PUSH2 0x21BF PUSH2 0x21B9 PUSH2 0x21B3 PUSH2 0x21AD PUSH2 0x444 JUMP JUMPDEST SWAP5 PUSH2 0x3FB JUMP JUMPDEST SWAP5 PUSH2 0x1114 JUMP JUMPDEST SWAP5 PUSH2 0x1133 JUMP JUMPDEST SWAP5 PUSH2 0x28CA JUMP JUMPDEST PUSH2 0x220E PUSH1 0x36 PUSH1 0x5 SWAP1 PUSH2 0x10E1 PUSH2 0x21DC PUSH2 0x1248 SWAP3 PUSH2 0x1190 JUMP JUMPDEST SWAP3 PUSH2 0x21E5 PUSH2 0xCE0 JUMP JUMPDEST PUSH2 0x2208 PUSH2 0x2202 PUSH2 0x21FC PUSH2 0x21F6 PUSH2 0xD1B JUMP JUMPDEST SWAP5 PUSH2 0x3A4 JUMP JUMPDEST SWAP5 PUSH2 0x11AF JUMP JUMPDEST SWAP5 PUSH2 0x1133 JUMP JUMPDEST SWAP5 PUSH2 0x28CA JUMP JUMPDEST PUSH2 0x2257 PUSH1 0x37 PUSH1 0x1 SWAP1 PUSH2 0x10E1 PUSH2 0x2225 PUSH2 0x1194 SWAP3 PUSH2 0x11CE JUMP JUMPDEST SWAP3 PUSH2 0x222E PUSH2 0x122B JUMP JUMPDEST PUSH2 0x2251 PUSH2 0x224B PUSH2 0x2245 PUSH2 0x223F PUSH2 0x1277 JUMP JUMPDEST SWAP5 PUSH2 0x43 JUMP JUMPDEST SWAP5 PUSH2 0x11AF JUMP JUMPDEST SWAP5 PUSH2 0x1285 JUMP JUMPDEST SWAP5 PUSH2 0x28CA JUMP JUMPDEST PUSH2 0x22A0 PUSH1 0x38 PUSH1 0x2 SWAP1 PUSH2 0x1195 PUSH2 0x226E PUSH2 0x1248 SWAP3 PUSH2 0x12A4 JUMP JUMPDEST SWAP3 PUSH2 0x2277 PUSH2 0x122B JUMP JUMPDEST PUSH2 0x229A PUSH2 0x2294 PUSH2 0x228E PUSH2 0x2288 PUSH2 0x1277 JUMP JUMPDEST SWAP5 PUSH2 0x1BC JUMP JUMPDEST SWAP5 PUSH2 0x12C3 JUMP JUMPDEST SWAP5 PUSH2 0x1133 JUMP JUMPDEST SWAP5 PUSH2 0x28CA JUMP JUMPDEST JUMP JUMPDEST SWAP1 JUMP JUMPDEST PUSH2 0x22B0 PUSH2 0x100 PUSH2 0xA6 JUMP JUMPDEST SWAP1 JUMP JUMPDEST SWAP1 PUSH2 0x22BD SWAP1 PUSH2 0x3A JUMP JUMPDEST SWAP1 MSTORE JUMP JUMPDEST MSTORE JUMP JUMPDEST SWAP1 PUSH2 0x22CE SWAP1 PUSH2 0x177 JUMP JUMPDEST SWAP1 MSTORE JUMP JUMPDEST PUSH4 0x4E487B71 PUSH1 0xE0 SHL PUSH1 0x0 MSTORE PUSH1 0x21 PUSH1 0x4 MSTORE PUSH1 0x24 PUSH1 0x0 REVERT JUMPDEST PUSH1 0x2 GT ISZERO PUSH2 0x22F2 JUMPI JUMP JUMPDEST PUSH2 0x22D2 JUMP JUMPDEST SWAP1 PUSH2 0x2301 DUP3 PUSH2 0x22E8 JUMP JUMPDEST JUMP JUMPDEST SWAP1 PUSH2 0x230D SWAP1 PUSH2 0x22F7 JUMP JUMPDEST SWAP1 MSTORE JUMP JUMPDEST SWAP1 JUMP JUMPDEST PUSH2 0x2328 PUSH2 0x2323 PUSH2 0x232D SWAP3 PUSH2 0x174 JUMP JUMPDEST PUSH2 0x40 JUMP JUMPDEST PUSH2 0x2311 JUMP JUMPDEST SWAP1 JUMP JUMPDEST SWAP1 PUSH2 0x233A SWAP1 PUSH2 0x2311 JUMP JUMPDEST SWAP1 MSTORE JUMP JUMPDEST PUSH1 0x0 MSTORE PUSH1 0x20 PUSH1 0x0 KECCAK256 SWAP1 JUMP JUMPDEST PUSH4 0x4E487B71 PUSH1 0xE0 SHL PUSH1 0x0 MSTORE PUSH1 0x32 PUSH1 0x4 MSTORE PUSH1 0x24 PUSH1 0x0 REVERT JUMPDEST SLOAD SWAP1 JUMP JUMPDEST PUSH2 0x236C DUP2 PUSH2 0x235F JUMP JUMPDEST DUP3 LT ISZERO PUSH2 0x2387 JUMPI PUSH2 0x237E PUSH1 0x5 SWAP2 PUSH2 0x233E JUMP JUMPDEST SWAP2 MUL ADD SWAP1 PUSH1 0x0 SWAP1 JUMP JUMPDEST PUSH2 0x2349 JUMP JUMPDEST PUSH4 0x4E487B71 PUSH1 0xE0 SHL PUSH1 0x0 MSTORE PUSH1 0x0 PUSH1 0x4 MSTORE PUSH1 0x24 PUSH1 0x0 REVERT JUMPDEST PUSH2 0x23AC SWAP1 MLOAD PUSH2 0x3A JUMP JUMPDEST SWAP1 JUMP JUMPDEST PUSH1 0x0 SHL SWAP1 JUMP JUMPDEST SWAP1 PUSH2 0x23C1 PUSH1 0xFF SWAP2 PUSH2 0x23AF JUMP JUMPDEST SWAP2 DUP2 NOT AND SWAP2 AND OR SWAP1 JUMP JUMPDEST PUSH2 0x23DF PUSH2 0x23DA PUSH2 0x23E4 SWAP3 PUSH2 0x3A JUMP JUMPDEST PUSH2 0x40 JUMP JUMPDEST PUSH2 0x3A JUMP JUMPDEST SWAP1 JUMP JUMPDEST SWAP1 JUMP JUMPDEST SWAP1 PUSH2 0x23FF PUSH2 0x23FA PUSH2 0x2406 SWAP3 PUSH2 0x23CB JUMP JUMPDEST PUSH2 0x23E7 JUMP JUMPDEST DUP3 SLOAD PUSH2 0x23B5 JUMP JUMPDEST SWAP1 SSTORE JUMP JUMPDEST MLOAD SWAP1 JUMP JUMPDEST MLOAD SWAP1 JUMP JUMPDEST PUSH4 0x4E487B71 PUSH1 0xE0 SHL PUSH1 0x0 MSTORE PUSH1 0x22 PUSH1 0x4 MSTORE PUSH1 0x24 PUSH1 0x0 REVERT JUMPDEST SWAP1 PUSH1 0x1 PUSH1 0x2 DUP4 DIV SWAP3 AND DUP1 ISZERO PUSH2 0x2448 JUMPI JUMPDEST PUSH1 0x20 DUP4 LT EQ PUSH2 0x2443 JUMPI JUMP JUMPDEST PUSH2 0x2412 JUMP JUMPDEST SWAP2 PUSH1 0x7F AND SWAP2 PUSH2 0x2438 JUMP JUMPDEST PUSH1 0x0 MSTORE PUSH1 0x20 PUSH1 0x0 KECCAK256 SWAP1 JUMP JUMPDEST PUSH1 0x1F PUSH1 0x20 SWAP2 ADD DIV SWAP1 JUMP JUMPDEST SHL SWAP1 JUMP JUMPDEST SWAP2 SWAP1 PUSH1 0x8 PUSH2 0x2487 SWAP2 MUL SWAP2 PUSH2 0x2481 PUSH1 0x0 NOT DUP5 PUSH2 0x2467 JUMP JUMPDEST SWAP3 PUSH2 0x2467 JUMP JUMPDEST SWAP2 DUP2 NOT AND SWAP2 AND OR SWAP1 JUMP JUMPDEST PUSH2 0x24A5 PUSH2 0x24A0 PUSH2 0x24AA SWAP3 PUSH2 0x2311 JUMP JUMPDEST PUSH2 0x40 JUMP JUMPDEST PUSH2 0x2311 JUMP JUMPDEST SWAP1 JUMP JUMPDEST SWAP1 JUMP JUMPDEST SWAP2 SWAP1 PUSH2 0x24C6 PUSH2 0x24C1 PUSH2 0x24CE SWAP4 PUSH2 0x2491 JUMP JUMPDEST PUSH2 0x24AD JUMP JUMPDEST SWAP1 DUP4 SLOAD PUSH2 0x246B JUMP JUMPDEST SWAP1 SSTORE JUMP JUMPDEST PUSH1 0x0 SWAP1 JUMP JUMPDEST PUSH2 0x24E9 SWAP2 PUSH2 0x24E3 PUSH2 0x24D2 JUMP JUMPDEST SWAP2 PUSH2 0x24B0 JUMP JUMPDEST JUMP JUMPDEST JUMPDEST DUP2 DUP2 LT PUSH2 0x24F7 JUMPI POP POP JUMP JUMPDEST DUP1 PUSH2 0x2505 PUSH1 0x0 PUSH1 0x1 SWAP4 PUSH2 0x24D7 JUMP JUMPDEST ADD PUSH2 0x24EC JUMP JUMPDEST SWAP2 SWAP1 PUSH1 0x1F DUP2 GT PUSH2 0x251B JUMPI JUMPDEST POP POP POP JUMP JUMPDEST PUSH2 0x2527 PUSH2 0x254C SWAP4 PUSH2 0x2452 JUMP JUMPDEST SWAP1 PUSH1 0x20 PUSH2 0x2533 DUP5 PUSH2 0x245D JUMP JUMPDEST DUP4 ADD SWAP4 LT PUSH2 0x2554 JUMPI JUMPDEST PUSH2 0x2545 SWAP1 PUSH2 0x245D JUMP JUMPDEST ADD SWAP1 PUSH2 0x24EB JUMP JUMPDEST CODESIZE DUP1 DUP1 PUSH2 0x2516 JUMP JUMPDEST SWAP2 POP PUSH2 0x2545 DUP2 SWAP3 SWAP1 POP PUSH2 0x253C JUMP JUMPDEST SHR SWAP1 JUMP JUMPDEST SWAP1 PUSH2 0x2577 SWAP1 PUSH1 0x0 NOT SWAP1 PUSH1 0x8 MUL PUSH2 0x2562 JUMP JUMPDEST NOT AND SWAP1 JUMP JUMPDEST DUP2 PUSH2 0x2586 SWAP2 PUSH2 0x2566 JUMP JUMPDEST SWAP1 PUSH1 0x2 MUL OR SWAP1 JUMP JUMPDEST SWAP1 PUSH2 0x2598 DUP2 PUSH2 0x240E JUMP JUMPDEST SWAP1 PUSH1 0x1 DUP1 PUSH1 0x40 SHL SUB DUP3 GT PUSH2 0x2658 JUMPI PUSH2 0x25BA DUP3 PUSH2 0x25B4 DUP6 SLOAD PUSH2 0x2428 JUMP JUMPDEST DUP6 PUSH2 0x250B JUMP JUMPDEST PUSH1 0x20 SWAP1 PUSH1 0x1F DUP4 GT PUSH1 0x1 EQ PUSH2 0x25EF JUMPI SWAP2 DUP1 SWAP2 PUSH2 0x25DE SWAP4 PUSH1 0x0 SWAP3 PUSH2 0x25E3 JUMPI JUMPDEST POP POP PUSH2 0x257C JUMP JUMPDEST SWAP1 SSTORE JUMPDEST JUMP JUMPDEST SWAP1 SWAP2 POP ADD MLOAD CODESIZE DUP1 PUSH2 0x25D7 JUMP JUMPDEST PUSH1 0x1F NOT DUP4 AND SWAP2 PUSH2 0x25FE DUP6 PUSH2 0x2452 JUMP JUMPDEST SWAP3 PUSH1 0x0 JUMPDEST DUP2 DUP2 LT PUSH2 0x2640 JUMPI POP SWAP2 PUSH1 0x2 SWAP4 SWAP2 DUP6 PUSH1 0x1 SWAP7 SWAP5 LT PUSH2 0x2626 JUMPI JUMPDEST POP POP POP MUL ADD SWAP1 SSTORE PUSH2 0x25E1 JUMP JUMPDEST PUSH2 0x2636 SWAP2 ADD MLOAD PUSH1 0x1F DUP5 AND SWAP1 PUSH2 0x2566 JUMP JUMPDEST SWAP1 SSTORE CODESIZE DUP1 DUP1 PUSH2 0x261A JUMP JUMPDEST SWAP2 SWAP4 PUSH1 0x20 PUSH1 0x1 DUP2 SWAP3 DUP8 DUP8 ADD MLOAD DUP2 SSTORE ADD SWAP6 ADD SWAP3 ADD PUSH2 0x2602 JUMP JUMPDEST PUSH2 0x69 JUMP JUMPDEST SWAP1 PUSH2 0x2667 SWAP2 PUSH2 0x258E JUMP JUMPDEST JUMP JUMPDEST PUSH2 0x2673 SWAP1 MLOAD PUSH2 0x177 JUMP JUMPDEST SWAP1 JUMP JUMPDEST PUSH1 0x8 SHL SWAP1 JUMP JUMPDEST SWAP1 PUSH2 0x268A PUSH3 0xFFFF00 SWAP2 PUSH2 0x2676 JUMP JUMPDEST SWAP2 DUP2 NOT AND SWAP2 AND OR SWAP1 JUMP JUMPDEST PUSH2 0x26A8 PUSH2 0x26A3 PUSH2 0x26AD SWAP3 PUSH2 0x177 JUMP JUMPDEST PUSH2 0x40 JUMP JUMPDEST PUSH2 0x177 JUMP JUMPDEST SWAP1 JUMP JUMPDEST SWAP1 JUMP JUMPDEST SWAP1 PUSH2 0x26C8 PUSH2 0x26C3 PUSH2 0x26CF SWAP3 PUSH2 0x2694 JUMP JUMPDEST PUSH2 0x26B0 JUMP JUMPDEST DUP3 SLOAD PUSH2 0x267C JUMP JUMPDEST SWAP1 SSTORE JUMP JUMPDEST PUSH1 0x18 SHL SWAP1 JUMP JUMPDEST SWAP1 PUSH2 0x26E9 PUSH5 0xFFFF000000 SWAP2 PUSH2 0x26D3 JUMP JUMPDEST SWAP2 DUP2 NOT AND SWAP2 AND OR SWAP1 JUMP JUMPDEST SWAP1 PUSH2 0x2708 PUSH2 0x2703 PUSH2 0x270F SWAP3 PUSH2 0x2694 JUMP JUMPDEST PUSH2 0x26B0 JUMP JUMPDEST DUP3 SLOAD PUSH2 0x26D9 JUMP JUMPDEST SWAP1 SSTORE JUMP JUMPDEST PUSH2 0x271D SWAP1 MLOAD PUSH2 0x22F7 JUMP JUMPDEST SWAP1 JUMP JUMPDEST PUSH1 0x28 SHL SWAP1 JUMP JUMPDEST SWAP1 PUSH2 0x2737 PUSH6 0xFF0000000000 SWAP2 PUSH2 0x2720 JUMP JUMPDEST SWAP2 DUP2 NOT AND SWAP2 AND OR SWAP1 JUMP JUMPDEST PUSH2 0x274A SWAP1 PUSH2 0x22F7 JUMP JUMPDEST SWAP1 JUMP JUMPDEST SWAP1 JUMP JUMPDEST SWAP1 PUSH2 0x2765 PUSH2 0x2760 PUSH2 0x276C SWAP3 PUSH2 0x2741 JUMP JUMPDEST PUSH2 0x274D JUMP JUMPDEST DUP3 SLOAD PUSH2 0x2726 JUMP JUMPDEST SWAP1 SSTORE JUMP JUMPDEST PUSH2 0x277A SWAP1 MLOAD PUSH2 0x2311 JUMP JUMPDEST SWAP1 JUMP JUMPDEST SWAP1 PUSH2 0x278A PUSH1 0x0 NOT SWAP2 PUSH2 0x23AF JUMP JUMPDEST SWAP2 DUP2 NOT AND SWAP2 AND OR SWAP1 JUMP JUMPDEST SWAP1 PUSH2 0x27A9 PUSH2 0x27A4 PUSH2 0x27B0 SWAP3 PUSH2 0x2491 JUMP JUMPDEST PUSH2 0x24AD JUMP JUMPDEST DUP3 SLOAD PUSH2 0x277D JUMP JUMPDEST SWAP1 SSTORE JUMP JUMPDEST SWAP1 PUSH2 0x2877 PUSH1 0xE0 PUSH1 0x4 PUSH2 0x287D SWAP5 PUSH2 0x27D9 PUSH1 0x0 DUP3 ADD PUSH2 0x27D3 PUSH1 0x0 DUP9 ADD PUSH2 0x23A2 JUMP JUMPDEST SWAP1 PUSH2 0x23EA JUMP JUMPDEST PUSH2 0x27F2 PUSH1 0x1 DUP3 ADD PUSH2 0x27EC PUSH1 0x20 DUP9 ADD PUSH2 0x240A JUMP JUMPDEST SWAP1 PUSH2 0x265D JUMP JUMPDEST PUSH2 0x280B PUSH1 0x2 DUP3 ADD PUSH2 0x2805 PUSH1 0x40 DUP9 ADD PUSH2 0x240A JUMP JUMPDEST SWAP1 PUSH2 0x265D JUMP JUMPDEST PUSH2 0x2824 PUSH1 0x3 DUP3 ADD PUSH2 0x281E PUSH1 0x60 DUP9 ADD PUSH2 0x23A2 JUMP JUMPDEST SWAP1 PUSH2 0x23EA JUMP JUMPDEST PUSH2 0x283D PUSH1 0x3 DUP3 ADD PUSH2 0x2837 PUSH1 0x80 DUP9 ADD PUSH2 0x2669 JUMP JUMPDEST SWAP1 PUSH2 0x26B3 JUMP JUMPDEST PUSH2 0x2856 PUSH1 0x3 DUP3 ADD PUSH2 0x2850 PUSH1 0xA0 DUP9 ADD PUSH2 0x2669 JUMP JUMPDEST SWAP1 PUSH2 0x26F3 JUMP JUMPDEST PUSH2 0x286F PUSH1 0x3 DUP3 ADD PUSH2 0x2869 PUSH1 0xC0 DUP9 ADD PUSH2 0x2713 JUMP JUMPDEST SWAP1 PUSH2 0x2750 JUMP JUMPDEST ADD SWAP3 ADD PUSH2 0x2770 JUMP JUMPDEST SWAP1 PUSH2 0x2794 JUMP JUMPDEST JUMP JUMPDEST SWAP2 SWAP1 PUSH2 0x2890 JUMPI PUSH2 0x288E SWAP2 PUSH2 0x27B4 JUMP JUMPDEST JUMP JUMPDEST PUSH2 0x238C JUMP JUMPDEST SWAP1 DUP2 SLOAD SWAP2 PUSH9 0x10000000000000000 DUP4 LT ISZERO PUSH2 0x28C5 JUMPI DUP3 PUSH2 0x28BD SWAP2 PUSH1 0x1 PUSH2 0x28C3 SWAP6 ADD DUP2 SSTORE PUSH2 0x2363 JUMP JUMPDEST SWAP1 PUSH2 0x287F JUMP JUMPDEST JUMP JUMPDEST PUSH2 0x69 JUMP JUMPDEST SWAP5 SWAP4 SWAP1 SWAP4 SWAP3 SWAP2 SWAP3 PUSH1 0x0 PUSH2 0x28DC SWAP1 PUSH2 0x22A2 JUMP JUMPDEST SWAP6 SWAP5 SWAP4 SWAP3 SWAP2 SWAP1 SWAP2 PUSH1 0x0 SWAP4 PUSH1 0x0 SWAP6 PUSH2 0x28F1 PUSH2 0x22A5 JUMP JUMPDEST SWAP8 PUSH1 0x0 DUP10 ADD SWAP1 PUSH2 0x2900 SWAP2 PUSH2 0x22B3 JUMP JUMPDEST PUSH1 0x20 DUP9 ADD SWAP1 PUSH2 0x290E SWAP2 PUSH2 0x22C1 JUMP JUMPDEST PUSH1 0x40 DUP8 ADD SWAP1 PUSH2 0x291C SWAP2 PUSH2 0x22C1 JUMP JUMPDEST PUSH1 0x60 DUP7 ADD SWAP1 PUSH2 0x292A SWAP2 PUSH2 0x22B3 JUMP JUMPDEST PUSH1 0x80 DUP6 ADD SWAP1 PUSH2 0x2938 SWAP2 PUSH2 0x22C4 JUMP JUMPDEST PUSH1 0xA0 DUP5 ADD SWAP1 PUSH2 0x2946 SWAP2 PUSH2 0x22C4 JUMP JUMPDEST PUSH1 0xC0 DUP4 ADD SWAP1 PUSH2 0x2954 SWAP2 PUSH2 0x2303 JUMP JUMPDEST PUSH2 0x295D SWAP1 PUSH2 0x2314 JUMP JUMPDEST PUSH1 0xE0 DUP3 ADD SWAP1 PUSH2 0x296B SWAP2 PUSH2 0x2330 JUMP JUMPDEST PUSH2 0x2974 SWAP2 PUSH2 0x2895 JUMP JUMPDEST JUMP INVALID PUSH1 0x80 PUSH1 0x40 MSTORE PUSH1 0x4 CALLDATASIZE LT ISZERO PUSH2 0x13 JUMPI JUMPDEST PUSH2 0xB23 JUMP JUMPDEST PUSH2 0x1E PUSH1 0x0 CALLDATALOAD PUSH2 0x6D JUMP JUMPDEST DUP1 PUSH4 0x59C3309E EQ PUSH2 0x68 JUMPI DUP1 PUSH4 0x5AE99F65 EQ PUSH2 0x63 JUMPI DUP1 PUSH4 0xD30A32E3 EQ PUSH2 0x5E JUMPI DUP1 PUSH4 0xE10B406C EQ PUSH2 0x59 JUMPI PUSH4 0xEB607DB1 SUB PUSH2 0xE JUMPI PUSH2 0xAEE JUMP JUMPDEST PUSH2 0x8D1 JUMP JUMPDEST PUSH2 0x463 JUMP JUMPDEST PUSH2 0x2BB JUMP JUMPDEST PUSH2 0xE8 JUMP JUMPDEST PUSH1 0xE0 SHR SWAP1 JUMP JUMPDEST PUSH1 0x40 MLOAD SWAP1 JUMP JUMPDEST PUSH1 0x0 DUP1 REVERT JUMPDEST PUSH1 0x0 DUP1 REVERT JUMPDEST PUSH1 0x0 DUP1 REVERT JUMPDEST PUSH1 0x1 DUP1 PUSH1 0xA0 SHL SUB AND SWAP1 JUMP JUMPDEST PUSH2 0x9C SWAP1 PUSH2 0x88 JUMP JUMPDEST SWAP1 JUMP JUMPDEST PUSH2 0xA8 DUP2 PUSH2 0x93 JUMP JUMPDEST SUB PUSH2 0xAF JUMPI JUMP JUMPDEST PUSH1 0x0 DUP1 REVERT JUMPDEST SWAP1 POP CALLDATALOAD SWAP1 PUSH2 0xC1 DUP3 PUSH2 0x9F JUMP JUMPDEST JUMP JUMPDEST SWAP1 PUSH1 0x20 DUP3 DUP3 SUB SLT PUSH2 0xDD JUMPI PUSH2 0xDA SWAP2 PUSH1 0x0 ADD PUSH2 0xB4 JUMP JUMPDEST SWAP1 JUMP JUMPDEST PUSH2 0x7E JUMP JUMPDEST PUSH1 0x0 ADD SWAP1 JUMP JUMPDEST CALLVALUE PUSH2 0x116 JUMPI PUSH2 0x100 PUSH2 0xFB CALLDATASIZE PUSH1 0x4 PUSH2 0xC3 JUMP JUMPDEST PUSH2 0x1167 JUMP JUMPDEST PUSH2 0x108 PUSH2 0x73 JUMP JUMPDEST DUP1 PUSH2 0x112 DUP2 PUSH2 0xE2 JUMP JUMPDEST SUB SWAP1 RETURN JUMPDEST PUSH2 0x79 JUMP JUMPDEST PUSH1 0x0 DUP1 REVERT JUMPDEST PUSH1 0x0 DUP1 REVERT JUMPDEST PUSH1 0x1F DUP1 NOT SWAP2 ADD AND SWAP1 JUMP JUMPDEST PUSH4 0x4E487B71 PUSH1 0xE0 SHL PUSH1 0x0 MSTORE PUSH1 0x41 PUSH1 0x4 MSTORE PUSH1 0x24 PUSH1 0x0 REVERT JUMPDEST SWAP1 PUSH2 0x14F SWAP1 PUSH2 0x125 JUMP JUMPDEST DUP2 ADD SWAP1 DUP2 LT PUSH8 0xFFFFFFFFFFFFFFFF DUP3 GT OR PUSH2 0x169 JUMPI PUSH1 0x40 MSTORE JUMP JUMPDEST PUSH2 0x12F JUMP JUMPDEST SWAP1 PUSH2 0x181 PUSH2 0x17A PUSH2 0x73 JUMP JUMPDEST SWAP3 DUP4 PUSH2 0x145 JUMP JUMPDEST JUMP JUMPDEST PUSH8 0xFFFFFFFFFFFFFFFF DUP2 GT PUSH2 0x1A1 JUMPI PUSH2 0x19D PUSH1 0x20 SWAP2 PUSH2 0x125 JUMP JUMPDEST ADD SWAP1 JUMP JUMPDEST PUSH2 0x12F JUMP JUMPDEST SWAP1 DUP3 PUSH1 0x0 SWAP4 SWAP3 DUP3 CALLDATACOPY ADD MSTORE JUMP JUMPDEST SWAP1 SWAP3 SWAP2 SWAP3 PUSH2 0x1C7 PUSH2 0x1C2 DUP3 PUSH2 0x183 JUMP JUMPDEST PUSH2 0x16E JUMP JUMPDEST SWAP4 DUP2 DUP6 MSTORE PUSH1 0x20 DUP6 ADD SWAP1 DUP3 DUP5 ADD GT PUSH2 0x1E3 JUMPI PUSH2 0x1E1 SWAP3 PUSH2 0x1A6 JUMP JUMPDEST JUMP JUMPDEST PUSH2 0x120 JUMP JUMPDEST SWAP1 DUP1 PUSH1 0x1F DUP4 ADD SLT ISZERO PUSH2 0x206 JUMPI DUP2 PUSH1 0x20 PUSH2 0x203 SWAP4 CALLDATALOAD SWAP2 ADD PUSH2 0x1B2 JUMP JUMPDEST SWAP1 JUMP JUMPDEST PUSH2 0x11B JUMP JUMPDEST PUSH1 0xFF AND SWAP1 JUMP JUMPDEST PUSH2 0x21A DUP2 PUSH2 0x20B JUMP JUMPDEST SUB PUSH2 0x221 JUMPI JUMP JUMPDEST PUSH1 0x0 DUP1 REVERT JUMPDEST SWAP1 POP CALLDATALOAD SWAP1 PUSH2 0x233 DUP3 PUSH2 0x211 JUMP JUMPDEST JUMP JUMPDEST SWAP1 JUMP JUMPDEST PUSH2 0x241 DUP2 PUSH2 0x235 JUMP JUMPDEST SUB PUSH2 0x248 JUMPI JUMP JUMPDEST PUSH1 0x0 DUP1 REVERT JUMPDEST SWAP1 POP CALLDATALOAD SWAP1 PUSH2 0x25A DUP3 PUSH2 0x238 JUMP JUMPDEST JUMP JUMPDEST PUSH1 0x80 DUP2 DUP4 SUB SLT PUSH2 0x2B6 JUMPI PUSH2 0x273 DUP3 PUSH1 0x0 DUP4 ADD PUSH2 0xB4 JUMP JUMPDEST SWAP3 PUSH1 0x20 DUP3 ADD CALLDATALOAD PUSH8 0xFFFFFFFFFFFFFFFF DUP2 GT PUSH2 0x2B1 JUMPI PUSH2 0x297 DUP5 PUSH2 0x2AE SWAP3 DUP6 ADD PUSH2 0x1E8 JUMP JUMPDEST SWAP4 PUSH2 0x2A5 DUP2 PUSH1 0x40 DUP7 ADD PUSH2 0x226 JUMP JUMPDEST SWAP4 PUSH1 0x60 ADD PUSH2 0x24D JUMP JUMPDEST SWAP1 JUMP JUMPDEST PUSH2 0x83 JUMP JUMPDEST PUSH2 0x7E JUMP JUMPDEST CALLVALUE PUSH2 0x2ED JUMPI PUSH2 0x2D7 PUSH2 0x2CE CALLDATASIZE PUSH1 0x4 PUSH2 0x25C JUMP JUMPDEST SWAP3 SWAP2 SWAP1 SWAP2 PUSH2 0x1461 JUMP JUMPDEST PUSH2 0x2DF PUSH2 0x73 JUMP JUMPDEST DUP1 PUSH2 0x2E9 DUP2 PUSH2 0xE2 JUMP JUMPDEST SUB SWAP1 RETURN JUMPDEST PUSH2 0x79 JUMP JUMPDEST PUSH8 0xFFFFFFFFFFFFFFFF DUP2 GT PUSH2 0x30A JUMPI PUSH1 0x20 DUP1 SWAP2 MUL ADD SWAP1 JUMP JUMPDEST PUSH2 0x12F JUMP JUMPDEST PUSH1 0x0 DUP1 REVERT JUMPDEST PUSH1 0x0 DUP1 REVERT JUMPDEST PUSH1 0x0 DUP1 REVERT JUMPDEST SWAP2 SWAP1 SWAP2 PUSH1 0x60 DUP2 DUP5 SUB SLT PUSH2 0x385 JUMPI PUSH2 0x335 PUSH1 0x60 PUSH2 0x16E JUMP JUMPDEST SWAP3 PUSH1 0x0 DUP3 ADD CALLDATALOAD SWAP2 PUSH8 0xFFFFFFFFFFFFFFFF DUP4 GT PUSH2 0x380 JUMPI PUSH2 0x35A DUP3 PUSH2 0x379 SWAP5 DUP4 ADD PUSH2 0x1E8 JUMP JUMPDEST PUSH1 0x0 DUP7 ADD MSTORE PUSH2 0x36C DUP3 PUSH1 0x20 DUP4 ADD PUSH2 0x226 JUMP JUMPDEST PUSH1 0x20 DUP7 ADD MSTORE PUSH1 0x40 ADD PUSH2 0x24D JUMP JUMPDEST PUSH1 0x40 DUP4 ADD MSTORE JUMP JUMPDEST PUSH2 0x319 JUMP JUMPDEST PUSH2 0x314 JUMP JUMPDEST SWAP3 SWAP2 SWAP1 PUSH2 0x39E PUSH2 0x399 DUP3 PUSH2 0x2F2 JUMP JUMPDEST PUSH2 0x16E JUMP JUMPDEST SWAP4 DUP2 DUP6 MSTORE PUSH1 0x20 DUP1 DUP7 ADD SWAP3 MUL DUP2 ADD SWAP2 DUP4 DUP4 GT PUSH2 0x3F5 JUMPI DUP2 SWAP1 JUMPDEST DUP4 DUP3 LT PUSH2 0x3C4 JUMPI POP POP POP POP POP JUMP JUMPDEST DUP2 CALLDATALOAD PUSH8 0xFFFFFFFFFFFFFFFF DUP2 GT PUSH2 0x3F0 JUMPI PUSH1 0x20 SWAP2 PUSH2 0x3E5 DUP8 DUP5 SWAP4 DUP8 ADD PUSH2 0x31E JUMP JUMPDEST DUP2 MSTORE ADD SWAP2 ADD SWAP1 PUSH2 0x3B6 JUMP JUMPDEST PUSH2 0x11B JUMP JUMPDEST PUSH2 0x30F JUMP JUMPDEST SWAP1 DUP1 PUSH1 0x1F DUP4 ADD SLT ISZERO PUSH2 0x418 JUMPI DUP2 PUSH1 0x20 PUSH2 0x415 SWAP4 CALLDATALOAD SWAP2 ADD PUSH2 0x38A JUMP JUMPDEST SWAP1 JUMP JUMPDEST PUSH2 0x11B JUMP JUMPDEST SWAP2 SWAP1 SWAP2 PUSH1 0x40 DUP2 DUP5 SUB SLT PUSH2 0x45E JUMPI PUSH2 0x437 DUP4 PUSH1 0x0 DUP4 ADD PUSH2 0xB4 JUMP JUMPDEST SWAP3 PUSH1 0x20 DUP3 ADD CALLDATALOAD PUSH8 0xFFFFFFFFFFFFFFFF DUP2 GT PUSH2 0x459 JUMPI PUSH2 0x456 SWAP3 ADD PUSH2 0x3FA JUMP JUMPDEST SWAP1 JUMP JUMPDEST PUSH2 0x83 JUMP JUMPDEST PUSH2 0x7E JUMP JUMPDEST CALLVALUE PUSH2 0x492 JUMPI PUSH2 0x47C PUSH2 0x476 CALLDATASIZE PUSH1 0x4 PUSH2 0x41D JUMP JUMPDEST SWAP1 PUSH2 0x1854 JUMP JUMPDEST PUSH2 0x484 PUSH2 0x73 JUMP JUMPDEST DUP1 PUSH2 0x48E DUP2 PUSH2 0xE2 JUMP JUMPDEST SUB SWAP1 RETURN JUMPDEST PUSH2 0x79 JUMP JUMPDEST SWAP1 PUSH1 0x20 DUP3 DUP3 SUB SLT PUSH2 0x4B1 JUMPI PUSH2 0x4AE SWAP2 PUSH1 0x0 ADD PUSH2 0x24D JUMP JUMPDEST SWAP1 JUMP JUMPDEST PUSH2 0x7E JUMP JUMPDEST PUSH4 0x4E487B71 PUSH1 0xE0 SHL PUSH1 0x0 MSTORE PUSH1 0x32 PUSH1 0x4 MSTORE PUSH1 0x24 PUSH1 0x0 REVERT JUMPDEST SLOAD SWAP1 JUMP JUMPDEST PUSH1 0x0 MSTORE PUSH1 0x20 PUSH1 0x0 KECCAK256 SWAP1 JUMP JUMPDEST PUSH2 0x4E4 DUP2 PUSH2 0x4CC JUMP JUMPDEST DUP3 LT ISZERO PUSH2 0x4FF JUMPI PUSH2 0x4F6 PUSH1 0x5 SWAP2 PUSH2 0x4D0 JUMP JUMPDEST SWAP2 MUL ADD SWAP1 PUSH1 0x0 SWAP1 JUMP JUMPDEST PUSH2 0x4B6 JUMP JUMPDEST PUSH1 0x0 SHR SWAP1 JUMP JUMPDEST PUSH1 0xFF AND SWAP1 JUMP JUMPDEST PUSH2 0x51C PUSH2 0x521 SWAP2 PUSH2 0x504 JUMP JUMPDEST PUSH2 0x50A JUMP JUMPDEST SWAP1 JUMP JUMPDEST PUSH2 0x52E SWAP1 SLOAD PUSH2 0x510 JUMP JUMPDEST SWAP1 JUMP JUMPDEST PUSH4 0x4E487B71 PUSH1 0xE0 SHL PUSH1 0x0 MSTORE PUSH1 0x22 PUSH1 0x4 MSTORE PUSH1 0x24 PUSH1 0x0 REVERT JUMPDEST SWAP1 PUSH1 0x1 PUSH1 0x2 DUP4 DIV SWAP3 AND DUP1 ISZERO PUSH2 0x567 JUMPI JUMPDEST PUSH1 0x20 DUP4 LT EQ PUSH2 0x562 JUMPI JUMP JUMPDEST PUSH2 0x531 JUMP JUMPDEST SWAP2 PUSH1 0x7F AND SWAP2 PUSH2 0x557 JUMP JUMPDEST PUSH1 0x20 SWAP2 DUP2 MSTORE ADD SWAP1 JUMP JUMPDEST PUSH1 0x0 MSTORE PUSH1 0x20 PUSH1 0x0 KECCAK256 SWAP1 JUMP JUMPDEST SWAP1 PUSH1 0x0 SWAP3 SWAP2 DUP1 SLOAD SWAP1 PUSH2 0x5A0 PUSH2 0x599 DUP4 PUSH2 0x547 JUMP JUMPDEST DUP1 SWAP5 PUSH2 0x571 JUMP JUMPDEST SWAP2 PUSH1 0x1 DUP2 AND SWAP1 DUP2 PUSH1 0x0 EQ PUSH2 0x5F9 JUMPI POP PUSH1 0x1 EQ PUSH2 0x5BC JUMPI JUMPDEST POP POP POP JUMP JUMPDEST PUSH2 0x5C9 SWAP2 SWAP3 SWAP4 SWAP5 POP PUSH2 0x57A JUMP JUMPDEST SWAP2 PUSH1 0x0 SWAP3 JUMPDEST DUP2 DUP5 LT PUSH2 0x5E1 JUMPI POP POP ADD SWAP1 CODESIZE DUP1 DUP1 PUSH2 0x5B7 JUMP JUMPDEST PUSH1 0x1 DUP2 PUSH1 0x20 SWAP3 SWAP6 SWAP4 SWAP6 SLOAD DUP5 DUP7 ADD MSTORE ADD SWAP2 ADD SWAP3 SWAP1 PUSH2 0x5CE JUMP JUMPDEST SWAP3 SWAP5 SWAP6 POP POP POP PUSH1 0xFF NOT AND DUP3 MSTORE ISZERO ISZERO PUSH1 0x20 MUL ADD SWAP1 CODESIZE DUP1 DUP1 PUSH2 0x5B7 JUMP JUMPDEST SWAP1 PUSH2 0x61E SWAP2 PUSH2 0x585 JUMP JUMPDEST SWAP1 JUMP JUMPDEST SWAP1 PUSH2 0x641 PUSH2 0x63A SWAP3 PUSH2 0x631 PUSH2 0x73 JUMP JUMPDEST SWAP4 DUP5 DUP1 SWAP3 PUSH2 0x614 JUMP JUMPDEST SUB DUP4 PUSH2 0x145 JUMP JUMPDEST JUMP JUMPDEST PUSH1 0x8 SHR SWAP1 JUMP JUMPDEST PUSH2 0xFFFF AND SWAP1 JUMP JUMPDEST PUSH2 0x65C PUSH2 0x661 SWAP2 PUSH2 0x643 JUMP JUMPDEST PUSH2 0x649 JUMP JUMPDEST SWAP1 JUMP JUMPDEST PUSH2 0x66E SWAP1 SLOAD PUSH2 0x650 JUMP JUMPDEST SWAP1 JUMP JUMPDEST PUSH1 0x18 SHR SWAP1 JUMP JUMPDEST PUSH2 0x683 PUSH2 0x688 SWAP2 PUSH2 0x671 JUMP JUMPDEST PUSH2 0x649 JUMP JUMPDEST SWAP1 JUMP JUMPDEST PUSH2 0x695 SWAP1 SLOAD PUSH2 0x677 JUMP JUMPDEST SWAP1 JUMP JUMPDEST PUSH1 0x28 SHR SWAP1 JUMP JUMPDEST PUSH1 0xFF AND SWAP1 JUMP JUMPDEST PUSH2 0x6B0 PUSH2 0x6B5 SWAP2 PUSH2 0x698 JUMP JUMPDEST PUSH2 0x69E JUMP JUMPDEST SWAP1 JUMP JUMPDEST PUSH2 0x6C2 SWAP1 SLOAD PUSH2 0x6A4 JUMP JUMPDEST SWAP1 JUMP JUMPDEST SWAP1 JUMP JUMPDEST PUSH2 0x6D4 PUSH2 0x6D9 SWAP2 PUSH2 0x504 JUMP JUMPDEST PUSH2 0x6C5 JUMP JUMPDEST SWAP1 JUMP JUMPDEST PUSH2 0x6E6 SWAP1 SLOAD PUSH2 0x6C8 JUMP JUMPDEST SWAP1 JUMP JUMPDEST PUSH1 0x0 SWAP1 PUSH2 0x6F5 DUP3 PUSH2 0x4CC JUMP JUMPDEST DUP2 LT ISZERO PUSH2 0x770 JUMPI PUSH2 0x705 SWAP2 PUSH2 0x4DB JUMP JUMPDEST POP SWAP1 PUSH2 0x713 PUSH1 0x0 DUP4 ADD PUSH2 0x524 JUMP JUMPDEST SWAP2 PUSH2 0x720 PUSH1 0x1 DUP3 ADD PUSH2 0x621 JUMP JUMPDEST SWAP2 PUSH2 0x72D PUSH1 0x2 DUP4 ADD PUSH2 0x621 JUMP JUMPDEST SWAP2 PUSH2 0x73A PUSH1 0x3 DUP3 ADD PUSH2 0x524 JUMP JUMPDEST SWAP2 PUSH2 0x747 PUSH1 0x3 DUP4 ADD PUSH2 0x664 JUMP JUMPDEST SWAP2 PUSH2 0x754 PUSH1 0x3 DUP3 ADD PUSH2 0x68B JUMP JUMPDEST SWAP2 PUSH2 0x76D PUSH1 0x4 PUSH2 0x766 PUSH1 0x3 DUP6 ADD PUSH2 0x6B8 JUMP JUMPDEST SWAP4 ADD PUSH2 0x6DC JUMP JUMPDEST SWAP1 JUMP JUMPDEST PUSH1 0x0 DUP1 REVERT JUMPDEST PUSH2 0x77E SWAP1 PUSH2 0x20B JUMP JUMPDEST SWAP1 MSTORE JUMP JUMPDEST MLOAD SWAP1 JUMP JUMPDEST PUSH1 0x20 SWAP2 DUP2 MSTORE ADD SWAP1 JUMP JUMPDEST PUSH1 0x0 JUMPDEST DUP4 DUP2 LT PUSH2 0x7A3 JUMPI POP POP SWAP1 PUSH1 0x0 SWAP2 ADD MSTORE JUMP JUMPDEST DUP1 PUSH1 0x20 SWAP2 DUP4 ADD MLOAD DUP2 DUP6 ADD MSTORE ADD PUSH2 0x792 JUMP JUMPDEST PUSH2 0x7D3 PUSH2 0x7DC PUSH1 0x20 SWAP4 PUSH2 0x7E1 SWAP4 PUSH2 0x7CA DUP2 PUSH2 0x782 JUMP JUMPDEST SWAP4 DUP5 DUP1 SWAP4 PUSH2 0x786 JUMP JUMPDEST SWAP6 DUP7 SWAP2 ADD PUSH2 0x78F JUMP JUMPDEST PUSH2 0x125 JUMP JUMPDEST ADD SWAP1 JUMP JUMPDEST PUSH2 0xFFFF AND SWAP1 JUMP JUMPDEST PUSH2 0x7F5 SWAP1 PUSH2 0x7E5 JUMP JUMPDEST SWAP1 MSTORE JUMP JUMPDEST PUSH4 0x4E487B71 PUSH1 0xE0 SHL PUSH1 0x0 MSTORE PUSH1 0x21 PUSH1 0x4 MSTORE PUSH1 0x24 PUSH1 0x0 REVERT JUMPDEST PUSH1 0x2 GT ISZERO PUSH2 0x819 JUMPI JUMP JUMPDEST PUSH2 0x7F9 JUMP JUMPDEST SWAP1 PUSH2 0x828 DUP3 PUSH2 0x80F JUMP JUMPDEST JUMP JUMPDEST PUSH2 0x833 SWAP1 PUSH2 0x81E JUMP JUMPDEST SWAP1 JUMP JUMPDEST PUSH2 0x83F SWAP1 PUSH2 0x82A JUMP JUMPDEST SWAP1 MSTORE JUMP JUMPDEST PUSH2 0x84C SWAP1 PUSH2 0x235 JUMP JUMPDEST SWAP1 MSTORE JUMP JUMPDEST SWAP4 SWAP9 SWAP8 SWAP6 PUSH2 0x8B4 PUSH1 0xE0 SWAP7 PUSH2 0x8AA PUSH2 0x89F PUSH2 0x8C8 SWAP8 PUSH2 0x891 DUP11 PUSH2 0x8CF SWAP15 SWAP10 PUSH2 0x883 PUSH2 0x8BE SWAP11 PUSH1 0x0 PUSH2 0x100 DUP6 ADD SWAP5 ADD SWAP1 PUSH2 0x775 JUMP JUMPDEST DUP13 PUSH1 0x20 DUP2 DUP5 SUB SWAP2 ADD MSTORE PUSH2 0x7B4 JUMP JUMPDEST SWAP1 DUP11 DUP3 SUB PUSH1 0x40 DUP13 ADD MSTORE PUSH2 0x7B4 JUMP JUMPDEST SWAP13 PUSH1 0x60 DUP10 ADD SWAP1 PUSH2 0x775 JUMP JUMPDEST PUSH1 0x80 DUP8 ADD SWAP1 PUSH2 0x7EC JUMP JUMPDEST PUSH1 0xA0 DUP6 ADD SWAP1 PUSH2 0x7EC JUMP JUMPDEST PUSH1 0xC0 DUP4 ADD SWAP1 PUSH2 0x836 JUMP JUMPDEST ADD SWAP1 PUSH2 0x843 JUMP JUMPDEST JUMP JUMPDEST CALLVALUE PUSH2 0x90B JUMPI PUSH2 0x907 PUSH2 0x8EC PUSH2 0x8E7 CALLDATASIZE PUSH1 0x4 PUSH2 0x497 JUMP JUMPDEST PUSH2 0x6E9 JUMP JUMPDEST SWAP5 PUSH2 0x8FE SWAP9 SWAP7 SWAP9 SWAP5 SWAP2 SWAP5 SWAP4 SWAP3 SWAP4 PUSH2 0x73 JUMP JUMPDEST SWAP9 DUP10 SWAP9 DUP10 PUSH2 0x850 JUMP JUMPDEST SUB SWAP1 RETURN JUMPDEST PUSH2 0x79 JUMP JUMPDEST MLOAD SWAP1 JUMP JUMPDEST PUSH1 0x20 SWAP2 DUP2 MSTORE ADD SWAP1 JUMP JUMPDEST PUSH1 0x20 ADD SWAP1 JUMP JUMPDEST PUSH2 0x92C SWAP1 PUSH2 0x20B JUMP JUMPDEST SWAP1 MSTORE JUMP JUMPDEST PUSH2 0x94F PUSH2 0x958 PUSH1 0x20 SWAP4 PUSH2 0x95D SWAP4 PUSH2 0x946 DUP2 PUSH2 0x782 JUMP JUMPDEST SWAP4 DUP5 DUP1 SWAP4 PUSH2 0x571 JUMP JUMPDEST SWAP6 DUP7 SWAP2 ADD PUSH2 0x78F JUMP JUMPDEST PUSH2 0x125 JUMP JUMPDEST ADD SWAP1 JUMP JUMPDEST PUSH2 0x96A SWAP1 PUSH2 0x7E5 JUMP JUMPDEST SWAP1 MSTORE JUMP JUMPDEST PUSH2 0x977 SWAP1 PUSH2 0x82A JUMP JUMPDEST SWAP1 MSTORE JUMP JUMPDEST PUSH2 0x984 SWAP1 PUSH2 0x235 JUMP JUMPDEST SWAP1 MSTORE JUMP JUMPDEST SWAP1 PUSH2 0xA24 SWAP1 PUSH1 0xE0 DUP1 PUSH2 0x9D1 PUSH2 0x9BF PUSH2 0x100 DUP6 ADD PUSH2 0x9AD PUSH1 0x0 DUP10 ADD MLOAD PUSH1 0x0 DUP9 ADD SWAP1 PUSH2 0x923 JUMP JUMPDEST PUSH1 0x20 DUP9 ADD MLOAD DUP7 DUP3 SUB PUSH1 0x20 DUP9 ADD MSTORE PUSH2 0x930 JUMP JUMPDEST PUSH1 0x40 DUP8 ADD MLOAD DUP6 DUP3 SUB PUSH1 0x40 DUP8 ADD MSTORE PUSH2 0x930 JUMP JUMPDEST SWAP5 PUSH2 0x9E4 PUSH1 0x60 DUP3 ADD MLOAD PUSH1 0x60 DUP7 ADD SWAP1 PUSH2 0x923 JUMP JUMPDEST PUSH2 0x9F6 PUSH1 0x80 DUP3 ADD MLOAD PUSH1 0x80 DUP7 ADD SWAP1 PUSH2 0x961 JUMP JUMPDEST PUSH2 0xA08 PUSH1 0xA0 DUP3 ADD MLOAD PUSH1 0xA0 DUP7 ADD SWAP1 PUSH2 0x961 JUMP JUMPDEST PUSH2 0xA1A PUSH1 0xC0 DUP3 ADD MLOAD PUSH1 0xC0 DUP7 ADD SWAP1 PUSH2 0x96E JUMP JUMPDEST ADD MLOAD SWAP2 ADD SWAP1 PUSH2 0x97B JUMP JUMPDEST SWAP1 JUMP JUMPDEST SWAP1 PUSH2 0xA31 SWAP2 PUSH2 0x988 JUMP JUMPDEST SWAP1 JUMP JUMPDEST PUSH1 0x20 ADD SWAP1 JUMP JUMPDEST SWAP1 PUSH2 0xA4E PUSH2 0xA47 DUP4 PUSH2 0x910 JUMP JUMPDEST DUP1 SWAP3 PUSH2 0x914 JUMP JUMPDEST SWAP1 DUP2 PUSH2 0xA5F PUSH1 0x20 DUP4 MUL DUP5 ADD SWAP5 PUSH2 0x91D JUMP JUMPDEST SWAP3 PUSH1 0x0 SWAP2 JUMPDEST DUP4 DUP4 LT PUSH2 0xA73 JUMPI POP POP POP POP POP SWAP1 JUMP JUMPDEST SWAP1 SWAP2 SWAP3 SWAP4 SWAP5 PUSH1 0x20 PUSH2 0xA95 PUSH2 0xA8F DUP4 DUP6 PUSH1 0x1 SWAP6 SUB DUP8 MSTORE DUP10 MLOAD PUSH2 0xA27 JUMP JUMPDEST SWAP8 PUSH2 0xA34 JUMP JUMPDEST SWAP4 ADD SWAP4 ADD SWAP2 SWAP4 SWAP3 SWAP1 PUSH2 0xA64 JUMP JUMPDEST PUSH2 0xAD2 SWAP2 PUSH1 0x20 PUSH2 0xAC1 PUSH1 0x40 DUP4 ADD PUSH1 0x0 DUP6 ADD MLOAD DUP5 DUP3 SUB PUSH1 0x0 DUP7 ADD MSTORE PUSH2 0xA3A JUMP JUMPDEST SWAP3 ADD MLOAD SWAP1 PUSH1 0x20 DUP2 DUP5 SUB SWAP2 ADD MSTORE PUSH2 0xA3A JUMP JUMPDEST SWAP1 JUMP JUMPDEST PUSH2 0xAEB SWAP2 PUSH1 0x20 DUP3 ADD SWAP2 PUSH1 0x0 DUP2 DUP5 SUB SWAP2 ADD MSTORE PUSH2 0xAA2 JUMP JUMPDEST SWAP1 JUMP JUMPDEST CALLVALUE PUSH2 0xB1E JUMPI PUSH2 0xB1A PUSH2 0xB09 PUSH2 0xB04 CALLDATASIZE PUSH1 0x4 PUSH2 0xC3 JUMP JUMPDEST PUSH2 0x1E11 JUMP JUMPDEST PUSH2 0xB11 PUSH2 0x73 JUMP JUMPDEST SWAP2 DUP3 SWAP2 DUP3 PUSH2 0xAD5 JUMP JUMPDEST SUB SWAP1 RETURN JUMPDEST PUSH2 0x79 JUMP JUMPDEST PUSH1 0x0 DUP1 REVERT JUMPDEST SWAP1 JUMP JUMPDEST SWAP1 JUMP JUMPDEST PUSH2 0xB42 PUSH2 0xB3D PUSH2 0xB47 SWAP3 PUSH2 0xB28 JUMP JUMPDEST PUSH2 0xB2B JUMP JUMPDEST PUSH2 0x88 JUMP JUMPDEST SWAP1 JUMP JUMPDEST PUSH2 0xB53 SWAP1 PUSH2 0xB2E JUMP JUMPDEST SWAP1 JUMP JUMPDEST PUSH1 0x0 PUSH32 0x496E76616C696420616464726573730000000000000000000000000000000000 SWAP2 ADD MSTORE JUMP JUMPDEST PUSH2 0xB8B PUSH1 0xF PUSH1 0x20 SWAP3 PUSH2 0x786 JUMP JUMPDEST PUSH2 0xB94 DUP2 PUSH2 0xB56 JUMP JUMPDEST ADD SWAP1 JUMP JUMPDEST PUSH2 0xBAE SWAP1 PUSH1 0x20 DUP2 ADD SWAP1 PUSH1 0x0 DUP2 DUP4 SUB SWAP2 ADD MSTORE PUSH2 0xB7E JUMP JUMPDEST SWAP1 JUMP JUMPDEST ISZERO PUSH2 0xBB8 JUMPI JUMP JUMPDEST PUSH2 0xBC0 PUSH2 0x73 JUMP JUMPDEST PUSH3 0x461BCD PUSH1 0xE5 SHL DUP2 MSTORE DUP1 PUSH2 0xBD6 PUSH1 0x4 DUP3 ADD PUSH2 0xB98 JUMP JUMPDEST SUB SWAP1 REVERT JUMPDEST PUSH2 0xBEE PUSH2 0xBE9 PUSH2 0xBF3 SWAP3 PUSH2 0xB28 JUMP JUMPDEST PUSH2 0xB2B JUMP JUMPDEST PUSH2 0x235 JUMP JUMPDEST SWAP1 JUMP JUMPDEST PUSH1 0x1 PUSH2 0xC02 SWAP2 ADD PUSH2 0x235 JUMP JUMPDEST SWAP1 JUMP JUMPDEST PUSH2 0xC19 PUSH2 0xC14 PUSH2 0xC1E SWAP3 PUSH2 0x88 JUMP JUMPDEST PUSH2 0xB2B JUMP JUMPDEST PUSH2 0x88 JUMP JUMPDEST SWAP1 JUMP JUMPDEST PUSH2 0xC2A SWAP1 PUSH2 0xC05 JUMP JUMPDEST SWAP1 JUMP JUMPDEST PUSH2 0xC36 SWAP1 PUSH2 0xC21 JUMP JUMPDEST SWAP1 JUMP JUMPDEST SWAP1 PUSH2 0xC43 SWAP1 PUSH2 0xC2D JUMP JUMPDEST PUSH1 0x0 MSTORE PUSH1 0x20 MSTORE PUSH1 0x40 PUSH1 0x0 KECCAK256 SWAP1 JUMP JUMPDEST SWAP1 JUMP JUMPDEST PUSH1 0x0 MSTORE PUSH1 0x20 PUSH1 0x0 KECCAK256 SWAP1 JUMP JUMPDEST SLOAD SWAP1 JUMP JUMPDEST PUSH2 0xC6C DUP2 PUSH2 0xC5F JUMP JUMPDEST DUP3 LT ISZERO PUSH2 0xC87 JUMPI PUSH2 0xC7E PUSH1 0x5 SWAP2 PUSH2 0xC54 JUMP JUMPDEST SWAP2 MUL ADD SWAP1 PUSH1 0x0 SWAP1 JUMP JUMPDEST PUSH2 0x4B6 JUMP JUMPDEST PUSH4 0x4E487B71 PUSH1 0xE0 SHL PUSH1 0x0 MSTORE PUSH1 0x0 PUSH1 0x4 MSTORE PUSH1 0x24 PUSH1 0x0 REVERT JUMPDEST PUSH1 0x0 SHL SWAP1 JUMP JUMPDEST SWAP1 PUSH2 0xCB4 PUSH1 0xFF SWAP2 PUSH2 0xCA2 JUMP JUMPDEST SWAP2 DUP2 NOT AND SWAP2 AND OR SWAP1 JUMP JUMPDEST PUSH2 0xCD2 PUSH2 0xCCD PUSH2 0xCD7 SWAP3 PUSH2 0x20B JUMP JUMPDEST PUSH2 0xB2B JUMP JUMPDEST PUSH2 0x20B JUMP JUMPDEST SWAP1 JUMP JUMPDEST SWAP1 JUMP JUMPDEST SWAP1 PUSH2 0xCF2 PUSH2 0xCED PUSH2 0xCF9 SWAP3 PUSH2 0xCBE JUMP JUMPDEST PUSH2 0xCDA JUMP JUMPDEST DUP3 SLOAD PUSH2 0xCA8 JUMP JUMPDEST SWAP1 SSTORE JUMP JUMPDEST PUSH2 0xD07 SWAP1 SLOAD PUSH2 0x547 JUMP JUMPDEST SWAP1 JUMP JUMPDEST PUSH1 0x1F PUSH1 0x20 SWAP2 ADD DIV SWAP1 JUMP JUMPDEST SHL SWAP1 JUMP JUMPDEST SWAP2 SWAP1 PUSH1 0x8 PUSH2 0xD34 SWAP2 MUL SWAP2 PUSH2 0xD2E PUSH1 0x0 NOT DUP5 PUSH2 0xD14 JUMP JUMPDEST SWAP3 PUSH2 0xD14 JUMP JUMPDEST SWAP2 DUP2 NOT AND SWAP2 AND OR SWAP1 JUMP JUMPDEST PUSH2 0xD52 PUSH2 0xD4D PUSH2 0xD57 SWAP3 PUSH2 0x235 JUMP JUMPDEST PUSH2 0xB2B JUMP JUMPDEST PUSH2 0x235 JUMP JUMPDEST SWAP1 JUMP JUMPDEST SWAP1 JUMP JUMPDEST SWAP2 SWAP1 PUSH2 0xD73 PUSH2 0xD6E PUSH2 0xD7B SWAP4 PUSH2 0xD3E JUMP JUMPDEST PUSH2 0xD5A JUMP JUMPDEST SWAP1 DUP4 SLOAD PUSH2 0xD18 JUMP JUMPDEST SWAP1 SSTORE JUMP JUMPDEST PUSH1 0x0 SWAP1 JUMP JUMPDEST PUSH2 0xD96 SWAP2 PUSH2 0xD90 PUSH2 0xD7F JUMP JUMPDEST SWAP2 PUSH2 0xD5D JUMP JUMPDEST JUMP JUMPDEST JUMPDEST DUP2 DUP2 LT PUSH2 0xDA4 JUMPI POP POP JUMP JUMPDEST DUP1 PUSH2 0xDB2 PUSH1 0x0 PUSH1 0x1 SWAP4 PUSH2 0xD84 JUMP JUMPDEST ADD PUSH2 0xD99 JUMP JUMPDEST SWAP2 SWAP1 PUSH1 0x1F DUP2 GT PUSH2 0xDC8 JUMPI JUMPDEST POP POP POP JUMP JUMPDEST PUSH2 0xDD4 PUSH2 0xDF9 SWAP4 PUSH2 0x57A JUMP JUMPDEST SWAP1 PUSH1 0x20 PUSH2 0xDE0 DUP5 PUSH2 0xD0A JUMP JUMPDEST DUP4 ADD SWAP4 LT PUSH2 0xE01 JUMPI JUMPDEST PUSH2 0xDF2 SWAP1 PUSH2 0xD0A JUMP JUMPDEST ADD SWAP1 PUSH2 0xD98 JUMP JUMPDEST CODESIZE DUP1 DUP1 PUSH2 0xDC3 JUMP JUMPDEST SWAP2 POP PUSH2 0xDF2 DUP2 SWAP3 SWAP1 POP PUSH2 0xDE9 JUMP JUMPDEST SHR SWAP1 JUMP JUMPDEST SWAP1 PUSH2 0xE24 SWAP1 PUSH1 0x0 NOT SWAP1 PUSH1 0x8 MUL PUSH2 0xE0F JUMP JUMPDEST NOT AND SWAP1 JUMP JUMPDEST DUP2 PUSH2 0xE33 SWAP2 PUSH2 0xE13 JUMP JUMPDEST SWAP1 PUSH1 0x2 MUL OR SWAP1 JUMP JUMPDEST SWAP1 DUP1 DUP3 EQ PUSH2 0xF1D JUMPI PUSH2 0xE4C DUP2 PUSH2 0xCFD JUMP JUMPDEST SWAP1 PUSH8 0xFFFFFFFFFFFFFFFF DUP3 GT PUSH2 0xF18 JUMPI PUSH2 0xE70 DUP3 PUSH2 0xE6A DUP6 SLOAD PUSH2 0x547 JUMP JUMPDEST DUP6 PUSH2 0xDB8 JUMP JUMPDEST PUSH1 0x0 SWAP1 PUSH1 0x1F DUP4 GT PUSH1 0x1 EQ PUSH2 0xEA5 JUMPI SWAP2 DUP1 SWAP2 PUSH2 0xE94 SWAP4 PUSH1 0x0 SWAP3 PUSH2 0xE99 JUMPI JUMPDEST POP POP PUSH2 0xE29 JUMP JUMPDEST SWAP1 SSTORE JUMPDEST JUMP JUMPDEST SWAP1 SWAP2 POP ADD SLOAD CODESIZE DUP1 PUSH2 0xE8D JUMP JUMPDEST SWAP1 PUSH2 0xEB4 PUSH1 0x1F NOT DUP5 AND SWAP3 PUSH2 0x57A JUMP JUMPDEST SWAP1 PUSH2 0xEBE DUP6 PUSH2 0x57A JUMP JUMPDEST SWAP3 PUSH1 0x0 JUMPDEST DUP2 DUP2 LT PUSH2 0xF00 JUMPI POP SWAP2 PUSH1 0x2 SWAP4 SWAP2 DUP6 PUSH1 0x1 SWAP7 SWAP5 LT PUSH2 0xEE6 JUMPI JUMPDEST POP POP POP MUL ADD SWAP1 SSTORE PUSH2 0xE97 JUMP JUMPDEST PUSH2 0xEF6 SWAP2 ADD SLOAD PUSH1 0x1F DUP5 AND SWAP1 PUSH2 0xE13 JUMP JUMPDEST SWAP1 SSTORE CODESIZE DUP1 DUP1 PUSH2 0xEDA JUMP JUMPDEST SWAP2 SWAP4 PUSH1 0x1 DUP1 PUSH1 0x20 SWAP3 DUP8 DUP8 ADD SLOAD DUP2 SSTORE ADD SWAP6 ADD SWAP3 ADD PUSH2 0xEC2 JUMP JUMPDEST PUSH2 0x12F JUMP JUMPDEST POP POP JUMP JUMPDEST SWAP1 PUSH2 0xF2B SWAP2 PUSH2 0xE3B JUMP JUMPDEST JUMP JUMPDEST PUSH1 0x8 SHL SWAP1 JUMP JUMPDEST SWAP1 PUSH2 0xF41 PUSH3 0xFFFF00 SWAP2 PUSH2 0xF2D JUMP JUMPDEST SWAP2 DUP2 NOT AND SWAP2 AND OR SWAP1 JUMP JUMPDEST PUSH2 0xF5F PUSH2 0xF5A PUSH2 0xF64 SWAP3 PUSH2 0x7E5 JUMP JUMPDEST PUSH2 0xB2B JUMP JUMPDEST PUSH2 0x7E5 JUMP JUMPDEST SWAP1 JUMP JUMPDEST SWAP1 JUMP JUMPDEST SWAP1 PUSH2 0xF7F PUSH2 0xF7A PUSH2 0xF86 SWAP3 PUSH2 0xF4B JUMP JUMPDEST PUSH2 0xF67 JUMP JUMPDEST DUP3 SLOAD PUSH2 0xF33 JUMP JUMPDEST SWAP1 SSTORE JUMP JUMPDEST PUSH1 0x18 SHL SWAP1 JUMP JUMPDEST SWAP1 PUSH2 0xFA0 PUSH5 0xFFFF000000 SWAP2 PUSH2 0xF8A JUMP JUMPDEST SWAP2 DUP2 NOT AND SWAP2 AND OR SWAP1 JUMP JUMPDEST SWAP1 PUSH2 0xFBF PUSH2 0xFBA PUSH2 0xFC6 SWAP3 PUSH2 0xF4B JUMP JUMPDEST PUSH2 0xF67 JUMP JUMPDEST DUP3 SLOAD PUSH2 0xF90 JUMP JUMPDEST SWAP1 SSTORE JUMP JUMPDEST PUSH1 0x28 SHL SWAP1 JUMP JUMPDEST SWAP1 PUSH2 0xFE1 PUSH6 0xFF0000000000 SWAP2 PUSH2 0xFCA JUMP JUMPDEST SWAP2 DUP2 NOT AND SWAP2 AND OR SWAP1 JUMP JUMPDEST PUSH2 0xFF4 SWAP1 PUSH2 0x81E JUMP JUMPDEST SWAP1 JUMP JUMPDEST SWAP1 JUMP JUMPDEST SWAP1 PUSH2 0x100F PUSH2 0x100A PUSH2 0x1016 SWAP3 PUSH2 0xFEB JUMP JUMPDEST PUSH2 0xFF7 JUMP JUMPDEST DUP3 SLOAD PUSH2 0xFD0 JUMP JUMPDEST SWAP1 SSTORE JUMP JUMPDEST SWAP1 PUSH2 0x1027 PUSH1 0x0 NOT SWAP2 PUSH2 0xCA2 JUMP JUMPDEST SWAP2 DUP2 NOT AND SWAP2 AND OR SWAP1 JUMP JUMPDEST SWAP1 PUSH2 0x1046 PUSH2 0x1041 PUSH2 0x104D SWAP3 PUSH2 0xD3E JUMP JUMPDEST PUSH2 0xD5A JUMP JUMPDEST DUP3 SLOAD PUSH2 0x101A JUMP JUMPDEST SWAP1 SSTORE JUMP JUMPDEST SWAP1 DUP1 DUP3 SUB PUSH2 0x105E JUMPI JUMPDEST POP POP JUMP JUMPDEST PUSH2 0x110F PUSH1 0x4 DUP1 DUP5 PUSH2 0x1081 PUSH1 0x0 PUSH2 0x1115 SWAP8 ADD PUSH2 0x107B PUSH1 0x0 DUP9 ADD PUSH2 0x524 JUMP JUMPDEST SWAP1 PUSH2 0xCDD JUMP JUMPDEST PUSH2 0x1092 PUSH1 0x1 DUP3 ADD PUSH1 0x1 DUP8 ADD SWAP1 PUSH2 0xF21 JUMP JUMPDEST PUSH2 0x10A3 PUSH1 0x2 DUP3 ADD PUSH1 0x2 DUP8 ADD SWAP1 PUSH2 0xF21 JUMP JUMPDEST PUSH2 0x10BC PUSH1 0x3 DUP3 ADD PUSH2 0x10B6 PUSH1 0x3 DUP9 ADD PUSH2 0x524 JUMP JUMPDEST SWAP1 PUSH2 0xCDD JUMP JUMPDEST PUSH2 0x10D5 PUSH1 0x3 DUP3 ADD PUSH2 0x10CF PUSH1 0x3 DUP9 ADD PUSH2 0x664 JUMP JUMPDEST SWAP1 PUSH2 0xF6A JUMP JUMPDEST PUSH2 0x10EE PUSH1 0x3 DUP3 ADD PUSH2 0x10E8 PUSH1 0x3 DUP9 ADD PUSH2 0x68B JUMP JUMPDEST SWAP1 PUSH2 0xFAA JUMP JUMPDEST PUSH2 0x1107 PUSH1 0x3 DUP3 ADD PUSH2 0x1101 PUSH1 0x3 DUP9 ADD PUSH2 0x6B8 JUMP JUMPDEST SWAP1 PUSH2 0xFFA JUMP JUMPDEST ADD SWAP3 ADD PUSH2 0x6DC JUMP JUMPDEST SWAP1 PUSH2 0x1031 JUMP JUMPDEST CODESIZE DUP1 PUSH2 0x105A JUMP JUMPDEST SWAP2 SWAP1 PUSH2 0x112D JUMPI PUSH2 0x112B SWAP2 PUSH2 0x1051 JUMP JUMPDEST JUMP JUMPDEST PUSH2 0xC8C JUMP JUMPDEST SWAP1 DUP2 SLOAD SWAP2 PUSH9 0x10000000000000000 DUP4 LT ISZERO PUSH2 0x1162 JUMPI DUP3 PUSH2 0x115A SWAP2 PUSH1 0x1 PUSH2 0x1160 SWAP6 ADD DUP2 SSTORE PUSH2 0xC63 JUMP JUMPDEST SWAP1 PUSH2 0x111C JUMP JUMPDEST JUMP JUMPDEST PUSH2 0x12F JUMP JUMPDEST SWAP1 PUSH2 0x118E DUP3 PUSH2 0x1187 PUSH2 0x1181 PUSH2 0x117C PUSH1 0x0 PUSH2 0xB4A JUMP JUMPDEST PUSH2 0x93 JUMP JUMPDEST SWAP2 PUSH2 0x93 JUMP JUMPDEST EQ ISZERO PUSH2 0xBB1 JUMP JUMPDEST PUSH2 0x1198 PUSH1 0x0 PUSH2 0xBDA JUMP JUMPDEST JUMPDEST DUP1 PUSH2 0x11B5 PUSH2 0x11AF PUSH2 0x11AA PUSH1 0x0 PUSH2 0x4CC JUMP JUMPDEST PUSH2 0x235 JUMP JUMPDEST SWAP2 PUSH2 0x235 JUMP JUMPDEST LT ISZERO PUSH2 0x11F3 JUMPI PUSH2 0x11EE SWAP1 PUSH2 0x11E9 PUSH2 0x11D6 PUSH2 0x11D1 PUSH1 0x1 DUP8 SWAP1 PUSH2 0xC39 JUMP JUMPDEST PUSH2 0xC51 JUMP JUMPDEST PUSH2 0x11E2 PUSH1 0x0 DUP5 SWAP1 PUSH2 0x4DB JUMP JUMPDEST POP SWAP1 PUSH2 0x1132 JUMP JUMPDEST PUSH2 0xBF6 JUMP JUMPDEST PUSH2 0x1199 JUMP JUMPDEST POP SWAP1 POP JUMP JUMPDEST PUSH2 0x120C PUSH2 0x1207 PUSH2 0x1211 SWAP3 PUSH2 0xB28 JUMP JUMPDEST PUSH2 0xB2B JUMP JUMPDEST PUSH2 0x20B JUMP JUMPDEST SWAP1 JUMP JUMPDEST PUSH1 0x0 PUSH32 0x496E76616C696420636861707465720000000000000000000000000000000000 SWAP2 ADD MSTORE JUMP JUMPDEST PUSH2 0x1249 PUSH1 0xF PUSH1 0x20 SWAP3 PUSH2 0x786 JUMP JUMPDEST PUSH2 0x1252 DUP2 PUSH2 0x1214 JUMP JUMPDEST ADD SWAP1 JUMP JUMPDEST PUSH2 0x126C SWAP1 PUSH1 0x20 DUP2 ADD SWAP1 PUSH1 0x0 DUP2 DUP4 SUB SWAP2 ADD MSTORE PUSH2 0x123C JUMP JUMPDEST SWAP1 JUMP JUMPDEST ISZERO PUSH2 0x1276 JUMPI JUMP JUMPDEST PUSH2 0x127E PUSH2 0x73 JUMP JUMPDEST PUSH3 0x461BCD PUSH1 0xE5 SHL DUP2 MSTORE DUP1 PUSH2 0x1294 PUSH1 0x4 DUP3 ADD PUSH2 0x1256 JUMP JUMPDEST SUB SWAP1 REVERT JUMPDEST SWAP1 POP SWAP1 JUMP JUMPDEST SWAP1 PUSH1 0x0 SWAP3 SWAP2 DUP1 SLOAD SWAP1 PUSH2 0x12B8 PUSH2 0x12B1 DUP4 PUSH2 0x547 JUMP JUMPDEST DUP1 SWAP5 PUSH2 0x1298 JUMP JUMPDEST SWAP2 PUSH1 0x1 DUP2 AND SWAP1 DUP2 PUSH1 0x0 EQ PUSH2 0x130C JUMPI POP PUSH1 0x1 EQ PUSH2 0x12D4 JUMPI JUMPDEST POP POP POP JUMP JUMPDEST PUSH2 0x12E1 SWAP2 SWAP3 SWAP4 SWAP5 POP PUSH2 0x57A JUMP JUMPDEST PUSH1 0x0 SWAP1 JUMPDEST DUP4 DUP3 LT PUSH2 0x12F8 JUMPI POP POP ADD SWAP1 CODESIZE DUP1 DUP1 PUSH2 0x12CF JUMP JUMPDEST PUSH1 0x1 DUP2 PUSH1 0x20 SWAP3 SLOAD DUP5 DUP7 ADD MSTORE ADD SWAP2 ADD SWAP1 PUSH2 0x12E5 JUMP JUMPDEST SWAP3 SWAP5 SWAP6 POP POP POP PUSH1 0xFF NOT AND DUP3 MSTORE DUP1 ISZERO ISZERO MUL ADD SWAP1 CODESIZE DUP1 DUP1 PUSH2 0x12CF JUMP JUMPDEST PUSH2 0x132F SWAP2 PUSH2 0x129D JUMP JUMPDEST SWAP1 JUMP JUMPDEST PUSH1 0x20 ADD SWAP1 JUMP JUMPDEST MLOAD SWAP1 JUMP JUMPDEST PUSH2 0x1361 PUSH2 0x1358 SWAP3 PUSH1 0x20 SWAP3 PUSH2 0x134F DUP2 PUSH2 0x782 JUMP JUMPDEST SWAP5 DUP6 DUP1 SWAP4 PUSH2 0x1298 JUMP JUMPDEST SWAP4 DUP5 SWAP2 ADD PUSH2 0x78F JUMP JUMPDEST ADD SWAP1 JUMP JUMPDEST PUSH2 0x136E SWAP2 PUSH2 0x133C JUMP JUMPDEST SWAP1 JUMP JUMPDEST SWAP1 JUMP JUMPDEST PUSH1 0x40 SWAP1 PUSH2 0x13A1 PUSH2 0x1396 PUSH2 0x13A8 SWAP6 SWAP8 SWAP7 SWAP5 PUSH1 0x60 DUP5 ADD SWAP1 DUP5 DUP3 SUB PUSH1 0x0 DUP7 ADD MSTORE PUSH2 0x7B4 JUMP JUMPDEST SWAP7 PUSH1 0x20 DUP4 ADD SWAP1 PUSH2 0x775 JUMP JUMPDEST ADD SWAP1 PUSH2 0x843 JUMP JUMPDEST JUMP JUMPDEST PUSH4 0x4E487B71 PUSH1 0xE0 SHL PUSH1 0x0 MSTORE PUSH1 0x11 PUSH1 0x4 MSTORE PUSH1 0x24 PUSH1 0x0 REVERT JUMPDEST PUSH2 0x13C9 SWAP1 PUSH2 0x235 JUMP JUMPDEST PUSH1 0x0 NOT DUP2 EQ PUSH2 0x13D8 JUMPI PUSH1 0x1 ADD SWAP1 JUMP JUMPDEST PUSH2 0x13AA JUMP JUMPDEST PUSH1 0x0 PUSH32 0x56616363696E65206E6F7420666F756E6420666F7220746865206368696C6400 SWAP2 ADD MSTORE JUMP JUMPDEST PUSH2 0x1412 PUSH1 0x1F PUSH1 0x20 SWAP3 PUSH2 0x786 JUMP JUMPDEST PUSH2 0x141B DUP2 PUSH2 0x13DD JUMP JUMPDEST ADD SWAP1 JUMP JUMPDEST PUSH2 0x1435 SWAP1 PUSH1 0x20 DUP2 ADD SWAP1 PUSH1 0x0 DUP2 DUP4 SUB SWAP2 ADD MSTORE PUSH2 0x1405 JUMP JUMPDEST SWAP1 JUMP JUMPDEST ISZERO PUSH2 0x143F JUMPI JUMP JUMPDEST PUSH2 0x1447 PUSH2 0x73 JUMP JUMPDEST PUSH3 0x461BCD PUSH1 0xE5 SHL DUP2 MSTORE DUP1 PUSH2 0x145D PUSH1 0x4 DUP3 ADD PUSH2 0x141F JUMP JUMPDEST SUB SWAP1 REVERT JUMPDEST SWAP3 SWAP1 SWAP2 PUSH2 0x148A DUP5 PUSH2 0x1483 PUSH2 0x147D PUSH2 0x1478 PUSH1 0x0 PUSH2 0xB4A JUMP JUMPDEST PUSH2 0x93 JUMP JUMPDEST SWAP2 PUSH2 0x93 JUMP JUMPDEST EQ ISZERO PUSH2 0xBB1 JUMP JUMPDEST PUSH2 0x14A7 DUP2 PUSH2 0x14A1 PUSH2 0x149B PUSH1 0x0 PUSH2 0x11F8 JUMP JUMPDEST SWAP2 PUSH2 0x20B JUMP JUMPDEST GT PUSH2 0x126F JUMP JUMPDEST PUSH2 0x14BB PUSH2 0x14B6 PUSH1 0x1 DUP7 SWAP1 PUSH2 0xC39 JUMP JUMPDEST PUSH2 0xC51 JUMP JUMPDEST SWAP3 PUSH2 0x14C6 PUSH1 0x0 PUSH2 0xBDA JUMP JUMPDEST SWAP3 PUSH2 0x14D1 PUSH1 0x0 PUSH2 0xBDA JUMP JUMPDEST JUMPDEST DUP1 PUSH2 0x14ED PUSH2 0x14E7 PUSH2 0x14E2 DUP10 PUSH2 0xC5F JUMP JUMPDEST PUSH2 0x235 JUMP JUMPDEST SWAP2 PUSH2 0x235 JUMP JUMPDEST LT ISZERO PUSH2 0x1664 JUMPI PUSH2 0x151C PUSH2 0x152B PUSH1 0x1 PUSH2 0x1506 DUP10 DUP6 SWAP1 PUSH2 0xC63 JUMP JUMPDEST POP ADD PUSH2 0x1510 PUSH2 0x73 JUMP JUMPDEST SWAP3 DUP4 SWAP2 PUSH1 0x20 DUP4 ADD PUSH2 0x1326 JUMP JUMPDEST PUSH1 0x20 DUP3 ADD DUP2 SUB DUP3 MSTORE SUB DUP3 PUSH2 0x145 JUMP JUMPDEST PUSH2 0x153D PUSH2 0x1537 DUP3 PUSH2 0x1338 JUMP JUMPDEST SWAP2 PUSH2 0x1332 JUMP JUMPDEST KECCAK256 PUSH2 0x158C PUSH2 0x1586 PUSH2 0x155F PUSH2 0x156E DUP8 PUSH2 0x1553 PUSH2 0x73 JUMP JUMPDEST SWAP3 DUP4 SWAP2 PUSH1 0x20 DUP4 ADD PUSH2 0x1365 JUMP JUMPDEST PUSH1 0x20 DUP3 ADD DUP2 SUB DUP3 MSTORE SUB DUP3 PUSH2 0x145 JUMP JUMPDEST PUSH2 0x1580 PUSH2 0x157A DUP3 PUSH2 0x1338 JUMP JUMPDEST SWAP2 PUSH2 0x1332 JUMP JUMPDEST KECCAK256 PUSH2 0x1371 JUMP JUMPDEST SWAP2 PUSH2 0x1371 JUMP JUMPDEST EQ DUP1 PUSH2 0x1634 JUMPI JUMPDEST PUSH2 0x15A6 JUMPI JUMPDEST PUSH2 0x15A1 SWAP1 PUSH2 0xBF6 JUMP JUMPDEST PUSH2 0x14D2 JUMP JUMPDEST SWAP4 PUSH2 0x162C PUSH2 0x15A1 SWAP2 PUSH2 0x15C7 PUSH1 0x1 PUSH1 0x3 PUSH2 0x15C0 DUP12 DUP12 SWAP1 PUSH2 0xC63 JUMP JUMPDEST POP ADD PUSH2 0xFFA JUMP JUMPDEST PUSH2 0x15DF DUP5 PUSH1 0x4 PUSH2 0x15D8 DUP12 DUP12 SWAP1 PUSH2 0xC63 JUMP JUMPDEST POP ADD PUSH2 0x1031 JUMP JUMPDEST DUP9 DUP6 SWAP1 DUP8 DUP7 SWAP3 PUSH2 0x1624 PUSH2 0x1612 PUSH32 0xB989EF158C19DF23EED94CB1E47CC7A53040177A25F72B3087EA5A5DFC67A9D6 SWAP5 PUSH2 0xC2D JUMP JUMPDEST SWAP5 PUSH2 0x161B PUSH2 0x73 JUMP JUMPDEST SWAP4 DUP5 SWAP4 DUP5 PUSH2 0x1374 JUMP JUMPDEST SUB SWAP1 LOG2 PUSH2 0x13C0 JUMP JUMPDEST SWAP5 SWAP1 POP PUSH2 0x1598 JUMP JUMPDEST POP PUSH2 0x164C PUSH1 0x3 PUSH2 0x1645 DUP9 DUP5 SWAP1 PUSH2 0xC63 JUMP JUMPDEST POP ADD PUSH2 0x524 JUMP JUMPDEST PUSH2 0x165E PUSH2 0x1658 DUP7 PUSH2 0x20B JUMP JUMPDEST SWAP2 PUSH2 0x20B JUMP JUMPDEST EQ PUSH2 0x1593 JUMP JUMPDEST POP POP POP POP SWAP1 POP PUSH2 0x1688 SWAP2 POP PUSH2 0x1682 PUSH2 0x167C PUSH1 0x0 PUSH2 0xBDA JUMP JUMPDEST SWAP2 PUSH2 0x235 JUMP JUMPDEST GT PUSH2 0x1438 JUMP JUMPDEST JUMP JUMPDEST PUSH1 0x0 PUSH32 0x496E76616C6964206368696C6420616464726573730000000000000000000000 SWAP2 ADD MSTORE JUMP JUMPDEST PUSH2 0x16BF PUSH1 0x15 PUSH1 0x20 SWAP3 PUSH2 0x786 JUMP JUMPDEST PUSH2 0x16C8 DUP2 PUSH2 0x168A JUMP JUMPDEST ADD SWAP1 JUMP JUMPDEST PUSH2 0x16E2 SWAP1 PUSH1 0x20 DUP2 ADD SWAP1 PUSH1 0x0 DUP2 DUP4 SUB SWAP2 ADD MSTORE PUSH2 0x16B2 JUMP JUMPDEST SWAP1 JUMP JUMPDEST ISZERO PUSH2 0x16EC JUMPI JUMP JUMPDEST PUSH2 0x16F4 PUSH2 0x73 JUMP JUMPDEST PUSH3 0x461BCD PUSH1 0xE5 SHL DUP2 MSTORE DUP1 PUSH2 0x170A PUSH1 0x4 DUP3 ADD PUSH2 0x16CC JUMP JUMPDEST SUB SWAP1 REVERT JUMPDEST MLOAD SWAP1 JUMP JUMPDEST PUSH1 0x0 PUSH32 0x56616363696E6174696F6E732072657175697265640000000000000000000000 SWAP2 ADD MSTORE JUMP JUMPDEST PUSH2 0x1747 PUSH1 0x15 PUSH1 0x20 SWAP3 PUSH2 0x786 JUMP JUMPDEST PUSH2 0x1750 DUP2 PUSH2 0x1712 JUMP JUMPDEST ADD SWAP1 JUMP JUMPDEST PUSH2 0x176A SWAP1 PUSH1 0x20 DUP2 ADD SWAP1 PUSH1 0x0 DUP2 DUP4 SUB SWAP2 ADD MSTORE PUSH2 0x173A JUMP JUMPDEST SWAP1 JUMP JUMPDEST ISZERO PUSH2 0x1774 JUMPI JUMP JUMPDEST PUSH2 0x177C PUSH2 0x73 JUMP JUMPDEST PUSH3 0x461BCD PUSH1 0xE5 SHL DUP2 MSTORE DUP1 PUSH2 0x1792 PUSH1 0x4 DUP3 ADD PUSH2 0x1754 JUMP JUMPDEST SUB SWAP1 REVERT JUMPDEST SWAP1 PUSH2 0x17A0 DUP3 PUSH2 0x170E JUMP JUMPDEST DUP2 LT ISZERO PUSH2 0x17B1 JUMPI PUSH1 0x20 DUP1 SWAP2 MUL ADD ADD SWAP1 JUMP JUMPDEST PUSH2 0x4B6 JUMP JUMPDEST PUSH2 0x17C0 SWAP1 MLOAD PUSH2 0x20B JUMP JUMPDEST SWAP1 JUMP JUMPDEST PUSH2 0x17CD SWAP1 MLOAD PUSH2 0x235 JUMP JUMPDEST SWAP1 JUMP JUMPDEST PUSH1 0x0 PUSH32 0x4E6F2076616363696E6174696F6E732075706461746564000000000000000000 SWAP2 ADD MSTORE JUMP JUMPDEST PUSH2 0x1805 PUSH1 0x17 PUSH1 0x20 SWAP3 PUSH2 0x786 JUMP JUMPDEST PUSH2 0x180E DUP2 PUSH2 0x17D0 JUMP JUMPDEST ADD SWAP1 JUMP JUMPDEST PUSH2 0x1828 SWAP1 PUSH1 0x20 DUP2 ADD SWAP1 PUSH1 0x0 DUP2 DUP4 SUB SWAP2 ADD MSTORE PUSH2 0x17F8 JUMP JUMPDEST SWAP1 JUMP JUMPDEST ISZERO PUSH2 0x1832 JUMPI JUMP JUMPDEST PUSH2 0x183A PUSH2 0x73 JUMP JUMPDEST PUSH3 0x461BCD PUSH1 0xE5 SHL DUP2 MSTORE DUP1 PUSH2 0x1850 PUSH1 0x4 DUP3 ADD PUSH2 0x1812 JUMP JUMPDEST SUB SWAP1 REVERT JUMPDEST SWAP2 SWAP1 SWAP2 PUSH2 0x187D DUP2 PUSH2 0x1876 PUSH2 0x1870 PUSH2 0x186B PUSH1 0x0 PUSH2 0xB4A JUMP JUMPDEST PUSH2 0x93 JUMP JUMPDEST SWAP2 PUSH2 0x93 JUMP JUMPDEST EQ ISZERO PUSH2 0x16E5 JUMP JUMPDEST PUSH2 0x18A2 PUSH2 0x1889 DUP5 PUSH2 0x170E JUMP JUMPDEST PUSH2 0x189C PUSH2 0x1896 PUSH1 0x0 PUSH2 0xBDA JUMP JUMPDEST SWAP2 PUSH2 0x235 JUMP JUMPDEST GT PUSH2 0x176D JUMP JUMPDEST PUSH2 0x18B6 PUSH2 0x18B1 PUSH1 0x1 DUP4 SWAP1 PUSH2 0xC39 JUMP JUMPDEST PUSH2 0xC51 JUMP JUMPDEST PUSH2 0x18C0 PUSH1 0x0 PUSH2 0xBDA JUMP JUMPDEST SWAP1 PUSH2 0x18CB PUSH1 0x0 PUSH2 0xBDA JUMP JUMPDEST SWAP5 JUMPDEST DUP6 PUSH2 0x18E8 PUSH2 0x18E2 PUSH2 0x18DD DUP5 PUSH2 0x170E JUMP JUMPDEST PUSH2 0x235 JUMP JUMPDEST SWAP2 PUSH2 0x235 JUMP JUMPDEST LT ISZERO PUSH2 0x1B58 JUMPI PUSH2 0x18F9 DUP2 DUP8 SWAP1 PUSH2 0x1796 JUMP JUMPDEST MLOAD SWAP5 PUSH2 0x1923 PUSH2 0x190A PUSH1 0x20 DUP9 ADD PUSH2 0x17B6 JUMP JUMPDEST PUSH2 0x191D PUSH2 0x1917 PUSH1 0x0 PUSH2 0x11F8 JUMP JUMPDEST SWAP2 PUSH2 0x20B JUMP JUMPDEST GT PUSH2 0x126F JUMP JUMPDEST PUSH2 0x192D PUSH1 0x0 PUSH2 0xBDA JUMP JUMPDEST JUMPDEST DUP1 PUSH2 0x1949 PUSH2 0x1943 PUSH2 0x193E DUP8 PUSH2 0xC5F JUMP JUMPDEST PUSH2 0x235 JUMP JUMPDEST SWAP2 PUSH2 0x235 JUMP JUMPDEST LT ISZERO PUSH2 0x1B42 JUMPI PUSH2 0x1978 PUSH2 0x1987 PUSH1 0x1 PUSH2 0x1962 DUP8 DUP6 SWAP1 PUSH2 0xC63 JUMP JUMPDEST POP ADD PUSH2 0x196C PUSH2 0x73 JUMP JUMPDEST SWAP3 DUP4 SWAP2 PUSH1 0x20 DUP4 ADD PUSH2 0x1326 JUMP JUMPDEST PUSH1 0x20 DUP3 ADD DUP2 SUB DUP3 MSTORE SUB DUP3 PUSH2 0x145 JUMP JUMPDEST PUSH2 0x1999 PUSH2 0x1993 DUP3 PUSH2 0x1338 JUMP JUMPDEST SWAP2 PUSH2 0x1332 JUMP JUMPDEST KECCAK256 PUSH2 0x19EC PUSH2 0x19E6 PUSH2 0x19BF PUSH2 0x19CE PUSH1 0x0 DUP13 ADD MLOAD PUSH2 0x19B3 PUSH2 0x73 JUMP JUMPDEST SWAP3 DUP4 SWAP2 PUSH1 0x20 DUP4 ADD PUSH2 0x1365 JUMP JUMPDEST PUSH1 0x20 DUP3 ADD DUP2 SUB DUP3 MSTORE SUB DUP3 PUSH2 0x145 JUMP JUMPDEST PUSH2 0x19E0 PUSH2 0x19DA DUP3 PUSH2 0x1338 JUMP JUMPDEST SWAP2 PUSH2 0x1332 JUMP JUMPDEST KECCAK256 PUSH2 0x1371 JUMP JUMPDEST SWAP2 PUSH2 0x1371 JUMP JUMPDEST EQ DUP1 PUSH2 0x1B06 JUMPI JUMPDEST DUP1 PUSH2 0x1AD5 JUMPI JUMPDEST PUSH2 0x1A0C JUMPI JUMPDEST PUSH2 0x1A07 SWAP1 PUSH2 0xBF6 JUMP JUMPDEST PUSH2 0x192E JUMP JUMPDEST SWAP4 PUSH2 0x1ACD PUSH2 0x1A07 SWAP2 PUSH2 0x1A2D PUSH1 0x1 PUSH1 0x3 PUSH2 0x1A26 DUP10 DUP12 SWAP1 PUSH2 0xC63 JUMP JUMPDEST POP ADD PUSH2 0xFFA JUMP JUMPDEST PUSH2 0x1A50 PUSH2 0x1A3C PUSH1 0x40 DUP12 ADD PUSH2 0x17C3 JUMP JUMPDEST PUSH1 0x4 PUSH2 0x1A49 DUP10 DUP12 SWAP1 PUSH2 0xC63 JUMP JUMPDEST POP ADD PUSH2 0x1031 JUMP JUMPDEST DUP8 PUSH1 0x0 DUP11 ADD MLOAD SWAP1 PUSH2 0x1A6E PUSH1 0x3 PUSH2 0x1A67 DUP11 DUP13 SWAP1 PUSH2 0xC63 JUMP JUMPDEST POP ADD PUSH2 0x524 JUMP JUMPDEST PUSH2 0x1A85 PUSH1 0x4 PUSH2 0x1A7E DUP12 DUP14 SWAP1 PUSH2 0xC63 JUMP JUMPDEST POP ADD PUSH2 0x6DC JUMP JUMPDEST SWAP3 PUSH2 0x1AC5 PUSH2 0x1AB3 PUSH32 0xB989EF158C19DF23EED94CB1E47CC7A53040177A25F72B3087EA5A5DFC67A9D6 SWAP5 PUSH2 0xC2D JUMP JUMPDEST SWAP5 PUSH2 0x1ABC PUSH2 0x73 JUMP JUMPDEST SWAP4 DUP5 SWAP4 DUP5 PUSH2 0x1374 JUMP JUMPDEST SUB SWAP1 LOG2 PUSH2 0x13C0 JUMP JUMPDEST SWAP5 SWAP1 POP PUSH2 0x19FE JUMP JUMPDEST POP PUSH2 0x1AED PUSH1 0x3 PUSH2 0x1AE6 DUP7 DUP5 SWAP1 PUSH2 0xC63 JUMP JUMPDEST POP ADD PUSH2 0x6B8 JUMP JUMPDEST PUSH2 0x1B00 PUSH2 0x1AFA PUSH1 0x0 PUSH2 0x81E JUMP JUMPDEST SWAP2 PUSH2 0x81E JUMP JUMPDEST EQ PUSH2 0x19F9 JUMP JUMPDEST POP PUSH2 0x1B1E PUSH1 0x3 PUSH2 0x1B17 DUP7 DUP5 SWAP1 PUSH2 0xC63 JUMP JUMPDEST POP ADD PUSH2 0x524 JUMP JUMPDEST PUSH2 0x1B3B PUSH2 0x1B35 PUSH2 0x1B30 PUSH1 0x20 DUP12 ADD PUSH2 0x17B6 JUMP JUMPDEST PUSH2 0x20B JUMP JUMPDEST SWAP2 PUSH2 0x20B JUMP JUMPDEST GT ISZERO PUSH2 0x19F3 JUMP JUMPDEST POP SWAP6 PUSH2 0x1B50 SWAP2 SWAP3 SWAP6 POP PUSH2 0xBF6 JUMP JUMPDEST SWAP5 SWAP4 SWAP1 PUSH2 0x18CD JUMP JUMPDEST POP POP SWAP1 POP PUSH2 0x1B7B SWAP2 SWAP3 POP PUSH2 0x1B75 PUSH2 0x1B6F PUSH1 0x0 PUSH2 0xBDA JUMP JUMPDEST SWAP2 PUSH2 0x235 JUMP JUMPDEST GT PUSH2 0x182B JUMP JUMPDEST JUMP JUMPDEST PUSH2 0x1B87 PUSH1 0x40 PUSH2 0x16E JUMP JUMPDEST SWAP1 JUMP JUMPDEST PUSH1 0x60 SWAP1 JUMP JUMPDEST PUSH2 0x1B97 PUSH2 0x1B7D JUMP JUMPDEST SWAP1 PUSH1 0x20 DUP1 DUP4 PUSH2 0x1BA4 PUSH2 0x1B8A JUMP JUMPDEST DUP2 MSTORE ADD PUSH2 0x1BAF PUSH2 0x1B8A JUMP JUMPDEST DUP2 MSTORE POP POP JUMP JUMPDEST PUSH2 0x1BBD PUSH2 0x1B8F JUMP JUMPDEST SWAP1 JUMP JUMPDEST PUSH8 0xFFFFFFFFFFFFFFFF DUP2 GT PUSH2 0x1BD8 JUMPI PUSH1 0x20 DUP1 SWAP2 MUL ADD SWAP1 JUMP JUMPDEST PUSH2 0x12F JUMP JUMPDEST SWAP1 PUSH2 0x1BEF PUSH2 0x1BEA DUP4 PUSH2 0x1BC0 JUMP JUMPDEST PUSH2 0x16E JUMP JUMPDEST SWAP2 DUP3 MSTORE JUMP JUMPDEST PUSH2 0x1BFF PUSH2 0x100 PUSH2 0x16E JUMP JUMPDEST SWAP1 JUMP JUMPDEST PUSH1 0x0 SWAP1 JUMP JUMPDEST PUSH1 0x60 SWAP1 JUMP JUMPDEST PUSH1 0x0 SWAP1 JUMP JUMPDEST PUSH1 0x0 SWAP1 JUMP JUMPDEST PUSH1 0x0 SWAP1 JUMP JUMPDEST PUSH2 0x1C23 PUSH2 0x1BF4 JUMP JUMPDEST SWAP1 PUSH1 0x20 DUP1 DUP1 DUP1 DUP1 DUP1 DUP1 DUP1 DUP10 PUSH2 0x1C36 PUSH2 0x1C02 JUMP JUMPDEST DUP2 MSTORE ADD PUSH2 0x1C41 PUSH2 0x1C07 JUMP JUMPDEST DUP2 MSTORE ADD PUSH2 0x1C4C PUSH2 0x1C07 JUMP JUMPDEST DUP2 MSTORE ADD PUSH2 0x1C57 PUSH2 0x1C02 JUMP JUMPDEST DUP2 MSTORE ADD PUSH2 0x1C62 PUSH2 0x1C0C JUMP JUMPDEST DUP2 MSTORE ADD PUSH2 0x1C6D PUSH2 0x1C0C JUMP JUMPDEST DUP2 MSTORE ADD PUSH2 0x1C78 PUSH2 0x1C11 JUMP JUMPDEST DUP2 MSTORE ADD PUSH2 0x1C83 PUSH2 0x1C16 JUMP JUMPDEST DUP2 MSTORE POP POP JUMP JUMPDEST PUSH2 0x1C91 PUSH2 0x1C1B JUMP JUMPDEST SWAP1 JUMP JUMPDEST PUSH1 0x0 JUMPDEST DUP3 DUP2 LT PUSH2 0x1CA3 JUMPI POP POP POP JUMP JUMPDEST PUSH1 0x20 SWAP1 PUSH2 0x1CAE PUSH2 0x1C89 JUMP JUMPDEST DUP2 DUP5 ADD MSTORE ADD PUSH2 0x1C97 JUMP JUMPDEST SWAP1 PUSH2 0x1CDD PUSH2 0x1CC5 DUP4 PUSH2 0x1BDD JUMP JUMPDEST SWAP3 PUSH1 0x20 DUP1 PUSH2 0x1CD3 DUP7 SWAP4 PUSH2 0x1BC0 JUMP JUMPDEST SWAP3 ADD SWAP2 SUB SWAP1 PUSH2 0x1C94 JUMP JUMPDEST JUMP JUMPDEST SWAP1 PUSH2 0x1CE9 DUP3 PUSH2 0x910 JUMP JUMPDEST DUP2 LT ISZERO PUSH2 0x1CFA JUMPI PUSH1 0x20 DUP1 SWAP2 MUL ADD ADD SWAP1 JUMP JUMPDEST PUSH2 0x4B6 JUMP JUMPDEST SWAP1 PUSH2 0x1D09 SWAP1 PUSH2 0x20B JUMP JUMPDEST SWAP1 MSTORE JUMP JUMPDEST MSTORE JUMP JUMPDEST SWAP1 PUSH2 0x1D1A SWAP1 PUSH2 0x7E5 JUMP JUMPDEST SWAP1 MSTORE JUMP JUMPDEST SWAP1 PUSH2 0x1D28 SWAP1 PUSH2 0x81E JUMP JUMPDEST SWAP1 MSTORE JUMP JUMPDEST SWAP1 PUSH2 0x1D36 SWAP1 PUSH2 0x235 JUMP JUMPDEST SWAP1 MSTORE JUMP JUMPDEST SWAP1 PUSH2 0x1E03 PUSH2 0x1DFA PUSH1 0x4 PUSH2 0x1D4B PUSH2 0x1BF4 JUMP JUMPDEST SWAP5 PUSH2 0x1D64 PUSH2 0x1D5B PUSH1 0x0 DUP4 ADD PUSH2 0x524 JUMP JUMPDEST PUSH1 0x0 DUP9 ADD PUSH2 0x1CFF JUMP JUMPDEST PUSH2 0x1D7C PUSH2 0x1D73 PUSH1 0x1 DUP4 ADD PUSH2 0x621 JUMP JUMPDEST PUSH1 0x20 DUP9 ADD PUSH2 0x1D0D JUMP JUMPDEST PUSH2 0x1D94 PUSH2 0x1D8B PUSH1 0x2 DUP4 ADD PUSH2 0x621 JUMP JUMPDEST PUSH1 0x40 DUP9 ADD PUSH2 0x1D0D JUMP JUMPDEST PUSH2 0x1DAC PUSH2 0x1DA3 PUSH1 0x3 DUP4 ADD PUSH2 0x524 JUMP JUMPDEST PUSH1 0x60 DUP9 ADD PUSH2 0x1CFF JUMP JUMPDEST PUSH2 0x1DC4 PUSH2 0x1DBB PUSH1 0x3 DUP4 ADD PUSH2 0x664 JUMP JUMPDEST PUSH1 0x80 DUP9 ADD PUSH2 0x1D10 JUMP JUMPDEST PUSH2 0x1DDC PUSH2 0x1DD3 PUSH1 0x3 DUP4 ADD PUSH2 0x68B JUMP JUMPDEST PUSH1 0xA0 DUP9 ADD PUSH2 0x1D10 JUMP JUMPDEST PUSH2 0x1DF4 PUSH2 0x1DEB PUSH1 0x3 DUP4 ADD PUSH2 0x6B8 JUMP JUMPDEST PUSH1 0xC0 DUP9 ADD PUSH2 0x1D1E JUMP JUMPDEST ADD PUSH2 0x6DC JUMP JUMPDEST PUSH1 0xE0 DUP5 ADD PUSH2 0x1D2C JUMP JUMPDEST JUMP JUMPDEST PUSH2 0x1E0E SWAP1 PUSH2 0x1D3A JUMP JUMPDEST SWAP1 JUMP JUMPDEST PUSH2 0x1E4E PUSH2 0x1E53 SWAP2 PUSH2 0x1E20 PUSH2 0x1BB5 JUMP JUMPDEST POP PUSH2 0x1E47 DUP2 PUSH2 0x1E40 PUSH2 0x1E3A PUSH2 0x1E35 PUSH1 0x0 PUSH2 0xB4A JUMP JUMPDEST PUSH2 0x93 JUMP JUMPDEST SWAP2 PUSH2 0x93 JUMP JUMPDEST EQ ISZERO PUSH2 0xBB1 JUMP JUMPDEST PUSH1 0x1 PUSH2 0xC39 JUMP JUMPDEST PUSH2 0xC51 JUMP JUMPDEST PUSH2 0x1E5D PUSH1 0x0 PUSH2 0xBDA JUMP JUMPDEST PUSH2 0x1E67 PUSH1 0x0 PUSH2 0xBDA JUMP JUMPDEST SWAP1 PUSH2 0x1E72 PUSH1 0x0 PUSH2 0xBDA JUMP JUMPDEST SWAP1 JUMPDEST DUP2 PUSH2 0x1E8F PUSH2 0x1E89 PUSH2 0x1E84 DUP8 PUSH2 0xC5F JUMP JUMPDEST PUSH2 0x235 JUMP JUMPDEST SWAP2 PUSH2 0x235 JUMP JUMPDEST LT ISZERO PUSH2 0x1F2F JUMPI PUSH2 0x1EAC PUSH1 0x3 PUSH2 0x1EA5 DUP7 DUP6 SWAP1 PUSH2 0xC63 JUMP JUMPDEST POP ADD PUSH2 0x6B8 JUMP JUMPDEST PUSH2 0x1EBF PUSH2 0x1EB9 PUSH1 0x1 PUSH2 0x81E JUMP JUMPDEST SWAP2 PUSH2 0x81E JUMP JUMPDEST EQ PUSH1 0x0 EQ PUSH2 0x1EE0 JUMPI PUSH2 0x1ED3 PUSH2 0x1EDA SWAP2 PUSH2 0x13C0 JUMP JUMPDEST SWAP2 JUMPDEST PUSH2 0xBF6 JUMP JUMPDEST SWAP1 PUSH2 0x1E74 JUMP JUMPDEST SWAP1 PUSH2 0x1EF8 PUSH1 0x3 PUSH2 0x1EF1 DUP7 DUP5 SWAP1 PUSH2 0xC63 JUMP JUMPDEST POP ADD PUSH2 0x6B8 JUMP JUMPDEST PUSH2 0x1F0B PUSH2 0x1F05 PUSH1 0x0 PUSH2 0x81E JUMP JUMPDEST SWAP2 PUSH2 0x81E JUMP JUMPDEST EQ PUSH2 0x1F1A JUMPI JUMPDEST PUSH2 0x1EDA SWAP1 PUSH2 0x1ED5 JUMP JUMPDEST SWAP2 PUSH2 0x1F27 PUSH2 0x1EDA SWAP2 PUSH2 0x13C0 JUMP JUMPDEST SWAP3 SWAP1 POP PUSH2 0x1F11 JUMP JUMPDEST SWAP2 PUSH2 0x1F50 SWAP2 POP PUSH2 0x1F46 PUSH2 0x1F40 PUSH2 0x1BB5 JUMP JUMPDEST SWAP4 PUSH2 0x1CB8 JUMP JUMPDEST PUSH1 0x0 DUP5 ADD MSTORE PUSH2 0x1CB8 JUMP JUMPDEST PUSH1 0x20 DUP3 ADD MSTORE PUSH2 0x1F5F PUSH1 0x0 PUSH2 0xBDA JUMP JUMPDEST PUSH2 0x1F69 PUSH1 0x0 PUSH2 0xBDA JUMP JUMPDEST SWAP3 PUSH2 0x1F74 PUSH1 0x0 PUSH2 0xBDA JUMP JUMPDEST SWAP2 JUMPDEST DUP3 PUSH2 0x1F91 PUSH2 0x1F8B PUSH2 0x1F86 DUP6 PUSH2 0xC5F JUMP JUMPDEST PUSH2 0x235 JUMP JUMPDEST SWAP2 PUSH2 0x235 JUMP JUMPDEST LT ISZERO PUSH2 0x2091 JUMPI PUSH2 0x1FAE PUSH1 0x3 PUSH2 0x1FA7 DUP5 DUP7 SWAP1 PUSH2 0xC63 JUMP JUMPDEST POP ADD PUSH2 0x6B8 JUMP JUMPDEST PUSH2 0x1FC1 PUSH2 0x1FBB PUSH1 0x1 PUSH2 0x81E JUMP JUMPDEST SWAP2 PUSH2 0x81E JUMP JUMPDEST EQ PUSH1 0x0 EQ PUSH2 0x2012 JUMPI PUSH2 0x2005 PUSH2 0x200C SWAP2 PUSH2 0x1FFE PUSH2 0x1FDE DUP6 DUP8 SWAP1 PUSH2 0xC63 JUMP JUMPDEST POP PUSH1 0x0 DUP9 ADD MLOAD PUSH2 0x1FEE DUP5 SWAP3 PUSH2 0x1E05 JUMP JUMPDEST PUSH2 0x1FF8 DUP4 DUP4 PUSH2 0x1CDF JUMP JUMPDEST MSTORE PUSH2 0x1CDF JUMP JUMPDEST MLOAD POP PUSH2 0x13C0 JUMP JUMPDEST SWAP3 JUMPDEST PUSH2 0xBF6 JUMP JUMPDEST SWAP2 PUSH2 0x1F76 JUMP JUMPDEST SWAP2 PUSH2 0x202A PUSH1 0x3 PUSH2 0x2023 DUP5 DUP5 SWAP1 PUSH2 0xC63 JUMP JUMPDEST POP ADD PUSH2 0x6B8 JUMP JUMPDEST PUSH2 0x203D PUSH2 0x2037 PUSH1 0x0 PUSH2 0x81E JUMP JUMPDEST SWAP2 PUSH2 0x81E JUMP JUMPDEST EQ PUSH2 0x204C JUMPI JUMPDEST PUSH2 0x200C SWAP1 PUSH2 0x2007 JUMP JUMPDEST SWAP4 PUSH2 0x2089 PUSH2 0x200C SWAP2 PUSH2 0x2082 PUSH2 0x2062 DUP6 DUP10 SWAP1 PUSH2 0xC63 JUMP JUMPDEST POP PUSH1 0x20 DUP9 ADD MLOAD PUSH2 0x2072 DUP5 SWAP3 PUSH2 0x1E05 JUMP JUMPDEST PUSH2 0x207C DUP4 DUP4 PUSH2 0x1CDF JUMP JUMPDEST MSTORE PUSH2 0x1CDF JUMP JUMPDEST MLOAD POP PUSH2 0x13C0 JUMP JUMPDEST SWAP5 SWAP1 POP PUSH2 0x2043 JUMP JUMPDEST POP POP POP SWAP1 POP SWAP1 JUMP INVALID LOG2 PUSH5 0x6970667358 0x22 SLT KECCAK256 GT TSTORE GT 0xE7 0xB7 0x2D 0xCC PUSH4 0x9529F258 JUMPI SSTORE CALLER PUSH0 0x26 MLOAD CALLER SWAP11 SIGNEXTEND SGT PUSH2 0x6652 SDIV 0xC1 0xFC PUSH21 0xC1F5F764736F6C634300081B003300000000000000 "},"methodIdentifiers":{"initializeVaccinationRecords(address)":"59c3309e","recommendedVaccinations(uint256)":"e10b406c","returnChildVaccinationStatus(address)":"eb607db1","updateChildVaccination(address,string,uint8,uint256)":"5ae99f65","updateMultipleChildVaccination(address,(string,uint8,uint256)[])":"d30a32e3"}}}}}