{"contracts/MedicalHistory.sol":{"MedicalHistory":{"abi":[{"anonymous":false,"inputs":[{"indexed":true,"internalType":"address","name":"childAddress","type":"address"},{"indexed":false,"internalType":"string","name":"timestamp","type":"string"},{"indexed":false,"internalType":"string","name":"symptoms","type":"string"}],"name":"MedicalHistoryAdded","type":"event"},{"inputs":[{"internalType":"address","name":"_childAddress","type":"address"},{"internalType":"enum MedicalHistory.MedicalType","name":"_medicalType","type":"uint8"},{"internalType":"string","name":"_visitedName","type":"string"},{"internalType":"string","name":"_timestamp","type":"string"},{"internalType":"string","name":"_doctorName","type":"string"},{"internalType":"string","name":"_symptoms","type":"string"},{"internalType":"string","name":"_diagnosisDetails","type":"string"}],"name":"addMedicalHistory","outputs":[],"stateMutability":"nonpayable","type":"function"},{"inputs":[{"internalType":"address","name":"_childAddress","type":"address"}],"name":"getMedicalHistories","outputs":[{"components":[{"internalType":"enum MedicalHistory.MedicalType","name":"medicaltype","type":"uint8"},{"internalType":"string","name":"visitedName","type":"string"},{"internalType":"string","name":"timestamp","type":"string"},{"internalType":"string","name":"doctorName","type":"string"},{"internalType":"string","name":"symptoms","type":"string"},{"internalType":"string","name":"diagnosisDetails","type":"string"}],"internalType":"struct MedicalHistory.History[]","name":"","type":"tuple[]"}],"stateMutability":"view","type":"function"}],"evm":{"bytecode":{"linkReferences":{},"object":"608060405234601c57600e6020565b61114161002c823961114190f35b6026565b60405190565b600080fdfe60806040526004361015610013575b6104f7565b61001e60003561003d565b80633b27f4e2146100385763b226187c0361000e576104c2565b610291565b60e01c90565b60405190565b600080fd5b600080fd5b600080fd5b60018060a01b031690565b61006c90610058565b90565b61007881610063565b0361007f57565b600080fd5b905035906100918261006f565b565b6002111561009d57565b600080fd5b905035906100af82610093565b565b600080fd5b600080fd5b601f801991011690565b634e487b7160e01b600052604160045260246000fd5b906100e5906100bb565b810190811067ffffffffffffffff8211176100ff57604052565b6100c5565b90610117610110610043565b92836100db565b565b67ffffffffffffffff8111610137576101336020916100bb565b0190565b6100c5565b90826000939282370152565b9092919261015d61015882610119565b610104565b93818552602085019082840111610179576101779261013c565b565b6100b6565b9080601f8301121561019c5781602061019993359101610148565b90565b6100b1565b9060e082820312610286576101b98160008401610084565b926101c782602085016100a2565b92604081013567ffffffffffffffff811161028157836101e891830161017e565b92606082013567ffffffffffffffff811161027c578161020991840161017e565b92608083013567ffffffffffffffff8111610277578261022a91850161017e565b9260a081013567ffffffffffffffff8111610272578361024b91830161017e565b9260c082013567ffffffffffffffff811161026d5761026a920161017e565b90565b610053565b610053565b610053565b610053565b610053565b61004e565b60000190565b346102c6576102b06102a43660046101a1565b95949094939193610a5a565b6102b8610043565b806102c28161028b565b0390f35b610049565b906020828203126102e5576102e291600001610084565b90565b61004e565b5190565b60209181520190565b60200190565b634e487b7160e01b600052602160045260246000fd5b6002111561031d57565b6102fd565b9061032c82610313565b565b61033790610322565b90565b6103439061032e565b9052565b5190565b60209181520190565b60005b838110610368575050906000910152565b806020918301518185015201610357565b6103986103a16020936103a69361038f81610347565b9384809361034b565b95869101610354565b6100bb565b0190565b61042b9160a061041a6104086103f66103e460c086016103d26000890151600089019061033a565b60208801518782036020890152610379565b60408701518682036040880152610379565b60608601518582036060870152610379565b60808501518482036080860152610379565b9201519060a0818403910152610379565b90565b90610438916103aa565b90565b60200190565b9061045561044e836102ea565b80926102ee565b9081610466602083028401946102f7565b926000915b83831061047a57505050505090565b9091929394602061049c6104968385600195038752895161042e565b9761043b565b930193019193929061046b565b6104bf9160208201916000818403910152610441565b90565b346104f2576104ee6104dd6104d83660046102cb565b610d77565b6104e5610043565b918291826104a9565b0390f35b610049565b600080fd5b61050660c0610104565b90565b9061051390610322565b9052565b52565b151590565b60209181520190565b60007f4475706c6963617465206d65646963616c20686973746f7279207265636f7264910152565b61055c6020809261051f565b61056581610528565b0190565b61057f9060208101906000818303910152610550565b90565b1561058957565b610591610043565b62461bcd60e51b8152806105a760048201610569565b0390fd5b90565b6105c26105bd6105c792610058565b6105ab565b610058565b90565b6105d3906105ae565b90565b6105df906105ca565b90565b906105ec906105d6565b600052602052604060002090565b90565b600052602060002090565b634e487b7160e01b600052603260045260246000fd5b5490565b61062b8161061e565b8210156106465761063d6006916105fd565b91020190600090565b610608565b634e487b7160e01b600052600060045260246000fd5b61066b9051610322565b90565b60001b90565b9061068060ff9161066e565b9181191691161790565b61069390610322565b90565b90565b906106ae6106a96106b59261068a565b610696565b8254610674565b9055565b5190565b634e487b7160e01b600052602260045260246000fd5b90600160028304921680156106f3575b60208310146106ee57565b6106bd565b91607f16916106e3565b600052602060002090565b601f602091010490565b1b90565b9190600861073291029161072c60001984610712565b92610712565b9181191691161790565b90565b61075361074e6107589261073c565b6105ab565b61073c565b90565b90565b919061077461076f61077c9361073f565b61075b565b908354610716565b9055565b600090565b61079791610791610780565b9161075e565b565b5b8181106107a5575050565b806107b36000600193610785565b0161079a565b9190601f81116107c9575b505050565b6107d56107fa936106fd565b9060206107e184610708565b83019310610802575b6107f390610708565b0190610799565b3880806107c4565b91506107f3819290506107ea565b1c90565b906108259060001990600802610810565b191690565b8161083491610814565b906002021790565b9061084681610347565b9067ffffffffffffffff82116109085761086a8261086485546106d3565b856107b9565b602090601f831160011461089f5791809161088e93600092610893575b505061082a565b90555b565b90915001513880610887565b601f198316916108ae856106fd565b9260005b8181106108f0575091600293918560019694106108d6575b50505002019055610891565b6108e6910151601f841690610814565b90553880806108ca565b919360206001819287870151815501950192016108b2565b6100c5565b906109179161083c565b565b906109aa60a060056109b09461093e6000820161093860008801610661565b90610699565b61095760018201610951602088016106b9565b9061090d565b6109706002820161096a604088016106b9565b9061090d565b61098960038201610983606088016106b9565b9061090d565b6109a26004820161099c608088016106b9565b9061090d565b0192016106b9565b9061090d565b565b91906109c3576109c191610919565b565b61064b565b90815491680100000000000000008310156109f857826109f09160016109f695018155610622565b906109b2565b565b6100c5565b610a1c610a25602093610a2a93610a1381610347565b9384809361051f565b95869101610354565b6100bb565b0190565b9091610a49610a5793604084019084820360008601526109fd565b9160208184039101526109fd565b90565b93610ab0610aee949697610aa7610ab9949593610a9e8a610a958d9597610a8c610a826104fc565b9b60008d01610509565b60208b01610517565b60408901610517565b60608701610517565b60808501610517565b60a08301610517565b610ad5610ad0610aca858490610ea5565b1561051a565b610582565b610ae9610ae4600085906105e2565b6105fa565b6109c8565b9091610b1a7f81190344228b313d29be4f930c8df91c69b2830b0a4da61cce4636437dacad58926105d6565b92610b2f610b26610043565b92839283610a2e565b0390a2565b606090565b5490565b67ffffffffffffffff8111610b555760208091020190565b6100c5565b90610b6c610b6783610b3d565b610104565b918252565b600052602060002090565b60001c90565b60ff1690565b610b94610b9991610b7c565b610b82565b90565b610ba69054610b88565b90565b9060009291805490610bc4610bbd836106d3565b809461034b565b91600181169081600014610c1d5750600114610be0575b505050565b610bed91929394506106fd565b916000925b818410610c055750500190388080610bdb565b60018160209295939554848601520191019290610bf2565b92949550505060ff1916825215156020020190388080610bdb565b90610c4291610ba9565b90565b90610c65610c5e92610c55610043565b93848092610c38565b03836100db565b565b610c7160c0610104565b90565b90610d0d610d046005610c85610c67565b94610c9e610c9560008301610b9c565b60008801610509565b610cb6610cad60018301610c45565b60208801610517565b610cce610cc560028301610c45565b60408801610517565b610ce6610cdd60038301610c45565b60608801610517565b610cfe610cf560048301610c45565b60808801610517565b01610c45565b60a08401610517565b565b610d1890610c74565b90565b90610d2582610b39565b610d2e81610b5a565b92610d3c6020850191610b71565b6000915b838310610d4d5750505050565b60066020600192610d5d85610d0f565b815201920192019190610d40565b610d7490610d1b565b90565b610d8e610d9391610d86610b34565b5060006105e2565b610d6b565b90565b600090565b90565b610db2610dad610db792610d9b565b6105ab565b61073c565b90565b6001610dc6910161073c565b90565b905090565b9060009291805490610de9610de2836106d3565b8094610dc9565b91600181169081600014610e3d5750600114610e05575b505050565b610e1291929394506106fd565b6000905b838210610e295750500190388080610e00565b600181602092548486015201910190610e16565b92949550505060ff19168252801515020190388080610e00565b610e6091610dce565b90565b60200190565b5190565b610e92610e8992602092610e8081610347565b94858093610dc9565b93849101610354565b0190565b610e9f91610e6d565b90565b90565b610ebc610ec191610eb4610d96565b5060006105e2565b6105fa565b90610ecc6000610d9e565b5b80610ee8610ee2610edd8661061e565b61073c565b9161073c565b101561110357610f17610f266002610f01868590610622565b5001610f0b610043565b92839160208301610e57565b602082018103825203826100db565b610f38610f3282610e69565b91610e63565b20610f8b610f85610f5e610f6d6040870151610f52610043565b92839160208301610e96565b602082018103825203826100db565b610f7f610f7982610e69565b91610e63565b20610ea2565b91610ea2565b14610fb5610fc46004610f9f878690610622565b5001610fa9610043565b92839160208301610e57565b602082018103825203826100db565b610fd6610fd082610e69565b91610e63565b20611029611023610ffc61100b6080880151610ff0610043565b92839160208301610e96565b602082018103825203826100db565b61101d61101782610e69565b91610e63565b20610ea2565b91610ea2565b14611053611062600561103d888790610622565b5001611047610043565b92839160208301610e57565b602082018103825203826100db565b61107461106e82610e69565b91610e63565b206110c76110c161109a6110a960a089015161108e610043565b92839160208301610e96565b602082018103825203826100db565b6110bb6110b582610e69565b91610e63565b20610ea2565b91610ea2565b149190816110fb575b5090816110f3575b506110eb576110e690610dba565b610ecd565b505050600190565b9050386110d8565b9050386110d0565b50505060009056fea26469706673582212207aaad9fdb7eb19ac5e5c0d8063714a458b20e97edea376b3f834ebe28668a1e364736f6c634300081b0033","opcodes":"PUSH1 0x80 PUSH1 0x40 MSTORE CALLVALUE PUSH1 0x1C JUMPI PUSH1 0xE PUSH1 0x20 JUMP JUMPDEST PUSH2 0x1141 PUSH2 0x2C DUP3 CODECOPY PUSH2 0x1141 SWAP1 RETURN JUMPDEST PUSH1 0x26 JUMP JUMPDEST PUSH1 0x40 MLOAD SWAP1 JUMP JUMPDEST PUSH1 0x0 DUP1 REVERT INVALID PUSH1 0x80 PUSH1 0x40 MSTORE PUSH1 0x4 CALLDATASIZE LT ISZERO PUSH2 0x13 JUMPI JUMPDEST PUSH2 0x4F7 JUMP JUMPDEST PUSH2 0x1E PUSH1 0x0 CALLDATALOAD PUSH2 0x3D JUMP JUMPDEST DUP1 PUSH4 0x3B27F4E2 EQ PUSH2 0x38 JUMPI PUSH4 0xB226187C SUB PUSH2 0xE JUMPI PUSH2 0x4C2 JUMP JUMPDEST PUSH2 0x291 JUMP JUMPDEST PUSH1 0xE0 SHR SWAP1 JUMP JUMPDEST PUSH1 0x40 MLOAD SWAP1 JUMP JUMPDEST PUSH1 0x0 DUP1 REVERT JUMPDEST PUSH1 0x0 DUP1 REVERT JUMPDEST PUSH1 0x0 DUP1 REVERT JUMPDEST PUSH1 0x1 DUP1 PUSH1 0xA0 SHL SUB AND SWAP1 JUMP JUMPDEST PUSH2 0x6C SWAP1 PUSH2 0x58 JUMP JUMPDEST SWAP1 JUMP JUMPDEST PUSH2 0x78 DUP2 PUSH2 0x63 JUMP JUMPDEST SUB PUSH2 0x7F JUMPI JUMP JUMPDEST PUSH1 0x0 DUP1 REVERT JUMPDEST SWAP1 POP CALLDATALOAD SWAP1 PUSH2 0x91 DUP3 PUSH2 0x6F JUMP JUMPDEST JUMP JUMPDEST PUSH1 0x2 GT ISZERO PUSH2 0x9D JUMPI JUMP JUMPDEST PUSH1 0x0 DUP1 REVERT JUMPDEST SWAP1 POP CALLDATALOAD SWAP1 PUSH2 0xAF DUP3 PUSH2 0x93 JUMP JUMPDEST JUMP JUMPDEST PUSH1 0x0 DUP1 REVERT JUMPDEST PUSH1 0x0 DUP1 REVERT JUMPDEST PUSH1 0x1F DUP1 NOT SWAP2 ADD AND SWAP1 JUMP JUMPDEST PUSH4 0x4E487B71 PUSH1 0xE0 SHL PUSH1 0x0 MSTORE PUSH1 0x41 PUSH1 0x4 MSTORE PUSH1 0x24 PUSH1 0x0 REVERT JUMPDEST SWAP1 PUSH2 0xE5 SWAP1 PUSH2 0xBB JUMP JUMPDEST DUP2 ADD SWAP1 DUP2 LT PUSH8 0xFFFFFFFFFFFFFFFF DUP3 GT OR PUSH2 0xFF JUMPI PUSH1 0x40 MSTORE JUMP JUMPDEST PUSH2 0xC5 JUMP JUMPDEST SWAP1 PUSH2 0x117 PUSH2 0x110 PUSH2 0x43 JUMP JUMPDEST SWAP3 DUP4 PUSH2 0xDB JUMP JUMPDEST JUMP JUMPDEST PUSH8 0xFFFFFFFFFFFFFFFF DUP2 GT PUSH2 0x137 JUMPI PUSH2 0x133 PUSH1 0x20 SWAP2 PUSH2 0xBB JUMP JUMPDEST ADD SWAP1 JUMP JUMPDEST PUSH2 0xC5 JUMP JUMPDEST SWAP1 DUP3 PUSH1 0x0 SWAP4 SWAP3 DUP3 CALLDATACOPY ADD MSTORE JUMP JUMPDEST SWAP1 SWAP3 SWAP2 SWAP3 PUSH2 0x15D PUSH2 0x158 DUP3 PUSH2 0x119 JUMP JUMPDEST PUSH2 0x104 JUMP JUMPDEST SWAP4 DUP2 DUP6 MSTORE PUSH1 0x20 DUP6 ADD SWAP1 DUP3 DUP5 ADD GT PUSH2 0x179 JUMPI PUSH2 0x177 SWAP3 PUSH2 0x13C JUMP JUMPDEST JUMP JUMPDEST PUSH2 0xB6 JUMP JUMPDEST SWAP1 DUP1 PUSH1 0x1F DUP4 ADD SLT ISZERO PUSH2 0x19C JUMPI DUP2 PUSH1 0x20 PUSH2 0x199 SWAP4 CALLDATALOAD SWAP2 ADD PUSH2 0x148 JUMP JUMPDEST SWAP1 JUMP JUMPDEST PUSH2 0xB1 JUMP JUMPDEST SWAP1 PUSH1 0xE0 DUP3 DUP3 SUB SLT PUSH2 0x286 JUMPI PUSH2 0x1B9 DUP2 PUSH1 0x0 DUP5 ADD PUSH2 0x84 JUMP JUMPDEST SWAP3 PUSH2 0x1C7 DUP3 PUSH1 0x20 DUP6 ADD PUSH2 0xA2 JUMP JUMPDEST SWAP3 PUSH1 0x40 DUP2 ADD CALLDATALOAD PUSH8 0xFFFFFFFFFFFFFFFF DUP2 GT PUSH2 0x281 JUMPI DUP4 PUSH2 0x1E8 SWAP2 DUP4 ADD PUSH2 0x17E JUMP JUMPDEST SWAP3 PUSH1 0x60 DUP3 ADD CALLDATALOAD PUSH8 0xFFFFFFFFFFFFFFFF DUP2 GT PUSH2 0x27C JUMPI DUP2 PUSH2 0x209 SWAP2 DUP5 ADD PUSH2 0x17E JUMP JUMPDEST SWAP3 PUSH1 0x80 DUP4 ADD CALLDATALOAD PUSH8 0xFFFFFFFFFFFFFFFF DUP2 GT PUSH2 0x277 JUMPI DUP3 PUSH2 0x22A SWAP2 DUP6 ADD PUSH2 0x17E JUMP JUMPDEST SWAP3 PUSH1 0xA0 DUP2 ADD CALLDATALOAD PUSH8 0xFFFFFFFFFFFFFFFF DUP2 GT PUSH2 0x272 JUMPI DUP4 PUSH2 0x24B SWAP2 DUP4 ADD PUSH2 0x17E JUMP JUMPDEST SWAP3 PUSH1 0xC0 DUP3 ADD CALLDATALOAD PUSH8 0xFFFFFFFFFFFFFFFF DUP2 GT PUSH2 0x26D JUMPI PUSH2 0x26A SWAP3 ADD PUSH2 0x17E JUMP JUMPDEST SWAP1 JUMP JUMPDEST PUSH2 0x53 JUMP JUMPDEST PUSH2 0x53 JUMP JUMPDEST PUSH2 0x53 JUMP JUMPDEST PUSH2 0x53 JUMP JUMPDEST PUSH2 0x53 JUMP JUMPDEST PUSH2 0x4E JUMP JUMPDEST PUSH1 0x0 ADD SWAP1 JUMP JUMPDEST CALLVALUE PUSH2 0x2C6 JUMPI PUSH2 0x2B0 PUSH2 0x2A4 CALLDATASIZE PUSH1 0x4 PUSH2 0x1A1 JUMP JUMPDEST SWAP6 SWAP5 SWAP1 SWAP5 SWAP4 SWAP2 SWAP4 PUSH2 0xA5A JUMP JUMPDEST PUSH2 0x2B8 PUSH2 0x43 JUMP JUMPDEST DUP1 PUSH2 0x2C2 DUP2 PUSH2 0x28B JUMP JUMPDEST SUB SWAP1 RETURN JUMPDEST PUSH2 0x49 JUMP JUMPDEST SWAP1 PUSH1 0x20 DUP3 DUP3 SUB SLT PUSH2 0x2E5 JUMPI PUSH2 0x2E2 SWAP2 PUSH1 0x0 ADD PUSH2 0x84 JUMP JUMPDEST SWAP1 JUMP JUMPDEST PUSH2 0x4E JUMP JUMPDEST MLOAD SWAP1 JUMP JUMPDEST PUSH1 0x20 SWAP2 DUP2 MSTORE ADD SWAP1 JUMP JUMPDEST PUSH1 0x20 ADD SWAP1 JUMP JUMPDEST PUSH4 0x4E487B71 PUSH1 0xE0 SHL PUSH1 0x0 MSTORE PUSH1 0x21 PUSH1 0x4 MSTORE PUSH1 0x24 PUSH1 0x0 REVERT JUMPDEST PUSH1 0x2 GT ISZERO PUSH2 0x31D JUMPI JUMP JUMPDEST PUSH2 0x2FD JUMP JUMPDEST SWAP1 PUSH2 0x32C DUP3 PUSH2 0x313 JUMP JUMPDEST JUMP JUMPDEST PUSH2 0x337 SWAP1 PUSH2 0x322 JUMP JUMPDEST SWAP1 JUMP JUMPDEST PUSH2 0x343 SWAP1 PUSH2 0x32E JUMP JUMPDEST SWAP1 MSTORE JUMP JUMPDEST MLOAD SWAP1 JUMP JUMPDEST PUSH1 0x20 SWAP2 DUP2 MSTORE ADD SWAP1 JUMP JUMPDEST PUSH1 0x0 JUMPDEST DUP4 DUP2 LT PUSH2 0x368 JUMPI POP POP SWAP1 PUSH1 0x0 SWAP2 ADD MSTORE JUMP JUMPDEST DUP1 PUSH1 0x20 SWAP2 DUP4 ADD MLOAD DUP2 DUP6 ADD MSTORE ADD PUSH2 0x357 JUMP JUMPDEST PUSH2 0x398 PUSH2 0x3A1 PUSH1 0x20 SWAP4 PUSH2 0x3A6 SWAP4 PUSH2 0x38F DUP2 PUSH2 0x347 JUMP JUMPDEST SWAP4 DUP5 DUP1 SWAP4 PUSH2 0x34B JUMP JUMPDEST SWAP6 DUP7 SWAP2 ADD PUSH2 0x354 JUMP JUMPDEST PUSH2 0xBB JUMP JUMPDEST ADD SWAP1 JUMP JUMPDEST PUSH2 0x42B SWAP2 PUSH1 0xA0 PUSH2 0x41A PUSH2 0x408 PUSH2 0x3F6 PUSH2 0x3E4 PUSH1 0xC0 DUP7 ADD PUSH2 0x3D2 PUSH1 0x0 DUP10 ADD MLOAD PUSH1 0x0 DUP10 ADD SWAP1 PUSH2 0x33A JUMP JUMPDEST PUSH1 0x20 DUP9 ADD MLOAD DUP8 DUP3 SUB PUSH1 0x20 DUP10 ADD MSTORE PUSH2 0x379 JUMP JUMPDEST PUSH1 0x40 DUP8 ADD MLOAD DUP7 DUP3 SUB PUSH1 0x40 DUP9 ADD MSTORE PUSH2 0x379 JUMP JUMPDEST PUSH1 0x60 DUP7 ADD MLOAD DUP6 DUP3 SUB PUSH1 0x60 DUP8 ADD MSTORE PUSH2 0x379 JUMP JUMPDEST PUSH1 0x80 DUP6 ADD MLOAD DUP5 DUP3 SUB PUSH1 0x80 DUP7 ADD MSTORE PUSH2 0x379 JUMP JUMPDEST SWAP3 ADD MLOAD SWAP1 PUSH1 0xA0 DUP2 DUP5 SUB SWAP2 ADD MSTORE PUSH2 0x379 JUMP JUMPDEST SWAP1 JUMP JUMPDEST SWAP1 PUSH2 0x438 SWAP2 PUSH2 0x3AA JUMP JUMPDEST SWAP1 JUMP JUMPDEST PUSH1 0x20 ADD SWAP1 JUMP JUMPDEST SWAP1 PUSH2 0x455 PUSH2 0x44E DUP4 PUSH2 0x2EA JUMP JUMPDEST DUP1 SWAP3 PUSH2 0x2EE JUMP JUMPDEST SWAP1 DUP2 PUSH2 0x466 PUSH1 0x20 DUP4 MUL DUP5 ADD SWAP5 PUSH2 0x2F7 JUMP JUMPDEST SWAP3 PUSH1 0x0 SWAP2 JUMPDEST DUP4 DUP4 LT PUSH2 0x47A JUMPI POP POP POP POP POP SWAP1 JUMP JUMPDEST SWAP1 SWAP2 SWAP3 SWAP4 SWAP5 PUSH1 0x20 PUSH2 0x49C PUSH2 0x496 DUP4 DUP6 PUSH1 0x1 SWAP6 SUB DUP8 MSTORE DUP10 MLOAD PUSH2 0x42E JUMP JUMPDEST SWAP8 PUSH2 0x43B JUMP JUMPDEST SWAP4 ADD SWAP4 ADD SWAP2 SWAP4 SWAP3 SWAP1 PUSH2 0x46B JUMP JUMPDEST PUSH2 0x4BF SWAP2 PUSH1 0x20 DUP3 ADD SWAP2 PUSH1 0x0 DUP2 DUP5 SUB SWAP2 ADD MSTORE PUSH2 0x441 JUMP JUMPDEST SWAP1 JUMP JUMPDEST CALLVALUE PUSH2 0x4F2 JUMPI PUSH2 0x4EE PUSH2 0x4DD PUSH2 0x4D8 CALLDATASIZE PUSH1 0x4 PUSH2 0x2CB JUMP JUMPDEST PUSH2 0xD77 JUMP JUMPDEST PUSH2 0x4E5 PUSH2 0x43 JUMP JUMPDEST SWAP2 DUP3 SWAP2 DUP3 PUSH2 0x4A9 JUMP JUMPDEST SUB SWAP1 RETURN JUMPDEST PUSH2 0x49 JUMP JUMPDEST PUSH1 0x0 DUP1 REVERT JUMPDEST PUSH2 0x506 PUSH1 0xC0 PUSH2 0x104 JUMP JUMPDEST SWAP1 JUMP JUMPDEST SWAP1 PUSH2 0x513 SWAP1 PUSH2 0x322 JUMP JUMPDEST SWAP1 MSTORE JUMP JUMPDEST MSTORE JUMP JUMPDEST ISZERO ISZERO SWAP1 JUMP JUMPDEST PUSH1 0x20 SWAP2 DUP2 MSTORE ADD SWAP1 JUMP JUMPDEST PUSH1 0x0 PUSH32 0x4475706C6963617465206D65646963616C20686973746F7279207265636F7264 SWAP2 ADD MSTORE JUMP JUMPDEST PUSH2 0x55C PUSH1 0x20 DUP1 SWAP3 PUSH2 0x51F JUMP JUMPDEST PUSH2 0x565 DUP2 PUSH2 0x528 JUMP JUMPDEST ADD SWAP1 JUMP JUMPDEST PUSH2 0x57F SWAP1 PUSH1 0x20 DUP2 ADD SWAP1 PUSH1 0x0 DUP2 DUP4 SUB SWAP2 ADD MSTORE PUSH2 0x550 JUMP JUMPDEST SWAP1 JUMP JUMPDEST ISZERO PUSH2 0x589 JUMPI JUMP JUMPDEST PUSH2 0x591 PUSH2 0x43 JUMP JUMPDEST PUSH3 0x461BCD PUSH1 0xE5 SHL DUP2 MSTORE DUP1 PUSH2 0x5A7 PUSH1 0x4 DUP3 ADD PUSH2 0x569 JUMP JUMPDEST SUB SWAP1 REVERT JUMPDEST SWAP1 JUMP JUMPDEST PUSH2 0x5C2 PUSH2 0x5BD PUSH2 0x5C7 SWAP3 PUSH2 0x58 JUMP JUMPDEST PUSH2 0x5AB JUMP JUMPDEST PUSH2 0x58 JUMP JUMPDEST SWAP1 JUMP JUMPDEST PUSH2 0x5D3 SWAP1 PUSH2 0x5AE JUMP JUMPDEST SWAP1 JUMP JUMPDEST PUSH2 0x5DF SWAP1 PUSH2 0x5CA JUMP JUMPDEST SWAP1 JUMP JUMPDEST SWAP1 PUSH2 0x5EC SWAP1 PUSH2 0x5D6 JUMP JUMPDEST PUSH1 0x0 MSTORE PUSH1 0x20 MSTORE PUSH1 0x40 PUSH1 0x0 KECCAK256 SWAP1 JUMP JUMPDEST SWAP1 JUMP JUMPDEST PUSH1 0x0 MSTORE PUSH1 0x20 PUSH1 0x0 KECCAK256 SWAP1 JUMP JUMPDEST PUSH4 0x4E487B71 PUSH1 0xE0 SHL PUSH1 0x0 MSTORE PUSH1 0x32 PUSH1 0x4 MSTORE PUSH1 0x24 PUSH1 0x0 REVERT JUMPDEST SLOAD SWAP1 JUMP JUMPDEST PUSH2 0x62B DUP2 PUSH2 0x61E JUMP JUMPDEST DUP3 LT ISZERO PUSH2 0x646 JUMPI PUSH2 0x63D PUSH1 0x6 SWAP2 PUSH2 0x5FD JUMP JUMPDEST SWAP2 MUL ADD SWAP1 PUSH1 0x0 SWAP1 JUMP JUMPDEST PUSH2 0x608 JUMP JUMPDEST PUSH4 0x4E487B71 PUSH1 0xE0 SHL PUSH1 0x0 MSTORE PUSH1 0x0 PUSH1 0x4 MSTORE PUSH1 0x24 PUSH1 0x0 REVERT JUMPDEST PUSH2 0x66B SWAP1 MLOAD PUSH2 0x322 JUMP JUMPDEST SWAP1 JUMP JUMPDEST PUSH1 0x0 SHL SWAP1 JUMP JUMPDEST SWAP1 PUSH2 0x680 PUSH1 0xFF SWAP2 PUSH2 0x66E JUMP JUMPDEST SWAP2 DUP2 NOT AND SWAP2 AND OR SWAP1 JUMP JUMPDEST PUSH2 0x693 SWAP1 PUSH2 0x322 JUMP JUMPDEST SWAP1 JUMP JUMPDEST SWAP1 JUMP JUMPDEST SWAP1 PUSH2 0x6AE PUSH2 0x6A9 PUSH2 0x6B5 SWAP3 PUSH2 0x68A JUMP JUMPDEST PUSH2 0x696 JUMP JUMPDEST DUP3 SLOAD PUSH2 0x674 JUMP JUMPDEST SWAP1 SSTORE JUMP JUMPDEST MLOAD SWAP1 JUMP JUMPDEST PUSH4 0x4E487B71 PUSH1 0xE0 SHL PUSH1 0x0 MSTORE PUSH1 0x22 PUSH1 0x4 MSTORE PUSH1 0x24 PUSH1 0x0 REVERT JUMPDEST SWAP1 PUSH1 0x1 PUSH1 0x2 DUP4 DIV SWAP3 AND DUP1 ISZERO PUSH2 0x6F3 JUMPI JUMPDEST PUSH1 0x20 DUP4 LT EQ PUSH2 0x6EE JUMPI JUMP JUMPDEST PUSH2 0x6BD JUMP JUMPDEST SWAP2 PUSH1 0x7F AND SWAP2 PUSH2 0x6E3 JUMP JUMPDEST PUSH1 0x0 MSTORE PUSH1 0x20 PUSH1 0x0 KECCAK256 SWAP1 JUMP JUMPDEST PUSH1 0x1F PUSH1 0x20 SWAP2 ADD DIV SWAP1 JUMP JUMPDEST SHL SWAP1 JUMP JUMPDEST SWAP2 SWAP1 PUSH1 0x8 PUSH2 0x732 SWAP2 MUL SWAP2 PUSH2 0x72C PUSH1 0x0 NOT DUP5 PUSH2 0x712 JUMP JUMPDEST SWAP3 PUSH2 0x712 JUMP JUMPDEST SWAP2 DUP2 NOT AND SWAP2 AND OR SWAP1 JUMP JUMPDEST SWAP1 JUMP JUMPDEST PUSH2 0x753 PUSH2 0x74E PUSH2 0x758 SWAP3 PUSH2 0x73C JUMP JUMPDEST PUSH2 0x5AB JUMP JUMPDEST PUSH2 0x73C JUMP JUMPDEST SWAP1 JUMP JUMPDEST SWAP1 JUMP JUMPDEST SWAP2 SWAP1 PUSH2 0x774 PUSH2 0x76F PUSH2 0x77C SWAP4 PUSH2 0x73F JUMP JUMPDEST PUSH2 0x75B JUMP JUMPDEST SWAP1 DUP4 SLOAD PUSH2 0x716 JUMP JUMPDEST SWAP1 SSTORE JUMP JUMPDEST PUSH1 0x0 SWAP1 JUMP JUMPDEST PUSH2 0x797 SWAP2 PUSH2 0x791 PUSH2 0x780 JUMP JUMPDEST SWAP2 PUSH2 0x75E JUMP JUMPDEST JUMP JUMPDEST JUMPDEST DUP2 DUP2 LT PUSH2 0x7A5 JUMPI POP POP JUMP JUMPDEST DUP1 PUSH2 0x7B3 PUSH1 0x0 PUSH1 0x1 SWAP4 PUSH2 0x785 JUMP JUMPDEST ADD PUSH2 0x79A JUMP JUMPDEST SWAP2 SWAP1 PUSH1 0x1F DUP2 GT PUSH2 0x7C9 JUMPI JUMPDEST POP POP POP JUMP JUMPDEST PUSH2 0x7D5 PUSH2 0x7FA SWAP4 PUSH2 0x6FD JUMP JUMPDEST SWAP1 PUSH1 0x20 PUSH2 0x7E1 DUP5 PUSH2 0x708 JUMP JUMPDEST DUP4 ADD SWAP4 LT PUSH2 0x802 JUMPI JUMPDEST PUSH2 0x7F3 SWAP1 PUSH2 0x708 JUMP JUMPDEST ADD SWAP1 PUSH2 0x799 JUMP JUMPDEST CODESIZE DUP1 DUP1 PUSH2 0x7C4 JUMP JUMPDEST SWAP2 POP PUSH2 0x7F3 DUP2 SWAP3 SWAP1 POP PUSH2 0x7EA JUMP JUMPDEST SHR SWAP1 JUMP JUMPDEST SWAP1 PUSH2 0x825 SWAP1 PUSH1 0x0 NOT SWAP1 PUSH1 0x8 MUL PUSH2 0x810 JUMP JUMPDEST NOT AND SWAP1 JUMP JUMPDEST DUP2 PUSH2 0x834 SWAP2 PUSH2 0x814 JUMP JUMPDEST SWAP1 PUSH1 0x2 MUL OR SWAP1 JUMP JUMPDEST SWAP1 PUSH2 0x846 DUP2 PUSH2 0x347 JUMP JUMPDEST SWAP1 PUSH8 0xFFFFFFFFFFFFFFFF DUP3 GT PUSH2 0x908 JUMPI PUSH2 0x86A DUP3 PUSH2 0x864 DUP6 SLOAD PUSH2 0x6D3 JUMP JUMPDEST DUP6 PUSH2 0x7B9 JUMP JUMPDEST PUSH1 0x20 SWAP1 PUSH1 0x1F DUP4 GT PUSH1 0x1 EQ PUSH2 0x89F JUMPI SWAP2 DUP1 SWAP2 PUSH2 0x88E SWAP4 PUSH1 0x0 SWAP3 PUSH2 0x893 JUMPI JUMPDEST POP POP PUSH2 0x82A JUMP JUMPDEST SWAP1 SSTORE JUMPDEST JUMP JUMPDEST SWAP1 SWAP2 POP ADD MLOAD CODESIZE DUP1 PUSH2 0x887 JUMP JUMPDEST PUSH1 0x1F NOT DUP4 AND SWAP2 PUSH2 0x8AE DUP6 PUSH2 0x6FD JUMP JUMPDEST SWAP3 PUSH1 0x0 JUMPDEST DUP2 DUP2 LT PUSH2 0x8F0 JUMPI POP SWAP2 PUSH1 0x2 SWAP4 SWAP2 DUP6 PUSH1 0x1 SWAP7 SWAP5 LT PUSH2 0x8D6 JUMPI JUMPDEST POP POP POP MUL ADD SWAP1 SSTORE PUSH2 0x891 JUMP JUMPDEST PUSH2 0x8E6 SWAP2 ADD MLOAD PUSH1 0x1F DUP5 AND SWAP1 PUSH2 0x814 JUMP JUMPDEST SWAP1 SSTORE CODESIZE DUP1 DUP1 PUSH2 0x8CA JUMP JUMPDEST SWAP2 SWAP4 PUSH1 0x20 PUSH1 0x1 DUP2 SWAP3 DUP8 DUP8 ADD MLOAD DUP2 SSTORE ADD SWAP6 ADD SWAP3 ADD PUSH2 0x8B2 JUMP JUMPDEST PUSH2 0xC5 JUMP JUMPDEST SWAP1 PUSH2 0x917 SWAP2 PUSH2 0x83C JUMP JUMPDEST JUMP JUMPDEST SWAP1 PUSH2 0x9AA PUSH1 0xA0 PUSH1 0x5 PUSH2 0x9B0 SWAP5 PUSH2 0x93E PUSH1 0x0 DUP3 ADD PUSH2 0x938 PUSH1 0x0 DUP9 ADD PUSH2 0x661 JUMP JUMPDEST SWAP1 PUSH2 0x699 JUMP JUMPDEST PUSH2 0x957 PUSH1 0x1 DUP3 ADD PUSH2 0x951 PUSH1 0x20 DUP9 ADD PUSH2 0x6B9 JUMP JUMPDEST SWAP1 PUSH2 0x90D JUMP JUMPDEST PUSH2 0x970 PUSH1 0x2 DUP3 ADD PUSH2 0x96A PUSH1 0x40 DUP9 ADD PUSH2 0x6B9 JUMP JUMPDEST SWAP1 PUSH2 0x90D JUMP JUMPDEST PUSH2 0x989 PUSH1 0x3 DUP3 ADD PUSH2 0x983 PUSH1 0x60 DUP9 ADD PUSH2 0x6B9 JUMP JUMPDEST SWAP1 PUSH2 0x90D JUMP JUMPDEST PUSH2 0x9A2 PUSH1 0x4 DUP3 ADD PUSH2 0x99C PUSH1 0x80 DUP9 ADD PUSH2 0x6B9 JUMP JUMPDEST SWAP1 PUSH2 0x90D JUMP JUMPDEST ADD SWAP3 ADD PUSH2 0x6B9 JUMP JUMPDEST SWAP1 PUSH2 0x90D JUMP JUMPDEST JUMP JUMPDEST SWAP2 SWAP1 PUSH2 0x9C3 JUMPI PUSH2 0x9C1 SWAP2 PUSH2 0x919 JUMP JUMPDEST JUMP JUMPDEST PUSH2 0x64B JUMP JUMPDEST SWAP1 DUP2 SLOAD SWAP2 PUSH9 0x10000000000000000 DUP4 LT ISZERO PUSH2 0x9F8 JUMPI DUP3 PUSH2 0x9F0 SWAP2 PUSH1 0x1 PUSH2 0x9F6 SWAP6 ADD DUP2 SSTORE PUSH2 0x622 JUMP JUMPDEST SWAP1 PUSH2 0x9B2 JUMP JUMPDEST JUMP JUMPDEST PUSH2 0xC5 JUMP JUMPDEST PUSH2 0xA1C PUSH2 0xA25 PUSH1 0x20 SWAP4 PUSH2 0xA2A SWAP4 PUSH2 0xA13 DUP2 PUSH2 0x347 JUMP JUMPDEST SWAP4 DUP5 DUP1 SWAP4 PUSH2 0x51F JUMP JUMPDEST SWAP6 DUP7 SWAP2 ADD PUSH2 0x354 JUMP JUMPDEST PUSH2 0xBB JUMP JUMPDEST ADD SWAP1 JUMP JUMPDEST SWAP1 SWAP2 PUSH2 0xA49 PUSH2 0xA57 SWAP4 PUSH1 0x40 DUP5 ADD SWAP1 DUP5 DUP3 SUB PUSH1 0x0 DUP7 ADD MSTORE PUSH2 0x9FD JUMP JUMPDEST SWAP2 PUSH1 0x20 DUP2 DUP5 SUB SWAP2 ADD MSTORE PUSH2 0x9FD JUMP JUMPDEST SWAP1 JUMP JUMPDEST SWAP4 PUSH2 0xAB0 PUSH2 0xAEE SWAP5 SWAP7 SWAP8 PUSH2 0xAA7 PUSH2 0xAB9 SWAP5 SWAP6 SWAP4 PUSH2 0xA9E DUP11 PUSH2 0xA95 DUP14 SWAP6 SWAP8 PUSH2 0xA8C PUSH2 0xA82 PUSH2 0x4FC JUMP JUMPDEST SWAP12 PUSH1 0x0 DUP14 ADD PUSH2 0x509 JUMP JUMPDEST PUSH1 0x20 DUP12 ADD PUSH2 0x517 JUMP JUMPDEST PUSH1 0x40 DUP10 ADD PUSH2 0x517 JUMP JUMPDEST PUSH1 0x60 DUP8 ADD PUSH2 0x517 JUMP JUMPDEST PUSH1 0x80 DUP6 ADD PUSH2 0x517 JUMP JUMPDEST PUSH1 0xA0 DUP4 ADD PUSH2 0x517 JUMP JUMPDEST PUSH2 0xAD5 PUSH2 0xAD0 PUSH2 0xACA DUP6 DUP5 SWAP1 PUSH2 0xEA5 JUMP JUMPDEST ISZERO PUSH2 0x51A JUMP JUMPDEST PUSH2 0x582 JUMP JUMPDEST PUSH2 0xAE9 PUSH2 0xAE4 PUSH1 0x0 DUP6 SWAP1 PUSH2 0x5E2 JUMP JUMPDEST PUSH2 0x5FA JUMP JUMPDEST PUSH2 0x9C8 JUMP JUMPDEST SWAP1 SWAP2 PUSH2 0xB1A PUSH32 0x81190344228B313D29BE4F930C8DF91C69B2830B0A4DA61CCE4636437DACAD58 SWAP3 PUSH2 0x5D6 JUMP JUMPDEST SWAP3 PUSH2 0xB2F PUSH2 0xB26 PUSH2 0x43 JUMP JUMPDEST SWAP3 DUP4 SWAP3 DUP4 PUSH2 0xA2E JUMP JUMPDEST SUB SWAP1 LOG2 JUMP JUMPDEST PUSH1 0x60 SWAP1 JUMP JUMPDEST SLOAD SWAP1 JUMP JUMPDEST PUSH8 0xFFFFFFFFFFFFFFFF DUP2 GT PUSH2 0xB55 JUMPI PUSH1 0x20 DUP1 SWAP2 MUL ADD SWAP1 JUMP JUMPDEST PUSH2 0xC5 JUMP JUMPDEST SWAP1 PUSH2 0xB6C PUSH2 0xB67 DUP4 PUSH2 0xB3D JUMP JUMPDEST PUSH2 0x104 JUMP JUMPDEST SWAP2 DUP3 MSTORE JUMP JUMPDEST PUSH1 0x0 MSTORE PUSH1 0x20 PUSH1 0x0 KECCAK256 SWAP1 JUMP JUMPDEST PUSH1 0x0 SHR SWAP1 JUMP JUMPDEST PUSH1 0xFF AND SWAP1 JUMP JUMPDEST PUSH2 0xB94 PUSH2 0xB99 SWAP2 PUSH2 0xB7C JUMP JUMPDEST PUSH2 0xB82 JUMP JUMPDEST SWAP1 JUMP JUMPDEST PUSH2 0xBA6 SWAP1 SLOAD PUSH2 0xB88 JUMP JUMPDEST SWAP1 JUMP JUMPDEST SWAP1 PUSH1 0x0 SWAP3 SWAP2 DUP1 SLOAD SWAP1 PUSH2 0xBC4 PUSH2 0xBBD DUP4 PUSH2 0x6D3 JUMP JUMPDEST DUP1 SWAP5 PUSH2 0x34B JUMP JUMPDEST SWAP2 PUSH1 0x1 DUP2 AND SWAP1 DUP2 PUSH1 0x0 EQ PUSH2 0xC1D JUMPI POP PUSH1 0x1 EQ PUSH2 0xBE0 JUMPI JUMPDEST POP POP POP JUMP JUMPDEST PUSH2 0xBED SWAP2 SWAP3 SWAP4 SWAP5 POP PUSH2 0x6FD JUMP JUMPDEST SWAP2 PUSH1 0x0 SWAP3 JUMPDEST DUP2 DUP5 LT PUSH2 0xC05 JUMPI POP POP ADD SWAP1 CODESIZE DUP1 DUP1 PUSH2 0xBDB JUMP JUMPDEST PUSH1 0x1 DUP2 PUSH1 0x20 SWAP3 SWAP6 SWAP4 SWAP6 SLOAD DUP5 DUP7 ADD MSTORE ADD SWAP2 ADD SWAP3 SWAP1 PUSH2 0xBF2 JUMP JUMPDEST SWAP3 SWAP5 SWAP6 POP POP POP PUSH1 0xFF NOT AND DUP3 MSTORE ISZERO ISZERO PUSH1 0x20 MUL ADD SWAP1 CODESIZE DUP1 DUP1 PUSH2 0xBDB JUMP JUMPDEST SWAP1 PUSH2 0xC42 SWAP2 PUSH2 0xBA9 JUMP JUMPDEST SWAP1 JUMP JUMPDEST SWAP1 PUSH2 0xC65 PUSH2 0xC5E SWAP3 PUSH2 0xC55 PUSH2 0x43 JUMP JUMPDEST SWAP4 DUP5 DUP1 SWAP3 PUSH2 0xC38 JUMP JUMPDEST SUB DUP4 PUSH2 0xDB JUMP JUMPDEST JUMP JUMPDEST PUSH2 0xC71 PUSH1 0xC0 PUSH2 0x104 JUMP JUMPDEST SWAP1 JUMP JUMPDEST SWAP1 PUSH2 0xD0D PUSH2 0xD04 PUSH1 0x5 PUSH2 0xC85 PUSH2 0xC67 JUMP JUMPDEST SWAP5 PUSH2 0xC9E PUSH2 0xC95 PUSH1 0x0 DUP4 ADD PUSH2 0xB9C JUMP JUMPDEST PUSH1 0x0 DUP9 ADD PUSH2 0x509 JUMP JUMPDEST PUSH2 0xCB6 PUSH2 0xCAD PUSH1 0x1 DUP4 ADD PUSH2 0xC45 JUMP JUMPDEST PUSH1 0x20 DUP9 ADD PUSH2 0x517 JUMP JUMPDEST PUSH2 0xCCE PUSH2 0xCC5 PUSH1 0x2 DUP4 ADD PUSH2 0xC45 JUMP JUMPDEST PUSH1 0x40 DUP9 ADD PUSH2 0x517 JUMP JUMPDEST PUSH2 0xCE6 PUSH2 0xCDD PUSH1 0x3 DUP4 ADD PUSH2 0xC45 JUMP JUMPDEST PUSH1 0x60 DUP9 ADD PUSH2 0x517 JUMP JUMPDEST PUSH2 0xCFE PUSH2 0xCF5 PUSH1 0x4 DUP4 ADD PUSH2 0xC45 JUMP JUMPDEST PUSH1 0x80 DUP9 ADD PUSH2 0x517 JUMP JUMPDEST ADD PUSH2 0xC45 JUMP JUMPDEST PUSH1 0xA0 DUP5 ADD PUSH2 0x517 JUMP JUMPDEST JUMP JUMPDEST PUSH2 0xD18 SWAP1 PUSH2 0xC74 JUMP JUMPDEST SWAP1 JUMP JUMPDEST SWAP1 PUSH2 0xD25 DUP3 PUSH2 0xB39 JUMP JUMPDEST PUSH2 0xD2E DUP2 PUSH2 0xB5A JUMP JUMPDEST SWAP3 PUSH2 0xD3C PUSH1 0x20 DUP6 ADD SWAP2 PUSH2 0xB71 JUMP JUMPDEST PUSH1 0x0 SWAP2 JUMPDEST DUP4 DUP4 LT PUSH2 0xD4D JUMPI POP POP POP POP JUMP JUMPDEST PUSH1 0x6 PUSH1 0x20 PUSH1 0x1 SWAP3 PUSH2 0xD5D DUP6 PUSH2 0xD0F JUMP JUMPDEST DUP2 MSTORE ADD SWAP3 ADD SWAP3 ADD SWAP2 SWAP1 PUSH2 0xD40 JUMP JUMPDEST PUSH2 0xD74 SWAP1 PUSH2 0xD1B JUMP JUMPDEST SWAP1 JUMP JUMPDEST PUSH2 0xD8E PUSH2 0xD93 SWAP2 PUSH2 0xD86 PUSH2 0xB34 JUMP JUMPDEST POP PUSH1 0x0 PUSH2 0x5E2 JUMP JUMPDEST PUSH2 0xD6B JUMP JUMPDEST SWAP1 JUMP JUMPDEST PUSH1 0x0 SWAP1 JUMP JUMPDEST SWAP1 JUMP JUMPDEST PUSH2 0xDB2 PUSH2 0xDAD PUSH2 0xDB7 SWAP3 PUSH2 0xD9B JUMP JUMPDEST PUSH2 0x5AB JUMP JUMPDEST PUSH2 0x73C JUMP JUMPDEST SWAP1 JUMP JUMPDEST PUSH1 0x1 PUSH2 0xDC6 SWAP2 ADD PUSH2 0x73C JUMP JUMPDEST SWAP1 JUMP JUMPDEST SWAP1 POP SWAP1 JUMP JUMPDEST SWAP1 PUSH1 0x0 SWAP3 SWAP2 DUP1 SLOAD SWAP1 PUSH2 0xDE9 PUSH2 0xDE2 DUP4 PUSH2 0x6D3 JUMP JUMPDEST DUP1 SWAP5 PUSH2 0xDC9 JUMP JUMPDEST SWAP2 PUSH1 0x1 DUP2 AND SWAP1 DUP2 PUSH1 0x0 EQ PUSH2 0xE3D JUMPI POP PUSH1 0x1 EQ PUSH2 0xE05 JUMPI JUMPDEST POP POP POP JUMP JUMPDEST PUSH2 0xE12 SWAP2 SWAP3 SWAP4 SWAP5 POP PUSH2 0x6FD JUMP JUMPDEST PUSH1 0x0 SWAP1 JUMPDEST DUP4 DUP3 LT PUSH2 0xE29 JUMPI POP POP ADD SWAP1 CODESIZE DUP1 DUP1 PUSH2 0xE00 JUMP JUMPDEST PUSH1 0x1 DUP2 PUSH1 0x20 SWAP3 SLOAD DUP5 DUP7 ADD MSTORE ADD SWAP2 ADD SWAP1 PUSH2 0xE16 JUMP JUMPDEST SWAP3 SWAP5 SWAP6 POP POP POP PUSH1 0xFF NOT AND DUP3 MSTORE DUP1 ISZERO ISZERO MUL ADD SWAP1 CODESIZE DUP1 DUP1 PUSH2 0xE00 JUMP JUMPDEST PUSH2 0xE60 SWAP2 PUSH2 0xDCE JUMP JUMPDEST SWAP1 JUMP JUMPDEST PUSH1 0x20 ADD SWAP1 JUMP JUMPDEST MLOAD SWAP1 JUMP JUMPDEST PUSH2 0xE92 PUSH2 0xE89 SWAP3 PUSH1 0x20 SWAP3 PUSH2 0xE80 DUP2 PUSH2 0x347 JUMP JUMPDEST SWAP5 DUP6 DUP1 SWAP4 PUSH2 0xDC9 JUMP JUMPDEST SWAP4 DUP5 SWAP2 ADD PUSH2 0x354 JUMP JUMPDEST ADD SWAP1 JUMP JUMPDEST PUSH2 0xE9F SWAP2 PUSH2 0xE6D JUMP JUMPDEST SWAP1 JUMP JUMPDEST SWAP1 JUMP JUMPDEST PUSH2 0xEBC PUSH2 0xEC1 SWAP2 PUSH2 0xEB4 PUSH2 0xD96 JUMP JUMPDEST POP PUSH1 0x0 PUSH2 0x5E2 JUMP JUMPDEST PUSH2 0x5FA JUMP JUMPDEST SWAP1 PUSH2 0xECC PUSH1 0x0 PUSH2 0xD9E JUMP JUMPDEST JUMPDEST DUP1 PUSH2 0xEE8 PUSH2 0xEE2 PUSH2 0xEDD DUP7 PUSH2 0x61E JUMP JUMPDEST PUSH2 0x73C JUMP JUMPDEST SWAP2 PUSH2 0x73C JUMP JUMPDEST LT ISZERO PUSH2 0x1103 JUMPI PUSH2 0xF17 PUSH2 0xF26 PUSH1 0x2 PUSH2 0xF01 DUP7 DUP6 SWAP1 PUSH2 0x622 JUMP JUMPDEST POP ADD PUSH2 0xF0B PUSH2 0x43 JUMP JUMPDEST SWAP3 DUP4 SWAP2 PUSH1 0x20 DUP4 ADD PUSH2 0xE57 JUMP JUMPDEST PUSH1 0x20 DUP3 ADD DUP2 SUB DUP3 MSTORE SUB DUP3 PUSH2 0xDB JUMP JUMPDEST PUSH2 0xF38 PUSH2 0xF32 DUP3 PUSH2 0xE69 JUMP JUMPDEST SWAP2 PUSH2 0xE63 JUMP JUMPDEST KECCAK256 PUSH2 0xF8B PUSH2 0xF85 PUSH2 0xF5E PUSH2 0xF6D PUSH1 0x40 DUP8 ADD MLOAD PUSH2 0xF52 PUSH2 0x43 JUMP JUMPDEST SWAP3 DUP4 SWAP2 PUSH1 0x20 DUP4 ADD PUSH2 0xE96 JUMP JUMPDEST PUSH1 0x20 DUP3 ADD DUP2 SUB DUP3 MSTORE SUB DUP3 PUSH2 0xDB JUMP JUMPDEST PUSH2 0xF7F PUSH2 0xF79 DUP3 PUSH2 0xE69 JUMP JUMPDEST SWAP2 PUSH2 0xE63 JUMP JUMPDEST KECCAK256 PUSH2 0xEA2 JUMP JUMPDEST SWAP2 PUSH2 0xEA2 JUMP JUMPDEST EQ PUSH2 0xFB5 PUSH2 0xFC4 PUSH1 0x4 PUSH2 0xF9F DUP8 DUP7 SWAP1 PUSH2 0x622 JUMP JUMPDEST POP ADD PUSH2 0xFA9 PUSH2 0x43 JUMP JUMPDEST SWAP3 DUP4 SWAP2 PUSH1 0x20 DUP4 ADD PUSH2 0xE57 JUMP JUMPDEST PUSH1 0x20 DUP3 ADD DUP2 SUB DUP3 MSTORE SUB DUP3 PUSH2 0xDB JUMP JUMPDEST PUSH2 0xFD6 PUSH2 0xFD0 DUP3 PUSH2 0xE69 JUMP JUMPDEST SWAP2 PUSH2 0xE63 JUMP JUMPDEST KECCAK256 PUSH2 0x1029 PUSH2 0x1023 PUSH2 0xFFC PUSH2 0x100B PUSH1 0x80 DUP9 ADD MLOAD PUSH2 0xFF0 PUSH2 0x43 JUMP JUMPDEST SWAP3 DUP4 SWAP2 PUSH1 0x20 DUP4 ADD PUSH2 0xE96 JUMP JUMPDEST PUSH1 0x20 DUP3 ADD DUP2 SUB DUP3 MSTORE SUB DUP3 PUSH2 0xDB JUMP JUMPDEST PUSH2 0x101D PUSH2 0x1017 DUP3 PUSH2 0xE69 JUMP JUMPDEST SWAP2 PUSH2 0xE63 JUMP JUMPDEST KECCAK256 PUSH2 0xEA2 JUMP JUMPDEST SWAP2 PUSH2 0xEA2 JUMP JUMPDEST EQ PUSH2 0x1053 PUSH2 0x1062 PUSH1 0x5 PUSH2 0x103D DUP9 DUP8 SWAP1 PUSH2 0x622 JUMP JUMPDEST POP ADD PUSH2 0x1047 PUSH2 0x43 JUMP JUMPDEST SWAP3 DUP4 SWAP2 PUSH1 0x20 DUP4 ADD PUSH2 0xE57 JUMP JUMPDEST PUSH1 0x20 DUP3 ADD DUP2 SUB DUP3 MSTORE SUB DUP3 PUSH2 0xDB JUMP JUMPDEST PUSH2 0x1074 PUSH2 0x106E DUP3 PUSH2 0xE69 JUMP JUMPDEST SWAP2 PUSH2 0xE63 JUMP JUMPDEST KECCAK256 PUSH2 0x10C7 PUSH2 0x10C1 PUSH2 0x109A PUSH2 0x10A9 PUSH1 0xA0 DUP10 ADD MLOAD PUSH2 0x108E PUSH2 0x43 JUMP JUMPDEST SWAP3 DUP4 SWAP2 PUSH1 0x20 DUP4 ADD PUSH2 0xE96 JUMP JUMPDEST PUSH1 0x20 DUP3 ADD DUP2 SUB DUP3 MSTORE SUB DUP3 PUSH2 0xDB JUMP JUMPDEST PUSH2 0x10BB PUSH2 0x10B5 DUP3 PUSH2 0xE69 JUMP JUMPDEST SWAP2 PUSH2 0xE63 JUMP JUMPDEST KECCAK256 PUSH2 0xEA2 JUMP JUMPDEST SWAP2 PUSH2 0xEA2 JUMP JUMPDEST EQ SWAP2 SWAP1 DUP2 PUSH2 0x10FB JUMPI JUMPDEST POP SWAP1 DUP2 PUSH2 0x10F3 JUMPI JUMPDEST POP PUSH2 0x10EB JUMPI PUSH2 0x10E6 SWAP1 PUSH2 0xDBA JUMP JUMPDEST PUSH2 0xECD JUMP JUMPDEST POP POP POP PUSH1 0x1 SWAP1 JUMP JUMPDEST SWAP1 POP CODESIZE PUSH2 0x10D8 JUMP JUMPDEST SWAP1 POP CODESIZE PUSH2 0x10D0 JUMP JUMPDEST POP POP POP PUSH1 0x0 SWAP1 JUMP INVALID LOG2 PUSH5 0x6970667358 0x22 SLT KECCAK256 PUSH27 0xAAD9FDB7EB19AC5E5C0D8063714A458B20E97EDEA376B3F834EBE2 DUP7 PUSH9 0xA1E364736F6C634300 ADDMOD SHL STOP CALLER "},"methodIdentifiers":{"addMedicalHistory(address,uint8,string,string,string,string,string)":"3b27f4e2","getMedicalHistories(address)":"b226187c"}}}}}