{
  "_format": "hh-sol-artifact-1",
  "contractName": "MedicalHistory",
  "sourceName": "contracts/MedicalHistory.sol",
  "abi": [
    {
      "anonymous": false,
      "inputs": [
        {
          "indexed": true,
          "internalType": "address",
          "name": "childAddress",
          "type": "address"
        },
        {
          "indexed": false,
          "internalType": "string",
          "name": "timestamp",
          "type": "string"
        },
        {
          "indexed": false,
          "internalType": "string",
          "name": "symptoms",
          "type": "string"
        }
      ],
      "name": "MedicalHistoryAdded",
      "type": "event"
    },
    {
      "inputs": [
        {
          "internalType": "address",
          "name": "_childAddress",
          "type": "address"
        },
        {
          "internalType": "enum MedicalHistory.MedicalType",
          "name": "_medicalType",
          "type": "uint8"
        },
        {
          "internalType": "string",
          "name": "_visitedName",
          "type": "string"
        },
        {
          "internalType": "string",
          "name": "_timestamp",
          "type": "string"
        },
        {
          "internalType": "string",
          "name": "_doctorName",
          "type": "string"
        },
        {
          "internalType": "string",
          "name": "_symptoms",
          "type": "string"
        },
        {
          "internalType": "string",
          "name": "_diagnosisDetails",
          "type": "string"
        }
      ],
      "name": "addMedicalHistory",
      "outputs": [],
      "stateMutability": "nonpayable",
      "type": "function"
    },
    {
      "inputs": [
        {
          "internalType": "address",
          "name": "_childAddress",
          "type": "address"
        }
      ],
      "name": "getMedicalHistories",
      "outputs": [
        {
          "components": [
            {
              "internalType": "enum MedicalHistory.MedicalType",
              "name": "medicaltype",
              "type": "uint8"
            },
            {
              "internalType": "string",
              "name": "visitedName",
              "type": "string"
            },
            {
              "internalType": "string",
              "name": "timestamp",
              "type": "string"
            },
            {
              "internalType": "string",
              "name": "doctorName",
              "type": "string"
            },
            {
              "internalType": "string",
              "name": "symptoms",
              "type": "string"
            },
            {
              "internalType": "string",
              "name": "diagnosisDetails",
              "type": "string"
            }
          ],
          "internalType": "struct MedicalHistory.History[]",
          "name": "",
          "type": "tuple[]"
        }
      ],
      "stateMutability": "view",
      "type": "function"
    }
  ],
  "bytecode": "0x608060405234601c57600e6020565b61114161002c823961114190f35b6026565b60405190565b600080fdfe60806040526004361015610013575b6104f7565b61001e60003561003d565b80633b27f4e2146100385763b226187c0361000e576104c2565b610291565b60e01c90565b60405190565b600080fd5b600080fd5b600080fd5b60018060a01b031690565b61006c90610058565b90565b61007881610063565b0361007f57565b600080fd5b905035906100918261006f565b565b6002111561009d57565b600080fd5b905035906100af82610093565b565b600080fd5b600080fd5b601f801991011690565b634e487b7160e01b600052604160045260246000fd5b906100e5906100bb565b810190811067ffffffffffffffff8211176100ff57604052565b6100c5565b90610117610110610043565b92836100db565b565b67ffffffffffffffff8111610137576101336020916100bb565b0190565b6100c5565b90826000939282370152565b9092919261015d61015882610119565b610104565b93818552602085019082840111610179576101779261013c565b565b6100b6565b9080601f8301121561019c5781602061019993359101610148565b90565b6100b1565b9060e082820312610286576101b98160008401610084565b926101c782602085016100a2565b92604081013567ffffffffffffffff811161028157836101e891830161017e565b92606082013567ffffffffffffffff811161027c578161020991840161017e565b92608083013567ffffffffffffffff8111610277578261022a91850161017e565b9260a081013567ffffffffffffffff8111610272578361024b91830161017e565b9260c082013567ffffffffffffffff811161026d5761026a920161017e565b90565b610053565b610053565b610053565b610053565b610053565b61004e565b60000190565b346102c6576102b06102a43660046101a1565b95949094939193610a5a565b6102b8610043565b806102c28161028b565b0390f35b610049565b906020828203126102e5576102e291600001610084565b90565b61004e565b5190565b60209181520190565b60200190565b634e487b7160e01b600052602160045260246000fd5b6002111561031d57565b6102fd565b9061032c82610313565b565b61033790610322565b90565b6103439061032e565b9052565b5190565b60209181520190565b60005b838110610368575050906000910152565b806020918301518185015201610357565b6103986103a16020936103a69361038f81610347565b9384809361034b565b95869101610354565b6100bb565b0190565b61042b9160a061041a6104086103f66103e460c086016103d26000890151600089019061033a565b60208801518782036020890152610379565b60408701518682036040880152610379565b60608601518582036060870152610379565b60808501518482036080860152610379565b9201519060a0818403910152610379565b90565b90610438916103aa565b90565b60200190565b9061045561044e836102ea565b80926102ee565b9081610466602083028401946102f7565b926000915b83831061047a57505050505090565b9091929394602061049c6104968385600195038752895161042e565b9761043b565b930193019193929061046b565b6104bf9160208201916000818403910152610441565b90565b346104f2576104ee6104dd6104d83660046102cb565b610d77565b6104e5610043565b918291826104a9565b0390f35b610049565b600080fd5b61050660c0610104565b90565b9061051390610322565b9052565b52565b151590565b60209181520190565b60007f4475706c6963617465206d65646963616c20686973746f7279207265636f7264910152565b61055c6020809261051f565b61056581610528565b0190565b61057f9060208101906000818303910152610550565b90565b1561058957565b610591610043565b62461bcd60e51b8152806105a760048201610569565b0390fd5b90565b6105c26105bd6105c792610058565b6105ab565b610058565b90565b6105d3906105ae565b90565b6105df906105ca565b90565b906105ec906105d6565b600052602052604060002090565b90565b600052602060002090565b634e487b7160e01b600052603260045260246000fd5b5490565b61062b8161061e565b8210156106465761063d6006916105fd565b91020190600090565b610608565b634e487b7160e01b600052600060045260246000fd5b61066b9051610322565b90565b60001b90565b9061068060ff9161066e565b9181191691161790565b61069390610322565b90565b90565b906106ae6106a96106b59261068a565b610696565b8254610674565b9055565b5190565b634e487b7160e01b600052602260045260246000fd5b90600160028304921680156106f3575b60208310146106ee57565b6106bd565b91607f16916106e3565b600052602060002090565b601f602091010490565b1b90565b9190600861073291029161072c60001984610712565b92610712565b9181191691161790565b90565b61075361074e6107589261073c565b6105ab565b61073c565b90565b90565b919061077461076f61077c9361073f565b61075b565b908354610716565b9055565b600090565b61079791610791610780565b9161075e565b565b5b8181106107a5575050565b806107b36000600193610785565b0161079a565b9190601f81116107c9575b505050565b6107d56107fa936106fd565b9060206107e184610708565b83019310610802575b6107f390610708565b0190610799565b3880806107c4565b91506107f3819290506107ea565b1c90565b906108259060001990600802610810565b191690565b8161083491610814565b906002021790565b9061084681610347565b9067ffffffffffffffff82116109085761086a8261086485546106d3565b856107b9565b602090601f831160011461089f5791809161088e93600092610893575b505061082a565b90555b565b90915001513880610887565b601f198316916108ae856106fd565b9260005b8181106108f0575091600293918560019694106108d6575b50505002019055610891565b6108e6910151601f841690610814565b90553880806108ca565b919360206001819287870151815501950192016108b2565b6100c5565b906109179161083c565b565b906109aa60a060056109b09461093e6000820161093860008801610661565b90610699565b61095760018201610951602088016106b9565b9061090d565b6109706002820161096a604088016106b9565b9061090d565b61098960038201610983606088016106b9565b9061090d565b6109a26004820161099c608088016106b9565b9061090d565b0192016106b9565b9061090d565b565b91906109c3576109c191610919565b565b61064b565b90815491680100000000000000008310156109f857826109f09160016109f695018155610622565b906109b2565b565b6100c5565b610a1c610a25602093610a2a93610a1381610347565b9384809361051f565b95869101610354565b6100bb565b0190565b9091610a49610a5793604084019084820360008601526109fd565b9160208184039101526109fd565b90565b93610ab0610aee949697610aa7610ab9949593610a9e8a610a958d9597610a8c610a826104fc565b9b60008d01610509565b60208b01610517565b60408901610517565b60608701610517565b60808501610517565b60a08301610517565b610ad5610ad0610aca858490610ea5565b1561051a565b610582565b610ae9610ae4600085906105e2565b6105fa565b6109c8565b9091610b1a7f81190344228b313d29be4f930c8df91c69b2830b0a4da61cce4636437dacad58926105d6565b92610b2f610b26610043565b92839283610a2e565b0390a2565b606090565b5490565b67ffffffffffffffff8111610b555760208091020190565b6100c5565b90610b6c610b6783610b3d565b610104565b918252565b600052602060002090565b60001c90565b60ff1690565b610b94610b9991610b7c565b610b82565b90565b610ba69054610b88565b90565b9060009291805490610bc4610bbd836106d3565b809461034b565b91600181169081600014610c1d5750600114610be0575b505050565b610bed91929394506106fd565b916000925b818410610c055750500190388080610bdb565b60018160209295939554848601520191019290610bf2565b92949550505060ff1916825215156020020190388080610bdb565b90610c4291610ba9565b90565b90610c65610c5e92610c55610043565b93848092610c38565b03836100db565b565b610c7160c0610104565b90565b90610d0d610d046005610c85610c67565b94610c9e610c9560008301610b9c565b60008801610509565b610cb6610cad60018301610c45565b60208801610517565b610cce610cc560028301610c45565b60408801610517565b610ce6610cdd60038301610c45565b60608801610517565b610cfe610cf560048301610c45565b60808801610517565b01610c45565b60a08401610517565b565b610d1890610c74565b90565b90610d2582610b39565b610d2e81610b5a565b92610d3c6020850191610b71565b6000915b838310610d4d5750505050565b60066020600192610d5d85610d0f565b815201920192019190610d40565b610d7490610d1b565b90565b610d8e610d9391610d86610b34565b5060006105e2565b610d6b565b90565b600090565b90565b610db2610dad610db792610d9b565b6105ab565b61073c565b90565b6001610dc6910161073c565b90565b905090565b9060009291805490610de9610de2836106d3565b8094610dc9565b91600181169081600014610e3d5750600114610e05575b505050565b610e1291929394506106fd565b6000905b838210610e295750500190388080610e00565b600181602092548486015201910190610e16565b92949550505060ff19168252801515020190388080610e00565b610e6091610dce565b90565b60200190565b5190565b610e92610e8992602092610e8081610347565b94858093610dc9565b93849101610354565b0190565b610e9f91610e6d565b90565b90565b610ebc610ec191610eb4610d96565b5060006105e2565b6105fa565b90610ecc6000610d9e565b5b80610ee8610ee2610edd8661061e565b61073c565b9161073c565b101561110357610f17610f266002610f01868590610622565b5001610f0b610043565b92839160208301610e57565b602082018103825203826100db565b610f38610f3282610e69565b91610e63565b20610f8b610f85610f5e610f6d6040870151610f52610043565b92839160208301610e96565b602082018103825203826100db565b610f7f610f7982610e69565b91610e63565b20610ea2565b91610ea2565b14610fb5610fc46004610f9f878690610622565b5001610fa9610043565b92839160208301610e57565b602082018103825203826100db565b610fd6610fd082610e69565b91610e63565b20611029611023610ffc61100b6080880151610ff0610043565b92839160208301610e96565b602082018103825203826100db565b61101d61101782610e69565b91610e63565b20610ea2565b91610ea2565b14611053611062600561103d888790610622565b5001611047610043565b92839160208301610e57565b602082018103825203826100db565b61107461106e82610e69565b91610e63565b206110c76110c161109a6110a960a089015161108e610043565b92839160208301610e96565b602082018103825203826100db565b6110bb6110b582610e69565b91610e63565b20610ea2565b91610ea2565b149190816110fb575b5090816110f3575b506110eb576110e690610dba565b610ecd565b505050600190565b9050386110d8565b9050386110d0565b50505060009056fea26469706673582212207aaad9fdb7eb19ac5e5c0d8063714a458b20e97edea376b3f834ebe28668a1e364736f6c634300081b0033",
  "linkReferences": {},
  "deployedLinkReferences": {}
}