{
  "_format": "hh-sol-artifact-1",
  "contractName": "VaccinationManagement",
  "sourceName": "contracts/VaccinationManagement.sol",
  "abi": [
    {
      "inputs": [],
      "stateMutability": "nonpayable",
      "type": "constructor"
    },
    {
      "anonymous": false,
      "inputs": [
        {
          "indexed": true,
          "internalType": "address",
          "name": "childAddress",
          "type": "address"
        },
        {
          "indexed": false,
          "internalType": "string",
          "name": "vaccineName",
          "type": "string"
        },
        {
          "indexed": false,
          "internalType": "uint8",
          "name": "vaccineChapter",
          "type": "uint8"
        },
        {
          "indexed": false,
          "internalType": "uint256",
          "name": "date",
          "type": "uint256"
        }
      ],
      "name": "VaccinationUpdated",
      "type": "event"
    },
    {
      "inputs": [
        {
          "internalType": "address",
          "name": "_childAddress",
          "type": "address"
        }
      ],
      "name": "initializeVaccinationRecords",
      "outputs": [],
      "stateMutability": "nonpayable",
      "type": "function"
    },
    {
      "inputs": [
        {
          "internalType": "uint256",
          "name": "",
          "type": "uint256"
        }
      ],
      "name": "recommendedVaccinations",
      "outputs": [
        {
          "internalType": "uint8",
          "name": "index",
          "type": "uint8"
        },
        {
          "internalType": "string",
          "name": "vaccineName",
          "type": "string"
        },
        {
          "internalType": "string",
          "name": "targetDisease",
          "type": "string"
        },
        {
          "internalType": "uint8",
          "name": "vaccineChapter",
          "type": "uint8"
        },
        {
          "internalType": "uint16",
          "name": "recommendedDays",
          "type": "uint16"
        },
        {
          "internalType": "uint16",
          "name": "recommendedEndDays",
          "type": "uint16"
        },
        {
          "internalType": "enum VaccinationManagement.VaccinationStatus",
          "name": "status",
          "type": "uint8"
        },
        {
          "internalType": "uint256",
          "name": "administeredDate",
          "type": "uint256"
        }
      ],
      "stateMutability": "view",
      "type": "function"
    },
    {
      "inputs": [
        {
          "internalType": "address",
          "name": "_childAddress",
          "type": "address"
        }
      ],
      "name": "returnChildVaccinationStatus",
      "outputs": [
        {
          "components": [
            {
              "components": [
                {
                  "internalType": "uint8",
                  "name": "index",
                  "type": "uint8"
                },
                {
                  "internalType": "string",
                  "name": "vaccineName",
                  "type": "string"
                },
                {
                  "internalType": "string",
                  "name": "targetDisease",
                  "type": "string"
                },
                {
                  "internalType": "uint8",
                  "name": "vaccineChapter",
                  "type": "uint8"
                },
                {
                  "internalType": "uint16",
                  "name": "recommendedDays",
                  "type": "uint16"
                },
                {
                  "internalType": "uint16",
                  "name": "recommendedEndDays",
                  "type": "uint16"
                },
                {
                  "internalType": "enum VaccinationManagement.VaccinationStatus",
                  "name": "status",
                  "type": "uint8"
                },
                {
                  "internalType": "uint256",
                  "name": "administeredDate",
                  "type": "uint256"
                }
              ],
              "internalType": "struct VaccinationManagement.Vaccination[]",
              "name": "completed",
              "type": "tuple[]"
            },
            {
              "components": [
                {
                  "internalType": "uint8",
                  "name": "index",
                  "type": "uint8"
                },
                {
                  "internalType": "string",
                  "name": "vaccineName",
                  "type": "string"
                },
                {
                  "internalType": "string",
                  "name": "targetDisease",
                  "type": "string"
                },
                {
                  "internalType": "uint8",
                  "name": "vaccineChapter",
                  "type": "uint8"
                },
                {
                  "internalType": "uint16",
                  "name": "recommendedDays",
                  "type": "uint16"
                },
                {
                  "internalType": "uint16",
                  "name": "recommendedEndDays",
                  "type": "uint16"
                },
                {
                  "internalType": "enum VaccinationManagement.VaccinationStatus",
                  "name": "status",
                  "type": "uint8"
                },
                {
                  "internalType": "uint256",
                  "name": "administeredDate",
                  "type": "uint256"
                }
              ],
              "internalType": "struct VaccinationManagement.Vaccination[]",
              "name": "pending",
              "type": "tuple[]"
            }
          ],
          "internalType": "struct VaccinationManagement.VaccinationInfomation",
          "name": "",
          "type": "tuple"
        }
      ],
      "stateMutability": "view",
      "type": "function"
    },
    {
      "inputs": [
        {
          "internalType": "address",
          "name": "_childAddress",
          "type": "address"
        },
        {
          "internalType": "string",
          "name": "_vaccineName",
          "type": "string"
        },
        {
          "internalType": "uint8",
          "name": "_vaccineChapter",
          "type": "uint8"
        },
        {
          "internalType": "uint256",
          "name": "_administeredDate",
          "type": "uint256"
        }
      ],
      "name": "updateChildVaccination",
      "outputs": [],
      "stateMutability": "nonpayable",
      "type": "function"
    },
    {
      "inputs": [
        {
          "internalType": "address",
          "name": "_childAddress",
          "type": "address"
        },
        {
          "components": [
            {
              "internalType": "string",
              "name": "vaccineName",
              "type": "string"
            },
            {
              "internalType": "uint8",
              "name": "vaccineChapter",
              "type": "uint8"
            },
            {
              "internalType": "uint256",
              "name": "administerDate",
              "type": "uint256"
            }
          ],
          "internalType": "struct VaccinationManagement.VaccinationInput[]",
          "name": "_vaccinations",
          "type": "tuple[]"
        }
      ],
      "name": "updateMultipleChildVaccination",
      "outputs": [],
      "stateMutability": "nonpayable",
      "type": "function"
    }
  ],
  "bytecode": "0x608060405234610027576100116112df565b61001961002c565b6120cf61297782396120cf90f35b610032565b60405190565b600080fd5b90565b60ff1690565b90565b61005761005261005c92610037565b610040565b61003a565b90565b601f801991011690565b634e487b7160e01b600052604160045260246000fd5b906100899061005f565b810190811060018060401b038211176100a157604052565b610069565b906100b96100b261002c565b928361007f565b565b60018060401b0381116100d7576100d360209161005f565b0190565b610069565b906100ee6100e9836100bb565b6100a6565b918252565b60007f4243470000000000000000000000000000000000000000000000000000000000910152565b61012560036100dc565b90610132602083016100f3565b565b61013c61011b565b90565b600065eab2b0ed95b560d01b910152565b61015a60066100dc565b906101676020830161013f565b565b610171610150565b90565b90565b61ffff1690565b61019261018d61019792610174565b610040565b610177565b90565b90565b6101b16101ac6101b69261019a565b610040565b610177565b90565b90565b6101d06101cb6101d5926101b9565b610040565b61003a565b90565b60007f4865704200000000000000000000000000000000000000000000000000000000910152565b61020a60046100dc565b90610217602083016101d8565b565b610221610200565b90565b60006910bb66257aac213b25ef60b21b910152565b610243600a6100dc565b9061025060208301610224565b565b61025a610239565b90565b90565b61027461026f6102799261025d565b610040565b61003a565b90565b90565b61029361028e6102989261027c565b610040565b610177565b90565b90565b6102b26102ad6102b79261029b565b610040565b610177565b90565b90565b6102d16102cc6102d6926102ba565b610040565b61003a565b90565b60007f4454617000000000000000000000000000000000000000000000000000000000910152565b61030b60046100dc565b90610318602083016102d9565b565b610322610301565b90565b60006e3ae5253b65213b61633ae9ab3b2561608a1b910152565b610349600f6100dc565b9061035660208301610325565b565b61036061033f565b90565b90565b61037a61037561037f92610363565b610040565b610177565b90565b90565b61039961039461039e92610382565b610040565b610177565b90565b90565b6103b86103b36103bd926103a1565b610040565b61003a565b90565b600068ed8c8cec8381ed928d60b81b910152565b6103de60096100dc565b906103eb602083016103c0565b565b6103f56103d4565b90565b90565b61040f61040a610414926103f8565b610040565b61003a565b90565b6000683aec2c7b276f3b656d60ba1b910152565b61043560096100dc565b9061044260208301610417565b565b61044c61042b565b90565b90565b61046661046161046b9261044f565b610040565b61003a565b90565b60007f4950560000000000000000000000000000000000000000000000000000000000910152565b6104a060036100dc565b906104ad6020830161046e565b565b6104b7610496565b90565b6000683b63ed3ae9ab3b262960ba1b910152565b6104d860096100dc565b906104e5602083016104ba565b565b6104ef6104ce565b90565b90565b61050961050461050e926104f2565b610040565b61003a565b90565b60007f4869620000000000000000000000000000000000000000000000000000000000910152565b61054360036100dc565b9061055060208301610511565b565b61055a610539565b90565b7f62ed9895ed97a4ebaaa8ed9584eba3a8ec8aa4ec9db8ed948ceba3a8ec9794ec600082015260206109e960f41b910152565b61059a60226100dc565b906105a76020830161055d565b565b6105b1610590565b90565b90565b6105cb6105c66105d0926105b4565b610040565b61003a565b90565b60007f5043560000000000000000000000000000000000000000000000000000000000910152565b61060560036100dc565b90610612602083016105d3565b565b61061c6105fb565b90565b60006b076c7c875d05a755ad6755bd60a51b910152565b610640600c6100dc565b9061064d6020830161061f565b565b610657610636565b90565b90565b61067161066c6106769261065a565b610040565b61003a565b90565b60007f5256310000000000000000000000000000000000000000000000000000000000910152565b6106ab60036100dc565b906106b860208301610679565b565b6106c26106a1565b90565b60007feba19ced8380ebb094ec9db4eb9facec8aa420eab090ec97bceca69d00000000910152565b6106f7601c6100dc565b90610704602083016106c5565b565b61070e6106ed565b90565b90565b61072861072361072d92610711565b610040565b61003a565b90565b60007f5256350000000000000000000000000000000000000000000000000000000000910152565b61076260036100dc565b9061076f60208301610730565b565b610779610758565b90565b90565b61079361078e6107989261077c565b610040565b61003a565b90565b90565b6107b26107ad6107b79261079b565b610040565b610177565b90565b90565b6107d16107cc6107d6926107ba565b610040565b610177565b90565b90565b6107f06107eb6107f5926107d9565b610040565b61003a565b90565b90565b61080f61080a610814926107f8565b610040565b61003a565b90565b90565b61082e61082961083392610817565b610040565b61003a565b90565b90565b61084d61084861085292610836565b610040565b61003a565b90565b90565b61086c61086761087192610855565b610040565b61003a565b90565b90565b61088b61088661089092610874565b610040565b61003a565b90565b90565b6108aa6108a56108af92610893565b610040565b61003a565b90565b90565b6108c96108c46108ce926108b2565b610040565b61003a565b90565b90565b6108e86108e36108ed926108d1565b610040565b610177565b90565b90565b61090761090261090c926108f0565b610040565b610177565b90565b90565b61092661092161092b9261090f565b610040565b61003a565b90565b90565b61094561094061094a9261092e565b610040565b61003a565b90565b90565b61096461095f6109699261094d565b610040565b61003a565b90565b90565b61098361097e6109889261096c565b610040565b61003a565b90565b90565b6109a261099d6109a79261098b565b610040565b61003a565b90565b90565b6109c16109bc6109c6926109aa565b610040565b61003a565b90565b90565b6109e06109db6109e5926109c9565b610040565b61003a565b90565b90565b6109ff6109fa610a04926109e8565b610040565b610177565b90565b90565b610a1e610a19610a2392610a07565b610040565b61003a565b90565b90565b610a3d610a38610a4292610a26565b610040565b610177565b90565b90565b610a5c610a57610a6192610a45565b610040565b610177565b90565b90565b610a7b610a76610a8092610a64565b610040565b61003a565b90565b610a97610a92610a9c9261019a565b610040565b61003a565b90565b60007f4d4d520000000000000000000000000000000000000000000000000000000000910152565b610ad160036100dc565b90610ade60208301610a9f565b565b610ae8610ac7565b90565b600065ed998dec97ad60d01b910152565b610b0660066100dc565b90610b1360208301610aeb565b565b610b1d610afc565b90565b610b34610b2f610b399261027c565b610040565b61003a565b90565b60007fec9ca0ed9689ec84b1ec9db4ed9598ec84a0ec97bc0000000000000000000000910152565b610b6e60156100dc565b90610b7b60208301610b3c565b565b610b85610b64565b90565b90565b610b9f610b9a610ba492610b88565b610040565b61003a565b90565b6000653b64a37b29e160d21b910152565b610bc260066100dc565b90610bcf60208301610ba7565b565b610bd9610bb8565b90565b90565b610bf3610bee610bf892610bdc565b610040565b61003a565b90565b60007f4865704100000000000000000000000000000000000000000000000000000000910152565b610c2d60046100dc565b90610c3a60208301610bfb565b565b610c44610c23565b90565b600069107b66257aac213b25ef60b21b910152565b610c66600a6100dc565b90610c7360208301610c47565b565b610c7d610c5c565b90565b90565b610c97610c92610c9c92610c80565b610040565b61003a565b90565b60007f494a455600000000000000000000000000000000000000000000000000000000910152565b610cd160046100dc565b90610cde60208301610c9f565b565b610ce8610cc7565b90565b60006b3b276f3aecee3ae1e33b25ef60a21b910152565b610d0c600c6100dc565b90610d1960208301610ceb565b565b610d23610d02565b90565b90565b610d3d610d38610d4292610d26565b610040565b61003a565b90565b60007f4c4a455600000000000000000000000000000000000000000000000000000000910152565b610d7760046100dc565b90610d8460208301610d45565b565b610d8e610d6d565b90565b90565b610da8610da3610dad92610d91565b610040565b610177565b90565b90565b610dc7610dc2610dcc92610db0565b610040565b61003a565b90565b90565b610de6610de1610deb92610dcf565b610040565b610177565b90565b90565b610e05610e00610e0a92610dee565b610040565b61003a565b90565b90565b610e24610e1f610e2992610e0d565b610040565b61003a565b90565b90565b610e43610e3e610e4892610e2c565b610040565b61003a565b90565b90565b610e62610e5d610e6792610e4b565b610040565b610177565b90565b90565b610e81610e7c610e8692610e6a565b610040565b61003a565b90565b90565b610ea0610e9b610ea592610e89565b610040565b61003a565b90565b90565b610ebf610eba610ec492610ea8565b610040565b610177565b90565b90565b610ede610ed9610ee392610ec7565b610040565b610177565b90565b90565b610efd610ef8610f0292610ee6565b610040565b61003a565b90565b90565b610f1c610f17610f2192610f05565b610040565b61003a565b90565b90565b610f3b610f36610f4092610f24565b610040565b610177565b90565b90565b610f5a610f55610f5f92610f43565b610040565b610177565b90565b90565b610f79610f74610f7e92610f62565b610040565b61003a565b90565b90565b610f98610f93610f9d92610f81565b610040565b61003a565b90565b90565b610fb7610fb2610fbc92610fa0565b610040565b61003a565b90565b90565b610fd6610fd1610fdb92610fbf565b610040565b61003a565b90565b90565b610ff5610ff0610ffa92610fde565b610040565b61003a565b90565b60007fec9ca0ed9895ec84b1ec9db4ed9598ec84a0ec97bc0000000000000000000000910152565b61102f60156100dc565b9061103c60208301610ffd565b565b611046611025565b90565b90565b61106061105b61106592611049565b610040565b61003a565b90565b90565b61107f61107a61108492611068565b610040565b61003a565b90565b90565b61109e6110996110a392611087565b610040565b610177565b90565b90565b6110bd6110b86110c2926110a6565b610040565b61003a565b90565b60007f5464617000000000000000000000000000000000000000000000000000000000910152565b6110f760046100dc565b90611104602083016110c5565b565b61110e6110ed565b90565b90565b61112861112361112d92611111565b610040565b610177565b90565b90565b61114761114261114c92611130565b610040565b610177565b90565b90565b61116661116161116b9261114f565b610040565b61003a565b90565b90565b61118561118061118a9261116e565b610040565b61003a565b90565b90565b6111a461119f6111a99261118d565b610040565b61003a565b90565b90565b6111c36111be6111c8926111ac565b610040565b610177565b90565b90565b6111e26111dd6111e7926111cb565b610040565b61003a565b90565b60007f4850560000000000000000000000000000000000000000000000000000000000910152565b61121c60036100dc565b90611229602083016111ea565b565b611233611212565b90565b60007fec82aceb9e8cec9ca0eb9190eca285ebb094ec9db4eb9facec8aa40000000000910152565b611268601b6100dc565b9061127560208301611236565b565b61127f61125e565b90565b90565b61129961129461129e92611282565b610040565b610177565b90565b90565b6112b86112b36112bd926112a1565b610040565b61003a565b90565b90565b6112d76112d26112dc926112c0565b610040565b610177565b90565b61132460018060006112f2601e92610043565b926112fb610134565b61131e61131861131261130c610169565b94610043565b9461017e565b9461019d565b946128ca565b61136b60026001906000611339601e926101bc565b92611342610219565b61136561135f611359611353610252565b94610043565b9461017e565b9461019d565b946128ca565b6113b26003600290601f611380603c92610260565b92611389610219565b6113ac6113a66113a061139a610252565b946101bc565b9461027f565b9461029e565b946128ca565b6113f96004600190603d6113c7605a926102bd565b926113d061031a565b6113f36113ed6113e76113e1610358565b94610043565b94610366565b94610385565b946128ca565b6114406005600190603d61140e605a926103a4565b9261141761031a565b61143a61143461142e6114286103ed565b94610043565b94610366565b94610385565b946128ca565b6114876006600190603d611455605a926103fb565b9261145e61031a565b61148161147b61147561146f610444565b94610043565b94610366565b94610385565b946128ca565b6114ce6007600190603d61149c605a92610452565b926114a56104af565b6114c86114c26114bc6114b66104e7565b94610043565b94610366565b94610385565b946128ca565b6115156008600190603d6114e3605a926104f5565b926114ec610552565b61150f6115096115036114fd6105a9565b94610043565b94610366565b94610385565b946128ca565b61155c6009600190603d61152a605a926105b7565b92611533610614565b61155661155061154a61154461064f565b94610043565b94610366565b94610385565b946128ca565b6115a3600a600190603d611571605a9261065d565b9261157a6106ba565b61159d61159761159161158b610706565b94610043565b94610366565b94610385565b946128ca565b6115ea600b600190603d6115b8605a92610714565b926115c1610771565b6115e46115de6115d86115d2610706565b94610043565b94610366565b94610385565b946128ca565b611631600c60029060796115ff60969261077f565b9261160861031a565b61162b61162561161f611619610358565b946101bc565b9461079e565b946107bd565b946128ca565b611678600d60029060796116466096926107dc565b9261164f61031a565b61167261166c6116666116606103ed565b946101bc565b9461079e565b946107bd565b946128ca565b6116bf600e600290607961168d6096926107fb565b9261169661031a565b6116b96116b36116ad6116a7610444565b946101bc565b9461079e565b946107bd565b946128ca565b611706600f60029060796116d460969261081a565b926116dd6104af565b6117006116fa6116f46116ee6104e7565b946101bc565b9461079e565b946107bd565b946128ca565b61174d6010600290607961171b609692610839565b92611724610552565b61174761174161173b6117356105a9565b946101bc565b9461079e565b946107bd565b946128ca565b61179460116002906079611762609692610858565b9261176b610614565b61178e61178861178261177c61064f565b946101bc565b9461079e565b946107bd565b946128ca565b6117db601260029060796117a9609692610877565b926117b26106ba565b6117d56117cf6117c96117c3610706565b946101bc565b9461079e565b946107bd565b946128ca565b611822601360029060796117f0609692610896565b926117f9610771565b61181c61181661181061180a610706565b946101bc565b9461079e565b946107bd565b946128ca565b611869601460039060b561183760d2926108b5565b92611840610219565b61186361185d611857611851610252565b94610260565b946108d4565b946108f3565b946128ca565b6118b0601560039060b561187e60d292610912565b9261188761031a565b6118aa6118a461189e611898610358565b94610260565b946108d4565b946108f3565b946128ca565b6118f7601660039060b56118c560d292610931565b926118ce61031a565b6118f16118eb6118e56118df6103ed565b94610260565b946108d4565b946108f3565b946128ca565b61193e601760039060b561190c60d292610950565b9261191561031a565b61193861193261192c611926610444565b94610260565b946108d4565b946108f3565b946128ca565b611985601860039060b561195360d29261096f565b9261195c610552565b61197f61197961197361196d6105a9565b94610260565b946108d4565b946108f3565b946128ca565b6119cc601960029060b561199a60d29261098e565b926119a3610614565b6119c66119c06119ba6119b461064f565b946101bc565b946108d4565b946108f3565b946128ca565b611a13601a60039060b56119e160d2926109ad565b926119ea610771565b611a0d611a07611a016119fb610706565b94610260565b946108d4565b946108f3565b946128ca565b611a5b601b60039060b5611a2961023a926109cc565b92611a326104af565b611a55611a4f611a49611a436104e7565b94610260565b946108d4565b946109eb565b946128ca565b611aa4601c600490610169611a726101e092610a0a565b92611a7b610552565b611a9e611a98611a92611a8c6105a9565b946102bd565b94610a29565b94610a48565b946128ca565b611aed601d600490610169611abb6101e092610a67565b92611ac4610614565b611ae7611ae1611adb611ad561064f565b946102bd565b94610a29565b94610a48565b946128ca565b611b36601e600190610169611b046101e092610a83565b92611b0d610ae0565b611b30611b2a611b24611b1e610b15565b94610043565b94610a29565b94610a48565b946128ca565b611b7f601f600190610169611b4d6101e092610b20565b92611b56610ae0565b611b79611b73611b6d611b67610b7d565b94610043565b94610a29565b94610a48565b946128ca565b611bc86020600190610169611b966101e092610b8b565b92611b9f610ae0565b611bc2611bbc611bb6611bb0610bd1565b94610043565b94610a29565b94610a48565b946128ca565b611c116021600190610169611bdf6101e092610bdf565b92611be8610c3c565b611c0b611c05611bff611bf9610c75565b94610043565b94610a29565b94610a48565b946128ca565b611c5a6022600190610169611c286101e092610c83565b92611c31610ce0565b611c54611c4e611c48611c42610d1b565b94610043565b94610a29565b94610a48565b946128ca565b611ca36023600190610169611c716102d092610d29565b92611c7a610d86565b611c9d611c97611c91611c8b610d1b565b94610043565b94610a29565b94610d94565b946128ca565b611cec60246004906101c3611cba61023a92610db3565b92611cc361031a565b611ce6611ce0611cda611cd4610358565b946102bd565b94610dd2565b946109eb565b946128ca565b611d3560256004906101c3611d0361023a92610df1565b92611d0c61031a565b611d2f611d29611d23611d1d6103ed565b946102bd565b94610dd2565b946109eb565b946128ca565b611d7e60266004906101c3611d4c61023a92610e10565b92611d5561031a565b611d78611d72611d6c611d66610444565b946102bd565b94610dd2565b946109eb565b946128ca565b611dc7602760029061021d611d956102d092610e2f565b92611d9e610c3c565b611dc1611dbb611db5611daf610c75565b946101bc565b94610e4e565b94610d94565b946128ca565b611e10602860029061021d611dde6102d092610e6d565b92611de7610ce0565b611e0a611e04611dfe611df8610d1b565b946101bc565b94610e4e565b94610d94565b946128ca565b611e5960296003906102d1611e2761043892610e8c565b92611e30610ce0565b611e53611e4d611e47611e41610d1b565b94610260565b94610eab565b94610eca565b946128ca565b611ea2602a6002906102d1611e7061043892610ee9565b92611e79610d86565b611e9c611e96611e90611e8a610d1b565b946101bc565b94610eab565b94610eca565b946128ca565b611eeb602b6005906105a1611eb96109d892610f08565b92611ec261031a565b611ee5611edf611ed9611ed3610358565b946103a4565b94610f27565b94610f46565b946128ca565b611f34602c6005906105a1611f026109d892610f65565b92611f0b61031a565b611f2e611f28611f22611f1c6103ed565b946103a4565b94610f27565b94610f46565b946128ca565b611f7d602d6005906105a1611f4b6109d892610f84565b92611f5461031a565b611f77611f71611f6b611f65610444565b946103a4565b94610f27565b94610f46565b946128ca565b611fc6602e6004906105a1611f946109d892610fa3565b92611f9d6104af565b611fc0611fba611fb4611fae6104e7565b946102bd565b94610f27565b94610f46565b946128ca565b61200f602f6002906105a1611fdd6109d892610fc2565b92611fe6610ae0565b612009612003611ffd611ff7610b15565b946101bc565b94610f27565b94610f46565b946128ca565b61205860306002906105a16120266109d892610fe1565b9261202f610ae0565b61205261204c61204661204061103e565b946101bc565b94610f27565b94610f46565b946128ca565b6120a160316002906105a161206f6109d89261104c565b92612078610ae0565b61209b61209561208f612089610bd1565b946101bc565b94610f27565b94610f46565b946128ca565b6120ea60326004906108716120b86109d89261106b565b926120c1610ce0565b6120e46120de6120d86120d2610d1b565b946102bd565b9461108a565b94610f46565b946128ca565b6121336033600690610f79612101611248926110a9565b9261210a611106565b61212d61212761212161211b610358565b946103fb565b94611114565b94611133565b946128ca565b61217c6034600690610f7961214a61124892611152565b92612153611106565b61217661217061216a6121646103ed565b946103fb565b94611114565b94611133565b946128ca565b6121c56035600690610f7961219361124892611171565b9261219c611106565b6121bf6121b96121b36121ad610444565b946103fb565b94611114565b94611133565b946128ca565b61220e60366005906110e16121dc61124892611190565b926121e5610ce0565b6122086122026121fc6121f6610d1b565b946103a4565b946111af565b94611133565b946128ca565b61225760376001906110e1612225611194926111ce565b9261222e61122b565b61225161224b61224561223f611277565b94610043565b946111af565b94611285565b946128ca565b6122a0603860029061119561226e611248926112a4565b9261227761122b565b61229a61229461228e612288611277565b946101bc565b946112c3565b94611133565b946128ca565b565b90565b6122b06101006100a6565b90565b906122bd9061003a565b9052565b52565b906122ce90610177565b9052565b634e487b7160e01b600052602160045260246000fd5b600211156122f257565b6122d2565b90612301826122e8565b565b9061230d906122f7565b9052565b90565b61232861232361232d92610174565b610040565b612311565b90565b9061233a90612311565b9052565b600052602060002090565b634e487b7160e01b600052603260045260246000fd5b5490565b61236c8161235f565b8210156123875761237e60059161233e565b91020190600090565b612349565b634e487b7160e01b600052600060045260246000fd5b6123ac905161003a565b90565b60001b90565b906123c160ff916123af565b9181191691161790565b6123df6123da6123e49261003a565b610040565b61003a565b90565b90565b906123ff6123fa612406926123cb565b6123e7565b82546123b5565b9055565b5190565b5190565b634e487b7160e01b600052602260045260246000fd5b9060016002830492168015612448575b602083101461244357565b612412565b91607f1691612438565b600052602060002090565b601f602091010490565b1b90565b9190600861248791029161248160001984612467565b92612467565b9181191691161790565b6124a56124a06124aa92612311565b610040565b612311565b90565b90565b91906124c66124c16124ce93612491565b6124ad565b90835461246b565b9055565b600090565b6124e9916124e36124d2565b916124b0565b565b5b8181106124f7575050565b8061250560006001936124d7565b016124ec565b9190601f811161251b575b505050565b61252761254c93612452565b9060206125338461245d565b83019310612554575b6125459061245d565b01906124eb565b388080612516565b91506125458192905061253c565b1c90565b906125779060001990600802612562565b191690565b8161258691612566565b906002021790565b906125988161240e565b9060018060401b038211612658576125ba826125b48554612428565b8561250b565b602090601f83116001146125ef579180916125de936000926125e3575b505061257c565b90555b565b909150015138806125d7565b601f198316916125fe85612452565b9260005b81811061264057509160029391856001969410612626575b505050020190556125e1565b612636910151601f841690612566565b905538808061261a565b91936020600181928787015181550195019201612602565b610069565b906126679161258e565b565b6126739051610177565b90565b60081b90565b9061268a62ffff0091612676565b9181191691161790565b6126a86126a36126ad92610177565b610040565b610177565b90565b90565b906126c86126c36126cf92612694565b6126b0565b825461267c565b9055565b60181b90565b906126e964ffff000000916126d3565b9181191691161790565b9061270861270361270f92612694565b6126b0565b82546126d9565b9055565b61271d90516122f7565b90565b60281b90565b9061273765ff000000000091612720565b9181191691161790565b61274a906122f7565b90565b90565b9061276561276061276c92612741565b61274d565b8254612726565b9055565b61277a9051612311565b90565b9061278a600019916123af565b9181191691161790565b906127a96127a46127b092612491565b6124ad565b825461277d565b9055565b9061287760e0600461287d946127d9600082016127d3600088016123a2565b906123ea565b6127f2600182016127ec6020880161240a565b9061265d565b61280b600282016128056040880161240a565b9061265d565b6128246003820161281e606088016123a2565b906123ea565b61283d6003820161283760808801612669565b906126b3565b6128566003820161285060a08801612669565b906126f3565b61286f6003820161286960c08801612713565b90612750565b019201612770565b90612794565b565b91906128905761288e916127b4565b565b61238c565b90815491680100000000000000008310156128c557826128bd9160016128c395018155612363565b9061287f565b565b610069565b9493909392919260006128dc906122a2565b959493929190916000936000956128f16122a5565b976000890190612900916122b3565b602088019061290e916122c1565b604087019061291c916122c1565b606086019061292a916122b3565b6080850190612938916122c4565b60a0840190612946916122c4565b60c083019061295491612303565b61295d90612314565b60e082019061296b91612330565b61297491612895565b56fe60806040526004361015610013575b610b23565b61001e60003561006d565b806359c3309e146100685780635ae99f6514610063578063d30a32e31461005e578063e10b406c146100595763eb607db10361000e57610aee565b6108d1565b610463565b6102bb565b6100e8565b60e01c90565b60405190565b600080fd5b600080fd5b600080fd5b60018060a01b031690565b61009c90610088565b90565b6100a881610093565b036100af57565b600080fd5b905035906100c18261009f565b565b906020828203126100dd576100da916000016100b4565b90565b61007e565b60000190565b34610116576101006100fb3660046100c3565b611167565b610108610073565b80610112816100e2565b0390f35b610079565b600080fd5b600080fd5b601f801991011690565b634e487b7160e01b600052604160045260246000fd5b9061014f90610125565b810190811067ffffffffffffffff82111761016957604052565b61012f565b9061018161017a610073565b9283610145565b565b67ffffffffffffffff81116101a15761019d602091610125565b0190565b61012f565b90826000939282370152565b909291926101c76101c282610183565b61016e565b938185526020850190828401116101e3576101e1926101a6565b565b610120565b9080601f8301121561020657816020610203933591016101b2565b90565b61011b565b60ff1690565b61021a8161020b565b0361022157565b600080fd5b9050359061023382610211565b565b90565b61024181610235565b0361024857565b600080fd5b9050359061025a82610238565b565b6080818303126102b65761027382600083016100b4565b92602082013567ffffffffffffffff81116102b157610297846102ae9285016101e8565b936102a58160408601610226565b9360600161024d565b90565b610083565b61007e565b346102ed576102d76102ce36600461025c565b92919091611461565b6102df610073565b806102e9816100e2565b0390f35b610079565b67ffffffffffffffff811161030a5760208091020190565b61012f565b600080fd5b600080fd5b600080fd5b91909160608184031261038557610335606061016e565b9260008201359167ffffffffffffffff83116103805761035a826103799483016101e8565b600086015261036c8260208301610226565b602086015260400161024d565b6040830152565b610319565b610314565b92919061039e610399826102f2565b61016e565b93818552602080860192028101918383116103f55781905b8382106103c4575050505050565b813567ffffffffffffffff81116103f0576020916103e5878493870161031e565b8152019101906103b6565b61011b565b61030f565b9080601f83011215610418578160206104159335910161038a565b90565b61011b565b91909160408184031261045e5761043783600083016100b4565b92602082013567ffffffffffffffff81116104595761045692016103fa565b90565b610083565b61007e565b346104925761047c61047636600461041d565b90611854565b610484610073565b8061048e816100e2565b0390f35b610079565b906020828203126104b1576104ae9160000161024d565b90565b61007e565b634e487b7160e01b600052603260045260246000fd5b5490565b600052602060002090565b6104e4816104cc565b8210156104ff576104f66005916104d0565b91020190600090565b6104b6565b60001c90565b60ff1690565b61051c61052191610504565b61050a565b90565b61052e9054610510565b90565b634e487b7160e01b600052602260045260246000fd5b9060016002830492168015610567575b602083101461056257565b610531565b91607f1691610557565b60209181520190565b600052602060002090565b90600092918054906105a061059983610547565b8094610571565b916001811690816000146105f957506001146105bc575b505050565b6105c9919293945061057a565b916000925b8184106105e157505001903880806105b7565b600181602092959395548486015201910192906105ce565b92949550505060ff19168252151560200201903880806105b7565b9061061e91610585565b90565b9061064161063a92610631610073565b93848092610614565b0383610145565b565b60081c90565b61ffff1690565b61065c61066191610643565b610649565b90565b61066e9054610650565b90565b60181c90565b61068361068891610671565b610649565b90565b6106959054610677565b90565b60281c90565b60ff1690565b6106b06106b591610698565b61069e565b90565b6106c290546106a4565b90565b90565b6106d46106d991610504565b6106c5565b90565b6106e690546106c8565b90565b6000906106f5826104cc565b81101561077057610705916104db565b509061071360008301610524565b9161072060018201610621565b9161072d60028301610621565b9161073a60038201610524565b9161074760038301610664565b916107546003820161068b565b9161076d6004610766600385016106b8565b93016106dc565b90565b600080fd5b61077e9061020b565b9052565b5190565b60209181520190565b60005b8381106107a3575050906000910152565b806020918301518185015201610792565b6107d36107dc6020936107e1936107ca81610782565b93848093610786565b9586910161078f565b610125565b0190565b61ffff1690565b6107f5906107e5565b9052565b634e487b7160e01b600052602160045260246000fd5b6002111561081957565b6107f9565b906108288261080f565b565b6108339061081e565b90565b61083f9061082a565b9052565b61084c90610235565b9052565b939897956108b460e0966108aa61089f6108c8976108918a6108cf9e996108836108be9a60006101008501940190610775565b8c60208184039101526107b4565b908a820360408c01526107b4565b9c6060890190610775565b60808701906107ec565b60a08501906107ec565b60c0830190610836565b0190610843565b565b3461090b576109076108ec6108e7366004610497565b6106e9565b946108fe989698949194939293610073565b98899889610850565b0390f35b610079565b5190565b60209181520190565b60200190565b61092c9061020b565b9052565b61094f61095860209361095d9361094681610782565b93848093610571565b9586910161078f565b610125565b0190565b61096a906107e5565b9052565b6109779061082a565b9052565b61098490610235565b9052565b90610a249060e0806109d16109bf61010085016109ad60008901516000880190610923565b60208801518682036020880152610930565b60408701518582036040870152610930565b946109e460608201516060860190610923565b6109f660808201516080860190610961565b610a0860a082015160a0860190610961565b610a1a60c082015160c086019061096e565b015191019061097b565b90565b90610a3191610988565b90565b60200190565b90610a4e610a4783610910565b8092610914565b9081610a5f6020830284019461091d565b926000915b838310610a7357505050505090565b90919293946020610a95610a8f83856001950387528951610a27565b97610a34565b9301930191939290610a64565b610ad2916020610ac16040830160008501518482036000860152610a3a565b920151906020818403910152610a3a565b90565b610aeb9160208201916000818403910152610aa2565b90565b34610b1e57610b1a610b09610b043660046100c3565b611e11565b610b11610073565b91829182610ad5565b0390f35b610079565b600080fd5b90565b90565b610b42610b3d610b4792610b28565b610b2b565b610088565b90565b610b5390610b2e565b90565b60007f496e76616c696420616464726573730000000000000000000000000000000000910152565b610b8b600f602092610786565b610b9481610b56565b0190565b610bae9060208101906000818303910152610b7e565b90565b15610bb857565b610bc0610073565b62461bcd60e51b815280610bd660048201610b98565b0390fd5b610bee610be9610bf392610b28565b610b2b565b610235565b90565b6001610c029101610235565b90565b610c19610c14610c1e92610088565b610b2b565b610088565b90565b610c2a90610c05565b90565b610c3690610c21565b90565b90610c4390610c2d565b600052602052604060002090565b90565b600052602060002090565b5490565b610c6c81610c5f565b821015610c8757610c7e600591610c54565b91020190600090565b6104b6565b634e487b7160e01b600052600060045260246000fd5b60001b90565b90610cb460ff91610ca2565b9181191691161790565b610cd2610ccd610cd79261020b565b610b2b565b61020b565b90565b90565b90610cf2610ced610cf992610cbe565b610cda565b8254610ca8565b9055565b610d079054610547565b90565b601f602091010490565b1b90565b91906008610d34910291610d2e60001984610d14565b92610d14565b9181191691161790565b610d52610d4d610d5792610235565b610b2b565b610235565b90565b90565b9190610d73610d6e610d7b93610d3e565b610d5a565b908354610d18565b9055565b600090565b610d9691610d90610d7f565b91610d5d565b565b5b818110610da4575050565b80610db26000600193610d84565b01610d99565b9190601f8111610dc8575b505050565b610dd4610df99361057a565b906020610de084610d0a565b83019310610e01575b610df290610d0a565b0190610d98565b388080610dc3565b9150610df281929050610de9565b1c90565b90610e249060001990600802610e0f565b191690565b81610e3391610e13565b906002021790565b90808214610f1d57610e4c81610cfd565b9067ffffffffffffffff8211610f1857610e7082610e6a8554610547565b85610db8565b600090601f8311600114610ea557918091610e9493600092610e99575b5050610e29565b90555b565b90915001543880610e8d565b90610eb4601f1984169261057a565b90610ebe8561057a565b9260005b818110610f0057509160029391856001969410610ee6575b50505002019055610e97565b610ef6910154601f841690610e13565b9055388080610eda565b91936001806020928787015481550195019201610ec2565b61012f565b5050565b90610f2b91610e3b565b565b60081b90565b90610f4162ffff0091610f2d565b9181191691161790565b610f5f610f5a610f64926107e5565b610b2b565b6107e5565b90565b90565b90610f7f610f7a610f8692610f4b565b610f67565b8254610f33565b9055565b60181b90565b90610fa064ffff00000091610f8a565b9181191691161790565b90610fbf610fba610fc692610f4b565b610f67565b8254610f90565b9055565b60281b90565b90610fe165ff000000000091610fca565b9181191691161790565b610ff49061081e565b90565b90565b9061100f61100a61101692610feb565b610ff7565b8254610fd0565b9055565b9061102760001991610ca2565b9181191691161790565b9061104661104161104d92610d3e565b610d5a565b825461101a565b9055565b9080820361105e575b5050565b61110f600480846110816000611115970161107b60008801610524565b90610cdd565b611092600182016001870190610f21565b6110a3600282016002870190610f21565b6110bc600382016110b660038801610524565b90610cdd565b6110d5600382016110cf60038801610664565b90610f6a565b6110ee600382016110e86003880161068b565b90610faa565b61110760038201611101600388016106b8565b90610ffa565b0192016106dc565b90611031565b388061105a565b919061112d5761112b91611051565b565b610c8c565b9081549168010000000000000000831015611162578261115a91600161116095018155610c63565b9061111c565b565b61012f565b9061118e8261118761118161117c6000610b4a565b610093565b91610093565b1415610bb1565b6111986000610bda565b5b806111b56111af6111aa60006104cc565b610235565b91610235565b10156111f3576111ee906111e96111d66111d160018790610c39565b610c51565b6111e2600084906104db565b5090611132565b610bf6565b611199565b509050565b61120c61120761121192610b28565b610b2b565b61020b565b90565b60007f496e76616c696420636861707465720000000000000000000000000000000000910152565b611249600f602092610786565b61125281611214565b0190565b61126c906020810190600081830391015261123c565b90565b1561127657565b61127e610073565b62461bcd60e51b81528061129460048201611256565b0390fd5b905090565b90600092918054906112b86112b183610547565b8094611298565b9160018116908160001461130c57506001146112d4575b505050565b6112e1919293945061057a565b6000905b8382106112f857505001903880806112cf565b6001816020925484860152019101906112e5565b92949550505060ff191682528015150201903880806112cf565b61132f9161129d565b90565b60200190565b5190565b6113616113589260209261134f81610782565b94858093611298565b9384910161078f565b0190565b61136e9161133c565b90565b90565b6040906113a16113966113a895979694606084019084820360008601526107b4565b966020830190610775565b0190610843565b565b634e487b7160e01b600052601160045260246000fd5b6113c990610235565b60001981146113d85760010190565b6113aa565b60007f56616363696e65206e6f7420666f756e6420666f7220746865206368696c6400910152565b611412601f602092610786565b61141b816113dd565b0190565b6114359060208101906000818303910152611405565b90565b1561143f57565b611447610073565b62461bcd60e51b81528061145d6004820161141f565b0390fd5b92909161148a8461148361147d6114786000610b4a565b610093565b91610093565b1415610bb1565b6114a7816114a161149b60006111f8565b9161020b565b1161126f565b6114bb6114b660018690610c39565b610c51565b926114c66000610bda565b926114d16000610bda565b5b806114ed6114e76114e289610c5f565b610235565b91610235565b10156116645761151c61152b6001611506898590610c63565b5001611510610073565b92839160208301611326565b60208201810382520382610145565b61153d61153782611338565b91611332565b2061158c61158661155f61156e87611553610073565b92839160208301611365565b60208201810382520382610145565b61158061157a82611338565b91611332565b20611371565b91611371565b1480611634575b6115a6575b6115a190610bf6565b6114d2565b9361162c6115a1916115c7600160036115c08b8b90610c63565b5001610ffa565b6115df8460046115d88b8b90610c63565b5001611031565b8885908786926116246116127fb989ef158c19df23eed94cb1e47cc7a53040177a25f72b3087ea5a5dfc67a9d694610c2d565b9461161b610073565b93849384611374565b0390a26113c0565b949050611598565b5061164c6003611645888490610c63565b5001610524565b61165e6116588661020b565b9161020b565b14611593565b505050509050611688915061168261167c6000610bda565b91610235565b11611438565b565b60007f496e76616c6964206368696c6420616464726573730000000000000000000000910152565b6116bf6015602092610786565b6116c88161168a565b0190565b6116e290602081019060008183039101526116b2565b90565b156116ec57565b6116f4610073565b62461bcd60e51b81528061170a600482016116cc565b0390fd5b5190565b60007f56616363696e6174696f6e732072657175697265640000000000000000000000910152565b6117476015602092610786565b61175081611712565b0190565b61176a906020810190600081830391015261173a565b90565b1561177457565b61177c610073565b62461bcd60e51b81528061179260048201611754565b0390fd5b906117a08261170e565b8110156117b1576020809102010190565b6104b6565b6117c0905161020b565b90565b6117cd9051610235565b90565b60007f4e6f2076616363696e6174696f6e732075706461746564000000000000000000910152565b6118056017602092610786565b61180e816117d0565b0190565b61182890602081019060008183039101526117f8565b90565b1561183257565b61183a610073565b62461bcd60e51b81528061185060048201611812565b0390fd5b91909161187d8161187661187061186b6000610b4a565b610093565b91610093565b14156116e5565b6118a26118898461170e565b61189c6118966000610bda565b91610235565b1161176d565b6118b66118b160018390610c39565b610c51565b6118c06000610bda565b906118cb6000610bda565b945b856118e86118e26118dd8461170e565b610235565b91610235565b1015611b58576118f9818790611796565b519461192361190a602088016117b6565b61191d61191760006111f8565b9161020b565b1161126f565b61192d6000610bda565b5b8061194961194361193e87610c5f565b610235565b91610235565b1015611b42576119786119876001611962878590610c63565b500161196c610073565b92839160208301611326565b60208201810382520382610145565b61199961199382611338565b91611332565b206119ec6119e66119bf6119ce60008c01516119b3610073565b92839160208301611365565b60208201810382520382610145565b6119e06119da82611338565b91611332565b20611371565b91611371565b1480611b06575b80611ad5575b611a0c575b611a0790610bf6565b61192e565b93611acd611a0791611a2d60016003611a26898b90610c63565b5001610ffa565b611a50611a3c60408b016117c3565b6004611a49898b90610c63565b5001611031565b8760008a015190611a6e6003611a678a8c90610c63565b5001610524565b611a856004611a7e8b8d90610c63565b50016106dc565b92611ac5611ab37fb989ef158c19df23eed94cb1e47cc7a53040177a25f72b3087ea5a5dfc67a9d694610c2d565b94611abc610073565b93849384611374565b0390a26113c0565b9490506119fe565b50611aed6003611ae6868490610c63565b50016106b8565b611b00611afa600061081e565b9161081e565b146119f9565b50611b1e6003611b17868490610c63565b5001610524565b611b3b611b35611b3060208b016117b6565b61020b565b9161020b565b11156119f3565b5095611b5091929550610bf6565b9493906118cd565b50509050611b7b919250611b75611b6f6000610bda565b91610235565b1161182b565b565b611b87604061016e565b90565b606090565b611b97611b7d565b9060208083611ba4611b8a565b815201611baf611b8a565b81525050565b611bbd611b8f565b90565b67ffffffffffffffff8111611bd85760208091020190565b61012f565b90611bef611bea83611bc0565b61016e565b918252565b611bff61010061016e565b90565b600090565b606090565b600090565b600090565b600090565b611c23611bf4565b9060208080808080808089611c36611c02565b815201611c41611c07565b815201611c4c611c07565b815201611c57611c02565b815201611c62611c0c565b815201611c6d611c0c565b815201611c78611c11565b815201611c83611c16565b81525050565b611c91611c1b565b90565b60005b828110611ca357505050565b602090611cae611c89565b8184015201611c97565b90611cdd611cc583611bdd565b92602080611cd38693611bc0565b9201910390611c94565b565b90611ce982610910565b811015611cfa576020809102010190565b6104b6565b90611d099061020b565b9052565b52565b90611d1a906107e5565b9052565b90611d289061081e565b9052565b90611d3690610235565b9052565b90611e03611dfa6004611d4b611bf4565b94611d64611d5b60008301610524565b60008801611cff565b611d7c611d7360018301610621565b60208801611d0d565b611d94611d8b60028301610621565b60408801611d0d565b611dac611da360038301610524565b60608801611cff565b611dc4611dbb60038301610664565b60808801611d10565b611ddc611dd36003830161068b565b60a08801611d10565b611df4611deb600383016106b8565b60c08801611d1e565b016106dc565b60e08401611d2c565b565b611e0e90611d3a565b90565b611e4e611e5391611e20611bb5565b50611e4781611e40611e3a611e356000610b4a565b610093565b91610093565b1415610bb1565b6001610c39565b610c51565b611e5d6000610bda565b611e676000610bda565b90611e726000610bda565b905b81611e8f611e89611e8487610c5f565b610235565b91610235565b1015611f2f57611eac6003611ea5868590610c63565b50016106b8565b611ebf611eb9600161081e565b9161081e565b14600014611ee057611ed3611eda916113c0565b915b610bf6565b90611e74565b90611ef86003611ef1868490610c63565b50016106b8565b611f0b611f05600061081e565b9161081e565b14611f1a575b611eda90611ed5565b91611f27611eda916113c0565b929050611f11565b91611f509150611f46611f40611bb5565b93611cb8565b6000840152611cb8565b6020820152611f5f6000610bda565b611f696000610bda565b92611f746000610bda565b915b82611f91611f8b611f8685610c5f565b610235565b91610235565b101561209157611fae6003611fa7848690610c63565b50016106b8565b611fc1611fbb600161081e565b9161081e565b146000146120125761200561200c91611ffe611fde858790610c63565b506000880151611fee8492611e05565b611ff88383611cdf565b52611cdf565b51506113c0565b925b610bf6565b91611f76565b9161202a6003612023848490610c63565b50016106b8565b61203d612037600061081e565b9161081e565b1461204c575b61200c90612007565b9361208961200c91612082612062858990610c63565b5060208801516120728492611e05565b61207c8383611cdf565b52611cdf565b51506113c0565b949050612043565b50505090509056fea2646970667358221220115d11e7b72dcc639529f2585755335f2651339a0b1361665205c1fc74c1f5f764736f6c634300081b0033",
  "linkReferences": {},
  "deployedLinkReferences": {}
}