{
  "_format": "hh-sol-artifact-1",
  "contractName": "HealthInformation",
  "sourceName": "contracts/HealthInformation.sol",
  "abi": [
    {
      "inputs": [
        {
          "internalType": "address",
          "name": "_childAddress",
          "type": "address"
        }
      ],
      "name": "getHealthInformation",
      "outputs": [
        {
          "components": [
            {
              "internalType": "uint16",
              "name": "height",
              "type": "uint16"
            },
            {
              "internalType": "uint16",
              "name": "weight",
              "type": "uint16"
            }
          ],
          "internalType": "struct HealthInformation.Information",
          "name": "",
          "type": "tuple"
        }
      ],
      "stateMutability": "view",
      "type": "function"
    },
    {
      "inputs": [
        {
          "internalType": "address",
          "name": "_childAddress",
          "type": "address"
        },
        {
          "components": [
            {
              "internalType": "uint16",
              "name": "height",
              "type": "uint16"
            },
            {
              "internalType": "uint16",
              "name": "weight",
              "type": "uint16"
            }
          ],
          "internalType": "struct HealthInformation.Information",
          "name": "_healthInfo",
          "type": "tuple"
        }
      ],
      "name": "setHealthInformation",
      "outputs": [],
      "stateMutability": "nonpayable",
      "type": "function"
    }
  ],
  "bytecode": "0x608060405234601c57600e6020565b6104f361002c82396104f390f35b6026565b60405190565b600080fdfe60806040526004361015610013575b610262565b61001e60003561003d565b8063aa65a43e146100385763fef287720361000e5761022e565b6100fd565b60e01c90565b60405190565b600080fd5b600080fd5b60018060a01b031690565b61006790610053565b90565b6100738161005e565b0361007a57565b600080fd5b9050359061008c8261006a565b565b906020828203126100a8576100a59160000161007f565b90565b61004e565b61ffff1690565b6100bd906100ad565b9052565b906020806100e5936100db600082015160008601906100b4565b01519101906100b4565b565b91906100fb906000604085019401906100c1565b565b3461012d5761012961011861011336600461008e565b6103a1565b610120610043565b918291826100e7565b0390f35b610049565b600080fd5b601f801991011690565b634e487b7160e01b600052604160045260246000fd5b9061016190610137565b810190811067ffffffffffffffff82111761017b57604052565b610141565b9061019361018c610043565b9283610157565b565b61019e816100ad565b036101a557565b600080fd5b905035906101b782610195565b565b91906040838203126101f5576101ee906101d36040610180565b936101e182600083016101aa565b60008601526020016101aa565b6020830152565b610132565b91906060838203126102235780610217610220926000860161007f565b936020016101b9565b90565b61004e565b60000190565b3461025d576102476102413660046101fa565b906104a7565b61024f610043565b8061025981610228565b0390f35b610049565b600080fd5b6102716040610180565b90565b600090565b610281610267565b906020808361028e610274565b815201610299610274565b81525050565b6102a7610279565b90565b90565b6102c16102bc6102c692610053565b6102aa565b610053565b90565b6102d2906102ad565b90565b6102de906102c9565b90565b906102eb906102d5565b600052602052604060002090565b60001c90565b61ffff1690565b610312610317916102f9565b6102ff565b90565b6103249054610306565b90565b90610331906100ad565b9052565b60101c90565b61034761034c91610335565b6102ff565b90565b610359905461033b565b90565b9061039361038a600061036d610267565b9461038461037c83830161031a565b838801610327565b0161034f565b60208401610327565b565b61039e9061035c565b90565b6103b86103bd916103b061029f565b5060006102e1565b610395565b90565b6103ca90516100ad565b90565b60001b90565b906103e061ffff916103cd565b9181191691161790565b6103fe6103f9610403926100ad565b6102aa565b6100ad565b90565b90565b9061041e610419610425926103ea565b610406565b82546103d3565b9055565b60101b90565b9061043e63ffff000091610429565b9181191691161790565b9061045d610458610464926103ea565b610406565b825461042f565b9055565b90610493602060006104999461048b8282016104858488016103c0565b90610409565b0192016103c0565b90610448565b565b906104a591610468565b565b6104b66104bb929160006102e1565b61049b565b56fea26469706673582212205bb5fdbe65749e9b2105c00bf793b642a5db70422372038f8765fee56422fe1264736f6c634300081b0033",
  "linkReferences": {},
  "deployedLinkReferences": {}
}